{
  "_format": "hh-sol-artifact-1",
  "contractName": "Issuer",
  "sourceName": "contracts/dev3/issuer/Issuer.sol",
  "abi": [
    {
      "inputs": [
        {
          "internalType": "string",
          "name": "issuerFlavor",
          "type": "string"
        },
        {
          "internalType": "string",
          "name": "issuerVersion",
          "type": "string"
        },
        {
          "internalType": "address",
          "name": "owner",
          "type": "address"
        },
        {
          "internalType": "address",
          "name": "stablecoin",
          "type": "address"
        },
        {
          "internalType": "address",
          "name": "walletApprover",
          "type": "address"
        },
        {
          "internalType": "string",
          "name": "info",
          "type": "string"
        }
      ],
      "stateMutability": "nonpayable",
      "type": "constructor"
    },
    {
      "anonymous": false,
      "inputs": [
        {
          "indexed": false,
          "internalType": "address",
          "name": "caller",
          "type": "address"
        },
        {
          "indexed": false,
          "internalType": "address",
          "name": "newOwner",
          "type": "address"
        },
        {
          "indexed": false,
          "internalType": "uint256",
          "name": "timestamp",
          "type": "uint256"
        }
      ],
      "name": "ChangeOwnership",
      "type": "event"
    },
    {
      "anonymous": false,
      "inputs": [
        {
          "indexed": false,
          "internalType": "address",
          "name": "caller",
          "type": "address"
        },
        {
          "indexed": false,
          "internalType": "address",
          "name": "oldWalletApprover",
          "type": "address"
        },
        {
          "indexed": false,
          "internalType": "address",
          "name": "newWalletApprover",
          "type": "address"
        },
        {
          "indexed": false,
          "internalType": "uint256",
          "name": "timestamp",
          "type": "uint256"
        }
      ],
      "name": "ChangeWalletApprover",
      "type": "event"
    },
    {
      "anonymous": false,
      "inputs": [
        {
          "indexed": false,
          "internalType": "string",
          "name": "info",
          "type": "string"
        },
        {
          "indexed": false,
          "internalType": "address",
          "name": "setter",
          "type": "address"
        },
        {
          "indexed": false,
          "internalType": "uint256",
          "name": "timestamp",
          "type": "uint256"
        }
      ],
      "name": "SetInfo",
      "type": "event"
    },
    {
      "anonymous": false,
      "inputs": [
        {
          "indexed": true,
          "internalType": "address",
          "name": "approver",
          "type": "address"
        },
        {
          "indexed": true,
          "internalType": "address",
          "name": "wallet",
          "type": "address"
        }
      ],
      "name": "WalletBlacklist",
      "type": "event"
    },
    {
      "anonymous": false,
      "inputs": [
        {
          "indexed": true,
          "internalType": "address",
          "name": "approver",
          "type": "address"
        },
        {
          "indexed": true,
          "internalType": "address",
          "name": "wallet",
          "type": "address"
        }
      ],
      "name": "WalletWhitelist",
      "type": "event"
    },
    {
      "inputs": [
        {
          "internalType": "address",
          "name": "wallet",
          "type": "address"
        }
      ],
      "name": "approveWallet",
      "outputs": [],
      "stateMutability": "nonpayable",
      "type": "function"
    },
    {
      "inputs": [
        {
          "internalType": "address",
          "name": "",
          "type": "address"
        }
      ],
      "name": "approvedWalletsMap",
      "outputs": [
        {
          "internalType": "uint256",
          "name": "",
          "type": "uint256"
        }
      ],
      "stateMutability": "view",
      "type": "function"
    },
    {
      "inputs": [
        {
          "internalType": "address",
          "name": "newOwner",
          "type": "address"
        }
      ],
      "name": "changeOwnership",
      "outputs": [],
      "stateMutability": "nonpayable",
      "type": "function"
    },
    {
      "inputs": [
        {
          "internalType": "address",
          "name": "newWalletApprover",
          "type": "address"
        }
      ],
      "name": "changeWalletApprover",
      "outputs": [],
      "stateMutability": "nonpayable",
      "type": "function"
    },
    {
      "inputs": [],
      "name": "commonState",
      "outputs": [
        {
          "components": [
            {
              "internalType": "string",
              "name": "flavor",
              "type": "string"
            },
            {
              "internalType": "string",
              "name": "version",
              "type": "string"
            },
            {
              "internalType": "address",
              "name": "contractAddress",
              "type": "address"
            },
            {
              "internalType": "address",
              "name": "owner",
              "type": "address"
            },
            {
              "internalType": "address",
              "name": "stablecoin",
              "type": "address"
            },
            {
              "internalType": "address",
              "name": "walletApprover",
              "type": "address"
            },
            {
              "internalType": "string",
              "name": "info",
              "type": "string"
            }
          ],
          "internalType": "struct Structs.IssuerCommonState",
          "name": "",
          "type": "tuple"
        }
      ],
      "stateMutability": "view",
      "type": "function"
    },
    {
      "inputs": [],
      "name": "flavor",
      "outputs": [
        {
          "internalType": "string",
          "name": "",
          "type": "string"
        }
      ],
      "stateMutability": "view",
      "type": "function"
    },
    {
      "inputs": [],
      "name": "getInfoHistory",
      "outputs": [
        {
          "components": [
            {
              "internalType": "string",
              "name": "info",
              "type": "string"
            },
            {
              "internalType": "uint256",
              "name": "timestamp",
              "type": "uint256"
            }
          ],
          "internalType": "struct Structs.InfoEntry[]",
          "name": "",
          "type": "tuple[]"
        }
      ],
      "stateMutability": "view",
      "type": "function"
    },
    {
      "inputs": [],
      "name": "getState",
      "outputs": [
        {
          "components": [
            {
              "internalType": "string",
              "name": "flavor",
              "type": "string"
            },
            {
              "internalType": "string",
              "name": "version",
              "type": "string"
            },
            {
              "internalType": "address",
              "name": "contractAddress",
              "type": "address"
            },
            {
              "internalType": "address",
              "name": "owner",
              "type": "address"
            },
            {
              "internalType": "address",
              "name": "stablecoin",
              "type": "address"
            },
            {
              "internalType": "address",
              "name": "walletApprover",
              "type": "address"
            },
            {
              "internalType": "string",
              "name": "info",
              "type": "string"
            }
          ],
          "internalType": "struct Structs.IssuerState",
          "name": "",
          "type": "tuple"
        }
      ],
      "stateMutability": "view",
      "type": "function"
    },
    {
      "inputs": [],
      "name": "getWalletRecords",
      "outputs": [
        {
          "components": [
            {
              "internalType": "address",
              "name": "wallet",
              "type": "address"
            },
            {
              "internalType": "bool",
              "name": "whitelisted",
              "type": "bool"
            }
          ],
          "internalType": "struct Structs.WalletRecord[]",
          "name": "",
          "type": "tuple[]"
        }
      ],
      "stateMutability": "view",
      "type": "function"
    },
    {
      "inputs": [
        {
          "internalType": "address",
          "name": "wallet",
          "type": "address"
        }
      ],
      "name": "isWalletApproved",
      "outputs": [
        {
          "internalType": "bool",
          "name": "",
          "type": "bool"
        }
      ],
      "stateMutability": "view",
      "type": "function"
    },
    {
      "inputs": [
        {
          "internalType": "string",
          "name": "info",
          "type": "string"
        }
      ],
      "name": "setInfo",
      "outputs": [],
      "stateMutability": "nonpayable",
      "type": "function"
    },
    {
      "inputs": [
        {
          "internalType": "address",
          "name": "wallet",
          "type": "address"
        }
      ],
      "name": "suspendWallet",
      "outputs": [],
      "stateMutability": "nonpayable",
      "type": "function"
    },
    {
      "inputs": [],
      "name": "version",
      "outputs": [
        {
          "internalType": "string",
          "name": "",
          "type": "string"
        }
      ],
      "stateMutability": "view",
      "type": "function"
    }
  ],
  "bytecode": "0x60806040523480156200001157600080fd5b5060405162002dbc38038062002dbc83398181016040528101906200003791906200082d565b600073ffffffffffffffffffffffffffffffffffffffff168473ffffffffffffffffffffffffffffffffffffffff161415620000aa576040517f08c379a0000000000000000000000000000000000000000000000000000000008152600401620000a19062000a20565b60405180910390fd5b600073ffffffffffffffffffffffffffffffffffffffff168373ffffffffffffffffffffffffffffffffffffffff1614156200011d576040517f08c379a0000000000000000000000000000000000000000000000000000000008152600401620001149062000a42565b60405180910390fd5b600073ffffffffffffffffffffffffffffffffffffffff168273ffffffffffffffffffffffffffffffffffffffff16141562000190576040517f08c379a0000000000000000000000000000000000000000000000000000000008152600401620001879062000a64565b60405180910390fd5b600760405180604001604052808381526020014281525090806001815401808255809150506001900390600052602060002090600202016000909190919091506000820151816000019080519060200190620001ee929190620006f4565b506020820151816001015550506040518060e001604052808781526020018681526020013073ffffffffffffffffffffffffffffffffffffffff1681526020018573ffffffffffffffffffffffffffffffffffffffff1681526020018473ffffffffffffffffffffffffffffffffffffffff1681526020018373ffffffffffffffffffffffffffffffffffffffff16815260200182815250600080820151816000019080519060200190620002a5929190620006f4565b506020820151816001019080519060200190620002c4929190620006f4565b5060408201518160020160006101000a81548173ffffffffffffffffffffffffffffffffffffffff021916908373ffffffffffffffffffffffffffffffffffffffff16021790555060608201518160030160006101000a81548173ffffffffffffffffffffffffffffffffffffffff021916908373ffffffffffffffffffffffffffffffffffffffff16021790555060808201518160040160006101000a81548173ffffffffffffffffffffffffffffffffffffffff021916908373ffffffffffffffffffffffffffffffffffffffff16021790555060a08201518160050160006101000a81548173ffffffffffffffffffffffffffffffffffffffff021916908373ffffffffffffffffffffffffffffffffffffffff16021790555060c0820151816006019080519060200190620003ff929190620006f4565b50905050620004168460016200042260201b60201c565b50505050505062000c8a565b6200043382620005f760201b60201c565b15620004de57806008600960008573ffffffffffffffffffffffffffffffffffffffff1673ffffffffffffffffffffffffffffffffffffffff1681526020019081526020016000205481548110620004b4577f4e487b7100000000000000000000000000000000000000000000000000000000600052603260045260246000fd5b9060005260206000200160000160146101000a81548160ff021916908315150217905550620005f3565b600860405180604001604052808473ffffffffffffffffffffffffffffffffffffffff1681526020018315158152509080600181540180825580915050600190039060005260206000200160009091909190915060008201518160000160006101000a81548173ffffffffffffffffffffffffffffffffffffffff021916908373ffffffffffffffffffffffffffffffffffffffff16021790555060208201518160000160146101000a81548160ff02191690831515021790555050506001600880549050620005af919062000afe565b600960008473ffffffffffffffffffffffffffffffffffffffff1673ffffffffffffffffffffffffffffffffffffffff168152602001908152602001600020819055505b5050565b600080600960008473ffffffffffffffffffffffffffffffffffffffff1673ffffffffffffffffffffffffffffffffffffffff168152602001908152602001600020549050600880549050811062000654576000915050620006ef565b8273ffffffffffffffffffffffffffffffffffffffff1660088281548110620006a6577f4e487b7100000000000000000000000000000000000000000000000000000000600052603260045260246000fd5b9060005260206000200160000160009054906101000a900473ffffffffffffffffffffffffffffffffffffffff1673ffffffffffffffffffffffffffffffffffffffff16149150505b919050565b828054620007029062000bad565b90600052602060002090601f01602090048101928262000726576000855562000772565b82601f106200074157805160ff191683800117855562000772565b8280016001018555821562000772579182015b828111156200077157825182559160200191906001019062000754565b5b50905062000781919062000785565b5090565b5b80821115620007a057600081600090555060010162000786565b5090565b6000620007bb620007b58462000aba565b62000a86565b905082815260208101848484011115620007d457600080fd5b620007e184828562000b77565b509392505050565b600081519050620007fa8162000c70565b92915050565b600082601f8301126200081257600080fd5b815162000824848260208601620007a4565b91505092915050565b60008060008060008060c087890312156200084757600080fd5b600087015167ffffffffffffffff8111156200086257600080fd5b6200087089828a0162000800565b965050602087015167ffffffffffffffff8111156200088e57600080fd5b6200089c89828a0162000800565b9550506040620008af89828a01620007e9565b9450506060620008c289828a01620007e9565b9350506080620008d589828a01620007e9565b92505060a087015167ffffffffffffffff811115620008f357600080fd5b6200090189828a0162000800565b9150509295509295509295565b60006200091d601d8362000aed565b91507f4973737565723a20696e76616c6964206f776e657220616464726573730000006000830152602082019050919050565b60006200095f60228362000aed565b91507f4973737565723a20696e76616c696420737461626c65636f696e20616464726560008301527f73730000000000000000000000000000000000000000000000000000000000006020830152604082019050919050565b6000620009c760278362000aed565b91507f4973737565723a20696e76616c69642077616c6c657420617070726f7665722060008301527f61646472657373000000000000000000000000000000000000000000000000006020830152604082019050919050565b6000602082019050818103600083015262000a3b816200090e565b9050919050565b6000602082019050818103600083015262000a5d8162000950565b9050919050565b6000602082019050818103600083015262000a7f81620009b8565b9050919050565b6000604051905081810181811067ffffffffffffffff8211171562000ab05762000aaf62000c41565b5b8060405250919050565b600067ffffffffffffffff82111562000ad85762000ad762000c41565b5b601f19601f8301169050602081019050919050565b600082825260208201905092915050565b600062000b0b8262000b6d565b915062000b188362000b6d565b92508282101562000b2e5762000b2d62000be3565b5b828203905092915050565b600062000b468262000b4d565b9050919050565b600073ffffffffffffffffffffffffffffffffffffffff82169050919050565b6000819050919050565b60005b8381101562000b9757808201518184015260208101905062000b7a565b8381111562000ba7576000848401525b50505050565b6000600282049050600182168062000bc657607f821691505b6020821081141562000bdd5762000bdc62000c12565b5b50919050565b7f4e487b7100000000000000000000000000000000000000000000000000000000600052601160045260246000fd5b7f4e487b7100000000000000000000000000000000000000000000000000000000600052602260045260246000fd5b7f4e487b7100000000000000000000000000000000000000000000000000000000600052604160045260246000fd5b62000c7b8162000b39565b811462000c8757600080fd5b50565b6121228062000c9a6000396000f3fe608060405234801561001057600080fd5b50600436106100cf5760003560e01c806360f689931161008c578063cd9b4a1111610066578063cd9b4a11146101ec578063dd30b0c71461021c578063e72837551461023a578063f59e4f6514610256576100cf565b806360f6899314610196578063937f6e77146101b257806398e16255146101ce576100cf565b80630fcb0ae5146100d45780631818e2ec146100f05780631865c57d1461010e5780632af4c31e1461012c5780633657e8511461014857806354fd4d5014610178575b600080fd5b6100ee60048036038101906100e99190611726565b610274565b005b6100f861036f565b6040516101059190611de8565b60405180910390f35b610116610641565b6040516101239190611e0a565b60405180910390f35b61014660048036038101906101419190611726565b610969565b005b610162600480360381019061015d9190611726565b610a7e565b60405161016f9190611d0d565b60405180910390f35b610180610b2c565b60405161018d9190611d28565b60405180910390f35b6101b060048036038101906101ab9190611726565b610bc1565b005b6101cc60048036038101906101c7919061174f565b610d58565b005b6101d6610eac565b6040516101e39190611cc9565b60405180910390f35b61020660048036038101906102019190611726565b610fa7565b6040516102139190611e2c565b60405180910390f35b610224610fbf565b6040516102319190611ceb565b60405180910390f35b610254600480360381019061024f9190611726565b61108b565b005b61025e611186565b60405161026b9190611d28565b60405180910390f35b600060050160009054906101000a900473ffffffffffffffffffffffffffffffffffffffff1673ffffffffffffffffffffffffffffffffffffffff163373ffffffffffffffffffffffffffffffffffffffff1614610307576040517f08c379a00000000000000000000000000000000000000000000000000000000081526004016102fe90611da8565b60405180910390fd5b61031281600161121a565b8073ffffffffffffffffffffffffffffffffffffffff163373ffffffffffffffffffffffffffffffffffffffff167fa885b8c784adc80228100361073193dcbe7837f1573403bbbdec8c83da6b3c6160405160405180910390a350565b6103776114dc565b6040518060e0016040528060008001805461039190612005565b80601f01602080910402602001604051908101604052809291908181526020018280546103bd90612005565b801561040a5780601f106103df5761010080835404028352916020019161040a565b820191906000526020600020905b8154815290600101906020018083116103ed57829003601f168201915b505050505081526020016000600101805461042490612005565b80601f016020809104026020016040519081016040528092919081815260200182805461045090612005565b801561049d5780601f106104725761010080835404028352916020019161049d565b820191906000526020600020905b81548152906001019060200180831161048057829003601f168201915b50505050508152602001600060020160009054906101000a900473ffffffffffffffffffffffffffffffffffffffff1673ffffffffffffffffffffffffffffffffffffffff168152602001600060030160009054906101000a900473ffffffffffffffffffffffffffffffffffffffff1673ffffffffffffffffffffffffffffffffffffffff168152602001600060040160009054906101000a900473ffffffffffffffffffffffffffffffffffffffff1673ffffffffffffffffffffffffffffffffffffffff168152602001600060050160009054906101000a900473ffffffffffffffffffffffffffffffffffffffff1673ffffffffffffffffffffffffffffffffffffffff168152602001600060060180546105bb90612005565b80601f01602080910402602001604051908101604052809291908181526020018280546105e790612005565b80156106345780601f1061060957610100808354040283529160200191610634565b820191906000526020600020905b81548152906001019060200180831161061757829003601f168201915b5050505050815250905090565b610649611571565b60006040518060e001604052908160008201805461066690612005565b80601f016020809104026020016040519081016040528092919081815260200182805461069290612005565b80156106df5780601f106106b4576101008083540402835291602001916106df565b820191906000526020600020905b8154815290600101906020018083116106c257829003601f168201915b505050505081526020016001820180546106f890612005565b80601f016020809104026020016040519081016040528092919081815260200182805461072490612005565b80156107715780601f1061074657610100808354040283529160200191610771565b820191906000526020600020905b81548152906001019060200180831161075457829003601f168201915b505050505081526020016002820160009054906101000a900473ffffffffffffffffffffffffffffffffffffffff1673ffffffffffffffffffffffffffffffffffffffff1673ffffffffffffffffffffffffffffffffffffffff1681526020016003820160009054906101000a900473ffffffffffffffffffffffffffffffffffffffff1673ffffffffffffffffffffffffffffffffffffffff1673ffffffffffffffffffffffffffffffffffffffff1681526020016004820160009054906101000a900473ffffffffffffffffffffffffffffffffffffffff1673ffffffffffffffffffffffffffffffffffffffff1673ffffffffffffffffffffffffffffffffffffffff1681526020016005820160009054906101000a900473ffffffffffffffffffffffffffffffffffffffff1673ffffffffffffffffffffffffffffffffffffffff1673ffffffffffffffffffffffffffffffffffffffff1681526020016006820180546108e290612005565b80601f016020809104026020016040519081016040528092919081815260200182805461090e90612005565b801561095b5780601f106109305761010080835404028352916020019161095b565b820191906000526020600020905b81548152906001019060200180831161093e57829003601f168201915b505050505081525050905090565b600060030160009054906101000a900473ffffffffffffffffffffffffffffffffffffffff1673ffffffffffffffffffffffffffffffffffffffff163373ffffffffffffffffffffffffffffffffffffffff16146109fc576040517f08c379a00000000000000000000000000000000000000000000000000000000081526004016109f390611d88565b60405180910390fd5b80600060030160006101000a81548173ffffffffffffffffffffffffffffffffffffffff021916908373ffffffffffffffffffffffffffffffffffffffff1602179055507fb4fa0c8f1565e6385961540cac5b9884d84157c515100cf972728e8be8dacdd3338242604051610a7393929190611c92565b60405180910390a150565b6000610a89826113e2565b8015610b2557506008600960008473ffffffffffffffffffffffffffffffffffffffff1673ffffffffffffffffffffffffffffffffffffffff1681526020019081526020016000205481548110610b09577f4e487b7100000000000000000000000000000000000000000000000000000000600052603260045260246000fd5b9060005260206000200160000160149054906101000a900460ff165b9050919050565b606060006001018054610b3e90612005565b80601f0160208091040260200160405190810160405280929190818152602001828054610b6a90612005565b8015610bb75780601f10610b8c57610100808354040283529160200191610bb7565b820191906000526020600020905b815481529060010190602001808311610b9a57829003601f168201915b5050505050905090565b600060030160009054906101000a900473ffffffffffffffffffffffffffffffffffffffff1673ffffffffffffffffffffffffffffffffffffffff163373ffffffffffffffffffffffffffffffffffffffff161480610c705750600060050160009054906101000a900473ffffffffffffffffffffffffffffffffffffffff1673ffffffffffffffffffffffffffffffffffffffff163373ffffffffffffffffffffffffffffffffffffffff16145b610caf576040517f08c379a0000000000000000000000000000000000000000000000000000000008152600401610ca690611dc8565b60405180910390fd5b80600060050160006101000a81548173ffffffffffffffffffffffffffffffffffffffff021916908373ffffffffffffffffffffffffffffffffffffffff1602179055507fe4ff1f605955e821f9e684f2d7249e6ff8a5a14f51779fc709d118d7dbf6e9fe33600060050160009054906101000a900473ffffffffffffffffffffffffffffffffffffffff168342604051610d4d9493929190611c4d565b60405180910390a150565b600060030160009054906101000a900473ffffffffffffffffffffffffffffffffffffffff1673ffffffffffffffffffffffffffffffffffffffff163373ffffffffffffffffffffffffffffffffffffffff1614610deb576040517f08c379a0000000000000000000000000000000000000000000000000000000008152600401610de290611d88565b60405180910390fd5b600760405180604001604052808381526020014281525090806001815401808255809150506001900390600052602060002090600202016000909190919091506000820151816000019080519060200190610e47929190611606565b506020820151816001015550508060006006019080519060200190610e6d929190611606565b507f39b28594242c42fce47a0a6e63bac12adbd07fbb35580f5a54b236858101d58a813342604051610ea193929190611d4a565b60405180910390a150565b60606007805480602002602001604051908101604052809291908181526020016000905b82821015610f9e5783829060005260206000209060020201604051806040016040529081600082018054610f0390612005565b80601f0160208091040260200160405190810160405280929190818152602001828054610f2f90612005565b8015610f7c5780601f10610f5157610100808354040283529160200191610f7c565b820191906000526020600020905b815481529060010190602001808311610f5f57829003601f168201915b5050505050815260200160018201548152505081526020019060010190610ed0565b50505050905090565b60096020528060005260406000206000915090505481565b60606008805480602002602001604051908101604052809291908181526020016000905b82821015611082578382906000526020600020016040518060400160405290816000820160009054906101000a900473ffffffffffffffffffffffffffffffffffffffff1673ffffffffffffffffffffffffffffffffffffffff1673ffffffffffffffffffffffffffffffffffffffff1681526020016000820160149054906101000a900460ff16151515158152505081526020019060010190610fe3565b50505050905090565b600060050160009054906101000a900473ffffffffffffffffffffffffffffffffffffffff1673ffffffffffffffffffffffffffffffffffffffff163373ffffffffffffffffffffffffffffffffffffffff161461111e576040517f08c379a000000000000000000000000000000000000000000000000000000000815260040161111590611da8565b60405180910390fd5b61112981600061121a565b8073ffffffffffffffffffffffffffffffffffffffff163373ffffffffffffffffffffffffffffffffffffffff167f4e3dd8619d0ec707065a022f62a9cbff44d1afe3b24f450b9328648fb1c512a760405160405180910390a350565b606060008001805461119790612005565b80601f01602080910402602001604051908101604052809291908181526020018280546111c390612005565b80156112105780601f106111e557610100808354040283529160200191611210565b820191906000526020600020905b8154815290600101906020018083116111f357829003601f168201915b5050505050905090565b611223826113e2565b156112cb57806008600960008573ffffffffffffffffffffffffffffffffffffffff1673ffffffffffffffffffffffffffffffffffffffff16815260200190815260200160002054815481106112a2577f4e487b7100000000000000000000000000000000000000000000000000000000600052603260045260246000fd5b9060005260206000200160000160146101000a81548160ff0219169083151502179055506113de565b600860405180604001604052808473ffffffffffffffffffffffffffffffffffffffff1681526020018315158152509080600181540180825580915050600190039060005260206000200160009091909190915060008201518160000160006101000a81548173ffffffffffffffffffffffffffffffffffffffff021916908373ffffffffffffffffffffffffffffffffffffffff16021790555060208201518160000160146101000a81548160ff0219169083151502179055505050600160088054905061139a9190611f47565b600960008473ffffffffffffffffffffffffffffffffffffffff1673ffffffffffffffffffffffffffffffffffffffff168152602001908152602001600020819055505b5050565b600080600960008473ffffffffffffffffffffffffffffffffffffffff1673ffffffffffffffffffffffffffffffffffffffff168152602001908152602001600020549050600880549050811061143d5760009150506114d7565b8273ffffffffffffffffffffffffffffffffffffffff166008828154811061148e577f4e487b7100000000000000000000000000000000000000000000000000000000600052603260045260246000fd5b9060005260206000200160000160009054906101000a900473ffffffffffffffffffffffffffffffffffffffff1673ffffffffffffffffffffffffffffffffffffffff16149150505b919050565b6040518060e001604052806060815260200160608152602001600073ffffffffffffffffffffffffffffffffffffffff168152602001600073ffffffffffffffffffffffffffffffffffffffff168152602001600073ffffffffffffffffffffffffffffffffffffffff168152602001600073ffffffffffffffffffffffffffffffffffffffff168152602001606081525090565b6040518060e001604052806060815260200160608152602001600073ffffffffffffffffffffffffffffffffffffffff168152602001600073ffffffffffffffffffffffffffffffffffffffff168152602001600073ffffffffffffffffffffffffffffffffffffffff168152602001600073ffffffffffffffffffffffffffffffffffffffff168152602001606081525090565b82805461161290612005565b90600052602060002090601f016020900481019282611634576000855561167b565b82601f1061164d57805160ff191683800117855561167b565b8280016001018555821561167b579182015b8281111561167a57825182559160200191906001019061165f565b5b509050611688919061168c565b5090565b5b808211156116a557600081600090555060010161168d565b5090565b60006116bc6116b784611e78565b611e47565b9050828152602081018484840111156116d457600080fd5b6116df848285611fc3565b509392505050565b6000813590506116f6816120d5565b92915050565b600082601f83011261170d57600080fd5b813561171d8482602086016116a9565b91505092915050565b60006020828403121561173857600080fd5b6000611746848285016116e7565b91505092915050565b60006020828403121561176157600080fd5b600082013567ffffffffffffffff81111561177b57600080fd5b611787848285016116fc565b91505092915050565b600061179c8383611a6f565b905092915050565b60006117b08383611c00565b60408301905092915050565b6117c581611f7b565b82525050565b6117d481611f7b565b82525050565b60006117e582611ec8565b6117ef8185611f03565b93508360208202850161180185611ea8565b8060005b8581101561183d578484038952815161181e8582611790565b945061182983611ee9565b925060208a01995050600181019050611805565b50829750879550505050505092915050565b600061185a82611ed3565b6118648185611f14565b935061186f83611eb8565b8060005b838110156118a057815161188788826117a4565b975061189283611ef6565b925050600181019050611873565b5085935050505092915050565b6118b681611f8d565b82525050565b6118c581611f8d565b82525050565b60006118d682611ede565b6118e08185611f25565b93506118f0818560208601611fd2565b6118f9816120c4565b840191505092915050565b600061190f82611ede565b6119198185611f36565b9350611929818560208601611fd2565b611932816120c4565b840191505092915050565b600061194a602883611f36565b91507f4973737565723a204f6e6c79206f776e65722063616e206d616b65207468697360008301527f20616374696f6e2e0000000000000000000000000000000000000000000000006020830152604082019050919050565b60006119b0603283611f36565b91507f4973737565723a204f6e6c792077616c6c657420617070726f7665722063616e60008301527f206d616b65207468697320616374696f6e2e00000000000000000000000000006020830152604082019050919050565b6000611a16602a83611f36565b91507f4973737565723a206e6f7420616c6c6f77656420746f2063616c6c207468697360008301527f2066756e6374696f6e2e000000000000000000000000000000000000000000006020830152604082019050919050565b60006040830160008301518482036000860152611a8c82826118cb565b9150506020830151611aa16020860182611c2f565b508091505092915050565b600060e0830160008301518482036000860152611ac982826118cb565b91505060208301518482036020860152611ae382826118cb565b9150506040830151611af860408601826117bc565b506060830151611b0b60608601826117bc565b506080830151611b1e60808601826117bc565b5060a0830151611b3160a08601826117bc565b5060c083015184820360c0860152611b4982826118cb565b9150508091505092915050565b600060e0830160008301518482036000860152611b7382826118cb565b91505060208301518482036020860152611b8d82826118cb565b9150506040830151611ba260408601826117bc565b506060830151611bb560608601826117bc565b506080830151611bc860808601826117bc565b5060a0830151611bdb60a08601826117bc565b5060c083015184820360c0860152611bf382826118cb565b9150508091505092915050565b604082016000820151611c1660008501826117bc565b506020820151611c2960208501826118ad565b50505050565b611c3881611fb9565b82525050565b611c4781611fb9565b82525050565b6000608082019050611c6260008301876117cb565b611c6f60208301866117cb565b611c7c60408301856117cb565b611c896060830184611c3e565b95945050505050565b6000606082019050611ca760008301866117cb565b611cb460208301856117cb565b611cc16040830184611c3e565b949350505050565b60006020820190508181036000830152611ce381846117da565b905092915050565b60006020820190508181036000830152611d05818461184f565b905092915050565b6000602082019050611d2260008301846118bc565b92915050565b60006020820190508181036000830152611d428184611904565b905092915050565b60006060820190508181036000830152611d648186611904565b9050611d7360208301856117cb565b611d806040830184611c3e565b949350505050565b60006020820190508181036000830152611da18161193d565b9050919050565b60006020820190508181036000830152611dc1816119a3565b9050919050565b60006020820190508181036000830152611de181611a09565b9050919050565b60006020820190508181036000830152611e028184611aac565b905092915050565b60006020820190508181036000830152611e248184611b56565b905092915050565b6000602082019050611e416000830184611c3e565b92915050565b6000604051905081810181811067ffffffffffffffff82111715611e6e57611e6d612095565b5b8060405250919050565b600067ffffffffffffffff821115611e9357611e92612095565b5b601f19601f8301169050602081019050919050565b6000819050602082019050919050565b6000819050602082019050919050565b600081519050919050565b600081519050919050565b600081519050919050565b6000602082019050919050565b6000602082019050919050565b600082825260208201905092915050565b600082825260208201905092915050565b600082825260208201905092915050565b600082825260208201905092915050565b6000611f5282611fb9565b9150611f5d83611fb9565b925082821015611f7057611f6f612037565b5b828203905092915050565b6000611f8682611f99565b9050919050565b60008115159050919050565b600073ffffffffffffffffffffffffffffffffffffffff82169050919050565b6000819050919050565b82818337600083830152505050565b60005b83811015611ff0578082015181840152602081019050611fd5565b83811115611fff576000848401525b50505050565b6000600282049050600182168061201d57607f821691505b6020821081141561203157612030612066565b5b50919050565b7f4e487b7100000000000000000000000000000000000000000000000000000000600052601160045260246000fd5b7f4e487b7100000000000000000000000000000000000000000000000000000000600052602260045260246000fd5b7f4e487b7100000000000000000000000000000000000000000000000000000000600052604160045260246000fd5b6000601f19601f8301169050919050565b6120de81611f7b565b81146120e957600080fd5b5056fea2646970667358221220fd366c3e43d1f5b4fd5569f6d30cdcc738c5deeade617736bd390f31230bb32364736f6c63430008000033",
  "linkReferences": {},
  "deployedLinkReferences": {}
}