{
  "_format": "hh-sol-artifact-1",
  "contractName": "ERC721PresetMinterPauserAutoId",
  "sourceName": "contracts/openzeppelin/erc721presetminterpauserautoid/ERC721PresetMinterPauserAutoId.sol",
  "abi": [
    {
      "inputs": [
        {
          "internalType": "string",
          "name": "name",
          "type": "string"
        },
        {
          "internalType": "string",
          "name": "symbol",
          "type": "string"
        },
        {
          "internalType": "string",
          "name": "baseTokenURI",
          "type": "string"
        }
      ],
      "stateMutability": "nonpayable",
      "type": "constructor"
    },
    {
      "anonymous": false,
      "inputs": [
        {
          "indexed": true,
          "internalType": "address",
          "name": "owner",
          "type": "address"
        },
        {
          "indexed": true,
          "internalType": "address",
          "name": "approved",
          "type": "address"
        },
        {
          "indexed": true,
          "internalType": "uint256",
          "name": "tokenId",
          "type": "uint256"
        }
      ],
      "name": "Approval",
      "type": "event"
    },
    {
      "anonymous": false,
      "inputs": [
        {
          "indexed": true,
          "internalType": "address",
          "name": "owner",
          "type": "address"
        },
        {
          "indexed": true,
          "internalType": "address",
          "name": "operator",
          "type": "address"
        },
        {
          "indexed": false,
          "internalType": "bool",
          "name": "approved",
          "type": "bool"
        }
      ],
      "name": "ApprovalForAll",
      "type": "event"
    },
    {
      "anonymous": false,
      "inputs": [
        {
          "indexed": false,
          "internalType": "address",
          "name": "account",
          "type": "address"
        }
      ],
      "name": "Paused",
      "type": "event"
    },
    {
      "anonymous": false,
      "inputs": [
        {
          "indexed": true,
          "internalType": "bytes32",
          "name": "role",
          "type": "bytes32"
        },
        {
          "indexed": true,
          "internalType": "bytes32",
          "name": "previousAdminRole",
          "type": "bytes32"
        },
        {
          "indexed": true,
          "internalType": "bytes32",
          "name": "newAdminRole",
          "type": "bytes32"
        }
      ],
      "name": "RoleAdminChanged",
      "type": "event"
    },
    {
      "anonymous": false,
      "inputs": [
        {
          "indexed": true,
          "internalType": "bytes32",
          "name": "role",
          "type": "bytes32"
        },
        {
          "indexed": true,
          "internalType": "address",
          "name": "account",
          "type": "address"
        },
        {
          "indexed": true,
          "internalType": "address",
          "name": "sender",
          "type": "address"
        }
      ],
      "name": "RoleGranted",
      "type": "event"
    },
    {
      "anonymous": false,
      "inputs": [
        {
          "indexed": true,
          "internalType": "bytes32",
          "name": "role",
          "type": "bytes32"
        },
        {
          "indexed": true,
          "internalType": "address",
          "name": "account",
          "type": "address"
        },
        {
          "indexed": true,
          "internalType": "address",
          "name": "sender",
          "type": "address"
        }
      ],
      "name": "RoleRevoked",
      "type": "event"
    },
    {
      "anonymous": false,
      "inputs": [
        {
          "indexed": true,
          "internalType": "address",
          "name": "from",
          "type": "address"
        },
        {
          "indexed": true,
          "internalType": "address",
          "name": "to",
          "type": "address"
        },
        {
          "indexed": true,
          "internalType": "uint256",
          "name": "tokenId",
          "type": "uint256"
        }
      ],
      "name": "Transfer",
      "type": "event"
    },
    {
      "anonymous": false,
      "inputs": [
        {
          "indexed": false,
          "internalType": "address",
          "name": "account",
          "type": "address"
        }
      ],
      "name": "Unpaused",
      "type": "event"
    },
    {
      "inputs": [],
      "name": "DEFAULT_ADMIN_ROLE",
      "outputs": [
        {
          "internalType": "bytes32",
          "name": "",
          "type": "bytes32"
        }
      ],
      "stateMutability": "view",
      "type": "function"
    },
    {
      "inputs": [],
      "name": "MINTER_ROLE",
      "outputs": [
        {
          "internalType": "bytes32",
          "name": "",
          "type": "bytes32"
        }
      ],
      "stateMutability": "view",
      "type": "function"
    },
    {
      "inputs": [],
      "name": "PAUSER_ROLE",
      "outputs": [
        {
          "internalType": "bytes32",
          "name": "",
          "type": "bytes32"
        }
      ],
      "stateMutability": "view",
      "type": "function"
    },
    {
      "inputs": [
        {
          "internalType": "address",
          "name": "to",
          "type": "address"
        },
        {
          "internalType": "uint256",
          "name": "tokenId",
          "type": "uint256"
        }
      ],
      "name": "approve",
      "outputs": [],
      "stateMutability": "nonpayable",
      "type": "function"
    },
    {
      "inputs": [
        {
          "internalType": "address",
          "name": "owner",
          "type": "address"
        }
      ],
      "name": "balanceOf",
      "outputs": [
        {
          "internalType": "uint256",
          "name": "",
          "type": "uint256"
        }
      ],
      "stateMutability": "view",
      "type": "function"
    },
    {
      "inputs": [
        {
          "internalType": "uint256",
          "name": "tokenId",
          "type": "uint256"
        }
      ],
      "name": "burn",
      "outputs": [],
      "stateMutability": "nonpayable",
      "type": "function"
    },
    {
      "inputs": [
        {
          "internalType": "uint256",
          "name": "tokenId",
          "type": "uint256"
        }
      ],
      "name": "getApproved",
      "outputs": [
        {
          "internalType": "address",
          "name": "",
          "type": "address"
        }
      ],
      "stateMutability": "view",
      "type": "function"
    },
    {
      "inputs": [
        {
          "internalType": "bytes32",
          "name": "role",
          "type": "bytes32"
        }
      ],
      "name": "getRoleAdmin",
      "outputs": [
        {
          "internalType": "bytes32",
          "name": "",
          "type": "bytes32"
        }
      ],
      "stateMutability": "view",
      "type": "function"
    },
    {
      "inputs": [
        {
          "internalType": "bytes32",
          "name": "role",
          "type": "bytes32"
        },
        {
          "internalType": "uint256",
          "name": "index",
          "type": "uint256"
        }
      ],
      "name": "getRoleMember",
      "outputs": [
        {
          "internalType": "address",
          "name": "",
          "type": "address"
        }
      ],
      "stateMutability": "view",
      "type": "function"
    },
    {
      "inputs": [
        {
          "internalType": "bytes32",
          "name": "role",
          "type": "bytes32"
        }
      ],
      "name": "getRoleMemberCount",
      "outputs": [
        {
          "internalType": "uint256",
          "name": "",
          "type": "uint256"
        }
      ],
      "stateMutability": "view",
      "type": "function"
    },
    {
      "inputs": [
        {
          "internalType": "bytes32",
          "name": "role",
          "type": "bytes32"
        },
        {
          "internalType": "address",
          "name": "account",
          "type": "address"
        }
      ],
      "name": "grantRole",
      "outputs": [],
      "stateMutability": "nonpayable",
      "type": "function"
    },
    {
      "inputs": [
        {
          "internalType": "bytes32",
          "name": "role",
          "type": "bytes32"
        },
        {
          "internalType": "address",
          "name": "account",
          "type": "address"
        }
      ],
      "name": "hasRole",
      "outputs": [
        {
          "internalType": "bool",
          "name": "",
          "type": "bool"
        }
      ],
      "stateMutability": "view",
      "type": "function"
    },
    {
      "inputs": [
        {
          "internalType": "address",
          "name": "owner",
          "type": "address"
        },
        {
          "internalType": "address",
          "name": "operator",
          "type": "address"
        }
      ],
      "name": "isApprovedForAll",
      "outputs": [
        {
          "internalType": "bool",
          "name": "",
          "type": "bool"
        }
      ],
      "stateMutability": "view",
      "type": "function"
    },
    {
      "inputs": [
        {
          "internalType": "address",
          "name": "to",
          "type": "address"
        }
      ],
      "name": "mint",
      "outputs": [],
      "stateMutability": "nonpayable",
      "type": "function"
    },
    {
      "inputs": [
        {
          "internalType": "address",
          "name": "to",
          "type": "address"
        },
        {
          "internalType": "uint256",
          "name": "amount",
          "type": "uint256"
        }
      ],
      "name": "mintMany",
      "outputs": [],
      "stateMutability": "nonpayable",
      "type": "function"
    },
    {
      "inputs": [],
      "name": "name",
      "outputs": [
        {
          "internalType": "string",
          "name": "",
          "type": "string"
        }
      ],
      "stateMutability": "view",
      "type": "function"
    },
    {
      "inputs": [
        {
          "internalType": "uint256",
          "name": "tokenId",
          "type": "uint256"
        }
      ],
      "name": "ownerOf",
      "outputs": [
        {
          "internalType": "address",
          "name": "",
          "type": "address"
        }
      ],
      "stateMutability": "view",
      "type": "function"
    },
    {
      "inputs": [],
      "name": "pause",
      "outputs": [],
      "stateMutability": "nonpayable",
      "type": "function"
    },
    {
      "inputs": [],
      "name": "paused",
      "outputs": [
        {
          "internalType": "bool",
          "name": "",
          "type": "bool"
        }
      ],
      "stateMutability": "view",
      "type": "function"
    },
    {
      "inputs": [
        {
          "internalType": "bytes32",
          "name": "role",
          "type": "bytes32"
        },
        {
          "internalType": "address",
          "name": "account",
          "type": "address"
        }
      ],
      "name": "renounceRole",
      "outputs": [],
      "stateMutability": "nonpayable",
      "type": "function"
    },
    {
      "inputs": [
        {
          "internalType": "bytes32",
          "name": "role",
          "type": "bytes32"
        },
        {
          "internalType": "address",
          "name": "account",
          "type": "address"
        }
      ],
      "name": "revokeRole",
      "outputs": [],
      "stateMutability": "nonpayable",
      "type": "function"
    },
    {
      "inputs": [
        {
          "internalType": "address",
          "name": "from",
          "type": "address"
        },
        {
          "internalType": "address",
          "name": "to",
          "type": "address"
        },
        {
          "internalType": "uint256",
          "name": "tokenId",
          "type": "uint256"
        }
      ],
      "name": "safeTransferFrom",
      "outputs": [],
      "stateMutability": "nonpayable",
      "type": "function"
    },
    {
      "inputs": [
        {
          "internalType": "address",
          "name": "from",
          "type": "address"
        },
        {
          "internalType": "address",
          "name": "to",
          "type": "address"
        },
        {
          "internalType": "uint256",
          "name": "tokenId",
          "type": "uint256"
        },
        {
          "internalType": "bytes",
          "name": "data",
          "type": "bytes"
        }
      ],
      "name": "safeTransferFrom",
      "outputs": [],
      "stateMutability": "nonpayable",
      "type": "function"
    },
    {
      "inputs": [
        {
          "internalType": "address",
          "name": "operator",
          "type": "address"
        },
        {
          "internalType": "bool",
          "name": "approved",
          "type": "bool"
        }
      ],
      "name": "setApprovalForAll",
      "outputs": [],
      "stateMutability": "nonpayable",
      "type": "function"
    },
    {
      "inputs": [
        {
          "internalType": "bytes4",
          "name": "interfaceId",
          "type": "bytes4"
        }
      ],
      "name": "supportsInterface",
      "outputs": [
        {
          "internalType": "bool",
          "name": "",
          "type": "bool"
        }
      ],
      "stateMutability": "view",
      "type": "function"
    },
    {
      "inputs": [],
      "name": "symbol",
      "outputs": [
        {
          "internalType": "string",
          "name": "",
          "type": "string"
        }
      ],
      "stateMutability": "view",
      "type": "function"
    },
    {
      "inputs": [
        {
          "internalType": "uint256",
          "name": "index",
          "type": "uint256"
        }
      ],
      "name": "tokenByIndex",
      "outputs": [
        {
          "internalType": "uint256",
          "name": "",
          "type": "uint256"
        }
      ],
      "stateMutability": "view",
      "type": "function"
    },
    {
      "inputs": [
        {
          "internalType": "address",
          "name": "owner",
          "type": "address"
        },
        {
          "internalType": "uint256",
          "name": "index",
          "type": "uint256"
        }
      ],
      "name": "tokenOfOwnerByIndex",
      "outputs": [
        {
          "internalType": "uint256",
          "name": "",
          "type": "uint256"
        }
      ],
      "stateMutability": "view",
      "type": "function"
    },
    {
      "inputs": [
        {
          "internalType": "uint256",
          "name": "tokenId",
          "type": "uint256"
        }
      ],
      "name": "tokenURI",
      "outputs": [
        {
          "internalType": "string",
          "name": "",
          "type": "string"
        }
      ],
      "stateMutability": "view",
      "type": "function"
    },
    {
      "inputs": [],
      "name": "totalSupply",
      "outputs": [
        {
          "internalType": "uint256",
          "name": "",
          "type": "uint256"
        }
      ],
      "stateMutability": "view",
      "type": "function"
    },
    {
      "inputs": [
        {
          "internalType": "address",
          "name": "from",
          "type": "address"
        },
        {
          "internalType": "address",
          "name": "to",
          "type": "address"
        },
        {
          "internalType": "uint256",
          "name": "tokenId",
          "type": "uint256"
        }
      ],
      "name": "transferFrom",
      "outputs": [],
      "stateMutability": "nonpayable",
      "type": "function"
    },
    {
      "inputs": [],
      "name": "unpause",
      "outputs": [],
      "stateMutability": "nonpayable",
      "type": "function"
    }
  ],
  "bytecode": "0x60806040523480156200001157600080fd5b5060405162004ebd38038062004ebd833981810160405281019062000037919062000508565b8282816002908051906020019062000051929190620003e6565b5080600390805190602001906200006a929190620003e6565b5050506000600c60006101000a81548160ff02191690831515021790555080600e9080519060200190620000a0929190620003e6565b50620000c56000801b620000b96200015060201b60201c565b6200015860201b60201c565b620001067f9f2df0fed2c77648de5860a4cc508cd0818c85b8b8a1ab4ceeef8d981c8956a6620000fa6200015060201b60201c565b6200015860201b60201c565b620001477f65d7a28e3265b37a6474929f336521b332c1681b933f6cb9f3376673440d862a6200013b6200015060201b60201c565b6200015860201b60201c565b50505062000719565b600033905090565b6200016a82826200016e60201b60201c565b5050565b620001858282620001b660201b620012211760201c565b620001b18160016000858152602001908152602001600020620002a760201b620013011790919060201c565b505050565b620001c88282620002df60201b60201c565b620002a357600160008084815260200190815260200160002060000160008373ffffffffffffffffffffffffffffffffffffffff1673ffffffffffffffffffffffffffffffffffffffff16815260200190815260200160002060006101000a81548160ff021916908315150217905550620002486200015060201b60201c565b73ffffffffffffffffffffffffffffffffffffffff168173ffffffffffffffffffffffffffffffffffffffff16837f2f8788117e7eff1d82e926ec794901d17c78024a50270940304540a733656f0d60405160405180910390a45b5050565b6000620002d7836000018373ffffffffffffffffffffffffffffffffffffffff1660001b6200034960201b60201c565b905092915050565b600080600084815260200190815260200160002060000160008373ffffffffffffffffffffffffffffffffffffffff1673ffffffffffffffffffffffffffffffffffffffff16815260200190815260200160002060009054906101000a900460ff16905092915050565b60006200035d8383620003c360201b60201c565b620003b8578260000182908060018154018082558091505060019003906000526020600020016000909190919091505582600001805490508360010160008481526020019081526020016000208190555060019050620003bd565b600090505b92915050565b600080836001016000848152602001908152602001600020541415905092915050565b828054620003f4906200063e565b90600052602060002090601f01602090048101928262000418576000855562000464565b82601f106200043357805160ff191683800117855562000464565b8280016001018555821562000464579182015b828111156200046357825182559160200191906001019062000446565b5b50905062000473919062000477565b5090565b5b808211156200049257600081600090555060010162000478565b5090565b6000620004ad620004a784620005d2565b620005a9565b905082815260208101848484011115620004c657600080fd5b620004d384828562000608565b509392505050565b600082601f830112620004ed57600080fd5b8151620004ff84826020860162000496565b91505092915050565b6000806000606084860312156200051e57600080fd5b600084015167ffffffffffffffff8111156200053957600080fd5b6200054786828701620004db565b935050602084015167ffffffffffffffff8111156200056557600080fd5b6200057386828701620004db565b925050604084015167ffffffffffffffff8111156200059157600080fd5b6200059f86828701620004db565b9150509250925092565b6000620005b5620005c8565b9050620005c3828262000674565b919050565b6000604051905090565b600067ffffffffffffffff821115620005f057620005ef620006d9565b5b620005fb8262000708565b9050602081019050919050565b60005b83811015620006285780820151818401526020810190506200060b565b8381111562000638576000848401525b50505050565b600060028204905060018216806200065757607f821691505b602082108114156200066e576200066d620006aa565b5b50919050565b6200067f8262000708565b810181811067ffffffffffffffff82111715620006a157620006a0620006d9565b5b80604052505050565b7f4e487b7100000000000000000000000000000000000000000000000000000000600052602260045260246000fd5b7f4e487b7100000000000000000000000000000000000000000000000000000000600052604160045260246000fd5b6000601f19601f8301169050919050565b61479480620007296000396000f3fe608060405234801561001057600080fd5b50600436106101f05760003560e01c80636352211e1161010f578063a22cb465116100a2578063d539139311610071578063d5391393146105c7578063d547741f146105e5578063e63ab1e914610601578063e985e9c51461061f576101f0565b8063a22cb4651461052f578063b88d4fde1461054b578063c87b56dd14610567578063ca15c87314610597576101f0565b80639010d07c116100de5780639010d07c1461049357806391d14854146104c357806395d89b41146104f3578063a217fddf14610511576101f0565b80636352211e1461040d5780636a6278421461043d57806370a08231146104595780638456cb5914610489576101f0565b80632f745c591161018757806342966c681161015657806342966c68146103875780634f6ccce7146103a35780635c975abb146103d35780635e830656146103f1576101f0565b80632f745c591461031557806336568abe146103455780633f4ba83a1461036157806342842e0e1461036b576101f0565b806318160ddd116101c357806318160ddd1461028f57806323b872dd146102ad578063248a9ca3146102c95780632f2ff15d146102f9576101f0565b806301ffc9a7146101f557806306fdde0314610225578063081812fc14610243578063095ea7b314610273575b600080fd5b61020f600480360381019061020a919061348f565b61064f565b60405161021c91906139d3565b60405180910390f35b61022d610661565b60405161023a9190613a09565b60405180910390f35b61025d600480360381019061025891906134e1565b6106f3565b60405161026a919061396c565b60405180910390f35b61028d600480360381019061028891906133b2565b610739565b005b610297610851565b6040516102a49190613ccb565b60405180910390f35b6102c760048036038101906102c291906132ac565b61085e565b005b6102e360048036038101906102de91906133ee565b6108be565b6040516102f091906139ee565b60405180910390f35b610313600480360381019061030e9190613417565b6108dd565b005b61032f600480360381019061032a91906133b2565b6108fe565b60405161033c9190613ccb565b60405180910390f35b61035f600480360381019061035a9190613417565b6109a3565b005b610369610a26565b005b610385600480360381019061038091906132ac565b610aa0565b005b6103a1600480360381019061039c91906134e1565b610ac0565b005b6103bd60048036038101906103b891906134e1565b610b1c565b6040516103ca9190613ccb565b60405180910390f35b6103db610bb3565b6040516103e891906139d3565b60405180910390f35b61040b600480360381019061040691906133b2565b610bca565b005b610427600480360381019061042291906134e1565b610c7a565b604051610434919061396c565b60405180910390f35b61045760048036038101906104529190613247565b610d2c565b005b610473600480360381019061046e9190613247565b610dbc565b6040516104809190613ccb565b60405180910390f35b610491610e74565b005b6104ad60048036038101906104a89190613453565b610eee565b6040516104ba919061396c565b60405180910390f35b6104dd60048036038101906104d89190613417565b610f1d565b6040516104ea91906139d3565b60405180910390f35b6104fb610f87565b6040516105089190613a09565b60405180910390f35b610519611019565b60405161052691906139ee565b60405180910390f35b61054960048036038101906105449190613376565b611020565b005b610565600480360381019061056091906132fb565b611036565b005b610581600480360381019061057c91906134e1565b611098565b60405161058e9190613a09565b60405180910390f35b6105b160048036038101906105ac91906133ee565b611100565b6040516105be9190613ccb565b60405180910390f35b6105cf611124565b6040516105dc91906139ee565b60405180910390f35b6105ff60048036038101906105fa9190613417565b611148565b005b610609611169565b60405161061691906139ee565b60405180910390f35b61063960048036038101906106349190613270565b61118d565b60405161064691906139d3565b60405180910390f35b600061065a82611331565b9050919050565b60606002805461067090613f7e565b80601f016020809104026020016040519081016040528092919081815260200182805461069c90613f7e565b80156106e95780601f106106be576101008083540402835291602001916106e9565b820191906000526020600020905b8154815290600101906020018083116106cc57829003601f168201915b5050505050905090565b60006106fe826113ab565b6006600083815260200190815260200160002060009054906101000a900473ffffffffffffffffffffffffffffffffffffffff169050919050565b600061074482610c7a565b90508073ffffffffffffffffffffffffffffffffffffffff168373ffffffffffffffffffffffffffffffffffffffff1614156107b5576040517f08c379a00000000000000000000000000000000000000000000000000000000081526004016107ac90613c0b565b60405180910390fd5b8073ffffffffffffffffffffffffffffffffffffffff166107d46113f6565b73ffffffffffffffffffffffffffffffffffffffff1614806108035750610802816107fd6113f6565b61118d565b5b610842576040517f08c379a000000000000000000000000000000000000000000000000000000000815260040161083990613bab565b60405180910390fd5b61084c83836113fe565b505050565b6000600a80549050905090565b61086f6108696113f6565b826114b7565b6108ae576040517f08c379a00000000000000000000000000000000000000000000000000000000081526004016108a590613c6b565b60405180910390fd5b6108b983838361154c565b505050565b6000806000838152602001908152602001600020600101549050919050565b6108e6826108be565b6108ef816117b3565b6108f983836117c7565b505050565b600061090983610dbc565b821061094a576040517f08c379a000000000000000000000000000000000000000000000000000000000815260040161094190613a8b565b60405180910390fd5b600860008473ffffffffffffffffffffffffffffffffffffffff1673ffffffffffffffffffffffffffffffffffffffff168152602001908152602001600020600083815260200190815260200160002054905092915050565b6109ab6113f6565b73ffffffffffffffffffffffffffffffffffffffff168173ffffffffffffffffffffffffffffffffffffffff1614610a18576040517f08c379a0000000000000000000000000000000000000000000000000000000008152600401610a0f90613cab565b60405180910390fd5b610a2282826117fb565b5050565b610a577f65d7a28e3265b37a6474929f336521b332c1681b933f6cb9f3376673440d862a610a526113f6565b610f1d565b610a96576040517f08c379a0000000000000000000000000000000000000000000000000000000008152600401610a8d90613c8b565b60405180910390fd5b610a9e61182f565b565b610abb83838360405180602001604052806000815250611036565b505050565b610ad1610acb6113f6565b826114b7565b610b10576040517f08c379a0000000000000000000000000000000000000000000000000000000008152600401610b0790613c6b565b60405180910390fd5b610b1981611892565b50565b6000610b26610851565b8210610b67576040517f08c379a0000000000000000000000000000000000000000000000000000000008152600401610b5e90613c2b565b60405180910390fd5b600a8281548110610ba1577f4e487b7100000000000000000000000000000000000000000000000000000000600052603260045260246000fd5b90600052602060002001549050919050565b6000600c60009054906101000a900460ff16905090565b610bfb7f9f2df0fed2c77648de5860a4cc508cd0818c85b8b8a1ab4ceeef8d981c8956a6610bf66113f6565b610f1d565b610c3a576040517f08c379a0000000000000000000000000000000000000000000000000000000008152600401610c3190613c4b565b60405180910390fd5b60005b81811015610c7557610c5883610c53600d6119af565b6119bd565b610c62600d611b97565b8080610c6d90613fe1565b915050610c3d565b505050565b6000806004600084815260200190815260200160002060009054906101000a900473ffffffffffffffffffffffffffffffffffffffff169050600073ffffffffffffffffffffffffffffffffffffffff168173ffffffffffffffffffffffffffffffffffffffff161415610d23576040517f08c379a0000000000000000000000000000000000000000000000000000000008152600401610d1a90613beb565b60405180910390fd5b80915050919050565b610d5d7f9f2df0fed2c77648de5860a4cc508cd0818c85b8b8a1ab4ceeef8d981c8956a6610d586113f6565b610f1d565b610d9c576040517f08c379a0000000000000000000000000000000000000000000000000000000008152600401610d9390613c4b565b60405180910390fd5b610daf81610daa600d6119af565b6119bd565b610db9600d611b97565b50565b60008073ffffffffffffffffffffffffffffffffffffffff168273ffffffffffffffffffffffffffffffffffffffff161415610e2d576040517f08c379a0000000000000000000000000000000000000000000000000000000008152600401610e2490613b8b565b60405180910390fd5b600560008373ffffffffffffffffffffffffffffffffffffffff1673ffffffffffffffffffffffffffffffffffffffff168152602001908152602001600020549050919050565b610ea57f65d7a28e3265b37a6474929f336521b332c1681b933f6cb9f3376673440d862a610ea06113f6565b610f1d565b610ee4576040517f08c379a0000000000000000000000000000000000000000000000000000000008152600401610edb90613b0b565b60405180910390fd5b610eec611bad565b565b6000610f158260016000868152602001908152602001600020611c1090919063ffffffff16565b905092915050565b600080600084815260200190815260200160002060000160008373ffffffffffffffffffffffffffffffffffffffff1673ffffffffffffffffffffffffffffffffffffffff16815260200190815260200160002060009054906101000a900460ff16905092915050565b606060038054610f9690613f7e565b80601f0160208091040260200160405190810160405280929190818152602001828054610fc290613f7e565b801561100f5780601f10610fe45761010080835404028352916020019161100f565b820191906000526020600020905b815481529060010190602001808311610ff257829003601f168201915b5050505050905090565b6000801b81565b61103261102b6113f6565b8383611c2a565b5050565b6110476110416113f6565b836114b7565b611086576040517f08c379a000000000000000000000000000000000000000000000000000000000815260040161107d90613c6b565b60405180910390fd5b61109284848484611d97565b50505050565b60606110a3826113ab565b60006110ad611df3565b905060008151116110cd57604051806020016040528060008152506110f8565b806110d784611e85565b6040516020016110e892919061390e565b6040516020818303038152906040525b915050919050565b600061111d60016000848152602001908152602001600020612032565b9050919050565b7f9f2df0fed2c77648de5860a4cc508cd0818c85b8b8a1ab4ceeef8d981c8956a681565b611151826108be565b61115a816117b3565b61116483836117fb565b505050565b7f65d7a28e3265b37a6474929f336521b332c1681b933f6cb9f3376673440d862a81565b6000600760008473ffffffffffffffffffffffffffffffffffffffff1673ffffffffffffffffffffffffffffffffffffffff16815260200190815260200160002060008373ffffffffffffffffffffffffffffffffffffffff1673ffffffffffffffffffffffffffffffffffffffff16815260200190815260200160002060009054906101000a900460ff16905092915050565b61122b8282610f1d565b6112fd57600160008084815260200190815260200160002060000160008373ffffffffffffffffffffffffffffffffffffffff1673ffffffffffffffffffffffffffffffffffffffff16815260200190815260200160002060006101000a81548160ff0219169083151502179055506112a26113f6565b73ffffffffffffffffffffffffffffffffffffffff168173ffffffffffffffffffffffffffffffffffffffff16837f2f8788117e7eff1d82e926ec794901d17c78024a50270940304540a733656f0d60405160405180910390a45b5050565b6000611329836000018373ffffffffffffffffffffffffffffffffffffffff1660001b612047565b905092915050565b60007f780e9d63000000000000000000000000000000000000000000000000000000007bffffffffffffffffffffffffffffffffffffffffffffffffffffffff1916827bffffffffffffffffffffffffffffffffffffffffffffffffffffffff191614806113a457506113a3826120b7565b5b9050919050565b6113b481612199565b6113f3576040517f08c379a00000000000000000000000000000000000000000000000000000000081526004016113ea90613beb565b60405180910390fd5b50565b600033905090565b816006600083815260200190815260200160002060006101000a81548173ffffffffffffffffffffffffffffffffffffffff021916908373ffffffffffffffffffffffffffffffffffffffff160217905550808273ffffffffffffffffffffffffffffffffffffffff1661147183610c7a565b73ffffffffffffffffffffffffffffffffffffffff167f8c5be1e5ebec7d5bd14f71427d1e84f3dd0314c0f7b2291e5b200ac8c7c3b92560405160405180910390a45050565b6000806114c383610c7a565b90508073ffffffffffffffffffffffffffffffffffffffff168473ffffffffffffffffffffffffffffffffffffffff1614806115055750611504818561118d565b5b8061154357508373ffffffffffffffffffffffffffffffffffffffff1661152b846106f3565b73ffffffffffffffffffffffffffffffffffffffff16145b91505092915050565b8273ffffffffffffffffffffffffffffffffffffffff1661156c82610c7a565b73ffffffffffffffffffffffffffffffffffffffff16146115c2576040517f08c379a00000000000000000000000000000000000000000000000000000000081526004016115b990613acb565b60405180910390fd5b600073ffffffffffffffffffffffffffffffffffffffff168273ffffffffffffffffffffffffffffffffffffffff161415611632576040517f08c379a000000000000000000000000000000000000000000000000000000000815260040161162990613b2b565b60405180910390fd5b61163d838383612205565b6116486000826113fe565b6001600560008573ffffffffffffffffffffffffffffffffffffffff1673ffffffffffffffffffffffffffffffffffffffff16815260200190815260200160002060008282546116989190613e60565b925050819055506001600560008473ffffffffffffffffffffffffffffffffffffffff1673ffffffffffffffffffffffffffffffffffffffff16815260200190815260200160002060008282546116ef9190613d7f565b92505081905550816004600083815260200190815260200160002060006101000a81548173ffffffffffffffffffffffffffffffffffffffff021916908373ffffffffffffffffffffffffffffffffffffffff160217905550808273ffffffffffffffffffffffffffffffffffffffff168473ffffffffffffffffffffffffffffffffffffffff167fddf252ad1be2c89b69c2b068fc378daa952ba7f163c4a11628f55a4df523b3ef60405160405180910390a46117ae838383612215565b505050565b6117c4816117bf6113f6565b61221a565b50565b6117d18282611221565b6117f6816001600085815260200190815260200160002061130190919063ffffffff16565b505050565b61180582826122b7565b61182a816001600085815260200190815260200160002061239890919063ffffffff16565b505050565b6118376123c8565b6000600c60006101000a81548160ff0219169083151502179055507f5db9ee0a495bf2e6ff9c91a7834c1ba4fdd244a5e8aa4e537bd38aeae4b073aa61187b6113f6565b604051611888919061396c565b60405180910390a1565b600061189d82610c7a565b90506118ab81600084612205565b6118b66000836113fe565b6001600560008373ffffffffffffffffffffffffffffffffffffffff1673ffffffffffffffffffffffffffffffffffffffff16815260200190815260200160002060008282546119069190613e60565b925050819055506004600083815260200190815260200160002060006101000a81549073ffffffffffffffffffffffffffffffffffffffff021916905581600073ffffffffffffffffffffffffffffffffffffffff168273ffffffffffffffffffffffffffffffffffffffff167fddf252ad1be2c89b69c2b068fc378daa952ba7f163c4a11628f55a4df523b3ef60405160405180910390a46119ab81600084612215565b5050565b600081600001549050919050565b600073ffffffffffffffffffffffffffffffffffffffff168273ffffffffffffffffffffffffffffffffffffffff161415611a2d576040517f08c379a0000000000000000000000000000000000000000000000000000000008152600401611a2490613bcb565b60405180910390fd5b611a3681612199565b15611a76576040517f08c379a0000000000000000000000000000000000000000000000000000000008152600401611a6d90613aeb565b60405180910390fd5b611a8260008383612205565b6001600560008473ffffffffffffffffffffffffffffffffffffffff1673ffffffffffffffffffffffffffffffffffffffff1681526020019081526020016000206000828254611ad29190613d7f565b92505081905550816004600083815260200190815260200160002060006101000a81548173ffffffffffffffffffffffffffffffffffffffff021916908373ffffffffffffffffffffffffffffffffffffffff160217905550808273ffffffffffffffffffffffffffffffffffffffff16600073ffffffffffffffffffffffffffffffffffffffff167fddf252ad1be2c89b69c2b068fc378daa952ba7f163c4a11628f55a4df523b3ef60405160405180910390a4611b9360008383612215565b5050565b6001816000016000828254019250508190555050565b611bb5612411565b6001600c60006101000a81548160ff0219169083151502179055507f62e78cea01bee320cd4e420270b5ea74000d11b0c9f74754ebdbfc544b05a258611bf96113f6565b604051611c06919061396c565b60405180910390a1565b6000611c1f836000018361245b565b60001c905092915050565b8173ffffffffffffffffffffffffffffffffffffffff168373ffffffffffffffffffffffffffffffffffffffff161415611c99576040517f08c379a0000000000000000000000000000000000000000000000000000000008152600401611c9090613b4b565b60405180910390fd5b80600760008573ffffffffffffffffffffffffffffffffffffffff1673ffffffffffffffffffffffffffffffffffffffff16815260200190815260200160002060008473ffffffffffffffffffffffffffffffffffffffff1673ffffffffffffffffffffffffffffffffffffffff16815260200190815260200160002060006101000a81548160ff0219169083151502179055508173ffffffffffffffffffffffffffffffffffffffff168373ffffffffffffffffffffffffffffffffffffffff167f17307eab39ab6107e8899845ad3d59bd9653f200f220920489ca2b5937696c3183604051611d8a91906139d3565b60405180910390a3505050565b611da284848461154c565b611dae848484846124ac565b611ded576040517f08c379a0000000000000000000000000000000000000000000000000000000008152600401611de490613aab565b60405180910390fd5b50505050565b6060600e8054611e0290613f7e565b80601f0160208091040260200160405190810160405280929190818152602001828054611e2e90613f7e565b8015611e7b5780601f10611e5057610100808354040283529160200191611e7b565b820191906000526020600020905b815481529060010190602001808311611e5e57829003601f168201915b5050505050905090565b60606000821415611ecd576040518060400160405280600181526020017f3000000000000000000000000000000000000000000000000000000000000000815250905061202d565b600082905060005b60008214611eff578080611ee890613fe1565b915050600a82611ef89190613dd5565b9150611ed5565b60008167ffffffffffffffff811115611f41577f4e487b7100000000000000000000000000000000000000000000000000000000600052604160045260246000fd5b6040519080825280601f01601f191660200182016040528015611f735781602001600182028036833780820191505090505b5090505b6000851461202657600182611f8c9190613e60565b9150600a85611f9b919061402a565b6030611fa79190613d7f565b60f81b818381518110611fe3577f4e487b7100000000000000000000000000000000000000000000000000000000600052603260045260246000fd5b60200101907effffffffffffffffffffffffffffffffffffffffffffffffffffffffffffff1916908160001a905350600a8561201f9190613dd5565b9450611f77565b8093505050505b919050565b600061204082600001612643565b9050919050565b60006120538383612654565b6120ac5782600001829080600181540180825580915050600190039060005260206000200160009091909190915055826000018054905083600101600084815260200190815260200160002081905550600190506120b1565b600090505b92915050565b60007f80ac58cd000000000000000000000000000000000000000000000000000000007bffffffffffffffffffffffffffffffffffffffffffffffffffffffff1916827bffffffffffffffffffffffffffffffffffffffffffffffffffffffff1916148061218257507f5b5e139f000000000000000000000000000000000000000000000000000000007bffffffffffffffffffffffffffffffffffffffffffffffffffffffff1916827bffffffffffffffffffffffffffffffffffffffffffffffffffffffff1916145b80612192575061219182612677565b5b9050919050565b60008073ffffffffffffffffffffffffffffffffffffffff166004600084815260200190815260200160002060009054906101000a900473ffffffffffffffffffffffffffffffffffffffff1673ffffffffffffffffffffffffffffffffffffffff1614159050919050565b6122108383836126f1565b505050565b505050565b6122248282610f1d565b6122b3576122498173ffffffffffffffffffffffffffffffffffffffff166014612749565b6122578360001c6020612749565b604051602001612268929190613932565b6040516020818303038152906040526040517f08c379a00000000000000000000000000000000000000000000000000000000081526004016122aa9190613a09565b60405180910390fd5b5050565b6122c18282610f1d565b1561239457600080600084815260200190815260200160002060000160008373ffffffffffffffffffffffffffffffffffffffff1673ffffffffffffffffffffffffffffffffffffffff16815260200190815260200160002060006101000a81548160ff0219169083151502179055506123396113f6565b73ffffffffffffffffffffffffffffffffffffffff168173ffffffffffffffffffffffffffffffffffffffff16837ff6391f5c32d9c69d2a47ea670b442974b53935d1edc7fd64eb21e047a839171b60405160405180910390a45b5050565b60006123c0836000018373ffffffffffffffffffffffffffffffffffffffff1660001b612a43565b905092915050565b6123d0610bb3565b61240f576040517f08c379a000000000000000000000000000000000000000000000000000000000815260040161240690613a6b565b60405180910390fd5b565b612419610bb3565b15612459576040517f08c379a000000000000000000000000000000000000000000000000000000000815260040161245090613b6b565b60405180910390fd5b565b6000826000018281548110612499577f4e487b7100000000000000000000000000000000000000000000000000000000600052603260045260246000fd5b9060005260206000200154905092915050565b60006124cd8473ffffffffffffffffffffffffffffffffffffffff16612bc9565b15612636578373ffffffffffffffffffffffffffffffffffffffff1663150b7a026124f66113f6565b8786866040518563ffffffff1660e01b81526004016125189493929190613987565b602060405180830381600087803b15801561253257600080fd5b505af192505050801561256357506040513d601f19601f8201168201806040525081019061256091906134b8565b60015b6125e6573d8060008114612593576040519150601f19603f3d011682016040523d82523d6000602084013e612598565b606091505b506000815114156125de576040517f08c379a00000000000000000000000000000000000000000000000000000000081526004016125d590613aab565b60405180910390fd5b805181602001fd5b63150b7a0260e01b7bffffffffffffffffffffffffffffffffffffffffffffffffffffffff1916817bffffffffffffffffffffffffffffffffffffffffffffffffffffffff19161491505061263b565b600190505b949350505050565b600081600001805490509050919050565b600080836001016000848152602001908152602001600020541415905092915050565b60007f5a05180f000000000000000000000000000000000000000000000000000000007bffffffffffffffffffffffffffffffffffffffffffffffffffffffff1916827bffffffffffffffffffffffffffffffffffffffffffffffffffffffff191614806126ea57506126e982612bec565b5b9050919050565b6126fc838383612c66565b612704610bb3565b15612744576040517f08c379a000000000000000000000000000000000000000000000000000000000815260040161273b90613a4b565b60405180910390fd5b505050565b60606000600283600261275c9190613e06565b6127669190613d7f565b67ffffffffffffffff8111156127a5577f4e487b7100000000000000000000000000000000000000000000000000000000600052604160045260246000fd5b6040519080825280601f01601f1916602001820160405280156127d75781602001600182028036833780820191505090505b5090507f300000000000000000000000000000000000000000000000000000000000000081600081518110612835577f4e487b7100000000000000000000000000000000000000000000000000000000600052603260045260246000fd5b60200101907effffffffffffffffffffffffffffffffffffffffffffffffffffffffffffff1916908160001a9053507f7800000000000000000000000000000000000000000000000000000000000000816001815181106128bf577f4e487b7100000000000000000000000000000000000000000000000000000000600052603260045260246000fd5b60200101907effffffffffffffffffffffffffffffffffffffffffffffffffffffffffffff1916908160001a905350600060018460026128ff9190613e06565b6129099190613d7f565b90505b60018111156129f5577f3031323334353637383961626364656600000000000000000000000000000000600f861660108110612971577f4e487b7100000000000000000000000000000000000000000000000000000000600052603260045260246000fd5b1a60f81b8282815181106129ae577f4e487b7100000000000000000000000000000000000000000000000000000000600052603260045260246000fd5b60200101907effffffffffffffffffffffffffffffffffffffffffffffffffffffffffffff1916908160001a905350600485901c9450806129ee90613f54565b905061290c565b5060008414612a39576040517f08c379a0000000000000000000000000000000000000000000000000000000008152600401612a3090613a2b565b60405180910390fd5b8091505092915050565b60008083600101600084815260200190815260200160002054905060008114612bbd576000600182612a759190613e60565b9050600060018660000180549050612a8d9190613e60565b9050818114612b48576000866000018281548110612ad4577f4e487b7100000000000000000000000000000000000000000000000000000000600052603260045260246000fd5b9060005260206000200154905080876000018481548110612b1e577f4e487b7100000000000000000000000000000000000000000000000000000000600052603260045260246000fd5b90600052602060002001819055508387600101600083815260200190815260200160002081905550505b85600001805480612b82577f4e487b7100000000000000000000000000000000000000000000000000000000600052603160045260246000fd5b600190038181906000526020600020016000905590558560010160008681526020019081526020016000206000905560019350505050612bc3565b60009150505b92915050565b6000808273ffffffffffffffffffffffffffffffffffffffff163b119050919050565b60007f7965db0b000000000000000000000000000000000000000000000000000000007bffffffffffffffffffffffffffffffffffffffffffffffffffffffff1916827bffffffffffffffffffffffffffffffffffffffffffffffffffffffff19161480612c5f5750612c5e82612d7a565b5b9050919050565b612c71838383612de4565b600073ffffffffffffffffffffffffffffffffffffffff168373ffffffffffffffffffffffffffffffffffffffff161415612cb457612caf81612de9565b612cf3565b8173ffffffffffffffffffffffffffffffffffffffff168373ffffffffffffffffffffffffffffffffffffffff1614612cf257612cf18382612e32565b5b5b600073ffffffffffffffffffffffffffffffffffffffff168273ffffffffffffffffffffffffffffffffffffffff161415612d3657612d3181612f9f565b612d75565b8273ffffffffffffffffffffffffffffffffffffffff168273ffffffffffffffffffffffffffffffffffffffff1614612d7457612d7382826130e2565b5b5b505050565b60007f01ffc9a7000000000000000000000000000000000000000000000000000000007bffffffffffffffffffffffffffffffffffffffffffffffffffffffff1916827bffffffffffffffffffffffffffffffffffffffffffffffffffffffff1916149050919050565b505050565b600a80549050600b600083815260200190815260200160002081905550600a81908060018154018082558091505060019003906000526020600020016000909190919091505550565b60006001612e3f84610dbc565b612e499190613e60565b9050600060096000848152602001908152602001600020549050818114612f2e576000600860008673ffffffffffffffffffffffffffffffffffffffff1673ffffffffffffffffffffffffffffffffffffffff168152602001908152602001600020600084815260200190815260200160002054905080600860008773ffffffffffffffffffffffffffffffffffffffff1673ffffffffffffffffffffffffffffffffffffffff168152602001908152602001600020600084815260200190815260200160002081905550816009600083815260200190815260200160002081905550505b6009600084815260200190815260200160002060009055600860008573ffffffffffffffffffffffffffffffffffffffff1673ffffffffffffffffffffffffffffffffffffffff16815260200190815260200160002060008381526020019081526020016000206000905550505050565b60006001600a80549050612fb39190613e60565b90506000600b60008481526020019081526020016000205490506000600a8381548110613009577f4e487b7100000000000000000000000000000000000000000000000000000000600052603260045260246000fd5b9060005260206000200154905080600a8381548110613051577f4e487b7100000000000000000000000000000000000000000000000000000000600052603260045260246000fd5b906000526020600020018190555081600b600083815260200190815260200160002081905550600b600085815260200190815260200160002060009055600a8054806130c6577f4e487b7100000000000000000000000000000000000000000000000000000000600052603160045260246000fd5b6001900381819060005260206000200160009055905550505050565b60006130ed83610dbc565b905081600860008573ffffffffffffffffffffffffffffffffffffffff1673ffffffffffffffffffffffffffffffffffffffff168152602001908152602001600020600083815260200190815260200160002081905550806009600084815260200190815260200160002081905550505050565b600061317461316f84613d0b565b613ce6565b90508281526020810184848401111561318c57600080fd5b613197848285613f12565b509392505050565b6000813590506131ae816146eb565b92915050565b6000813590506131c381614702565b92915050565b6000813590506131d881614719565b92915050565b6000813590506131ed81614730565b92915050565b60008151905061320281614730565b92915050565b600082601f83011261321957600080fd5b8135613229848260208601613161565b91505092915050565b60008135905061324181614747565b92915050565b60006020828403121561325957600080fd5b60006132678482850161319f565b91505092915050565b6000806040838503121561328357600080fd5b60006132918582860161319f565b92505060206132a28582860161319f565b9150509250929050565b6000806000606084860312156132c157600080fd5b60006132cf8682870161319f565b93505060206132e08682870161319f565b92505060406132f186828701613232565b9150509250925092565b6000806000806080858703121561331157600080fd5b600061331f8782880161319f565b94505060206133308782880161319f565b935050604061334187828801613232565b925050606085013567ffffffffffffffff81111561335e57600080fd5b61336a87828801613208565b91505092959194509250565b6000806040838503121561338957600080fd5b60006133978582860161319f565b92505060206133a8858286016131b4565b9150509250929050565b600080604083850312156133c557600080fd5b60006133d38582860161319f565b92505060206133e485828601613232565b9150509250929050565b60006020828403121561340057600080fd5b600061340e848285016131c9565b91505092915050565b6000806040838503121561342a57600080fd5b6000613438858286016131c9565b92505060206134498582860161319f565b9150509250929050565b6000806040838503121561346657600080fd5b6000613474858286016131c9565b925050602061348585828601613232565b9150509250929050565b6000602082840312156134a157600080fd5b60006134af848285016131de565b91505092915050565b6000602082840312156134ca57600080fd5b60006134d8848285016131f3565b91505092915050565b6000602082840312156134f357600080fd5b600061350184828501613232565b91505092915050565b61351381613e94565b82525050565b61352281613ea6565b82525050565b61353181613eb2565b82525050565b600061354282613d3c565b61354c8185613d52565b935061355c818560208601613f21565b61356581614117565b840191505092915050565b600061357b82613d47565b6135858185613d63565b9350613595818560208601613f21565b61359e81614117565b840191505092915050565b60006135b482613d47565b6135be8185613d74565b93506135ce818560208601613f21565b80840191505092915050565b60006135e7602083613d63565b91506135f282614128565b602082019050919050565b600061360a602b83613d63565b915061361582614151565b604082019050919050565b600061362d601483613d63565b9150613638826141a0565b602082019050919050565b6000613650602b83613d63565b915061365b826141c9565b604082019050919050565b6000613673603283613d63565b915061367e82614218565b604082019050919050565b6000613696602583613d63565b91506136a182614267565b604082019050919050565b60006136b9601c83613d63565b91506136c4826142b6565b602082019050919050565b60006136dc603e83613d63565b91506136e7826142df565b604082019050919050565b60006136ff602483613d63565b915061370a8261432e565b604082019050919050565b6000613722601983613d63565b915061372d8261437d565b602082019050919050565b6000613745601083613d63565b9150613750826143a6565b602082019050919050565b6000613768602983613d63565b9150613773826143cf565b604082019050919050565b600061378b603e83613d63565b91506137968261441e565b604082019050919050565b60006137ae602083613d63565b91506137b98261446d565b602082019050919050565b60006137d1601883613d63565b91506137dc82614496565b602082019050919050565b60006137f4602183613d63565b91506137ff826144bf565b604082019050919050565b6000613817602c83613d63565b91506138228261450e565b604082019050919050565b600061383a601783613d74565b91506138458261455d565b601782019050919050565b600061385d603d83613d63565b915061386882614586565b604082019050919050565b6000613880602e83613d63565b915061388b826145d5565b604082019050919050565b60006138a3604083613d63565b91506138ae82614624565b604082019050919050565b60006138c6601183613d74565b91506138d182614673565b601182019050919050565b60006138e9602f83613d63565b91506138f48261469c565b604082019050919050565b61390881613f08565b82525050565b600061391a82856135a9565b915061392682846135a9565b91508190509392505050565b600061393d8261382d565b915061394982856135a9565b9150613954826138b9565b915061396082846135a9565b91508190509392505050565b6000602082019050613981600083018461350a565b92915050565b600060808201905061399c600083018761350a565b6139a9602083018661350a565b6139b660408301856138ff565b81810360608301526139c88184613537565b905095945050505050565b60006020820190506139e86000830184613519565b92915050565b6000602082019050613a036000830184613528565b92915050565b60006020820190508181036000830152613a238184613570565b905092915050565b60006020820190508181036000830152613a44816135da565b9050919050565b60006020820190508181036000830152613a64816135fd565b9050919050565b60006020820190508181036000830152613a8481613620565b9050919050565b60006020820190508181036000830152613aa481613643565b9050919050565b60006020820190508181036000830152613ac481613666565b9050919050565b60006020820190508181036000830152613ae481613689565b9050919050565b60006020820190508181036000830152613b04816136ac565b9050919050565b60006020820190508181036000830152613b24816136cf565b9050919050565b60006020820190508181036000830152613b44816136f2565b9050919050565b60006020820190508181036000830152613b6481613715565b9050919050565b60006020820190508181036000830152613b8481613738565b9050919050565b60006020820190508181036000830152613ba48161375b565b9050919050565b60006020820190508181036000830152613bc48161377e565b9050919050565b60006020820190508181036000830152613be4816137a1565b9050919050565b60006020820190508181036000830152613c04816137c4565b9050919050565b60006020820190508181036000830152613c24816137e7565b9050919050565b60006020820190508181036000830152613c448161380a565b9050919050565b60006020820190508181036000830152613c6481613850565b9050919050565b60006020820190508181036000830152613c8481613873565b9050919050565b60006020820190508181036000830152613ca481613896565b9050919050565b60006020820190508181036000830152613cc4816138dc565b9050919050565b6000602082019050613ce060008301846138ff565b92915050565b6000613cf0613d01565b9050613cfc8282613fb0565b919050565b6000604051905090565b600067ffffffffffffffff821115613d2657613d256140e8565b5b613d2f82614117565b9050602081019050919050565b600081519050919050565b600081519050919050565b600082825260208201905092915050565b600082825260208201905092915050565b600081905092915050565b6000613d8a82613f08565b9150613d9583613f08565b9250827fffffffffffffffffffffffffffffffffffffffffffffffffffffffffffffffff03821115613dca57613dc961405b565b5b828201905092915050565b6000613de082613f08565b9150613deb83613f08565b925082613dfb57613dfa61408a565b5b828204905092915050565b6000613e1182613f08565b9150613e1c83613f08565b9250817fffffffffffffffffffffffffffffffffffffffffffffffffffffffffffffffff0483118215151615613e5557613e5461405b565b5b828202905092915050565b6000613e6b82613f08565b9150613e7683613f08565b925082821015613e8957613e8861405b565b5b828203905092915050565b6000613e9f82613ee8565b9050919050565b60008115159050919050565b6000819050919050565b60007fffffffff0000000000000000000000000000000000000000000000000000000082169050919050565b600073ffffffffffffffffffffffffffffffffffffffff82169050919050565b6000819050919050565b82818337600083830152505050565b60005b83811015613f3f578082015181840152602081019050613f24565b83811115613f4e576000848401525b50505050565b6000613f5f82613f08565b91506000821415613f7357613f7261405b565b5b600182039050919050565b60006002820490506001821680613f9657607f821691505b60208210811415613faa57613fa96140b9565b5b50919050565b613fb982614117565b810181811067ffffffffffffffff82111715613fd857613fd76140e8565b5b80604052505050565b6000613fec82613f08565b91507fffffffffffffffffffffffffffffffffffffffffffffffffffffffffffffffff82141561401f5761401e61405b565b5b600182019050919050565b600061403582613f08565b915061404083613f08565b9250826140505761404f61408a565b5b828206905092915050565b7f4e487b7100000000000000000000000000000000000000000000000000000000600052601160045260246000fd5b7f4e487b7100000000000000000000000000000000000000000000000000000000600052601260045260246000fd5b7f4e487b7100000000000000000000000000000000000000000000000000000000600052602260045260246000fd5b7f4e487b7100000000000000000000000000000000000000000000000000000000600052604160045260246000fd5b6000601f19601f8301169050919050565b7f537472696e67733a20686578206c656e67746820696e73756666696369656e74600082015250565b7f4552433732315061757361626c653a20746f6b656e207472616e73666572207760008201527f68696c6520706175736564000000000000000000000000000000000000000000602082015250565b7f5061757361626c653a206e6f7420706175736564000000000000000000000000600082015250565b7f455243373231456e756d657261626c653a206f776e657220696e646578206f7560008201527f74206f6620626f756e6473000000000000000000000000000000000000000000602082015250565b7f4552433732313a207472616e7366657220746f206e6f6e20455243373231526560008201527f63656976657220696d706c656d656e7465720000000000000000000000000000602082015250565b7f4552433732313a207472616e736665722066726f6d20696e636f72726563742060008201527f6f776e6572000000000000000000000000000000000000000000000000000000602082015250565b7f4552433732313a20746f6b656e20616c7265616479206d696e74656400000000600082015250565b7f4552433732315072657365744d696e7465725061757365724175746f49643a2060008201527f6d75737420686176652070617573657220726f6c6520746f2070617573650000602082015250565b7f4552433732313a207472616e7366657220746f20746865207a65726f2061646460008201527f7265737300000000000000000000000000000000000000000000000000000000602082015250565b7f4552433732313a20617070726f766520746f2063616c6c657200000000000000600082015250565b7f5061757361626c653a2070617573656400000000000000000000000000000000600082015250565b7f4552433732313a2061646472657373207a65726f206973206e6f74206120766160008201527f6c6964206f776e65720000000000000000000000000000000000000000000000602082015250565b7f4552433732313a20617070726f76652063616c6c6572206973206e6f7420746f60008201527f6b656e206f776e6572206e6f7220617070726f76656420666f7220616c6c0000602082015250565b7f4552433732313a206d696e7420746f20746865207a65726f2061646472657373600082015250565b7f4552433732313a20696e76616c696420746f6b656e2049440000000000000000600082015250565b7f4552433732313a20617070726f76616c20746f2063757272656e74206f776e6560008201527f7200000000000000000000000000000000000000000000000000000000000000602082015250565b7f455243373231456e756d657261626c653a20676c6f62616c20696e646578206f60008201527f7574206f6620626f756e64730000000000000000000000000000000000000000602082015250565b7f416363657373436f6e74726f6c3a206163636f756e7420000000000000000000600082015250565b7f4552433732315072657365744d696e7465725061757365724175746f49643a2060008201527f6d7573742068617665206d696e74657220726f6c6520746f206d696e74000000602082015250565b7f4552433732313a2063616c6c6572206973206e6f7420746f6b656e206f776e6560008201527f72206e6f7220617070726f766564000000000000000000000000000000000000602082015250565b7f4552433732315072657365744d696e7465725061757365724175746f49643a2060008201527f6d75737420686176652070617573657220726f6c6520746f20756e7061757365602082015250565b7f206973206d697373696e6720726f6c6520000000000000000000000000000000600082015250565b7f416363657373436f6e74726f6c3a2063616e206f6e6c792072656e6f756e636560008201527f20726f6c657320666f722073656c660000000000000000000000000000000000602082015250565b6146f481613e94565b81146146ff57600080fd5b50565b61470b81613ea6565b811461471657600080fd5b50565b61472281613eb2565b811461472d57600080fd5b50565b61473981613ebc565b811461474457600080fd5b50565b61475081613f08565b811461475b57600080fd5b5056fea26469706673582212209ead7821b6f8313fcf76b797552c0195cc67cdf72e50cb18a9a05904fc54233664736f6c63430008040033",
  "linkReferences": {},
  "deployedLinkReferences": {}
}