{
  "_format": "hh-sol-artifact-1",
  "contractName": "PaymentSplitter",
  "sourceName": "contracts/dev3/paymentsplitter/PaymentSplitter.sol",
  "abi": [
    {
      "inputs": [
        {
          "internalType": "address[]",
          "name": "payeesList",
          "type": "address[]"
        },
        {
          "internalType": "uint256[]",
          "name": "sharesList",
          "type": "uint256[]"
        }
      ],
      "stateMutability": "nonpayable",
      "type": "constructor"
    },
    {
      "anonymous": false,
      "inputs": [
        {
          "indexed": false,
          "internalType": "address",
          "name": "account",
          "type": "address"
        },
        {
          "indexed": false,
          "internalType": "uint256",
          "name": "shares",
          "type": "uint256"
        }
      ],
      "name": "PayeeAdded",
      "type": "event"
    },
    {
      "anonymous": false,
      "inputs": [
        {
          "indexed": false,
          "internalType": "address",
          "name": "to",
          "type": "address"
        },
        {
          "indexed": false,
          "internalType": "address",
          "name": "token",
          "type": "address"
        },
        {
          "indexed": false,
          "internalType": "uint256",
          "name": "amount",
          "type": "uint256"
        }
      ],
      "name": "PaymentReleased",
      "type": "event"
    },
    {
      "inputs": [
        {
          "internalType": "uint256",
          "name": "index",
          "type": "uint256"
        }
      ],
      "name": "payee",
      "outputs": [
        {
          "internalType": "address",
          "name": "",
          "type": "address"
        }
      ],
      "stateMutability": "view",
      "type": "function"
    },
    {
      "inputs": [
        {
          "internalType": "address",
          "name": "token",
          "type": "address"
        },
        {
          "internalType": "address",
          "name": "account",
          "type": "address"
        }
      ],
      "name": "release",
      "outputs": [],
      "stateMutability": "nonpayable",
      "type": "function"
    },
    {
      "inputs": [
        {
          "internalType": "address",
          "name": "token",
          "type": "address"
        },
        {
          "internalType": "address",
          "name": "account",
          "type": "address"
        }
      ],
      "name": "released",
      "outputs": [
        {
          "internalType": "uint256",
          "name": "",
          "type": "uint256"
        }
      ],
      "stateMutability": "view",
      "type": "function"
    },
    {
      "inputs": [
        {
          "internalType": "address",
          "name": "account",
          "type": "address"
        }
      ],
      "name": "shares",
      "outputs": [
        {
          "internalType": "uint256",
          "name": "",
          "type": "uint256"
        }
      ],
      "stateMutability": "view",
      "type": "function"
    },
    {
      "inputs": [
        {
          "internalType": "address",
          "name": "token",
          "type": "address"
        }
      ],
      "name": "totalReleased",
      "outputs": [
        {
          "internalType": "uint256",
          "name": "",
          "type": "uint256"
        }
      ],
      "stateMutability": "view",
      "type": "function"
    },
    {
      "inputs": [],
      "name": "totalShares",
      "outputs": [
        {
          "internalType": "uint256",
          "name": "",
          "type": "uint256"
        }
      ],
      "stateMutability": "view",
      "type": "function"
    }
  ],
  "bytecode": "0x60806040523480156200001157600080fd5b506040516200128038038062001280833981810160405281019062000037919062000419565b80518251146200004657600080fd5b60008251116200005557600080fd5b60005b82518110156200010c57620000f6838281518110620000a0577f4e487b7100000000000000000000000000000000000000000000000000000000600052603260045260246000fd5b6020026020010151838381518110620000e2577f4e487b7100000000000000000000000000000000000000000000000000000000600052603260045260246000fd5b60200260200101516200011560201b60201c565b8080620001039062000608565b91505062000058565b505050620006e8565b600073ffffffffffffffffffffffffffffffffffffffff168273ffffffffffffffffffffffffffffffffffffffff1614156200015057600080fd5b600081116200015e57600080fd5b6000600260008473ffffffffffffffffffffffffffffffffffffffff1673ffffffffffffffffffffffffffffffffffffffff1681526020019081526020016000205414620001ab57600080fd5b6004829080600181540180825580915050600190039060005260206000200160009091909190916101000a81548173ffffffffffffffffffffffffffffffffffffffff021916908373ffffffffffffffffffffffffffffffffffffffff16021790555080600260008473ffffffffffffffffffffffffffffffffffffffff1673ffffffffffffffffffffffffffffffffffffffff16815260200190815260200160002081905550806000546200026291906200056d565b6000819055507f40c340f65e17194d14ddddb073d3c9f888e3cb52b5aae0c6c7706b4fbc905fac82826040516200029b929190620004ae565b60405180910390a15050565b6000620002be620002b8846200050f565b620004db565b90508083825260208201905082856020860282011115620002de57600080fd5b60005b85811015620003125781620002f7888262000391565b845260208401935060208301925050600181019050620002e1565b5050509392505050565b6000620003336200032d846200053e565b620004db565b905080838252602082019050828560208602820111156200035357600080fd5b60005b858110156200038757816200036c888262000402565b84526020840193506020830192505060018101905062000356565b5050509392505050565b600081519050620003a281620006b4565b92915050565b600082601f830112620003ba57600080fd5b8151620003cc848260208601620002a7565b91505092915050565b600082601f830112620003e757600080fd5b8151620003f98482602086016200031c565b91505092915050565b6000815190506200041381620006ce565b92915050565b600080604083850312156200042d57600080fd5b600083015167ffffffffffffffff8111156200044857600080fd5b6200045685828601620003a8565b925050602083015167ffffffffffffffff8111156200047457600080fd5b6200048285828601620003d5565b9150509250929050565b6200049781620005ca565b82525050565b620004a881620005fe565b82525050565b6000604082019050620004c560008301856200048c565b620004d460208301846200049d565b9392505050565b6000604051905081810181811067ffffffffffffffff8211171562000505576200050462000685565b5b8060405250919050565b600067ffffffffffffffff8211156200052d576200052c62000685565b5b602082029050602081019050919050565b600067ffffffffffffffff8211156200055c576200055b62000685565b5b602082029050602081019050919050565b60006200057a82620005fe565b91506200058783620005fe565b9250827fffffffffffffffffffffffffffffffffffffffffffffffffffffffffffffffff03821115620005bf57620005be62000656565b5b828201905092915050565b6000620005d782620005de565b9050919050565b600073ffffffffffffffffffffffffffffffffffffffff82169050919050565b6000819050919050565b60006200061582620005fe565b91507fffffffffffffffffffffffffffffffffffffffffffffffffffffffffffffffff8214156200064b576200064a62000656565b5b600182019050919050565b7f4e487b7100000000000000000000000000000000000000000000000000000000600052601160045260246000fd5b7f4e487b7100000000000000000000000000000000000000000000000000000000600052604160045260246000fd5b620006bf81620005ca565b8114620006cb57600080fd5b50565b620006d981620005fe565b8114620006e557600080fd5b50565b610b8880620006f86000396000f3fe608060405234801561001057600080fd5b50600436106100625760003560e01c80633a98ef3914610067578063406072a91461008557806348b75044146100b55780638b83209b146100d1578063ce7c2ac214610101578063d79779b214610131575b600080fd5b61006f610161565b60405161007c9190610937565b60405180910390f35b61009f600480360381019061009a91906107e7565b61016a565b6040516100ac9190610937565b60405180910390f35b6100cf60048036038101906100ca91906107e7565b6101f1565b005b6100eb60048036038101906100e6919061084c565b61066a565b6040516100f891906108bc565b60405180910390f35b61011b600480360381019061011691906107be565b6106d8565b6040516101289190610937565b60405180910390f35b61014b600480360381019061014691906107be565b610721565b6040516101589190610937565b60405180910390f35b60008054905090565b6000600360008473ffffffffffffffffffffffffffffffffffffffff1673ffffffffffffffffffffffffffffffffffffffff16815260200190815260200160002060008373ffffffffffffffffffffffffffffffffffffffff1673ffffffffffffffffffffffffffffffffffffffff16815260200190815260200160002054905092915050565b6000600260008373ffffffffffffffffffffffffffffffffffffffff1673ffffffffffffffffffffffffffffffffffffffff168152602001908152602001600020541161023d57600080fd5b6000600160008473ffffffffffffffffffffffffffffffffffffffff1673ffffffffffffffffffffffffffffffffffffffff168152602001908152602001600020548373ffffffffffffffffffffffffffffffffffffffff166370a08231306040518263ffffffff1660e01b81526004016102b891906108bc565b60206040518083038186803b1580156102d057600080fd5b505afa1580156102e4573d6000803e3d6000fd5b505050506040513d601f19601f820116820180604052508101906103089190610875565b6103129190610952565b90506000600360008573ffffffffffffffffffffffffffffffffffffffff1673ffffffffffffffffffffffffffffffffffffffff16815260200190815260200160002060008473ffffffffffffffffffffffffffffffffffffffff1673ffffffffffffffffffffffffffffffffffffffff16815260200190815260200160002054600054600260008673ffffffffffffffffffffffffffffffffffffffff1673ffffffffffffffffffffffffffffffffffffffff16815260200190815260200160002054846103e191906109d9565b6103eb91906109a8565b6103f59190610a33565b9050600081141561040557600080fd5b80600360008673ffffffffffffffffffffffffffffffffffffffff1673ffffffffffffffffffffffffffffffffffffffff16815260200190815260200160002060008573ffffffffffffffffffffffffffffffffffffffff1673ffffffffffffffffffffffffffffffffffffffff1681526020019081526020016000205461048d9190610952565b600360008673ffffffffffffffffffffffffffffffffffffffff1673ffffffffffffffffffffffffffffffffffffffff16815260200190815260200160002060008573ffffffffffffffffffffffffffffffffffffffff1673ffffffffffffffffffffffffffffffffffffffff1681526020019081526020016000208190555080600160008673ffffffffffffffffffffffffffffffffffffffff1673ffffffffffffffffffffffffffffffffffffffff168152602001908152602001600020546105589190610952565b600160008673ffffffffffffffffffffffffffffffffffffffff1673ffffffffffffffffffffffffffffffffffffffff168152602001908152602001600020819055508373ffffffffffffffffffffffffffffffffffffffff1663a9059cbb84836040518363ffffffff1660e01b81526004016105d692919061090e565b602060405180830381600087803b1580156105f057600080fd5b505af1158015610604573d6000803e3d6000fd5b505050506040513d601f19601f820116820180604052508101906106289190610823565b507f8ac5b3c2902b21b6bbb4d99ec195e28a242cb6a1777804db10b84d91e200642983858360405161065c939291906108d7565b60405180910390a150505050565b6000600482815481106106a6577f4e487b7100000000000000000000000000000000000000000000000000000000600052603260045260246000fd5b9060005260206000200160009054906101000a900473ffffffffffffffffffffffffffffffffffffffff169050919050565b6000600260008373ffffffffffffffffffffffffffffffffffffffff1673ffffffffffffffffffffffffffffffffffffffff168152602001908152602001600020549050919050565b6000600160008373ffffffffffffffffffffffffffffffffffffffff1673ffffffffffffffffffffffffffffffffffffffff168152602001908152602001600020549050919050565b60008135905061077981610b0d565b92915050565b60008151905061078e81610b24565b92915050565b6000813590506107a381610b3b565b92915050565b6000815190506107b881610b3b565b92915050565b6000602082840312156107d057600080fd5b60006107de8482850161076a565b91505092915050565b600080604083850312156107fa57600080fd5b60006108088582860161076a565b92505060206108198582860161076a565b9150509250929050565b60006020828403121561083557600080fd5b60006108438482850161077f565b91505092915050565b60006020828403121561085e57600080fd5b600061086c84828501610794565b91505092915050565b60006020828403121561088757600080fd5b6000610895848285016107a9565b91505092915050565b6108a781610a67565b82525050565b6108b681610aa5565b82525050565b60006020820190506108d1600083018461089e565b92915050565b60006060820190506108ec600083018661089e565b6108f9602083018561089e565b61090660408301846108ad565b949350505050565b6000604082019050610923600083018561089e565b61093060208301846108ad565b9392505050565b600060208201905061094c60008301846108ad565b92915050565b600061095d82610aa5565b915061096883610aa5565b9250827fffffffffffffffffffffffffffffffffffffffffffffffffffffffffffffffff0382111561099d5761099c610aaf565b5b828201905092915050565b60006109b382610aa5565b91506109be83610aa5565b9250826109ce576109cd610ade565b5b828204905092915050565b60006109e482610aa5565b91506109ef83610aa5565b9250817fffffffffffffffffffffffffffffffffffffffffffffffffffffffffffffffff0483118215151615610a2857610a27610aaf565b5b828202905092915050565b6000610a3e82610aa5565b9150610a4983610aa5565b925082821015610a5c57610a5b610aaf565b5b828203905092915050565b6000610a7282610a85565b9050919050565b60008115159050919050565b600073ffffffffffffffffffffffffffffffffffffffff82169050919050565b6000819050919050565b7f4e487b7100000000000000000000000000000000000000000000000000000000600052601160045260246000fd5b7f4e487b7100000000000000000000000000000000000000000000000000000000600052601260045260246000fd5b610b1681610a67565b8114610b2157600080fd5b50565b610b2d81610a79565b8114610b3857600080fd5b50565b610b4481610aa5565b8114610b4f57600080fd5b5056fea2646970667358221220b2aab98da3b9c42a7dac528345075530ec47d6ad0618cb5ba4b0a9c18617d19764736f6c63430008000033",
  "linkReferences": {},
  "deployedLinkReferences": {}
}