{
  "_format": "hh-sol-artifact-1",
  "contractName": "CfManagerSoftcap",
  "sourceName": "contracts/dev3/cfmanager-softcap/CfManagerSoftcap.sol",
  "abi": [
    {
      "inputs": [
        {
          "components": [
            {
              "internalType": "address",
              "name": "owner",
              "type": "address"
            },
            {
              "internalType": "address",
              "name": "asset",
              "type": "address"
            },
            {
              "internalType": "address",
              "name": "issuer",
              "type": "address"
            },
            {
              "internalType": "address",
              "name": "paymentToken",
              "type": "address"
            },
            {
              "internalType": "uint256",
              "name": "tokenPrice",
              "type": "uint256"
            },
            {
              "internalType": "uint8",
              "name": "tokenPriceDecimals",
              "type": "uint8"
            },
            {
              "internalType": "uint256",
              "name": "softCap",
              "type": "uint256"
            },
            {
              "internalType": "uint256",
              "name": "minInvestment",
              "type": "uint256"
            },
            {
              "internalType": "uint256",
              "name": "maxInvestment",
              "type": "uint256"
            },
            {
              "internalType": "bool",
              "name": "whitelistRequired",
              "type": "bool"
            },
            {
              "internalType": "string",
              "name": "info",
              "type": "string"
            },
            {
              "internalType": "address",
              "name": "feeManager",
              "type": "address"
            }
          ],
          "internalType": "struct Structs.CampaignConstructor",
          "name": "params",
          "type": "tuple"
        }
      ],
      "stateMutability": "nonpayable",
      "type": "constructor"
    },
    {
      "anonymous": false,
      "inputs": [
        {
          "indexed": true,
          "internalType": "address",
          "name": "owner",
          "type": "address"
        },
        {
          "indexed": false,
          "internalType": "address",
          "name": "asset",
          "type": "address"
        },
        {
          "indexed": false,
          "internalType": "uint256",
          "name": "tokensReturned",
          "type": "uint256"
        },
        {
          "indexed": false,
          "internalType": "uint256",
          "name": "timestamp",
          "type": "uint256"
        }
      ],
      "name": "CancelCampaign",
      "type": "event"
    },
    {
      "anonymous": false,
      "inputs": [
        {
          "indexed": true,
          "internalType": "address",
          "name": "investor",
          "type": "address"
        },
        {
          "indexed": false,
          "internalType": "address",
          "name": "asset",
          "type": "address"
        },
        {
          "indexed": false,
          "internalType": "uint256",
          "name": "tokenAmount",
          "type": "uint256"
        },
        {
          "indexed": false,
          "internalType": "uint256",
          "name": "tokenValue",
          "type": "uint256"
        },
        {
          "indexed": false,
          "internalType": "uint256",
          "name": "timestamp",
          "type": "uint256"
        }
      ],
      "name": "CancelInvestment",
      "type": "event"
    },
    {
      "anonymous": false,
      "inputs": [
        {
          "indexed": true,
          "internalType": "address",
          "name": "investor",
          "type": "address"
        },
        {
          "indexed": false,
          "internalType": "address",
          "name": "asset",
          "type": "address"
        },
        {
          "indexed": false,
          "internalType": "uint256",
          "name": "tokenAmount",
          "type": "uint256"
        },
        {
          "indexed": false,
          "internalType": "uint256",
          "name": "tokenValue",
          "type": "uint256"
        },
        {
          "indexed": false,
          "internalType": "uint256",
          "name": "timestamp",
          "type": "uint256"
        }
      ],
      "name": "Claim",
      "type": "event"
    },
    {
      "anonymous": false,
      "inputs": [
        {
          "indexed": true,
          "internalType": "address",
          "name": "owner",
          "type": "address"
        },
        {
          "indexed": false,
          "internalType": "address",
          "name": "asset",
          "type": "address"
        },
        {
          "indexed": false,
          "internalType": "uint256",
          "name": "fundsRaised",
          "type": "uint256"
        },
        {
          "indexed": false,
          "internalType": "uint256",
          "name": "tokensSold",
          "type": "uint256"
        },
        {
          "indexed": false,
          "internalType": "uint256",
          "name": "tokensRefund",
          "type": "uint256"
        },
        {
          "indexed": false,
          "internalType": "uint256",
          "name": "timestamp",
          "type": "uint256"
        }
      ],
      "name": "Finalize",
      "type": "event"
    },
    {
      "anonymous": false,
      "inputs": [
        {
          "indexed": true,
          "internalType": "address",
          "name": "investor",
          "type": "address"
        },
        {
          "indexed": false,
          "internalType": "address",
          "name": "asset",
          "type": "address"
        },
        {
          "indexed": false,
          "internalType": "uint256",
          "name": "tokenAmount",
          "type": "uint256"
        },
        {
          "indexed": false,
          "internalType": "uint256",
          "name": "tokenValue",
          "type": "uint256"
        },
        {
          "indexed": false,
          "internalType": "uint256",
          "name": "timestamp",
          "type": "uint256"
        }
      ],
      "name": "Invest",
      "type": "event"
    },
    {
      "anonymous": false,
      "inputs": [
        {
          "indexed": true,
          "internalType": "address",
          "name": "previousOwner",
          "type": "address"
        },
        {
          "indexed": true,
          "internalType": "address",
          "name": "newOwner",
          "type": "address"
        }
      ],
      "name": "OwnershipTransferred",
      "type": "event"
    },
    {
      "anonymous": false,
      "inputs": [
        {
          "indexed": false,
          "internalType": "string",
          "name": "info",
          "type": "string"
        },
        {
          "indexed": false,
          "internalType": "address",
          "name": "setter",
          "type": "address"
        },
        {
          "indexed": false,
          "internalType": "uint256",
          "name": "timestamp",
          "type": "uint256"
        }
      ],
      "name": "SetInfo",
      "type": "event"
    },
    {
      "inputs": [],
      "name": "cancelCampaign",
      "outputs": [],
      "stateMutability": "nonpayable",
      "type": "function"
    },
    {
      "inputs": [],
      "name": "cancelInvestment",
      "outputs": [],
      "stateMutability": "nonpayable",
      "type": "function"
    },
    {
      "inputs": [
        {
          "internalType": "address",
          "name": "investor",
          "type": "address"
        }
      ],
      "name": "cancelInvestmentFor",
      "outputs": [],
      "stateMutability": "nonpayable",
      "type": "function"
    },
    {
      "inputs": [
        {
          "internalType": "address",
          "name": "investor",
          "type": "address"
        }
      ],
      "name": "claim",
      "outputs": [],
      "stateMutability": "nonpayable",
      "type": "function"
    },
    {
      "inputs": [
        {
          "internalType": "address",
          "name": "investor",
          "type": "address"
        }
      ],
      "name": "claimedAmount",
      "outputs": [
        {
          "internalType": "uint256",
          "name": "",
          "type": "uint256"
        }
      ],
      "stateMutability": "view",
      "type": "function"
    },
    {
      "inputs": [],
      "name": "commonState",
      "outputs": [
        {
          "components": [
            {
              "internalType": "string",
              "name": "flavor",
              "type": "string"
            },
            {
              "internalType": "string",
              "name": "version",
              "type": "string"
            },
            {
              "internalType": "address",
              "name": "contractAddress",
              "type": "address"
            },
            {
              "internalType": "address",
              "name": "owner",
              "type": "address"
            },
            {
              "internalType": "string",
              "name": "info",
              "type": "string"
            },
            {
              "internalType": "address",
              "name": "asset",
              "type": "address"
            },
            {
              "internalType": "address",
              "name": "stablecoin",
              "type": "address"
            },
            {
              "internalType": "uint256",
              "name": "softCap",
              "type": "uint256"
            },
            {
              "internalType": "bool",
              "name": "finalized",
              "type": "bool"
            },
            {
              "internalType": "bool",
              "name": "canceled",
              "type": "bool"
            },
            {
              "internalType": "uint256",
              "name": "pricePerToken",
              "type": "uint256"
            },
            {
              "internalType": "uint8",
              "name": "tokenPriceDecimals",
              "type": "uint8"
            },
            {
              "internalType": "uint256",
              "name": "fundsRaised",
              "type": "uint256"
            },
            {
              "internalType": "uint256",
              "name": "tokensSold",
              "type": "uint256"
            }
          ],
          "internalType": "struct Structs.CampaignCommonState",
          "name": "",
          "type": "tuple"
        }
      ],
      "stateMutability": "view",
      "type": "function"
    },
    {
      "inputs": [],
      "name": "finalize",
      "outputs": [],
      "stateMutability": "nonpayable",
      "type": "function"
    },
    {
      "inputs": [],
      "name": "flavor",
      "outputs": [
        {
          "internalType": "string",
          "name": "",
          "type": "string"
        }
      ],
      "stateMutability": "view",
      "type": "function"
    },
    {
      "inputs": [],
      "name": "getInfoHistory",
      "outputs": [
        {
          "components": [
            {
              "internalType": "string",
              "name": "info",
              "type": "string"
            },
            {
              "internalType": "uint256",
              "name": "timestamp",
              "type": "uint256"
            }
          ],
          "internalType": "struct Structs.InfoEntry[]",
          "name": "",
          "type": "tuple[]"
        }
      ],
      "stateMutability": "view",
      "type": "function"
    },
    {
      "inputs": [],
      "name": "getState",
      "outputs": [
        {
          "components": [
            {
              "internalType": "string",
              "name": "flavor",
              "type": "string"
            },
            {
              "internalType": "string",
              "name": "version",
              "type": "string"
            },
            {
              "internalType": "address",
              "name": "contractAddress",
              "type": "address"
            },
            {
              "internalType": "address",
              "name": "owner",
              "type": "address"
            },
            {
              "internalType": "address",
              "name": "asset",
              "type": "address"
            },
            {
              "internalType": "address",
              "name": "issuer",
              "type": "address"
            },
            {
              "internalType": "address",
              "name": "stablecoin",
              "type": "address"
            },
            {
              "internalType": "uint256",
              "name": "tokenPrice",
              "type": "uint256"
            },
            {
              "internalType": "uint256",
              "name": "softCap",
              "type": "uint256"
            },
            {
              "internalType": "uint256",
              "name": "minInvestment",
              "type": "uint256"
            },
            {
              "internalType": "uint256",
              "name": "maxInvestment",
              "type": "uint256"
            },
            {
              "internalType": "bool",
              "name": "whitelistRequired",
              "type": "bool"
            },
            {
              "internalType": "bool",
              "name": "finalized",
              "type": "bool"
            },
            {
              "internalType": "bool",
              "name": "canceled",
              "type": "bool"
            },
            {
              "internalType": "uint256",
              "name": "totalClaimableTokens",
              "type": "uint256"
            },
            {
              "internalType": "uint256",
              "name": "totalInvestorsCount",
              "type": "uint256"
            },
            {
              "internalType": "uint256",
              "name": "totalClaimsCount",
              "type": "uint256"
            },
            {
              "internalType": "uint256",
              "name": "totalFundsRaised",
              "type": "uint256"
            },
            {
              "internalType": "uint256",
              "name": "totalTokensSold",
              "type": "uint256"
            },
            {
              "internalType": "uint256",
              "name": "totalTokensBalance",
              "type": "uint256"
            },
            {
              "internalType": "string",
              "name": "info",
              "type": "string"
            },
            {
              "internalType": "address",
              "name": "feeManager",
              "type": "address"
            }
          ],
          "internalType": "struct Structs.CfManagerSoftcapState",
          "name": "",
          "type": "tuple"
        }
      ],
      "stateMutability": "view",
      "type": "function"
    },
    {
      "inputs": [
        {
          "internalType": "uint256",
          "name": "amount",
          "type": "uint256"
        }
      ],
      "name": "invest",
      "outputs": [],
      "stateMutability": "nonpayable",
      "type": "function"
    },
    {
      "inputs": [
        {
          "internalType": "address",
          "name": "spender",
          "type": "address"
        },
        {
          "internalType": "address",
          "name": "beneficiary",
          "type": "address"
        },
        {
          "internalType": "uint256",
          "name": "amount",
          "type": "uint256"
        }
      ],
      "name": "investForBeneficiary",
      "outputs": [],
      "stateMutability": "nonpayable",
      "type": "function"
    },
    {
      "inputs": [
        {
          "internalType": "address",
          "name": "investor",
          "type": "address"
        }
      ],
      "name": "investmentAmount",
      "outputs": [
        {
          "internalType": "uint256",
          "name": "",
          "type": "uint256"
        }
      ],
      "stateMutability": "view",
      "type": "function"
    },
    {
      "inputs": [
        {
          "internalType": "address",
          "name": "wallet",
          "type": "address"
        }
      ],
      "name": "isWalletWhitelisted",
      "outputs": [
        {
          "internalType": "bool",
          "name": "",
          "type": "bool"
        }
      ],
      "stateMutability": "view",
      "type": "function"
    },
    {
      "inputs": [],
      "name": "owner",
      "outputs": [
        {
          "internalType": "address",
          "name": "",
          "type": "address"
        }
      ],
      "stateMutability": "view",
      "type": "function"
    },
    {
      "inputs": [],
      "name": "renounceOwnership",
      "outputs": [],
      "stateMutability": "nonpayable",
      "type": "function"
    },
    {
      "inputs": [
        {
          "internalType": "string",
          "name": "info",
          "type": "string"
        }
      ],
      "name": "setInfo",
      "outputs": [],
      "stateMutability": "nonpayable",
      "type": "function"
    },
    {
      "inputs": [],
      "name": "stablecoin",
      "outputs": [
        {
          "internalType": "contract IERC20",
          "name": "",
          "type": "address"
        }
      ],
      "stateMutability": "view",
      "type": "function"
    },
    {
      "inputs": [
        {
          "internalType": "address",
          "name": "investor",
          "type": "address"
        }
      ],
      "name": "tokenAmount",
      "outputs": [
        {
          "internalType": "uint256",
          "name": "",
          "type": "uint256"
        }
      ],
      "stateMutability": "view",
      "type": "function"
    },
    {
      "inputs": [
        {
          "internalType": "address",
          "name": "newOwner",
          "type": "address"
        }
      ],
      "name": "transferOwnership",
      "outputs": [],
      "stateMutability": "nonpayable",
      "type": "function"
    },
    {
      "inputs": [],
      "name": "version",
      "outputs": [
        {
          "internalType": "string",
          "name": "",
          "type": "string"
        }
      ],
      "stateMutability": "view",
      "type": "function"
    }
  ],
  "bytecode": "0x608060405260006019553480156200001657600080fd5b5060405162006d7138038062006d7183398181016040528101906200003c919062001450565b6200005c6200005062000a9860201b60201c565b62000aa060201b60201c565b600073ffffffffffffffffffffffffffffffffffffffff16816000015173ffffffffffffffffffffffffffffffffffffffff161415620000d3576040517f08c379a0000000000000000000000000000000000000000000000000000000008152600401620000ca9062001974565b60405180910390fd5b600073ffffffffffffffffffffffffffffffffffffffff16816020015173ffffffffffffffffffffffffffffffffffffffff1614156200014a576040517f08c379a0000000000000000000000000000000000000000000000000000000008152600401620001419062001952565b60405180910390fd5b600081608001511162000194576040517f08c379a00000000000000000000000000000000000000000000000000000000081526004016200018b9062001930565b60405180910390fd5b8060e001518161010001511015620001e3576040517f08c379a0000000000000000000000000000000000000000000000000000000008152600401620001da90620019fc565b60405180910390fd5b6000816101000151116200022e576040517f08c379a000000000000000000000000000000000000000000000000000000000815260040162000225906200190e565b60405180910390fd5b600062000245826020015162000b6460201b60201c565b905060008073ffffffffffffffffffffffffffffffffffffffff168273ffffffffffffffffffffffffffffffffffffffff161415620002895782604001516200028b565b815b9050826040015173ffffffffffffffffffffffffffffffffffffffff168173ffffffffffffffffffffffffffffffffffffffff161462000302576040517f08c379a0000000000000000000000000000000000000000000000000000000008152600401620002f990620019da565b60405180910390fd5b826101200151156200038257600073ffffffffffffffffffffffffffffffffffffffff168173ffffffffffffffffffffffffffffffffffffffff16141562000381576040517f08c379a00000000000000000000000000000000000000000000000000000000081526004016200037890620019b8565b60405180910390fd5b5b60008073ffffffffffffffffffffffffffffffffffffffff16846060015173ffffffffffffffffffffffffffffffffffffffff1614620003c757836060015162000453565b8173ffffffffffffffffffffffffffffffffffffffff16631818e2ec6040518163ffffffff1660e01b815260040160006040518083038186803b1580156200040e57600080fd5b505afa15801562000423573d6000803e3d6000fd5b505050506040513d6000823e3d601f19601f820116820180604052508101906200044e919062001495565b608001515b905060006200049c620004808660c0015187608001518860a0015189602001518762000c9760201b60201c565b86608001518760a0015188602001518662000d0760201b60201c565b90506000620004e5620004c98760e0015188608001518960a001518a602001518862000c9760201b60201c565b87608001518860a0015189602001518762000d0760201b60201c565b9050604051806102c001604052806040518060400160405280601681526020017f646576332e63666d616e616765722d736f66746361700000000000000000000081525081526020016040518060400160405280600581526020017f312e302e3000000000000000000000000000000000000000000000000000000081525081526020013073ffffffffffffffffffffffffffffffffffffffff168152602001876000015173ffffffffffffffffffffffffffffffffffffffff168152602001876020015173ffffffffffffffffffffffffffffffffffffffff1681526020018573ffffffffffffffffffffffffffffffffffffffff1681526020018473ffffffffffffffffffffffffffffffffffffffff168152602001876080015181526020018760a0015160ff1681526020018381526020018281526020018761010001518152602001876101200151151581526020016000151581526020016000151581526020016000815260200160008152602001600081526020016000815260200160008152602001876101400151815260200187610160015173ffffffffffffffffffffffffffffffffffffffff1681525060016000820151816000019080519060200190620006b792919062000ea9565b506020820151816001019080519060200190620006d692919062000ea9565b5060408201518160020160006101000a81548173ffffffffffffffffffffffffffffffffffffffff021916908373ffffffffffffffffffffffffffffffffffffffff16021790555060608201518160030160006101000a81548173ffffffffffffffffffffffffffffffffffffffff021916908373ffffffffffffffffffffffffffffffffffffffff16021790555060808201518160040160006101000a81548173ffffffffffffffffffffffffffffffffffffffff021916908373ffffffffffffffffffffffffffffffffffffffff16021790555060a08201518160050160006101000a81548173ffffffffffffffffffffffffffffffffffffffff021916908373ffffffffffffffffffffffffffffffffffffffff16021790555060c08201518160060160006101000a81548173ffffffffffffffffffffffffffffffffffffffff021916908373ffffffffffffffffffffffffffffffffffffffff16021790555060e082015181600701556101008201518160080160006101000a81548160ff021916908360ff160217905550610120820151816009015561014082015181600a015561016082015181600b015561018082015181600c0160006101000a81548160ff0219169083151502179055506101a082015181600c0160016101000a81548160ff0219169083151502179055506101c082015181600c0160026101000a81548160ff0219169083151502179055506101e082015181600d015561020082015181600e015561022082015181600f0155610240820151816010015561026082015181601101556102808201518160120190805190602001906200094092919062000ea9565b506102a08201518160130160006101000a81548173ffffffffffffffffffffffffffffffffffffffff021916908373ffffffffffffffffffffffffffffffffffffffff1602179055509050508162000a33876020015173ffffffffffffffffffffffffffffffffffffffff166318160ddd6040518163ffffffff1660e01b815260040160206040518083038186803b158015620009dc57600080fd5b505afa158015620009f1573d6000803e3d6000fd5b505050506040513d601f19601f8201168201806040525081019062000a179190620014da565b88608001518960a001518a602001518862000d0760201b60201c565b101562000a77576040517f08c379a000000000000000000000000000000000000000000000000000000000815260040162000a6e9062001996565b60405180910390fd5b62000a8c866000015162000aa060201b60201c565b50505050505062001ed1565b600033905090565b60008060009054906101000a900473ffffffffffffffffffffffffffffffffffffffff169050816000806101000a81548173ffffffffffffffffffffffffffffffffffffffff021916908373ffffffffffffffffffffffffffffffffffffffff1602179055508173ffffffffffffffffffffffffffffffffffffffff168173ffffffffffffffffffffffffffffffffffffffff167f8be0079c531659141344cd1fd0a4f28419497f9722a3daafe3b4186f6b6457e060405160405180910390a35050565b60008060008373ffffffffffffffffffffffffffffffffffffffff166040516024016040516020818303038152906040527f1818e2ec000000000000000000000000000000000000000000000000000000007bffffffffffffffffffffffffffffffffffffffffffffffffffffffff19166020820180517bffffffffffffffffffffffffffffffffffffffffffffffffffffffff838183161783525050505060405162000c129190620018f5565b600060405180830381855afa9150503d806000811462000c4f576040519150601f19603f3d011682016040523d82523d6000602084013e62000c54565b606091505b5091509150811562000c8b5760008180602001905181019062000c7891906200140b565b9050806101200151935050505062000c92565b6000925050505b919050565b600062000caa8262000d7760201b60201c565b8562000cbc8562000e1060201b60201c565b86600a62000ccb919062001b3f565b8962000cd8919062001c7c565b62000ce4919062001c7c565b62000cf0919062001aac565b62000cfc919062001aac565b905095945050505050565b600062000d1a8362000e1060201b60201c565b84600a62000d29919062001b3f565b62000d3a8462000d7760201b60201c565b878962000d48919062001c7c565b62000d54919062001c7c565b62000d60919062001aac565b62000d6c919062001aac565b905095945050505050565b60008173ffffffffffffffffffffffffffffffffffffffff1663313ce5676040518163ffffffff1660e01b815260040160206040518083038186803b15801562000dc057600080fd5b505afa15801562000dd5573d6000803e3d6000fd5b505050506040513d601f19601f8201168201806040525081019062000dfb919062001506565b600a62000e09919062001b3f565b9050919050565b60008173ffffffffffffffffffffffffffffffffffffffff1663313ce5676040518163ffffffff1660e01b815260040160206040518083038186803b15801562000e5957600080fd5b505afa15801562000e6e573d6000803e3d6000fd5b505050506040513d601f19601f8201168201806040525081019062000e94919062001506565b600a62000ea2919062001b3f565b9050919050565b82805462000eb79062001d6a565b90600052602060002090601f01602090048101928262000edb576000855562000f27565b82601f1062000ef657805160ff191683800117855562000f27565b8280016001018555821562000f27579182015b8281111562000f2657825182559160200191906001019062000f09565b5b50905062000f36919062000f3a565b5090565b5b8082111562000f5557600081600090555060010162000f3b565b5090565b600062000f7062000f6a8462001a52565b62001a1e565b90508281526020810184848401111562000f8957600080fd5b62000f9684828562001d34565b509392505050565b60008151905062000faf8162001e69565b92915050565b60008151905062000fc68162001e83565b92915050565b600082601f83011262000fde57600080fd5b815162000ff084826020860162000f59565b91505092915050565b600061014082840312156200100d57600080fd5b6200101a61014062001a1e565b9050600082015167ffffffffffffffff8111156200103757600080fd5b620010458482850162000fcc565b600083015250602082015167ffffffffffffffff8111156200106657600080fd5b620010748482850162000fcc565b60208301525060406200108a8482850162000f9e565b6040830152506060620010a08482850162000f9e565b606083015250608082015167ffffffffffffffff811115620010c157600080fd5b620010cf8482850162000fcc565b60808301525060a082015167ffffffffffffffff811115620010f057600080fd5b620010fe8482850162000fcc565b60a08301525060c082015167ffffffffffffffff8111156200111f57600080fd5b6200112d8482850162000fcc565b60c08301525060e06200114384828501620013dd565b60e0830152506101006200115a84828501620013f4565b61010083015250610120620011728482850162000f9e565b6101208301525092915050565b600061018082840312156200119357600080fd5b620011a061018062001a1e565b90506000620011b28482850162000f9e565b6000830152506020620011c88482850162000f9e565b6020830152506040620011de8482850162000f9e565b6040830152506060620011f48482850162000f9e565b60608301525060806200120a84828501620013dd565b60808301525060a06200122084828501620013f4565b60a08301525060c06200123684828501620013dd565b60c08301525060e06200124c84828501620013dd565b60e0830152506101006200126384828501620013dd565b610100830152506101206200127b8482850162000fb5565b6101208301525061014082015167ffffffffffffffff8111156200129e57600080fd5b620012ac8482850162000fcc565b61014083015250610160620012c48482850162000f9e565b6101608301525092915050565b600060e08284031215620012e457600080fd5b620012f060e062001a1e565b9050600082015167ffffffffffffffff8111156200130d57600080fd5b6200131b8482850162000fcc565b600083015250602082015167ffffffffffffffff8111156200133c57600080fd5b6200134a8482850162000fcc565b6020830152506040620013608482850162000f9e565b6040830152506060620013768482850162000f9e565b60608301525060806200138c8482850162000f9e565b60808301525060a0620013a28482850162000f9e565b60a08301525060c082015167ffffffffffffffff811115620013c357600080fd5b620013d18482850162000fcc565b60c08301525092915050565b600081519050620013ee8162001e9d565b92915050565b600081519050620014058162001eb7565b92915050565b6000602082840312156200141e57600080fd5b600082015167ffffffffffffffff8111156200143957600080fd5b620014478482850162000ff9565b91505092915050565b6000602082840312156200146357600080fd5b600082015167ffffffffffffffff8111156200147e57600080fd5b6200148c848285016200117f565b91505092915050565b600060208284031215620014a857600080fd5b600082015167ffffffffffffffff811115620014c357600080fd5b620014d184828501620012d1565b91505092915050565b600060208284031215620014ed57600080fd5b6000620014fd84828501620013dd565b91505092915050565b6000602082840312156200151957600080fd5b60006200152984828501620013f4565b91505092915050565b60006200153f8262001a85565b6200154b818562001a90565b93506200155d81856020860162001d34565b80840191505092915050565b60006200157860398362001a9b565b91507f43664d616e61676572536f66746361703a204d617820696e766573746d656e7460008301527f2068617320746f20626520626967676572207468616e20302e000000000000006020830152604082019050919050565b6000620015e060418362001a9b565b91507f43664d616e61676572536f66746361703a20496e697469616c2070726963652060008301527f70657220746f6b656e206d7573742062652067726561746572207468616e203060208301527f2e000000000000000000000000000000000000000000000000000000000000006040830152606082019050919050565b60006200166e60278362001a9b565b91507f43664d616e61676572536f66746361703a20496e76616c69642061737365742060008301527f61646472657373000000000000000000000000000000000000000000000000006020830152604082019050919050565b6000620016d660278362001a9b565b91507f43664d616e61676572536f66746361703a20496e76616c6964206f776e65722060008301527f61646472657373000000000000000000000000000000000000000000000000006020830152604082019050919050565b60006200173e60238362001a9b565b91507f43664d616e61676572536f66746361703a20496e76616c696420736f6674206360008301527f61702e00000000000000000000000000000000000000000000000000000000006020830152604082019050919050565b6000620017a6604e8362001a9b565b91507f43664d616e61676572536f66746361703a20497373756572206d75737420626560008301527f2070726f76696465642069662077616c6c65742077686974656c697374696e6760208301527f206973207475726e6564206f6e2e0000000000000000000000000000000000006040830152606082019050919050565b600062001834602a8362001a9b565b91507f43664d616e61676572536f66746361703a20496e76616c69642069737375657260008301527f2070726f76696465642e000000000000000000000000000000000000000000006020830152604082019050919050565b60006200189c603b8362001a9b565b91507f43664d616e61676572536f66746361703a204d61782068617320746f2062652060008301527f626967676572207468616e206d696e20696e766573746d656e742e00000000006020830152604082019050919050565b600062001903828462001532565b915081905092915050565b60006020820190508181036000830152620019298162001569565b9050919050565b600060208201905081810360008301526200194b81620015d1565b9050919050565b600060208201905081810360008301526200196d816200165f565b9050919050565b600060208201905081810360008301526200198f81620016c7565b9050919050565b60006020820190508181036000830152620019b1816200172f565b9050919050565b60006020820190508181036000830152620019d38162001797565b9050919050565b60006020820190508181036000830152620019f58162001825565b9050919050565b6000602082019050818103600083015262001a17816200188d565b9050919050565b6000604051905081810181811067ffffffffffffffff8211171562001a485762001a4762001e2d565b5b8060405250919050565b600067ffffffffffffffff82111562001a705762001a6f62001e2d565b5b601f19601f8301169050602081019050919050565b600081519050919050565b600081905092915050565b600082825260208201905092915050565b600062001ab98262001d1d565b915062001ac68362001d1d565b92508262001ad95762001ad862001dcf565b5b828204905092915050565b6000808291508390505b600185111562001b365780860481111562001b0e5762001b0d62001da0565b5b600185161562001b1e5780820291505b808102905062001b2e8562001e5c565b945062001aee565b94509492505050565b600062001b4c8262001d1d565b915062001b598362001d27565b925062001b887fffffffffffffffffffffffffffffffffffffffffffffffffffffffffffffffff848462001b90565b905092915050565b60008262001ba2576001905062001c75565b8162001bb2576000905062001c75565b816001811462001bcb576002811462001bd65762001c0c565b600191505062001c75565b60ff84111562001beb5762001bea62001da0565b5b8360020a91508482111562001c055762001c0462001da0565b5b5062001c75565b5060208310610133831016604e8410600b841016171562001c465782820a90508381111562001c405762001c3f62001da0565b5b62001c75565b62001c55848484600162001ae4565b9250905081840481111562001c6f5762001c6e62001da0565b5b81810290505b9392505050565b600062001c898262001d1d565b915062001c968362001d1d565b9250817fffffffffffffffffffffffffffffffffffffffffffffffffffffffffffffffff048311821515161562001cd25762001cd162001da0565b5b828202905092915050565b600062001cea8262001cfd565b9050919050565b60008115159050919050565b600073ffffffffffffffffffffffffffffffffffffffff82169050919050565b6000819050919050565b600060ff82169050919050565b60005b8381101562001d5457808201518184015260208101905062001d37565b8381111562001d64576000848401525b50505050565b6000600282049050600182168062001d8357607f821691505b6020821081141562001d9a5762001d9962001dfe565b5b50919050565b7f4e487b7100000000000000000000000000000000000000000000000000000000600052601160045260246000fd5b7f4e487b7100000000000000000000000000000000000000000000000000000000600052601260045260246000fd5b7f4e487b7100000000000000000000000000000000000000000000000000000000600052602260045260246000fd5b7f4e487b7100000000000000000000000000000000000000000000000000000000600052604160045260246000fd5b60008160011c9050919050565b62001e748162001cdd565b811462001e8057600080fd5b50565b62001e8e8162001cf1565b811462001e9a57600080fd5b50565b62001ea88162001d1d565b811462001eb457600080fd5b50565b62001ec28162001d27565b811462001ece57600080fd5b50565b614e908062001ee16000396000f3fe608060405234801561001057600080fd5b50600436106101375760003560e01c80638da5cb5b116100b8578063a96b7f051161007c578063a96b7f05146102b6578063aac8f967146102e6578063e9cbd82214610316578063ed0ea00314610334578063f2fde38b14610364578063f59e4f651461038057610137565b80638da5cb5b1461024a578063937f6e771461026857806394f8e95414610284578063980e78441461028e57806398e162551461029857610137565b806336921c0c116100ff57806336921c0c146101e05780634bb278f3146101fc57806354fd4d501461020657806367c5bd5414610224578063715018a61461024057610137565b806304e869031461013c5780631818e2ec1461016c5780631865c57d1461018a5780631e83409a146101a85780632afcf480146101c4575b600080fd5b610156600480360381019061015191906135a7565b61039e565b6040516101639190614890565b60405180910390f35b6101746103e7565b604051610181919061484c565b60405180910390f35b610192610717565b60405161019f919061486e565b60405180910390f35b6101c260048036038101906101bd91906135a7565b610b91565b005b6101de60048036038101906101d991906136c5565b610de5565b005b6101fa60048036038101906101f5919061360c565b610df3565b005b610204610ea5565b005b61020e61124f565b60405161021b919061458c565b60405180910390f35b61023e600480360381019061023991906135a7565b6112e3565b005b610248611341565b005b6102526113c9565b60405161025f91906143ea565b60405180910390f35b610282600480360381019061027d9190613684565b6113f2565b005b61028c61152f565b005b61029661158d565b005b6102a0611816565b6040516102ad9190614534565b60405180910390f35b6102d060048036038101906102cb91906135a7565b611911565b6040516102dd9190614890565b60405180910390f35b61030060048036038101906102fb91906135a7565b61195a565b60405161030d9190614556565b60405180910390f35b61031e6119a2565b60405161032b9190614571565b60405180910390f35b61034e600480360381019061034991906135a7565b6119cf565b60405161035b9190614890565b60405180910390f35b61037e600480360381019061037991906135a7565b611a18565b005b610388611b10565b604051610395919061458c565b60405180910390f35b6000601660008373ffffffffffffffffffffffffffffffffffffffff1673ffffffffffffffffffffffffffffffffffffffff168152602001908152602001600020549050919050565b6103ef61321f565b604051806101c001604052806001600001805461040b90614cdb565b80601f016020809104026020016040519081016040528092919081815260200182805461043790614cdb565b80156104845780601f1061045957610100808354040283529160200191610484565b820191906000526020600020905b81548152906001019060200180831161046757829003601f168201915b5050505050815260200160018001805461049d90614cdb565b80601f01602080910402602001604051908101604052809291908181526020018280546104c990614cdb565b80156105165780601f106104eb57610100808354040283529160200191610516565b820191906000526020600020905b8154815290600101906020018083116104f957829003601f168201915b50505050508152602001600160020160009054906101000a900473ffffffffffffffffffffffffffffffffffffffff1673ffffffffffffffffffffffffffffffffffffffff1681526020016105696113c9565b73ffffffffffffffffffffffffffffffffffffffff1681526020016001601201805461059490614cdb565b80601f01602080910402602001604051908101604052809291908181526020018280546105c090614cdb565b801561060d5780601f106105e25761010080835404028352916020019161060d565b820191906000526020600020905b8154815290600101906020018083116105f057829003601f168201915b50505050508152602001600160040160009054906101000a900473ffffffffffffffffffffffffffffffffffffffff1673ffffffffffffffffffffffffffffffffffffffff168152602001600160060160009054906101000a900473ffffffffffffffffffffffffffffffffffffffff1673ffffffffffffffffffffffffffffffffffffffff16815260200160016009015481526020016001600c0160019054906101000a900460ff16151581526020016001600c0160029054906101000a900460ff16151581526020016001600701548152602001600160080160009054906101000a900460ff1660ff1681526020016001600f01548152602001600160100154815250905090565b61071f6132ed565b604051806102c001604052806001600001805461073b90614cdb565b80601f016020809104026020016040519081016040528092919081815260200182805461076790614cdb565b80156107b45780601f10610789576101008083540402835291602001916107b4565b820191906000526020600020905b81548152906001019060200180831161079757829003601f168201915b505050505081526020016001800180546107cd90614cdb565b80601f01602080910402602001604051908101604052809291908181526020018280546107f990614cdb565b80156108465780601f1061081b57610100808354040283529160200191610846565b820191906000526020600020905b81548152906001019060200180831161082957829003601f168201915b50505050508152602001600160020160009054906101000a900473ffffffffffffffffffffffffffffffffffffffff1673ffffffffffffffffffffffffffffffffffffffff1681526020016108996113c9565b73ffffffffffffffffffffffffffffffffffffffff168152602001600160040160009054906101000a900473ffffffffffffffffffffffffffffffffffffffff1673ffffffffffffffffffffffffffffffffffffffff168152602001600160050160009054906101000a900473ffffffffffffffffffffffffffffffffffffffff1673ffffffffffffffffffffffffffffffffffffffff168152602001600160060160009054906101000a900473ffffffffffffffffffffffffffffffffffffffff1673ffffffffffffffffffffffffffffffffffffffff168152602001600160070154815260200160016009015481526020016001600a015481526020016001600b015481526020016001600c0160009054906101000a900460ff16151581526020016001600c0160019054906101000a900460ff16151581526020016001600c0160029054906101000a900460ff16151581526020016001600d015481526020016001600e0154815260200160195481526020016001600f015481526020016001601001548152602001610a2d611ba5565b73ffffffffffffffffffffffffffffffffffffffff166370a08231306040518263ffffffff1660e01b8152600401610a6591906143ea565b60206040518083038186803b158015610a7d57600080fd5b505afa158015610a91573d6000803e3d6000fd5b505050506040513d601f19601f82011682018060405250810190610ab591906136ee565b815260200160016012018054610aca90614cdb565b80601f0160208091040260200160405190810160405280929190818152602001828054610af690614cdb565b8015610b435780601f10610b1857610100808354040283529160200191610b43565b820191906000526020600020905b815481529060010190602001808311610b2657829003601f168201915b50505050508152602001600160130160009054906101000a900473ffffffffffffffffffffffffffffffffffffffff1673ffffffffffffffffffffffffffffffffffffffff16815250905090565b6001600c0160019054906101000a900460ff16610be3576040517f08c379a0000000000000000000000000000000000000000000000000000000008152600401610bda9061482c565b60405180910390fd5b6000601660008373ffffffffffffffffffffffffffffffffffffffff1673ffffffffffffffffffffffffffffffffffffffff1681526020019081526020016000205490506000601760008473ffffffffffffffffffffffffffffffffffffffff1673ffffffffffffffffffffffffffffffffffffffff168152602001908152602001600020549050600082118015610c7b5750600081115b610cba576040517f08c379a0000000000000000000000000000000000000000000000000000000008152600401610cb1906147ac565b60405180910390fd5b600160196000828254610ccd9190614988565b92505081905550816001600d016000828254610ce99190614bda565b925050819055506000601660008573ffffffffffffffffffffffffffffffffffffffff1673ffffffffffffffffffffffffffffffffffffffff16815260200190815260200160002081905550610d678383610d42611ba5565b73ffffffffffffffffffffffffffffffffffffffff16611bd29092919063ffffffff16565b8273ffffffffffffffffffffffffffffffffffffffff167f9137e112a187039f8a3291c0a66fce97153d25ec42036e82360d5d0106d19a6e600160040160009054906101000a900473ffffffffffffffffffffffffffffffffffffffff16848442604051610dd8949392919061449c565b60405180910390a2505050565b610df0333383611c58565b50565b8173ffffffffffffffffffffffffffffffffffffffff168373ffffffffffffffffffffffffffffffffffffffff1614610e95573373ffffffffffffffffffffffffffffffffffffffff168373ffffffffffffffffffffffffffffffffffffffff1614610e94576040517f08c379a0000000000000000000000000000000000000000000000000000000008152600401610e8b9061464c565b60405180910390fd5b5b610ea0838383611c58565b505050565b610ead612420565b73ffffffffffffffffffffffffffffffffffffffff16610ecb6113c9565b73ffffffffffffffffffffffffffffffffffffffff1614610f21576040517f08c379a0000000000000000000000000000000000000000000000000000000008152600401610f189061470c565b60405180910390fd5b6001600c0160029054906101000a900460ff1615610f74576040517f08c379a0000000000000000000000000000000000000000000000000000000008152600401610f6b906147cc565b60405180910390fd5b6001600c0160019054906101000a900460ff1615610fc7576040517f08c379a0000000000000000000000000000000000000000000000000000000008152600401610fbe9061474c565b60405180910390fd5b6000610fd16119a2565b905060008173ffffffffffffffffffffffffffffffffffffffff166370a08231306040518263ffffffff1660e01b815260040161100e91906143ea565b60206040518083038186803b15801561102657600080fd5b505afa15801561103a573d6000803e3d6000fd5b505050506040513d601f19601f8201168201806040525081019061105e91906136ee565b90506001600901548110158061107b57506000611079612428565b145b6110ba576040517f08c379a00000000000000000000000000000000000000000000000000000000081526004016110b19061468c565b60405180910390fd5b600180600c0160016101000a81548160ff02191690831515021790555060006110e1611ba5565b9050600060016010015490506000818373ffffffffffffffffffffffffffffffffffffffff166370a08231306040518263ffffffff1660e01b815260040161112991906143ea565b60206040518083038186803b15801561114157600080fd5b505afa158015611155573d6000803e3d6000fd5b505050506040513d601f19601f8201168201806040525081019061117991906136ee565b6111839190614bda565b905061118d612524565b611198338587612637565b60008111156111cd576111cc33828573ffffffffffffffffffffffffffffffffffffffff16611bd29092919063ffffffff16565b5b3373ffffffffffffffffffffffffffffffffffffffff167fc7ffb23c3f55c770b94ffcdbbe7d3b0520a2e76b9abe111f43c7c48cab999a6a600160040160009054906101000a900473ffffffffffffffffffffffffffffffffffffffff16868585426040516112409594939291906144e1565b60405180910390a25050505050565b606060018001805461126090614cdb565b80601f016020809104026020016040519081016040528092919081815260200182805461128c90614cdb565b80156112d95780601f106112ae576101008083540402835291602001916112d9565b820191906000526020600020905b8154815290600101906020018083116112bc57829003601f168201915b5050505050905090565b6001600c0160029054906101000a900460ff16611335576040517f08c379a000000000000000000000000000000000000000000000000000000000815260040161132c9061480c565b60405180910390fd5b61133e8161272b565b50565b611349612420565b73ffffffffffffffffffffffffffffffffffffffff166113676113c9565b73ffffffffffffffffffffffffffffffffffffffff16146113bd576040517f08c379a00000000000000000000000000000000000000000000000000000000081526004016113b49061470c565b60405180910390fd5b6113c760006129f1565b565b60008060009054906101000a900473ffffffffffffffffffffffffffffffffffffffff16905090565b6113fa612420565b73ffffffffffffffffffffffffffffffffffffffff166114186113c9565b73ffffffffffffffffffffffffffffffffffffffff161461146e576040517f08c379a00000000000000000000000000000000000000000000000000000000081526004016114659061470c565b60405180910390fd5b6015604051806040016040528083815260200142815250908060018154018082558091505060019003906000526020600020906002020160009091909190915060008201518160000190805190602001906114ca92919061341e565b5060208201518160010155505080600160120190805190602001906114f092919061341e565b507f39b28594242c42fce47a0a6e63bac12adbd07fbb35580f5a54b236858101d58a813342604051611524939291906145ae565b60405180910390a150565b6001600c0160019054906101000a900460ff1615611582576040517f08c379a00000000000000000000000000000000000000000000000000000000081526004016115799061474c565b60405180910390fd5b61158b3361272b565b565b611595612420565b73ffffffffffffffffffffffffffffffffffffffff166115b36113c9565b73ffffffffffffffffffffffffffffffffffffffff1614611609576040517f08c379a00000000000000000000000000000000000000000000000000000000081526004016116009061470c565b60405180910390fd5b6001600c0160029054906101000a900460ff161561165c576040517f08c379a0000000000000000000000000000000000000000000000000000000008152600401611653906147cc565b60405180910390fd5b6001600c0160019054906101000a900460ff16156116af576040517f08c379a00000000000000000000000000000000000000000000000000000000081526004016116a69061474c565b60405180910390fd5b600180600c0160026101000a81548160ff02191690831515021790555060006116d6611ba5565b73ffffffffffffffffffffffffffffffffffffffff166370a08231306040518263ffffffff1660e01b815260040161170e91906143ea565b60206040518083038186803b15801561172657600080fd5b505afa15801561173a573d6000803e3d6000fd5b505050506040513d601f19601f8201168201806040525081019061175e91906136ee565b9050600081111561179c5761179b3382611776611ba5565b73ffffffffffffffffffffffffffffffffffffffff16611bd29092919063ffffffff16565b5b3373ffffffffffffffffffffffffffffffffffffffff167faf1ae5c6fb3f0ce445b207ae00f52f0b564d8fe58282727032de5d199eaa7981600160040160009054906101000a900473ffffffffffffffffffffffffffffffffffffffff16834260405161180b93929190614465565b60405180910390a250565b60606015805480602002602001604051908101604052809291908181526020016000905b82821015611908578382906000526020600020906002020160405180604001604052908160008201805461186d90614cdb565b80601f016020809104026020016040519081016040528092919081815260200182805461189990614cdb565b80156118e65780601f106118bb576101008083540402835291602001916118e6565b820191906000526020600020905b8154815290600101906020018083116118c957829003601f168201915b505050505081526020016001820154815250508152602001906001019061183a565b50505050905090565b6000601860008373ffffffffffffffffffffffffffffffffffffffff1673ffffffffffffffffffffffffffffffffffffffff168152602001908152602001600020549050919050565b60006001600c0160009054906101000a900460ff16158061199b57506001600c0160009054906101000a900460ff16801561199a575061199982612ab5565b5b5b9050919050565b6000600160060160009054906101000a900473ffffffffffffffffffffffffffffffffffffffff16905090565b6000601760008373ffffffffffffffffffffffffffffffffffffffff1673ffffffffffffffffffffffffffffffffffffffff168152602001908152602001600020549050919050565b611a20612420565b73ffffffffffffffffffffffffffffffffffffffff16611a3e6113c9565b73ffffffffffffffffffffffffffffffffffffffff1614611a94576040517f08c379a0000000000000000000000000000000000000000000000000000000008152600401611a8b9061470c565b60405180910390fd5b600073ffffffffffffffffffffffffffffffffffffffff168173ffffffffffffffffffffffffffffffffffffffff161415611b04576040517f08c379a0000000000000000000000000000000000000000000000000000000008152600401611afb9061462c565b60405180910390fd5b611b0d816129f1565b50565b606060016000018054611b2290614cdb565b80601f0160208091040260200160405190810160405280929190818152602001828054611b4e90614cdb565b8015611b9b5780601f10611b7057610100808354040283529160200191611b9b565b820191906000526020600020905b815481529060010190602001808311611b7e57829003601f168201915b5050505050905090565b6000600160040160009054906101000a900473ffffffffffffffffffffffffffffffffffffffff16905090565b611c538363a9059cbb60e01b8484604051602401611bf192919061443c565b604051602081830303815290604052907bffffffffffffffffffffffffffffffffffffffffffffffffffffffff19166020820180517bffffffffffffffffffffffffffffffffffffffffffffffffffffffff8381831617835250505050612b6c565b505050565b6001600c0160029054906101000a900460ff1615611cab576040517f08c379a0000000000000000000000000000000000000000000000000000000008152600401611ca2906147cc565b60405180910390fd5b6001600c0160019054906101000a900460ff1615611cfe576040517f08c379a0000000000000000000000000000000000000000000000000000000008152600401611cf59061474c565b60405180910390fd5b81611d088161195a565b611d47576040517f08c379a0000000000000000000000000000000000000000000000000000000008152600401611d3e9061472c565b60405180910390fd5b60008211611d8a576040517f08c379a0000000000000000000000000000000000000000000000000000000008152600401611d819061478c565b60405180910390fd5b6000611d94611ba5565b73ffffffffffffffffffffffffffffffffffffffff166370a08231306040518263ffffffff1660e01b8152600401611dcc91906143ea565b60206040518083038186803b158015611de457600080fd5b505afa158015611df8573d6000803e3d6000fd5b505050506040513d601f19601f82011682018060405250810190611e1c91906136ee565b9050600160090154611e9282600160070154600160080160009054906101000a900460ff16600160040160009054906101000a900473ffffffffffffffffffffffffffffffffffffffff16600160060160009054906101000a900473ffffffffffffffffffffffffffffffffffffffff16612c33565b1015611ed3576040517f08c379a0000000000000000000000000000000000000000000000000000000008152600401611eca906146ec565b60405180910390fd5b60006001600d015482611ee69190614bda565b90506000611f5885600160070154600160080160009054906101000a900460ff16600160040160009054906101000a900473ffffffffffffffffffffffffffffffffffffffff16600160060160009054906101000a900473ffffffffffffffffffffffffffffffffffffffff16612c89565b90506000611fca82600160070154600160080160009054906101000a900460ff16600160040160009054906101000a900473ffffffffffffffffffffffffffffffffffffffff16600160060160009054906101000a900473ffffffffffffffffffffffffffffffffffffffff16612c33565b9050600082118015611fdc5750600081115b61201b576040517f08c379a0000000000000000000000000000000000000000000000000000000008152600401612012906146ac565b60405180910390fd5b8183101561205e576040517f08c379a0000000000000000000000000000000000000000000000000000000008152600401612055906146cc565b60405180910390fd5b6000612118601660008a73ffffffffffffffffffffffffffffffffffffffff1673ffffffffffffffffffffffffffffffffffffffff16815260200190815260200160002054846120ae9190614988565b600160070154600160080160009054906101000a900460ff16600160040160009054906101000a900473ffffffffffffffffffffffffffffffffffffffff16600160060160009054906101000a900473ffffffffffffffffffffffffffffffffffffffff16612c33565b905061212384612cdf565b811015612165576040517f08c379a000000000000000000000000000000000000000000000000000000000815260040161215c906146ac565b60405180910390fd5b6001600b01548111156121ad576040517f08c379a00000000000000000000000000000000000000000000000000000000081526004016121a49061460c565b60405180910390fd5b6121e18930846121bb6119a2565b73ffffffffffffffffffffffffffffffffffffffff16612d73909392919063ffffffff16565b6000601660008a73ffffffffffffffffffffffffffffffffffffffff1673ffffffffffffffffffffffffffffffffffffffff16815260200190815260200160002054141561224657600180600e01600082825461223e9190614988565b925050819055505b82601660008a73ffffffffffffffffffffffffffffffffffffffff1673ffffffffffffffffffffffffffffffffffffffff16815260200190815260200160002060008282546122959190614988565b9250508190555081601760008a73ffffffffffffffffffffffffffffffffffffffff1673ffffffffffffffffffffffffffffffffffffffff16815260200190815260200160002060008282546122eb9190614988565b9250508190555082601860008a73ffffffffffffffffffffffffffffffffffffffff1673ffffffffffffffffffffffffffffffffffffffff16815260200190815260200160002060008282546123419190614988565b92505081905550826001600d01600082825461235d9190614988565b9250508190555082600160100160008282546123799190614988565b92505081905550816001600f0160008282546123959190614988565b925050819055508773ffffffffffffffffffffffffffffffffffffffff167ff29b7b9c9bc4f1c24045a5a10b8bb59a7318d7a1e2e46af68bd5560dfce0e044600160040160009054906101000a900473ffffffffffffffffffffffffffffffffffffffff1685854260405161240d949392919061449c565b60405180910390a2505050505050505050565b600033905090565b6000806124ae6001600f01546001600901546124449190614bda565b600160070154600160080160009054906101000a900460ff16600160040160009054906101000a900473ffffffffffffffffffffffffffffffffffffffff16600160060160009054906101000a900473ffffffffffffffffffffffffffffffffffffffff16612c89565b905061251e81600160070154600160080160009054906101000a900460ff16600160040160009054906101000a900473ffffffffffffffffffffffffffffffffffffffff16600160060160009054906101000a900473ffffffffffffffffffffffffffffffffffffffff16612c33565b91505090565b600160040160009054906101000a900473ffffffffffffffffffffffffffffffffffffffff1673ffffffffffffffffffffffffffffffffffffffff166040516024016040516020818303038152906040527f58a687ec000000000000000000000000000000000000000000000000000000007bffffffffffffffffffffffffffffffffffffffffffffffffffffffff19166020820180517bffffffffffffffffffffffffffffffffffffffffffffffffffffffff83818316178352505050506040516125f091906143d3565b6000604051808303816000865af19150503d806000811461262d576040519150601f19603f3d011682016040523d82523d6000602084013e612632565b606091505b505050565b60008211156127265760008061264b612dfc565b9150915060008111801561268c5750600073ffffffffffffffffffffffffffffffffffffffff168273ffffffffffffffffffffffffffffffffffffffff1614155b156126f7576126bc82828573ffffffffffffffffffffffffffffffffffffffff16611bd29092919063ffffffff16565b6126f28582866126cc9190614bda565b8573ffffffffffffffffffffffffffffffffffffffff16611bd29092919063ffffffff16565b612723565b61272285858573ffffffffffffffffffffffffffffffffffffffff16611bd29092919063ffffffff16565b5b50505b505050565b6000601660008373ffffffffffffffffffffffffffffffffffffffff1673ffffffffffffffffffffffffffffffffffffffff1681526020019081526020016000205490506000601760008473ffffffffffffffffffffffffffffffffffffffff1673ffffffffffffffffffffffffffffffffffffffff1681526020019081526020016000205490506000821180156127c35750600081115b612802576040517f08c379a00000000000000000000000000000000000000000000000000000000081526004016127f9906145ec565b60405180910390fd5b600180600e0160008282546128179190614bda565b925050819055506000601660008573ffffffffffffffffffffffffffffffffffffffff1673ffffffffffffffffffffffffffffffffffffffff168152602001908152602001600020819055506000601760008573ffffffffffffffffffffffffffffffffffffffff1673ffffffffffffffffffffffffffffffffffffffff168152602001908152602001600020819055506000601860008573ffffffffffffffffffffffffffffffffffffffff1673ffffffffffffffffffffffffffffffffffffffff16815260200190815260200160002081905550816001600d0160008282546129029190614bda565b92505081905550816001601001600082825461291e9190614bda565b92505081905550806001600f01600082825461293a9190614bda565b92505081905550612973838261294e6119a2565b73ffffffffffffffffffffffffffffffffffffffff16611bd29092919063ffffffff16565b8273ffffffffffffffffffffffffffffffffffffffff167f211dda46c5b3693e6a4dae7489d6a6738cf8a0104ce5b5ddbb477496a796e3ba600160040160009054906101000a900473ffffffffffffffffffffffffffffffffffffffff168484426040516129e4949392919061449c565b60405180910390a2505050565b60008060009054906101000a900473ffffffffffffffffffffffffffffffffffffffff169050816000806101000a81548173ffffffffffffffffffffffffffffffffffffffff021916908373ffffffffffffffffffffffffffffffffffffffff1602179055508173ffffffffffffffffffffffffffffffffffffffff168173ffffffffffffffffffffffffffffffffffffffff167f8be0079c531659141344cd1fd0a4f28419497f9722a3daafe3b4186f6b6457e060405160405180910390a35050565b6000600160050160009054906101000a900473ffffffffffffffffffffffffffffffffffffffff1673ffffffffffffffffffffffffffffffffffffffff16633657e851836040518263ffffffff1660e01b8152600401612b1591906143ea565b60206040518083038186803b158015612b2d57600080fd5b505afa158015612b41573d6000803e3d6000fd5b505050506040513d601f19601f82011682018060405250810190612b65919061365b565b9050919050565b6000612bce826040518060400160405280602081526020017f5361666545524332303a206c6f772d6c6576656c2063616c6c206661696c65648152508573ffffffffffffffffffffffffffffffffffffffff16612f539092919063ffffffff16565b9050600081511115612c2e5780806020019051810190612bee919061365b565b612c2d576040517f08c379a0000000000000000000000000000000000000000000000000000000008152600401612c24906147ec565b60405180910390fd5b5b505050565b6000612c3e83612f6b565b84600a612c4b9190614a62565b612c5484612ffe565b8789612c609190614b80565b612c6a9190614b80565b612c7491906149de565b612c7e91906149de565b905095945050505050565b6000612c9482612ffe565b85612c9e85612f6b565b86600a612cab9190614a62565b89612cb69190614b80565b612cc09190614b80565b612cca91906149de565b612cd491906149de565b905095945050505050565b600080612d5083600160070154600160080160009054906101000a900460ff16600160040160009054906101000a900473ffffffffffffffffffffffffffffffffffffffff16600160060160009054906101000a900473ffffffffffffffffffffffffffffffffffffffff16612c33565b90506001600a01548110612d69576001600a0154612d6b565b805b915050919050565b612df6846323b872dd60e01b858585604051602401612d9493929190614405565b604051602081830303815290604052907bffffffffffffffffffffffffffffffffffffffffffffffffffffffff19166020820180517bffffffffffffffffffffffffffffffffffffffffffffffffffffffff8381831617835250505050612b6c565b50505050565b600080600080600160130160009054906101000a900473ffffffffffffffffffffffffffffffffffffffff1673ffffffffffffffffffffffffffffffffffffffff1630604051602401612e4f91906143ea565b6040516020818303038152906040527f465f5eb8000000000000000000000000000000000000000000000000000000007bffffffffffffffffffffffffffffffffffffffffffffffffffffffff19166020820180517bffffffffffffffffffffffffffffffffffffffffffffffffffffffff8381831617835250505050604051612ed991906143d3565b6000604051808303816000865af19150503d8060008114612f16576040519150601f19603f3d011682016040523d82523d6000602084013e612f1b565b606091505b50915091508115612f455780806020019051810190612f3a91906135d0565b935093505050612f4f565b6000809350935050505b9091565b6060612f628484600085613091565b90509392505050565b60008173ffffffffffffffffffffffffffffffffffffffff1663313ce5676040518163ffffffff1660e01b815260040160206040518083038186803b158015612fb357600080fd5b505afa158015612fc7573d6000803e3d6000fd5b505050506040513d601f19601f82011682018060405250810190612feb9190613717565b600a612ff79190614a62565b9050919050565b60008173ffffffffffffffffffffffffffffffffffffffff1663313ce5676040518163ffffffff1660e01b815260040160206040518083038186803b15801561304657600080fd5b505afa15801561305a573d6000803e3d6000fd5b505050506040513d601f19601f8201168201806040525081019061307e9190613717565b600a61308a9190614a62565b9050919050565b6060824710156130d6576040517f08c379a00000000000000000000000000000000000000000000000000000000081526004016130cd9061466c565b60405180910390fd5b6130df856131a5565b61311e576040517f08c379a00000000000000000000000000000000000000000000000000000000081526004016131159061476c565b60405180910390fd5b6000808673ffffffffffffffffffffffffffffffffffffffff16858760405161314791906143d3565b60006040518083038185875af1925050503d8060008114613184576040519150601f19603f3d011682016040523d82523d6000602084013e613189565b606091505b50915091506131998282866131b8565b92505050949350505050565b600080823b905060008111915050919050565b606083156131c857829050613218565b6000835111156131db5782518084602001fd5b816040517f08c379a000000000000000000000000000000000000000000000000000000000815260040161320f919061458c565b60405180910390fd5b9392505050565b604051806101c001604052806060815260200160608152602001600073ffffffffffffffffffffffffffffffffffffffff168152602001600073ffffffffffffffffffffffffffffffffffffffff16815260200160608152602001600073ffffffffffffffffffffffffffffffffffffffff168152602001600073ffffffffffffffffffffffffffffffffffffffff1681526020016000815260200160001515815260200160001515815260200160008152602001600060ff16815260200160008152602001600081525090565b604051806102c001604052806060815260200160608152602001600073ffffffffffffffffffffffffffffffffffffffff168152602001600073ffffffffffffffffffffffffffffffffffffffff168152602001600073ffffffffffffffffffffffffffffffffffffffff168152602001600073ffffffffffffffffffffffffffffffffffffffff168152602001600073ffffffffffffffffffffffffffffffffffffffff1681526020016000815260200160008152602001600081526020016000815260200160001515815260200160001515815260200160001515815260200160008152602001600081526020016000815260200160008152602001600081526020016000815260200160608152602001600073ffffffffffffffffffffffffffffffffffffffff1681525090565b82805461342a90614cdb565b90600052602060002090601f01602090048101928261344c5760008555613493565b82601f1061346557805160ff1916838001178555613493565b82800160010185558215613493579182015b82811115613492578251825591602001919060010190613477565b5b5090506134a091906134a4565b5090565b5b808211156134bd5760008160009055506001016134a5565b5090565b60006134d46134cf846148dc565b6148ab565b9050828152602081018484840111156134ec57600080fd5b6134f7848285614c99565b509392505050565b60008135905061350e81614de7565b92915050565b60008151905061352381614dfe565b92915050565b60008151905061353881614e15565b92915050565b600082601f83011261354f57600080fd5b813561355f8482602086016134c1565b91505092915050565b60008135905061357781614e2c565b92915050565b60008151905061358c81614e2c565b92915050565b6000815190506135a181614e43565b92915050565b6000602082840312156135b957600080fd5b60006135c7848285016134ff565b91505092915050565b600080604083850312156135e357600080fd5b60006135f185828601613514565b92505060206136028582860161357d565b9150509250929050565b60008060006060848603121561362157600080fd5b600061362f868287016134ff565b9350506020613640868287016134ff565b925050604061365186828701613568565b9150509250925092565b60006020828403121561366d57600080fd5b600061367b84828501613529565b91505092915050565b60006020828403121561369657600080fd5b600082013567ffffffffffffffff8111156136b057600080fd5b6136bc8482850161353e565b91505092915050565b6000602082840312156136d757600080fd5b60006136e584828501613568565b91505092915050565b60006020828403121561370057600080fd5b600061370e8482850161357d565b91505092915050565b60006020828403121561372957600080fd5b600061373784828501613592565b91505092915050565b600061374c8383614369565b905092915050565b61375d81614c0e565b82525050565b61376c81614c0e565b82525050565b600061377d8261491c565b613787818561494a565b9350836020820285016137998561490c565b8060005b858110156137d557848403895281516137b68582613740565b94506137c18361493d565b925060208a0199505060018101905061379d565b50829750879550505050505092915050565b6137f081614c32565b82525050565b6137ff81614c32565b82525050565b600061381082614927565b61381a818561495b565b935061382a818560208601614ca8565b80840191505092915050565b61383f81614c75565b82525050565b600061385082614932565b61385a8185614966565b935061386a818560208601614ca8565b61387381614dc9565b840191505092915050565b600061388982614932565b6138938185614977565b93506138a3818560208601614ca8565b6138ac81614dc9565b840191505092915050565b60006138c4601c83614977565b91507f4143664d616e616765723a204e6f20746f6b656e73206f776e65642e000000006000830152602082019050919050565b6000613904602783614977565b91507f4143664d616e616765723a20496e766573746d656e7420616d6f756e7420746f60008301527f6f20686967682e000000000000000000000000000000000000000000000000006020830152604082019050919050565b600061396a602683614977565b91507f4f776e61626c653a206e6577206f776e657220697320746865207a65726f206160008301527f64647265737300000000000000000000000000000000000000000000000000006020830152604082019050919050565b60006139d0604b83614977565b91507f4143664d616e616765723a204f6e6c79207370656e6465722063616e2064656360008301527f69646520746f20626f6f6b2074686520696e766573746d656e74206f6e20736f60208301527f6d656f6e6520656c73652e0000000000000000000000000000000000000000006040830152606082019050919050565b6000613a5c602683614977565b91507f416464726573733a20696e73756666696369656e742062616c616e636520666f60008301527f722063616c6c00000000000000000000000000000000000000000000000000006020830152604082019050919050565b6000613ac2605483614977565b91507f4143664d616e616765723a2043616e206f6e6c792066696e616c697a6520636160008301527f6d706169676e20696620746865206d696e696d756d2066756e64696e6720676f60208301527f616c20686173206265656e20726561636865642e0000000000000000000000006040830152606082019050919050565b6000613b4e602683614977565b91507f4143664d616e616765723a20496e766573746d656e7420616d6f756e7420746f60008301527f6f206c6f772e00000000000000000000000000000000000000000000000000006020830152604082019050919050565b6000613bb4603e83614977565b91507f4143664d616e616765723a204e6f7420656e6f75676820746f6b656e73206c6560008301527f667420666f72207468697320696e766573746d656e7420616d6f756e742e00006020830152604082019050919050565b6000613c1a603c83614977565b91507f4143664d616e616765723a206e6f7420656e6f75676820746f6b656e7320666f60008301527f722073616c6520746f2072656163682074686520736f66746361702e000000006020830152604082019050919050565b6000613c80602083614977565b91507f4f776e61626c653a2063616c6c6572206973206e6f7420746865206f776e65726000830152602082019050919050565b6000613cc0602383614977565b91507f4143664d616e616765723a2057616c6c6574206e6f742077686974656c69737460008301527f65642e00000000000000000000000000000000000000000000000000000000006020830152604082019050919050565b6000613d26602683614977565b91507f4143664d616e616765723a205468652063616d706169676e2069732066696e6160008301527f6c697a65642e00000000000000000000000000000000000000000000000000006020830152604082019050919050565b6000613d8c601d83614977565b91507f416464726573733a2063616c6c20746f206e6f6e2d636f6e74726163740000006000830152602082019050919050565b6000613dcc603783614977565b91507f4143664d616e616765723a20496e766573746d656e7420616d6f756e7420686160008301527f7320746f2062652067726561746572207468616e20302e0000000000000000006020830152604082019050919050565b6000613e32602283614977565b91507f43664d616e61676572536f66746361703a204e6f20746f6b656e73206f776e6560008301527f642e0000000000000000000000000000000000000000000000000000000000006020830152604082019050919050565b6000613e98602b83614977565b91507f4143664d616e616765723a205468652063616d706169676e206861732062656560008301527f6e2063616e63656c65642e0000000000000000000000000000000000000000006020830152604082019050919050565b6000613efe602a83614977565b91507f5361666545524332303a204552433230206f7065726174696f6e20646964206e60008301527f6f742073756363656564000000000000000000000000000000000000000000006020830152604082019050919050565b6000613f64604a83614977565b91507f4143664d616e616765723a2043616e206f6e6c792063616e63656c20666f722060008301527f736f6d656f6e65206966207468652063616d706169676e20686173206265656e60208301527f2063616e63656c65642e000000000000000000000000000000000000000000006040830152606082019050919050565b6000613ff0602a83614977565b91507f4143664d616e616765723a205468652063616d706169676e206973206e6f742060008301527f66696e616c697a65642e000000000000000000000000000000000000000000006020830152604082019050919050565b60006101c08301600083015184820360008601526140678282613845565b915050602083015184820360208601526140818282613845565b91505060408301516140966040860182613754565b5060608301516140a96060860182613754565b50608083015184820360808601526140c18282613845565b91505060a08301516140d660a0860182613754565b5060c08301516140e960c0860182613754565b5060e08301516140fc60e08601826143a6565b506101008301516141116101008601826137e7565b506101208301516141266101208601826137e7565b5061014083015161413b6101408601826143a6565b506101608301516141506101608601826143c4565b506101808301516141656101808601826143a6565b506101a083015161417a6101a08601826143a6565b508091505092915050565b60006102c08301600083015184820360008601526141a38282613845565b915050602083015184820360208601526141bd8282613845565b91505060408301516141d26040860182613754565b5060608301516141e56060860182613754565b5060808301516141f86080860182613754565b5060a083015161420b60a0860182613754565b5060c083015161421e60c0860182613754565b5060e083015161423160e08601826143a6565b506101008301516142466101008601826143a6565b5061012083015161425b6101208601826143a6565b506101408301516142706101408601826143a6565b506101608301516142856101608601826137e7565b5061018083015161429a6101808601826137e7565b506101a08301516142af6101a08601826137e7565b506101c08301516142c46101c08601826143a6565b506101e08301516142d96101e08601826143a6565b506102008301516142ee6102008601826143a6565b506102208301516143036102208601826143a6565b506102408301516143186102408601826143a6565b5061026083015161432d6102608601826143a6565b506102808301518482036102808601526143478282613845565b9150506102a083015161435e6102a0860182613754565b508091505092915050565b600060408301600083015184820360008601526143868282613845565b915050602083015161439b60208601826143a6565b508091505092915050565b6143af81614c5e565b82525050565b6143be81614c5e565b82525050565b6143cd81614c68565b82525050565b60006143df8284613805565b915081905092915050565b60006020820190506143ff6000830184613763565b92915050565b600060608201905061441a6000830186613763565b6144276020830185613763565b61443460408301846143b5565b949350505050565b60006040820190506144516000830185613763565b61445e60208301846143b5565b9392505050565b600060608201905061447a6000830186613763565b61448760208301856143b5565b61449460408301846143b5565b949350505050565b60006080820190506144b16000830187613763565b6144be60208301866143b5565b6144cb60408301856143b5565b6144d860608301846143b5565b95945050505050565b600060a0820190506144f66000830188613763565b61450360208301876143b5565b61451060408301866143b5565b61451d60608301856143b5565b61452a60808301846143b5565b9695505050505050565b6000602082019050818103600083015261454e8184613772565b905092915050565b600060208201905061456b60008301846137f6565b92915050565b60006020820190506145866000830184613836565b92915050565b600060208201905081810360008301526145a6818461387e565b905092915050565b600060608201905081810360008301526145c8818661387e565b90506145d76020830185613763565b6145e460408301846143b5565b949350505050565b60006020820190508181036000830152614605816138b7565b9050919050565b60006020820190508181036000830152614625816138f7565b9050919050565b600060208201905081810360008301526146458161395d565b9050919050565b60006020820190508181036000830152614665816139c3565b9050919050565b6000602082019050818103600083015261468581613a4f565b9050919050565b600060208201905081810360008301526146a581613ab5565b9050919050565b600060208201905081810360008301526146c581613b41565b9050919050565b600060208201905081810360008301526146e581613ba7565b9050919050565b6000602082019050818103600083015261470581613c0d565b9050919050565b6000602082019050818103600083015261472581613c73565b9050919050565b6000602082019050818103600083015261474581613cb3565b9050919050565b6000602082019050818103600083015261476581613d19565b9050919050565b6000602082019050818103600083015261478581613d7f565b9050919050565b600060208201905081810360008301526147a581613dbf565b9050919050565b600060208201905081810360008301526147c581613e25565b9050919050565b600060208201905081810360008301526147e581613e8b565b9050919050565b6000602082019050818103600083015261480581613ef1565b9050919050565b6000602082019050818103600083015261482581613f57565b9050919050565b6000602082019050818103600083015261484581613fe3565b9050919050565b600060208201905081810360008301526148668184614049565b905092915050565b600060208201905081810360008301526148888184614185565b905092915050565b60006020820190506148a560008301846143b5565b92915050565b6000604051905081810181811067ffffffffffffffff821117156148d2576148d1614d9a565b5b8060405250919050565b600067ffffffffffffffff8211156148f7576148f6614d9a565b5b601f19601f8301169050602081019050919050565b6000819050602082019050919050565b600081519050919050565b600081519050919050565b600081519050919050565b6000602082019050919050565b600082825260208201905092915050565b600081905092915050565b600082825260208201905092915050565b600082825260208201905092915050565b600061499382614c5e565b915061499e83614c5e565b9250827fffffffffffffffffffffffffffffffffffffffffffffffffffffffffffffffff038211156149d3576149d2614d0d565b5b828201905092915050565b60006149e982614c5e565b91506149f483614c5e565b925082614a0457614a03614d3c565b5b828204905092915050565b6000808291508390505b6001851115614a5957808604811115614a3557614a34614d0d565b5b6001851615614a445780820291505b8081029050614a5285614dda565b9450614a19565b94509492505050565b6000614a6d82614c5e565b9150614a7883614c68565b9250614aa57fffffffffffffffffffffffffffffffffffffffffffffffffffffffffffffffff8484614aad565b905092915050565b600082614abd5760019050614b79565b81614acb5760009050614b79565b8160018114614ae15760028114614aeb57614b1a565b6001915050614b79565b60ff841115614afd57614afc614d0d565b5b8360020a915084821115614b1457614b13614d0d565b5b50614b79565b5060208310610133831016604e8410600b8410161715614b4f5782820a905083811115614b4a57614b49614d0d565b5b614b79565b614b5c8484846001614a0f565b92509050818404811115614b7357614b72614d0d565b5b81810290505b9392505050565b6000614b8b82614c5e565b9150614b9683614c5e565b9250817fffffffffffffffffffffffffffffffffffffffffffffffffffffffffffffffff0483118215151615614bcf57614bce614d0d565b5b828202905092915050565b6000614be582614c5e565b9150614bf083614c5e565b925082821015614c0357614c02614d0d565b5b828203905092915050565b6000614c1982614c3e565b9050919050565b6000614c2b82614c3e565b9050919050565b60008115159050919050565b600073ffffffffffffffffffffffffffffffffffffffff82169050919050565b6000819050919050565b600060ff82169050919050565b6000614c8082614c87565b9050919050565b6000614c9282614c3e565b9050919050565b82818337600083830152505050565b60005b83811015614cc6578082015181840152602081019050614cab565b83811115614cd5576000848401525b50505050565b60006002820490506001821680614cf357607f821691505b60208210811415614d0757614d06614d6b565b5b50919050565b7f4e487b7100000000000000000000000000000000000000000000000000000000600052601160045260246000fd5b7f4e487b7100000000000000000000000000000000000000000000000000000000600052601260045260246000fd5b7f4e487b7100000000000000000000000000000000000000000000000000000000600052602260045260246000fd5b7f4e487b7100000000000000000000000000000000000000000000000000000000600052604160045260246000fd5b6000601f19601f8301169050919050565b60008160011c9050919050565b614df081614c0e565b8114614dfb57600080fd5b50565b614e0781614c20565b8114614e1257600080fd5b50565b614e1e81614c32565b8114614e2957600080fd5b50565b614e3581614c5e565b8114614e4057600080fd5b50565b614e4c81614c68565b8114614e5757600080fd5b5056fea26469706673582212203601c4e6a1a13441dcc800e408ed547ff4c47ff287acbd183bc674fa3661f33e64736f6c63430008000033",
  "linkReferences": {},
  "deployedLinkReferences": {}
}