{
  "_format": "hh-sol-artifact-1",
  "contractName": "CfManagerSoftcap",
  "sourceName": "contracts/dev3/cfmanager-softcap/CfManagerSoftcap.sol",
  "abi": [
    {
      "inputs": [
        {
          "components": [
            {
              "internalType": "address",
              "name": "owner",
              "type": "address"
            },
            {
              "internalType": "address",
              "name": "asset",
              "type": "address"
            },
            {
              "internalType": "address",
              "name": "issuer",
              "type": "address"
            },
            {
              "internalType": "address",
              "name": "paymentToken",
              "type": "address"
            },
            {
              "internalType": "uint256",
              "name": "tokenPrice",
              "type": "uint256"
            },
            {
              "internalType": "uint8",
              "name": "tokenPriceDecimals",
              "type": "uint8"
            },
            {
              "internalType": "uint256",
              "name": "softCap",
              "type": "uint256"
            },
            {
              "internalType": "uint256",
              "name": "minInvestment",
              "type": "uint256"
            },
            {
              "internalType": "uint256",
              "name": "maxInvestment",
              "type": "uint256"
            },
            {
              "internalType": "bool",
              "name": "whitelistRequired",
              "type": "bool"
            },
            {
              "internalType": "string",
              "name": "info",
              "type": "string"
            },
            {
              "internalType": "address",
              "name": "feeManager",
              "type": "address"
            }
          ],
          "internalType": "struct Structs.CampaignConstructor",
          "name": "params",
          "type": "tuple"
        }
      ],
      "stateMutability": "nonpayable",
      "type": "constructor"
    },
    {
      "anonymous": false,
      "inputs": [
        {
          "indexed": true,
          "internalType": "address",
          "name": "owner",
          "type": "address"
        },
        {
          "indexed": false,
          "internalType": "address",
          "name": "asset",
          "type": "address"
        },
        {
          "indexed": false,
          "internalType": "uint256",
          "name": "tokensReturned",
          "type": "uint256"
        },
        {
          "indexed": false,
          "internalType": "uint256",
          "name": "timestamp",
          "type": "uint256"
        }
      ],
      "name": "CancelCampaign",
      "type": "event"
    },
    {
      "anonymous": false,
      "inputs": [
        {
          "indexed": true,
          "internalType": "address",
          "name": "investor",
          "type": "address"
        },
        {
          "indexed": false,
          "internalType": "address",
          "name": "asset",
          "type": "address"
        },
        {
          "indexed": false,
          "internalType": "uint256",
          "name": "tokenAmount",
          "type": "uint256"
        },
        {
          "indexed": false,
          "internalType": "uint256",
          "name": "tokenValue",
          "type": "uint256"
        },
        {
          "indexed": false,
          "internalType": "uint256",
          "name": "timestamp",
          "type": "uint256"
        }
      ],
      "name": "CancelInvestment",
      "type": "event"
    },
    {
      "anonymous": false,
      "inputs": [
        {
          "indexed": false,
          "internalType": "address",
          "name": "caller",
          "type": "address"
        },
        {
          "indexed": false,
          "internalType": "address",
          "name": "newOwner",
          "type": "address"
        },
        {
          "indexed": false,
          "internalType": "uint256",
          "name": "timestamp",
          "type": "uint256"
        }
      ],
      "name": "ChangeOwnership",
      "type": "event"
    },
    {
      "anonymous": false,
      "inputs": [
        {
          "indexed": true,
          "internalType": "address",
          "name": "investor",
          "type": "address"
        },
        {
          "indexed": false,
          "internalType": "address",
          "name": "asset",
          "type": "address"
        },
        {
          "indexed": false,
          "internalType": "uint256",
          "name": "tokenAmount",
          "type": "uint256"
        },
        {
          "indexed": false,
          "internalType": "uint256",
          "name": "tokenValue",
          "type": "uint256"
        },
        {
          "indexed": false,
          "internalType": "uint256",
          "name": "timestamp",
          "type": "uint256"
        }
      ],
      "name": "Claim",
      "type": "event"
    },
    {
      "anonymous": false,
      "inputs": [
        {
          "indexed": true,
          "internalType": "address",
          "name": "owner",
          "type": "address"
        },
        {
          "indexed": false,
          "internalType": "address",
          "name": "asset",
          "type": "address"
        },
        {
          "indexed": false,
          "internalType": "uint256",
          "name": "fundsRaised",
          "type": "uint256"
        },
        {
          "indexed": false,
          "internalType": "uint256",
          "name": "tokensSold",
          "type": "uint256"
        },
        {
          "indexed": false,
          "internalType": "uint256",
          "name": "tokensRefund",
          "type": "uint256"
        },
        {
          "indexed": false,
          "internalType": "uint256",
          "name": "timestamp",
          "type": "uint256"
        }
      ],
      "name": "Finalize",
      "type": "event"
    },
    {
      "anonymous": false,
      "inputs": [
        {
          "indexed": true,
          "internalType": "address",
          "name": "investor",
          "type": "address"
        },
        {
          "indexed": false,
          "internalType": "address",
          "name": "asset",
          "type": "address"
        },
        {
          "indexed": false,
          "internalType": "uint256",
          "name": "tokenAmount",
          "type": "uint256"
        },
        {
          "indexed": false,
          "internalType": "uint256",
          "name": "tokenValue",
          "type": "uint256"
        },
        {
          "indexed": false,
          "internalType": "uint256",
          "name": "timestamp",
          "type": "uint256"
        }
      ],
      "name": "Invest",
      "type": "event"
    },
    {
      "anonymous": false,
      "inputs": [
        {
          "indexed": false,
          "internalType": "string",
          "name": "info",
          "type": "string"
        },
        {
          "indexed": false,
          "internalType": "address",
          "name": "setter",
          "type": "address"
        },
        {
          "indexed": false,
          "internalType": "uint256",
          "name": "timestamp",
          "type": "uint256"
        }
      ],
      "name": "SetInfo",
      "type": "event"
    },
    {
      "inputs": [],
      "name": "cancelCampaign",
      "outputs": [],
      "stateMutability": "nonpayable",
      "type": "function"
    },
    {
      "inputs": [],
      "name": "cancelInvestment",
      "outputs": [],
      "stateMutability": "nonpayable",
      "type": "function"
    },
    {
      "inputs": [
        {
          "internalType": "address",
          "name": "investor",
          "type": "address"
        }
      ],
      "name": "cancelInvestmentFor",
      "outputs": [],
      "stateMutability": "nonpayable",
      "type": "function"
    },
    {
      "inputs": [
        {
          "internalType": "address",
          "name": "newOwner",
          "type": "address"
        }
      ],
      "name": "changeOwnership",
      "outputs": [],
      "stateMutability": "nonpayable",
      "type": "function"
    },
    {
      "inputs": [
        {
          "internalType": "address",
          "name": "investor",
          "type": "address"
        }
      ],
      "name": "claim",
      "outputs": [],
      "stateMutability": "nonpayable",
      "type": "function"
    },
    {
      "inputs": [
        {
          "internalType": "address",
          "name": "investor",
          "type": "address"
        }
      ],
      "name": "claimedAmount",
      "outputs": [
        {
          "internalType": "uint256",
          "name": "",
          "type": "uint256"
        }
      ],
      "stateMutability": "view",
      "type": "function"
    },
    {
      "inputs": [],
      "name": "commonState",
      "outputs": [
        {
          "components": [
            {
              "internalType": "string",
              "name": "flavor",
              "type": "string"
            },
            {
              "internalType": "string",
              "name": "version",
              "type": "string"
            },
            {
              "internalType": "address",
              "name": "contractAddress",
              "type": "address"
            },
            {
              "internalType": "address",
              "name": "owner",
              "type": "address"
            },
            {
              "internalType": "string",
              "name": "info",
              "type": "string"
            },
            {
              "internalType": "address",
              "name": "asset",
              "type": "address"
            },
            {
              "internalType": "address",
              "name": "stablecoin",
              "type": "address"
            },
            {
              "internalType": "uint256",
              "name": "softCap",
              "type": "uint256"
            },
            {
              "internalType": "bool",
              "name": "finalized",
              "type": "bool"
            },
            {
              "internalType": "bool",
              "name": "canceled",
              "type": "bool"
            },
            {
              "internalType": "uint256",
              "name": "pricePerToken",
              "type": "uint256"
            },
            {
              "internalType": "uint8",
              "name": "tokenPriceDecimals",
              "type": "uint8"
            },
            {
              "internalType": "uint256",
              "name": "fundsRaised",
              "type": "uint256"
            },
            {
              "internalType": "uint256",
              "name": "tokensSold",
              "type": "uint256"
            }
          ],
          "internalType": "struct Structs.CampaignCommonState",
          "name": "",
          "type": "tuple"
        }
      ],
      "stateMutability": "view",
      "type": "function"
    },
    {
      "inputs": [],
      "name": "finalize",
      "outputs": [],
      "stateMutability": "nonpayable",
      "type": "function"
    },
    {
      "inputs": [],
      "name": "flavor",
      "outputs": [
        {
          "internalType": "string",
          "name": "",
          "type": "string"
        }
      ],
      "stateMutability": "view",
      "type": "function"
    },
    {
      "inputs": [],
      "name": "getInfoHistory",
      "outputs": [
        {
          "components": [
            {
              "internalType": "string",
              "name": "info",
              "type": "string"
            },
            {
              "internalType": "uint256",
              "name": "timestamp",
              "type": "uint256"
            }
          ],
          "internalType": "struct Structs.InfoEntry[]",
          "name": "",
          "type": "tuple[]"
        }
      ],
      "stateMutability": "view",
      "type": "function"
    },
    {
      "inputs": [],
      "name": "getState",
      "outputs": [
        {
          "components": [
            {
              "internalType": "string",
              "name": "flavor",
              "type": "string"
            },
            {
              "internalType": "string",
              "name": "version",
              "type": "string"
            },
            {
              "internalType": "address",
              "name": "contractAddress",
              "type": "address"
            },
            {
              "internalType": "address",
              "name": "owner",
              "type": "address"
            },
            {
              "internalType": "address",
              "name": "asset",
              "type": "address"
            },
            {
              "internalType": "address",
              "name": "issuer",
              "type": "address"
            },
            {
              "internalType": "address",
              "name": "stablecoin",
              "type": "address"
            },
            {
              "internalType": "uint256",
              "name": "tokenPrice",
              "type": "uint256"
            },
            {
              "internalType": "uint256",
              "name": "softCap",
              "type": "uint256"
            },
            {
              "internalType": "uint256",
              "name": "minInvestment",
              "type": "uint256"
            },
            {
              "internalType": "uint256",
              "name": "maxInvestment",
              "type": "uint256"
            },
            {
              "internalType": "bool",
              "name": "whitelistRequired",
              "type": "bool"
            },
            {
              "internalType": "bool",
              "name": "finalized",
              "type": "bool"
            },
            {
              "internalType": "bool",
              "name": "canceled",
              "type": "bool"
            },
            {
              "internalType": "uint256",
              "name": "totalClaimableTokens",
              "type": "uint256"
            },
            {
              "internalType": "uint256",
              "name": "totalInvestorsCount",
              "type": "uint256"
            },
            {
              "internalType": "uint256",
              "name": "totalClaimsCount",
              "type": "uint256"
            },
            {
              "internalType": "uint256",
              "name": "totalFundsRaised",
              "type": "uint256"
            },
            {
              "internalType": "uint256",
              "name": "totalTokensSold",
              "type": "uint256"
            },
            {
              "internalType": "uint256",
              "name": "totalTokensBalance",
              "type": "uint256"
            },
            {
              "internalType": "string",
              "name": "info",
              "type": "string"
            },
            {
              "internalType": "address",
              "name": "feeManager",
              "type": "address"
            }
          ],
          "internalType": "struct Structs.CfManagerSoftcapState",
          "name": "",
          "type": "tuple"
        }
      ],
      "stateMutability": "view",
      "type": "function"
    },
    {
      "inputs": [
        {
          "internalType": "uint256",
          "name": "amount",
          "type": "uint256"
        }
      ],
      "name": "invest",
      "outputs": [],
      "stateMutability": "nonpayable",
      "type": "function"
    },
    {
      "inputs": [
        {
          "internalType": "address",
          "name": "spender",
          "type": "address"
        },
        {
          "internalType": "address",
          "name": "beneficiary",
          "type": "address"
        },
        {
          "internalType": "uint256",
          "name": "amount",
          "type": "uint256"
        }
      ],
      "name": "investForBeneficiary",
      "outputs": [],
      "stateMutability": "nonpayable",
      "type": "function"
    },
    {
      "inputs": [
        {
          "internalType": "address",
          "name": "investor",
          "type": "address"
        }
      ],
      "name": "investmentAmount",
      "outputs": [
        {
          "internalType": "uint256",
          "name": "",
          "type": "uint256"
        }
      ],
      "stateMutability": "view",
      "type": "function"
    },
    {
      "inputs": [
        {
          "internalType": "address",
          "name": "wallet",
          "type": "address"
        }
      ],
      "name": "isWalletWhitelisted",
      "outputs": [
        {
          "internalType": "bool",
          "name": "",
          "type": "bool"
        }
      ],
      "stateMutability": "view",
      "type": "function"
    },
    {
      "inputs": [
        {
          "internalType": "string",
          "name": "info",
          "type": "string"
        }
      ],
      "name": "setInfo",
      "outputs": [],
      "stateMutability": "nonpayable",
      "type": "function"
    },
    {
      "inputs": [],
      "name": "stablecoin",
      "outputs": [
        {
          "internalType": "contract IERC20",
          "name": "",
          "type": "address"
        }
      ],
      "stateMutability": "view",
      "type": "function"
    },
    {
      "inputs": [
        {
          "internalType": "address",
          "name": "investor",
          "type": "address"
        }
      ],
      "name": "tokenAmount",
      "outputs": [
        {
          "internalType": "uint256",
          "name": "",
          "type": "uint256"
        }
      ],
      "stateMutability": "view",
      "type": "function"
    },
    {
      "inputs": [],
      "name": "version",
      "outputs": [
        {
          "internalType": "string",
          "name": "",
          "type": "string"
        }
      ],
      "stateMutability": "view",
      "type": "function"
    }
  ],
  "bytecode": "0x608060405260006018553480156200001657600080fd5b50604051620069c0380380620069c083398181016040528101906200003c9190620012ce565b600073ffffffffffffffffffffffffffffffffffffffff16816000015173ffffffffffffffffffffffffffffffffffffffff161415620000b3576040517f08c379a0000000000000000000000000000000000000000000000000000000008152600401620000aa9062001764565b60405180910390fd5b600073ffffffffffffffffffffffffffffffffffffffff16816020015173ffffffffffffffffffffffffffffffffffffffff1614156200012a576040517f08c379a0000000000000000000000000000000000000000000000000000000008152600401620001219062001742565b60405180910390fd5b600081608001511162000174576040517f08c379a00000000000000000000000000000000000000000000000000000000081526004016200016b9062001720565b60405180910390fd5b8060e001518161010001511015620001c3576040517f08c379a0000000000000000000000000000000000000000000000000000000008152600401620001ba90620017ca565b60405180910390fd5b6000816101000151116200020e576040517f08c379a00000000000000000000000000000000000000000000000000000000081526004016200020590620016fe565b60405180910390fd5b6000620002258260200151620009e260201b60201c565b905060008073ffffffffffffffffffffffffffffffffffffffff168273ffffffffffffffffffffffffffffffffffffffff161415620002695782604001516200026b565b815b9050826040015173ffffffffffffffffffffffffffffffffffffffff168173ffffffffffffffffffffffffffffffffffffffff1614620002e2576040517f08c379a0000000000000000000000000000000000000000000000000000000008152600401620002d990620017a8565b60405180910390fd5b60008073ffffffffffffffffffffffffffffffffffffffff16846060015173ffffffffffffffffffffffffffffffffffffffff161462000327578360600151620003b3565b8173ffffffffffffffffffffffffffffffffffffffff16631818e2ec6040518163ffffffff1660e01b815260040160006040518083038186803b1580156200036e57600080fd5b505afa15801562000383573d6000803e3d6000fd5b505050506040513d6000823e3d601f19601f82011682018060405250810190620003ae919062001313565b608001515b90506000620003fc620003e08660c0015187608001518860a0015189602001518762000b1560201b60201c565b86608001518760a0015188602001518662000b8560201b60201c565b9050600062000445620004298760e0015188608001518960a001518a602001518862000b1560201b60201c565b87608001518860a0015189602001518762000b8560201b60201c565b9050604051806102c001604052806040518060400160405280601681526020017f646576332e63666d616e616765722d736f66746361700000000000000000000081525081526020016040518060400160405280600581526020017f312e302e3000000000000000000000000000000000000000000000000000000081525081526020013073ffffffffffffffffffffffffffffffffffffffff168152602001876000015173ffffffffffffffffffffffffffffffffffffffff168152602001876020015173ffffffffffffffffffffffffffffffffffffffff1681526020018573ffffffffffffffffffffffffffffffffffffffff1681526020018473ffffffffffffffffffffffffffffffffffffffff168152602001876080015181526020018760a0015160ff1681526020018381526020018281526020018761010001518152602001876101200151151581526020016000151581526020016000151581526020016000815260200160008152602001600081526020016000815260200160008152602001876101400151815260200187610160015173ffffffffffffffffffffffffffffffffffffffff168152506000808201518160000190805190602001906200061692919062000d27565b5060208201518160010190805190602001906200063592919062000d27565b5060408201518160020160006101000a81548173ffffffffffffffffffffffffffffffffffffffff021916908373ffffffffffffffffffffffffffffffffffffffff16021790555060608201518160030160006101000a81548173ffffffffffffffffffffffffffffffffffffffff021916908373ffffffffffffffffffffffffffffffffffffffff16021790555060808201518160040160006101000a81548173ffffffffffffffffffffffffffffffffffffffff021916908373ffffffffffffffffffffffffffffffffffffffff16021790555060a08201518160050160006101000a81548173ffffffffffffffffffffffffffffffffffffffff021916908373ffffffffffffffffffffffffffffffffffffffff16021790555060c08201518160060160006101000a81548173ffffffffffffffffffffffffffffffffffffffff021916908373ffffffffffffffffffffffffffffffffffffffff16021790555060e082015181600701556101008201518160080160006101000a81548160ff021916908360ff160217905550610120820151816009015561014082015181600a015561016082015181600b015561018082015181600c0160006101000a81548160ff0219169083151502179055506101a082015181600c0160016101000a81548160ff0219169083151502179055506101c082015181600c0160026101000a81548160ff0219169083151502179055506101e082015181600d015561020082015181600e015561022082015181600f0155610240820151816010015561026082015181601101556102808201518160120190805190602001906200089f92919062000d27565b506102a08201518160130160006101000a81548173ffffffffffffffffffffffffffffffffffffffff021916908373ffffffffffffffffffffffffffffffffffffffff1602179055509050508162000992876020015173ffffffffffffffffffffffffffffffffffffffff166318160ddd6040518163ffffffff1660e01b815260040160206040518083038186803b1580156200093b57600080fd5b505afa15801562000950573d6000803e3d6000fd5b505050506040513d601f19601f8201168201806040525081019062000976919062001358565b88608001518960a001518a602001518862000b8560201b60201c565b1015620009d6576040517f08c379a0000000000000000000000000000000000000000000000000000000008152600401620009cd9062001786565b60405180910390fd5b50505050505062001c9f565b60008060008373ffffffffffffffffffffffffffffffffffffffff166040516024016040516020818303038152906040527f1818e2ec000000000000000000000000000000000000000000000000000000007bffffffffffffffffffffffffffffffffffffffffffffffffffffffff19166020820180517bffffffffffffffffffffffffffffffffffffffffffffffffffffffff838183161783525050505060405162000a909190620016e5565b600060405180830381855afa9150503d806000811462000acd576040519150601f19603f3d011682016040523d82523d6000602084013e62000ad2565b606091505b5091509150811562000b095760008180602001905181019062000af6919062001289565b9050806101200151935050505062000b10565b6000925050505b919050565b600062000b288262000bf560201b60201c565b8562000b3a8562000c8e60201b60201c565b86600a62000b4991906200190d565b8962000b56919062001a4a565b62000b62919062001a4a565b62000b6e91906200187a565b62000b7a91906200187a565b905095945050505050565b600062000b988362000c8e60201b60201c565b84600a62000ba791906200190d565b62000bb88462000bf560201b60201c565b878962000bc6919062001a4a565b62000bd2919062001a4a565b62000bde91906200187a565b62000bea91906200187a565b905095945050505050565b60008173ffffffffffffffffffffffffffffffffffffffff1663313ce5676040518163ffffffff1660e01b815260040160206040518083038186803b15801562000c3e57600080fd5b505afa15801562000c53573d6000803e3d6000fd5b505050506040513d601f19601f8201168201806040525081019062000c79919062001384565b600a62000c8791906200190d565b9050919050565b60008173ffffffffffffffffffffffffffffffffffffffff1663313ce5676040518163ffffffff1660e01b815260040160206040518083038186803b15801562000cd757600080fd5b505afa15801562000cec573d6000803e3d6000fd5b505050506040513d601f19601f8201168201806040525081019062000d12919062001384565b600a62000d2091906200190d565b9050919050565b82805462000d359062001b38565b90600052602060002090601f01602090048101928262000d59576000855562000da5565b82601f1062000d7457805160ff191683800117855562000da5565b8280016001018555821562000da5579182015b8281111562000da457825182559160200191906001019062000d87565b5b50905062000db4919062000db8565b5090565b5b8082111562000dd357600081600090555060010162000db9565b5090565b600062000dee62000de88462001820565b620017ec565b90508281526020810184848401111562000e0757600080fd5b62000e1484828562001b02565b509392505050565b60008151905062000e2d8162001c37565b92915050565b60008151905062000e448162001c51565b92915050565b600082601f83011262000e5c57600080fd5b815162000e6e84826020860162000dd7565b91505092915050565b6000610140828403121562000e8b57600080fd5b62000e98610140620017ec565b9050600082015167ffffffffffffffff81111562000eb557600080fd5b62000ec38482850162000e4a565b600083015250602082015167ffffffffffffffff81111562000ee457600080fd5b62000ef28482850162000e4a565b602083015250604062000f088482850162000e1c565b604083015250606062000f1e8482850162000e1c565b606083015250608082015167ffffffffffffffff81111562000f3f57600080fd5b62000f4d8482850162000e4a565b60808301525060a082015167ffffffffffffffff81111562000f6e57600080fd5b62000f7c8482850162000e4a565b60a08301525060c082015167ffffffffffffffff81111562000f9d57600080fd5b62000fab8482850162000e4a565b60c08301525060e062000fc1848285016200125b565b60e08301525061010062000fd88482850162001272565b6101008301525061012062000ff08482850162000e1c565b6101208301525092915050565b600061018082840312156200101157600080fd5b6200101e610180620017ec565b90506000620010308482850162000e1c565b6000830152506020620010468482850162000e1c565b60208301525060406200105c8482850162000e1c565b6040830152506060620010728482850162000e1c565b606083015250608062001088848285016200125b565b60808301525060a06200109e8482850162001272565b60a08301525060c0620010b4848285016200125b565b60c08301525060e0620010ca848285016200125b565b60e083015250610100620010e1848285016200125b565b61010083015250610120620010f98482850162000e33565b6101208301525061014082015167ffffffffffffffff8111156200111c57600080fd5b6200112a8482850162000e4a565b61014083015250610160620011428482850162000e1c565b6101608301525092915050565b600060e082840312156200116257600080fd5b6200116e60e0620017ec565b9050600082015167ffffffffffffffff8111156200118b57600080fd5b620011998482850162000e4a565b600083015250602082015167ffffffffffffffff811115620011ba57600080fd5b620011c88482850162000e4a565b6020830152506040620011de8482850162000e1c565b6040830152506060620011f48482850162000e1c565b60608301525060806200120a8482850162000e1c565b60808301525060a0620012208482850162000e1c565b60a08301525060c082015167ffffffffffffffff8111156200124157600080fd5b6200124f8482850162000e4a565b60c08301525092915050565b6000815190506200126c8162001c6b565b92915050565b600081519050620012838162001c85565b92915050565b6000602082840312156200129c57600080fd5b600082015167ffffffffffffffff811115620012b757600080fd5b620012c58482850162000e77565b91505092915050565b600060208284031215620012e157600080fd5b600082015167ffffffffffffffff811115620012fc57600080fd5b6200130a8482850162000ffd565b91505092915050565b6000602082840312156200132657600080fd5b600082015167ffffffffffffffff8111156200134157600080fd5b6200134f848285016200114f565b91505092915050565b6000602082840312156200136b57600080fd5b60006200137b848285016200125b565b91505092915050565b6000602082840312156200139757600080fd5b6000620013a78482850162001272565b91505092915050565b6000620013bd8262001853565b620013c981856200185e565b9350620013db81856020860162001b02565b80840191505092915050565b6000620013f660398362001869565b91507f43664d616e61676572536f66746361703a204d617820696e766573746d656e7460008301527f2068617320746f20626520626967676572207468616e20302e000000000000006020830152604082019050919050565b60006200145e60418362001869565b91507f43664d616e61676572536f66746361703a20496e697469616c2070726963652060008301527f70657220746f6b656e206d7573742062652067726561746572207468616e203060208301527f2e000000000000000000000000000000000000000000000000000000000000006040830152606082019050919050565b6000620014ec60278362001869565b91507f43664d616e61676572536f66746361703a20496e76616c69642061737365742060008301527f61646472657373000000000000000000000000000000000000000000000000006020830152604082019050919050565b60006200155460278362001869565b91507f43664d616e61676572536f66746361703a20496e76616c6964206f776e65722060008301527f61646472657373000000000000000000000000000000000000000000000000006020830152604082019050919050565b6000620015bc60238362001869565b91507f43664d616e61676572536f66746361703a20496e76616c696420736f6674206360008301527f61702e00000000000000000000000000000000000000000000000000000000006020830152604082019050919050565b600062001624602a8362001869565b91507f43664d616e61676572536f66746361703a20496e76616c69642069737375657260008301527f2070726f76696465642e000000000000000000000000000000000000000000006020830152604082019050919050565b60006200168c603b8362001869565b91507f43664d616e61676572536f66746361703a204d61782068617320746f2062652060008301527f626967676572207468616e206d696e20696e766573746d656e742e00000000006020830152604082019050919050565b6000620016f38284620013b0565b915081905092915050565b600060208201905081810360008301526200171981620013e7565b9050919050565b600060208201905081810360008301526200173b816200144f565b9050919050565b600060208201905081810360008301526200175d81620014dd565b9050919050565b600060208201905081810360008301526200177f8162001545565b9050919050565b60006020820190508181036000830152620017a181620015ad565b9050919050565b60006020820190508181036000830152620017c38162001615565b9050919050565b60006020820190508181036000830152620017e5816200167d565b9050919050565b6000604051905081810181811067ffffffffffffffff8211171562001816576200181562001bfb565b5b8060405250919050565b600067ffffffffffffffff8211156200183e576200183d62001bfb565b5b601f19601f8301169050602081019050919050565b600081519050919050565b600081905092915050565b600082825260208201905092915050565b6000620018878262001aeb565b9150620018948362001aeb565b925082620018a757620018a662001b9d565b5b828204905092915050565b6000808291508390505b60018511156200190457808604811115620018dc57620018db62001b6e565b5b6001851615620018ec5780820291505b8081029050620018fc8562001c2a565b9450620018bc565b94509492505050565b60006200191a8262001aeb565b9150620019278362001af5565b9250620019567fffffffffffffffffffffffffffffffffffffffffffffffffffffffffffffffff84846200195e565b905092915050565b60008262001970576001905062001a43565b8162001980576000905062001a43565b8160018114620019995760028114620019a457620019da565b600191505062001a43565b60ff841115620019b957620019b862001b6e565b5b8360020a915084821115620019d357620019d262001b6e565b5b5062001a43565b5060208310610133831016604e8410600b841016171562001a145782820a90508381111562001a0e5762001a0d62001b6e565b5b62001a43565b62001a238484846001620018b2565b9250905081840481111562001a3d5762001a3c62001b6e565b5b81810290505b9392505050565b600062001a578262001aeb565b915062001a648362001aeb565b9250817fffffffffffffffffffffffffffffffffffffffffffffffffffffffffffffffff048311821515161562001aa05762001a9f62001b6e565b5b828202905092915050565b600062001ab88262001acb565b9050919050565b60008115159050919050565b600073ffffffffffffffffffffffffffffffffffffffff82169050919050565b6000819050919050565b600060ff82169050919050565b60005b8381101562001b2257808201518184015260208101905062001b05565b8381111562001b32576000848401525b50505050565b6000600282049050600182168062001b5157607f821691505b6020821081141562001b685762001b6762001bcc565b5b50919050565b7f4e487b7100000000000000000000000000000000000000000000000000000000600052601160045260246000fd5b7f4e487b7100000000000000000000000000000000000000000000000000000000600052601260045260246000fd5b7f4e487b7100000000000000000000000000000000000000000000000000000000600052602260045260246000fd5b7f4e487b7100000000000000000000000000000000000000000000000000000000600052604160045260246000fd5b60008160011c9050919050565b62001c428162001aab565b811462001c4e57600080fd5b50565b62001c5c8162001abf565b811462001c6857600080fd5b50565b62001c768162001aeb565b811462001c8257600080fd5b50565b62001c908162001af5565b811462001c9c57600080fd5b50565b614d118062001caf6000396000f3fe608060405234801561001057600080fd5b50600436106101215760003560e01c806367c5bd54116100ad578063a96b7f0511610071578063a96b7f0514610294578063aac8f967146102c4578063e9cbd822146102f4578063ed0ea00314610312578063f59e4f651461034257610121565b806367c5bd541461022a578063937f6e771461024657806394f8e95414610262578063980e78441461026c57806398e162551461027657610121565b80632af4c31e116100f45780632af4c31e146101ae5780632afcf480146101ca57806336921c0c146101e65780634bb278f31461020257806354fd4d501461020c57610121565b806304e86903146101265780631818e2ec146101565780631865c57d146101745780631e83409a14610192575b600080fd5b610140600480360381019061013b9190613488565b610360565b60405161014d9190614711565b60405180910390f35b61015e6103a9565b60405161016b91906146cd565b60405180910390f35b61017c6106f7565b60405161018991906146ef565b60405180910390f35b6101ac60048036038101906101a79190613488565b610b8f565b005b6101c860048036038101906101c39190613488565b610de3565b005b6101e460048036038101906101df91906135a6565b610ef8565b005b61020060048036038101906101fb91906134ed565b610f06565b005b61020a610fb8565b005b610214611379565b604051610221919061442d565b60405180910390f35b610244600480360381019061023f9190613488565b61140e565b005b610260600480360381019061025b9190613565565b61146c565b005b61026a6115c0565b005b61027461161e565b005b61027e6118bf565b60405161028b91906143d5565b60405180910390f35b6102ae60048036038101906102a99190613488565b6119ba565b6040516102bb9190614711565b60405180910390f35b6102de60048036038101906102d99190613488565b611a03565b6040516102eb91906143f7565b60405180910390f35b6102fc611a4a565b6040516103099190614412565b60405180910390f35b61032c60048036038101906103279190613488565b611a76565b6040516103399190614711565b60405180910390f35b61034a611abf565b604051610357919061442d565b60405180910390f35b6000601560008373ffffffffffffffffffffffffffffffffffffffff1673ffffffffffffffffffffffffffffffffffffffff168152602001908152602001600020549050919050565b6103b1613100565b604051806101c001604052806000800180546103cc90614b5c565b80601f01602080910402602001604051908101604052809291908181526020018280546103f890614b5c565b80156104455780601f1061041a57610100808354040283529160200191610445565b820191906000526020600020905b81548152906001019060200180831161042857829003601f168201915b505050505081526020016000600101805461045f90614b5c565b80601f016020809104026020016040519081016040528092919081815260200182805461048b90614b5c565b80156104d85780601f106104ad576101008083540402835291602001916104d8565b820191906000526020600020905b8154815290600101906020018083116104bb57829003601f168201915b50505050508152602001600060020160009054906101000a900473ffffffffffffffffffffffffffffffffffffffff1673ffffffffffffffffffffffffffffffffffffffff168152602001600060030160009054906101000a900473ffffffffffffffffffffffffffffffffffffffff1673ffffffffffffffffffffffffffffffffffffffff1681526020016000601201805461057490614b5c565b80601f01602080910402602001604051908101604052809291908181526020018280546105a090614b5c565b80156105ed5780601f106105c2576101008083540402835291602001916105ed565b820191906000526020600020905b8154815290600101906020018083116105d057829003601f168201915b50505050508152602001600060040160009054906101000a900473ffffffffffffffffffffffffffffffffffffffff1673ffffffffffffffffffffffffffffffffffffffff168152602001600060060160009054906101000a900473ffffffffffffffffffffffffffffffffffffffff1673ffffffffffffffffffffffffffffffffffffffff16815260200160006009015481526020016000600c0160019054906101000a900460ff16151581526020016000600c0160029054906101000a900460ff16151581526020016000600701548152602001600060080160009054906101000a900460ff1660ff1681526020016000600f01548152602001600060100154815250905090565b6106ff6131ce565b604051806102c0016040528060008001805461071a90614b5c565b80601f016020809104026020016040519081016040528092919081815260200182805461074690614b5c565b80156107935780601f1061076857610100808354040283529160200191610793565b820191906000526020600020905b81548152906001019060200180831161077657829003601f168201915b50505050508152602001600060010180546107ad90614b5c565b80601f01602080910402602001604051908101604052809291908181526020018280546107d990614b5c565b80156108265780601f106107fb57610100808354040283529160200191610826565b820191906000526020600020905b81548152906001019060200180831161080957829003601f168201915b50505050508152602001600060020160009054906101000a900473ffffffffffffffffffffffffffffffffffffffff1673ffffffffffffffffffffffffffffffffffffffff168152602001600060030160009054906101000a900473ffffffffffffffffffffffffffffffffffffffff1673ffffffffffffffffffffffffffffffffffffffff168152602001600060040160009054906101000a900473ffffffffffffffffffffffffffffffffffffffff1673ffffffffffffffffffffffffffffffffffffffff168152602001600060050160009054906101000a900473ffffffffffffffffffffffffffffffffffffffff1673ffffffffffffffffffffffffffffffffffffffff168152602001600060060160009054906101000a900473ffffffffffffffffffffffffffffffffffffffff1673ffffffffffffffffffffffffffffffffffffffff168152602001600060070154815260200160006009015481526020016000600a015481526020016000600b015481526020016000600c0160009054906101000a900460ff16151581526020016000600c0160019054906101000a900460ff16151581526020016000600c0160029054906101000a900460ff16151581526020016000600d015481526020016000600e0154815260200160185481526020016000600f015481526020016000601001548152602001610a2b611b53565b73ffffffffffffffffffffffffffffffffffffffff166370a08231306040518263ffffffff1660e01b8152600401610a63919061428b565b60206040518083038186803b158015610a7b57600080fd5b505afa158015610a8f573d6000803e3d6000fd5b505050506040513d601f19601f82011682018060405250810190610ab391906135cf565b815260200160006012018054610ac890614b5c565b80601f0160208091040260200160405190810160405280929190818152602001828054610af490614b5c565b8015610b415780601f10610b1657610100808354040283529160200191610b41565b820191906000526020600020905b815481529060010190602001808311610b2457829003601f168201915b50505050508152602001600060130160009054906101000a900473ffffffffffffffffffffffffffffffffffffffff1673ffffffffffffffffffffffffffffffffffffffff16815250905090565b6000600c0160019054906101000a900460ff16610be1576040517f08c379a0000000000000000000000000000000000000000000000000000000008152600401610bd8906146ad565b60405180910390fd5b6000601560008373ffffffffffffffffffffffffffffffffffffffff1673ffffffffffffffffffffffffffffffffffffffff1681526020019081526020016000205490506000601660008473ffffffffffffffffffffffffffffffffffffffff1673ffffffffffffffffffffffffffffffffffffffff168152602001908152602001600020549050600082118015610c795750600081115b610cb8576040517f08c379a0000000000000000000000000000000000000000000000000000000008152600401610caf9061462d565b60405180910390fd5b600160186000828254610ccb9190614809565b92505081905550816000600d016000828254610ce79190614a5b565b925050819055506000601560008573ffffffffffffffffffffffffffffffffffffffff1673ffffffffffffffffffffffffffffffffffffffff16815260200190815260200160002081905550610d658383610d40611b53565b73ffffffffffffffffffffffffffffffffffffffff16611b7f9092919063ffffffff16565b8273ffffffffffffffffffffffffffffffffffffffff167f9137e112a187039f8a3291c0a66fce97153d25ec42036e82360d5d0106d19a6e600060040160009054906101000a900473ffffffffffffffffffffffffffffffffffffffff16848442604051610dd6949392919061433d565b60405180910390a2505050565b600060030160009054906101000a900473ffffffffffffffffffffffffffffffffffffffff1673ffffffffffffffffffffffffffffffffffffffff163373ffffffffffffffffffffffffffffffffffffffff1614610e76576040517f08c379a0000000000000000000000000000000000000000000000000000000008152600401610e6d906144cd565b60405180910390fd5b80600060030160006101000a81548173ffffffffffffffffffffffffffffffffffffffff021916908373ffffffffffffffffffffffffffffffffffffffff1602179055507fb4fa0c8f1565e6385961540cac5b9884d84157c515100cf972728e8be8dacdd3338242604051610eed939291906142a6565b60405180910390a150565b610f03333383611c05565b50565b8173ffffffffffffffffffffffffffffffffffffffff168373ffffffffffffffffffffffffffffffffffffffff1614610fa8573373ffffffffffffffffffffffffffffffffffffffff168373ffffffffffffffffffffffffffffffffffffffff1614610fa7576040517f08c379a0000000000000000000000000000000000000000000000000000000008152600401610f9e906144ed565b60405180910390fd5b5b610fb3838383611c05565b505050565b600060030160009054906101000a900473ffffffffffffffffffffffffffffffffffffffff1673ffffffffffffffffffffffffffffffffffffffff163373ffffffffffffffffffffffffffffffffffffffff161461104b576040517f08c379a0000000000000000000000000000000000000000000000000000000008152600401611042906144cd565b60405180910390fd5b6000600c0160029054906101000a900460ff161561109e576040517f08c379a00000000000000000000000000000000000000000000000000000000081526004016110959061464d565b60405180910390fd5b6000600c0160019054906101000a900460ff16156110f1576040517f08c379a00000000000000000000000000000000000000000000000000000000081526004016110e8906145cd565b60405180910390fd5b60006110fb611a4a565b905060008173ffffffffffffffffffffffffffffffffffffffff166370a08231306040518263ffffffff1660e01b8152600401611138919061428b565b60206040518083038186803b15801561115057600080fd5b505afa158015611164573d6000803e3d6000fd5b505050506040513d601f19601f8201168201806040525081019061118891906135cf565b9050600060090154811015806111a5575060006111a36123cd565b145b6111e4576040517f08c379a00000000000000000000000000000000000000000000000000000000081526004016111db9061452d565b60405180910390fd5b60016000600c0160016101000a81548160ff021916908315150217905550600061120c611b53565b90506000806010015490506000818373ffffffffffffffffffffffffffffffffffffffff166370a08231306040518263ffffffff1660e01b8152600401611253919061428b565b60206040518083038186803b15801561126b57600080fd5b505afa15801561127f573d6000803e3d6000fd5b505050506040513d601f19601f820116820180604052508101906112a391906135cf565b6112ad9190614a5b565b90506112b76124c9565b6112c23385876125dc565b60008111156112f7576112f633828573ffffffffffffffffffffffffffffffffffffffff16611b7f9092919063ffffffff16565b5b3373ffffffffffffffffffffffffffffffffffffffff167fc7ffb23c3f55c770b94ffcdbbe7d3b0520a2e76b9abe111f43c7c48cab999a6a600060040160009054906101000a900473ffffffffffffffffffffffffffffffffffffffff168685854260405161136a959493929190614382565b60405180910390a25050505050565b60606000600101805461138b90614b5c565b80601f01602080910402602001604051908101604052809291908181526020018280546113b790614b5c565b80156114045780601f106113d957610100808354040283529160200191611404565b820191906000526020600020905b8154815290600101906020018083116113e757829003601f168201915b5050505050905090565b6000600c0160029054906101000a900460ff16611460576040517f08c379a00000000000000000000000000000000000000000000000000000000081526004016114579061468d565b60405180910390fd5b611469816126d0565b50565b600060030160009054906101000a900473ffffffffffffffffffffffffffffffffffffffff1673ffffffffffffffffffffffffffffffffffffffff163373ffffffffffffffffffffffffffffffffffffffff16146114ff576040517f08c379a00000000000000000000000000000000000000000000000000000000081526004016114f6906144cd565b60405180910390fd5b60146040518060400160405280838152602001428152509080600181540180825580915050600190039060005260206000209060020201600090919091909150600082015181600001908051906020019061155b9291906132ff565b5060208201518160010155505080600060120190805190602001906115819291906132ff565b507f39b28594242c42fce47a0a6e63bac12adbd07fbb35580f5a54b236858101d58a8133426040516115b59392919061444f565b60405180910390a150565b6000600c0160019054906101000a900460ff1615611613576040517f08c379a000000000000000000000000000000000000000000000000000000000815260040161160a906145cd565b60405180910390fd5b61161c336126d0565b565b600060030160009054906101000a900473ffffffffffffffffffffffffffffffffffffffff1673ffffffffffffffffffffffffffffffffffffffff163373ffffffffffffffffffffffffffffffffffffffff16146116b1576040517f08c379a00000000000000000000000000000000000000000000000000000000081526004016116a8906144cd565b60405180910390fd5b6000600c0160029054906101000a900460ff1615611704576040517f08c379a00000000000000000000000000000000000000000000000000000000081526004016116fb9061464d565b60405180910390fd5b6000600c0160019054906101000a900460ff1615611757576040517f08c379a000000000000000000000000000000000000000000000000000000000815260040161174e906145cd565b60405180910390fd5b60016000600c0160026101000a81548160ff021916908315150217905550600061177f611b53565b73ffffffffffffffffffffffffffffffffffffffff166370a08231306040518263ffffffff1660e01b81526004016117b7919061428b565b60206040518083038186803b1580156117cf57600080fd5b505afa1580156117e3573d6000803e3d6000fd5b505050506040513d601f19601f8201168201806040525081019061180791906135cf565b9050600081111561184557611844338261181f611b53565b73ffffffffffffffffffffffffffffffffffffffff16611b7f9092919063ffffffff16565b5b3373ffffffffffffffffffffffffffffffffffffffff167faf1ae5c6fb3f0ce445b207ae00f52f0b564d8fe58282727032de5d199eaa7981600060040160009054906101000a900473ffffffffffffffffffffffffffffffffffffffff1683426040516118b493929190614306565b60405180910390a250565b60606014805480602002602001604051908101604052809291908181526020016000905b828210156119b1578382906000526020600020906002020160405180604001604052908160008201805461191690614b5c565b80601f016020809104026020016040519081016040528092919081815260200182805461194290614b5c565b801561198f5780601f106119645761010080835404028352916020019161198f565b820191906000526020600020905b81548152906001019060200180831161197257829003601f168201915b50505050508152602001600182015481525050815260200190600101906118e3565b50505050905090565b6000601760008373ffffffffffffffffffffffffffffffffffffffff1673ffffffffffffffffffffffffffffffffffffffff168152602001908152602001600020549050919050565b600080600c0160009054906101000a900460ff161580611a4357506000600c0160009054906101000a900460ff168015611a425750611a4182612997565b5b5b9050919050565b60008060060160009054906101000a900473ffffffffffffffffffffffffffffffffffffffff16905090565b6000601660008373ffffffffffffffffffffffffffffffffffffffff1673ffffffffffffffffffffffffffffffffffffffff168152602001908152602001600020549050919050565b6060600080018054611ad090614b5c565b80601f0160208091040260200160405190810160405280929190818152602001828054611afc90614b5c565b8015611b495780601f10611b1e57610100808354040283529160200191611b49565b820191906000526020600020905b815481529060010190602001808311611b2c57829003601f168201915b5050505050905090565b60008060040160009054906101000a900473ffffffffffffffffffffffffffffffffffffffff16905090565b611c008363a9059cbb60e01b8484604051602401611b9e9291906142dd565b604051602081830303815290604052907bffffffffffffffffffffffffffffffffffffffffffffffffffffffff19166020820180517bffffffffffffffffffffffffffffffffffffffffffffffffffffffff8381831617835250505050612a4d565b505050565b6000600c0160029054906101000a900460ff1615611c58576040517f08c379a0000000000000000000000000000000000000000000000000000000008152600401611c4f9061464d565b60405180910390fd5b6000600c0160019054906101000a900460ff1615611cab576040517f08c379a0000000000000000000000000000000000000000000000000000000008152600401611ca2906145cd565b60405180910390fd5b81611cb581611a03565b611cf4576040517f08c379a0000000000000000000000000000000000000000000000000000000008152600401611ceb906145ad565b60405180910390fd5b60008211611d37576040517f08c379a0000000000000000000000000000000000000000000000000000000008152600401611d2e9061460d565b60405180910390fd5b6000611d41611b53565b73ffffffffffffffffffffffffffffffffffffffff166370a08231306040518263ffffffff1660e01b8152600401611d79919061428b565b60206040518083038186803b158015611d9157600080fd5b505afa158015611da5573d6000803e3d6000fd5b505050506040513d601f19601f82011682018060405250810190611dc991906135cf565b9050600060090154611e3f82600060070154600060080160009054906101000a900460ff16600060040160009054906101000a900473ffffffffffffffffffffffffffffffffffffffff16600060060160009054906101000a900473ffffffffffffffffffffffffffffffffffffffff16612b14565b1015611e80576040517f08c379a0000000000000000000000000000000000000000000000000000000008152600401611e779061458d565b60405180910390fd5b600080600d015482611e929190614a5b565b90506000611f0485600060070154600060080160009054906101000a900460ff16600060040160009054906101000a900473ffffffffffffffffffffffffffffffffffffffff16600060060160009054906101000a900473ffffffffffffffffffffffffffffffffffffffff16612b6a565b90506000611f7682600060070154600060080160009054906101000a900460ff16600060040160009054906101000a900473ffffffffffffffffffffffffffffffffffffffff16600060060160009054906101000a900473ffffffffffffffffffffffffffffffffffffffff16612b14565b9050600082118015611f885750600081115b611fc7576040517f08c379a0000000000000000000000000000000000000000000000000000000008152600401611fbe9061454d565b60405180910390fd5b8183101561200a576040517f08c379a00000000000000000000000000000000000000000000000000000000081526004016120019061456d565b60405180910390fd5b60006120c4601560008a73ffffffffffffffffffffffffffffffffffffffff1673ffffffffffffffffffffffffffffffffffffffff168152602001908152602001600020548461205a9190614809565b600060070154600060080160009054906101000a900460ff16600060040160009054906101000a900473ffffffffffffffffffffffffffffffffffffffff16600060060160009054906101000a900473ffffffffffffffffffffffffffffffffffffffff16612b14565b90506120cf84612bc0565b811015612111576040517f08c379a00000000000000000000000000000000000000000000000000000000081526004016121089061454d565b60405180910390fd5b6000600b0154811115612159576040517f08c379a0000000000000000000000000000000000000000000000000000000008152600401612150906144ad565b60405180910390fd5b61218d893084612167611a4a565b73ffffffffffffffffffffffffffffffffffffffff16612c54909392919063ffffffff16565b6000601560008a73ffffffffffffffffffffffffffffffffffffffff1673ffffffffffffffffffffffffffffffffffffffff1681526020019081526020016000205414156121f35760016000600e0160008282546121eb9190614809565b925050819055505b82601560008a73ffffffffffffffffffffffffffffffffffffffff1673ffffffffffffffffffffffffffffffffffffffff16815260200190815260200160002060008282546122429190614809565b9250508190555081601660008a73ffffffffffffffffffffffffffffffffffffffff1673ffffffffffffffffffffffffffffffffffffffff16815260200190815260200160002060008282546122989190614809565b9250508190555082601760008a73ffffffffffffffffffffffffffffffffffffffff1673ffffffffffffffffffffffffffffffffffffffff16815260200190815260200160002060008282546122ee9190614809565b92505081905550826000600d01600082825461230a9190614809565b9250508190555082600060100160008282546123269190614809565b92505081905550816000600f0160008282546123429190614809565b925050819055508773ffffffffffffffffffffffffffffffffffffffff167ff29b7b9c9bc4f1c24045a5a10b8bb59a7318d7a1e2e46af68bd5560dfce0e044600060040160009054906101000a900473ffffffffffffffffffffffffffffffffffffffff168585426040516123ba949392919061433d565b60405180910390a2505050505050505050565b6000806124536000600f01546000600901546123e99190614a5b565b600060070154600060080160009054906101000a900460ff16600060040160009054906101000a900473ffffffffffffffffffffffffffffffffffffffff16600060060160009054906101000a900473ffffffffffffffffffffffffffffffffffffffff16612b6a565b90506124c381600060070154600060080160009054906101000a900460ff16600060040160009054906101000a900473ffffffffffffffffffffffffffffffffffffffff16600060060160009054906101000a900473ffffffffffffffffffffffffffffffffffffffff16612b14565b91505090565b600060040160009054906101000a900473ffffffffffffffffffffffffffffffffffffffff1673ffffffffffffffffffffffffffffffffffffffff166040516024016040516020818303038152906040527f58a687ec000000000000000000000000000000000000000000000000000000007bffffffffffffffffffffffffffffffffffffffffffffffffffffffff19166020820180517bffffffffffffffffffffffffffffffffffffffffffffffffffffffff83818316178352505050506040516125959190614274565b6000604051808303816000865af19150503d80600081146125d2576040519150601f19603f3d011682016040523d82523d6000602084013e6125d7565b606091505b505050565b60008211156126cb576000806125f0612cdd565b915091506000811180156126315750600073ffffffffffffffffffffffffffffffffffffffff168273ffffffffffffffffffffffffffffffffffffffff1614155b1561269c5761266182828573ffffffffffffffffffffffffffffffffffffffff16611b7f9092919063ffffffff16565b6126978582866126719190614a5b565b8573ffffffffffffffffffffffffffffffffffffffff16611b7f9092919063ffffffff16565b6126c8565b6126c785858573ffffffffffffffffffffffffffffffffffffffff16611b7f9092919063ffffffff16565b5b50505b505050565b6000601560008373ffffffffffffffffffffffffffffffffffffffff1673ffffffffffffffffffffffffffffffffffffffff1681526020019081526020016000205490506000601660008473ffffffffffffffffffffffffffffffffffffffff1673ffffffffffffffffffffffffffffffffffffffff1681526020019081526020016000205490506000821180156127685750600081115b6127a7576040517f08c379a000000000000000000000000000000000000000000000000000000000815260040161279e9061448d565b60405180910390fd5b60016000600e0160008282546127bd9190614a5b565b925050819055506000601560008573ffffffffffffffffffffffffffffffffffffffff1673ffffffffffffffffffffffffffffffffffffffff168152602001908152602001600020819055506000601660008573ffffffffffffffffffffffffffffffffffffffff1673ffffffffffffffffffffffffffffffffffffffff168152602001908152602001600020819055506000601760008573ffffffffffffffffffffffffffffffffffffffff1673ffffffffffffffffffffffffffffffffffffffff16815260200190815260200160002081905550816000600d0160008282546128a89190614a5b565b9250508190555081600060100160008282546128c49190614a5b565b92505081905550806000600f0160008282546128e09190614a5b565b9250508190555061291983826128f4611a4a565b73ffffffffffffffffffffffffffffffffffffffff16611b7f9092919063ffffffff16565b8273ffffffffffffffffffffffffffffffffffffffff167f211dda46c5b3693e6a4dae7489d6a6738cf8a0104ce5b5ddbb477496a796e3ba600060040160009054906101000a900473ffffffffffffffffffffffffffffffffffffffff1684844260405161298a949392919061433d565b60405180910390a2505050565b60008060050160009054906101000a900473ffffffffffffffffffffffffffffffffffffffff1673ffffffffffffffffffffffffffffffffffffffff16633657e851836040518263ffffffff1660e01b81526004016129f6919061428b565b60206040518083038186803b158015612a0e57600080fd5b505afa158015612a22573d6000803e3d6000fd5b505050506040513d601f19601f82011682018060405250810190612a46919061353c565b9050919050565b6000612aaf826040518060400160405280602081526020017f5361666545524332303a206c6f772d6c6576656c2063616c6c206661696c65648152508573ffffffffffffffffffffffffffffffffffffffff16612e349092919063ffffffff16565b9050600081511115612b0f5780806020019051810190612acf919061353c565b612b0e576040517f08c379a0000000000000000000000000000000000000000000000000000000008152600401612b059061466d565b60405180910390fd5b5b505050565b6000612b1f83612e4c565b84600a612b2c91906148e3565b612b3584612edf565b8789612b419190614a01565b612b4b9190614a01565b612b55919061485f565b612b5f919061485f565b905095945050505050565b6000612b7582612edf565b85612b7f85612e4c565b86600a612b8c91906148e3565b89612b979190614a01565b612ba19190614a01565b612bab919061485f565b612bb5919061485f565b905095945050505050565b600080612c3183600060070154600060080160009054906101000a900460ff16600060040160009054906101000a900473ffffffffffffffffffffffffffffffffffffffff16600060060160009054906101000a900473ffffffffffffffffffffffffffffffffffffffff16612b14565b90506000600a01548110612c4a576000600a0154612c4c565b805b915050919050565b612cd7846323b872dd60e01b858585604051602401612c75939291906142a6565b604051602081830303815290604052907bffffffffffffffffffffffffffffffffffffffffffffffffffffffff19166020820180517bffffffffffffffffffffffffffffffffffffffffffffffffffffffff8381831617835250505050612a4d565b50505050565b600080600080600060130160009054906101000a900473ffffffffffffffffffffffffffffffffffffffff1673ffffffffffffffffffffffffffffffffffffffff1630604051602401612d30919061428b565b6040516020818303038152906040527f465f5eb8000000000000000000000000000000000000000000000000000000007bffffffffffffffffffffffffffffffffffffffffffffffffffffffff19166020820180517bffffffffffffffffffffffffffffffffffffffffffffffffffffffff8381831617835250505050604051612dba9190614274565b6000604051808303816000865af19150503d8060008114612df7576040519150601f19603f3d011682016040523d82523d6000602084013e612dfc565b606091505b50915091508115612e265780806020019051810190612e1b91906134b1565b935093505050612e30565b6000809350935050505b9091565b6060612e438484600085612f72565b90509392505050565b60008173ffffffffffffffffffffffffffffffffffffffff1663313ce5676040518163ffffffff1660e01b815260040160206040518083038186803b158015612e9457600080fd5b505afa158015612ea8573d6000803e3d6000fd5b505050506040513d601f19601f82011682018060405250810190612ecc91906135f8565b600a612ed891906148e3565b9050919050565b60008173ffffffffffffffffffffffffffffffffffffffff1663313ce5676040518163ffffffff1660e01b815260040160206040518083038186803b158015612f2757600080fd5b505afa158015612f3b573d6000803e3d6000fd5b505050506040513d601f19601f82011682018060405250810190612f5f91906135f8565b600a612f6b91906148e3565b9050919050565b606082471015612fb7576040517f08c379a0000000000000000000000000000000000000000000000000000000008152600401612fae9061450d565b60405180910390fd5b612fc085613086565b612fff576040517f08c379a0000000000000000000000000000000000000000000000000000000008152600401612ff6906145ed565b60405180910390fd5b6000808673ffffffffffffffffffffffffffffffffffffffff1685876040516130289190614274565b60006040518083038185875af1925050503d8060008114613065576040519150601f19603f3d011682016040523d82523d6000602084013e61306a565b606091505b509150915061307a828286613099565b92505050949350505050565b600080823b905060008111915050919050565b606083156130a9578290506130f9565b6000835111156130bc5782518084602001fd5b816040517f08c379a00000000000000000000000000000000000000000000000000000000081526004016130f0919061442d565b60405180910390fd5b9392505050565b604051806101c001604052806060815260200160608152602001600073ffffffffffffffffffffffffffffffffffffffff168152602001600073ffffffffffffffffffffffffffffffffffffffff16815260200160608152602001600073ffffffffffffffffffffffffffffffffffffffff168152602001600073ffffffffffffffffffffffffffffffffffffffff1681526020016000815260200160001515815260200160001515815260200160008152602001600060ff16815260200160008152602001600081525090565b604051806102c001604052806060815260200160608152602001600073ffffffffffffffffffffffffffffffffffffffff168152602001600073ffffffffffffffffffffffffffffffffffffffff168152602001600073ffffffffffffffffffffffffffffffffffffffff168152602001600073ffffffffffffffffffffffffffffffffffffffff168152602001600073ffffffffffffffffffffffffffffffffffffffff1681526020016000815260200160008152602001600081526020016000815260200160001515815260200160001515815260200160001515815260200160008152602001600081526020016000815260200160008152602001600081526020016000815260200160608152602001600073ffffffffffffffffffffffffffffffffffffffff1681525090565b82805461330b90614b5c565b90600052602060002090601f01602090048101928261332d5760008555613374565b82601f1061334657805160ff1916838001178555613374565b82800160010185558215613374579182015b82811115613373578251825591602001919060010190613358565b5b5090506133819190613385565b5090565b5b8082111561339e576000816000905550600101613386565b5090565b60006133b56133b08461475d565b61472c565b9050828152602081018484840111156133cd57600080fd5b6133d8848285614b1a565b509392505050565b6000813590506133ef81614c68565b92915050565b60008151905061340481614c7f565b92915050565b60008151905061341981614c96565b92915050565b600082601f83011261343057600080fd5b81356134408482602086016133a2565b91505092915050565b60008135905061345881614cad565b92915050565b60008151905061346d81614cad565b92915050565b60008151905061348281614cc4565b92915050565b60006020828403121561349a57600080fd5b60006134a8848285016133e0565b91505092915050565b600080604083850312156134c457600080fd5b60006134d2858286016133f5565b92505060206134e38582860161345e565b9150509250929050565b60008060006060848603121561350257600080fd5b6000613510868287016133e0565b9350506020613521868287016133e0565b925050604061353286828701613449565b9150509250925092565b60006020828403121561354e57600080fd5b600061355c8482850161340a565b91505092915050565b60006020828403121561357757600080fd5b600082013567ffffffffffffffff81111561359157600080fd5b61359d8482850161341f565b91505092915050565b6000602082840312156135b857600080fd5b60006135c684828501613449565b91505092915050565b6000602082840312156135e157600080fd5b60006135ef8482850161345e565b91505092915050565b60006020828403121561360a57600080fd5b600061361884828501613473565b91505092915050565b600061362d838361420a565b905092915050565b61363e81614a8f565b82525050565b61364d81614a8f565b82525050565b600061365e8261479d565b61366881856147cb565b93508360208202850161367a8561478d565b8060005b858110156136b657848403895281516136978582613621565b94506136a2836147be565b925060208a0199505060018101905061367e565b50829750879550505050505092915050565b6136d181614ab3565b82525050565b6136e081614ab3565b82525050565b60006136f1826147a8565b6136fb81856147dc565b935061370b818560208601614b29565b80840191505092915050565b61372081614af6565b82525050565b6000613731826147b3565b61373b81856147e7565b935061374b818560208601614b29565b61375481614c4a565b840191505092915050565b600061376a826147b3565b61377481856147f8565b9350613784818560208601614b29565b61378d81614c4a565b840191505092915050565b60006137a5601c836147f8565b91507f4143664d616e616765723a204e6f20746f6b656e73206f776e65642e000000006000830152602082019050919050565b60006137e56027836147f8565b91507f4143664d616e616765723a20496e766573746d656e7420616d6f756e7420746f60008301527f6f20686967682e000000000000000000000000000000000000000000000000006020830152604082019050919050565b600061384b602e836147f8565b91507f4143664d616e616765723a204f6e6c79206f776e65722063616e2063616c6c2060008301527f746869732066756e6374696f6e2e0000000000000000000000000000000000006020830152604082019050919050565b60006138b1604b836147f8565b91507f4143664d616e616765723a204f6e6c79207370656e6465722063616e2064656360008301527f69646520746f20626f6f6b2074686520696e766573746d656e74206f6e20736f60208301527f6d656f6e6520656c73652e0000000000000000000000000000000000000000006040830152606082019050919050565b600061393d6026836147f8565b91507f416464726573733a20696e73756666696369656e742062616c616e636520666f60008301527f722063616c6c00000000000000000000000000000000000000000000000000006020830152604082019050919050565b60006139a36054836147f8565b91507f4143664d616e616765723a2043616e206f6e6c792066696e616c697a6520636160008301527f6d706169676e20696620746865206d696e696d756d2066756e64696e6720676f60208301527f616c20686173206265656e20726561636865642e0000000000000000000000006040830152606082019050919050565b6000613a2f6026836147f8565b91507f4143664d616e616765723a20496e766573746d656e7420616d6f756e7420746f60008301527f6f206c6f772e00000000000000000000000000000000000000000000000000006020830152604082019050919050565b6000613a95603e836147f8565b91507f4143664d616e616765723a204e6f7420656e6f75676820746f6b656e73206c6560008301527f667420666f72207468697320696e766573746d656e7420616d6f756e742e00006020830152604082019050919050565b6000613afb603c836147f8565b91507f4143664d616e616765723a206e6f7420656e6f75676820746f6b656e7320666f60008301527f722073616c6520746f2072656163682074686520736f66746361702e000000006020830152604082019050919050565b6000613b616023836147f8565b91507f4143664d616e616765723a2057616c6c6574206e6f742077686974656c69737460008301527f65642e00000000000000000000000000000000000000000000000000000000006020830152604082019050919050565b6000613bc76026836147f8565b91507f4143664d616e616765723a205468652063616d706169676e2069732066696e6160008301527f6c697a65642e00000000000000000000000000000000000000000000000000006020830152604082019050919050565b6000613c2d601d836147f8565b91507f416464726573733a2063616c6c20746f206e6f6e2d636f6e74726163740000006000830152602082019050919050565b6000613c6d6037836147f8565b91507f4143664d616e616765723a20496e766573746d656e7420616d6f756e7420686160008301527f7320746f2062652067726561746572207468616e20302e0000000000000000006020830152604082019050919050565b6000613cd36022836147f8565b91507f43664d616e61676572536f66746361703a204e6f20746f6b656e73206f776e6560008301527f642e0000000000000000000000000000000000000000000000000000000000006020830152604082019050919050565b6000613d39602b836147f8565b91507f4143664d616e616765723a205468652063616d706169676e206861732062656560008301527f6e2063616e63656c65642e0000000000000000000000000000000000000000006020830152604082019050919050565b6000613d9f602a836147f8565b91507f5361666545524332303a204552433230206f7065726174696f6e20646964206e60008301527f6f742073756363656564000000000000000000000000000000000000000000006020830152604082019050919050565b6000613e05604a836147f8565b91507f4143664d616e616765723a2043616e206f6e6c792063616e63656c20666f722060008301527f736f6d656f6e65206966207468652063616d706169676e20686173206265656e60208301527f2063616e63656c65642e000000000000000000000000000000000000000000006040830152606082019050919050565b6000613e91602a836147f8565b91507f4143664d616e616765723a205468652063616d706169676e206973206e6f742060008301527f66696e616c697a65642e000000000000000000000000000000000000000000006020830152604082019050919050565b60006101c0830160008301518482036000860152613f088282613726565b91505060208301518482036020860152613f228282613726565b9150506040830151613f376040860182613635565b506060830151613f4a6060860182613635565b5060808301518482036080860152613f628282613726565b91505060a0830151613f7760a0860182613635565b5060c0830151613f8a60c0860182613635565b5060e0830151613f9d60e0860182614247565b50610100830151613fb26101008601826136c8565b50610120830151613fc76101208601826136c8565b50610140830151613fdc610140860182614247565b50610160830151613ff1610160860182614265565b50610180830151614006610180860182614247565b506101a083015161401b6101a0860182614247565b508091505092915050565b60006102c08301600083015184820360008601526140448282613726565b9150506020830151848203602086015261405e8282613726565b91505060408301516140736040860182613635565b5060608301516140866060860182613635565b5060808301516140996080860182613635565b5060a08301516140ac60a0860182613635565b5060c08301516140bf60c0860182613635565b5060e08301516140d260e0860182614247565b506101008301516140e7610100860182614247565b506101208301516140fc610120860182614247565b50610140830151614111610140860182614247565b506101608301516141266101608601826136c8565b5061018083015161413b6101808601826136c8565b506101a08301516141506101a08601826136c8565b506101c08301516141656101c0860182614247565b506101e083015161417a6101e0860182614247565b5061020083015161418f610200860182614247565b506102208301516141a4610220860182614247565b506102408301516141b9610240860182614247565b506102608301516141ce610260860182614247565b506102808301518482036102808601526141e88282613726565b9150506102a08301516141ff6102a0860182613635565b508091505092915050565b600060408301600083015184820360008601526142278282613726565b915050602083015161423c6020860182614247565b508091505092915050565b61425081614adf565b82525050565b61425f81614adf565b82525050565b61426e81614ae9565b82525050565b600061428082846136e6565b915081905092915050565b60006020820190506142a06000830184613644565b92915050565b60006060820190506142bb6000830186613644565b6142c86020830185613644565b6142d56040830184614256565b949350505050565b60006040820190506142f26000830185613644565b6142ff6020830184614256565b9392505050565b600060608201905061431b6000830186613644565b6143286020830185614256565b6143356040830184614256565b949350505050565b60006080820190506143526000830187613644565b61435f6020830186614256565b61436c6040830185614256565b6143796060830184614256565b95945050505050565b600060a0820190506143976000830188613644565b6143a46020830187614256565b6143b16040830186614256565b6143be6060830185614256565b6143cb6080830184614256565b9695505050505050565b600060208201905081810360008301526143ef8184613653565b905092915050565b600060208201905061440c60008301846136d7565b92915050565b60006020820190506144276000830184613717565b92915050565b60006020820190508181036000830152614447818461375f565b905092915050565b60006060820190508181036000830152614469818661375f565b90506144786020830185613644565b6144856040830184614256565b949350505050565b600060208201905081810360008301526144a681613798565b9050919050565b600060208201905081810360008301526144c6816137d8565b9050919050565b600060208201905081810360008301526144e68161383e565b9050919050565b60006020820190508181036000830152614506816138a4565b9050919050565b6000602082019050818103600083015261452681613930565b9050919050565b6000602082019050818103600083015261454681613996565b9050919050565b6000602082019050818103600083015261456681613a22565b9050919050565b6000602082019050818103600083015261458681613a88565b9050919050565b600060208201905081810360008301526145a681613aee565b9050919050565b600060208201905081810360008301526145c681613b54565b9050919050565b600060208201905081810360008301526145e681613bba565b9050919050565b6000602082019050818103600083015261460681613c20565b9050919050565b6000602082019050818103600083015261462681613c60565b9050919050565b6000602082019050818103600083015261464681613cc6565b9050919050565b6000602082019050818103600083015261466681613d2c565b9050919050565b6000602082019050818103600083015261468681613d92565b9050919050565b600060208201905081810360008301526146a681613df8565b9050919050565b600060208201905081810360008301526146c681613e84565b9050919050565b600060208201905081810360008301526146e78184613eea565b905092915050565b600060208201905081810360008301526147098184614026565b905092915050565b60006020820190506147266000830184614256565b92915050565b6000604051905081810181811067ffffffffffffffff8211171561475357614752614c1b565b5b8060405250919050565b600067ffffffffffffffff82111561477857614777614c1b565b5b601f19601f8301169050602081019050919050565b6000819050602082019050919050565b600081519050919050565b600081519050919050565b600081519050919050565b6000602082019050919050565b600082825260208201905092915050565b600081905092915050565b600082825260208201905092915050565b600082825260208201905092915050565b600061481482614adf565b915061481f83614adf565b9250827fffffffffffffffffffffffffffffffffffffffffffffffffffffffffffffffff0382111561485457614853614b8e565b5b828201905092915050565b600061486a82614adf565b915061487583614adf565b92508261488557614884614bbd565b5b828204905092915050565b6000808291508390505b60018511156148da578086048111156148b6576148b5614b8e565b5b60018516156148c55780820291505b80810290506148d385614c5b565b945061489a565b94509492505050565b60006148ee82614adf565b91506148f983614ae9565b92506149267fffffffffffffffffffffffffffffffffffffffffffffffffffffffffffffffff848461492e565b905092915050565b60008261493e57600190506149fa565b8161494c57600090506149fa565b8160018114614962576002811461496c5761499b565b60019150506149fa565b60ff84111561497e5761497d614b8e565b5b8360020a91508482111561499557614994614b8e565b5b506149fa565b5060208310610133831016604e8410600b84101617156149d05782820a9050838111156149cb576149ca614b8e565b5b6149fa565b6149dd8484846001614890565b925090508184048111156149f4576149f3614b8e565b5b81810290505b9392505050565b6000614a0c82614adf565b9150614a1783614adf565b9250817fffffffffffffffffffffffffffffffffffffffffffffffffffffffffffffffff0483118215151615614a5057614a4f614b8e565b5b828202905092915050565b6000614a6682614adf565b9150614a7183614adf565b925082821015614a8457614a83614b8e565b5b828203905092915050565b6000614a9a82614abf565b9050919050565b6000614aac82614abf565b9050919050565b60008115159050919050565b600073ffffffffffffffffffffffffffffffffffffffff82169050919050565b6000819050919050565b600060ff82169050919050565b6000614b0182614b08565b9050919050565b6000614b1382614abf565b9050919050565b82818337600083830152505050565b60005b83811015614b47578082015181840152602081019050614b2c565b83811115614b56576000848401525b50505050565b60006002820490506001821680614b7457607f821691505b60208210811415614b8857614b87614bec565b5b50919050565b7f4e487b7100000000000000000000000000000000000000000000000000000000600052601160045260246000fd5b7f4e487b7100000000000000000000000000000000000000000000000000000000600052601260045260246000fd5b7f4e487b7100000000000000000000000000000000000000000000000000000000600052602260045260246000fd5b7f4e487b7100000000000000000000000000000000000000000000000000000000600052604160045260246000fd5b6000601f19601f8301169050919050565b60008160011c9050919050565b614c7181614a8f565b8114614c7c57600080fd5b50565b614c8881614aa1565b8114614c9357600080fd5b50565b614c9f81614ab3565b8114614caa57600080fd5b50565b614cb681614adf565b8114614cc157600080fd5b50565b614ccd81614ae9565b8114614cd857600080fd5b5056fea2646970667358221220c1ef99d90f9edc895dda3e4d0971156ebde9cbecc4eab1939cbd6b0472d6e2a364736f6c63430008000033",
  "linkReferences": {},
  "deployedLinkReferences": {}
}