{
  "_format": "hh-sol-artifact-1",
  "contractName": "PayrollHandler",
  "sourceName": "contracts/dev3/payrollhandler/PayrollHandler.sol",
  "abi": [
    {
      "inputs": [
        {
          "internalType": "address",
          "name": "owner",
          "type": "address"
        }
      ],
      "stateMutability": "nonpayable",
      "type": "constructor"
    },
    {
      "anonymous": false,
      "inputs": [
        {
          "indexed": false,
          "internalType": "address",
          "name": "payee",
          "type": "address"
        }
      ],
      "name": "AddPayroll",
      "type": "event"
    },
    {
      "anonymous": false,
      "inputs": [
        {
          "indexed": false,
          "internalType": "address",
          "name": "payee",
          "type": "address"
        }
      ],
      "name": "Claim",
      "type": "event"
    },
    {
      "anonymous": false,
      "inputs": [
        {
          "indexed": false,
          "internalType": "address",
          "name": "token",
          "type": "address"
        },
        {
          "indexed": false,
          "internalType": "uint256",
          "name": "amount",
          "type": "uint256"
        }
      ],
      "name": "DrainToken",
      "type": "event"
    },
    {
      "anonymous": false,
      "inputs": [
        {
          "indexed": true,
          "internalType": "address",
          "name": "previousOwner",
          "type": "address"
        },
        {
          "indexed": true,
          "internalType": "address",
          "name": "newOwner",
          "type": "address"
        }
      ],
      "name": "OwnershipTransferred",
      "type": "event"
    },
    {
      "anonymous": false,
      "inputs": [
        {
          "indexed": false,
          "internalType": "address",
          "name": "payee",
          "type": "address"
        }
      ],
      "name": "RemovePayroll",
      "type": "event"
    },
    {
      "inputs": [
        {
          "components": [
            {
              "internalType": "address",
              "name": "receiver",
              "type": "address"
            },
            {
              "internalType": "address",
              "name": "token",
              "type": "address"
            },
            {
              "internalType": "uint256",
              "name": "amount",
              "type": "uint256"
            },
            {
              "internalType": "uint256",
              "name": "periodBasis",
              "type": "uint256"
            },
            {
              "internalType": "uint256",
              "name": "lastReceivedTimestamp",
              "type": "uint256"
            }
          ],
          "internalType": "struct PayrollHandler.PayrollEntry[]",
          "name": "_payrolls",
          "type": "tuple[]"
        }
      ],
      "name": "addPayrolls",
      "outputs": [],
      "stateMutability": "nonpayable",
      "type": "function"
    },
    {
      "inputs": [
        {
          "internalType": "address[]",
          "name": "payees",
          "type": "address[]"
        }
      ],
      "name": "claim",
      "outputs": [],
      "stateMutability": "nonpayable",
      "type": "function"
    },
    {
      "inputs": [
        {
          "internalType": "address",
          "name": "tokenAddress",
          "type": "address"
        }
      ],
      "name": "drain",
      "outputs": [],
      "stateMutability": "nonpayable",
      "type": "function"
    },
    {
      "inputs": [],
      "name": "owner",
      "outputs": [
        {
          "internalType": "address",
          "name": "",
          "type": "address"
        }
      ],
      "stateMutability": "view",
      "type": "function"
    },
    {
      "inputs": [
        {
          "internalType": "address[]",
          "name": "payees",
          "type": "address[]"
        }
      ],
      "name": "removePayrolls",
      "outputs": [],
      "stateMutability": "nonpayable",
      "type": "function"
    },
    {
      "inputs": [],
      "name": "renounceOwnership",
      "outputs": [],
      "stateMutability": "nonpayable",
      "type": "function"
    },
    {
      "inputs": [
        {
          "internalType": "address",
          "name": "newOwner",
          "type": "address"
        }
      ],
      "name": "transferOwnership",
      "outputs": [],
      "stateMutability": "nonpayable",
      "type": "function"
    }
  ],
  "bytecode": "0x60806040523480156200001157600080fd5b506040516200164438038062001644833981810160405281019062000037919062000152565b620000576200004b6200006f60201b60201c565b6200007760201b60201c565b62000068816200007760201b60201c565b50620001cc565b600033905090565b60008060009054906101000a900473ffffffffffffffffffffffffffffffffffffffff169050816000806101000a81548173ffffffffffffffffffffffffffffffffffffffff021916908373ffffffffffffffffffffffffffffffffffffffff1602179055508173ffffffffffffffffffffffffffffffffffffffff168173ffffffffffffffffffffffffffffffffffffffff167f8be0079c531659141344cd1fd0a4f28419497f9722a3daafe3b4186f6b6457e060405160405180910390a35050565b6000815190506200014c81620001b2565b92915050565b6000602082840312156200016557600080fd5b600062000175848285016200013b565b91505092915050565b60006200018b8262000192565b9050919050565b600073ffffffffffffffffffffffffffffffffffffffff82169050919050565b620001bd816200017e565b8114620001c957600080fd5b50565b61146880620001dc6000396000f3fe608060405234801561001057600080fd5b506004361061007d5760003560e01c80638da5cb5b1161005b5780638da5cb5b146100c4578063ece53132146100e2578063f2fde38b146100fe578063f6e965d21461011a5761007d565b8063318d9e5d1461008257806361c513d61461009e578063715018a6146100ba575b600080fd5b61009c60048036038101906100979190610f0c565b610136565b005b6100b860048036038101906100b39190610f0c565b6101a2565b005b6100c2610366565b005b6100cc6103ee565b6040516100d9919061114a565b60405180910390f35b6100fc60048036038101906100f79190610ee3565b610417565b005b61011860048036038101906101139190610ee3565b6105fb565b005b610134600480360381019061012f9190610f4d565b6106f3565b005b60005b815181101561019e5761018b82828151811061017e577f4e487b7100000000000000000000000000000000000000000000000000000000600052603260045260246000fd5b6020026020010151610942565b808061019690611346565b915050610139565b5050565b6101aa610c0f565b73ffffffffffffffffffffffffffffffffffffffff166101c86103ee565b73ffffffffffffffffffffffffffffffffffffffff161461021e576040517f08c379a0000000000000000000000000000000000000000000000000000000008152600401610215906111ae565b60405180910390fd5b60005b8151811015610362576000828281518110610265577f4e487b7100000000000000000000000000000000000000000000000000000000600052603260045260246000fd5b60200260200101519050600160008273ffffffffffffffffffffffffffffffffffffffff1673ffffffffffffffffffffffffffffffffffffffff168152602001908152602001600020600080820160006101000a81549073ffffffffffffffffffffffffffffffffffffffff02191690556001820160006101000a81549073ffffffffffffffffffffffffffffffffffffffff021916905560028201600090556003820160009055600482016000905550507f854f9aaa9ec52bdabc1fb5188e180a1ac8369692c7bf8c12c54c126f658df6b881604051610346919061114a565b60405180910390a150808061035a90611346565b915050610221565b5050565b61036e610c0f565b73ffffffffffffffffffffffffffffffffffffffff1661038c6103ee565b73ffffffffffffffffffffffffffffffffffffffff16146103e2576040517f08c379a00000000000000000000000000000000000000000000000000000000081526004016103d9906111ae565b60405180910390fd5b6103ec6000610c17565b565b60008060009054906101000a900473ffffffffffffffffffffffffffffffffffffffff16905090565b61041f610c0f565b73ffffffffffffffffffffffffffffffffffffffff1661043d6103ee565b73ffffffffffffffffffffffffffffffffffffffff1614610493576040517f08c379a000000000000000000000000000000000000000000000000000000000815260040161048a906111ae565b60405180910390fd5b600081905060008173ffffffffffffffffffffffffffffffffffffffff166370a08231306040518263ffffffff1660e01b81526004016104d3919061114a565b60206040518083038186803b1580156104eb57600080fd5b505afa1580156104ff573d6000803e3d6000fd5b505050506040513d601f19601f820116820180604052508101906105239190610fb7565b905060008111156105f6578173ffffffffffffffffffffffffffffffffffffffff1663a9059cbb33836040518363ffffffff1660e01b8152600401610569929190611165565b602060405180830381600087803b15801561058357600080fd5b505af1158015610597573d6000803e3d6000fd5b505050506040513d601f19601f820116820180604052508101906105bb9190610f8e565b507fac6572a44b29fc3e82672a2d68efd9bd694204ee2274bc37ee5c4cebcf3fa1ef83826040516105ed929190611165565b60405180910390a15b505050565b610603610c0f565b73ffffffffffffffffffffffffffffffffffffffff166106216103ee565b73ffffffffffffffffffffffffffffffffffffffff1614610677576040517f08c379a000000000000000000000000000000000000000000000000000000000815260040161066e906111ae565b60405180910390fd5b600073ffffffffffffffffffffffffffffffffffffffff168173ffffffffffffffffffffffffffffffffffffffff1614156106e7576040517f08c379a00000000000000000000000000000000000000000000000000000000081526004016106de9061118e565b60405180910390fd5b6106f081610c17565b50565b6106fb610c0f565b73ffffffffffffffffffffffffffffffffffffffff166107196103ee565b73ffffffffffffffffffffffffffffffffffffffff161461076f576040517f08c379a0000000000000000000000000000000000000000000000000000000008152600401610766906111ae565b60405180910390fd5b60005b815181101561093e5760008282815181106107b6577f4e487b7100000000000000000000000000000000000000000000000000000000600052603260045260246000fd5b60200260200101516000015190508282815181106107fd577f4e487b7100000000000000000000000000000000000000000000000000000000600052603260045260246000fd5b6020026020010151600160008373ffffffffffffffffffffffffffffffffffffffff1673ffffffffffffffffffffffffffffffffffffffff16815260200190815260200160002060008201518160000160006101000a81548173ffffffffffffffffffffffffffffffffffffffff021916908373ffffffffffffffffffffffffffffffffffffffff16021790555060208201518160010160006101000a81548173ffffffffffffffffffffffffffffffffffffffff021916908373ffffffffffffffffffffffffffffffffffffffff1602179055506040820151816002015560608201518160030155608082015181600401559050507f41040456c87f532d4de0473688f2c89c8a6314bbbeaaa5099ecdae8551fedd8b81604051610922919061114a565b60405180910390a150808061093690611346565b915050610772565b5050565b6000600160008373ffffffffffffffffffffffffffffffffffffffff1673ffffffffffffffffffffffffffffffffffffffff1681526020019081526020016000206040518060a00160405290816000820160009054906101000a900473ffffffffffffffffffffffffffffffffffffffff1673ffffffffffffffffffffffffffffffffffffffff1673ffffffffffffffffffffffffffffffffffffffff1681526020016001820160009054906101000a900473ffffffffffffffffffffffffffffffffffffffff1673ffffffffffffffffffffffffffffffffffffffff1673ffffffffffffffffffffffffffffffffffffffff168152602001600282015481526020016003820154815260200160048201548152505090508173ffffffffffffffffffffffffffffffffffffffff16816000015173ffffffffffffffffffffffffffffffffffffffff1614610acc576040517f08c379a0000000000000000000000000000000000000000000000000000000008152600401610ac3906111ee565b60405180910390fd5b80606001518160800151610ae091906112a8565b4211610b21576040517f08c379a0000000000000000000000000000000000000000000000000000000008152600401610b18906111ce565b60405180910390fd5b806060015181608001818151610b3791906112a8565b91508181525050806020015173ffffffffffffffffffffffffffffffffffffffff1663a9059cbb8383604001516040518363ffffffff1660e01b8152600401610b81929190611165565b602060405180830381600087803b158015610b9b57600080fd5b505af1158015610baf573d6000803e3d6000fd5b505050506040513d601f19601f82011682018060405250810190610bd39190610f8e565b507f0c7ef932d3b91976772937f18d5ef9b39a9930bef486b576c374f047c4b512dc82604051610c03919061114a565b60405180910390a15050565b600033905090565b60008060009054906101000a900473ffffffffffffffffffffffffffffffffffffffff169050816000806101000a81548173ffffffffffffffffffffffffffffffffffffffff021916908373ffffffffffffffffffffffffffffffffffffffff1602179055508173ffffffffffffffffffffffffffffffffffffffff168173ffffffffffffffffffffffffffffffffffffffff167f8be0079c531659141344cd1fd0a4f28419497f9722a3daafe3b4186f6b6457e060405160405180910390a35050565b6000610cee610ce98461123f565b61120e565b90508083825260208201905082856020860282011115610d0d57600080fd5b60005b85811015610d3d5781610d238882610db3565b845260208401935060208301925050600181019050610d10565b5050509392505050565b6000610d5a610d558461126b565b61120e565b905080838252602082019050828560a0860282011115610d7957600080fd5b60005b85811015610da95781610d8f8882610e31565b845260208401935060a08301925050600181019050610d7c565b5050509392505050565b600081359050610dc2816113ed565b92915050565b600082601f830112610dd957600080fd5b8135610de9848260208601610cdb565b91505092915050565b600082601f830112610e0357600080fd5b8135610e13848260208601610d47565b91505092915050565b600081519050610e2b81611404565b92915050565b600060a08284031215610e4357600080fd5b610e4d60a061120e565b90506000610e5d84828501610db3565b6000830152506020610e7184828501610db3565b6020830152506040610e8584828501610eb9565b6040830152506060610e9984828501610eb9565b6060830152506080610ead84828501610eb9565b60808301525092915050565b600081359050610ec88161141b565b92915050565b600081519050610edd8161141b565b92915050565b600060208284031215610ef557600080fd5b6000610f0384828501610db3565b91505092915050565b600060208284031215610f1e57600080fd5b600082013567ffffffffffffffff811115610f3857600080fd5b610f4484828501610dc8565b91505092915050565b600060208284031215610f5f57600080fd5b600082013567ffffffffffffffff811115610f7957600080fd5b610f8584828501610df2565b91505092915050565b600060208284031215610fa057600080fd5b6000610fae84828501610e1c565b91505092915050565b600060208284031215610fc957600080fd5b6000610fd784828501610ece565b91505092915050565b610fe9816112fe565b82525050565b6000610ffc602683611297565b91507f4f776e61626c653a206e6577206f776e657220697320746865207a65726f206160008301527f64647265737300000000000000000000000000000000000000000000000000006020830152604082019050919050565b6000611062602083611297565b91507f4f776e61626c653a2063616c6c6572206973206e6f7420746865206f776e65726000830152602082019050919050565b60006110a2602683611297565b91507f506179726f6c6c3a206e657874207061796d656e74206e6f742079657420756e60008301527f6c6f636b642100000000000000000000000000000000000000000000000000006020830152604082019050919050565b6000611108601883611297565b91507f506179726f6c6c3a20646f6573206e6f742065786973742100000000000000006000830152602082019050919050565b6111448161133c565b82525050565b600060208201905061115f6000830184610fe0565b92915050565b600060408201905061117a6000830185610fe0565b611187602083018461113b565b9392505050565b600060208201905081810360008301526111a781610fef565b9050919050565b600060208201905081810360008301526111c781611055565b9050919050565b600060208201905081810360008301526111e781611095565b9050919050565b60006020820190508181036000830152611207816110fb565b9050919050565b6000604051905081810181811067ffffffffffffffff82111715611235576112346113be565b5b8060405250919050565b600067ffffffffffffffff82111561125a576112596113be565b5b602082029050602081019050919050565b600067ffffffffffffffff821115611286576112856113be565b5b602082029050602081019050919050565b600082825260208201905092915050565b60006112b38261133c565b91506112be8361133c565b9250827fffffffffffffffffffffffffffffffffffffffffffffffffffffffffffffffff038211156112f3576112f261138f565b5b828201905092915050565b60006113098261131c565b9050919050565b60008115159050919050565b600073ffffffffffffffffffffffffffffffffffffffff82169050919050565b6000819050919050565b60006113518261133c565b91507fffffffffffffffffffffffffffffffffffffffffffffffffffffffffffffffff8214156113845761138361138f565b5b600182019050919050565b7f4e487b7100000000000000000000000000000000000000000000000000000000600052601160045260246000fd5b7f4e487b7100000000000000000000000000000000000000000000000000000000600052604160045260246000fd5b6113f6816112fe565b811461140157600080fd5b50565b61140d81611310565b811461141857600080fd5b50565b6114248161133c565b811461142f57600080fd5b5056fea26469706673582212203b55d342efc4da3e8b8b67fda5c790c44ee52fe6af0017e63008c5994cafd35964736f6c63430008000033",
  "linkReferences": {},
  "deployedLinkReferences": {}
}