{
  "_format": "hh-sol-artifact-1",
  "contractName": "KNN3ProfileClient",
  "sourceName": "contracts/KNN3ProfileClient.sol",
  "abi": [
    {
      "inputs": [
        {
          "internalType": "address",
          "name": "linkTokenAddress",
          "type": "address"
        }
      ],
      "stateMutability": "nonpayable",
      "type": "constructor"
    },
    {
      "anonymous": false,
      "inputs": [
        {
          "indexed": true,
          "internalType": "bytes32",
          "name": "id",
          "type": "bytes32"
        }
      ],
      "name": "ChainlinkCancelled",
      "type": "event"
    },
    {
      "anonymous": false,
      "inputs": [
        {
          "indexed": true,
          "internalType": "bytes32",
          "name": "id",
          "type": "bytes32"
        }
      ],
      "name": "ChainlinkFulfilled",
      "type": "event"
    },
    {
      "anonymous": false,
      "inputs": [
        {
          "indexed": true,
          "internalType": "bytes32",
          "name": "id",
          "type": "bytes32"
        }
      ],
      "name": "ChainlinkRequested",
      "type": "event"
    },
    {
      "anonymous": false,
      "inputs": [
        {
          "indexed": true,
          "internalType": "address",
          "name": "from",
          "type": "address"
        },
        {
          "indexed": true,
          "internalType": "address",
          "name": "to",
          "type": "address"
        }
      ],
      "name": "OwnershipTransferRequested",
      "type": "event"
    },
    {
      "anonymous": false,
      "inputs": [
        {
          "indexed": true,
          "internalType": "address",
          "name": "from",
          "type": "address"
        },
        {
          "indexed": true,
          "internalType": "address",
          "name": "to",
          "type": "address"
        }
      ],
      "name": "OwnershipTransferred",
      "type": "event"
    },
    {
      "anonymous": false,
      "inputs": [
        {
          "indexed": true,
          "internalType": "bytes32",
          "name": "requestId",
          "type": "bytes32"
        },
        {
          "indexed": false,
          "internalType": "address[]",
          "name": "user",
          "type": "address[]"
        },
        {
          "indexed": false,
          "internalType": "address[]",
          "name": "addr",
          "type": "address[]"
        },
        {
          "indexed": false,
          "internalType": "string[]",
          "name": "ens",
          "type": "string[]"
        },
        {
          "indexed": false,
          "internalType": "string[]",
          "name": "twitter_name",
          "type": "string[]"
        }
      ],
      "name": "RequestBasicProfileFulfilled",
      "type": "event"
    },
    {
      "anonymous": false,
      "inputs": [
        {
          "indexed": true,
          "internalType": "bytes32",
          "name": "requestId",
          "type": "bytes32"
        },
        {
          "indexed": false,
          "internalType": "address[]",
          "name": "user",
          "type": "address[]"
        },
        {
          "indexed": false,
          "internalType": "string[]",
          "name": "snapshot",
          "type": "string[]"
        },
        {
          "indexed": false,
          "internalType": "string[]",
          "name": "snapshot_link",
          "type": "string[]"
        }
      ],
      "name": "RequestGovernanceFulfilled",
      "type": "event"
    },
    {
      "anonymous": false,
      "inputs": [
        {
          "indexed": true,
          "internalType": "bytes32",
          "name": "requestId",
          "type": "bytes32"
        },
        {
          "indexed": false,
          "internalType": "address[]",
          "name": "user",
          "type": "address[]"
        },
        {
          "indexed": false,
          "internalType": "string[]",
          "name": "follower",
          "type": "string[]"
        },
        {
          "indexed": false,
          "internalType": "string[]",
          "name": "following",
          "type": "string[]"
        }
      ],
      "name": "RequestSocialStatusFulfilled",
      "type": "event"
    },
    {
      "anonymous": false,
      "inputs": [
        {
          "indexed": true,
          "internalType": "bytes32",
          "name": "requestId",
          "type": "bytes32"
        },
        {
          "indexed": false,
          "internalType": "address[]",
          "name": "user",
          "type": "address[]"
        },
        {
          "indexed": false,
          "internalType": "string[]",
          "name": "if_staking",
          "type": "string[]"
        },
        {
          "indexed": false,
          "internalType": "string[]",
          "name": "nft",
          "type": "string[]"
        },
        {
          "indexed": false,
          "internalType": "string[]",
          "name": "nft_link",
          "type": "string[]"
        }
      ],
      "name": "RequestassetsAndDefiFulfilled",
      "type": "event"
    },
    {
      "inputs": [
        {
          "internalType": "address",
          "name": "",
          "type": "address"
        }
      ],
      "name": "AssetsAndDefiData",
      "outputs": [
        {
          "internalType": "string",
          "name": "if_staking",
          "type": "string"
        },
        {
          "internalType": "string",
          "name": "nft",
          "type": "string"
        },
        {
          "internalType": "string",
          "name": "nft_link",
          "type": "string"
        },
        {
          "internalType": "uint256",
          "name": "update_time",
          "type": "uint256"
        }
      ],
      "stateMutability": "view",
      "type": "function"
    },
    {
      "inputs": [
        {
          "internalType": "address",
          "name": "",
          "type": "address"
        }
      ],
      "name": "BasicProfileData",
      "outputs": [
        {
          "internalType": "address",
          "name": "addr",
          "type": "address"
        },
        {
          "internalType": "string",
          "name": "ens",
          "type": "string"
        },
        {
          "internalType": "string",
          "name": "twitter_name",
          "type": "string"
        },
        {
          "internalType": "uint256",
          "name": "update_time",
          "type": "uint256"
        }
      ],
      "stateMutability": "view",
      "type": "function"
    },
    {
      "inputs": [
        {
          "internalType": "address",
          "name": "",
          "type": "address"
        }
      ],
      "name": "GovernanceData",
      "outputs": [
        {
          "internalType": "string",
          "name": "snapshot",
          "type": "string"
        },
        {
          "internalType": "string",
          "name": "snapshot_link",
          "type": "string"
        },
        {
          "internalType": "uint256",
          "name": "update_time",
          "type": "uint256"
        }
      ],
      "stateMutability": "view",
      "type": "function"
    },
    {
      "inputs": [
        {
          "internalType": "address",
          "name": "",
          "type": "address"
        }
      ],
      "name": "SocialStatusData",
      "outputs": [
        {
          "internalType": "string",
          "name": "follower",
          "type": "string"
        },
        {
          "internalType": "string",
          "name": "following",
          "type": "string"
        },
        {
          "internalType": "uint256",
          "name": "update_time",
          "type": "uint256"
        }
      ],
      "stateMutability": "view",
      "type": "function"
    },
    {
      "inputs": [],
      "name": "acceptOwnership",
      "outputs": [],
      "stateMutability": "nonpayable",
      "type": "function"
    },
    {
      "inputs": [
        {
          "internalType": "bytes32",
          "name": "_requestId",
          "type": "bytes32"
        },
        {
          "internalType": "uint256",
          "name": "_payment",
          "type": "uint256"
        },
        {
          "internalType": "bytes4",
          "name": "_callbackFunctionId",
          "type": "bytes4"
        },
        {
          "internalType": "uint256",
          "name": "_expiration",
          "type": "uint256"
        }
      ],
      "name": "cancelRequest",
      "outputs": [],
      "stateMutability": "nonpayable",
      "type": "function"
    },
    {
      "inputs": [
        {
          "internalType": "bytes32",
          "name": "_requestId",
          "type": "bytes32"
        },
        {
          "internalType": "address[]",
          "name": "user",
          "type": "address[]"
        },
        {
          "internalType": "string[]",
          "name": "if_staking",
          "type": "string[]"
        },
        {
          "internalType": "string[]",
          "name": "nft",
          "type": "string[]"
        },
        {
          "internalType": "string[]",
          "name": "nft_link",
          "type": "string[]"
        }
      ],
      "name": "fulfillAssetsAndDefi",
      "outputs": [],
      "stateMutability": "nonpayable",
      "type": "function"
    },
    {
      "inputs": [
        {
          "internalType": "bytes32",
          "name": "_requestId",
          "type": "bytes32"
        },
        {
          "internalType": "address[]",
          "name": "user",
          "type": "address[]"
        },
        {
          "internalType": "address[]",
          "name": "addr",
          "type": "address[]"
        },
        {
          "internalType": "string[]",
          "name": "ens",
          "type": "string[]"
        },
        {
          "internalType": "string[]",
          "name": "twitter_name",
          "type": "string[]"
        }
      ],
      "name": "fulfillBasicProfile",
      "outputs": [],
      "stateMutability": "nonpayable",
      "type": "function"
    },
    {
      "inputs": [
        {
          "internalType": "bytes32",
          "name": "_requestId",
          "type": "bytes32"
        },
        {
          "internalType": "address[]",
          "name": "user",
          "type": "address[]"
        },
        {
          "internalType": "string[]",
          "name": "snapshot",
          "type": "string[]"
        },
        {
          "internalType": "string[]",
          "name": "snapshot_link",
          "type": "string[]"
        }
      ],
      "name": "fulfillGovernance",
      "outputs": [],
      "stateMutability": "nonpayable",
      "type": "function"
    },
    {
      "inputs": [
        {
          "internalType": "bytes32",
          "name": "_requestId",
          "type": "bytes32"
        },
        {
          "internalType": "address[]",
          "name": "user",
          "type": "address[]"
        },
        {
          "internalType": "string[]",
          "name": "follower",
          "type": "string[]"
        },
        {
          "internalType": "string[]",
          "name": "following",
          "type": "string[]"
        }
      ],
      "name": "fulfillSocialStatus",
      "outputs": [],
      "stateMutability": "nonpayable",
      "type": "function"
    },
    {
      "inputs": [],
      "name": "getChainlinkToken",
      "outputs": [
        {
          "internalType": "address",
          "name": "",
          "type": "address"
        }
      ],
      "stateMutability": "view",
      "type": "function"
    },
    {
      "inputs": [],
      "name": "owner",
      "outputs": [
        {
          "internalType": "address",
          "name": "",
          "type": "address"
        }
      ],
      "stateMutability": "view",
      "type": "function"
    },
    {
      "inputs": [
        {
          "internalType": "address",
          "name": "_oracle",
          "type": "address"
        },
        {
          "internalType": "string",
          "name": "_jobId",
          "type": "string"
        }
      ],
      "name": "requestAssetsAndDefi",
      "outputs": [],
      "stateMutability": "nonpayable",
      "type": "function"
    },
    {
      "inputs": [
        {
          "internalType": "address",
          "name": "_oracle",
          "type": "address"
        },
        {
          "internalType": "string",
          "name": "_jobId",
          "type": "string"
        }
      ],
      "name": "requestBasicProfile",
      "outputs": [],
      "stateMutability": "nonpayable",
      "type": "function"
    },
    {
      "inputs": [
        {
          "internalType": "address",
          "name": "_oracle",
          "type": "address"
        },
        {
          "internalType": "string",
          "name": "_jobId",
          "type": "string"
        }
      ],
      "name": "requestGovernance",
      "outputs": [],
      "stateMutability": "nonpayable",
      "type": "function"
    },
    {
      "inputs": [
        {
          "internalType": "address",
          "name": "_oracle",
          "type": "address"
        },
        {
          "internalType": "string",
          "name": "_jobId",
          "type": "string"
        }
      ],
      "name": "requestSocialStatus",
      "outputs": [],
      "stateMutability": "nonpayable",
      "type": "function"
    },
    {
      "inputs": [
        {
          "internalType": "address",
          "name": "to",
          "type": "address"
        }
      ],
      "name": "transferOwnership",
      "outputs": [],
      "stateMutability": "nonpayable",
      "type": "function"
    },
    {
      "inputs": [],
      "name": "withdrawLink",
      "outputs": [],
      "stateMutability": "nonpayable",
      "type": "function"
    }
  ],
  "bytecode": "0x608060405260016004553480156200001657600080fd5b50604051620038183803806200381883398181016040528101906200003c9190620002e2565b338060008073ffffffffffffffffffffffffffffffffffffffff168273ffffffffffffffffffffffffffffffffffffffff161415620000b2576040517f08c379a0000000000000000000000000000000000000000000000000000000008152600401620000a99062000362565b60405180910390fd5b81600660006101000a81548173ffffffffffffffffffffffffffffffffffffffff021916908373ffffffffffffffffffffffffffffffffffffffff160217905550600073ffffffffffffffffffffffffffffffffffffffff168173ffffffffffffffffffffffffffffffffffffffff16146200013a5762000139816200015560201b60201c565b5b5050506200014e816200028760201b60201c565b506200045c565b3373ffffffffffffffffffffffffffffffffffffffff168173ffffffffffffffffffffffffffffffffffffffff161415620001c7576040517f08c379a0000000000000000000000000000000000000000000000000000000008152600401620001be9062000384565b60405180910390fd5b80600760006101000a81548173ffffffffffffffffffffffffffffffffffffffff021916908373ffffffffffffffffffffffffffffffffffffffff1602179055508073ffffffffffffffffffffffffffffffffffffffff16600660009054906101000a900473ffffffffffffffffffffffffffffffffffffffff1673ffffffffffffffffffffffffffffffffffffffff167fed8889f560326eb138920d842192f0eb3dd22b4f139c87a2c57538e05bae127860405160405180910390a350565b80600260006101000a81548173ffffffffffffffffffffffffffffffffffffffff021916908373ffffffffffffffffffffffffffffffffffffffff16021790555050565b600081519050620002dc8162000442565b92915050565b600060208284031215620002fb57620002fa620003eb565b5b60006200030b84828501620002cb565b91505092915050565b600062000323601883620003a6565b91506200033082620003f0565b602082019050919050565b60006200034a601783620003a6565b9150620003578262000419565b602082019050919050565b600060208201905081810360008301526200037d8162000314565b9050919050565b600060208201905081810360008301526200039f816200033b565b9050919050565b600082825260208201905092915050565b6000620003c482620003cb565b9050919050565b600073ffffffffffffffffffffffffffffffffffffffff82169050919050565b600080fd5b7f43616e6e6f7420736574206f776e657220746f207a65726f0000000000000000600082015250565b7f43616e6e6f74207472616e7366657220746f2073656c66000000000000000000600082015250565b6200044d81620003b7565b81146200045957600080fd5b50565b6133ac806200046c6000396000f3fe608060405234801561001057600080fd5b50600436106101165760003560e01c80638da5cb5b116100a2578063bd64909e11610071578063bd64909e146102ab578063ec65d0f8146102c7578063f08bf46b146102e3578063f2fde38b14610315578063ffa866391461033157610116565b80638da5cb5b1461024b5780638dc654a2146102695780639b78679b14610273578063a92b37da1461028f57610116565b8063228c1043116100e9578063228c1043146101a357806331bb191b146101bf5780635b4e842a146101f257806379ba50971461020e57806386674f751461021857610116565b806309264b571461011b5780630f9467041461013757806311e23e3614610153578063165d35e114610185575b600080fd5b610135600480360381019061013091906123ff565b61034d565b005b610151600480360381019061014c91906121d0565b6105e4565b005b61016d600480360381019061016891906121a3565b61061c565b60405161017c93929190612ba6565b60405180910390f35b61018d610756565b60405161019a919061289f565b60405180910390f35b6101bd60048036038101906101b89190612259565b610765565b005b6101d960048036038101906101d491906121a3565b610a3c565b6040516101e99493929190612b4c565b60405180910390f35b61020c600480360381019061020791906121d0565b610c04565b005b610216610c3c565b005b610232600480360381019061022d91906121a3565b610dd3565b60405161024294939291906128ba565b60405180910390f35b610253610f33565b604051610260919061289f565b60405180910390f35b610271610f5d565b005b61028d600480360381019061028891906121d0565b6110c8565b005b6102a960048036038101906102a491906121d0565b611100565b005b6102c560048036038101906102c09190612344565b611138565b005b6102e160048036038101906102dc91906124ea565b61138f565b005b6102fd60048036038101906102f891906121a3565b6113a9565b60405161030c93929190612ba6565b60405180910390f35b61032f600480360381019061032a91906121a3565b6114e3565b005b61034b60048036038101906103469190612344565b6114f7565b005b846005600082815260200190815260200160002060009054906101000a900473ffffffffffffffffffffffffffffffffffffffff1673ffffffffffffffffffffffffffffffffffffffff163373ffffffffffffffffffffffffffffffffffffffff16146103ef576040517f08c379a00000000000000000000000000000000000000000000000000000000081526004016103e690612c8b565b60405180910390fd5b6005600082815260200190815260200160002060006101000a81549073ffffffffffffffffffffffffffffffffffffffff0219169055807f7cc135e0cebb02c3480ae5d74d377283180a2601f8f644edf7987b009316c63a60405160405180910390a2857f190e9b64f1efaed6dbc984dcd0949066aa2e3f50081e4de12d53137717bc88ae868686866040516104889493929190612aa6565b60405180910390a260005b85518110156105db5760405180608001604052808683815181106104ba576104b961312c565b5b602002602001015181526020018583815181106104da576104d961312c565b5b602002602001015181526020018483815181106104fa576104f961312c565b5b6020026020010151815260200142815250600a60008884815181106105225761052161312c565b5b602002602001015173ffffffffffffffffffffffffffffffffffffffff1673ffffffffffffffffffffffffffffffffffffffff1681526020019081526020016000206000820151816000019080519060200190610580929190611e31565b50602082015181600101908051906020019061059d929190611e31565b5060408201518160020190805190602001906105ba929190611e31565b506060820151816003015590505080806105d390612ff7565b915050610493565b50505050505050565b6105ec61174e565b60006106086105fa836117e0565b3063ffa8663960e01b61180a565b90506106168382600a61183b565b50505050565b600b60205280600052604060002060009150905080600001805461063f90612f94565b80601f016020809104026020016040519081016040528092919081815260200182805461066b90612f94565b80156106b85780601f1061068d576101008083540402835291602001916106b8565b820191906000526020600020905b81548152906001019060200180831161069b57829003601f168201915b5050505050908060010180546106cd90612f94565b80601f01602080910402602001604051908101604052809291908181526020018280546106f990612f94565b80156107465780601f1061071b57610100808354040283529160200191610746565b820191906000526020600020905b81548152906001019060200180831161072957829003601f168201915b5050505050908060020154905083565b6000610760611907565b905090565b846005600082815260200190815260200160002060009054906101000a900473ffffffffffffffffffffffffffffffffffffffff1673ffffffffffffffffffffffffffffffffffffffff163373ffffffffffffffffffffffffffffffffffffffff1614610807576040517f08c379a00000000000000000000000000000000000000000000000000000000081526004016107fe90612c8b565b60405180910390fd5b6005600082815260200190815260200160002060006101000a81549073ffffffffffffffffffffffffffffffffffffffff0219169055807f7cc135e0cebb02c3480ae5d74d377283180a2601f8f644edf7987b009316c63a60405160405180910390a2857f11ec305b1a34bcb79f60248397d5b9fbb0f9f20311aeb84327cddfe3a64f2ebb868686866040516108a094939291906129f9565b60405180910390a260005b8551811015610a335760405180608001604052808683815181106108d2576108d161312c565b5b602002602001015173ffffffffffffffffffffffffffffffffffffffff1681526020018583815181106109085761090761312c565b5b602002602001015181526020018483815181106109285761092761312c565b5b6020026020010151815260200142815250600860008884815181106109505761094f61312c565b5b602002602001015173ffffffffffffffffffffffffffffffffffffffff1673ffffffffffffffffffffffffffffffffffffffff16815260200190815260200160002060008201518160000160006101000a81548173ffffffffffffffffffffffffffffffffffffffff021916908373ffffffffffffffffffffffffffffffffffffffff16021790555060208201518160010190805190602001906109f5929190611e31565b506040820151816002019080519060200190610a12929190611e31565b50606082015181600301559050508080610a2b90612ff7565b9150506108ab565b50505050505050565b600a602052806000526040600020600091509050806000018054610a5f90612f94565b80601f0160208091040260200160405190810160405280929190818152602001828054610a8b90612f94565b8015610ad85780601f10610aad57610100808354040283529160200191610ad8565b820191906000526020600020905b815481529060010190602001808311610abb57829003601f168201915b505050505090806001018054610aed90612f94565b80601f0160208091040260200160405190810160405280929190818152602001828054610b1990612f94565b8015610b665780601f10610b3b57610100808354040283529160200191610b66565b820191906000526020600020905b815481529060010190602001808311610b4957829003601f168201915b505050505090806002018054610b7b90612f94565b80601f0160208091040260200160405190810160405280929190818152602001828054610ba790612f94565b8015610bf45780601f10610bc957610100808354040283529160200191610bf4565b820191906000526020600020905b815481529060010190602001808311610bd757829003601f168201915b5050505050908060030154905084565b610c0c61174e565b6000610c28610c1a836117e0565b3063228c104360e01b61180a565b9050610c368382600a61183b565b50505050565b600760009054906101000a900473ffffffffffffffffffffffffffffffffffffffff1673ffffffffffffffffffffffffffffffffffffffff163373ffffffffffffffffffffffffffffffffffffffff1614610ccc576040517f08c379a0000000000000000000000000000000000000000000000000000000008152600401610cc390612beb565b60405180910390fd5b6000600660009054906101000a900473ffffffffffffffffffffffffffffffffffffffff16905033600660006101000a81548173ffffffffffffffffffffffffffffffffffffffff021916908373ffffffffffffffffffffffffffffffffffffffff1602179055506000600760006101000a81548173ffffffffffffffffffffffffffffffffffffffff021916908373ffffffffffffffffffffffffffffffffffffffff1602179055503373ffffffffffffffffffffffffffffffffffffffff168173ffffffffffffffffffffffffffffffffffffffff167f8be0079c531659141344cd1fd0a4f28419497f9722a3daafe3b4186f6b6457e060405160405180910390a350565b60086020528060005260406000206000915090508060000160009054906101000a900473ffffffffffffffffffffffffffffffffffffffff1690806001018054610e1c90612f94565b80601f0160208091040260200160405190810160405280929190818152602001828054610e4890612f94565b8015610e955780601f10610e6a57610100808354040283529160200191610e95565b820191906000526020600020905b815481529060010190602001808311610e7857829003601f168201915b505050505090806002018054610eaa90612f94565b80601f0160208091040260200160405190810160405280929190818152602001828054610ed690612f94565b8015610f235780601f10610ef857610100808354040283529160200191610f23565b820191906000526020600020905b815481529060010190602001808311610f0657829003601f168201915b5050505050908060030154905084565b6000600660009054906101000a900473ffffffffffffffffffffffffffffffffffffffff16905090565b610f6561174e565b6000610f6f611907565b90508073ffffffffffffffffffffffffffffffffffffffff1663a9059cbb338373ffffffffffffffffffffffffffffffffffffffff166370a08231306040518263ffffffff1660e01b8152600401610fc7919061289f565b60206040518083038186803b158015610fdf57600080fd5b505afa158015610ff3573d6000803e3d6000fd5b505050506040513d601f19601f820116820180604052508101906110179190612551565b6040518363ffffffff1660e01b815260040161103492919061290d565b602060405180830381600087803b15801561104e57600080fd5b505af1158015611062573d6000803e3d6000fd5b505050506040513d601f19601f82011682018060405250810190611086919061222c565b6110c5576040517f08c379a00000000000000000000000000000000000000000000000000000000081526004016110bc90612c4b565b60405180910390fd5b50565b6110d061174e565b60006110ec6110de836117e0565b306309264b5760e01b61180a565b90506110fa8382600a61183b565b50505050565b61110861174e565b6000611124611116836117e0565b3063bd64909e60e01b61180a565b90506111328382600a61183b565b50505050565b836005600082815260200190815260200160002060009054906101000a900473ffffffffffffffffffffffffffffffffffffffff1673ffffffffffffffffffffffffffffffffffffffff163373ffffffffffffffffffffffffffffffffffffffff16146111da576040517f08c379a00000000000000000000000000000000000000000000000000000000081526004016111d190612c8b565b60405180910390fd5b6005600082815260200190815260200160002060006101000a81549073ffffffffffffffffffffffffffffffffffffffff0219169055807f7cc135e0cebb02c3480ae5d74d377283180a2601f8f644edf7987b009316c63a60405160405180910390a2847f809b0cecfd2c402057b6718d217ffa2aa5bb751402f3f2b7b6ca83e9f2b7dae385858560405161127193929190612a5a565b60405180910390a260005b84518110156113875760405180606001604052808583815181106112a3576112a261312c565b5b602002602001015181526020018483815181106112c3576112c261312c565b5b6020026020010151815260200142815250600b60008784815181106112eb576112ea61312c565b5b602002602001015173ffffffffffffffffffffffffffffffffffffffff1673ffffffffffffffffffffffffffffffffffffffff1681526020019081526020016000206000820151816000019080519060200190611349929190611e31565b506020820151816001019080519060200190611366929190611e31565b5060408201518160020155905050808061137f90612ff7565b91505061127c565b505050505050565b61139761174e565b6113a384848484611931565b50505050565b60096020528060005260406000206000915090508060000180546113cc90612f94565b80601f01602080910402602001604051908101604052809291908181526020018280546113f890612f94565b80156114455780601f1061141a57610100808354040283529160200191611445565b820191906000526020600020905b81548152906001019060200180831161142857829003601f168201915b50505050509080600101805461145a90612f94565b80601f016020809104026020016040519081016040528092919081815260200182805461148690612f94565b80156114d35780601f106114a8576101008083540402835291602001916114d3565b820191906000526020600020905b8154815290600101906020018083116114b657829003601f168201915b5050505050908060020154905083565b6114eb61174e565b6114f481611a44565b50565b836005600082815260200190815260200160002060009054906101000a900473ffffffffffffffffffffffffffffffffffffffff1673ffffffffffffffffffffffffffffffffffffffff163373ffffffffffffffffffffffffffffffffffffffff1614611599576040517f08c379a000000000000000000000000000000000000000000000000000000000815260040161159090612c8b565b60405180910390fd5b6005600082815260200190815260200160002060006101000a81549073ffffffffffffffffffffffffffffffffffffffff0219169055807f7cc135e0cebb02c3480ae5d74d377283180a2601f8f644edf7987b009316c63a60405160405180910390a2847fa0cd893250ed4a07bd43d4933ada7d3118af0ee60141a28758ea2b84925e3d8f85858560405161163093929190612a5a565b60405180910390a260005b84518110156117465760405180606001604052808583815181106116625761166161312c565b5b602002602001015181526020018483815181106116825761168161312c565b5b6020026020010151815260200142815250600960008784815181106116aa576116a961312c565b5b602002602001015173ffffffffffffffffffffffffffffffffffffffff1673ffffffffffffffffffffffffffffffffffffffff1681526020019081526020016000206000820151816000019080519060200190611708929190611e31565b506020820151816001019080519060200190611725929190611e31565b5060408201518160020155905050808061173e90612ff7565b91505061163b565b505050505050565b600660009054906101000a900473ffffffffffffffffffffffffffffffffffffffff1673ffffffffffffffffffffffffffffffffffffffff163373ffffffffffffffffffffffffffffffffffffffff16146117de576040517f08c379a00000000000000000000000000000000000000000000000000000000081526004016117d590612c2b565b60405180910390fd5b565b6000808290506000815114156117fc576000801b915050611805565b60208301519150505b919050565b611812611eb7565b61181a611eb7565b61183185858584611b73909392919063ffffffff16565b9150509392505050565b60008060045490506001816118509190612e14565b6004819055506000634042994660e01b60008087600001513089604001518760018c6080015160000151604051602401611891989796959493929190612936565b604051602081830303815290604052907bffffffffffffffffffffffffffffffffffffffffffffffffffffffff19166020820180517bffffffffffffffffffffffffffffffffffffffffffffffffffffffff838183161783525050505090506118fc86838684611c23565b925050509392505050565b6000600260009054906101000a900473ffffffffffffffffffffffffffffffffffffffff16905090565b60006005600086815260200190815260200160002060009054906101000a900473ffffffffffffffffffffffffffffffffffffffff1690506005600086815260200190815260200160002060006101000a81549073ffffffffffffffffffffffffffffffffffffffff0219169055847fe1fe3afa0f7f761ff0a8b89086790efd5140d2907ebd5b7ff6bfcb5e075fd4c560405160405180910390a28073ffffffffffffffffffffffffffffffffffffffff16636ee4d553868686866040518563ffffffff1660e01b8152600401611a0b9493929190612b07565b600060405180830381600087803b158015611a2557600080fd5b505af1158015611a39573d6000803e3d6000fd5b505050505050505050565b3373ffffffffffffffffffffffffffffffffffffffff168173ffffffffffffffffffffffffffffffffffffffff161415611ab3576040517f08c379a0000000000000000000000000000000000000000000000000000000008152600401611aaa90612c6b565b60405180910390fd5b80600760006101000a81548173ffffffffffffffffffffffffffffffffffffffff021916908373ffffffffffffffffffffffffffffffffffffffff1602179055508073ffffffffffffffffffffffffffffffffffffffff16600660009054906101000a900473ffffffffffffffffffffffffffffffffffffffff1673ffffffffffffffffffffffffffffffffffffffff167fed8889f560326eb138920d842192f0eb3dd22b4f139c87a2c57538e05bae127860405160405180910390a350565b611b7b611eb7565b611b8b8560800151610100611dc7565b508385600001818152505082856020019073ffffffffffffffffffffffffffffffffffffffff16908173ffffffffffffffffffffffffffffffffffffffff16815250508185604001907bffffffffffffffffffffffffffffffffffffffffffffffffffffffff191690817bffffffffffffffffffffffffffffffffffffffffffffffffffffffff191681525050849050949350505050565b60003084604051602001611c38929190612873565b604051602081830303815290604052805190602001209050846005600083815260200190815260200160002060006101000a81548173ffffffffffffffffffffffffffffffffffffffff021916908373ffffffffffffffffffffffffffffffffffffffff160217905550807fb5e6e01e79f91267dc17b4e6314d5d4d03593d2ceee0fbb452b750bd70ea5af960405160405180910390a2600260009054906101000a900473ffffffffffffffffffffffffffffffffffffffff1673ffffffffffffffffffffffffffffffffffffffff16634000aea08685856040518463ffffffff1660e01b8152600401611d2e939291906129bb565b602060405180830381600087803b158015611d4857600080fd5b505af1158015611d5c573d6000803e3d6000fd5b505050506040513d601f19601f82011682018060405250810190611d80919061222c565b611dbf576040517f08c379a0000000000000000000000000000000000000000000000000000000008152600401611db690612c0b565b60405180910390fd5b949350505050565b611dcf611f24565b6000602083611dde919061306e565b14611e0a57602082611df0919061306e565b6020611dfc9190612e6a565b82611e079190612e14565b91505b81836020018181525050604051808452600081528281016020016040525082905092915050565b828054611e3d90612f94565b90600052602060002090601f016020900481019282611e5f5760008555611ea6565b82601f10611e7857805160ff1916838001178555611ea6565b82800160010185558215611ea6579182015b82811115611ea5578251825591602001919060010190611e8a565b5b509050611eb39190611f3e565b5090565b6040518060a0016040528060008019168152602001600073ffffffffffffffffffffffffffffffffffffffff16815260200160007bffffffffffffffffffffffffffffffffffffffffffffffffffffffff1916815260200160008152602001611f1e611f24565b81525090565b604051806040016040528060608152602001600081525090565b5b80821115611f57576000816000905550600101611f3f565b5090565b6000611f6e611f6984612cd0565b612cab565b90508083825260208201905082856020860282011115611f9157611f9061318f565b5b60005b85811015611fc15781611fa7888261209b565b845260208401935060208301925050600181019050611f94565b5050509392505050565b6000611fde611fd984612cfc565b612cab565b905080838252602082019050828560208602820111156120015761200061318f565b5b60005b8581101561204f57813567ffffffffffffffff8111156120275761202661318a565b5b808601612034898261214b565b85526020850194506020840193505050600181019050612004565b5050509392505050565b600061206c61206784612d28565b612cab565b90508281526020810184848401111561208857612087613194565b5b612093848285612f52565b509392505050565b6000813590506120aa81613303565b92915050565b600082601f8301126120c5576120c461318a565b5b81356120d5848260208601611f5b565b91505092915050565b600082601f8301126120f3576120f261318a565b5b8135612103848260208601611fcb565b91505092915050565b60008151905061211b8161331a565b92915050565b60008135905061213081613331565b92915050565b60008135905061214581613348565b92915050565b600082601f8301126121605761215f61318a565b5b8135612170848260208601612059565b91505092915050565b6000813590506121888161335f565b92915050565b60008151905061219d8161335f565b92915050565b6000602082840312156121b9576121b861319e565b5b60006121c78482850161209b565b91505092915050565b600080604083850312156121e7576121e661319e565b5b60006121f58582860161209b565b925050602083013567ffffffffffffffff81111561221657612215613199565b5b6122228582860161214b565b9150509250929050565b6000602082840312156122425761224161319e565b5b60006122508482850161210c565b91505092915050565b600080600080600060a086880312156122755761227461319e565b5b600061228388828901612121565b955050602086013567ffffffffffffffff8111156122a4576122a3613199565b5b6122b0888289016120b0565b945050604086013567ffffffffffffffff8111156122d1576122d0613199565b5b6122dd888289016120b0565b935050606086013567ffffffffffffffff8111156122fe576122fd613199565b5b61230a888289016120de565b925050608086013567ffffffffffffffff81111561232b5761232a613199565b5b612337888289016120de565b9150509295509295909350565b6000806000806080858703121561235e5761235d61319e565b5b600061236c87828801612121565b945050602085013567ffffffffffffffff81111561238d5761238c613199565b5b612399878288016120b0565b935050604085013567ffffffffffffffff8111156123ba576123b9613199565b5b6123c6878288016120de565b925050606085013567ffffffffffffffff8111156123e7576123e6613199565b5b6123f3878288016120de565b91505092959194509250565b600080600080600060a0868803121561241b5761241a61319e565b5b600061242988828901612121565b955050602086013567ffffffffffffffff81111561244a57612449613199565b5b612456888289016120b0565b945050604086013567ffffffffffffffff81111561247757612476613199565b5b612483888289016120de565b935050606086013567ffffffffffffffff8111156124a4576124a3613199565b5b6124b0888289016120de565b925050608086013567ffffffffffffffff8111156124d1576124d0613199565b5b6124dd888289016120de565b9150509295509295909350565b600080600080608085870312156125045761250361319e565b5b600061251287828801612121565b945050602061252387828801612179565b935050604061253487828801612136565b925050606061254587828801612179565b91505092959194509250565b6000602082840312156125675761256661319e565b5b60006125758482850161218e565b91505092915050565b600061258a83836125aa565b60208301905092915050565b60006125a28383612709565b905092915050565b6125b381612e9e565b82525050565b6125c281612e9e565b82525050565b60006125d382612d79565b6125dd8185612dbf565b93506125e883612d59565b8060005b83811015612619578151612600888261257e565b975061260b83612da5565b9250506001810190506125ec565b5085935050505092915050565b600061263182612d84565b61263b8185612dd0565b93508360208202850161264d85612d69565b8060005b85811015612689578484038952815161266a8582612596565b945061267583612db2565b925060208a01995050600181019050612651565b50829750879550505050505092915050565b6126a481612ebc565b82525050565b6126b381612ec6565b82525050565b60006126c482612d8f565b6126ce8185612de1565b93506126de818560208601612f61565b6126e7816131a3565b840191505092915050565b6127036126fe82612f1c565b613040565b82525050565b600061271482612d9a565b61271e8185612df2565b935061272e818560208601612f61565b612737816131a3565b840191505092915050565b600061274d82612d9a565b6127578185612e03565b9350612767818560208601612f61565b612770816131a3565b840191505092915050565b6000612788601683612e03565b9150612793826131c1565b602082019050919050565b60006127ab602383612e03565b91506127b6826131ea565b604082019050919050565b60006127ce601683612e03565b91506127d982613239565b602082019050919050565b60006127f1601283612e03565b91506127fc82613262565b602082019050919050565b6000612814601783612e03565b915061281f8261328b565b602082019050919050565b6000612837602883612e03565b9150612842826132b4565b604082019050919050565b61285681612f12565b82525050565b61286d61286882612f12565b613064565b82525050565b600061287f82856126f2565b60148201915061288f828461285c565b6020820191508190509392505050565b60006020820190506128b460008301846125b9565b92915050565b60006080820190506128cf60008301876125b9565b81810360208301526128e18186612742565b905081810360408301526128f58185612742565b9050612904606083018461284d565b95945050505050565b600060408201905061292260008301856125b9565b61292f602083018461284d565b9392505050565b60006101008201905061294c600083018b6125b9565b612959602083018a61284d565b612966604083018961269b565b61297360608301886125b9565b61298060808301876126aa565b61298d60a083018661284d565b61299a60c083018561284d565b81810360e08301526129ac81846126b9565b90509998505050505050505050565b60006060820190506129d060008301866125b9565b6129dd602083018561284d565b81810360408301526129ef81846126b9565b9050949350505050565b60006080820190508181036000830152612a1381876125c8565b90508181036020830152612a2781866125c8565b90508181036040830152612a3b8185612626565b90508181036060830152612a4f8184612626565b905095945050505050565b60006060820190508181036000830152612a7481866125c8565b90508181036020830152612a888185612626565b90508181036040830152612a9c8184612626565b9050949350505050565b60006080820190508181036000830152612ac081876125c8565b90508181036020830152612ad48186612626565b90508181036040830152612ae88185612626565b90508181036060830152612afc8184612626565b905095945050505050565b6000608082019050612b1c600083018761269b565b612b29602083018661284d565b612b3660408301856126aa565b612b43606083018461284d565b95945050505050565b60006080820190508181036000830152612b668187612742565b90508181036020830152612b7a8186612742565b90508181036040830152612b8e8185612742565b9050612b9d606083018461284d565b95945050505050565b60006060820190508181036000830152612bc08186612742565b90508181036020830152612bd48185612742565b9050612be3604083018461284d565b949350505050565b60006020820190508181036000830152612c048161277b565b9050919050565b60006020820190508181036000830152612c248161279e565b9050919050565b60006020820190508181036000830152612c44816127c1565b9050919050565b60006020820190508181036000830152612c64816127e4565b9050919050565b60006020820190508181036000830152612c8481612807565b9050919050565b60006020820190508181036000830152612ca48161282a565b9050919050565b6000612cb5612cc6565b9050612cc18282612fc6565b919050565b6000604051905090565b600067ffffffffffffffff821115612ceb57612cea61315b565b5b602082029050602081019050919050565b600067ffffffffffffffff821115612d1757612d1661315b565b5b602082029050602081019050919050565b600067ffffffffffffffff821115612d4357612d4261315b565b5b612d4c826131a3565b9050602081019050919050565b6000819050602082019050919050565b6000819050602082019050919050565b600081519050919050565b600081519050919050565b600081519050919050565b600081519050919050565b6000602082019050919050565b6000602082019050919050565b600082825260208201905092915050565b600082825260208201905092915050565b600082825260208201905092915050565b600082825260208201905092915050565b600082825260208201905092915050565b6000612e1f82612f12565b9150612e2a83612f12565b9250827fffffffffffffffffffffffffffffffffffffffffffffffffffffffffffffffff03821115612e5f57612e5e61309f565b5b828201905092915050565b6000612e7582612f12565b9150612e8083612f12565b925082821015612e9357612e9261309f565b5b828203905092915050565b6000612ea982612ef2565b9050919050565b60008115159050919050565b6000819050919050565b60007fffffffff0000000000000000000000000000000000000000000000000000000082169050919050565b600073ffffffffffffffffffffffffffffffffffffffff82169050919050565b6000819050919050565b6000612f2782612f2e565b9050919050565b6000612f3982612f40565b9050919050565b6000612f4b82612ef2565b9050919050565b82818337600083830152505050565b60005b83811015612f7f578082015181840152602081019050612f64565b83811115612f8e576000848401525b50505050565b60006002820490506001821680612fac57607f821691505b60208210811415612fc057612fbf6130fd565b5b50919050565b612fcf826131a3565b810181811067ffffffffffffffff82111715612fee57612fed61315b565b5b80604052505050565b600061300282612f12565b91507fffffffffffffffffffffffffffffffffffffffffffffffffffffffffffffffff8214156130355761303461309f565b5b600182019050919050565b600061304b82613052565b9050919050565b600061305d826131b4565b9050919050565b6000819050919050565b600061307982612f12565b915061308483612f12565b925082613094576130936130ce565b5b828206905092915050565b7f4e487b7100000000000000000000000000000000000000000000000000000000600052601160045260246000fd5b7f4e487b7100000000000000000000000000000000000000000000000000000000600052601260045260246000fd5b7f4e487b7100000000000000000000000000000000000000000000000000000000600052602260045260246000fd5b7f4e487b7100000000000000000000000000000000000000000000000000000000600052603260045260246000fd5b7f4e487b7100000000000000000000000000000000000000000000000000000000600052604160045260246000fd5b600080fd5b600080fd5b600080fd5b600080fd5b600080fd5b6000601f19601f8301169050919050565b60008160601b9050919050565b7f4d7573742062652070726f706f736564206f776e657200000000000000000000600082015250565b7f756e61626c6520746f207472616e73666572416e6443616c6c20746f206f726160008201527f636c650000000000000000000000000000000000000000000000000000000000602082015250565b7f4f6e6c792063616c6c61626c65206279206f776e657200000000000000000000600082015250565b7f556e61626c6520746f207472616e736665720000000000000000000000000000600082015250565b7f43616e6e6f74207472616e7366657220746f2073656c66000000000000000000600082015250565b7f536f75726365206d75737420626520746865206f7261636c65206f662074686560008201527f2072657175657374000000000000000000000000000000000000000000000000602082015250565b61330c81612e9e565b811461331757600080fd5b50565b61332381612eb0565b811461332e57600080fd5b50565b61333a81612ebc565b811461334557600080fd5b50565b61335181612ec6565b811461335c57600080fd5b50565b61336881612f12565b811461337357600080fd5b5056fea2646970667358221220c3a416b03aba5a84d44e86e8f031a9c4ba2db7e2b19e30332c8cf7a1f525c53e64736f6c63430008070033",
  "linkReferences": {},
  "deployedLinkReferences": {}
}