{
    "_format": "hh-sol-artifact-1",
    "contractName": "SupplyChainManager",
    "sourceName": "contracts/dev3/supply-chain-manager/SupplyChainManager.sol",
    "abi": [
        {
            "inputs": [
                {
                    "internalType": "address",
                    "name": "_manager",
                    "type": "address"
                },
                {
                    "internalType": "address",
                    "name": "_manufacturer",
                    "type": "address"
                },
                {
                    "internalType": "address",
                    "name": "_paymentCurrency",
                    "type": "address"
                }
            ],
            "stateMutability": "nonpayable",
            "type": "constructor"
        },
        {
            "inputs": [
                {
                    "internalType": "address",
                    "name": "wallet",
                    "type": "address"
                },
                {
                    "internalType": "string",
                    "name": "info",
                    "type": "string"
                },
                {
                    "internalType": "enum SupplyChainManager.State",
                    "name": "role",
                    "type": "uint8"
                }
            ],
            "name": "addUser",
            "outputs": [],
            "stateMutability": "nonpayable",
            "type": "function"
        },
        {
            "inputs": [
                {
                    "internalType": "string",
                    "name": "barcode",
                    "type": "string"
                }
            ],
            "name": "getProductHistory",
            "outputs": [
                {
                    "components": [
                        {
                            "internalType": "address",
                            "name": "changedBy",
                            "type": "address"
                        },
                        {
                            "internalType": "uint256",
                            "name": "changedAt",
                            "type": "uint256"
                        },
                        {
                            "internalType": "enum SupplyChainManager.State",
                            "name": "oldState",
                            "type": "uint8"
                        },
                        {
                            "internalType": "enum SupplyChainManager.State",
                            "name": "newState",
                            "type": "uint8"
                        },
                        {
                            "internalType": "string",
                            "name": "note",
                            "type": "string"
                        }
                    ],
                    "internalType": "struct SupplyChainManager.StateChange[]",
                    "name": "",
                    "type": "tuple[]"
                }
            ],
            "stateMutability": "view",
            "type": "function"
        },
        {
            "inputs": [],
            "name": "getProducts",
            "outputs": [
                {
                    "components": [
                        {
                            "internalType": "uint256",
                            "name": "id",
                            "type": "uint256"
                        },
                        {
                            "internalType": "string",
                            "name": "barcode",
                            "type": "string"
                        },
                        {
                            "internalType": "uint256",
                            "name": "price",
                            "type": "uint256"
                        },
                        {
                            "internalType": "string",
                            "name": "description",
                            "type": "string"
                        },
                        {
                            "internalType": "enum SupplyChainManager.State",
                            "name": "state",
                            "type": "uint8"
                        }
                    ],
                    "internalType": "struct SupplyChainManager.Product[]",
                    "name": "",
                    "type": "tuple[]"
                }
            ],
            "stateMutability": "view",
            "type": "function"
        },
        {
            "inputs": [
                {
                    "internalType": "address",
                    "name": "user",
                    "type": "address"
                }
            ],
            "name": "getUserHistory",
            "outputs": [
                {
                    "components": [
                        {
                            "internalType": "address",
                            "name": "changedBy",
                            "type": "address"
                        },
                        {
                            "internalType": "uint256",
                            "name": "changedAt",
                            "type": "uint256"
                        },
                        {
                            "internalType": "enum SupplyChainManager.State",
                            "name": "oldState",
                            "type": "uint8"
                        },
                        {
                            "internalType": "enum SupplyChainManager.State",
                            "name": "newState",
                            "type": "uint8"
                        },
                        {
                            "internalType": "string",
                            "name": "note",
                            "type": "string"
                        }
                    ],
                    "internalType": "struct SupplyChainManager.StateChange[]",
                    "name": "",
                    "type": "tuple[]"
                }
            ],
            "stateMutability": "view",
            "type": "function"
        },
        {
            "inputs": [],
            "name": "getUsers",
            "outputs": [
                {
                    "components": [
                        {
                            "internalType": "address",
                            "name": "wallet",
                            "type": "address"
                        },
                        {
                            "internalType": "string",
                            "name": "info",
                            "type": "string"
                        },
                        {
                            "internalType": "enum SupplyChainManager.State",
                            "name": "allowedToAdvance",
                            "type": "uint8"
                        },
                        {
                            "internalType": "uint256",
                            "name": "addedAt",
                            "type": "uint256"
                        },
                        {
                            "internalType": "bool",
                            "name": "active",
                            "type": "bool"
                        }
                    ],
                    "internalType": "struct SupplyChainManager.User[]",
                    "name": "",
                    "type": "tuple[]"
                }
            ],
            "stateMutability": "view",
            "type": "function"
        },
        {
            "inputs": [
                {
                    "internalType": "uint256",
                    "name": "id",
                    "type": "uint256"
                },
                {
                    "internalType": "string",
                    "name": "note",
                    "type": "string"
                }
            ],
            "name": "setPacked",
            "outputs": [],
            "stateMutability": "nonpayable",
            "type": "function"
        },
        {
            "inputs": [
                {
                    "internalType": "string",
                    "name": "barcode",
                    "type": "string"
                },
                {
                    "internalType": "uint256",
                    "name": "price",
                    "type": "uint256"
                },
                {
                    "internalType": "string",
                    "name": "description",
                    "type": "string"
                },
                {
                    "internalType": "string",
                    "name": "note",
                    "type": "string"
                }
            ],
            "name": "setProduced",
            "outputs": [],
            "stateMutability": "nonpayable",
            "type": "function"
        },
        {
            "inputs": [
                {
                    "internalType": "uint256",
                    "name": "id",
                    "type": "uint256"
                },
                {
                    "internalType": "string",
                    "name": "note",
                    "type": "string"
                }
            ],
            "name": "setReceived",
            "outputs": [],
            "stateMutability": "nonpayable",
            "type": "function"
        },
        {
            "inputs": [
                {
                    "internalType": "uint256",
                    "name": "id",
                    "type": "uint256"
                },
                {
                    "internalType": "string",
                    "name": "note",
                    "type": "string"
                }
            ],
            "name": "setShipped",
            "outputs": [],
            "stateMutability": "nonpayable",
            "type": "function"
        },
        {
            "inputs": [
                {
                    "internalType": "address",
                    "name": "wallet",
                    "type": "address"
                },
                {
                    "internalType": "bool",
                    "name": "active",
                    "type": "bool"
                }
            ],
            "name": "updateUserStatus",
            "outputs": [],
            "stateMutability": "nonpayable",
            "type": "function"
        }
    ],
    "bytecode": "0x60806040523480156200001157600080fd5b50604051620025a4380380620025a4833981016040819052620000349162000094565b600080546001600160a01b039485166001600160a01b031991821617909155600180549385169382169390931790925560028054919093169116179055620000dd565b80516001600160a01b03811681146200008f57600080fd5b919050565b600080600060608486031215620000a9578283fd5b620000b48462000077565b9250620000c46020850162000077565b9150620000d46040850162000077565b90509250925092565b6124b780620000ed6000396000f3fe608060405234801561001057600080fd5b506004361061009d5760003560e01c80634fb3d3b1116100665780634fb3d3b11461010e5780635349e7c61461012e578063c29b2f2014610141578063c6ee7b1c14610156578063d4f50453146101695761009d565b8062ce8e3e146100a25780630b4144b9146100c0578063364d15ae146100d557806339a6dc99146100e857806340d26854146100fb575b600080fd5b6100aa61017c565b6040516100b7919061214e565b60405180910390f35b6100d36100ce366004611d1f565b6102f0565b005b6100d36100e3366004611e9d565b6103bd565b6100d36100f6366004611e0f565b6108d4565b6100d3610109366004611d55565b610dbd565b61012161011c366004611cfe565b610f90565b6040516100b791906120ae565b6100d361013c366004611e9d565b611190565b6101496115e8565b6040516100b79190612000565b6100d3610164366004611e9d565b6117c5565b610121610177366004611dd4565b6119c8565b60606003805480602002602001604051908101604052809291908181526020016000905b828210156102e75760008481526020908190206040805160a081019091526005850290910180546001600160a01b0316825260018101805492939192918401916101e99061241f565b80601f01602080910402602001604051908101604052809291908181526020018280546102159061241f565b80156102625780601f1061023757610100808354040283529160200191610262565b820191906000526020600020905b81548152906001019060200180831161024557829003601f168201915b5050509183525050600282015460209091019060ff16600481111561029757634e487b7160e01b600052602160045260246000fd5b60048111156102b657634e487b7160e01b600052602160045260246000fd5b8152600382015460208083019190915260049092015460ff16151560409091015290825260019290920191016101a0565b50505050905090565b6000546001600160a01b031633146103235760405162461bcd60e51b815260040161031a906122c9565b60405180910390fd5b6001600160a01b03821660009081526007602052604090205460ff1661035b5760405162461bcd60e51b815260040161031a90612348565b6001600160a01b03821660009081526005602052604090205460038054839290811061039757634e487b7160e01b600052603260045260246000fd5b60009182526020909120600590910201600401805460ff19169115159190911790555050565b3360009081526007602052604090205460049060ff166103ef5760405162461bcd60e51b815260040161031a90612211565b3360009081526005602052604090205460038054909190811061042257634e487b7160e01b600052603260045260246000fd5b600091825260209091206004600590920201015460ff166104555760405162461bcd60e51b815260040161031a906121e6565b80600481111561047557634e487b7160e01b600052602160045260246000fd5b336000908152600560205260409020546003805490919081106104a857634e487b7160e01b600052603260045260246000fd5b600091825260209091206002600590920201015460ff1660048111156104de57634e487b7160e01b600052602160045260246000fd5b146104fb5760405162461bcd60e51b815260040161031a9061229d565b60036004848154811061051e57634e487b7160e01b600052603260045260246000fd5b60009182526020909120600460059092020181015460ff169081111561055457634e487b7160e01b600052602160045260246000fd5b146105715760405162461bcd60e51b815260040161031a9061223f565b6040805160a0810182523381524260208201526000918101600381526020016004815260200184815250905060048085815481106105bf57634e487b7160e01b600052603260045260246000fd5b906000526020600020906005020160040160006101000a81548160ff021916908360048111156105ff57634e487b7160e01b600052602160045260246000fd5b021790555060086004858154811061062757634e487b7160e01b600052603260045260246000fd5b90600052602060002090600502016001016040516106459190611f4c565b90815260408051602092819003830190208054600180820183556000928352918490208551600492830290910180546001600160a01b0319166001600160a01b039092169190911781559385015184830155918401516002840180548695949293919260ff19909116919084908111156106cf57634e487b7160e01b600052602160045260246000fd5b0217905550606082015160028201805461ff00191661010083600481111561070757634e487b7160e01b600052602160045260246000fd5b021790555060808201518051610727916003840191602090910190611bcd565b5050336000908152600960209081526040808320805460018082018355918552938390208651600495860290910180546001600160a01b0319166001600160a01b0390921691909117815592860151838201559085015160028301805487965093949193909260ff199091169184908111156107b357634e487b7160e01b600052602160045260246000fd5b0217905550606082015160028201805461ff0019166101008360048111156107eb57634e487b7160e01b600052602160045260246000fd5b02179055506080820151805161080b916003840191602090910190611bcd565b5050600254600154600480546001600160a01b03938416945063a9059cbb93909216918890811061084c57634e487b7160e01b600052603260045260246000fd5b9060005260206000209060050201600201546040518363ffffffff1660e01b815260040161087b929190611fe7565b602060405180830381600087803b15801561089557600080fd5b505af11580156108a9573d6000803e3d6000fd5b505050506040513d601f19601f820116820180604052508101906108cd9190611db8565b5050505050565b3360009081526007602052604090205460019060ff166109065760405162461bcd60e51b815260040161031a90612211565b3360009081526005602052604090205460038054909190811061093957634e487b7160e01b600052603260045260246000fd5b600091825260209091206004600590920201015460ff1661096c5760405162461bcd60e51b815260040161031a906121e6565b80600481111561098c57634e487b7160e01b600052602160045260246000fd5b336000908152600560205260409020546003805490919081106109bf57634e487b7160e01b600052603260045260246000fd5b600091825260209091206002600590920201015460ff1660048111156109f557634e487b7160e01b600052602160045260246000fd5b14610a125760405162461bcd60e51b815260040161031a9061229d565b6000855111610a335760405162461bcd60e51b815260040161031a9061231d565b600685604051610a439190611f30565b9081526040519081900360200190205460ff1615610a735760405162461bcd60e51b815260040161031a906123ac565b6001600686604051610a859190611f30565b9081526040805160209281900383018120805460ff19169415159490941790935560a083018152600454835290820187905281018590526060810184905260009060808101600190526040805160a08101825233815242602082015291925060009190810182815260200160018152602001858152509050600887604051610b0d9190611f30565b90815260408051602092819003830190208054600180820183556000928352918490208551600492830290910180546001600160a01b0319166001600160a01b039092169190911781559385015184830155918401516002840180548695949293919260ff1990911691908490811115610b9757634e487b7160e01b600052602160045260246000fd5b0217905550606082015160028201805461ff001916610100836004811115610bcf57634e487b7160e01b600052602160045260246000fd5b021790555060808201518051610bef916003840191602090910190611bcd565b5050336000908152600960209081526040808320805460018082018355918552938390208651600495860290910180546001600160a01b0319166001600160a01b0390921691909117815592860151838201559085015160028301805487965093949193909260ff19909116918490811115610c7b57634e487b7160e01b600052602160045260246000fd5b0217905550606082015160028201805461ff001916610100836004811115610cb357634e487b7160e01b600052602160045260246000fd5b021790555060808201518051610cd3916003840191602090910190611bcd565b505060048054600181018255600091909152835160059091027f8a35acfbc15ff81a39ae7d344fd709f28e8600b4aa8c65c6b64bfe7fe36bd19b81019182556020808601518051879550610d4e937f8a35acfbc15ff81a39ae7d344fd709f28e8600b4aa8c65c6b64bfe7fe36bd19c01929190910190611bcd565b506040820151600282015560608201518051610d74916003840191602090910190611bcd565b5060808201518160040160006101000a81548160ff02191690836004811115610dad57634e487b7160e01b600052602160045260246000fd5b0217905550505050505050505050565b6000546001600160a01b03163314610de75760405162461bcd60e51b815260040161031a906122c9565b6001600160a01b03831660009081526007602052604090205460ff1615610e205760405162461bcd60e51b815260040161031a9061226f565b6001600160a01b0383166000818152600760209081526040808320805460ff191660011790556003546005835281842055805160a0810182529384529083018590529091908101836004811115610e8757634e487b7160e01b600052602160045260246000fd5b8152426020808301919091526001604090920182905260038054928301815560005282517fc2575a0e9e593c00f959f8c92f12db2869c3395a3b0502d05e2516446f71f85b600590930292830180546001600160a01b0319166001600160a01b0390921691909117815583820151805194955085949193610f2f937fc2575a0e9e593c00f959f8c92f12db2869c3395a3b0502d05e2516446f71f85c90910192910190611bcd565b50604082015160028201805460ff19166001836004811115610f6157634e487b7160e01b600052602160045260246000fd5b0217905550606082015160038201556080909101516004909101805460ff191691151591909117905550505050565b6001600160a01b03811660009081526007602052604090205460609060ff16610fcb5760405162461bcd60e51b815260040161031a906122ef565b6001600160a01b038216600090815260096020908152604080832080548251818502810185019093528083529193909284015b828210156111845760008481526020908190206040805160a081018252600480870290930180546001600160a01b0316825260018101549482019490945260028401549093929184019160ff9091169081111561106b57634e487b7160e01b600052602160045260246000fd5b600481111561108a57634e487b7160e01b600052602160045260246000fd5b81526020016002820160019054906101000a900460ff1660048111156110c057634e487b7160e01b600052602160045260246000fd5b60048111156110df57634e487b7160e01b600052602160045260246000fd5b81526020016003820180546110f39061241f565b80601f016020809104026020016040519081016040528092919081815260200182805461111f9061241f565b801561116c5780601f106111415761010080835404028352916020019161116c565b820191906000526020600020905b81548152906001019060200180831161114f57829003601f168201915b50505050508152505081526020019060010190610ffe565b5050505090505b919050565b3360009081526007602052604090205460039060ff166111c25760405162461bcd60e51b815260040161031a90612211565b336000908152600560205260409020546003805490919081106111f557634e487b7160e01b600052603260045260246000fd5b600091825260209091206004600590920201015460ff166112285760405162461bcd60e51b815260040161031a906121e6565b80600481111561124857634e487b7160e01b600052602160045260246000fd5b3360009081526005602052604090205460038054909190811061127b57634e487b7160e01b600052603260045260246000fd5b600091825260209091206002600590920201015460ff1660048111156112b157634e487b7160e01b600052602160045260246000fd5b146112ce5760405162461bcd60e51b815260040161031a9061229d565b6002600484815481106112f157634e487b7160e01b600052603260045260246000fd5b60009182526020909120600460059092020181015460ff169081111561132757634e487b7160e01b600052602160045260246000fd5b146113445760405162461bcd60e51b815260040161031a9061223f565b6040805160a0810182523381524260208201526000918101600281526020016003815260200184815250905060036004858154811061139357634e487b7160e01b600052603260045260246000fd5b906000526020600020906005020160040160006101000a81548160ff021916908360048111156113d357634e487b7160e01b600052602160045260246000fd5b02179055506008600485815481106113fb57634e487b7160e01b600052603260045260246000fd5b90600052602060002090600502016001016040516114199190611f4c565b90815260408051602092819003830190208054600180820183556000928352918490208551600492830290910180546001600160a01b0319166001600160a01b039092169190911781559385015184830155918401516002840180548695949293919260ff19909116919084908111156114a357634e487b7160e01b600052602160045260246000fd5b0217905550606082015160028201805461ff0019166101008360048111156114db57634e487b7160e01b600052602160045260246000fd5b0217905550608082015180516114fb916003840191602090910190611bcd565b5050336000908152600960209081526040808320805460018082018355918552938390208651600495860290910180546001600160a01b0319166001600160a01b0390921691909117815592860151838201559085015160028301805487965093949193909260ff1990911691849081111561158757634e487b7160e01b600052602160045260246000fd5b0217905550606082015160028201805461ff0019166101008360048111156115bf57634e487b7160e01b600052602160045260246000fd5b0217905550608082015180516115df916003840191602090910190611bcd565b50505050505050565b60606004805480602002602001604051908101604052809291908181526020016000905b828210156102e757838290600052602060002090600502016040518060a0016040529081600082015481526020016001820180546116499061241f565b80601f01602080910402602001604051908101604052809291908181526020018280546116759061241f565b80156116c25780601f10611697576101008083540402835291602001916116c2565b820191906000526020600020905b8154815290600101906020018083116116a557829003601f168201915b50505050508152602001600282015481526020016003820180546116e59061241f565b80601f01602080910402602001604051908101604052809291908181526020018280546117119061241f565b801561175e5780601f106117335761010080835404028352916020019161175e565b820191906000526020600020905b81548152906001019060200180831161174157829003601f168201915b505050918352505060048281015460209092019160ff169081111561179357634e487b7160e01b600052602160045260246000fd5b60048111156117b257634e487b7160e01b600052602160045260246000fd5b815250508152602001906001019061160c565b3360009081526007602052604090205460029060ff166117f75760405162461bcd60e51b815260040161031a90612211565b3360009081526005602052604090205460038054909190811061182a57634e487b7160e01b600052603260045260246000fd5b600091825260209091206004600590920201015460ff1661185d5760405162461bcd60e51b815260040161031a906121e6565b80600481111561187d57634e487b7160e01b600052602160045260246000fd5b336000908152600560205260409020546003805490919081106118b057634e487b7160e01b600052603260045260246000fd5b600091825260209091206002600590920201015460ff1660048111156118e657634e487b7160e01b600052602160045260246000fd5b146119035760405162461bcd60e51b815260040161031a9061229d565b60016004848154811061192657634e487b7160e01b600052603260045260246000fd5b60009182526020909120600460059092020181015460ff169081111561195c57634e487b7160e01b600052602160045260246000fd5b146119795760405162461bcd60e51b815260040161031a9061223f565b6040805160a0810182523381524260208201526000918101600181526020016002815260200184815250905060026004858154811061139357634e487b7160e01b600052603260045260246000fd5b60606006826040516119da9190611f30565b9081526040519081900360200190205460ff16611a095760405162461bcd60e51b815260040161031a90612375565b600882604051611a199190611f30565b9081526020016040518091039020805480602002602001604051908101604052809291908181526020016000905b828210156111845760008481526020908190206040805160a081018252600480870290930180546001600160a01b0316825260018101549482019490945260028401549093929184019160ff90911690811115611ab457634e487b7160e01b600052602160045260246000fd5b6004811115611ad357634e487b7160e01b600052602160045260246000fd5b81526020016002820160019054906101000a900460ff166004811115611b0957634e487b7160e01b600052602160045260246000fd5b6004811115611b2857634e487b7160e01b600052602160045260246000fd5b8152602001600382018054611b3c9061241f565b80601f0160208091040260200160405190810160405280929190818152602001828054611b689061241f565b8015611bb55780601f10611b8a57610100808354040283529160200191611bb5565b820191906000526020600020905b815481529060010190602001808311611b9857829003601f168201915b50505050508152505081526020019060010190611a47565b828054611bd99061241f565b90600052602060002090601f016020900481019282611bfb5760008555611c41565b82601f10611c1457805160ff1916838001178555611c41565b82800160010185558215611c41579182015b82811115611c41578251825591602001919060010190611c26565b50611c4d929150611c51565b5090565b5b80821115611c4d5760008155600101611c52565b80356001600160a01b038116811461118b57600080fd5b600082601f830112611c8d578081fd5b813567ffffffffffffffff80821115611ca857611ca861245a565b604051601f8301601f191681016020018281118282101715611ccc57611ccc61245a565b604052828152848301602001861015611ce3578384fd5b82602086016020830137918201602001929092529392505050565b600060208284031215611d0f578081fd5b611d1882611c66565b9392505050565b60008060408385031215611d31578081fd5b611d3a83611c66565b91506020830135611d4a81612470565b809150509250929050565b600080600060608486031215611d69578081fd5b611d7284611c66565b9250602084013567ffffffffffffffff811115611d8d578182fd5b611d9986828701611c7d565b925050604084013560058110611dad578182fd5b809150509250925092565b600060208284031215611dc9578081fd5b8151611d1881612470565b600060208284031215611de5578081fd5b813567ffffffffffffffff811115611dfb578182fd5b611e0784828501611c7d565b949350505050565b60008060008060808587031215611e24578081fd5b843567ffffffffffffffff80821115611e3b578283fd5b611e4788838901611c7d565b9550602087013594506040870135915080821115611e63578283fd5b611e6f88838901611c7d565b93506060870135915080821115611e84578283fd5b50611e9187828801611c7d565b91505092959194509250565b60008060408385031215611eaf578182fd5b82359150602083013567ffffffffffffffff811115611ecc578182fd5b611ed885828601611c7d565b9150509250929050565b60058110611f0057634e487b7160e01b600052602160045260246000fd5b9052565b60008151808452611f1c8160208601602086016123ef565b601f01601f19169290920160200192915050565b60008251611f428184602087016123ef565b9190910192915050565b8154600090819060028104600180831680611f6857607f831692505b6020808410821415611f8857634e487b7160e01b87526022600452602487fd5b818015611f9c5760018114611fad57611fd9565b60ff19861689528489019650611fd9565b611fb68a6123e3565b885b86811015611fd15781548b820152908501908301611fb8565b505084890196505b509498975050505050505050565b6001600160a01b03929092168252602082015260400190565b60208082528251828201819052600091906040908185019080840286018301878501865b838110156120a057603f19898403018552815160a08151855288820151818a87015261205282870182611f04565b9150508782015188860152606080830151868303828801526120748382611f04565b92505050608080830151925061208c81870184611ee2565b509588019593505090860190600101612024565b509098975050505050505050565b60208082528251828201819052600091906040908185019080840286018301878501865b838110156120a057888303603f19018552815180516001600160a01b0316845287810151888501528681015160a09061210d89870182611ee2565b5060608083015161212082880182611ee2565b505060809182015191850181905261213a85820183611f04565b9689019694505050908601906001016120d2565b60208082528251828201819052600091906040908185019080840286018301878501865b838110156120a057888303603f19018552815180516001600160a01b031684528781015160a0898601819052906121ab82870182611f04565b915050878201516121be89870182611ee2565b5060608281015190860152608091820151151591909401529386019390860190600101612172565b602080825260119082015270557365722064656163746976617465642160781b604082015260600190565b60208082526014908201527355736572206e6f7420726567697374657265642160601b604082015260600190565b602080825260169082015275496e76616c69642070726f647563742073746174652160501b604082015260600190565b6020808252601490820152735573657220616c7265616479206578697374732160601b604082015260600190565b60208082526012908201527155736572206d697373696e6720726f6c652160701b604082015260600190565b6020808252600c908201526b4e6f74206d616e616765722160a01b604082015260600190565b6020808252601490820152735573657220646f6573206e6f742065786973742160601b604082015260600190565b602080825260119082015270426172636f646520697320656d7074792160781b604082015260600190565b602080825260139082015272155cd95c88191bd95cc81b9bdd08195e1a5cdd606a1b604082015260600190565b60208082526017908201527f50726f6475637420646f6573206e6f7420657869737421000000000000000000604082015260600190565b60208082526017908201527f426172636f646520616c72656164792065786973747321000000000000000000604082015260600190565b60009081526020902090565b60005b8381101561240a5781810151838201526020016123f2565b83811115612419576000848401525b50505050565b60028104600182168061243357607f821691505b6020821081141561245457634e487b7160e01b600052602260045260246000fd5b50919050565b634e487b7160e01b600052604160045260246000fd5b801515811461247e57600080fd5b5056fea26469706673582212201fa00be12233501cfef752700bd7ba3623c04f0f33830362354a85c2ecc1413f64736f6c63430008000033",
    "linkReferences": {},
    "deployedLinkReferences": {}
}