{
  "_format": "hh-sol-artifact-1",
  "contractName": "ERC20PresetMintableBurnable",
  "sourceName": "contracts/openzeppelin/erc20presetmintableburnabledummy/ERC20PresetMintableBurnable.sol",
  "abi": [
    {
      "inputs": [
        {
          "internalType": "string",
          "name": "name",
          "type": "string"
        },
        {
          "internalType": "string",
          "name": "symbol",
          "type": "string"
        }
      ],
      "stateMutability": "nonpayable",
      "type": "constructor"
    },
    {
      "anonymous": false,
      "inputs": [
        {
          "indexed": true,
          "internalType": "address",
          "name": "owner",
          "type": "address"
        },
        {
          "indexed": true,
          "internalType": "address",
          "name": "spender",
          "type": "address"
        },
        {
          "indexed": false,
          "internalType": "uint256",
          "name": "value",
          "type": "uint256"
        }
      ],
      "name": "Approval",
      "type": "event"
    },
    {
      "anonymous": false,
      "inputs": [
        {
          "indexed": true,
          "internalType": "address",
          "name": "from",
          "type": "address"
        },
        {
          "indexed": true,
          "internalType": "address",
          "name": "to",
          "type": "address"
        },
        {
          "indexed": false,
          "internalType": "uint256",
          "name": "value",
          "type": "uint256"
        }
      ],
      "name": "Transfer",
      "type": "event"
    },
    {
      "inputs": [
        {
          "internalType": "address",
          "name": "owner",
          "type": "address"
        },
        {
          "internalType": "address",
          "name": "spender",
          "type": "address"
        }
      ],
      "name": "allowance",
      "outputs": [
        {
          "internalType": "uint256",
          "name": "",
          "type": "uint256"
        }
      ],
      "stateMutability": "view",
      "type": "function"
    },
    {
      "inputs": [
        {
          "internalType": "address",
          "name": "spender",
          "type": "address"
        },
        {
          "internalType": "uint256",
          "name": "amount",
          "type": "uint256"
        }
      ],
      "name": "approve",
      "outputs": [
        {
          "internalType": "bool",
          "name": "",
          "type": "bool"
        }
      ],
      "stateMutability": "nonpayable",
      "type": "function"
    },
    {
      "inputs": [
        {
          "internalType": "address",
          "name": "account",
          "type": "address"
        }
      ],
      "name": "balanceOf",
      "outputs": [
        {
          "internalType": "uint256",
          "name": "",
          "type": "uint256"
        }
      ],
      "stateMutability": "view",
      "type": "function"
    },
    {
      "inputs": [
        {
          "internalType": "uint256",
          "name": "amount",
          "type": "uint256"
        }
      ],
      "name": "burn",
      "outputs": [],
      "stateMutability": "nonpayable",
      "type": "function"
    },
    {
      "inputs": [
        {
          "internalType": "address",
          "name": "account",
          "type": "address"
        },
        {
          "internalType": "uint256",
          "name": "amount",
          "type": "uint256"
        }
      ],
      "name": "burnFrom",
      "outputs": [],
      "stateMutability": "nonpayable",
      "type": "function"
    },
    {
      "inputs": [],
      "name": "decimals",
      "outputs": [
        {
          "internalType": "uint8",
          "name": "",
          "type": "uint8"
        }
      ],
      "stateMutability": "view",
      "type": "function"
    },
    {
      "inputs": [
        {
          "internalType": "address",
          "name": "spender",
          "type": "address"
        },
        {
          "internalType": "uint256",
          "name": "subtractedValue",
          "type": "uint256"
        }
      ],
      "name": "decreaseAllowance",
      "outputs": [
        {
          "internalType": "bool",
          "name": "",
          "type": "bool"
        }
      ],
      "stateMutability": "nonpayable",
      "type": "function"
    },
    {
      "inputs": [
        {
          "internalType": "address",
          "name": "spender",
          "type": "address"
        },
        {
          "internalType": "uint256",
          "name": "addedValue",
          "type": "uint256"
        }
      ],
      "name": "increaseAllowance",
      "outputs": [
        {
          "internalType": "bool",
          "name": "",
          "type": "bool"
        }
      ],
      "stateMutability": "nonpayable",
      "type": "function"
    },
    {
      "inputs": [
        {
          "internalType": "address",
          "name": "to",
          "type": "address"
        },
        {
          "internalType": "uint256",
          "name": "amount",
          "type": "uint256"
        }
      ],
      "name": "mint",
      "outputs": [],
      "stateMutability": "nonpayable",
      "type": "function"
    },
    {
      "inputs": [],
      "name": "name",
      "outputs": [
        {
          "internalType": "string",
          "name": "",
          "type": "string"
        }
      ],
      "stateMutability": "view",
      "type": "function"
    },
    {
      "inputs": [],
      "name": "symbol",
      "outputs": [
        {
          "internalType": "string",
          "name": "",
          "type": "string"
        }
      ],
      "stateMutability": "view",
      "type": "function"
    },
    {
      "inputs": [],
      "name": "totalSupply",
      "outputs": [
        {
          "internalType": "uint256",
          "name": "",
          "type": "uint256"
        }
      ],
      "stateMutability": "view",
      "type": "function"
    },
    {
      "inputs": [
        {
          "internalType": "address",
          "name": "to",
          "type": "address"
        },
        {
          "internalType": "uint256",
          "name": "amount",
          "type": "uint256"
        }
      ],
      "name": "transfer",
      "outputs": [
        {
          "internalType": "bool",
          "name": "",
          "type": "bool"
        }
      ],
      "stateMutability": "nonpayable",
      "type": "function"
    },
    {
      "inputs": [
        {
          "internalType": "address",
          "name": "from",
          "type": "address"
        },
        {
          "internalType": "address",
          "name": "to",
          "type": "address"
        },
        {
          "internalType": "uint256",
          "name": "amount",
          "type": "uint256"
        }
      ],
      "name": "transferFrom",
      "outputs": [
        {
          "internalType": "bool",
          "name": "",
          "type": "bool"
        }
      ],
      "stateMutability": "nonpayable",
      "type": "function"
    }
  ],
  "bytecode": "0x60806040523480156200001157600080fd5b5060405162001bd838038062001bd8833981810160405281019062000037919062000197565b818181600390805190602001906200005192919062000075565b5080600490805190602001906200006a92919062000075565b50505050506200037a565b82805462000083906200029f565b90600052602060002090601f016020900481019282620000a75760008555620000f3565b82601f10620000c257805160ff1916838001178555620000f3565b82800160010185558215620000f3579182015b82811115620000f2578251825591602001919060010190620000d5565b5b50905062000102919062000106565b5090565b5b808211156200012157600081600090555060010162000107565b5090565b60006200013c620001368462000233565b6200020a565b9050828152602081018484840111156200015557600080fd5b6200016284828562000269565b509392505050565b600082601f8301126200017c57600080fd5b81516200018e84826020860162000125565b91505092915050565b60008060408385031215620001ab57600080fd5b600083015167ffffffffffffffff811115620001c657600080fd5b620001d4858286016200016a565b925050602083015167ffffffffffffffff811115620001f257600080fd5b62000200858286016200016a565b9150509250929050565b60006200021662000229565b9050620002248282620002d5565b919050565b6000604051905090565b600067ffffffffffffffff8211156200025157620002506200033a565b5b6200025c8262000369565b9050602081019050919050565b60005b83811015620002895780820151818401526020810190506200026c565b8381111562000299576000848401525b50505050565b60006002820490506001821680620002b857607f821691505b60208210811415620002cf57620002ce6200030b565b5b50919050565b620002e08262000369565b810181811067ffffffffffffffff821117156200030257620003016200033a565b5b80604052505050565b7f4e487b7100000000000000000000000000000000000000000000000000000000600052602260045260246000fd5b7f4e487b7100000000000000000000000000000000000000000000000000000000600052604160045260246000fd5b6000601f19601f8301169050919050565b61184e806200038a6000396000f3fe608060405234801561001057600080fd5b50600436106100ea5760003560e01c806342966c681161008c57806395d89b411161006657806395d89b411461025d578063a457c2d71461027b578063a9059cbb146102ab578063dd62ed3e146102db576100ea565b806342966c68146101f557806370a082311461021157806379cc679014610241576100ea565b806323b872dd116100c857806323b872dd1461015b578063313ce5671461018b57806339509351146101a957806340c10f19146101d9576100ea565b806306fdde03146100ef578063095ea7b31461010d57806318160ddd1461013d575b600080fd5b6100f761030b565b60405161010491906111b9565b60405180910390f35b61012760048036038101906101229190610f75565b61039d565b604051610134919061119e565b60405180910390f35b6101456103c0565b604051610152919061131b565b60405180910390f35b61017560048036038101906101709190610f26565b6103ca565b604051610182919061119e565b60405180910390f35b6101936103f9565b6040516101a09190611336565b60405180910390f35b6101c360048036038101906101be9190610f75565b610402565b6040516101d0919061119e565b60405180910390f35b6101f360048036038101906101ee9190610f75565b610439565b005b61020f600480360381019061020a9190610fb1565b610447565b005b61022b60048036038101906102269190610ec1565b61045b565b604051610238919061131b565b60405180910390f35b61025b60048036038101906102569190610f75565b6104a3565b005b6102656104c3565b60405161027291906111b9565b60405180910390f35b61029560048036038101906102909190610f75565b610555565b6040516102a2919061119e565b60405180910390f35b6102c560048036038101906102c09190610f75565b6105cc565b6040516102d2919061119e565b60405180910390f35b6102f560048036038101906102f09190610eea565b6105ef565b604051610302919061131b565b60405180910390f35b60606003805461031a9061147f565b80601f01602080910402602001604051908101604052809291908181526020018280546103469061147f565b80156103935780601f1061036857610100808354040283529160200191610393565b820191906000526020600020905b81548152906001019060200180831161037657829003601f168201915b5050505050905090565b6000806103a8610676565b90506103b581858561067e565b600191505092915050565b6000600254905090565b6000806103d5610676565b90506103e2858285610849565b6103ed8585856108d5565b60019150509392505050565b60006012905090565b60008061040d610676565b905061042e81858561041f85896105ef565b610429919061136d565b61067e565b600191505092915050565b6104438282610b56565b5050565b610458610452610676565b82610cb6565b50565b60008060008373ffffffffffffffffffffffffffffffffffffffff1673ffffffffffffffffffffffffffffffffffffffff168152602001908152602001600020549050919050565b6104b5826104af610676565b83610849565b6104bf8282610cb6565b5050565b6060600480546104d29061147f565b80601f01602080910402602001604051908101604052809291908181526020018280546104fe9061147f565b801561054b5780601f106105205761010080835404028352916020019161054b565b820191906000526020600020905b81548152906001019060200180831161052e57829003601f168201915b5050505050905090565b600080610560610676565b9050600061056e82866105ef565b9050838110156105b3576040517f08c379a00000000000000000000000000000000000000000000000000000000081526004016105aa906112db565b60405180910390fd5b6105c0828686840361067e565b60019250505092915050565b6000806105d7610676565b90506105e48185856108d5565b600191505092915050565b6000600160008473ffffffffffffffffffffffffffffffffffffffff1673ffffffffffffffffffffffffffffffffffffffff16815260200190815260200160002060008373ffffffffffffffffffffffffffffffffffffffff1673ffffffffffffffffffffffffffffffffffffffff16815260200190815260200160002054905092915050565b600033905090565b600073ffffffffffffffffffffffffffffffffffffffff168373ffffffffffffffffffffffffffffffffffffffff1614156106ee576040517f08c379a00000000000000000000000000000000000000000000000000000000081526004016106e5906112bb565b60405180910390fd5b600073ffffffffffffffffffffffffffffffffffffffff168273ffffffffffffffffffffffffffffffffffffffff16141561075e576040517f08c379a00000000000000000000000000000000000000000000000000000000081526004016107559061121b565b60405180910390fd5b80600160008573ffffffffffffffffffffffffffffffffffffffff1673ffffffffffffffffffffffffffffffffffffffff16815260200190815260200160002060008473ffffffffffffffffffffffffffffffffffffffff1673ffffffffffffffffffffffffffffffffffffffff168152602001908152602001600020819055508173ffffffffffffffffffffffffffffffffffffffff168373ffffffffffffffffffffffffffffffffffffffff167f8c5be1e5ebec7d5bd14f71427d1e84f3dd0314c0f7b2291e5b200ac8c7c3b9258360405161083c919061131b565b60405180910390a3505050565b600061085584846105ef565b90507fffffffffffffffffffffffffffffffffffffffffffffffffffffffffffffffff81146108cf57818110156108c1576040517f08c379a00000000000000000000000000000000000000000000000000000000081526004016108b89061123b565b60405180910390fd5b6108ce848484840361067e565b5b50505050565b600073ffffffffffffffffffffffffffffffffffffffff168373ffffffffffffffffffffffffffffffffffffffff161415610945576040517f08c379a000000000000000000000000000000000000000000000000000000000815260040161093c9061129b565b60405180910390fd5b600073ffffffffffffffffffffffffffffffffffffffff168273ffffffffffffffffffffffffffffffffffffffff1614156109b5576040517f08c379a00000000000000000000000000000000000000000000000000000000081526004016109ac906111db565b60405180910390fd5b6109c0838383610e8d565b60008060008573ffffffffffffffffffffffffffffffffffffffff1673ffffffffffffffffffffffffffffffffffffffff16815260200190815260200160002054905081811015610a46576040517f08c379a0000000000000000000000000000000000000000000000000000000008152600401610a3d9061125b565b60405180910390fd5b8181036000808673ffffffffffffffffffffffffffffffffffffffff1673ffffffffffffffffffffffffffffffffffffffff16815260200190815260200160002081905550816000808573ffffffffffffffffffffffffffffffffffffffff1673ffffffffffffffffffffffffffffffffffffffff1681526020019081526020016000206000828254610ad9919061136d565b925050819055508273ffffffffffffffffffffffffffffffffffffffff168473ffffffffffffffffffffffffffffffffffffffff167fddf252ad1be2c89b69c2b068fc378daa952ba7f163c4a11628f55a4df523b3ef84604051610b3d919061131b565b60405180910390a3610b50848484610e92565b50505050565b600073ffffffffffffffffffffffffffffffffffffffff168273ffffffffffffffffffffffffffffffffffffffff161415610bc6576040517f08c379a0000000000000000000000000000000000000000000000000000000008152600401610bbd906112fb565b60405180910390fd5b610bd260008383610e8d565b8060026000828254610be4919061136d565b92505081905550806000808473ffffffffffffffffffffffffffffffffffffffff1673ffffffffffffffffffffffffffffffffffffffff1681526020019081526020016000206000828254610c39919061136d565b925050819055508173ffffffffffffffffffffffffffffffffffffffff16600073ffffffffffffffffffffffffffffffffffffffff167fddf252ad1be2c89b69c2b068fc378daa952ba7f163c4a11628f55a4df523b3ef83604051610c9e919061131b565b60405180910390a3610cb260008383610e92565b5050565b600073ffffffffffffffffffffffffffffffffffffffff168273ffffffffffffffffffffffffffffffffffffffff161415610d26576040517f08c379a0000000000000000000000000000000000000000000000000000000008152600401610d1d9061127b565b60405180910390fd5b610d3282600083610e8d565b60008060008473ffffffffffffffffffffffffffffffffffffffff1673ffffffffffffffffffffffffffffffffffffffff16815260200190815260200160002054905081811015610db8576040517f08c379a0000000000000000000000000000000000000000000000000000000008152600401610daf906111fb565b60405180910390fd5b8181036000808573ffffffffffffffffffffffffffffffffffffffff1673ffffffffffffffffffffffffffffffffffffffff168152602001908152602001600020819055508160026000828254610e0f91906113c3565b92505081905550600073ffffffffffffffffffffffffffffffffffffffff168373ffffffffffffffffffffffffffffffffffffffff167fddf252ad1be2c89b69c2b068fc378daa952ba7f163c4a11628f55a4df523b3ef84604051610e74919061131b565b60405180910390a3610e8883600084610e92565b505050565b505050565b505050565b600081359050610ea6816117ea565b92915050565b600081359050610ebb81611801565b92915050565b600060208284031215610ed357600080fd5b6000610ee184828501610e97565b91505092915050565b60008060408385031215610efd57600080fd5b6000610f0b85828601610e97565b9250506020610f1c85828601610e97565b9150509250929050565b600080600060608486031215610f3b57600080fd5b6000610f4986828701610e97565b9350506020610f5a86828701610e97565b9250506040610f6b86828701610eac565b9150509250925092565b60008060408385031215610f8857600080fd5b6000610f9685828601610e97565b9250506020610fa785828601610eac565b9150509250929050565b600060208284031215610fc357600080fd5b6000610fd184828501610eac565b91505092915050565b610fe381611409565b82525050565b6000610ff482611351565b610ffe818561135c565b935061100e81856020860161144c565b6110178161150f565b840191505092915050565b600061102f60238361135c565b915061103a82611520565b604082019050919050565b600061105260228361135c565b915061105d8261156f565b604082019050919050565b600061107560228361135c565b9150611080826115be565b604082019050919050565b6000611098601d8361135c565b91506110a38261160d565b602082019050919050565b60006110bb60268361135c565b91506110c682611636565b604082019050919050565b60006110de60218361135c565b91506110e982611685565b604082019050919050565b600061110160258361135c565b915061110c826116d4565b604082019050919050565b600061112460248361135c565b915061112f82611723565b604082019050919050565b600061114760258361135c565b915061115282611772565b604082019050919050565b600061116a601f8361135c565b9150611175826117c1565b602082019050919050565b61118981611435565b82525050565b6111988161143f565b82525050565b60006020820190506111b36000830184610fda565b92915050565b600060208201905081810360008301526111d38184610fe9565b905092915050565b600060208201905081810360008301526111f481611022565b9050919050565b6000602082019050818103600083015261121481611045565b9050919050565b6000602082019050818103600083015261123481611068565b9050919050565b600060208201905081810360008301526112548161108b565b9050919050565b60006020820190508181036000830152611274816110ae565b9050919050565b60006020820190508181036000830152611294816110d1565b9050919050565b600060208201905081810360008301526112b4816110f4565b9050919050565b600060208201905081810360008301526112d481611117565b9050919050565b600060208201905081810360008301526112f48161113a565b9050919050565b600060208201905081810360008301526113148161115d565b9050919050565b60006020820190506113306000830184611180565b92915050565b600060208201905061134b600083018461118f565b92915050565b600081519050919050565b600082825260208201905092915050565b600061137882611435565b915061138383611435565b9250827fffffffffffffffffffffffffffffffffffffffffffffffffffffffffffffffff038211156113b8576113b76114b1565b5b828201905092915050565b60006113ce82611435565b91506113d983611435565b9250828210156113ec576113eb6114b1565b5b828203905092915050565b600061140282611415565b9050919050565b60008115159050919050565b600073ffffffffffffffffffffffffffffffffffffffff82169050919050565b6000819050919050565b600060ff82169050919050565b60005b8381101561146a57808201518184015260208101905061144f565b83811115611479576000848401525b50505050565b6000600282049050600182168061149757607f821691505b602082108114156114ab576114aa6114e0565b5b50919050565b7f4e487b7100000000000000000000000000000000000000000000000000000000600052601160045260246000fd5b7f4e487b7100000000000000000000000000000000000000000000000000000000600052602260045260246000fd5b6000601f19601f8301169050919050565b7f45524332303a207472616e7366657220746f20746865207a65726f206164647260008201527f6573730000000000000000000000000000000000000000000000000000000000602082015250565b7f45524332303a206275726e20616d6f756e7420657863656564732062616c616e60008201527f6365000000000000000000000000000000000000000000000000000000000000602082015250565b7f45524332303a20617070726f766520746f20746865207a65726f20616464726560008201527f7373000000000000000000000000000000000000000000000000000000000000602082015250565b7f45524332303a20696e73756666696369656e7420616c6c6f77616e6365000000600082015250565b7f45524332303a207472616e7366657220616d6f756e742065786365656473206260008201527f616c616e63650000000000000000000000000000000000000000000000000000602082015250565b7f45524332303a206275726e2066726f6d20746865207a65726f2061646472657360008201527f7300000000000000000000000000000000000000000000000000000000000000602082015250565b7f45524332303a207472616e736665722066726f6d20746865207a65726f20616460008201527f6472657373000000000000000000000000000000000000000000000000000000602082015250565b7f45524332303a20617070726f76652066726f6d20746865207a65726f2061646460008201527f7265737300000000000000000000000000000000000000000000000000000000602082015250565b7f45524332303a2064656372656173656420616c6c6f77616e63652062656c6f7760008201527f207a65726f000000000000000000000000000000000000000000000000000000602082015250565b7f45524332303a206d696e7420746f20746865207a65726f206164647265737300600082015250565b6117f3816113f7565b81146117fe57600080fd5b50565b61180a81611435565b811461181557600080fd5b5056fea26469706673582212209cb8c48a71c07e980570363228e74f0aeec418e0d330f6e27caf5ea0aeb9610164736f6c63430008040033",
  "linkReferences": {},
  "deployedLinkReferences": {}
}