{
  "_format": "hh-sol-artifact-1",
  "contractName": "NftBasicMintable",
  "sourceName": "contracts/dev3/nft-basic-mintable/NftBasicMintable.sol",
  "abi": [
    {
      "inputs": [
        {
          "internalType": "string",
          "name": "tokenName",
          "type": "string"
        },
        {
          "internalType": "string",
          "name": "symbol",
          "type": "string"
        },
        {
          "internalType": "string",
          "name": "baseURI_",
          "type": "string"
        }
      ],
      "stateMutability": "nonpayable",
      "type": "constructor"
    },
    {
      "anonymous": false,
      "inputs": [
        {
          "indexed": true,
          "internalType": "address",
          "name": "owner",
          "type": "address"
        },
        {
          "indexed": true,
          "internalType": "address",
          "name": "approved",
          "type": "address"
        },
        {
          "indexed": true,
          "internalType": "uint256",
          "name": "tokenId",
          "type": "uint256"
        }
      ],
      "name": "Approval",
      "type": "event"
    },
    {
      "anonymous": false,
      "inputs": [
        {
          "indexed": true,
          "internalType": "address",
          "name": "owner",
          "type": "address"
        },
        {
          "indexed": true,
          "internalType": "address",
          "name": "operator",
          "type": "address"
        },
        {
          "indexed": false,
          "internalType": "bool",
          "name": "approved",
          "type": "bool"
        }
      ],
      "name": "ApprovalForAll",
      "type": "event"
    },
    {
      "anonymous": false,
      "inputs": [
        {
          "indexed": true,
          "internalType": "address",
          "name": "previousOwner",
          "type": "address"
        },
        {
          "indexed": true,
          "internalType": "address",
          "name": "newOwner",
          "type": "address"
        }
      ],
      "name": "OwnershipTransferred",
      "type": "event"
    },
    {
      "anonymous": false,
      "inputs": [
        {
          "indexed": true,
          "internalType": "address",
          "name": "from",
          "type": "address"
        },
        {
          "indexed": true,
          "internalType": "address",
          "name": "to",
          "type": "address"
        },
        {
          "indexed": true,
          "internalType": "uint256",
          "name": "tokenId",
          "type": "uint256"
        }
      ],
      "name": "Transfer",
      "type": "event"
    },
    {
      "inputs": [
        {
          "internalType": "address",
          "name": "to",
          "type": "address"
        },
        {
          "internalType": "uint256",
          "name": "tokenId",
          "type": "uint256"
        }
      ],
      "name": "approve",
      "outputs": [],
      "stateMutability": "nonpayable",
      "type": "function"
    },
    {
      "inputs": [
        {
          "internalType": "address",
          "name": "owner",
          "type": "address"
        }
      ],
      "name": "balanceOf",
      "outputs": [
        {
          "internalType": "uint256",
          "name": "",
          "type": "uint256"
        }
      ],
      "stateMutability": "view",
      "type": "function"
    },
    {
      "inputs": [
        {
          "internalType": "uint256",
          "name": "tokenId",
          "type": "uint256"
        }
      ],
      "name": "getApproved",
      "outputs": [
        {
          "internalType": "address",
          "name": "",
          "type": "address"
        }
      ],
      "stateMutability": "view",
      "type": "function"
    },
    {
      "inputs": [
        {
          "internalType": "address",
          "name": "owner",
          "type": "address"
        },
        {
          "internalType": "address",
          "name": "operator",
          "type": "address"
        }
      ],
      "name": "isApprovedForAll",
      "outputs": [
        {
          "internalType": "bool",
          "name": "",
          "type": "bool"
        }
      ],
      "stateMutability": "view",
      "type": "function"
    },
    {
      "inputs": [
        {
          "internalType": "address",
          "name": "owner",
          "type": "address"
        },
        {
          "internalType": "uint256",
          "name": "count",
          "type": "uint256"
        }
      ],
      "name": "mint",
      "outputs": [],
      "stateMutability": "nonpayable",
      "type": "function"
    },
    {
      "inputs": [],
      "name": "name",
      "outputs": [
        {
          "internalType": "string",
          "name": "",
          "type": "string"
        }
      ],
      "stateMutability": "view",
      "type": "function"
    },
    {
      "inputs": [],
      "name": "owner",
      "outputs": [
        {
          "internalType": "address",
          "name": "",
          "type": "address"
        }
      ],
      "stateMutability": "view",
      "type": "function"
    },
    {
      "inputs": [
        {
          "internalType": "uint256",
          "name": "tokenId",
          "type": "uint256"
        }
      ],
      "name": "ownerOf",
      "outputs": [
        {
          "internalType": "address",
          "name": "",
          "type": "address"
        }
      ],
      "stateMutability": "view",
      "type": "function"
    },
    {
      "inputs": [],
      "name": "renounceOwnership",
      "outputs": [],
      "stateMutability": "nonpayable",
      "type": "function"
    },
    {
      "inputs": [
        {
          "internalType": "address",
          "name": "from",
          "type": "address"
        },
        {
          "internalType": "address",
          "name": "to",
          "type": "address"
        },
        {
          "internalType": "uint256",
          "name": "tokenId",
          "type": "uint256"
        }
      ],
      "name": "safeTransferFrom",
      "outputs": [],
      "stateMutability": "nonpayable",
      "type": "function"
    },
    {
      "inputs": [
        {
          "internalType": "address",
          "name": "from",
          "type": "address"
        },
        {
          "internalType": "address",
          "name": "to",
          "type": "address"
        },
        {
          "internalType": "uint256",
          "name": "tokenId",
          "type": "uint256"
        },
        {
          "internalType": "bytes",
          "name": "_data",
          "type": "bytes"
        }
      ],
      "name": "safeTransferFrom",
      "outputs": [],
      "stateMutability": "nonpayable",
      "type": "function"
    },
    {
      "inputs": [
        {
          "internalType": "address",
          "name": "operator",
          "type": "address"
        },
        {
          "internalType": "bool",
          "name": "approved",
          "type": "bool"
        }
      ],
      "name": "setApprovalForAll",
      "outputs": [],
      "stateMutability": "nonpayable",
      "type": "function"
    },
    {
      "inputs": [
        {
          "internalType": "string",
          "name": "baseURI_",
          "type": "string"
        }
      ],
      "name": "setBaseURI",
      "outputs": [],
      "stateMutability": "nonpayable",
      "type": "function"
    },
    {
      "inputs": [
        {
          "internalType": "bytes4",
          "name": "interfaceId",
          "type": "bytes4"
        }
      ],
      "name": "supportsInterface",
      "outputs": [
        {
          "internalType": "bool",
          "name": "",
          "type": "bool"
        }
      ],
      "stateMutability": "view",
      "type": "function"
    },
    {
      "inputs": [],
      "name": "symbol",
      "outputs": [
        {
          "internalType": "string",
          "name": "",
          "type": "string"
        }
      ],
      "stateMutability": "view",
      "type": "function"
    },
    {
      "inputs": [
        {
          "internalType": "uint256",
          "name": "tokenId",
          "type": "uint256"
        }
      ],
      "name": "tokenURI",
      "outputs": [
        {
          "internalType": "string",
          "name": "",
          "type": "string"
        }
      ],
      "stateMutability": "view",
      "type": "function"
    },
    {
      "inputs": [
        {
          "internalType": "address",
          "name": "from",
          "type": "address"
        },
        {
          "internalType": "address",
          "name": "to",
          "type": "address"
        },
        {
          "internalType": "uint256",
          "name": "tokenId",
          "type": "uint256"
        }
      ],
      "name": "transferFrom",
      "outputs": [],
      "stateMutability": "nonpayable",
      "type": "function"
    },
    {
      "inputs": [
        {
          "internalType": "address",
          "name": "newOwner",
          "type": "address"
        }
      ],
      "name": "transferOwnership",
      "outputs": [],
      "stateMutability": "nonpayable",
      "type": "function"
    }
  ],
  "bytecode": "0x60806040523480156200001157600080fd5b50604051620032053803806200320583398181016040528101906200003791906200029f565b82828160009080519060200190620000519291906200017d565b5080600190805190602001906200006a9291906200017d565b5050506200008d62000081620000af60201b60201c565b620000b760201b60201c565b8060089080519060200190620000a59291906200017d565b5050505062000471565b600033905090565b6000600660009054906101000a900473ffffffffffffffffffffffffffffffffffffffff16905081600660006101000a81548173ffffffffffffffffffffffffffffffffffffffff021916908373ffffffffffffffffffffffffffffffffffffffff1602179055508173ffffffffffffffffffffffffffffffffffffffff168173ffffffffffffffffffffffffffffffffffffffff167f8be0079c531659141344cd1fd0a4f28419497f9722a3daafe3b4186f6b6457e060405160405180910390a35050565b8280546200018b90620003dd565b90600052602060002090601f016020900481019282620001af5760008555620001fb565b82601f10620001ca57805160ff1916838001178555620001fb565b82800160010185558215620001fb579182015b82811115620001fa578251825591602001919060010190620001dd565b5b5090506200020a91906200020e565b5090565b5b80821115620002295760008160009055506001016200020f565b5090565b6000620002446200023e8462000374565b62000340565b9050828152602081018484840111156200025d57600080fd5b6200026a848285620003a7565b509392505050565b600082601f8301126200028457600080fd5b8151620002968482602086016200022d565b91505092915050565b600080600060608486031215620002b557600080fd5b600084015167ffffffffffffffff811115620002d057600080fd5b620002de8682870162000272565b935050602084015167ffffffffffffffff811115620002fc57600080fd5b6200030a8682870162000272565b925050604084015167ffffffffffffffff8111156200032857600080fd5b620003368682870162000272565b9150509250925092565b6000604051905081810181811067ffffffffffffffff821117156200036a576200036962000442565b5b8060405250919050565b600067ffffffffffffffff82111562000392576200039162000442565b5b601f19601f8301169050602081019050919050565b60005b83811015620003c7578082015181840152602081019050620003aa565b83811115620003d7576000848401525b50505050565b60006002820490506001821680620003f657607f821691505b602082108114156200040d576200040c62000413565b5b50919050565b7f4e487b7100000000000000000000000000000000000000000000000000000000600052602260045260246000fd5b7f4e487b7100000000000000000000000000000000000000000000000000000000600052604160045260246000fd5b612d8480620004816000396000f3fe608060405234801561001057600080fd5b50600436106101165760003560e01c806370a08231116100a2578063a22cb46511610071578063a22cb465146102cb578063b88d4fde146102e7578063c87b56dd14610303578063e985e9c514610333578063f2fde38b1461036357610116565b806370a0823114610255578063715018a6146102855780638da5cb5b1461028f57806395d89b41146102ad57610116565b806323b872dd116100e957806323b872dd146101b557806340c10f19146101d157806342842e0e146101ed57806355f804b3146102095780636352211e1461022557610116565b806301ffc9a71461011b57806306fdde031461014b578063081812fc14610169578063095ea7b314610199575b600080fd5b61013560048036038101906101309190611efd565b61037f565b60405161014291906126dc565b60405180910390f35b610153610461565b60405161016091906126f7565b60405180910390f35b610183600480360381019061017e9190611f90565b6104f3565b6040516101909190612675565b60405180910390f35b6101b360048036038101906101ae9190611ec1565b610578565b005b6101cf60048036038101906101ca9190611dbb565b610690565b005b6101eb60048036038101906101e69190611ec1565b6106f0565b005b61020760048036038101906102029190611dbb565b6107b2565b005b610223600480360381019061021e9190611f4f565b6107d2565b005b61023f600480360381019061023a9190611f90565b610868565b60405161024c9190612675565b60405180910390f35b61026f600480360381019061026a9190611d56565b61091a565b60405161027c9190612919565b60405180910390f35b61028d6109d2565b005b610297610a5a565b6040516102a49190612675565b60405180910390f35b6102b5610a84565b6040516102c291906126f7565b60405180910390f35b6102e560048036038101906102e09190611e85565b610b16565b005b61030160048036038101906102fc9190611e0a565b610b2c565b005b61031d60048036038101906103189190611f90565b610b8e565b60405161032a91906126f7565b60405180910390f35b61034d60048036038101906103489190611d7f565b610c35565b60405161035a91906126dc565b60405180910390f35b61037d60048036038101906103789190611d56565b610cc9565b005b60007f80ac58cd000000000000000000000000000000000000000000000000000000007bffffffffffffffffffffffffffffffffffffffffffffffffffffffff1916827bffffffffffffffffffffffffffffffffffffffffffffffffffffffff1916148061044a57507f5b5e139f000000000000000000000000000000000000000000000000000000007bffffffffffffffffffffffffffffffffffffffffffffffffffffffff1916827bffffffffffffffffffffffffffffffffffffffffffffffffffffffff1916145b8061045a575061045982610dc1565b5b9050919050565b60606000805461047090612b79565b80601f016020809104026020016040519081016040528092919081815260200182805461049c90612b79565b80156104e95780601f106104be576101008083540402835291602001916104e9565b820191906000526020600020905b8154815290600101906020018083116104cc57829003601f168201915b5050505050905090565b60006104fe82610e2b565b61053d576040517f08c379a000000000000000000000000000000000000000000000000000000000815260040161053490612859565b60405180910390fd5b6004600083815260200190815260200160002060009054906101000a900473ffffffffffffffffffffffffffffffffffffffff169050919050565b600061058382610868565b90508073ffffffffffffffffffffffffffffffffffffffff168373ffffffffffffffffffffffffffffffffffffffff1614156105f4576040517f08c379a00000000000000000000000000000000000000000000000000000000081526004016105eb906128d9565b60405180910390fd5b8073ffffffffffffffffffffffffffffffffffffffff16610613610e97565b73ffffffffffffffffffffffffffffffffffffffff16148061064257506106418161063c610e97565b610c35565b5b610681576040517f08c379a0000000000000000000000000000000000000000000000000000000008152600401610678906127d9565b60405180910390fd5b61068b8383610e9f565b505050565b6106a161069b610e97565b82610f58565b6106e0576040517f08c379a00000000000000000000000000000000000000000000000000000000081526004016106d7906128f9565b60405180910390fd5b6106eb838383611036565b505050565b6106f8610e97565b73ffffffffffffffffffffffffffffffffffffffff16610716610a5a565b73ffffffffffffffffffffffffffffffffffffffff161461076c576040517f08c379a000000000000000000000000000000000000000000000000000000000815260040161076390612879565b60405180910390fd5b60005b818110156107ad5760006107836007611292565b905061078f84826112a0565b61079960076112be565b5080806107a590612bab565b91505061076f565b505050565b6107cd83838360405180602001604052806000815250610b2c565b505050565b6107da610e97565b73ffffffffffffffffffffffffffffffffffffffff166107f8610a5a565b73ffffffffffffffffffffffffffffffffffffffff161461084e576040517f08c379a000000000000000000000000000000000000000000000000000000000815260040161084590612879565b60405180910390fd5b8060089080519060200190610864929190611b7a565b5050565b6000806002600084815260200190815260200160002060009054906101000a900473ffffffffffffffffffffffffffffffffffffffff169050600073ffffffffffffffffffffffffffffffffffffffff168173ffffffffffffffffffffffffffffffffffffffff161415610911576040517f08c379a000000000000000000000000000000000000000000000000000000000815260040161090890612819565b60405180910390fd5b80915050919050565b60008073ffffffffffffffffffffffffffffffffffffffff168273ffffffffffffffffffffffffffffffffffffffff16141561098b576040517f08c379a0000000000000000000000000000000000000000000000000000000008152600401610982906127f9565b60405180910390fd5b600360008373ffffffffffffffffffffffffffffffffffffffff1673ffffffffffffffffffffffffffffffffffffffff168152602001908152602001600020549050919050565b6109da610e97565b73ffffffffffffffffffffffffffffffffffffffff166109f8610a5a565b73ffffffffffffffffffffffffffffffffffffffff1614610a4e576040517f08c379a0000000000000000000000000000000000000000000000000000000008152600401610a4590612879565b60405180910390fd5b610a5860006112d4565b565b6000600660009054906101000a900473ffffffffffffffffffffffffffffffffffffffff16905090565b606060018054610a9390612b79565b80601f0160208091040260200160405190810160405280929190818152602001828054610abf90612b79565b8015610b0c5780601f10610ae157610100808354040283529160200191610b0c565b820191906000526020600020905b815481529060010190602001808311610aef57829003601f168201915b5050505050905090565b610b28610b21610e97565b838361139a565b5050565b610b3d610b37610e97565b83610f58565b610b7c576040517f08c379a0000000000000000000000000000000000000000000000000000000008152600401610b73906128f9565b60405180910390fd5b610b8884848484611507565b50505050565b6060610b9982610e2b565b610bd8576040517f08c379a0000000000000000000000000000000000000000000000000000000008152600401610bcf906128b9565b60405180910390fd5b6000610be2611563565b90506000815111610c025760405180602001604052806000815250610c2d565b80610c0c846115f5565b604051602001610c1d929190612651565b6040516020818303038152906040525b915050919050565b6000600560008473ffffffffffffffffffffffffffffffffffffffff1673ffffffffffffffffffffffffffffffffffffffff16815260200190815260200160002060008373ffffffffffffffffffffffffffffffffffffffff1673ffffffffffffffffffffffffffffffffffffffff16815260200190815260200160002060009054906101000a900460ff16905092915050565b610cd1610e97565b73ffffffffffffffffffffffffffffffffffffffff16610cef610a5a565b73ffffffffffffffffffffffffffffffffffffffff1614610d45576040517f08c379a0000000000000000000000000000000000000000000000000000000008152600401610d3c90612879565b60405180910390fd5b600073ffffffffffffffffffffffffffffffffffffffff168173ffffffffffffffffffffffffffffffffffffffff161415610db5576040517f08c379a0000000000000000000000000000000000000000000000000000000008152600401610dac90612739565b60405180910390fd5b610dbe816112d4565b50565b60007f01ffc9a7000000000000000000000000000000000000000000000000000000007bffffffffffffffffffffffffffffffffffffffffffffffffffffffff1916827bffffffffffffffffffffffffffffffffffffffffffffffffffffffff1916149050919050565b60008073ffffffffffffffffffffffffffffffffffffffff166002600084815260200190815260200160002060009054906101000a900473ffffffffffffffffffffffffffffffffffffffff1673ffffffffffffffffffffffffffffffffffffffff1614159050919050565b600033905090565b816004600083815260200190815260200160002060006101000a81548173ffffffffffffffffffffffffffffffffffffffff021916908373ffffffffffffffffffffffffffffffffffffffff160217905550808273ffffffffffffffffffffffffffffffffffffffff16610f1283610868565b73ffffffffffffffffffffffffffffffffffffffff167f8c5be1e5ebec7d5bd14f71427d1e84f3dd0314c0f7b2291e5b200ac8c7c3b92560405160405180910390a45050565b6000610f6382610e2b565b610fa2576040517f08c379a0000000000000000000000000000000000000000000000000000000008152600401610f99906127b9565b60405180910390fd5b6000610fad83610868565b90508073ffffffffffffffffffffffffffffffffffffffff168473ffffffffffffffffffffffffffffffffffffffff16148061101c57508373ffffffffffffffffffffffffffffffffffffffff16611004846104f3565b73ffffffffffffffffffffffffffffffffffffffff16145b8061102d575061102c8185610c35565b5b91505092915050565b8273ffffffffffffffffffffffffffffffffffffffff1661105682610868565b73ffffffffffffffffffffffffffffffffffffffff16146110ac576040517f08c379a00000000000000000000000000000000000000000000000000000000081526004016110a390612899565b60405180910390fd5b600073ffffffffffffffffffffffffffffffffffffffff168273ffffffffffffffffffffffffffffffffffffffff16141561111c576040517f08c379a000000000000000000000000000000000000000000000000000000000815260040161111390612779565b60405180910390fd5b6111278383836117a2565b611132600082610e9f565b6001600360008573ffffffffffffffffffffffffffffffffffffffff1673ffffffffffffffffffffffffffffffffffffffff16815260200190815260200160002060008282546111829190612a8f565b925050819055506001600360008473ffffffffffffffffffffffffffffffffffffffff1673ffffffffffffffffffffffffffffffffffffffff16815260200190815260200160002060008282546111d99190612a08565b92505081905550816002600083815260200190815260200160002060006101000a81548173ffffffffffffffffffffffffffffffffffffffff021916908373ffffffffffffffffffffffffffffffffffffffff160217905550808273ffffffffffffffffffffffffffffffffffffffff168473ffffffffffffffffffffffffffffffffffffffff167fddf252ad1be2c89b69c2b068fc378daa952ba7f163c4a11628f55a4df523b3ef60405160405180910390a4505050565b600081600001549050919050565b6112ba8282604051806020016040528060008152506117a7565b5050565b6001816000016000828254019250508190555050565b6000600660009054906101000a900473ffffffffffffffffffffffffffffffffffffffff16905081600660006101000a81548173ffffffffffffffffffffffffffffffffffffffff021916908373ffffffffffffffffffffffffffffffffffffffff1602179055508173ffffffffffffffffffffffffffffffffffffffff168173ffffffffffffffffffffffffffffffffffffffff167f8be0079c531659141344cd1fd0a4f28419497f9722a3daafe3b4186f6b6457e060405160405180910390a35050565b8173ffffffffffffffffffffffffffffffffffffffff168373ffffffffffffffffffffffffffffffffffffffff161415611409576040517f08c379a000000000000000000000000000000000000000000000000000000000815260040161140090612799565b60405180910390fd5b80600560008573ffffffffffffffffffffffffffffffffffffffff1673ffffffffffffffffffffffffffffffffffffffff16815260200190815260200160002060008473ffffffffffffffffffffffffffffffffffffffff1673ffffffffffffffffffffffffffffffffffffffff16815260200190815260200160002060006101000a81548160ff0219169083151502179055508173ffffffffffffffffffffffffffffffffffffffff168373ffffffffffffffffffffffffffffffffffffffff167f17307eab39ab6107e8899845ad3d59bd9653f200f220920489ca2b5937696c31836040516114fa91906126dc565b60405180910390a3505050565b611512848484611036565b61151e84848484611802565b61155d576040517f08c379a000000000000000000000000000000000000000000000000000000000815260040161155490612719565b60405180910390fd5b50505050565b60606008805461157290612b79565b80601f016020809104026020016040519081016040528092919081815260200182805461159e90612b79565b80156115eb5780601f106115c0576101008083540402835291602001916115eb565b820191906000526020600020905b8154815290600101906020018083116115ce57829003601f168201915b5050505050905090565b6060600082141561163d576040518060400160405280600181526020017f3000000000000000000000000000000000000000000000000000000000000000815250905061179d565b600082905060005b6000821461166f57808061165890612bab565b915050600a826116689190612a5e565b9150611645565b60008167ffffffffffffffff8111156116b1577f4e487b7100000000000000000000000000000000000000000000000000000000600052604160045260246000fd5b6040519080825280601f01601f1916602001820160405280156116e35781602001600182028036833780820191505090505b5090505b60008514611796576001826116fc9190612a8f565b9150600a8561170b9190612bf4565b60306117179190612a08565b60f81b818381518110611753577f4e487b7100000000000000000000000000000000000000000000000000000000600052603260045260246000fd5b60200101907effffffffffffffffffffffffffffffffffffffffffffffffffffffffffffff1916908160001a905350600a8561178f9190612a5e565b94506116e7565b8093505050505b919050565b505050565b6117b18383611999565b6117be6000848484611802565b6117fd576040517f08c379a00000000000000000000000000000000000000000000000000000000081526004016117f490612719565b60405180910390fd5b505050565b60006118238473ffffffffffffffffffffffffffffffffffffffff16611b67565b1561198c578373ffffffffffffffffffffffffffffffffffffffff1663150b7a0261184c610e97565b8786866040518563ffffffff1660e01b815260040161186e9493929190612690565b602060405180830381600087803b15801561188857600080fd5b505af19250505080156118b957506040513d601f19601f820116820180604052508101906118b69190611f26565b60015b61193c573d80600081146118e9576040519150601f19603f3d011682016040523d82523d6000602084013e6118ee565b606091505b50600081511415611934576040517f08c379a000000000000000000000000000000000000000000000000000000000815260040161192b90612719565b60405180910390fd5b805181602001fd5b63150b7a0260e01b7bffffffffffffffffffffffffffffffffffffffffffffffffffffffff1916817bffffffffffffffffffffffffffffffffffffffffffffffffffffffff191614915050611991565b600190505b949350505050565b600073ffffffffffffffffffffffffffffffffffffffff168273ffffffffffffffffffffffffffffffffffffffff161415611a09576040517f08c379a0000000000000000000000000000000000000000000000000000000008152600401611a0090612839565b60405180910390fd5b611a1281610e2b565b15611a52576040517f08c379a0000000000000000000000000000000000000000000000000000000008152600401611a4990612759565b60405180910390fd5b611a5e600083836117a2565b6001600360008473ffffffffffffffffffffffffffffffffffffffff1673ffffffffffffffffffffffffffffffffffffffff1681526020019081526020016000206000828254611aae9190612a08565b92505081905550816002600083815260200190815260200160002060006101000a81548173ffffffffffffffffffffffffffffffffffffffff021916908373ffffffffffffffffffffffffffffffffffffffff160217905550808273ffffffffffffffffffffffffffffffffffffffff16600073ffffffffffffffffffffffffffffffffffffffff167fddf252ad1be2c89b69c2b068fc378daa952ba7f163c4a11628f55a4df523b3ef60405160405180910390a45050565b600080823b905060008111915050919050565b828054611b8690612b79565b90600052602060002090601f016020900481019282611ba85760008555611bef565b82601f10611bc157805160ff1916838001178555611bef565b82800160010185558215611bef579182015b82811115611bee578251825591602001919060010190611bd3565b5b509050611bfc9190611c00565b5090565b5b80821115611c19576000816000905550600101611c01565b5090565b6000611c30611c2b84612965565b612934565b905082815260208101848484011115611c4857600080fd5b611c53848285612b37565b509392505050565b6000611c6e611c6984612995565b612934565b905082815260208101848484011115611c8657600080fd5b611c91848285612b37565b509392505050565b600081359050611ca881612cf2565b92915050565b600081359050611cbd81612d09565b92915050565b600081359050611cd281612d20565b92915050565b600081519050611ce781612d20565b92915050565b600082601f830112611cfe57600080fd5b8135611d0e848260208601611c1d565b91505092915050565b600082601f830112611d2857600080fd5b8135611d38848260208601611c5b565b91505092915050565b600081359050611d5081612d37565b92915050565b600060208284031215611d6857600080fd5b6000611d7684828501611c99565b91505092915050565b60008060408385031215611d9257600080fd5b6000611da085828601611c99565b9250506020611db185828601611c99565b9150509250929050565b600080600060608486031215611dd057600080fd5b6000611dde86828701611c99565b9350506020611def86828701611c99565b9250506040611e0086828701611d41565b9150509250925092565b60008060008060808587031215611e2057600080fd5b6000611e2e87828801611c99565b9450506020611e3f87828801611c99565b9350506040611e5087828801611d41565b925050606085013567ffffffffffffffff811115611e6d57600080fd5b611e7987828801611ced565b91505092959194509250565b60008060408385031215611e9857600080fd5b6000611ea685828601611c99565b9250506020611eb785828601611cae565b9150509250929050565b60008060408385031215611ed457600080fd5b6000611ee285828601611c99565b9250506020611ef385828601611d41565b9150509250929050565b600060208284031215611f0f57600080fd5b6000611f1d84828501611cc3565b91505092915050565b600060208284031215611f3857600080fd5b6000611f4684828501611cd8565b91505092915050565b600060208284031215611f6157600080fd5b600082013567ffffffffffffffff811115611f7b57600080fd5b611f8784828501611d17565b91505092915050565b600060208284031215611fa257600080fd5b6000611fb084828501611d41565b91505092915050565b611fc281612ac3565b82525050565b611fd181612ad5565b82525050565b6000611fe2826129c5565b611fec81856129db565b9350611ffc818560208601612b46565b61200581612ce1565b840191505092915050565b600061201b826129d0565b61202581856129ec565b9350612035818560208601612b46565b61203e81612ce1565b840191505092915050565b6000612054826129d0565b61205e81856129fd565b935061206e818560208601612b46565b80840191505092915050565b60006120876032836129ec565b91507f4552433732313a207472616e7366657220746f206e6f6e20455243373231526560008301527f63656976657220696d706c656d656e74657200000000000000000000000000006020830152604082019050919050565b60006120ed6026836129ec565b91507f4f776e61626c653a206e6577206f776e657220697320746865207a65726f206160008301527f64647265737300000000000000000000000000000000000000000000000000006020830152604082019050919050565b6000612153601c836129ec565b91507f4552433732313a20746f6b656e20616c7265616479206d696e746564000000006000830152602082019050919050565b60006121936024836129ec565b91507f4552433732313a207472616e7366657220746f20746865207a65726f2061646460008301527f72657373000000000000000000000000000000000000000000000000000000006020830152604082019050919050565b60006121f96019836129ec565b91507f4552433732313a20617070726f766520746f2063616c6c6572000000000000006000830152602082019050919050565b6000612239602c836129ec565b91507f4552433732313a206f70657261746f7220717565727920666f72206e6f6e657860008301527f697374656e7420746f6b656e00000000000000000000000000000000000000006020830152604082019050919050565b600061229f6038836129ec565b91507f4552433732313a20617070726f76652063616c6c6572206973206e6f74206f7760008301527f6e6572206e6f7220617070726f76656420666f7220616c6c00000000000000006020830152604082019050919050565b6000612305602a836129ec565b91507f4552433732313a2062616c616e636520717565727920666f7220746865207a6560008301527f726f2061646472657373000000000000000000000000000000000000000000006020830152604082019050919050565b600061236b6029836129ec565b91507f4552433732313a206f776e657220717565727920666f72206e6f6e657869737460008301527f656e7420746f6b656e00000000000000000000000000000000000000000000006020830152604082019050919050565b60006123d16020836129ec565b91507f4552433732313a206d696e7420746f20746865207a65726f20616464726573736000830152602082019050919050565b6000612411602c836129ec565b91507f4552433732313a20617070726f76656420717565727920666f72206e6f6e657860008301527f697374656e7420746f6b656e00000000000000000000000000000000000000006020830152604082019050919050565b60006124776020836129ec565b91507f4f776e61626c653a2063616c6c6572206973206e6f7420746865206f776e65726000830152602082019050919050565b60006124b76029836129ec565b91507f4552433732313a207472616e73666572206f6620746f6b656e2074686174206960008301527f73206e6f74206f776e00000000000000000000000000000000000000000000006020830152604082019050919050565b600061251d602f836129ec565b91507f4552433732314d657461646174613a2055524920717565727920666f72206e6f60008301527f6e6578697374656e7420746f6b656e00000000000000000000000000000000006020830152604082019050919050565b60006125836021836129ec565b91507f4552433732313a20617070726f76616c20746f2063757272656e74206f776e6560008301527f72000000000000000000000000000000000000000000000000000000000000006020830152604082019050919050565b60006125e96031836129ec565b91507f4552433732313a207472616e736665722063616c6c6572206973206e6f74206f60008301527f776e6572206e6f7220617070726f7665640000000000000000000000000000006020830152604082019050919050565b61264b81612b2d565b82525050565b600061265d8285612049565b91506126698284612049565b91508190509392505050565b600060208201905061268a6000830184611fb9565b92915050565b60006080820190506126a56000830187611fb9565b6126b26020830186611fb9565b6126bf6040830185612642565b81810360608301526126d18184611fd7565b905095945050505050565b60006020820190506126f16000830184611fc8565b92915050565b600060208201905081810360008301526127118184612010565b905092915050565b600060208201905081810360008301526127328161207a565b9050919050565b60006020820190508181036000830152612752816120e0565b9050919050565b6000602082019050818103600083015261277281612146565b9050919050565b6000602082019050818103600083015261279281612186565b9050919050565b600060208201905081810360008301526127b2816121ec565b9050919050565b600060208201905081810360008301526127d28161222c565b9050919050565b600060208201905081810360008301526127f281612292565b9050919050565b60006020820190508181036000830152612812816122f8565b9050919050565b600060208201905081810360008301526128328161235e565b9050919050565b60006020820190508181036000830152612852816123c4565b9050919050565b6000602082019050818103600083015261287281612404565b9050919050565b600060208201905081810360008301526128928161246a565b9050919050565b600060208201905081810360008301526128b2816124aa565b9050919050565b600060208201905081810360008301526128d281612510565b9050919050565b600060208201905081810360008301526128f281612576565b9050919050565b60006020820190508181036000830152612912816125dc565b9050919050565b600060208201905061292e6000830184612642565b92915050565b6000604051905081810181811067ffffffffffffffff8211171561295b5761295a612cb2565b5b8060405250919050565b600067ffffffffffffffff8211156129805761297f612cb2565b5b601f19601f8301169050602081019050919050565b600067ffffffffffffffff8211156129b0576129af612cb2565b5b601f19601f8301169050602081019050919050565b600081519050919050565b600081519050919050565b600082825260208201905092915050565b600082825260208201905092915050565b600081905092915050565b6000612a1382612b2d565b9150612a1e83612b2d565b9250827fffffffffffffffffffffffffffffffffffffffffffffffffffffffffffffffff03821115612a5357612a52612c25565b5b828201905092915050565b6000612a6982612b2d565b9150612a7483612b2d565b925082612a8457612a83612c54565b5b828204905092915050565b6000612a9a82612b2d565b9150612aa583612b2d565b925082821015612ab857612ab7612c25565b5b828203905092915050565b6000612ace82612b0d565b9050919050565b60008115159050919050565b60007fffffffff0000000000000000000000000000000000000000000000000000000082169050919050565b600073ffffffffffffffffffffffffffffffffffffffff82169050919050565b6000819050919050565b82818337600083830152505050565b60005b83811015612b64578082015181840152602081019050612b49565b83811115612b73576000848401525b50505050565b60006002820490506001821680612b9157607f821691505b60208210811415612ba557612ba4612c83565b5b50919050565b6000612bb682612b2d565b91507fffffffffffffffffffffffffffffffffffffffffffffffffffffffffffffffff821415612be957612be8612c25565b5b600182019050919050565b6000612bff82612b2d565b9150612c0a83612b2d565b925082612c1a57612c19612c54565b5b828206905092915050565b7f4e487b7100000000000000000000000000000000000000000000000000000000600052601160045260246000fd5b7f4e487b7100000000000000000000000000000000000000000000000000000000600052601260045260246000fd5b7f4e487b7100000000000000000000000000000000000000000000000000000000600052602260045260246000fd5b7f4e487b7100000000000000000000000000000000000000000000000000000000600052604160045260246000fd5b6000601f19601f8301169050919050565b612cfb81612ac3565b8114612d0657600080fd5b50565b612d1281612ad5565b8114612d1d57600080fd5b50565b612d2981612ae1565b8114612d3457600080fd5b50565b612d4081612b2d565b8114612d4b57600080fd5b5056fea264697066735822122086e15544e5305118d7955e6d658eb72ff451b4040c646576e41e96435a97198f64736f6c63430008000033",
  "linkReferences": {},
  "deployedLinkReferences": {}
}