{
  "_format": "hh-sol-artifact-1",
  "contractName": "CfManagerSoftcapVesting",
  "sourceName": "contracts/dev3/cfmanager-softcap-vesting/CfManagerSoftcapVesting.sol",
  "abi": [
    {
      "inputs": [
        {
          "components": [
            {
              "internalType": "string",
              "name": "contractFlavor",
              "type": "string"
            },
            {
              "internalType": "string",
              "name": "contractVersion",
              "type": "string"
            },
            {
              "internalType": "address",
              "name": "owner",
              "type": "address"
            },
            {
              "internalType": "address",
              "name": "asset",
              "type": "address"
            },
            {
              "internalType": "address",
              "name": "issuer",
              "type": "address"
            },
            {
              "internalType": "address",
              "name": "paymentToken",
              "type": "address"
            },
            {
              "internalType": "uint256",
              "name": "tokenPrice",
              "type": "uint256"
            },
            {
              "internalType": "uint8",
              "name": "tokenPriceDecimals",
              "type": "uint8"
            },
            {
              "internalType": "uint256",
              "name": "softCap",
              "type": "uint256"
            },
            {
              "internalType": "uint256",
              "name": "minInvestment",
              "type": "uint256"
            },
            {
              "internalType": "uint256",
              "name": "maxInvestment",
              "type": "uint256"
            },
            {
              "internalType": "bool",
              "name": "whitelistRequired",
              "type": "bool"
            },
            {
              "internalType": "string",
              "name": "info",
              "type": "string"
            },
            {
              "internalType": "address",
              "name": "feeManager",
              "type": "address"
            }
          ],
          "internalType": "struct Structs.CampaignConstructor",
          "name": "params",
          "type": "tuple"
        }
      ],
      "stateMutability": "nonpayable",
      "type": "constructor"
    },
    {
      "anonymous": false,
      "inputs": [
        {
          "indexed": true,
          "internalType": "address",
          "name": "owner",
          "type": "address"
        },
        {
          "indexed": false,
          "internalType": "address",
          "name": "asset",
          "type": "address"
        },
        {
          "indexed": false,
          "internalType": "uint256",
          "name": "tokensReturned",
          "type": "uint256"
        },
        {
          "indexed": false,
          "internalType": "uint256",
          "name": "timestamp",
          "type": "uint256"
        }
      ],
      "name": "CancelCampaign",
      "type": "event"
    },
    {
      "anonymous": false,
      "inputs": [
        {
          "indexed": true,
          "internalType": "address",
          "name": "investor",
          "type": "address"
        },
        {
          "indexed": false,
          "internalType": "address",
          "name": "asset",
          "type": "address"
        },
        {
          "indexed": false,
          "internalType": "uint256",
          "name": "tokenAmount",
          "type": "uint256"
        },
        {
          "indexed": false,
          "internalType": "uint256",
          "name": "tokenValue",
          "type": "uint256"
        },
        {
          "indexed": false,
          "internalType": "uint256",
          "name": "timestamp",
          "type": "uint256"
        }
      ],
      "name": "CancelInvestment",
      "type": "event"
    },
    {
      "anonymous": false,
      "inputs": [
        {
          "indexed": false,
          "internalType": "address",
          "name": "caller",
          "type": "address"
        },
        {
          "indexed": false,
          "internalType": "address",
          "name": "newOwner",
          "type": "address"
        },
        {
          "indexed": false,
          "internalType": "uint256",
          "name": "timestamp",
          "type": "uint256"
        }
      ],
      "name": "ChangeOwnership",
      "type": "event"
    },
    {
      "anonymous": false,
      "inputs": [
        {
          "indexed": true,
          "internalType": "address",
          "name": "investor",
          "type": "address"
        },
        {
          "indexed": false,
          "internalType": "address",
          "name": "asset",
          "type": "address"
        },
        {
          "indexed": false,
          "internalType": "uint256",
          "name": "tokenAmount",
          "type": "uint256"
        },
        {
          "indexed": false,
          "internalType": "uint256",
          "name": "tokenValue",
          "type": "uint256"
        },
        {
          "indexed": false,
          "internalType": "uint256",
          "name": "timestamp",
          "type": "uint256"
        }
      ],
      "name": "Claim",
      "type": "event"
    },
    {
      "anonymous": false,
      "inputs": [
        {
          "indexed": true,
          "internalType": "address",
          "name": "owner",
          "type": "address"
        },
        {
          "indexed": false,
          "internalType": "address",
          "name": "asset",
          "type": "address"
        },
        {
          "indexed": false,
          "internalType": "uint256",
          "name": "fundsRaised",
          "type": "uint256"
        },
        {
          "indexed": false,
          "internalType": "uint256",
          "name": "tokensSold",
          "type": "uint256"
        },
        {
          "indexed": false,
          "internalType": "uint256",
          "name": "tokensRefund",
          "type": "uint256"
        },
        {
          "indexed": false,
          "internalType": "uint256",
          "name": "timestamp",
          "type": "uint256"
        }
      ],
      "name": "Finalize",
      "type": "event"
    },
    {
      "anonymous": false,
      "inputs": [
        {
          "indexed": true,
          "internalType": "address",
          "name": "investor",
          "type": "address"
        },
        {
          "indexed": false,
          "internalType": "address",
          "name": "asset",
          "type": "address"
        },
        {
          "indexed": false,
          "internalType": "uint256",
          "name": "tokenAmount",
          "type": "uint256"
        },
        {
          "indexed": false,
          "internalType": "uint256",
          "name": "tokenValue",
          "type": "uint256"
        },
        {
          "indexed": false,
          "internalType": "uint256",
          "name": "timestamp",
          "type": "uint256"
        }
      ],
      "name": "Invest",
      "type": "event"
    },
    {
      "anonymous": false,
      "inputs": [
        {
          "indexed": true,
          "internalType": "address",
          "name": "owner",
          "type": "address"
        },
        {
          "indexed": false,
          "internalType": "address",
          "name": "asset",
          "type": "address"
        },
        {
          "indexed": false,
          "internalType": "uint256",
          "name": "amount",
          "type": "uint256"
        },
        {
          "indexed": false,
          "internalType": "uint256",
          "name": "timestamp",
          "type": "uint256"
        }
      ],
      "name": "Revoke",
      "type": "event"
    },
    {
      "anonymous": false,
      "inputs": [
        {
          "indexed": false,
          "internalType": "string",
          "name": "info",
          "type": "string"
        },
        {
          "indexed": false,
          "internalType": "address",
          "name": "setter",
          "type": "address"
        },
        {
          "indexed": false,
          "internalType": "uint256",
          "name": "timestamp",
          "type": "uint256"
        }
      ],
      "name": "SetInfo",
      "type": "event"
    },
    {
      "anonymous": false,
      "inputs": [
        {
          "indexed": true,
          "internalType": "address",
          "name": "owner",
          "type": "address"
        },
        {
          "indexed": false,
          "internalType": "address",
          "name": "asset",
          "type": "address"
        },
        {
          "indexed": false,
          "internalType": "uint256",
          "name": "start",
          "type": "uint256"
        },
        {
          "indexed": false,
          "internalType": "uint256",
          "name": "cliffDuration",
          "type": "uint256"
        },
        {
          "indexed": false,
          "internalType": "uint256",
          "name": "duration",
          "type": "uint256"
        },
        {
          "indexed": false,
          "internalType": "uint256",
          "name": "timestamp",
          "type": "uint256"
        }
      ],
      "name": "StartVesting",
      "type": "event"
    },
    {
      "inputs": [],
      "name": "cancelCampaign",
      "outputs": [],
      "stateMutability": "nonpayable",
      "type": "function"
    },
    {
      "inputs": [],
      "name": "cancelInvestment",
      "outputs": [],
      "stateMutability": "nonpayable",
      "type": "function"
    },
    {
      "inputs": [
        {
          "internalType": "address",
          "name": "investor",
          "type": "address"
        }
      ],
      "name": "cancelInvestmentFor",
      "outputs": [],
      "stateMutability": "nonpayable",
      "type": "function"
    },
    {
      "inputs": [
        {
          "internalType": "address",
          "name": "newOwner",
          "type": "address"
        }
      ],
      "name": "changeOwnership",
      "outputs": [],
      "stateMutability": "nonpayable",
      "type": "function"
    },
    {
      "inputs": [
        {
          "internalType": "address",
          "name": "investor",
          "type": "address"
        }
      ],
      "name": "claim",
      "outputs": [],
      "stateMutability": "nonpayable",
      "type": "function"
    },
    {
      "inputs": [
        {
          "internalType": "address",
          "name": "investor",
          "type": "address"
        }
      ],
      "name": "claimedAmount",
      "outputs": [
        {
          "internalType": "uint256",
          "name": "",
          "type": "uint256"
        }
      ],
      "stateMutability": "view",
      "type": "function"
    },
    {
      "inputs": [],
      "name": "commonState",
      "outputs": [
        {
          "components": [
            {
              "internalType": "string",
              "name": "flavor",
              "type": "string"
            },
            {
              "internalType": "string",
              "name": "version",
              "type": "string"
            },
            {
              "internalType": "address",
              "name": "contractAddress",
              "type": "address"
            },
            {
              "internalType": "address",
              "name": "owner",
              "type": "address"
            },
            {
              "internalType": "string",
              "name": "info",
              "type": "string"
            },
            {
              "internalType": "address",
              "name": "asset",
              "type": "address"
            },
            {
              "internalType": "address",
              "name": "stablecoin",
              "type": "address"
            },
            {
              "internalType": "uint256",
              "name": "softCap",
              "type": "uint256"
            },
            {
              "internalType": "bool",
              "name": "finalized",
              "type": "bool"
            },
            {
              "internalType": "bool",
              "name": "canceled",
              "type": "bool"
            },
            {
              "internalType": "uint256",
              "name": "pricePerToken",
              "type": "uint256"
            },
            {
              "internalType": "uint8",
              "name": "tokenPriceDecimals",
              "type": "uint8"
            },
            {
              "internalType": "uint256",
              "name": "fundsRaised",
              "type": "uint256"
            },
            {
              "internalType": "uint256",
              "name": "tokensSold",
              "type": "uint256"
            }
          ],
          "internalType": "struct Structs.CampaignCommonState",
          "name": "",
          "type": "tuple"
        }
      ],
      "stateMutability": "view",
      "type": "function"
    },
    {
      "inputs": [],
      "name": "finalize",
      "outputs": [],
      "stateMutability": "nonpayable",
      "type": "function"
    },
    {
      "inputs": [],
      "name": "flavor",
      "outputs": [
        {
          "internalType": "string",
          "name": "",
          "type": "string"
        }
      ],
      "stateMutability": "view",
      "type": "function"
    },
    {
      "inputs": [],
      "name": "getInfoHistory",
      "outputs": [
        {
          "components": [
            {
              "internalType": "string",
              "name": "info",
              "type": "string"
            },
            {
              "internalType": "uint256",
              "name": "timestamp",
              "type": "uint256"
            }
          ],
          "internalType": "struct Structs.InfoEntry[]",
          "name": "",
          "type": "tuple[]"
        }
      ],
      "stateMutability": "view",
      "type": "function"
    },
    {
      "inputs": [],
      "name": "getState",
      "outputs": [
        {
          "components": [
            {
              "internalType": "string",
              "name": "flavor",
              "type": "string"
            },
            {
              "internalType": "string",
              "name": "version",
              "type": "string"
            },
            {
              "internalType": "address",
              "name": "contractAddress",
              "type": "address"
            },
            {
              "internalType": "address",
              "name": "owner",
              "type": "address"
            },
            {
              "internalType": "address",
              "name": "asset",
              "type": "address"
            },
            {
              "internalType": "address",
              "name": "issuer",
              "type": "address"
            },
            {
              "internalType": "address",
              "name": "stablecoin",
              "type": "address"
            },
            {
              "internalType": "uint256",
              "name": "tokenPrice",
              "type": "uint256"
            },
            {
              "internalType": "uint256",
              "name": "softCap",
              "type": "uint256"
            },
            {
              "internalType": "uint256",
              "name": "minInvestment",
              "type": "uint256"
            },
            {
              "internalType": "uint256",
              "name": "maxInvestment",
              "type": "uint256"
            },
            {
              "internalType": "bool",
              "name": "whitelistRequired",
              "type": "bool"
            },
            {
              "internalType": "bool",
              "name": "finalized",
              "type": "bool"
            },
            {
              "internalType": "bool",
              "name": "canceled",
              "type": "bool"
            },
            {
              "internalType": "uint256",
              "name": "totalClaimableTokens",
              "type": "uint256"
            },
            {
              "internalType": "uint256",
              "name": "totalInvestorsCount",
              "type": "uint256"
            },
            {
              "internalType": "uint256",
              "name": "totalFundsRaised",
              "type": "uint256"
            },
            {
              "internalType": "uint256",
              "name": "totalTokensSold",
              "type": "uint256"
            },
            {
              "internalType": "uint256",
              "name": "totalTokensBalance",
              "type": "uint256"
            },
            {
              "internalType": "string",
              "name": "info",
              "type": "string"
            },
            {
              "internalType": "bool",
              "name": "vestingStarted",
              "type": "bool"
            },
            {
              "internalType": "uint256",
              "name": "start",
              "type": "uint256"
            },
            {
              "internalType": "uint256",
              "name": "cliff",
              "type": "uint256"
            },
            {
              "internalType": "uint256",
              "name": "duration",
              "type": "uint256"
            },
            {
              "internalType": "bool",
              "name": "revocable",
              "type": "bool"
            },
            {
              "internalType": "bool",
              "name": "revoked",
              "type": "bool"
            },
            {
              "internalType": "address",
              "name": "feeManager",
              "type": "address"
            }
          ],
          "internalType": "struct Structs.CfManagerSoftcapVestingState",
          "name": "",
          "type": "tuple"
        }
      ],
      "stateMutability": "view",
      "type": "function"
    },
    {
      "inputs": [
        {
          "internalType": "uint256",
          "name": "amount",
          "type": "uint256"
        }
      ],
      "name": "invest",
      "outputs": [],
      "stateMutability": "nonpayable",
      "type": "function"
    },
    {
      "inputs": [
        {
          "internalType": "address",
          "name": "spender",
          "type": "address"
        },
        {
          "internalType": "address",
          "name": "beneficiary",
          "type": "address"
        },
        {
          "internalType": "uint256",
          "name": "amount",
          "type": "uint256"
        }
      ],
      "name": "investForBeneficiary",
      "outputs": [],
      "stateMutability": "nonpayable",
      "type": "function"
    },
    {
      "inputs": [
        {
          "internalType": "address",
          "name": "investor",
          "type": "address"
        }
      ],
      "name": "investmentAmount",
      "outputs": [
        {
          "internalType": "uint256",
          "name": "",
          "type": "uint256"
        }
      ],
      "stateMutability": "view",
      "type": "function"
    },
    {
      "inputs": [
        {
          "internalType": "address",
          "name": "wallet",
          "type": "address"
        }
      ],
      "name": "isWalletWhitelisted",
      "outputs": [
        {
          "internalType": "bool",
          "name": "",
          "type": "bool"
        }
      ],
      "stateMutability": "view",
      "type": "function"
    },
    {
      "inputs": [],
      "name": "revoke",
      "outputs": [],
      "stateMutability": "nonpayable",
      "type": "function"
    },
    {
      "inputs": [
        {
          "internalType": "string",
          "name": "info",
          "type": "string"
        }
      ],
      "name": "setInfo",
      "outputs": [],
      "stateMutability": "nonpayable",
      "type": "function"
    },
    {
      "inputs": [],
      "name": "stablecoin",
      "outputs": [
        {
          "internalType": "contract IERC20",
          "name": "",
          "type": "address"
        }
      ],
      "stateMutability": "view",
      "type": "function"
    },
    {
      "inputs": [
        {
          "internalType": "uint256",
          "name": "start",
          "type": "uint256"
        },
        {
          "internalType": "uint256",
          "name": "cliffDuration",
          "type": "uint256"
        },
        {
          "internalType": "uint256",
          "name": "duration",
          "type": "uint256"
        }
      ],
      "name": "startVesting",
      "outputs": [],
      "stateMutability": "nonpayable",
      "type": "function"
    },
    {
      "inputs": [
        {
          "internalType": "address",
          "name": "investor",
          "type": "address"
        }
      ],
      "name": "tokenAmount",
      "outputs": [
        {
          "internalType": "uint256",
          "name": "",
          "type": "uint256"
        }
      ],
      "stateMutability": "view",
      "type": "function"
    },
    {
      "inputs": [],
      "name": "version",
      "outputs": [
        {
          "internalType": "string",
          "name": "",
          "type": "string"
        }
      ],
      "stateMutability": "view",
      "type": "function"
    }
  ],
  "bytecode": "0x60806040523480156200001157600080fd5b506040516200783d3803806200783d833981810160405281019062000037919062001388565b600073ffffffffffffffffffffffffffffffffffffffff16816040015173ffffffffffffffffffffffffffffffffffffffff161415620000ae576040517f08c379a0000000000000000000000000000000000000000000000000000000008152600401620000a59062001822565b60405180910390fd5b600073ffffffffffffffffffffffffffffffffffffffff16816060015173ffffffffffffffffffffffffffffffffffffffff16141562000125576040517f08c379a00000000000000000000000000000000000000000000000000000000081526004016200011c9062001866565b60405180910390fd5b60008160c00151116200016f576040517f08c379a00000000000000000000000000000000000000000000000000000000081526004016200016690620018aa565b60405180910390fd5b8061012001518161014001511015620001bf576040517f08c379a0000000000000000000000000000000000000000000000000000000008152600401620001b690620017de565b60405180910390fd5b6000816101400151116200020a576040517f08c379a0000000000000000000000000000000000000000000000000000000008152600401620002019062001800565b60405180910390fd5b600062000221826060015162000a3a60201b60201c565b905060008073ffffffffffffffffffffffffffffffffffffffff168273ffffffffffffffffffffffffffffffffffffffff1614156200026557826080015162000267565b815b9050826080015173ffffffffffffffffffffffffffffffffffffffff168173ffffffffffffffffffffffffffffffffffffffff1614620002de576040517f08c379a0000000000000000000000000000000000000000000000000000000008152600401620002d59062001888565b60405180910390fd5b60008073ffffffffffffffffffffffffffffffffffffffff168460a0015173ffffffffffffffffffffffffffffffffffffffff161462000323578360a00151620003af565b8173ffffffffffffffffffffffffffffffffffffffff16631818e2ec6040518163ffffffff1660e01b815260040160006040518083038186803b1580156200036a57600080fd5b505afa1580156200037f573d6000803e3d6000fd5b505050506040513d6000823e3d601f19601f82011682018060405250810190620003aa9190620013cd565b608001515b90506000620003f9620003dd8661010001518760c001518860e0015189606001518762000b6d60201b60201c565b8660c001518760e0015188606001518662000bdd60201b60201c565b9050600062000443620004278761012001518860c001518960e001518a606001518862000b6d60201b60201c565b8760c001518860e0015189606001518762000bdd60201b60201c565b9050604051806102c0016040528087600001518152602001876020015181526020013073ffffffffffffffffffffffffffffffffffffffff168152602001876040015173ffffffffffffffffffffffffffffffffffffffff168152602001876060015173ffffffffffffffffffffffffffffffffffffffff1681526020018573ffffffffffffffffffffffffffffffffffffffff1681526020018473ffffffffffffffffffffffffffffffffffffffff1681526020018760c0015181526020018760e0015160ff16815260200183815260200182815260200187610140015181526020018761016001511515815260200160001515815260200160001515815260200160008152602001600081526020016000815260200160008152602001600081526020018761018001518152602001876101a0015173ffffffffffffffffffffffffffffffffffffffff16815250600080820151816000019080519060200190620005b292919062000d7f565b506020820151816001019080519060200190620005d192919062000d7f565b5060408201518160020160006101000a81548173ffffffffffffffffffffffffffffffffffffffff021916908373ffffffffffffffffffffffffffffffffffffffff16021790555060608201518160030160006101000a81548173ffffffffffffffffffffffffffffffffffffffff021916908373ffffffffffffffffffffffffffffffffffffffff16021790555060808201518160040160006101000a81548173ffffffffffffffffffffffffffffffffffffffff021916908373ffffffffffffffffffffffffffffffffffffffff16021790555060a08201518160050160006101000a81548173ffffffffffffffffffffffffffffffffffffffff021916908373ffffffffffffffffffffffffffffffffffffffff16021790555060c08201518160060160006101000a81548173ffffffffffffffffffffffffffffffffffffffff021916908373ffffffffffffffffffffffffffffffffffffffff16021790555060e082015181600701556101008201518160080160006101000a81548160ff021916908360ff160217905550610120820151816009015561014082015181600a015561016082015181600b015561018082015181600c0160006101000a81548160ff0219169083151502179055506101a082015181600c0160016101000a81548160ff0219169083151502179055506101c082015181600c0160026101000a81548160ff0219169083151502179055506101e082015181600d015561020082015181600e015561022082015181600f0155610240820151816010015561026082015181601101556102808201518160120190805190602001906200083b92919062000d7f565b506102a08201518160130160006101000a81548173ffffffffffffffffffffffffffffffffffffffff021916908373ffffffffffffffffffffffffffffffffffffffff1602179055509050506040518060c0016040528060001515815260200160008152602001600081526020016000815260200160011515815260200160001515815250601860008201518160000160006101000a81548160ff02191690831515021790555060208201518160010155604082015181600201556060820151816003015560808201518160040160006101000a81548160ff02191690831515021790555060a08201518160040160016101000a81548160ff02191690831515021790555090505081620009ea876060015173ffffffffffffffffffffffffffffffffffffffff166318160ddd6040518163ffffffff1660e01b815260040160206040518083038186803b1580156200099357600080fd5b505afa158015620009a8573d6000803e3d6000fd5b505050506040513d601f19601f82011682018060405250810190620009ce919062001412565b8860c001518960e001518a606001518862000bdd60201b60201c565b101562000a2e576040517f08c379a000000000000000000000000000000000000000000000000000000000815260040162000a259062001844565b60405180910390fd5b50505050505062001d7f565b60008060008373ffffffffffffffffffffffffffffffffffffffff166040516024016040516020818303038152906040527f1818e2ec000000000000000000000000000000000000000000000000000000007bffffffffffffffffffffffffffffffffffffffffffffffffffffffff19166020820180517bffffffffffffffffffffffffffffffffffffffffffffffffffffffff838183161783525050505060405162000ae89190620017c5565b600060405180830381855afa9150503d806000811462000b25576040519150601f19603f3d011682016040523d82523d6000602084013e62000b2a565b606091505b5091509150811562000b615760008180602001905181019062000b4e919062001343565b9050806101200151935050505062000b68565b6000925050505b919050565b600062000b808262000c4d60201b60201c565b8562000b928562000ce660201b60201c565b86600a62000ba19190620019ed565b8962000bae919062001b2a565b62000bba919062001b2a565b62000bc691906200195a565b62000bd291906200195a565b905095945050505050565b600062000bf08362000ce660201b60201c565b84600a62000bff9190620019ed565b62000c108462000c4d60201b60201c565b878962000c1e919062001b2a565b62000c2a919062001b2a565b62000c3691906200195a565b62000c4291906200195a565b905095945050505050565b60008173ffffffffffffffffffffffffffffffffffffffff1663313ce5676040518163ffffffff1660e01b815260040160206040518083038186803b15801562000c9657600080fd5b505afa15801562000cab573d6000803e3d6000fd5b505050506040513d601f19601f8201168201806040525081019062000cd191906200143e565b600a62000cdf9190620019ed565b9050919050565b60008173ffffffffffffffffffffffffffffffffffffffff1663313ce5676040518163ffffffff1660e01b815260040160206040518083038186803b15801562000d2f57600080fd5b505afa15801562000d44573d6000803e3d6000fd5b505050506040513d601f19601f8201168201806040525081019062000d6a91906200143e565b600a62000d789190620019ed565b9050919050565b82805462000d8d9062001c18565b90600052602060002090601f01602090048101928262000db1576000855562000dfd565b82601f1062000dcc57805160ff191683800117855562000dfd565b8280016001018555821562000dfd579182015b8281111562000dfc57825182559160200191906001019062000ddf565b5b50905062000e0c919062000e10565b5090565b5b8082111562000e2b57600081600090555060010162000e11565b5090565b600062000e4662000e408462001900565b620018cc565b90508281526020810184848401111562000e5f57600080fd5b62000e6c84828562001be2565b509392505050565b60008151905062000e858162001d17565b92915050565b60008151905062000e9c8162001d31565b92915050565b600082601f83011262000eb457600080fd5b815162000ec684826020860162000e2f565b91505092915050565b6000610140828403121562000ee357600080fd5b62000ef0610140620018cc565b9050600082015167ffffffffffffffff81111562000f0d57600080fd5b62000f1b8482850162000ea2565b600083015250602082015167ffffffffffffffff81111562000f3c57600080fd5b62000f4a8482850162000ea2565b602083015250604062000f608482850162000e74565b604083015250606062000f768482850162000e74565b606083015250608082015167ffffffffffffffff81111562000f9757600080fd5b62000fa58482850162000ea2565b60808301525060a082015167ffffffffffffffff81111562000fc657600080fd5b62000fd48482850162000ea2565b60a08301525060c082015167ffffffffffffffff81111562000ff557600080fd5b620010038482850162000ea2565b60c08301525060e0620010198482850162001315565b60e08301525061010062001030848285016200132c565b61010083015250610120620010488482850162000e74565b6101208301525092915050565b60006101c082840312156200106957600080fd5b620010766101c0620018cc565b9050600082015167ffffffffffffffff8111156200109357600080fd5b620010a18482850162000ea2565b600083015250602082015167ffffffffffffffff811115620010c257600080fd5b620010d08482850162000ea2565b6020830152506040620010e68482850162000e74565b6040830152506060620010fc8482850162000e74565b6060830152506080620011128482850162000e74565b60808301525060a0620011288482850162000e74565b60a08301525060c06200113e8482850162001315565b60c08301525060e062001154848285016200132c565b60e0830152506101006200116b8482850162001315565b61010083015250610120620011838482850162001315565b610120830152506101406200119b8482850162001315565b61014083015250610160620011b38482850162000e8b565b6101608301525061018082015167ffffffffffffffff811115620011d657600080fd5b620011e48482850162000ea2565b610180830152506101a0620011fc8482850162000e74565b6101a08301525092915050565b600060e082840312156200121c57600080fd5b6200122860e0620018cc565b9050600082015167ffffffffffffffff8111156200124557600080fd5b620012538482850162000ea2565b600083015250602082015167ffffffffffffffff8111156200127457600080fd5b620012828482850162000ea2565b6020830152506040620012988482850162000e74565b6040830152506060620012ae8482850162000e74565b6060830152506080620012c48482850162000e74565b60808301525060a0620012da8482850162000e74565b60a08301525060c082015167ffffffffffffffff811115620012fb57600080fd5b620013098482850162000ea2565b60c08301525092915050565b600081519050620013268162001d4b565b92915050565b6000815190506200133d8162001d65565b92915050565b6000602082840312156200135657600080fd5b600082015167ffffffffffffffff8111156200137157600080fd5b6200137f8482850162000ecf565b91505092915050565b6000602082840312156200139b57600080fd5b600082015167ffffffffffffffff811115620013b657600080fd5b620013c48482850162001055565b91505092915050565b600060208284031215620013e057600080fd5b600082015167ffffffffffffffff811115620013fb57600080fd5b620014098482850162001209565b91505092915050565b6000602082840312156200142557600080fd5b6000620014358482850162001315565b91505092915050565b6000602082840312156200145157600080fd5b600062001461848285016200132c565b91505092915050565b6000620014778262001933565b6200148381856200193e565b93506200149581856020860162001be2565b80840191505092915050565b6000620014b060428362001949565b91507f43664d616e61676572536f667463617056657374696e673a204d61782068617360008301527f20746f20626520626967676572207468616e206d696e20696e766573746d656e60208301527f742e0000000000000000000000000000000000000000000000000000000000006040830152606082019050919050565b60006200153e60408362001949565b91507f43664d616e61676572536f667463617056657374696e673a204d617820696e7660008301527f6573746d656e742068617320746f20626520626967676572207468616e20302e6020830152604082019050919050565b6000620015a6602e8362001949565b91507f43664d616e61676572536f667463617056657374696e673a20496e76616c696460008301527f206f776e657220616464726573730000000000000000000000000000000000006020830152604082019050919050565b60006200160e602a8362001949565b91507f43664d616e61676572536f667463617056657374696e673a20496e76616c696460008301527f20736f6674206361702e000000000000000000000000000000000000000000006020830152604082019050919050565b600062001676602e8362001949565b91507f43664d616e61676572536f667463617056657374696e673a20496e76616c696460008301527f20617373657420616464726573730000000000000000000000000000000000006020830152604082019050919050565b6000620016de60318362001949565b91507f43664d616e61676572536f667463617056657374696e673a20496e76616c696460008301527f206973737565722070726f76696465642e0000000000000000000000000000006020830152604082019050919050565b60006200174660488362001949565b91507f43664d616e61676572536f667463617056657374696e673a20496e697469616c60008301527f2070726963652070657220746f6b656e206d757374206265206772656174657260208301527f207468616e20302e0000000000000000000000000000000000000000000000006040830152606082019050919050565b6000620017d382846200146a565b915081905092915050565b60006020820190508181036000830152620017f981620014a1565b9050919050565b600060208201905081810360008301526200181b816200152f565b9050919050565b600060208201905081810360008301526200183d8162001597565b9050919050565b600060208201905081810360008301526200185f81620015ff565b9050919050565b60006020820190508181036000830152620018818162001667565b9050919050565b60006020820190508181036000830152620018a381620016cf565b9050919050565b60006020820190508181036000830152620018c58162001737565b9050919050565b6000604051905081810181811067ffffffffffffffff82111715620018f657620018f562001cdb565b5b8060405250919050565b600067ffffffffffffffff8211156200191e576200191d62001cdb565b5b601f19601f8301169050602081019050919050565b600081519050919050565b600081905092915050565b600082825260208201905092915050565b6000620019678262001bcb565b9150620019748362001bcb565b92508262001987576200198662001c7d565b5b828204905092915050565b6000808291508390505b6001851115620019e457808604811115620019bc57620019bb62001c4e565b5b6001851615620019cc5780820291505b8081029050620019dc8562001d0a565b94506200199c565b94509492505050565b6000620019fa8262001bcb565b915062001a078362001bd5565b925062001a367fffffffffffffffffffffffffffffffffffffffffffffffffffffffffffffffff848462001a3e565b905092915050565b60008262001a50576001905062001b23565b8162001a60576000905062001b23565b816001811462001a79576002811462001a845762001aba565b600191505062001b23565b60ff84111562001a995762001a9862001c4e565b5b8360020a91508482111562001ab35762001ab262001c4e565b5b5062001b23565b5060208310610133831016604e8410600b841016171562001af45782820a90508381111562001aee5762001aed62001c4e565b5b62001b23565b62001b03848484600162001992565b9250905081840481111562001b1d5762001b1c62001c4e565b5b81810290505b9392505050565b600062001b378262001bcb565b915062001b448362001bcb565b9250817fffffffffffffffffffffffffffffffffffffffffffffffffffffffffffffffff048311821515161562001b805762001b7f62001c4e565b5b828202905092915050565b600062001b988262001bab565b9050919050565b60008115159050919050565b600073ffffffffffffffffffffffffffffffffffffffff82169050919050565b6000819050919050565b600060ff82169050919050565b60005b8381101562001c0257808201518184015260208101905062001be5565b8381111562001c12576000848401525b50505050565b6000600282049050600182168062001c3157607f821691505b6020821081141562001c485762001c4762001cac565b5b50919050565b7f4e487b7100000000000000000000000000000000000000000000000000000000600052601160045260246000fd5b7f4e487b7100000000000000000000000000000000000000000000000000000000600052601260045260246000fd5b7f4e487b7100000000000000000000000000000000000000000000000000000000600052602260045260246000fd5b7f4e487b7100000000000000000000000000000000000000000000000000000000600052604160045260246000fd5b60008160011c9050919050565b62001d228162001b8b565b811462001d2e57600080fd5b50565b62001d3c8162001b9f565b811462001d4857600080fd5b50565b62001d568162001bcb565b811462001d6257600080fd5b50565b62001d708162001bd5565b811462001d7c57600080fd5b50565b615aae8062001d8f6000396000f3fe608060405234801561001057600080fd5b50600436106101375760003560e01c806367c5bd54116100b8578063a96b7f051161007c578063a96b7f05146102c6578063aac8f967146102f6578063b6549f7514610326578063e9cbd82214610330578063ed0ea0031461034e578063f59e4f651461037e57610137565b806367c5bd541461025c578063937f6e771461027857806394f8e95414610294578063980e78441461029e57806398e16255146102a857610137565b80632afcf480116100ff5780632afcf480146101e057806336921c0c146101fc5780633d029091146102185780634bb278f31461023457806354fd4d501461023e57610137565b806304e869031461013c5780631818e2ec1461016c5780631865c57d1461018a5780631e83409a146101a85780632af4c31e146101c4575b600080fd5b61015660048036038101906101519190613d9d565b61039c565b60405161016391906154ae565b60405180910390f35b6101746103e5565b604051610181919061546a565b60405180910390f35b610192610733565b60405161019f919061548c565b60405180910390f35b6101c260048036038101906101bd9190613d9d565b610c32565b005b6101de60048036038101906101d99190613d9d565b610f10565b005b6101fa60048036038101906101f59190613ebb565b611025565b005b61021660048036038101906102119190613e02565b611033565b005b610232600480360381019061022d9190613f0d565b6110e5565b005b61023c6113b7565b005b610246611778565b60405161025391906150ea565b60405180910390f35b61027660048036038101906102719190613d9d565b61180d565b005b610292600480360381019061028d9190613e7a565b61186b565b005b61029c6119bf565b005b6102a6611a1d565b005b6102b0611cbe565b6040516102bd9190615092565b60405180910390f35b6102e060048036038101906102db9190613d9d565b611db9565b6040516102ed91906154ae565b60405180910390f35b610310600480360381019061030b9190613d9d565b611e02565b60405161031d91906150b4565b60405180910390f35b61032e611e49565b005b610338612116565b60405161034591906150cf565b60405180910390f35b61036860048036038101906103639190613d9d565b612142565b60405161037591906154ae565b60405180910390f35b61038661218b565b60405161039391906150ea565b60405180910390f35b6000601560008373ffffffffffffffffffffffffffffffffffffffff1673ffffffffffffffffffffffffffffffffffffffff168152602001908152602001600020549050919050565b6103ed6139ec565b604051806101c00160405280600080018054610408906158f9565b80601f0160208091040260200160405190810160405280929190818152602001828054610434906158f9565b80156104815780601f1061045657610100808354040283529160200191610481565b820191906000526020600020905b81548152906001019060200180831161046457829003601f168201915b505050505081526020016000600101805461049b906158f9565b80601f01602080910402602001604051908101604052809291908181526020018280546104c7906158f9565b80156105145780601f106104e957610100808354040283529160200191610514565b820191906000526020600020905b8154815290600101906020018083116104f757829003601f168201915b50505050508152602001600060020160009054906101000a900473ffffffffffffffffffffffffffffffffffffffff1673ffffffffffffffffffffffffffffffffffffffff168152602001600060030160009054906101000a900473ffffffffffffffffffffffffffffffffffffffff1673ffffffffffffffffffffffffffffffffffffffff168152602001600060120180546105b0906158f9565b80601f01602080910402602001604051908101604052809291908181526020018280546105dc906158f9565b80156106295780601f106105fe57610100808354040283529160200191610629565b820191906000526020600020905b81548152906001019060200180831161060c57829003601f168201915b50505050508152602001600060040160009054906101000a900473ffffffffffffffffffffffffffffffffffffffff1673ffffffffffffffffffffffffffffffffffffffff168152602001600060060160009054906101000a900473ffffffffffffffffffffffffffffffffffffffff1673ffffffffffffffffffffffffffffffffffffffff16815260200160006009015481526020016000600c0160019054906101000a900460ff16151581526020016000600c0160029054906101000a900460ff16151581526020016000600701548152602001600060080160009054906101000a900460ff1660ff1681526020016000600f01548152602001600060100154815250905090565b61073b613aba565b604051806103600160405280600080018054610756906158f9565b80601f0160208091040260200160405190810160405280929190818152602001828054610782906158f9565b80156107cf5780601f106107a4576101008083540402835291602001916107cf565b820191906000526020600020905b8154815290600101906020018083116107b257829003601f168201915b50505050508152602001600060010180546107e9906158f9565b80601f0160208091040260200160405190810160405280929190818152602001828054610815906158f9565b80156108625780601f1061083757610100808354040283529160200191610862565b820191906000526020600020905b81548152906001019060200180831161084557829003601f168201915b50505050508152602001600060020160009054906101000a900473ffffffffffffffffffffffffffffffffffffffff1673ffffffffffffffffffffffffffffffffffffffff168152602001600060030160009054906101000a900473ffffffffffffffffffffffffffffffffffffffff1673ffffffffffffffffffffffffffffffffffffffff168152602001600060040160009054906101000a900473ffffffffffffffffffffffffffffffffffffffff1673ffffffffffffffffffffffffffffffffffffffff168152602001600060050160009054906101000a900473ffffffffffffffffffffffffffffffffffffffff1673ffffffffffffffffffffffffffffffffffffffff168152602001600060060160009054906101000a900473ffffffffffffffffffffffffffffffffffffffff1673ffffffffffffffffffffffffffffffffffffffff168152602001600060070154815260200160006009015481526020016000600a015481526020016000600b015481526020016000600c0160009054906101000a900460ff16151581526020016000600c0160019054906101000a900460ff16151581526020016000600c0160029054906101000a900460ff16151581526020016000600d015481526020016000600e015481526020016000600f015481526020016000601001548152602001610a5f61221f565b73ffffffffffffffffffffffffffffffffffffffff166370a08231306040518263ffffffff1660e01b8152600401610a979190614f48565b60206040518083038186803b158015610aaf57600080fd5b505afa158015610ac3573d6000803e3d6000fd5b505050506040513d601f19601f82011682018060405250810190610ae79190613ee4565b815260200160006012018054610afc906158f9565b80601f0160208091040260200160405190810160405280929190818152602001828054610b28906158f9565b8015610b755780601f10610b4a57610100808354040283529160200191610b75565b820191906000526020600020905b815481529060010190602001808311610b5857829003601f168201915b50505050508152602001601860000160009054906101000a900460ff1615158152602001601860010154815260200160186002015481526020016018600301548152602001601860040160009054906101000a900460ff1615158152602001601860040160019054906101000a900460ff1615158152602001600060130160009054906101000a900473ffffffffffffffffffffffffffffffffffffffff1673ffffffffffffffffffffffffffffffffffffffff16815250905090565b6000600c0160019054906101000a900460ff16610c84576040517f08c379a0000000000000000000000000000000000000000000000000000000008152600401610c7b9061544a565b60405180910390fd5b601860000160009054906101000a900460ff16610cd6576040517f08c379a0000000000000000000000000000000000000000000000000000000008152600401610ccd906152ca565b60405180910390fd5b6000610ce18261224b565b90506000610d5382600060070154600060080160009054906101000a900460ff16600060040160009054906101000a900473ffffffffffffffffffffffffffffffffffffffff16600060060160009054906101000a900473ffffffffffffffffffffffffffffffffffffffff166122a7565b905060008211610d98576040517f08c379a0000000000000000000000000000000000000000000000000000000008152600401610d8f9061516a565b60405180910390fd5b816000600d016000828254610dad91906157f8565b9250508190555081601560008573ffffffffffffffffffffffffffffffffffffffff1673ffffffffffffffffffffffffffffffffffffffff1681526020019081526020016000206000828254610e0391906157f8565b9250508190555081601d60008573ffffffffffffffffffffffffffffffffffffffff1673ffffffffffffffffffffffffffffffffffffffff1681526020019081526020016000206000828254610e5991906155a6565b92505081905550610e928383610e6d61221f565b73ffffffffffffffffffffffffffffffffffffffff166122fd9092919063ffffffff16565b8273ffffffffffffffffffffffffffffffffffffffff167f9137e112a187039f8a3291c0a66fce97153d25ec42036e82360d5d0106d19a6e600060040160009054906101000a900473ffffffffffffffffffffffffffffffffffffffff16848442604051610f039493929190614ffa565b60405180910390a2505050565b600060030160009054906101000a900473ffffffffffffffffffffffffffffffffffffffff1673ffffffffffffffffffffffffffffffffffffffff163373ffffffffffffffffffffffffffffffffffffffff1614610fa3576040517f08c379a0000000000000000000000000000000000000000000000000000000008152600401610f9a906151ca565b60405180910390fd5b80600060030160006101000a81548173ffffffffffffffffffffffffffffffffffffffff021916908373ffffffffffffffffffffffffffffffffffffffff1602179055507fb4fa0c8f1565e6385961540cac5b9884d84157c515100cf972728e8be8dacdd333824260405161101a93929190614f63565b60405180910390a150565b611030333383612383565b50565b8173ffffffffffffffffffffffffffffffffffffffff168373ffffffffffffffffffffffffffffffffffffffff16146110d5573373ffffffffffffffffffffffffffffffffffffffff168373ffffffffffffffffffffffffffffffffffffffff16146110d4576040517f08c379a00000000000000000000000000000000000000000000000000000000081526004016110cb906151ea565b60405180910390fd5b5b6110e0838383612383565b505050565b600060030160009054906101000a900473ffffffffffffffffffffffffffffffffffffffff1673ffffffffffffffffffffffffffffffffffffffff163373ffffffffffffffffffffffffffffffffffffffff1614611178576040517f08c379a000000000000000000000000000000000000000000000000000000000815260040161116f906151ca565b60405180910390fd5b6000600c0160019054906101000a900460ff166111ca576040517f08c379a00000000000000000000000000000000000000000000000000000000081526004016111c19061544a565b60405180910390fd5b601860000160009054906101000a900460ff161561121d576040517f08c379a0000000000000000000000000000000000000000000000000000000008152600401611214906153aa565b60405180910390fd5b80821115611260576040517f08c379a00000000000000000000000000000000000000000000000000000000081526004016112579061518a565b60405180910390fd5b600081116112a3576040517f08c379a000000000000000000000000000000000000000000000000000000000815260040161129a9061522a565b60405180910390fd5b4281846112b091906155a6565b116112f0576040517f08c379a00000000000000000000000000000000000000000000000000000000081526004016112e7906152ea565b60405180910390fd5b6001601860000160006101000a81548160ff02191690831515021790555082601860010181905550818361132491906155a6565b601860020181905550806018600301819055503373ffffffffffffffffffffffffffffffffffffffff167f1b80a1ad361272967857069bbb1b6c32ae4dede784580d2e94bed06f9dd7ca77600060040160009054906101000a900473ffffffffffffffffffffffffffffffffffffffff16858585426040516113aa95949392919061503f565b60405180910390a2505050565b600060030160009054906101000a900473ffffffffffffffffffffffffffffffffffffffff1673ffffffffffffffffffffffffffffffffffffffff163373ffffffffffffffffffffffffffffffffffffffff161461144a576040517f08c379a0000000000000000000000000000000000000000000000000000000008152600401611441906151ca565b60405180910390fd5b6000600c0160029054906101000a900460ff161561149d576040517f08c379a0000000000000000000000000000000000000000000000000000000008152600401611494906153ca565b60405180910390fd5b6000600c0160019054906101000a900460ff16156114f0576040517f08c379a00000000000000000000000000000000000000000000000000000000081526004016114e79061534a565b60405180910390fd5b60006114fa612116565b905060008173ffffffffffffffffffffffffffffffffffffffff166370a08231306040518263ffffffff1660e01b81526004016115379190614f48565b60206040518083038186803b15801561154f57600080fd5b505afa158015611563573d6000803e3d6000fd5b505050506040513d601f19601f820116820180604052508101906115879190613ee4565b9050600060090154811015806115a4575060006115a2612b4b565b145b6115e3576040517f08c379a00000000000000000000000000000000000000000000000000000000081526004016115da9061524a565b60405180910390fd5b60016000600c0160016101000a81548160ff021916908315150217905550600061160b61221f565b90506000806010015490506000818373ffffffffffffffffffffffffffffffffffffffff166370a08231306040518263ffffffff1660e01b81526004016116529190614f48565b60206040518083038186803b15801561166a57600080fd5b505afa15801561167e573d6000803e3d6000fd5b505050506040513d601f19601f820116820180604052508101906116a29190613ee4565b6116ac91906157f8565b90506116b6612c47565b6116c1338587612d5a565b60008111156116f6576116f533828573ffffffffffffffffffffffffffffffffffffffff166122fd9092919063ffffffff16565b5b3373ffffffffffffffffffffffffffffffffffffffff167fc7ffb23c3f55c770b94ffcdbbe7d3b0520a2e76b9abe111f43c7c48cab999a6a600060040160009054906101000a900473ffffffffffffffffffffffffffffffffffffffff168685854260405161176995949392919061503f565b60405180910390a25050505050565b60606000600101805461178a906158f9565b80601f01602080910402602001604051908101604052809291908181526020018280546117b6906158f9565b80156118035780601f106117d857610100808354040283529160200191611803565b820191906000526020600020905b8154815290600101906020018083116117e657829003601f168201915b5050505050905090565b6000600c0160029054906101000a900460ff1661185f576040517f08c379a00000000000000000000000000000000000000000000000000000000081526004016118569061542a565b60405180910390fd5b61186881612e4e565b50565b600060030160009054906101000a900473ffffffffffffffffffffffffffffffffffffffff1673ffffffffffffffffffffffffffffffffffffffff163373ffffffffffffffffffffffffffffffffffffffff16146118fe576040517f08c379a00000000000000000000000000000000000000000000000000000000081526004016118f5906151ca565b60405180910390fd5b60146040518060400160405280838152602001428152509080600181540180825580915050600190039060005260206000209060020201600090919091909150600082015181600001908051906020019061195a929190613c14565b506020820151816001015550508060006012019080519060200190611980929190613c14565b507f39b28594242c42fce47a0a6e63bac12adbd07fbb35580f5a54b236858101d58a8133426040516119b49392919061510c565b60405180910390a150565b6000600c0160019054906101000a900460ff1615611a12576040517f08c379a0000000000000000000000000000000000000000000000000000000008152600401611a099061534a565b60405180910390fd5b611a1b33612e4e565b565b600060030160009054906101000a900473ffffffffffffffffffffffffffffffffffffffff1673ffffffffffffffffffffffffffffffffffffffff163373ffffffffffffffffffffffffffffffffffffffff1614611ab0576040517f08c379a0000000000000000000000000000000000000000000000000000000008152600401611aa7906151ca565b60405180910390fd5b6000600c0160029054906101000a900460ff1615611b03576040517f08c379a0000000000000000000000000000000000000000000000000000000008152600401611afa906153ca565b60405180910390fd5b6000600c0160019054906101000a900460ff1615611b56576040517f08c379a0000000000000000000000000000000000000000000000000000000008152600401611b4d9061534a565b60405180910390fd5b60016000600c0160026101000a81548160ff0219169083151502179055506000611b7e61221f565b73ffffffffffffffffffffffffffffffffffffffff166370a08231306040518263ffffffff1660e01b8152600401611bb69190614f48565b60206040518083038186803b158015611bce57600080fd5b505afa158015611be2573d6000803e3d6000fd5b505050506040513d601f19601f82011682018060405250810190611c069190613ee4565b90506000811115611c4457611c433382611c1e61221f565b73ffffffffffffffffffffffffffffffffffffffff166122fd9092919063ffffffff16565b5b3373ffffffffffffffffffffffffffffffffffffffff167faf1ae5c6fb3f0ce445b207ae00f52f0b564d8fe58282727032de5d199eaa7981600060040160009054906101000a900473ffffffffffffffffffffffffffffffffffffffff168342604051611cb393929190614fc3565b60405180910390a250565b60606014805480602002602001604051908101604052809291908181526020016000905b82821015611db05783829060005260206000209060020201604051806040016040529081600082018054611d15906158f9565b80601f0160208091040260200160405190810160405280929190818152602001828054611d41906158f9565b8015611d8e5780601f10611d6357610100808354040283529160200191611d8e565b820191906000526020600020905b815481529060010190602001808311611d7157829003601f168201915b5050505050815260200160018201548152505081526020019060010190611ce2565b50505050905090565b6000601760008373ffffffffffffffffffffffffffffffffffffffff1673ffffffffffffffffffffffffffffffffffffffff168152602001908152602001600020549050919050565b600080600c0160009054906101000a900460ff161580611e4257506000600c0160009054906101000a900460ff168015611e415750611e4082613115565b5b5b9050919050565b600060030160009054906101000a900473ffffffffffffffffffffffffffffffffffffffff1673ffffffffffffffffffffffffffffffffffffffff163373ffffffffffffffffffffffffffffffffffffffff1614611edc576040517f08c379a0000000000000000000000000000000000000000000000000000000008152600401611ed3906151ca565b60405180910390fd5b6000600c0160019054906101000a900460ff16611f2e576040517f08c379a0000000000000000000000000000000000000000000000000000000008152600401611f259061544a565b60405180910390fd5b601860000160009054906101000a900460ff16611f80576040517f08c379a0000000000000000000000000000000000000000000000000000000008152600401611f77906152ca565b60405180910390fd5b601860040160009054906101000a900460ff16611fd2576040517f08c379a0000000000000000000000000000000000000000000000000000000008152600401611fc99061530a565b60405180910390fd5b601860040160019054906101000a900460ff1615612025576040517f08c379a000000000000000000000000000000000000000000000000000000000815260040161201c9061540a565b60405180910390fd5b600080600d0154905060006120386131cb565b90506000818361204891906157f8565b90506001601860040160016101000a81548160ff02191690831515021790555061209a338261207561221f565b73ffffffffffffffffffffffffffffffffffffffff166122fd9092919063ffffffff16565b3373ffffffffffffffffffffffffffffffffffffffff167fd6f80c7d68e3e62bd7a51c3d37e575c1cfbc311c07487b69ef4eb570bc21cb68600060040160009054906101000a900473ffffffffffffffffffffffffffffffffffffffff16834260405161210993929190614fc3565b60405180910390a2505050565b60008060060160009054906101000a900473ffffffffffffffffffffffffffffffffffffffff16905090565b6000601660008373ffffffffffffffffffffffffffffffffffffffff1673ffffffffffffffffffffffffffffffffffffffff168152602001908152602001600020549050919050565b606060008001805461219c906158f9565b80601f01602080910402602001604051908101604052809291908181526020018280546121c8906158f9565b80156122155780601f106121ea57610100808354040283529160200191612215565b820191906000526020600020905b8154815290600101906020018083116121f857829003601f168201915b5050505050905090565b60008060040160009054906101000a900473ffffffffffffffffffffffffffffffffffffffff16905090565b6000601d60008373ffffffffffffffffffffffffffffffffffffffff1673ffffffffffffffffffffffffffffffffffffffff1681526020019081526020016000205461229683613285565b6122a091906157f8565b9050919050565b60006122b28361338f565b84600a6122bf9190615680565b6122c884613422565b87896122d4919061579e565b6122de919061579e565b6122e891906155fc565b6122f291906155fc565b905095945050505050565b61237e8363a9059cbb60e01b848460405160240161231c929190614f9a565b604051602081830303815290604052907bffffffffffffffffffffffffffffffffffffffffffffffffffffffff19166020820180517bffffffffffffffffffffffffffffffffffffffffffffffffffffffff83818316178352505050506134b5565b505050565b6000600c0160029054906101000a900460ff16156123d6576040517f08c379a00000000000000000000000000000000000000000000000000000000081526004016123cd906153ca565b60405180910390fd5b6000600c0160019054906101000a900460ff1615612429576040517f08c379a00000000000000000000000000000000000000000000000000000000081526004016124209061534a565b60405180910390fd5b8161243381611e02565b612472576040517f08c379a00000000000000000000000000000000000000000000000000000000081526004016124699061532a565b60405180910390fd5b600082116124b5576040517f08c379a00000000000000000000000000000000000000000000000000000000081526004016124ac9061538a565b60405180910390fd5b60006124bf61221f565b73ffffffffffffffffffffffffffffffffffffffff166370a08231306040518263ffffffff1660e01b81526004016124f79190614f48565b60206040518083038186803b15801561250f57600080fd5b505afa158015612523573d6000803e3d6000fd5b505050506040513d601f19601f820116820180604052508101906125479190613ee4565b90506000600901546125bd82600060070154600060080160009054906101000a900460ff16600060040160009054906101000a900473ffffffffffffffffffffffffffffffffffffffff16600060060160009054906101000a900473ffffffffffffffffffffffffffffffffffffffff166122a7565b10156125fe576040517f08c379a00000000000000000000000000000000000000000000000000000000081526004016125f5906152aa565b60405180910390fd5b600080600d01548261261091906157f8565b9050600061268285600060070154600060080160009054906101000a900460ff16600060040160009054906101000a900473ffffffffffffffffffffffffffffffffffffffff16600060060160009054906101000a900473ffffffffffffffffffffffffffffffffffffffff1661357c565b905060006126f482600060070154600060080160009054906101000a900460ff16600060040160009054906101000a900473ffffffffffffffffffffffffffffffffffffffff16600060060160009054906101000a900473ffffffffffffffffffffffffffffffffffffffff166122a7565b90506000821180156127065750600081115b612745576040517f08c379a000000000000000000000000000000000000000000000000000000000815260040161273c9061526a565b60405180910390fd5b81831015612788576040517f08c379a000000000000000000000000000000000000000000000000000000000815260040161277f9061528a565b60405180910390fd5b6000612842601560008a73ffffffffffffffffffffffffffffffffffffffff1673ffffffffffffffffffffffffffffffffffffffff16815260200190815260200160002054846127d891906155a6565b600060070154600060080160009054906101000a900460ff16600060040160009054906101000a900473ffffffffffffffffffffffffffffffffffffffff16600060060160009054906101000a900473ffffffffffffffffffffffffffffffffffffffff166122a7565b905061284d846135d2565b81101561288f576040517f08c379a00000000000000000000000000000000000000000000000000000000081526004016128869061526a565b60405180910390fd5b6000600b01548111156128d7576040517f08c379a00000000000000000000000000000000000000000000000000000000081526004016128ce906151aa565b60405180910390fd5b61290b8930846128e5612116565b73ffffffffffffffffffffffffffffffffffffffff16613666909392919063ffffffff16565b6000601560008a73ffffffffffffffffffffffffffffffffffffffff1673ffffffffffffffffffffffffffffffffffffffff1681526020019081526020016000205414156129715760016000600e01600082825461296991906155a6565b925050819055505b82601560008a73ffffffffffffffffffffffffffffffffffffffff1673ffffffffffffffffffffffffffffffffffffffff16815260200190815260200160002060008282546129c091906155a6565b9250508190555081601660008a73ffffffffffffffffffffffffffffffffffffffff1673ffffffffffffffffffffffffffffffffffffffff1681526020019081526020016000206000828254612a1691906155a6565b9250508190555082601760008a73ffffffffffffffffffffffffffffffffffffffff1673ffffffffffffffffffffffffffffffffffffffff1681526020019081526020016000206000828254612a6c91906155a6565b92505081905550826000600d016000828254612a8891906155a6565b925050819055508260006010016000828254612aa491906155a6565b92505081905550816000600f016000828254612ac091906155a6565b925050819055508773ffffffffffffffffffffffffffffffffffffffff167ff29b7b9c9bc4f1c24045a5a10b8bb59a7318d7a1e2e46af68bd5560dfce0e044600060040160009054906101000a900473ffffffffffffffffffffffffffffffffffffffff16858542604051612b389493929190614ffa565b60405180910390a2505050505050505050565b600080612bd16000600f0154600060090154612b6791906157f8565b600060070154600060080160009054906101000a900460ff16600060040160009054906101000a900473ffffffffffffffffffffffffffffffffffffffff16600060060160009054906101000a900473ffffffffffffffffffffffffffffffffffffffff1661357c565b9050612c4181600060070154600060080160009054906101000a900460ff16600060040160009054906101000a900473ffffffffffffffffffffffffffffffffffffffff16600060060160009054906101000a900473ffffffffffffffffffffffffffffffffffffffff166122a7565b91505090565b600060040160009054906101000a900473ffffffffffffffffffffffffffffffffffffffff1673ffffffffffffffffffffffffffffffffffffffff166040516024016040516020818303038152906040527f58a687ec000000000000000000000000000000000000000000000000000000007bffffffffffffffffffffffffffffffffffffffffffffffffffffffff19166020820180517bffffffffffffffffffffffffffffffffffffffffffffffffffffffff8381831617835250505050604051612d139190614f31565b6000604051808303816000865af19150503d8060008114612d50576040519150601f19603f3d011682016040523d82523d6000602084013e612d55565b606091505b505050565b6000821115612e4957600080612d6e6136ef565b91509150600081118015612daf5750600073ffffffffffffffffffffffffffffffffffffffff168273ffffffffffffffffffffffffffffffffffffffff1614155b15612e1a57612ddf82828573ffffffffffffffffffffffffffffffffffffffff166122fd9092919063ffffffff16565b612e15858286612def91906157f8565b8573ffffffffffffffffffffffffffffffffffffffff166122fd9092919063ffffffff16565b612e46565b612e4585858573ffffffffffffffffffffffffffffffffffffffff166122fd9092919063ffffffff16565b5b50505b505050565b6000601560008373ffffffffffffffffffffffffffffffffffffffff1673ffffffffffffffffffffffffffffffffffffffff1681526020019081526020016000205490506000601660008473ffffffffffffffffffffffffffffffffffffffff1673ffffffffffffffffffffffffffffffffffffffff168152602001908152602001600020549050600082118015612ee65750600081115b612f25576040517f08c379a0000000000000000000000000000000000000000000000000000000008152600401612f1c9061514a565b60405180910390fd5b60016000600e016000828254612f3b91906157f8565b925050819055506000601560008573ffffffffffffffffffffffffffffffffffffffff1673ffffffffffffffffffffffffffffffffffffffff168152602001908152602001600020819055506000601660008573ffffffffffffffffffffffffffffffffffffffff1673ffffffffffffffffffffffffffffffffffffffff168152602001908152602001600020819055506000601760008573ffffffffffffffffffffffffffffffffffffffff1673ffffffffffffffffffffffffffffffffffffffff16815260200190815260200160002081905550816000600d01600082825461302691906157f8565b92505081905550816000601001600082825461304291906157f8565b92505081905550806000600f01600082825461305e91906157f8565b925050819055506130978382613072612116565b73ffffffffffffffffffffffffffffffffffffffff166122fd9092919063ffffffff16565b8273ffffffffffffffffffffffffffffffffffffffff167f211dda46c5b3693e6a4dae7489d6a6738cf8a0104ce5b5ddbb477496a796e3ba600060040160009054906101000a900473ffffffffffffffffffffffffffffffffffffffff168484426040516131089493929190614ffa565b60405180910390a2505050565b60008060050160009054906101000a900473ffffffffffffffffffffffffffffffffffffffff1673ffffffffffffffffffffffffffffffffffffffff16633657e851836040518263ffffffff1660e01b81526004016131749190614f48565b60206040518083038186803b15801561318c57600080fd5b505afa1580156131a0573d6000803e3d6000fd5b505050506040513d601f19601f820116820180604052508101906131c49190613e51565b9050919050565b6000806018600201544210156131e4576000905061325e565b6018600301546018600101546131fa91906155a6565b421015806132175750601860040160019054906101000a900460ff165b1561322957600060100154905061325d565b6018600301546018600101544261324091906157f8565b600060100154613250919061579e565b61325a91906155fc565b90505b5b6000600d015460006010015461327491906157f8565b8161327f91906157f8565b91505090565b600060186002015442101561329d576000905061338a565b6018600301546018600101546132b391906155a6565b421015806132d05750601860040160019054906101000a900460ff165b1561331c57601760008373ffffffffffffffffffffffffffffffffffffffff1673ffffffffffffffffffffffffffffffffffffffff16815260200190815260200160002054905061338a565b6018600301546018600101544261333391906157f8565b601760008573ffffffffffffffffffffffffffffffffffffffff1673ffffffffffffffffffffffffffffffffffffffff1681526020019081526020016000205461337d919061579e565b61338791906155fc565b90505b919050565b60008173ffffffffffffffffffffffffffffffffffffffff1663313ce5676040518163ffffffff1660e01b815260040160206040518083038186803b1580156133d757600080fd5b505afa1580156133eb573d6000803e3d6000fd5b505050506040513d601f19601f8201168201806040525081019061340f9190613f5c565b600a61341b9190615680565b9050919050565b60008173ffffffffffffffffffffffffffffffffffffffff1663313ce5676040518163ffffffff1660e01b815260040160206040518083038186803b15801561346a57600080fd5b505afa15801561347e573d6000803e3d6000fd5b505050506040513d601f19601f820116820180604052508101906134a29190613f5c565b600a6134ae9190615680565b9050919050565b6000613517826040518060400160405280602081526020017f5361666545524332303a206c6f772d6c6576656c2063616c6c206661696c65648152508573ffffffffffffffffffffffffffffffffffffffff166138469092919063ffffffff16565b905060008151111561357757808060200190518101906135379190613e51565b613576576040517f08c379a000000000000000000000000000000000000000000000000000000000815260040161356d906153ea565b60405180910390fd5b5b505050565b600061358782613422565b856135918561338f565b86600a61359e9190615680565b896135a9919061579e565b6135b3919061579e565b6135bd91906155fc565b6135c791906155fc565b905095945050505050565b60008061364383600060070154600060080160009054906101000a900460ff16600060040160009054906101000a900473ffffffffffffffffffffffffffffffffffffffff16600060060160009054906101000a900473ffffffffffffffffffffffffffffffffffffffff166122a7565b90506000600a0154811061365c576000600a015461365e565b805b915050919050565b6136e9846323b872dd60e01b85858560405160240161368793929190614f63565b604051602081830303815290604052907bffffffffffffffffffffffffffffffffffffffffffffffffffffffff19166020820180517bffffffffffffffffffffffffffffffffffffffffffffffffffffffff83818316178352505050506134b5565b50505050565b600080600080600060130160009054906101000a900473ffffffffffffffffffffffffffffffffffffffff1673ffffffffffffffffffffffffffffffffffffffff16306040516024016137429190614f48565b6040516020818303038152906040527f465f5eb8000000000000000000000000000000000000000000000000000000007bffffffffffffffffffffffffffffffffffffffffffffffffffffffff19166020820180517bffffffffffffffffffffffffffffffffffffffffffffffffffffffff83818316178352505050506040516137cc9190614f31565b6000604051808303816000865af19150503d8060008114613809576040519150601f19603f3d011682016040523d82523d6000602084013e61380e565b606091505b50915091508115613838578080602001905181019061382d9190613dc6565b935093505050613842565b6000809350935050505b9091565b6060613855848460008561385e565b90509392505050565b6060824710156138a3576040517f08c379a000000000000000000000000000000000000000000000000000000000815260040161389a9061520a565b60405180910390fd5b6138ac85613972565b6138eb576040517f08c379a00000000000000000000000000000000000000000000000000000000081526004016138e29061536a565b60405180910390fd5b6000808673ffffffffffffffffffffffffffffffffffffffff1685876040516139149190614f31565b60006040518083038185875af1925050503d8060008114613951576040519150601f19603f3d011682016040523d82523d6000602084013e613956565b606091505b5091509150613966828286613985565b92505050949350505050565b600080823b905060008111915050919050565b60608315613995578290506139e5565b6000835111156139a85782518084602001fd5b816040517f08c379a00000000000000000000000000000000000000000000000000000000081526004016139dc91906150ea565b60405180910390fd5b9392505050565b604051806101c001604052806060815260200160608152602001600073ffffffffffffffffffffffffffffffffffffffff168152602001600073ffffffffffffffffffffffffffffffffffffffff16815260200160608152602001600073ffffffffffffffffffffffffffffffffffffffff168152602001600073ffffffffffffffffffffffffffffffffffffffff1681526020016000815260200160001515815260200160001515815260200160008152602001600060ff16815260200160008152602001600081525090565b6040518061036001604052806060815260200160608152602001600073ffffffffffffffffffffffffffffffffffffffff168152602001600073ffffffffffffffffffffffffffffffffffffffff168152602001600073ffffffffffffffffffffffffffffffffffffffff168152602001600073ffffffffffffffffffffffffffffffffffffffff168152602001600073ffffffffffffffffffffffffffffffffffffffff16815260200160008152602001600081526020016000815260200160008152602001600015158152602001600015158152602001600015158152602001600081526020016000815260200160008152602001600081526020016000815260200160608152602001600015158152602001600081526020016000815260200160008152602001600015158152602001600015158152602001600073ffffffffffffffffffffffffffffffffffffffff1681525090565b828054613c20906158f9565b90600052602060002090601f016020900481019282613c425760008555613c89565b82601f10613c5b57805160ff1916838001178555613c89565b82800160010185558215613c89579182015b82811115613c88578251825591602001919060010190613c6d565b5b509050613c969190613c9a565b5090565b5b80821115613cb3576000816000905550600101613c9b565b5090565b6000613cca613cc5846154fa565b6154c9565b905082815260208101848484011115613ce257600080fd5b613ced8482856158b7565b509392505050565b600081359050613d0481615a05565b92915050565b600081519050613d1981615a1c565b92915050565b600081519050613d2e81615a33565b92915050565b600082601f830112613d4557600080fd5b8135613d55848260208601613cb7565b91505092915050565b600081359050613d6d81615a4a565b92915050565b600081519050613d8281615a4a565b92915050565b600081519050613d9781615a61565b92915050565b600060208284031215613daf57600080fd5b6000613dbd84828501613cf5565b91505092915050565b60008060408385031215613dd957600080fd5b6000613de785828601613d0a565b9250506020613df885828601613d73565b9150509250929050565b600080600060608486031215613e1757600080fd5b6000613e2586828701613cf5565b9350506020613e3686828701613cf5565b9250506040613e4786828701613d5e565b9150509250925092565b600060208284031215613e6357600080fd5b6000613e7184828501613d1f565b91505092915050565b600060208284031215613e8c57600080fd5b600082013567ffffffffffffffff811115613ea657600080fd5b613eb284828501613d34565b91505092915050565b600060208284031215613ecd57600080fd5b6000613edb84828501613d5e565b91505092915050565b600060208284031215613ef657600080fd5b6000613f0484828501613d73565b91505092915050565b600080600060608486031215613f2257600080fd5b6000613f3086828701613d5e565b9350506020613f4186828701613d5e565b9250506040613f5286828701613d5e565b9150509250925092565b600060208284031215613f6e57600080fd5b6000613f7c84828501613d88565b91505092915050565b6000613f918383614ec7565b905092915050565b613fa28161582c565b82525050565b613fb18161582c565b82525050565b6000613fc28261553a565b613fcc8185615568565b935083602082028501613fde8561552a565b8060005b8581101561401a5784840389528151613ffb8582613f85565b94506140068361555b565b925060208a01995050600181019050613fe2565b50829750879550505050505092915050565b61403581615850565b82525050565b61404481615850565b82525050565b600061405582615545565b61405f8185615579565b935061406f8185602086016158c6565b80840191505092915050565b61408481615893565b82525050565b600061409582615550565b61409f8185615584565b93506140af8185602086016158c6565b6140b8816159e7565b840191505092915050565b60006140ce82615550565b6140d88185615595565b93506140e88185602086016158c6565b6140f1816159e7565b840191505092915050565b6000614109601c83615595565b91507f4143664d616e616765723a204e6f20746f6b656e73206f776e65642e000000006000830152602082019050919050565b6000614149603283615595565b91507f43664d616e61676572536f667463617056657374696e673a204e6f20746f6b6560008301527f6e7320746f2062652072656c65617365642e00000000000000000000000000006020830152604082019050919050565b60006141af603283615595565b91507f43664d616e61676572536f667463617056657374696e673a20636c696666447560008301527f726174696f6e203c3d206475726174696f6e00000000000000000000000000006020830152604082019050919050565b6000614215602783615595565b91507f4143664d616e616765723a20496e766573746d656e7420616d6f756e7420746f60008301527f6f20686967682e000000000000000000000000000000000000000000000000006020830152604082019050919050565b600061427b602e83615595565b91507f4143664d616e616765723a204f6e6c79206f776e65722063616e2063616c6c2060008301527f746869732066756e6374696f6e2e0000000000000000000000000000000000006020830152604082019050919050565b60006142e1604b83615595565b91507f4143664d616e616765723a204f6e6c79207370656e6465722063616e2064656360008301527f69646520746f20626f6f6b2074686520696e766573746d656e74206f6e20736f60208301527f6d656f6e6520656c73652e0000000000000000000000000000000000000000006040830152606082019050919050565b600061436d602683615595565b91507f416464726573733a20696e73756666696369656e742062616c616e636520666f60008301527f722063616c6c00000000000000000000000000000000000000000000000000006020830152604082019050919050565b60006143d3602583615595565b91507f43664d616e61676572536f667463617056657374696e673a206475726174696f60008301527f6e203e20300000000000000000000000000000000000000000000000000000006020830152604082019050919050565b6000614439605483615595565b91507f4143664d616e616765723a2043616e206f6e6c792066696e616c697a6520636160008301527f6d706169676e20696620746865206d696e696d756d2066756e64696e6720676f60208301527f616c20686173206265656e20726561636865642e0000000000000000000000006040830152606082019050919050565b60006144c5602683615595565b91507f4143664d616e616765723a20496e766573746d656e7420616d6f756e7420746f60008301527f6f206c6f772e00000000000000000000000000000000000000000000000000006020830152604082019050919050565b600061452b603e83615595565b91507f4143664d616e616765723a204e6f7420656e6f75676820746f6b656e73206c6560008301527f667420666f72207468697320696e766573746d656e7420616d6f756e742e00006020830152604082019050919050565b6000614591603c83615595565b91507f4143664d616e616765723a206e6f7420656e6f75676820746f6b656e7320666f60008301527f722073616c6520746f2072656163682074686520736f66746361702e000000006020830152604082019050919050565b60006145f7602c83615595565b91507f43664d616e61676572536f667463617056657374696e673a2056657374696e6760008301527f206e6f74207374617274656400000000000000000000000000000000000000006020830152604082019050919050565b600061465d603b83615595565b91507f43664d616e61676572536f667463617056657374696e673a207374617274202b60008301527f206475726174696f6e203e20626c6f636b2e74696d657374616d7000000000006020830152604082019050919050565b60006146c3604683615595565b91507f43664d616e61676572536f667463617056657374696e673a2043616d7061696760008301527f6e2076657374696e6720636f6e66696775726174696f6e206e6f74207265766f60208301527f6361626c652e00000000000000000000000000000000000000000000000000006040830152606082019050919050565b600061474f602383615595565b91507f4143664d616e616765723a2057616c6c6574206e6f742077686974656c69737460008301527f65642e00000000000000000000000000000000000000000000000000000000006020830152604082019050919050565b60006147b5602683615595565b91507f4143664d616e616765723a205468652063616d706169676e2069732066696e6160008301527f6c697a65642e00000000000000000000000000000000000000000000000000006020830152604082019050919050565b600061481b601d83615595565b91507f416464726573733a2063616c6c20746f206e6f6e2d636f6e74726163740000006000830152602082019050919050565b600061485b603783615595565b91507f4143664d616e616765723a20496e766573746d656e7420616d6f756e7420686160008301527f7320746f2062652067726561746572207468616e20302e0000000000000000006020830152604082019050919050565b60006148c1603183615595565b91507f43664d616e61676572536f667463617056657374696e673a2056657374696e6760008301527f20616c726561647920737461727465642e0000000000000000000000000000006020830152604082019050919050565b6000614927602b83615595565b91507f4143664d616e616765723a205468652063616d706169676e206861732062656560008301527f6e2063616e63656c65642e0000000000000000000000000000000000000000006020830152604082019050919050565b600061498d602a83615595565b91507f5361666545524332303a204552433230206f7065726174696f6e20646964206e60008301527f6f742073756363656564000000000000000000000000000000000000000000006020830152604082019050919050565b60006149f3603a83615595565b91507f43664d616e61676572536f667463617056657374696e673a2043616d7061696760008301527f6e2076657374696e6720616c7265616479207265766f6b65642e0000000000006020830152604082019050919050565b6000614a59604a83615595565b91507f4143664d616e616765723a2043616e206f6e6c792063616e63656c20666f722060008301527f736f6d656f6e65206966207468652063616d706169676e20686173206265656e60208301527f2063616e63656c65642e000000000000000000000000000000000000000000006040830152606082019050919050565b6000614ae5602a83615595565b91507f4143664d616e616765723a205468652063616d706169676e206973206e6f742060008301527f66696e616c697a65642e000000000000000000000000000000000000000000006020830152604082019050919050565b60006101c0830160008301518482036000860152614b5c828261408a565b91505060208301518482036020860152614b76828261408a565b9150506040830151614b8b6040860182613f99565b506060830151614b9e6060860182613f99565b5060808301518482036080860152614bb6828261408a565b91505060a0830151614bcb60a0860182613f99565b5060c0830151614bde60c0860182613f99565b5060e0830151614bf160e0860182614f04565b50610100830151614c0661010086018261402c565b50610120830151614c1b61012086018261402c565b50610140830151614c30610140860182614f04565b50610160830151614c45610160860182614f22565b50610180830151614c5a610180860182614f04565b506101a0830151614c6f6101a0860182614f04565b508091505092915050565b6000610360830160008301518482036000860152614c98828261408a565b91505060208301518482036020860152614cb2828261408a565b9150506040830151614cc76040860182613f99565b506060830151614cda6060860182613f99565b506080830151614ced6080860182613f99565b5060a0830151614d0060a0860182613f99565b5060c0830151614d1360c0860182613f99565b5060e0830151614d2660e0860182614f04565b50610100830151614d3b610100860182614f04565b50610120830151614d50610120860182614f04565b50610140830151614d65610140860182614f04565b50610160830151614d7a61016086018261402c565b50610180830151614d8f61018086018261402c565b506101a0830151614da46101a086018261402c565b506101c0830151614db96101c0860182614f04565b506101e0830151614dce6101e0860182614f04565b50610200830151614de3610200860182614f04565b50610220830151614df8610220860182614f04565b50610240830151614e0d610240860182614f04565b50610260830151848203610260860152614e27828261408a565b915050610280830151614e3e61028086018261402c565b506102a0830151614e536102a0860182614f04565b506102c0830151614e686102c0860182614f04565b506102e0830151614e7d6102e0860182614f04565b50610300830151614e9261030086018261402c565b50610320830151614ea761032086018261402c565b50610340830151614ebc610340860182613f99565b508091505092915050565b60006040830160008301518482036000860152614ee4828261408a565b9150506020830151614ef96020860182614f04565b508091505092915050565b614f0d8161587c565b82525050565b614f1c8161587c565b82525050565b614f2b81615886565b82525050565b6000614f3d828461404a565b915081905092915050565b6000602082019050614f5d6000830184613fa8565b92915050565b6000606082019050614f786000830186613fa8565b614f856020830185613fa8565b614f926040830184614f13565b949350505050565b6000604082019050614faf6000830185613fa8565b614fbc6020830184614f13565b9392505050565b6000606082019050614fd86000830186613fa8565b614fe56020830185614f13565b614ff26040830184614f13565b949350505050565b600060808201905061500f6000830187613fa8565b61501c6020830186614f13565b6150296040830185614f13565b6150366060830184614f13565b95945050505050565b600060a0820190506150546000830188613fa8565b6150616020830187614f13565b61506e6040830186614f13565b61507b6060830185614f13565b6150886080830184614f13565b9695505050505050565b600060208201905081810360008301526150ac8184613fb7565b905092915050565b60006020820190506150c9600083018461403b565b92915050565b60006020820190506150e4600083018461407b565b92915050565b6000602082019050818103600083015261510481846140c3565b905092915050565b6000606082019050818103600083015261512681866140c3565b90506151356020830185613fa8565b6151426040830184614f13565b949350505050565b60006020820190508181036000830152615163816140fc565b9050919050565b600060208201905081810360008301526151838161413c565b9050919050565b600060208201905081810360008301526151a3816141a2565b9050919050565b600060208201905081810360008301526151c381614208565b9050919050565b600060208201905081810360008301526151e38161426e565b9050919050565b60006020820190508181036000830152615203816142d4565b9050919050565b6000602082019050818103600083015261522381614360565b9050919050565b60006020820190508181036000830152615243816143c6565b9050919050565b600060208201905081810360008301526152638161442c565b9050919050565b60006020820190508181036000830152615283816144b8565b9050919050565b600060208201905081810360008301526152a38161451e565b9050919050565b600060208201905081810360008301526152c381614584565b9050919050565b600060208201905081810360008301526152e3816145ea565b9050919050565b6000602082019050818103600083015261530381614650565b9050919050565b60006020820190508181036000830152615323816146b6565b9050919050565b6000602082019050818103600083015261534381614742565b9050919050565b60006020820190508181036000830152615363816147a8565b9050919050565b600060208201905081810360008301526153838161480e565b9050919050565b600060208201905081810360008301526153a38161484e565b9050919050565b600060208201905081810360008301526153c3816148b4565b9050919050565b600060208201905081810360008301526153e38161491a565b9050919050565b6000602082019050818103600083015261540381614980565b9050919050565b60006020820190508181036000830152615423816149e6565b9050919050565b6000602082019050818103600083015261544381614a4c565b9050919050565b6000602082019050818103600083015261546381614ad8565b9050919050565b600060208201905081810360008301526154848184614b3e565b905092915050565b600060208201905081810360008301526154a68184614c7a565b905092915050565b60006020820190506154c36000830184614f13565b92915050565b6000604051905081810181811067ffffffffffffffff821117156154f0576154ef6159b8565b5b8060405250919050565b600067ffffffffffffffff821115615515576155146159b8565b5b601f19601f8301169050602081019050919050565b6000819050602082019050919050565b600081519050919050565b600081519050919050565b600081519050919050565b6000602082019050919050565b600082825260208201905092915050565b600081905092915050565b600082825260208201905092915050565b600082825260208201905092915050565b60006155b18261587c565b91506155bc8361587c565b9250827fffffffffffffffffffffffffffffffffffffffffffffffffffffffffffffffff038211156155f1576155f061592b565b5b828201905092915050565b60006156078261587c565b91506156128361587c565b9250826156225761562161595a565b5b828204905092915050565b6000808291508390505b6001851115615677578086048111156156535761565261592b565b5b60018516156156625780820291505b8081029050615670856159f8565b9450615637565b94509492505050565b600061568b8261587c565b915061569683615886565b92506156c37fffffffffffffffffffffffffffffffffffffffffffffffffffffffffffffffff84846156cb565b905092915050565b6000826156db5760019050615797565b816156e95760009050615797565b81600181146156ff576002811461570957615738565b6001915050615797565b60ff84111561571b5761571a61592b565b5b8360020a9150848211156157325761573161592b565b5b50615797565b5060208310610133831016604e8410600b841016171561576d5782820a9050838111156157685761576761592b565b5b615797565b61577a848484600161562d565b925090508184048111156157915761579061592b565b5b81810290505b9392505050565b60006157a98261587c565b91506157b48361587c565b9250817fffffffffffffffffffffffffffffffffffffffffffffffffffffffffffffffff04831182151516156157ed576157ec61592b565b5b828202905092915050565b60006158038261587c565b915061580e8361587c565b9250828210156158215761582061592b565b5b828203905092915050565b60006158378261585c565b9050919050565b60006158498261585c565b9050919050565b60008115159050919050565b600073ffffffffffffffffffffffffffffffffffffffff82169050919050565b6000819050919050565b600060ff82169050919050565b600061589e826158a5565b9050919050565b60006158b08261585c565b9050919050565b82818337600083830152505050565b60005b838110156158e45780820151818401526020810190506158c9565b838111156158f3576000848401525b50505050565b6000600282049050600182168061591157607f821691505b6020821081141561592557615924615989565b5b50919050565b7f4e487b7100000000000000000000000000000000000000000000000000000000600052601160045260246000fd5b7f4e487b7100000000000000000000000000000000000000000000000000000000600052601260045260246000fd5b7f4e487b7100000000000000000000000000000000000000000000000000000000600052602260045260246000fd5b7f4e487b7100000000000000000000000000000000000000000000000000000000600052604160045260246000fd5b6000601f19601f8301169050919050565b60008160011c9050919050565b615a0e8161582c565b8114615a1957600080fd5b50565b615a258161583e565b8114615a3057600080fd5b50565b615a3c81615850565b8114615a4757600080fd5b50565b615a538161587c565b8114615a5e57600080fd5b50565b615a6a81615886565b8114615a7557600080fd5b5056fea2646970667358221220c7dda8dac7c69a1d4d5ed32759c4882ed12c79a6563cf980ef0118d18c209bab64736f6c63430008000033",
  "linkReferences": {},
  "deployedLinkReferences": {}
}