{
  "_format": "hh-sol-artifact-1",
  "contractName": "CfManagerSoftcapVesting",
  "sourceName": "contracts/dev3/cfmanager-softcap-vesting/CfManagerSoftcapVesting.sol",
  "abi": [
    {
      "inputs": [
        {
          "components": [
            {
              "internalType": "address",
              "name": "owner",
              "type": "address"
            },
            {
              "internalType": "address",
              "name": "asset",
              "type": "address"
            },
            {
              "internalType": "address",
              "name": "issuer",
              "type": "address"
            },
            {
              "internalType": "address",
              "name": "paymentToken",
              "type": "address"
            },
            {
              "internalType": "uint256",
              "name": "tokenPrice",
              "type": "uint256"
            },
            {
              "internalType": "uint8",
              "name": "tokenPriceDecimals",
              "type": "uint8"
            },
            {
              "internalType": "uint256",
              "name": "softCap",
              "type": "uint256"
            },
            {
              "internalType": "uint256",
              "name": "minInvestment",
              "type": "uint256"
            },
            {
              "internalType": "uint256",
              "name": "maxInvestment",
              "type": "uint256"
            },
            {
              "internalType": "bool",
              "name": "whitelistRequired",
              "type": "bool"
            },
            {
              "internalType": "string",
              "name": "info",
              "type": "string"
            },
            {
              "internalType": "address",
              "name": "feeManager",
              "type": "address"
            }
          ],
          "internalType": "struct Structs.CampaignConstructor",
          "name": "params",
          "type": "tuple"
        }
      ],
      "stateMutability": "nonpayable",
      "type": "constructor"
    },
    {
      "anonymous": false,
      "inputs": [
        {
          "indexed": true,
          "internalType": "address",
          "name": "owner",
          "type": "address"
        },
        {
          "indexed": false,
          "internalType": "address",
          "name": "asset",
          "type": "address"
        },
        {
          "indexed": false,
          "internalType": "uint256",
          "name": "tokensReturned",
          "type": "uint256"
        },
        {
          "indexed": false,
          "internalType": "uint256",
          "name": "timestamp",
          "type": "uint256"
        }
      ],
      "name": "CancelCampaign",
      "type": "event"
    },
    {
      "anonymous": false,
      "inputs": [
        {
          "indexed": true,
          "internalType": "address",
          "name": "investor",
          "type": "address"
        },
        {
          "indexed": false,
          "internalType": "address",
          "name": "asset",
          "type": "address"
        },
        {
          "indexed": false,
          "internalType": "uint256",
          "name": "tokenAmount",
          "type": "uint256"
        },
        {
          "indexed": false,
          "internalType": "uint256",
          "name": "tokenValue",
          "type": "uint256"
        },
        {
          "indexed": false,
          "internalType": "uint256",
          "name": "timestamp",
          "type": "uint256"
        }
      ],
      "name": "CancelInvestment",
      "type": "event"
    },
    {
      "anonymous": false,
      "inputs": [
        {
          "indexed": true,
          "internalType": "address",
          "name": "investor",
          "type": "address"
        },
        {
          "indexed": false,
          "internalType": "address",
          "name": "asset",
          "type": "address"
        },
        {
          "indexed": false,
          "internalType": "uint256",
          "name": "tokenAmount",
          "type": "uint256"
        },
        {
          "indexed": false,
          "internalType": "uint256",
          "name": "tokenValue",
          "type": "uint256"
        },
        {
          "indexed": false,
          "internalType": "uint256",
          "name": "timestamp",
          "type": "uint256"
        }
      ],
      "name": "Claim",
      "type": "event"
    },
    {
      "anonymous": false,
      "inputs": [
        {
          "indexed": true,
          "internalType": "address",
          "name": "owner",
          "type": "address"
        },
        {
          "indexed": false,
          "internalType": "address",
          "name": "asset",
          "type": "address"
        },
        {
          "indexed": false,
          "internalType": "uint256",
          "name": "fundsRaised",
          "type": "uint256"
        },
        {
          "indexed": false,
          "internalType": "uint256",
          "name": "tokensSold",
          "type": "uint256"
        },
        {
          "indexed": false,
          "internalType": "uint256",
          "name": "tokensRefund",
          "type": "uint256"
        },
        {
          "indexed": false,
          "internalType": "uint256",
          "name": "timestamp",
          "type": "uint256"
        }
      ],
      "name": "Finalize",
      "type": "event"
    },
    {
      "anonymous": false,
      "inputs": [
        {
          "indexed": true,
          "internalType": "address",
          "name": "investor",
          "type": "address"
        },
        {
          "indexed": false,
          "internalType": "address",
          "name": "asset",
          "type": "address"
        },
        {
          "indexed": false,
          "internalType": "uint256",
          "name": "tokenAmount",
          "type": "uint256"
        },
        {
          "indexed": false,
          "internalType": "uint256",
          "name": "tokenValue",
          "type": "uint256"
        },
        {
          "indexed": false,
          "internalType": "uint256",
          "name": "timestamp",
          "type": "uint256"
        }
      ],
      "name": "Invest",
      "type": "event"
    },
    {
      "anonymous": false,
      "inputs": [
        {
          "indexed": true,
          "internalType": "address",
          "name": "previousOwner",
          "type": "address"
        },
        {
          "indexed": true,
          "internalType": "address",
          "name": "newOwner",
          "type": "address"
        }
      ],
      "name": "OwnershipTransferred",
      "type": "event"
    },
    {
      "anonymous": false,
      "inputs": [
        {
          "indexed": true,
          "internalType": "address",
          "name": "owner",
          "type": "address"
        },
        {
          "indexed": false,
          "internalType": "address",
          "name": "asset",
          "type": "address"
        },
        {
          "indexed": false,
          "internalType": "uint256",
          "name": "amount",
          "type": "uint256"
        },
        {
          "indexed": false,
          "internalType": "uint256",
          "name": "timestamp",
          "type": "uint256"
        }
      ],
      "name": "Revoke",
      "type": "event"
    },
    {
      "anonymous": false,
      "inputs": [
        {
          "indexed": false,
          "internalType": "string",
          "name": "info",
          "type": "string"
        },
        {
          "indexed": false,
          "internalType": "address",
          "name": "setter",
          "type": "address"
        },
        {
          "indexed": false,
          "internalType": "uint256",
          "name": "timestamp",
          "type": "uint256"
        }
      ],
      "name": "SetInfo",
      "type": "event"
    },
    {
      "anonymous": false,
      "inputs": [
        {
          "indexed": true,
          "internalType": "address",
          "name": "owner",
          "type": "address"
        },
        {
          "indexed": false,
          "internalType": "address",
          "name": "asset",
          "type": "address"
        },
        {
          "indexed": false,
          "internalType": "uint256",
          "name": "start",
          "type": "uint256"
        },
        {
          "indexed": false,
          "internalType": "uint256",
          "name": "cliffDuration",
          "type": "uint256"
        },
        {
          "indexed": false,
          "internalType": "uint256",
          "name": "duration",
          "type": "uint256"
        },
        {
          "indexed": false,
          "internalType": "uint256",
          "name": "timestamp",
          "type": "uint256"
        }
      ],
      "name": "StartVesting",
      "type": "event"
    },
    {
      "inputs": [],
      "name": "cancelCampaign",
      "outputs": [],
      "stateMutability": "nonpayable",
      "type": "function"
    },
    {
      "inputs": [],
      "name": "cancelInvestment",
      "outputs": [],
      "stateMutability": "nonpayable",
      "type": "function"
    },
    {
      "inputs": [
        {
          "internalType": "address",
          "name": "investor",
          "type": "address"
        }
      ],
      "name": "cancelInvestmentFor",
      "outputs": [],
      "stateMutability": "nonpayable",
      "type": "function"
    },
    {
      "inputs": [
        {
          "internalType": "address",
          "name": "investor",
          "type": "address"
        }
      ],
      "name": "claim",
      "outputs": [],
      "stateMutability": "nonpayable",
      "type": "function"
    },
    {
      "inputs": [
        {
          "internalType": "address",
          "name": "investor",
          "type": "address"
        }
      ],
      "name": "claimedAmount",
      "outputs": [
        {
          "internalType": "uint256",
          "name": "",
          "type": "uint256"
        }
      ],
      "stateMutability": "view",
      "type": "function"
    },
    {
      "inputs": [],
      "name": "commonState",
      "outputs": [
        {
          "components": [
            {
              "internalType": "string",
              "name": "flavor",
              "type": "string"
            },
            {
              "internalType": "string",
              "name": "version",
              "type": "string"
            },
            {
              "internalType": "address",
              "name": "contractAddress",
              "type": "address"
            },
            {
              "internalType": "address",
              "name": "owner",
              "type": "address"
            },
            {
              "internalType": "string",
              "name": "info",
              "type": "string"
            },
            {
              "internalType": "address",
              "name": "asset",
              "type": "address"
            },
            {
              "internalType": "address",
              "name": "stablecoin",
              "type": "address"
            },
            {
              "internalType": "uint256",
              "name": "softCap",
              "type": "uint256"
            },
            {
              "internalType": "bool",
              "name": "finalized",
              "type": "bool"
            },
            {
              "internalType": "bool",
              "name": "canceled",
              "type": "bool"
            },
            {
              "internalType": "uint256",
              "name": "pricePerToken",
              "type": "uint256"
            },
            {
              "internalType": "uint8",
              "name": "tokenPriceDecimals",
              "type": "uint8"
            },
            {
              "internalType": "uint256",
              "name": "fundsRaised",
              "type": "uint256"
            },
            {
              "internalType": "uint256",
              "name": "tokensSold",
              "type": "uint256"
            }
          ],
          "internalType": "struct Structs.CampaignCommonState",
          "name": "",
          "type": "tuple"
        }
      ],
      "stateMutability": "view",
      "type": "function"
    },
    {
      "inputs": [],
      "name": "finalize",
      "outputs": [],
      "stateMutability": "nonpayable",
      "type": "function"
    },
    {
      "inputs": [],
      "name": "flavor",
      "outputs": [
        {
          "internalType": "string",
          "name": "",
          "type": "string"
        }
      ],
      "stateMutability": "view",
      "type": "function"
    },
    {
      "inputs": [],
      "name": "getInfoHistory",
      "outputs": [
        {
          "components": [
            {
              "internalType": "string",
              "name": "info",
              "type": "string"
            },
            {
              "internalType": "uint256",
              "name": "timestamp",
              "type": "uint256"
            }
          ],
          "internalType": "struct Structs.InfoEntry[]",
          "name": "",
          "type": "tuple[]"
        }
      ],
      "stateMutability": "view",
      "type": "function"
    },
    {
      "inputs": [],
      "name": "getState",
      "outputs": [
        {
          "components": [
            {
              "internalType": "string",
              "name": "flavor",
              "type": "string"
            },
            {
              "internalType": "string",
              "name": "version",
              "type": "string"
            },
            {
              "internalType": "address",
              "name": "contractAddress",
              "type": "address"
            },
            {
              "internalType": "address",
              "name": "owner",
              "type": "address"
            },
            {
              "internalType": "address",
              "name": "asset",
              "type": "address"
            },
            {
              "internalType": "address",
              "name": "issuer",
              "type": "address"
            },
            {
              "internalType": "address",
              "name": "stablecoin",
              "type": "address"
            },
            {
              "internalType": "uint256",
              "name": "tokenPrice",
              "type": "uint256"
            },
            {
              "internalType": "uint256",
              "name": "softCap",
              "type": "uint256"
            },
            {
              "internalType": "uint256",
              "name": "minInvestment",
              "type": "uint256"
            },
            {
              "internalType": "uint256",
              "name": "maxInvestment",
              "type": "uint256"
            },
            {
              "internalType": "bool",
              "name": "whitelistRequired",
              "type": "bool"
            },
            {
              "internalType": "bool",
              "name": "finalized",
              "type": "bool"
            },
            {
              "internalType": "bool",
              "name": "canceled",
              "type": "bool"
            },
            {
              "internalType": "uint256",
              "name": "totalClaimableTokens",
              "type": "uint256"
            },
            {
              "internalType": "uint256",
              "name": "totalInvestorsCount",
              "type": "uint256"
            },
            {
              "internalType": "uint256",
              "name": "totalFundsRaised",
              "type": "uint256"
            },
            {
              "internalType": "uint256",
              "name": "totalTokensSold",
              "type": "uint256"
            },
            {
              "internalType": "uint256",
              "name": "totalTokensBalance",
              "type": "uint256"
            },
            {
              "internalType": "string",
              "name": "info",
              "type": "string"
            },
            {
              "internalType": "bool",
              "name": "vestingStarted",
              "type": "bool"
            },
            {
              "internalType": "uint256",
              "name": "start",
              "type": "uint256"
            },
            {
              "internalType": "uint256",
              "name": "cliff",
              "type": "uint256"
            },
            {
              "internalType": "uint256",
              "name": "duration",
              "type": "uint256"
            },
            {
              "internalType": "bool",
              "name": "revocable",
              "type": "bool"
            },
            {
              "internalType": "bool",
              "name": "revoked",
              "type": "bool"
            },
            {
              "internalType": "address",
              "name": "feeManager",
              "type": "address"
            }
          ],
          "internalType": "struct Structs.CfManagerSoftcapVestingState",
          "name": "",
          "type": "tuple"
        }
      ],
      "stateMutability": "view",
      "type": "function"
    },
    {
      "inputs": [
        {
          "internalType": "uint256",
          "name": "amount",
          "type": "uint256"
        }
      ],
      "name": "invest",
      "outputs": [],
      "stateMutability": "nonpayable",
      "type": "function"
    },
    {
      "inputs": [
        {
          "internalType": "address",
          "name": "spender",
          "type": "address"
        },
        {
          "internalType": "address",
          "name": "beneficiary",
          "type": "address"
        },
        {
          "internalType": "uint256",
          "name": "amount",
          "type": "uint256"
        }
      ],
      "name": "investForBeneficiary",
      "outputs": [],
      "stateMutability": "nonpayable",
      "type": "function"
    },
    {
      "inputs": [
        {
          "internalType": "address",
          "name": "investor",
          "type": "address"
        }
      ],
      "name": "investmentAmount",
      "outputs": [
        {
          "internalType": "uint256",
          "name": "",
          "type": "uint256"
        }
      ],
      "stateMutability": "view",
      "type": "function"
    },
    {
      "inputs": [
        {
          "internalType": "address",
          "name": "wallet",
          "type": "address"
        }
      ],
      "name": "isWalletWhitelisted",
      "outputs": [
        {
          "internalType": "bool",
          "name": "",
          "type": "bool"
        }
      ],
      "stateMutability": "view",
      "type": "function"
    },
    {
      "inputs": [],
      "name": "owner",
      "outputs": [
        {
          "internalType": "address",
          "name": "",
          "type": "address"
        }
      ],
      "stateMutability": "view",
      "type": "function"
    },
    {
      "inputs": [],
      "name": "renounceOwnership",
      "outputs": [],
      "stateMutability": "nonpayable",
      "type": "function"
    },
    {
      "inputs": [],
      "name": "revoke",
      "outputs": [],
      "stateMutability": "nonpayable",
      "type": "function"
    },
    {
      "inputs": [
        {
          "internalType": "string",
          "name": "info",
          "type": "string"
        }
      ],
      "name": "setInfo",
      "outputs": [],
      "stateMutability": "nonpayable",
      "type": "function"
    },
    {
      "inputs": [],
      "name": "stablecoin",
      "outputs": [
        {
          "internalType": "contract IERC20",
          "name": "",
          "type": "address"
        }
      ],
      "stateMutability": "view",
      "type": "function"
    },
    {
      "inputs": [
        {
          "internalType": "uint256",
          "name": "start",
          "type": "uint256"
        },
        {
          "internalType": "uint256",
          "name": "cliffDuration",
          "type": "uint256"
        },
        {
          "internalType": "uint256",
          "name": "duration",
          "type": "uint256"
        }
      ],
      "name": "startVesting",
      "outputs": [],
      "stateMutability": "nonpayable",
      "type": "function"
    },
    {
      "inputs": [
        {
          "internalType": "address",
          "name": "investor",
          "type": "address"
        }
      ],
      "name": "tokenAmount",
      "outputs": [
        {
          "internalType": "uint256",
          "name": "",
          "type": "uint256"
        }
      ],
      "stateMutability": "view",
      "type": "function"
    },
    {
      "inputs": [
        {
          "internalType": "address",
          "name": "newOwner",
          "type": "address"
        }
      ],
      "name": "transferOwnership",
      "outputs": [],
      "stateMutability": "nonpayable",
      "type": "function"
    },
    {
      "inputs": [],
      "name": "version",
      "outputs": [
        {
          "internalType": "string",
          "name": "",
          "type": "string"
        }
      ],
      "stateMutability": "view",
      "type": "function"
    }
  ],
  "bytecode": "0x60806040523480156200001157600080fd5b5060405162007bbe38038062007bbe833981810160405281019062000037919062001507565b620000576200004b62000b4f60201b60201c565b62000b5760201b60201c565b600073ffffffffffffffffffffffffffffffffffffffff16816000015173ffffffffffffffffffffffffffffffffffffffff161415620000ce576040517f08c379a0000000000000000000000000000000000000000000000000000000008152600401620000c59062001a2f565b60405180910390fd5b600073ffffffffffffffffffffffffffffffffffffffff16816020015173ffffffffffffffffffffffffffffffffffffffff16141562000145576040517f08c379a00000000000000000000000000000000000000000000000000000000081526004016200013c9062001a95565b60405180910390fd5b60008160800151116200018f576040517f08c379a0000000000000000000000000000000000000000000000000000000008152600401620001869062001ad9565b60405180910390fd5b8060e001518161010001511015620001de576040517f08c379a0000000000000000000000000000000000000000000000000000000008152600401620001d590620019eb565b60405180910390fd5b60008161010001511162000229576040517f08c379a0000000000000000000000000000000000000000000000000000000008152600401620002209062001a0d565b60405180910390fd5b600062000240826020015162000c1b60201b60201c565b905060008073ffffffffffffffffffffffffffffffffffffffff168273ffffffffffffffffffffffffffffffffffffffff1614156200028457826040015162000286565b815b9050826040015173ffffffffffffffffffffffffffffffffffffffff168173ffffffffffffffffffffffffffffffffffffffff1614620002fd576040517f08c379a0000000000000000000000000000000000000000000000000000000008152600401620002f49062001ab7565b60405180910390fd5b826101200151156200037d57600073ffffffffffffffffffffffffffffffffffffffff168173ffffffffffffffffffffffffffffffffffffffff1614156200037c576040517f08c379a0000000000000000000000000000000000000000000000000000000008152600401620003739062001a51565b60405180910390fd5b5b60008073ffffffffffffffffffffffffffffffffffffffff16846060015173ffffffffffffffffffffffffffffffffffffffff1614620003c25783606001516200044e565b8173ffffffffffffffffffffffffffffffffffffffff16631818e2ec6040518163ffffffff1660e01b815260040160006040518083038186803b1580156200040957600080fd5b505afa1580156200041e573d6000803e3d6000fd5b505050506040513d6000823e3d601f19601f820116820180604052508101906200044991906200154c565b608001515b90506000620004976200047b8660c0015187608001518860a0015189602001518762000d4e60201b60201c565b86608001518760a0015188602001518662000dbe60201b60201c565b90506000620004e0620004c48760e0015188608001518960a001518a602001518862000d4e60201b60201c565b87608001518860a0015189602001518762000dbe60201b60201c565b9050604051806102c001604052806040518060400160405280601981526020017f43664d616e61676572536f667463617056657374696e6756310000000000000081525081526020016040518060400160405280600681526020017f312e302e3237000000000000000000000000000000000000000000000000000081525081526020013073ffffffffffffffffffffffffffffffffffffffff168152602001876000015173ffffffffffffffffffffffffffffffffffffffff168152602001876020015173ffffffffffffffffffffffffffffffffffffffff1681526020018573ffffffffffffffffffffffffffffffffffffffff1681526020018473ffffffffffffffffffffffffffffffffffffffff168152602001876080015181526020018760a0015160ff1681526020018381526020018281526020018761010001518152602001876101200151151581526020016000151581526020016000151581526020016000815260200160008152602001600081526020016000815260200160008152602001876101400151815260200187610160015173ffffffffffffffffffffffffffffffffffffffff1681525060016000820151816000019080519060200190620006b292919062000f60565b506020820151816001019080519060200190620006d192919062000f60565b5060408201518160020160006101000a81548173ffffffffffffffffffffffffffffffffffffffff021916908373ffffffffffffffffffffffffffffffffffffffff16021790555060608201518160030160006101000a81548173ffffffffffffffffffffffffffffffffffffffff021916908373ffffffffffffffffffffffffffffffffffffffff16021790555060808201518160040160006101000a81548173ffffffffffffffffffffffffffffffffffffffff021916908373ffffffffffffffffffffffffffffffffffffffff16021790555060a08201518160050160006101000a81548173ffffffffffffffffffffffffffffffffffffffff021916908373ffffffffffffffffffffffffffffffffffffffff16021790555060c08201518160060160006101000a81548173ffffffffffffffffffffffffffffffffffffffff021916908373ffffffffffffffffffffffffffffffffffffffff16021790555060e082015181600701556101008201518160080160006101000a81548160ff021916908360ff160217905550610120820151816009015561014082015181600a015561016082015181600b015561018082015181600c0160006101000a81548160ff0219169083151502179055506101a082015181600c0160016101000a81548160ff0219169083151502179055506101c082015181600c0160026101000a81548160ff0219169083151502179055506101e082015181600d015561020082015181600e015561022082015181600f0155610240820151816010015561026082015181601101556102808201518160120190805190602001906200093b92919062000f60565b506102a08201518160130160006101000a81548173ffffffffffffffffffffffffffffffffffffffff021916908373ffffffffffffffffffffffffffffffffffffffff1602179055509050506040518060c0016040528060001515815260200160008152602001600081526020016000815260200160011515815260200160001515815250601960008201518160000160006101000a81548160ff02191690831515021790555060208201518160010155604082015181600201556060820151816003015560808201518160040160006101000a81548160ff02191690831515021790555060a08201518160040160016101000a81548160ff0219169083151502179055509050508162000aea876020015173ffffffffffffffffffffffffffffffffffffffff166318160ddd6040518163ffffffff1660e01b815260040160206040518083038186803b15801562000a9357600080fd5b505afa15801562000aa8573d6000803e3d6000fd5b505050506040513d601f19601f8201168201806040525081019062000ace919062001591565b88608001518960a001518a602001518862000dbe60201b60201c565b101562000b2e576040517f08c379a000000000000000000000000000000000000000000000000000000000815260040162000b259062001a73565b60405180910390fd5b62000b43866000015162000b5760201b60201c565b50505050505062001fae565b600033905090565b60008060009054906101000a900473ffffffffffffffffffffffffffffffffffffffff169050816000806101000a81548173ffffffffffffffffffffffffffffffffffffffff021916908373ffffffffffffffffffffffffffffffffffffffff1602179055508173ffffffffffffffffffffffffffffffffffffffff168173ffffffffffffffffffffffffffffffffffffffff167f8be0079c531659141344cd1fd0a4f28419497f9722a3daafe3b4186f6b6457e060405160405180910390a35050565b60008060008373ffffffffffffffffffffffffffffffffffffffff166040516024016040516020818303038152906040527f1818e2ec000000000000000000000000000000000000000000000000000000007bffffffffffffffffffffffffffffffffffffffffffffffffffffffff19166020820180517bffffffffffffffffffffffffffffffffffffffffffffffffffffffff838183161783525050505060405162000cc99190620019d2565b600060405180830381855afa9150503d806000811462000d06576040519150601f19603f3d011682016040523d82523d6000602084013e62000d0b565b606091505b5091509150811562000d425760008180602001905181019062000d2f9190620014c2565b9050806101200151935050505062000d49565b6000925050505b919050565b600062000d618262000e2e60201b60201c565b8562000d738562000ec760201b60201c565b86600a62000d82919062001c1c565b8962000d8f919062001d59565b62000d9b919062001d59565b62000da7919062001b89565b62000db3919062001b89565b905095945050505050565b600062000dd18362000ec760201b60201c565b84600a62000de0919062001c1c565b62000df18462000e2e60201b60201c565b878962000dff919062001d59565b62000e0b919062001d59565b62000e17919062001b89565b62000e23919062001b89565b905095945050505050565b60008173ffffffffffffffffffffffffffffffffffffffff1663313ce5676040518163ffffffff1660e01b815260040160206040518083038186803b15801562000e7757600080fd5b505afa15801562000e8c573d6000803e3d6000fd5b505050506040513d601f19601f8201168201806040525081019062000eb29190620015bd565b600a62000ec0919062001c1c565b9050919050565b60008173ffffffffffffffffffffffffffffffffffffffff1663313ce5676040518163ffffffff1660e01b815260040160206040518083038186803b15801562000f1057600080fd5b505afa15801562000f25573d6000803e3d6000fd5b505050506040513d601f19601f8201168201806040525081019062000f4b9190620015bd565b600a62000f59919062001c1c565b9050919050565b82805462000f6e9062001e47565b90600052602060002090601f01602090048101928262000f92576000855562000fde565b82601f1062000fad57805160ff191683800117855562000fde565b8280016001018555821562000fde579182015b8281111562000fdd57825182559160200191906001019062000fc0565b5b50905062000fed919062000ff1565b5090565b5b808211156200100c57600081600090555060010162000ff2565b5090565b600062001027620010218462001b2f565b62001afb565b9050828152602081018484840111156200104057600080fd5b6200104d84828562001e11565b509392505050565b600081519050620010668162001f46565b92915050565b6000815190506200107d8162001f60565b92915050565b600082601f8301126200109557600080fd5b8151620010a784826020860162001010565b91505092915050565b60006101408284031215620010c457600080fd5b620010d161014062001afb565b9050600082015167ffffffffffffffff811115620010ee57600080fd5b620010fc8482850162001083565b600083015250602082015167ffffffffffffffff8111156200111d57600080fd5b6200112b8482850162001083565b6020830152506040620011418482850162001055565b6040830152506060620011578482850162001055565b606083015250608082015167ffffffffffffffff8111156200117857600080fd5b620011868482850162001083565b60808301525060a082015167ffffffffffffffff811115620011a757600080fd5b620011b58482850162001083565b60a08301525060c082015167ffffffffffffffff811115620011d657600080fd5b620011e48482850162001083565b60c08301525060e0620011fa8482850162001494565b60e0830152506101006200121184828501620014ab565b61010083015250610120620012298482850162001055565b6101208301525092915050565b600061018082840312156200124a57600080fd5b6200125761018062001afb565b90506000620012698482850162001055565b60008301525060206200127f8482850162001055565b6020830152506040620012958482850162001055565b6040830152506060620012ab8482850162001055565b6060830152506080620012c18482850162001494565b60808301525060a0620012d784828501620014ab565b60a08301525060c0620012ed8482850162001494565b60c08301525060e0620013038482850162001494565b60e0830152506101006200131a8482850162001494565b6101008301525061012062001332848285016200106c565b6101208301525061014082015167ffffffffffffffff8111156200135557600080fd5b620013638482850162001083565b610140830152506101606200137b8482850162001055565b6101608301525092915050565b600060e082840312156200139b57600080fd5b620013a760e062001afb565b9050600082015167ffffffffffffffff811115620013c457600080fd5b620013d28482850162001083565b600083015250602082015167ffffffffffffffff811115620013f357600080fd5b620014018482850162001083565b6020830152506040620014178482850162001055565b60408301525060606200142d8482850162001055565b6060830152506080620014438482850162001055565b60808301525060a0620014598482850162001055565b60a08301525060c082015167ffffffffffffffff8111156200147a57600080fd5b620014888482850162001083565b60c08301525092915050565b600081519050620014a58162001f7a565b92915050565b600081519050620014bc8162001f94565b92915050565b600060208284031215620014d557600080fd5b600082015167ffffffffffffffff811115620014f057600080fd5b620014fe84828501620010b0565b91505092915050565b6000602082840312156200151a57600080fd5b600082015167ffffffffffffffff8111156200153557600080fd5b620015438482850162001236565b91505092915050565b6000602082840312156200155f57600080fd5b600082015167ffffffffffffffff8111156200157a57600080fd5b620015888482850162001388565b91505092915050565b600060208284031215620015a457600080fd5b6000620015b48482850162001494565b91505092915050565b600060208284031215620015d057600080fd5b6000620015e084828501620014ab565b91505092915050565b6000620015f68262001b62565b62001602818562001b6d565b93506200161481856020860162001e11565b80840191505092915050565b60006200162f60428362001b78565b91507f43664d616e61676572536f667463617056657374696e673a204d61782068617360008301527f20746f20626520626967676572207468616e206d696e20696e766573746d656e60208301527f742e0000000000000000000000000000000000000000000000000000000000006040830152606082019050919050565b6000620016bd60408362001b78565b91507f43664d616e61676572536f667463617056657374696e673a204d617820696e7660008301527f6573746d656e742068617320746f20626520626967676572207468616e20302e6020830152604082019050919050565b600062001725602e8362001b78565b91507f43664d616e61676572536f667463617056657374696e673a20496e76616c696460008301527f206f776e657220616464726573730000000000000000000000000000000000006020830152604082019050919050565b60006200178d60558362001b78565b91507f43664d616e61676572536f667463617056657374696e673a204973737565722060008301527f6d7573742062652070726f76696465642069662077616c6c657420776869746560208301527f6c697374696e67206973207475726e6564206f6e2e00000000000000000000006040830152606082019050919050565b60006200181b602a8362001b78565b91507f43664d616e61676572536f667463617056657374696e673a20496e76616c696460008301527f20736f6674206361702e000000000000000000000000000000000000000000006020830152604082019050919050565b600062001883602e8362001b78565b91507f43664d616e61676572536f667463617056657374696e673a20496e76616c696460008301527f20617373657420616464726573730000000000000000000000000000000000006020830152604082019050919050565b6000620018eb60318362001b78565b91507f43664d616e61676572536f667463617056657374696e673a20496e76616c696460008301527f206973737565722070726f76696465642e0000000000000000000000000000006020830152604082019050919050565b60006200195360488362001b78565b91507f43664d616e61676572536f667463617056657374696e673a20496e697469616c60008301527f2070726963652070657220746f6b656e206d757374206265206772656174657260208301527f207468616e20302e0000000000000000000000000000000000000000000000006040830152606082019050919050565b6000620019e08284620015e9565b915081905092915050565b6000602082019050818103600083015262001a068162001620565b9050919050565b6000602082019050818103600083015262001a2881620016ae565b9050919050565b6000602082019050818103600083015262001a4a8162001716565b9050919050565b6000602082019050818103600083015262001a6c816200177e565b9050919050565b6000602082019050818103600083015262001a8e816200180c565b9050919050565b6000602082019050818103600083015262001ab08162001874565b9050919050565b6000602082019050818103600083015262001ad281620018dc565b9050919050565b6000602082019050818103600083015262001af48162001944565b9050919050565b6000604051905081810181811067ffffffffffffffff8211171562001b255762001b2462001f0a565b5b8060405250919050565b600067ffffffffffffffff82111562001b4d5762001b4c62001f0a565b5b601f19601f8301169050602081019050919050565b600081519050919050565b600081905092915050565b600082825260208201905092915050565b600062001b968262001dfa565b915062001ba38362001dfa565b92508262001bb65762001bb562001eac565b5b828204905092915050565b6000808291508390505b600185111562001c135780860481111562001beb5762001bea62001e7d565b5b600185161562001bfb5780820291505b808102905062001c0b8562001f39565b945062001bcb565b94509492505050565b600062001c298262001dfa565b915062001c368362001e04565b925062001c657fffffffffffffffffffffffffffffffffffffffffffffffffffffffffffffffff848462001c6d565b905092915050565b60008262001c7f576001905062001d52565b8162001c8f576000905062001d52565b816001811462001ca8576002811462001cb35762001ce9565b600191505062001d52565b60ff84111562001cc85762001cc762001e7d565b5b8360020a91508482111562001ce25762001ce162001e7d565b5b5062001d52565b5060208310610133831016604e8410600b841016171562001d235782820a90508381111562001d1d5762001d1c62001e7d565b5b62001d52565b62001d32848484600162001bc1565b9250905081840481111562001d4c5762001d4b62001e7d565b5b81810290505b9392505050565b600062001d668262001dfa565b915062001d738362001dfa565b9250817fffffffffffffffffffffffffffffffffffffffffffffffffffffffffffffffff048311821515161562001daf5762001dae62001e7d565b5b828202905092915050565b600062001dc78262001dda565b9050919050565b60008115159050919050565b600073ffffffffffffffffffffffffffffffffffffffff82169050919050565b6000819050919050565b600060ff82169050919050565b60005b8381101562001e3157808201518184015260208101905062001e14565b8381111562001e41576000848401525b50505050565b6000600282049050600182168062001e6057607f821691505b6020821081141562001e775762001e7662001edb565b5b50919050565b7f4e487b7100000000000000000000000000000000000000000000000000000000600052601160045260246000fd5b7f4e487b7100000000000000000000000000000000000000000000000000000000600052601260045260246000fd5b7f4e487b7100000000000000000000000000000000000000000000000000000000600052602260045260246000fd5b7f4e487b7100000000000000000000000000000000000000000000000000000000600052604160045260246000fd5b60008160011c9050919050565b62001f518162001dba565b811462001f5d57600080fd5b50565b62001f6b8162001dce565b811462001f7757600080fd5b50565b62001f858162001dfa565b811462001f9157600080fd5b50565b62001f9f8162001e04565b811462001fab57600080fd5b50565b615c008062001fbe6000396000f3fe608060405234801561001057600080fd5b506004361061014d5760003560e01c80638da5cb5b116100c3578063aac8f9671161007c578063aac8f96714610318578063b6549f7514610348578063e9cbd82214610352578063ed0ea00314610370578063f2fde38b146103a0578063f59e4f65146103bc5761014d565b80638da5cb5b1461027c578063937f6e771461029a57806394f8e954146102b6578063980e7844146102c057806398e16255146102ca578063a96b7f05146102e85761014d565b806336921c0c1161011557806336921c0c146101f65780633d029091146102125780634bb278f31461022e57806354fd4d501461023857806367c5bd5414610256578063715018a6146102725761014d565b806304e86903146101525780631818e2ec146101825780631865c57d146101a05780631e83409a146101be5780632afcf480146101da575b600080fd5b61016c60048036038101906101679190613e8f565b6103da565b6040516101799190615600565b60405180910390f35b61018a610423565b60405161019791906155bc565b60405180910390f35b6101a8610753565b6040516101b591906155de565b60405180910390f35b6101d860048036038101906101d39190613e8f565b610c34565b005b6101f460048036038101906101ef9190613fad565b610f12565b005b610210600480360381019061020b9190613ef4565b610f20565b005b61022c60048036038101906102279190613fff565b610fd2565b005b61023661128d565b005b610240611637565b60405161024d919061521c565b60405180910390f35b610270600480360381019061026b9190613e8f565b6116cb565b005b61027a611729565b005b6102846117b1565b604051610291919061507a565b60405180910390f35b6102b460048036038101906102af9190613f6c565b6117da565b005b6102be611917565b005b6102c8611975565b005b6102d2611bfe565b6040516102df91906151c4565b60405180910390f35b61030260048036038101906102fd9190613e8f565b611cf9565b60405161030f9190615600565b60405180910390f35b610332600480360381019061032d9190613e8f565b611d42565b60405161033f91906151e6565b60405180910390f35b610350611d8a565b005b61035a612041565b6040516103679190615201565b60405180910390f35b61038a60048036038101906103859190613e8f565b61206e565b6040516103979190615600565b60405180910390f35b6103ba60048036038101906103b59190613e8f565b6120b7565b005b6103c46121af565b6040516103d1919061521c565b60405180910390f35b6000601660008373ffffffffffffffffffffffffffffffffffffffff1673ffffffffffffffffffffffffffffffffffffffff168152602001908152602001600020549050919050565b61042b613ade565b604051806101c001604052806001600001805461044790615a4b565b80601f016020809104026020016040519081016040528092919081815260200182805461047390615a4b565b80156104c05780601f10610495576101008083540402835291602001916104c0565b820191906000526020600020905b8154815290600101906020018083116104a357829003601f168201915b505050505081526020016001800180546104d990615a4b565b80601f016020809104026020016040519081016040528092919081815260200182805461050590615a4b565b80156105525780601f1061052757610100808354040283529160200191610552565b820191906000526020600020905b81548152906001019060200180831161053557829003601f168201915b50505050508152602001600160020160009054906101000a900473ffffffffffffffffffffffffffffffffffffffff1673ffffffffffffffffffffffffffffffffffffffff1681526020016105a56117b1565b73ffffffffffffffffffffffffffffffffffffffff168152602001600160120180546105d090615a4b565b80601f01602080910402602001604051908101604052809291908181526020018280546105fc90615a4b565b80156106495780601f1061061e57610100808354040283529160200191610649565b820191906000526020600020905b81548152906001019060200180831161062c57829003601f168201915b50505050508152602001600160040160009054906101000a900473ffffffffffffffffffffffffffffffffffffffff1673ffffffffffffffffffffffffffffffffffffffff168152602001600160060160009054906101000a900473ffffffffffffffffffffffffffffffffffffffff1673ffffffffffffffffffffffffffffffffffffffff16815260200160016009015481526020016001600c0160019054906101000a900460ff16151581526020016001600c0160029054906101000a900460ff16151581526020016001600701548152602001600160080160009054906101000a900460ff1660ff1681526020016001600f01548152602001600160100154815250905090565b61075b613bac565b6040518061036001604052806001600001805461077790615a4b565b80601f01602080910402602001604051908101604052809291908181526020018280546107a390615a4b565b80156107f05780601f106107c5576101008083540402835291602001916107f0565b820191906000526020600020905b8154815290600101906020018083116107d357829003601f168201915b5050505050815260200160018001805461080990615a4b565b80601f016020809104026020016040519081016040528092919081815260200182805461083590615a4b565b80156108825780601f1061085757610100808354040283529160200191610882565b820191906000526020600020905b81548152906001019060200180831161086557829003601f168201915b50505050508152602001600160020160009054906101000a900473ffffffffffffffffffffffffffffffffffffffff1673ffffffffffffffffffffffffffffffffffffffff1681526020016108d56117b1565b73ffffffffffffffffffffffffffffffffffffffff168152602001600160040160009054906101000a900473ffffffffffffffffffffffffffffffffffffffff1673ffffffffffffffffffffffffffffffffffffffff168152602001600160050160009054906101000a900473ffffffffffffffffffffffffffffffffffffffff1673ffffffffffffffffffffffffffffffffffffffff168152602001600160060160009054906101000a900473ffffffffffffffffffffffffffffffffffffffff1673ffffffffffffffffffffffffffffffffffffffff168152602001600160070154815260200160016009015481526020016001600a015481526020016001600b015481526020016001600c0160009054906101000a900460ff16151581526020016001600c0160019054906101000a900460ff16151581526020016001600c0160029054906101000a900460ff16151581526020016001600d015481526020016001600e015481526020016001600f015481526020016001601001548152602001610a61612244565b73ffffffffffffffffffffffffffffffffffffffff166370a08231306040518263ffffffff1660e01b8152600401610a99919061507a565b60206040518083038186803b158015610ab157600080fd5b505afa158015610ac5573d6000803e3d6000fd5b505050506040513d601f19601f82011682018060405250810190610ae99190613fd6565b815260200160016012018054610afe90615a4b565b80601f0160208091040260200160405190810160405280929190818152602001828054610b2a90615a4b565b8015610b775780601f10610b4c57610100808354040283529160200191610b77565b820191906000526020600020905b815481529060010190602001808311610b5a57829003601f168201915b50505050508152602001601960000160009054906101000a900460ff1615158152602001601960010154815260200160196002015481526020016019600301548152602001601960040160009054906101000a900460ff1615158152602001601960040160019054906101000a900460ff1615158152602001600160130160009054906101000a900473ffffffffffffffffffffffffffffffffffffffff1673ffffffffffffffffffffffffffffffffffffffff16815250905090565b6001600c0160019054906101000a900460ff16610c86576040517f08c379a0000000000000000000000000000000000000000000000000000000008152600401610c7d9061559c565b60405180910390fd5b601960000160009054906101000a900460ff16610cd8576040517f08c379a0000000000000000000000000000000000000000000000000000000008152600401610ccf906153fc565b60405180910390fd5b6000610ce382612271565b90506000610d5582600160070154600160080160009054906101000a900460ff16600160040160009054906101000a900473ffffffffffffffffffffffffffffffffffffffff16600160060160009054906101000a900473ffffffffffffffffffffffffffffffffffffffff166122cd565b905060008211610d9a576040517f08c379a0000000000000000000000000000000000000000000000000000000008152600401610d919061529c565b60405180910390fd5b816001600d016000828254610daf919061594a565b9250508190555081601660008573ffffffffffffffffffffffffffffffffffffffff1673ffffffffffffffffffffffffffffffffffffffff1681526020019081526020016000206000828254610e05919061594a565b9250508190555081601e60008573ffffffffffffffffffffffffffffffffffffffff1673ffffffffffffffffffffffffffffffffffffffff1681526020019081526020016000206000828254610e5b91906156f8565b92505081905550610e948383610e6f612244565b73ffffffffffffffffffffffffffffffffffffffff166123239092919063ffffffff16565b8273ffffffffffffffffffffffffffffffffffffffff167f9137e112a187039f8a3291c0a66fce97153d25ec42036e82360d5d0106d19a6e600160040160009054906101000a900473ffffffffffffffffffffffffffffffffffffffff16848442604051610f05949392919061512c565b60405180910390a2505050565b610f1d3333836123a9565b50565b8173ffffffffffffffffffffffffffffffffffffffff168373ffffffffffffffffffffffffffffffffffffffff1614610fc2573373ffffffffffffffffffffffffffffffffffffffff168373ffffffffffffffffffffffffffffffffffffffff1614610fc1576040517f08c379a0000000000000000000000000000000000000000000000000000000008152600401610fb89061531c565b60405180910390fd5b5b610fcd8383836123a9565b505050565b610fda612b71565b73ffffffffffffffffffffffffffffffffffffffff16610ff86117b1565b73ffffffffffffffffffffffffffffffffffffffff161461104e576040517f08c379a00000000000000000000000000000000000000000000000000000000081526004016110459061543c565b60405180910390fd5b6001600c0160019054906101000a900460ff166110a0576040517f08c379a00000000000000000000000000000000000000000000000000000000081526004016110979061559c565b60405180910390fd5b601960000160009054906101000a900460ff16156110f3576040517f08c379a00000000000000000000000000000000000000000000000000000000081526004016110ea906154fc565b60405180910390fd5b80821115611136576040517f08c379a000000000000000000000000000000000000000000000000000000000815260040161112d906152bc565b60405180910390fd5b60008111611179576040517f08c379a00000000000000000000000000000000000000000000000000000000081526004016111709061535c565b60405180910390fd5b42818461118691906156f8565b116111c6576040517f08c379a00000000000000000000000000000000000000000000000000000000081526004016111bd9061541c565b60405180910390fd5b6001601960000160006101000a81548160ff0219169083151502179055508260196001018190555081836111fa91906156f8565b601960020181905550806019600301819055503373ffffffffffffffffffffffffffffffffffffffff167f1b80a1ad361272967857069bbb1b6c32ae4dede784580d2e94bed06f9dd7ca77600160040160009054906101000a900473ffffffffffffffffffffffffffffffffffffffff1685858542604051611280959493929190615171565b60405180910390a2505050565b611295612b71565b73ffffffffffffffffffffffffffffffffffffffff166112b36117b1565b73ffffffffffffffffffffffffffffffffffffffff1614611309576040517f08c379a00000000000000000000000000000000000000000000000000000000081526004016113009061543c565b60405180910390fd5b6001600c0160029054906101000a900460ff161561135c576040517f08c379a00000000000000000000000000000000000000000000000000000000081526004016113539061551c565b60405180910390fd5b6001600c0160019054906101000a900460ff16156113af576040517f08c379a00000000000000000000000000000000000000000000000000000000081526004016113a69061549c565b60405180910390fd5b60006113b9612041565b905060008173ffffffffffffffffffffffffffffffffffffffff166370a08231306040518263ffffffff1660e01b81526004016113f6919061507a565b60206040518083038186803b15801561140e57600080fd5b505afa158015611422573d6000803e3d6000fd5b505050506040513d601f19601f820116820180604052508101906114469190613fd6565b90506001600901548110158061146357506000611461612b79565b145b6114a2576040517f08c379a00000000000000000000000000000000000000000000000000000000081526004016114999061537c565b60405180910390fd5b600180600c0160016101000a81548160ff02191690831515021790555060006114c9612244565b9050600060016010015490506000818373ffffffffffffffffffffffffffffffffffffffff166370a08231306040518263ffffffff1660e01b8152600401611511919061507a565b60206040518083038186803b15801561152957600080fd5b505afa15801561153d573d6000803e3d6000fd5b505050506040513d601f19601f820116820180604052508101906115619190613fd6565b61156b919061594a565b9050611575612c75565b611580338587612d88565b60008111156115b5576115b433828573ffffffffffffffffffffffffffffffffffffffff166123239092919063ffffffff16565b5b3373ffffffffffffffffffffffffffffffffffffffff167fc7ffb23c3f55c770b94ffcdbbe7d3b0520a2e76b9abe111f43c7c48cab999a6a600160040160009054906101000a900473ffffffffffffffffffffffffffffffffffffffff1686858542604051611628959493929190615171565b60405180910390a25050505050565b606060018001805461164890615a4b565b80601f016020809104026020016040519081016040528092919081815260200182805461167490615a4b565b80156116c15780601f10611696576101008083540402835291602001916116c1565b820191906000526020600020905b8154815290600101906020018083116116a457829003601f168201915b5050505050905090565b6001600c0160029054906101000a900460ff1661171d576040517f08c379a00000000000000000000000000000000000000000000000000000000081526004016117149061557c565b60405180910390fd5b61172681612e7c565b50565b611731612b71565b73ffffffffffffffffffffffffffffffffffffffff1661174f6117b1565b73ffffffffffffffffffffffffffffffffffffffff16146117a5576040517f08c379a000000000000000000000000000000000000000000000000000000000815260040161179c9061543c565b60405180910390fd5b6117af6000613142565b565b60008060009054906101000a900473ffffffffffffffffffffffffffffffffffffffff16905090565b6117e2612b71565b73ffffffffffffffffffffffffffffffffffffffff166118006117b1565b73ffffffffffffffffffffffffffffffffffffffff1614611856576040517f08c379a000000000000000000000000000000000000000000000000000000000815260040161184d9061543c565b60405180910390fd5b6015604051806040016040528083815260200142815250908060018154018082558091505060019003906000526020600020906002020160009091909190915060008201518160000190805190602001906118b2929190613d06565b5060208201518160010155505080600160120190805190602001906118d8929190613d06565b507f39b28594242c42fce47a0a6e63bac12adbd07fbb35580f5a54b236858101d58a81334260405161190c9392919061523e565b60405180910390a150565b6001600c0160019054906101000a900460ff161561196a576040517f08c379a00000000000000000000000000000000000000000000000000000000081526004016119619061549c565b60405180910390fd5b61197333612e7c565b565b61197d612b71565b73ffffffffffffffffffffffffffffffffffffffff1661199b6117b1565b73ffffffffffffffffffffffffffffffffffffffff16146119f1576040517f08c379a00000000000000000000000000000000000000000000000000000000081526004016119e89061543c565b60405180910390fd5b6001600c0160029054906101000a900460ff1615611a44576040517f08c379a0000000000000000000000000000000000000000000000000000000008152600401611a3b9061551c565b60405180910390fd5b6001600c0160019054906101000a900460ff1615611a97576040517f08c379a0000000000000000000000000000000000000000000000000000000008152600401611a8e9061549c565b60405180910390fd5b600180600c0160026101000a81548160ff0219169083151502179055506000611abe612244565b73ffffffffffffffffffffffffffffffffffffffff166370a08231306040518263ffffffff1660e01b8152600401611af6919061507a565b60206040518083038186803b158015611b0e57600080fd5b505afa158015611b22573d6000803e3d6000fd5b505050506040513d601f19601f82011682018060405250810190611b469190613fd6565b90506000811115611b8457611b833382611b5e612244565b73ffffffffffffffffffffffffffffffffffffffff166123239092919063ffffffff16565b5b3373ffffffffffffffffffffffffffffffffffffffff167faf1ae5c6fb3f0ce445b207ae00f52f0b564d8fe58282727032de5d199eaa7981600160040160009054906101000a900473ffffffffffffffffffffffffffffffffffffffff168342604051611bf3939291906150f5565b60405180910390a250565b60606015805480602002602001604051908101604052809291908181526020016000905b82821015611cf05783829060005260206000209060020201604051806040016040529081600082018054611c5590615a4b565b80601f0160208091040260200160405190810160405280929190818152602001828054611c8190615a4b565b8015611cce5780601f10611ca357610100808354040283529160200191611cce565b820191906000526020600020905b815481529060010190602001808311611cb157829003601f168201915b5050505050815260200160018201548152505081526020019060010190611c22565b50505050905090565b6000601860008373ffffffffffffffffffffffffffffffffffffffff1673ffffffffffffffffffffffffffffffffffffffff168152602001908152602001600020549050919050565b60006001600c0160009054906101000a900460ff161580611d8357506001600c0160009054906101000a900460ff168015611d825750611d8182613206565b5b5b9050919050565b611d92612b71565b73ffffffffffffffffffffffffffffffffffffffff16611db06117b1565b73ffffffffffffffffffffffffffffffffffffffff1614611e06576040517f08c379a0000000000000000000000000000000000000000000000000000000008152600401611dfd9061543c565b60405180910390fd5b6001600c0160019054906101000a900460ff16611e58576040517f08c379a0000000000000000000000000000000000000000000000000000000008152600401611e4f9061559c565b60405180910390fd5b601960000160009054906101000a900460ff16611eaa576040517f08c379a0000000000000000000000000000000000000000000000000000000008152600401611ea1906153fc565b60405180910390fd5b601960040160009054906101000a900460ff16611efc576040517f08c379a0000000000000000000000000000000000000000000000000000000008152600401611ef39061545c565b60405180910390fd5b601960040160019054906101000a900460ff1615611f4f576040517f08c379a0000000000000000000000000000000000000000000000000000000008152600401611f469061555c565b60405180910390fd5b60006001600d015490506000611f636132bd565b905060008183611f73919061594a565b90506001601960040160016101000a81548160ff021916908315150217905550611fc53382611fa0612244565b73ffffffffffffffffffffffffffffffffffffffff166123239092919063ffffffff16565b3373ffffffffffffffffffffffffffffffffffffffff167fd6f80c7d68e3e62bd7a51c3d37e575c1cfbc311c07487b69ef4eb570bc21cb68600160040160009054906101000a900473ffffffffffffffffffffffffffffffffffffffff168342604051612034939291906150f5565b60405180910390a2505050565b6000600160060160009054906101000a900473ffffffffffffffffffffffffffffffffffffffff16905090565b6000601760008373ffffffffffffffffffffffffffffffffffffffff1673ffffffffffffffffffffffffffffffffffffffff168152602001908152602001600020549050919050565b6120bf612b71565b73ffffffffffffffffffffffffffffffffffffffff166120dd6117b1565b73ffffffffffffffffffffffffffffffffffffffff1614612133576040517f08c379a000000000000000000000000000000000000000000000000000000000815260040161212a9061543c565b60405180910390fd5b600073ffffffffffffffffffffffffffffffffffffffff168173ffffffffffffffffffffffffffffffffffffffff1614156121a3576040517f08c379a000000000000000000000000000000000000000000000000000000000815260040161219a906152fc565b60405180910390fd5b6121ac81613142565b50565b6060600160000180546121c190615a4b565b80601f01602080910402602001604051908101604052809291908181526020018280546121ed90615a4b565b801561223a5780601f1061220f5761010080835404028352916020019161223a565b820191906000526020600020905b81548152906001019060200180831161221d57829003601f168201915b5050505050905090565b6000600160040160009054906101000a900473ffffffffffffffffffffffffffffffffffffffff16905090565b6000601e60008373ffffffffffffffffffffffffffffffffffffffff1673ffffffffffffffffffffffffffffffffffffffff168152602001908152602001600020546122bc83613377565b6122c6919061594a565b9050919050565b60006122d883613481565b84600a6122e591906157d2565b6122ee84613514565b87896122fa91906158f0565b61230491906158f0565b61230e919061574e565b612318919061574e565b905095945050505050565b6123a48363a9059cbb60e01b84846040516024016123429291906150cc565b604051602081830303815290604052907bffffffffffffffffffffffffffffffffffffffffffffffffffffffff19166020820180517bffffffffffffffffffffffffffffffffffffffffffffffffffffffff83818316178352505050506135a7565b505050565b6001600c0160029054906101000a900460ff16156123fc576040517f08c379a00000000000000000000000000000000000000000000000000000000081526004016123f39061551c565b60405180910390fd5b6001600c0160019054906101000a900460ff161561244f576040517f08c379a00000000000000000000000000000000000000000000000000000000081526004016124469061549c565b60405180910390fd5b8161245981611d42565b612498576040517f08c379a000000000000000000000000000000000000000000000000000000000815260040161248f9061547c565b60405180910390fd5b600082116124db576040517f08c379a00000000000000000000000000000000000000000000000000000000081526004016124d2906154dc565b60405180910390fd5b60006124e5612244565b73ffffffffffffffffffffffffffffffffffffffff166370a08231306040518263ffffffff1660e01b815260040161251d919061507a565b60206040518083038186803b15801561253557600080fd5b505afa158015612549573d6000803e3d6000fd5b505050506040513d601f19601f8201168201806040525081019061256d9190613fd6565b90506001600901546125e382600160070154600160080160009054906101000a900460ff16600160040160009054906101000a900473ffffffffffffffffffffffffffffffffffffffff16600160060160009054906101000a900473ffffffffffffffffffffffffffffffffffffffff166122cd565b1015612624576040517f08c379a000000000000000000000000000000000000000000000000000000000815260040161261b906153dc565b60405180910390fd5b60006001600d015482612637919061594a565b905060006126a985600160070154600160080160009054906101000a900460ff16600160040160009054906101000a900473ffffffffffffffffffffffffffffffffffffffff16600160060160009054906101000a900473ffffffffffffffffffffffffffffffffffffffff1661366e565b9050600061271b82600160070154600160080160009054906101000a900460ff16600160040160009054906101000a900473ffffffffffffffffffffffffffffffffffffffff16600160060160009054906101000a900473ffffffffffffffffffffffffffffffffffffffff166122cd565b905060008211801561272d5750600081115b61276c576040517f08c379a00000000000000000000000000000000000000000000000000000000081526004016127639061539c565b60405180910390fd5b818310156127af576040517f08c379a00000000000000000000000000000000000000000000000000000000081526004016127a6906153bc565b60405180910390fd5b6000612869601660008a73ffffffffffffffffffffffffffffffffffffffff1673ffffffffffffffffffffffffffffffffffffffff16815260200190815260200160002054846127ff91906156f8565b600160070154600160080160009054906101000a900460ff16600160040160009054906101000a900473ffffffffffffffffffffffffffffffffffffffff16600160060160009054906101000a900473ffffffffffffffffffffffffffffffffffffffff166122cd565b9050612874846136c4565b8110156128b6576040517f08c379a00000000000000000000000000000000000000000000000000000000081526004016128ad9061539c565b60405180910390fd5b6001600b01548111156128fe576040517f08c379a00000000000000000000000000000000000000000000000000000000081526004016128f5906152dc565b60405180910390fd5b61293289308461290c612041565b73ffffffffffffffffffffffffffffffffffffffff16613758909392919063ffffffff16565b6000601660008a73ffffffffffffffffffffffffffffffffffffffff1673ffffffffffffffffffffffffffffffffffffffff16815260200190815260200160002054141561299757600180600e01600082825461298f91906156f8565b925050819055505b82601660008a73ffffffffffffffffffffffffffffffffffffffff1673ffffffffffffffffffffffffffffffffffffffff16815260200190815260200160002060008282546129e691906156f8565b9250508190555081601760008a73ffffffffffffffffffffffffffffffffffffffff1673ffffffffffffffffffffffffffffffffffffffff1681526020019081526020016000206000828254612a3c91906156f8565b9250508190555082601860008a73ffffffffffffffffffffffffffffffffffffffff1673ffffffffffffffffffffffffffffffffffffffff1681526020019081526020016000206000828254612a9291906156f8565b92505081905550826001600d016000828254612aae91906156f8565b925050819055508260016010016000828254612aca91906156f8565b92505081905550816001600f016000828254612ae691906156f8565b925050819055508773ffffffffffffffffffffffffffffffffffffffff167ff29b7b9c9bc4f1c24045a5a10b8bb59a7318d7a1e2e46af68bd5560dfce0e044600160040160009054906101000a900473ffffffffffffffffffffffffffffffffffffffff16858542604051612b5e949392919061512c565b60405180910390a2505050505050505050565b600033905090565b600080612bff6001600f0154600160090154612b95919061594a565b600160070154600160080160009054906101000a900460ff16600160040160009054906101000a900473ffffffffffffffffffffffffffffffffffffffff16600160060160009054906101000a900473ffffffffffffffffffffffffffffffffffffffff1661366e565b9050612c6f81600160070154600160080160009054906101000a900460ff16600160040160009054906101000a900473ffffffffffffffffffffffffffffffffffffffff16600160060160009054906101000a900473ffffffffffffffffffffffffffffffffffffffff166122cd565b91505090565b600160040160009054906101000a900473ffffffffffffffffffffffffffffffffffffffff1673ffffffffffffffffffffffffffffffffffffffff166040516024016040516020818303038152906040527f58a687ec000000000000000000000000000000000000000000000000000000007bffffffffffffffffffffffffffffffffffffffffffffffffffffffff19166020820180517bffffffffffffffffffffffffffffffffffffffffffffffffffffffff8381831617835250505050604051612d419190615063565b6000604051808303816000865af19150503d8060008114612d7e576040519150601f19603f3d011682016040523d82523d6000602084013e612d83565b606091505b505050565b6000821115612e7757600080612d9c6137e1565b91509150600081118015612ddd5750600073ffffffffffffffffffffffffffffffffffffffff168273ffffffffffffffffffffffffffffffffffffffff1614155b15612e4857612e0d82828573ffffffffffffffffffffffffffffffffffffffff166123239092919063ffffffff16565b612e43858286612e1d919061594a565b8573ffffffffffffffffffffffffffffffffffffffff166123239092919063ffffffff16565b612e74565b612e7385858573ffffffffffffffffffffffffffffffffffffffff166123239092919063ffffffff16565b5b50505b505050565b6000601660008373ffffffffffffffffffffffffffffffffffffffff1673ffffffffffffffffffffffffffffffffffffffff1681526020019081526020016000205490506000601760008473ffffffffffffffffffffffffffffffffffffffff1673ffffffffffffffffffffffffffffffffffffffff168152602001908152602001600020549050600082118015612f145750600081115b612f53576040517f08c379a0000000000000000000000000000000000000000000000000000000008152600401612f4a9061527c565b60405180910390fd5b600180600e016000828254612f68919061594a565b925050819055506000601660008573ffffffffffffffffffffffffffffffffffffffff1673ffffffffffffffffffffffffffffffffffffffff168152602001908152602001600020819055506000601760008573ffffffffffffffffffffffffffffffffffffffff1673ffffffffffffffffffffffffffffffffffffffff168152602001908152602001600020819055506000601860008573ffffffffffffffffffffffffffffffffffffffff1673ffffffffffffffffffffffffffffffffffffffff16815260200190815260200160002081905550816001600d016000828254613053919061594a565b92505081905550816001601001600082825461306f919061594a565b92505081905550806001600f01600082825461308b919061594a565b925050819055506130c4838261309f612041565b73ffffffffffffffffffffffffffffffffffffffff166123239092919063ffffffff16565b8273ffffffffffffffffffffffffffffffffffffffff167f211dda46c5b3693e6a4dae7489d6a6738cf8a0104ce5b5ddbb477496a796e3ba600160040160009054906101000a900473ffffffffffffffffffffffffffffffffffffffff16848442604051613135949392919061512c565b60405180910390a2505050565b60008060009054906101000a900473ffffffffffffffffffffffffffffffffffffffff169050816000806101000a81548173ffffffffffffffffffffffffffffffffffffffff021916908373ffffffffffffffffffffffffffffffffffffffff1602179055508173ffffffffffffffffffffffffffffffffffffffff168173ffffffffffffffffffffffffffffffffffffffff167f8be0079c531659141344cd1fd0a4f28419497f9722a3daafe3b4186f6b6457e060405160405180910390a35050565b6000600160050160009054906101000a900473ffffffffffffffffffffffffffffffffffffffff1673ffffffffffffffffffffffffffffffffffffffff16633657e851836040518263ffffffff1660e01b8152600401613266919061507a565b60206040518083038186803b15801561327e57600080fd5b505afa158015613292573d6000803e3d6000fd5b505050506040513d601f19601f820116820180604052508101906132b69190613f43565b9050919050565b6000806019600201544210156132d65760009050613350565b6019600301546019600101546132ec91906156f8565b421015806133095750601960040160019054906101000a900460ff165b1561331b57600160100154905061334f565b60196003015460196001015442613332919061594a565b60016010015461334291906158f0565b61334c919061574e565b90505b5b6001600d0154600160100154613366919061594a565b81613371919061594a565b91505090565b600060196002015442101561338f576000905061347c565b6019600301546019600101546133a591906156f8565b421015806133c25750601960040160019054906101000a900460ff165b1561340e57601860008373ffffffffffffffffffffffffffffffffffffffff1673ffffffffffffffffffffffffffffffffffffffff16815260200190815260200160002054905061347c565b60196003015460196001015442613425919061594a565b601860008573ffffffffffffffffffffffffffffffffffffffff1673ffffffffffffffffffffffffffffffffffffffff1681526020019081526020016000205461346f91906158f0565b613479919061574e565b90505b919050565b60008173ffffffffffffffffffffffffffffffffffffffff1663313ce5676040518163ffffffff1660e01b815260040160206040518083038186803b1580156134c957600080fd5b505afa1580156134dd573d6000803e3d6000fd5b505050506040513d601f19601f82011682018060405250810190613501919061404e565b600a61350d91906157d2565b9050919050565b60008173ffffffffffffffffffffffffffffffffffffffff1663313ce5676040518163ffffffff1660e01b815260040160206040518083038186803b15801561355c57600080fd5b505afa158015613570573d6000803e3d6000fd5b505050506040513d601f19601f82011682018060405250810190613594919061404e565b600a6135a091906157d2565b9050919050565b6000613609826040518060400160405280602081526020017f5361666545524332303a206c6f772d6c6576656c2063616c6c206661696c65648152508573ffffffffffffffffffffffffffffffffffffffff166139389092919063ffffffff16565b905060008151111561366957808060200190518101906136299190613f43565b613668576040517f08c379a000000000000000000000000000000000000000000000000000000000815260040161365f9061553c565b60405180910390fd5b5b505050565b600061367982613514565b8561368385613481565b86600a61369091906157d2565b8961369b91906158f0565b6136a591906158f0565b6136af919061574e565b6136b9919061574e565b905095945050505050565b60008061373583600160070154600160080160009054906101000a900460ff16600160040160009054906101000a900473ffffffffffffffffffffffffffffffffffffffff16600160060160009054906101000a900473ffffffffffffffffffffffffffffffffffffffff166122cd565b90506001600a0154811061374e576001600a0154613750565b805b915050919050565b6137db846323b872dd60e01b85858560405160240161377993929190615095565b604051602081830303815290604052907bffffffffffffffffffffffffffffffffffffffffffffffffffffffff19166020820180517bffffffffffffffffffffffffffffffffffffffffffffffffffffffff83818316178352505050506135a7565b50505050565b600080600080600160130160009054906101000a900473ffffffffffffffffffffffffffffffffffffffff1673ffffffffffffffffffffffffffffffffffffffff1630604051602401613834919061507a565b6040516020818303038152906040527f465f5eb8000000000000000000000000000000000000000000000000000000007bffffffffffffffffffffffffffffffffffffffffffffffffffffffff19166020820180517bffffffffffffffffffffffffffffffffffffffffffffffffffffffff83818316178352505050506040516138be9190615063565b6000604051808303816000865af19150503d80600081146138fb576040519150601f19603f3d011682016040523d82523d6000602084013e613900565b606091505b5091509150811561392a578080602001905181019061391f9190613eb8565b935093505050613934565b6000809350935050505b9091565b60606139478484600085613950565b90509392505050565b606082471015613995576040517f08c379a000000000000000000000000000000000000000000000000000000000815260040161398c9061533c565b60405180910390fd5b61399e85613a64565b6139dd576040517f08c379a00000000000000000000000000000000000000000000000000000000081526004016139d4906154bc565b60405180910390fd5b6000808673ffffffffffffffffffffffffffffffffffffffff168587604051613a069190615063565b60006040518083038185875af1925050503d8060008114613a43576040519150601f19603f3d011682016040523d82523d6000602084013e613a48565b606091505b5091509150613a58828286613a77565b92505050949350505050565b600080823b905060008111915050919050565b60608315613a8757829050613ad7565b600083511115613a9a5782518084602001fd5b816040517f08c379a0000000000000000000000000000000000000000000000000000000008152600401613ace919061521c565b60405180910390fd5b9392505050565b604051806101c001604052806060815260200160608152602001600073ffffffffffffffffffffffffffffffffffffffff168152602001600073ffffffffffffffffffffffffffffffffffffffff16815260200160608152602001600073ffffffffffffffffffffffffffffffffffffffff168152602001600073ffffffffffffffffffffffffffffffffffffffff1681526020016000815260200160001515815260200160001515815260200160008152602001600060ff16815260200160008152602001600081525090565b6040518061036001604052806060815260200160608152602001600073ffffffffffffffffffffffffffffffffffffffff168152602001600073ffffffffffffffffffffffffffffffffffffffff168152602001600073ffffffffffffffffffffffffffffffffffffffff168152602001600073ffffffffffffffffffffffffffffffffffffffff168152602001600073ffffffffffffffffffffffffffffffffffffffff16815260200160008152602001600081526020016000815260200160008152602001600015158152602001600015158152602001600015158152602001600081526020016000815260200160008152602001600081526020016000815260200160608152602001600015158152602001600081526020016000815260200160008152602001600015158152602001600015158152602001600073ffffffffffffffffffffffffffffffffffffffff1681525090565b828054613d1290615a4b565b90600052602060002090601f016020900481019282613d345760008555613d7b565b82601f10613d4d57805160ff1916838001178555613d7b565b82800160010185558215613d7b579182015b82811115613d7a578251825591602001919060010190613d5f565b5b509050613d889190613d8c565b5090565b5b80821115613da5576000816000905550600101613d8d565b5090565b6000613dbc613db78461564c565b61561b565b905082815260208101848484011115613dd457600080fd5b613ddf848285615a09565b509392505050565b600081359050613df681615b57565b92915050565b600081519050613e0b81615b6e565b92915050565b600081519050613e2081615b85565b92915050565b600082601f830112613e3757600080fd5b8135613e47848260208601613da9565b91505092915050565b600081359050613e5f81615b9c565b92915050565b600081519050613e7481615b9c565b92915050565b600081519050613e8981615bb3565b92915050565b600060208284031215613ea157600080fd5b6000613eaf84828501613de7565b91505092915050565b60008060408385031215613ecb57600080fd5b6000613ed985828601613dfc565b9250506020613eea85828601613e65565b9150509250929050565b600080600060608486031215613f0957600080fd5b6000613f1786828701613de7565b9350506020613f2886828701613de7565b9250506040613f3986828701613e50565b9150509250925092565b600060208284031215613f5557600080fd5b6000613f6384828501613e11565b91505092915050565b600060208284031215613f7e57600080fd5b600082013567ffffffffffffffff811115613f9857600080fd5b613fa484828501613e26565b91505092915050565b600060208284031215613fbf57600080fd5b6000613fcd84828501613e50565b91505092915050565b600060208284031215613fe857600080fd5b6000613ff684828501613e65565b91505092915050565b60008060006060848603121561401457600080fd5b600061402286828701613e50565b935050602061403386828701613e50565b925050604061404486828701613e50565b9150509250925092565b60006020828403121561406057600080fd5b600061406e84828501613e7a565b91505092915050565b60006140838383614ff9565b905092915050565b6140948161597e565b82525050565b6140a38161597e565b82525050565b60006140b48261568c565b6140be81856156ba565b9350836020820285016140d08561567c565b8060005b8581101561410c57848403895281516140ed8582614077565b94506140f8836156ad565b925060208a019950506001810190506140d4565b50829750879550505050505092915050565b614127816159a2565b82525050565b614136816159a2565b82525050565b600061414782615697565b61415181856156cb565b9350614161818560208601615a18565b80840191505092915050565b614176816159e5565b82525050565b6000614187826156a2565b61419181856156d6565b93506141a1818560208601615a18565b6141aa81615b39565b840191505092915050565b60006141c0826156a2565b6141ca81856156e7565b93506141da818560208601615a18565b6141e381615b39565b840191505092915050565b60006141fb601c836156e7565b91507f4143664d616e616765723a204e6f20746f6b656e73206f776e65642e000000006000830152602082019050919050565b600061423b6032836156e7565b91507f43664d616e61676572536f667463617056657374696e673a204e6f20746f6b6560008301527f6e7320746f2062652072656c65617365642e00000000000000000000000000006020830152604082019050919050565b60006142a16032836156e7565b91507f43664d616e61676572536f667463617056657374696e673a20636c696666447560008301527f726174696f6e203c3d206475726174696f6e00000000000000000000000000006020830152604082019050919050565b60006143076027836156e7565b91507f4143664d616e616765723a20496e766573746d656e7420616d6f756e7420746f60008301527f6f20686967682e000000000000000000000000000000000000000000000000006020830152604082019050919050565b600061436d6026836156e7565b91507f4f776e61626c653a206e6577206f776e657220697320746865207a65726f206160008301527f64647265737300000000000000000000000000000000000000000000000000006020830152604082019050919050565b60006143d3604b836156e7565b91507f4143664d616e616765723a204f6e6c79207370656e6465722063616e2064656360008301527f69646520746f20626f6f6b2074686520696e766573746d656e74206f6e20736f60208301527f6d656f6e6520656c73652e0000000000000000000000000000000000000000006040830152606082019050919050565b600061445f6026836156e7565b91507f416464726573733a20696e73756666696369656e742062616c616e636520666f60008301527f722063616c6c00000000000000000000000000000000000000000000000000006020830152604082019050919050565b60006144c56025836156e7565b91507f43664d616e61676572536f667463617056657374696e673a206475726174696f60008301527f6e203e20300000000000000000000000000000000000000000000000000000006020830152604082019050919050565b600061452b6054836156e7565b91507f4143664d616e616765723a2043616e206f6e6c792066696e616c697a6520636160008301527f6d706169676e20696620746865206d696e696d756d2066756e64696e6720676f60208301527f616c20686173206265656e20726561636865642e0000000000000000000000006040830152606082019050919050565b60006145b76026836156e7565b91507f4143664d616e616765723a20496e766573746d656e7420616d6f756e7420746f60008301527f6f206c6f772e00000000000000000000000000000000000000000000000000006020830152604082019050919050565b600061461d603e836156e7565b91507f4143664d616e616765723a204e6f7420656e6f75676820746f6b656e73206c6560008301527f667420666f72207468697320696e766573746d656e7420616d6f756e742e00006020830152604082019050919050565b6000614683603c836156e7565b91507f4143664d616e616765723a206e6f7420656e6f75676820746f6b656e7320666f60008301527f722073616c6520746f2072656163682074686520736f66746361702e000000006020830152604082019050919050565b60006146e9602c836156e7565b91507f43664d616e61676572536f667463617056657374696e673a2056657374696e6760008301527f206e6f74207374617274656400000000000000000000000000000000000000006020830152604082019050919050565b600061474f603b836156e7565b91507f43664d616e61676572536f667463617056657374696e673a207374617274202b60008301527f206475726174696f6e203e20626c6f636b2e74696d657374616d7000000000006020830152604082019050919050565b60006147b56020836156e7565b91507f4f776e61626c653a2063616c6c6572206973206e6f7420746865206f776e65726000830152602082019050919050565b60006147f56046836156e7565b91507f43664d616e61676572536f667463617056657374696e673a2043616d7061696760008301527f6e2076657374696e6720636f6e66696775726174696f6e206e6f74207265766f60208301527f6361626c652e00000000000000000000000000000000000000000000000000006040830152606082019050919050565b60006148816023836156e7565b91507f4143664d616e616765723a2057616c6c6574206e6f742077686974656c69737460008301527f65642e00000000000000000000000000000000000000000000000000000000006020830152604082019050919050565b60006148e76026836156e7565b91507f4143664d616e616765723a205468652063616d706169676e2069732066696e6160008301527f6c697a65642e00000000000000000000000000000000000000000000000000006020830152604082019050919050565b600061494d601d836156e7565b91507f416464726573733a2063616c6c20746f206e6f6e2d636f6e74726163740000006000830152602082019050919050565b600061498d6037836156e7565b91507f4143664d616e616765723a20496e766573746d656e7420616d6f756e7420686160008301527f7320746f2062652067726561746572207468616e20302e0000000000000000006020830152604082019050919050565b60006149f36031836156e7565b91507f43664d616e61676572536f667463617056657374696e673a2056657374696e6760008301527f20616c726561647920737461727465642e0000000000000000000000000000006020830152604082019050919050565b6000614a59602b836156e7565b91507f4143664d616e616765723a205468652063616d706169676e206861732062656560008301527f6e2063616e63656c65642e0000000000000000000000000000000000000000006020830152604082019050919050565b6000614abf602a836156e7565b91507f5361666545524332303a204552433230206f7065726174696f6e20646964206e60008301527f6f742073756363656564000000000000000000000000000000000000000000006020830152604082019050919050565b6000614b25603a836156e7565b91507f43664d616e61676572536f667463617056657374696e673a2043616d7061696760008301527f6e2076657374696e6720616c7265616479207265766f6b65642e0000000000006020830152604082019050919050565b6000614b8b604a836156e7565b91507f4143664d616e616765723a2043616e206f6e6c792063616e63656c20666f722060008301527f736f6d656f6e65206966207468652063616d706169676e20686173206265656e60208301527f2063616e63656c65642e000000000000000000000000000000000000000000006040830152606082019050919050565b6000614c17602a836156e7565b91507f4143664d616e616765723a205468652063616d706169676e206973206e6f742060008301527f66696e616c697a65642e000000000000000000000000000000000000000000006020830152604082019050919050565b60006101c0830160008301518482036000860152614c8e828261417c565b91505060208301518482036020860152614ca8828261417c565b9150506040830151614cbd604086018261408b565b506060830151614cd0606086018261408b565b5060808301518482036080860152614ce8828261417c565b91505060a0830151614cfd60a086018261408b565b5060c0830151614d1060c086018261408b565b5060e0830151614d2360e0860182615036565b50610100830151614d3861010086018261411e565b50610120830151614d4d61012086018261411e565b50610140830151614d62610140860182615036565b50610160830151614d77610160860182615054565b50610180830151614d8c610180860182615036565b506101a0830151614da16101a0860182615036565b508091505092915050565b6000610360830160008301518482036000860152614dca828261417c565b91505060208301518482036020860152614de4828261417c565b9150506040830151614df9604086018261408b565b506060830151614e0c606086018261408b565b506080830151614e1f608086018261408b565b5060a0830151614e3260a086018261408b565b5060c0830151614e4560c086018261408b565b5060e0830151614e5860e0860182615036565b50610100830151614e6d610100860182615036565b50610120830151614e82610120860182615036565b50610140830151614e97610140860182615036565b50610160830151614eac61016086018261411e565b50610180830151614ec161018086018261411e565b506101a0830151614ed66101a086018261411e565b506101c0830151614eeb6101c0860182615036565b506101e0830151614f006101e0860182615036565b50610200830151614f15610200860182615036565b50610220830151614f2a610220860182615036565b50610240830151614f3f610240860182615036565b50610260830151848203610260860152614f59828261417c565b915050610280830151614f7061028086018261411e565b506102a0830151614f856102a0860182615036565b506102c0830151614f9a6102c0860182615036565b506102e0830151614faf6102e0860182615036565b50610300830151614fc461030086018261411e565b50610320830151614fd961032086018261411e565b50610340830151614fee61034086018261408b565b508091505092915050565b60006040830160008301518482036000860152615016828261417c565b915050602083015161502b6020860182615036565b508091505092915050565b61503f816159ce565b82525050565b61504e816159ce565b82525050565b61505d816159d8565b82525050565b600061506f828461413c565b915081905092915050565b600060208201905061508f600083018461409a565b92915050565b60006060820190506150aa600083018661409a565b6150b7602083018561409a565b6150c46040830184615045565b949350505050565b60006040820190506150e1600083018561409a565b6150ee6020830184615045565b9392505050565b600060608201905061510a600083018661409a565b6151176020830185615045565b6151246040830184615045565b949350505050565b6000608082019050615141600083018761409a565b61514e6020830186615045565b61515b6040830185615045565b6151686060830184615045565b95945050505050565b600060a082019050615186600083018861409a565b6151936020830187615045565b6151a06040830186615045565b6151ad6060830185615045565b6151ba6080830184615045565b9695505050505050565b600060208201905081810360008301526151de81846140a9565b905092915050565b60006020820190506151fb600083018461412d565b92915050565b6000602082019050615216600083018461416d565b92915050565b6000602082019050818103600083015261523681846141b5565b905092915050565b6000606082019050818103600083015261525881866141b5565b9050615267602083018561409a565b6152746040830184615045565b949350505050565b60006020820190508181036000830152615295816141ee565b9050919050565b600060208201905081810360008301526152b58161422e565b9050919050565b600060208201905081810360008301526152d581614294565b9050919050565b600060208201905081810360008301526152f5816142fa565b9050919050565b6000602082019050818103600083015261531581614360565b9050919050565b60006020820190508181036000830152615335816143c6565b9050919050565b6000602082019050818103600083015261535581614452565b9050919050565b60006020820190508181036000830152615375816144b8565b9050919050565b600060208201905081810360008301526153958161451e565b9050919050565b600060208201905081810360008301526153b5816145aa565b9050919050565b600060208201905081810360008301526153d581614610565b9050919050565b600060208201905081810360008301526153f581614676565b9050919050565b60006020820190508181036000830152615415816146dc565b9050919050565b6000602082019050818103600083015261543581614742565b9050919050565b60006020820190508181036000830152615455816147a8565b9050919050565b60006020820190508181036000830152615475816147e8565b9050919050565b6000602082019050818103600083015261549581614874565b9050919050565b600060208201905081810360008301526154b5816148da565b9050919050565b600060208201905081810360008301526154d581614940565b9050919050565b600060208201905081810360008301526154f581614980565b9050919050565b60006020820190508181036000830152615515816149e6565b9050919050565b6000602082019050818103600083015261553581614a4c565b9050919050565b6000602082019050818103600083015261555581614ab2565b9050919050565b6000602082019050818103600083015261557581614b18565b9050919050565b6000602082019050818103600083015261559581614b7e565b9050919050565b600060208201905081810360008301526155b581614c0a565b9050919050565b600060208201905081810360008301526155d68184614c70565b905092915050565b600060208201905081810360008301526155f88184614dac565b905092915050565b60006020820190506156156000830184615045565b92915050565b6000604051905081810181811067ffffffffffffffff8211171561564257615641615b0a565b5b8060405250919050565b600067ffffffffffffffff82111561566757615666615b0a565b5b601f19601f8301169050602081019050919050565b6000819050602082019050919050565b600081519050919050565b600081519050919050565b600081519050919050565b6000602082019050919050565b600082825260208201905092915050565b600081905092915050565b600082825260208201905092915050565b600082825260208201905092915050565b6000615703826159ce565b915061570e836159ce565b9250827fffffffffffffffffffffffffffffffffffffffffffffffffffffffffffffffff0382111561574357615742615a7d565b5b828201905092915050565b6000615759826159ce565b9150615764836159ce565b92508261577457615773615aac565b5b828204905092915050565b6000808291508390505b60018511156157c9578086048111156157a5576157a4615a7d565b5b60018516156157b45780820291505b80810290506157c285615b4a565b9450615789565b94509492505050565b60006157dd826159ce565b91506157e8836159d8565b92506158157fffffffffffffffffffffffffffffffffffffffffffffffffffffffffffffffff848461581d565b905092915050565b60008261582d57600190506158e9565b8161583b57600090506158e9565b8160018114615851576002811461585b5761588a565b60019150506158e9565b60ff84111561586d5761586c615a7d565b5b8360020a91508482111561588457615883615a7d565b5b506158e9565b5060208310610133831016604e8410600b84101617156158bf5782820a9050838111156158ba576158b9615a7d565b5b6158e9565b6158cc848484600161577f565b925090508184048111156158e3576158e2615a7d565b5b81810290505b9392505050565b60006158fb826159ce565b9150615906836159ce565b9250817fffffffffffffffffffffffffffffffffffffffffffffffffffffffffffffffff048311821515161561593f5761593e615a7d565b5b828202905092915050565b6000615955826159ce565b9150615960836159ce565b92508282101561597357615972615a7d565b5b828203905092915050565b6000615989826159ae565b9050919050565b600061599b826159ae565b9050919050565b60008115159050919050565b600073ffffffffffffffffffffffffffffffffffffffff82169050919050565b6000819050919050565b600060ff82169050919050565b60006159f0826159f7565b9050919050565b6000615a02826159ae565b9050919050565b82818337600083830152505050565b60005b83811015615a36578082015181840152602081019050615a1b565b83811115615a45576000848401525b50505050565b60006002820490506001821680615a6357607f821691505b60208210811415615a7757615a76615adb565b5b50919050565b7f4e487b7100000000000000000000000000000000000000000000000000000000600052601160045260246000fd5b7f4e487b7100000000000000000000000000000000000000000000000000000000600052601260045260246000fd5b7f4e487b7100000000000000000000000000000000000000000000000000000000600052602260045260246000fd5b7f4e487b7100000000000000000000000000000000000000000000000000000000600052604160045260246000fd5b6000601f19601f8301169050919050565b60008160011c9050919050565b615b608161597e565b8114615b6b57600080fd5b50565b615b7781615990565b8114615b8257600080fd5b50565b615b8e816159a2565b8114615b9957600080fd5b50565b615ba5816159ce565b8114615bb057600080fd5b50565b615bbc816159d8565b8114615bc757600080fd5b5056fea264697066735822122049b7270370fa396efeb70097a81a448857adf8b221db46f341a7503f0885a40664736f6c63430008000033",
  "linkReferences": {},
  "deployedLinkReferences": {}
}