{
  "_format": "hh-sol-artifact-1",
  "contractName": "VotingToken",
  "sourceName": "contracts/openzeppelin/erc20-votes-wrapper-permit/VotingToken.sol",
  "abi": [
    {
      "inputs": [
        {
          "internalType": "string",
          "name": "tokenName",
          "type": "string"
        },
        {
          "internalType": "string",
          "name": "tokenSymbol",
          "type": "string"
        },
        {
          "internalType": "contract IERC20",
          "name": "wrappedToken",
          "type": "address"
        }
      ],
      "stateMutability": "nonpayable",
      "type": "constructor"
    },
    {
      "anonymous": false,
      "inputs": [
        {
          "indexed": true,
          "internalType": "address",
          "name": "owner",
          "type": "address"
        },
        {
          "indexed": true,
          "internalType": "address",
          "name": "spender",
          "type": "address"
        },
        {
          "indexed": false,
          "internalType": "uint256",
          "name": "value",
          "type": "uint256"
        }
      ],
      "name": "Approval",
      "type": "event"
    },
    {
      "anonymous": false,
      "inputs": [
        {
          "indexed": true,
          "internalType": "address",
          "name": "delegator",
          "type": "address"
        },
        {
          "indexed": true,
          "internalType": "address",
          "name": "fromDelegate",
          "type": "address"
        },
        {
          "indexed": true,
          "internalType": "address",
          "name": "toDelegate",
          "type": "address"
        }
      ],
      "name": "DelegateChanged",
      "type": "event"
    },
    {
      "anonymous": false,
      "inputs": [
        {
          "indexed": true,
          "internalType": "address",
          "name": "delegate",
          "type": "address"
        },
        {
          "indexed": false,
          "internalType": "uint256",
          "name": "previousBalance",
          "type": "uint256"
        },
        {
          "indexed": false,
          "internalType": "uint256",
          "name": "newBalance",
          "type": "uint256"
        }
      ],
      "name": "DelegateVotesChanged",
      "type": "event"
    },
    {
      "anonymous": false,
      "inputs": [
        {
          "indexed": true,
          "internalType": "address",
          "name": "from",
          "type": "address"
        },
        {
          "indexed": true,
          "internalType": "address",
          "name": "to",
          "type": "address"
        },
        {
          "indexed": false,
          "internalType": "uint256",
          "name": "value",
          "type": "uint256"
        }
      ],
      "name": "Transfer",
      "type": "event"
    },
    {
      "inputs": [],
      "name": "DOMAIN_SEPARATOR",
      "outputs": [
        {
          "internalType": "bytes32",
          "name": "",
          "type": "bytes32"
        }
      ],
      "stateMutability": "view",
      "type": "function"
    },
    {
      "inputs": [
        {
          "internalType": "address",
          "name": "owner",
          "type": "address"
        },
        {
          "internalType": "address",
          "name": "spender",
          "type": "address"
        }
      ],
      "name": "allowance",
      "outputs": [
        {
          "internalType": "uint256",
          "name": "",
          "type": "uint256"
        }
      ],
      "stateMutability": "view",
      "type": "function"
    },
    {
      "inputs": [
        {
          "internalType": "address",
          "name": "spender",
          "type": "address"
        },
        {
          "internalType": "uint256",
          "name": "amount",
          "type": "uint256"
        }
      ],
      "name": "approve",
      "outputs": [
        {
          "internalType": "bool",
          "name": "",
          "type": "bool"
        }
      ],
      "stateMutability": "nonpayable",
      "type": "function"
    },
    {
      "inputs": [
        {
          "internalType": "address",
          "name": "account",
          "type": "address"
        }
      ],
      "name": "balanceOf",
      "outputs": [
        {
          "internalType": "uint256",
          "name": "",
          "type": "uint256"
        }
      ],
      "stateMutability": "view",
      "type": "function"
    },
    {
      "inputs": [
        {
          "internalType": "address",
          "name": "account",
          "type": "address"
        },
        {
          "internalType": "uint32",
          "name": "pos",
          "type": "uint32"
        }
      ],
      "name": "checkpoints",
      "outputs": [
        {
          "components": [
            {
              "internalType": "uint32",
              "name": "fromBlock",
              "type": "uint32"
            },
            {
              "internalType": "uint224",
              "name": "votes",
              "type": "uint224"
            }
          ],
          "internalType": "struct ERC20Votes.Checkpoint",
          "name": "",
          "type": "tuple"
        }
      ],
      "stateMutability": "view",
      "type": "function"
    },
    {
      "inputs": [],
      "name": "decimals",
      "outputs": [
        {
          "internalType": "uint8",
          "name": "",
          "type": "uint8"
        }
      ],
      "stateMutability": "view",
      "type": "function"
    },
    {
      "inputs": [
        {
          "internalType": "address",
          "name": "spender",
          "type": "address"
        },
        {
          "internalType": "uint256",
          "name": "subtractedValue",
          "type": "uint256"
        }
      ],
      "name": "decreaseAllowance",
      "outputs": [
        {
          "internalType": "bool",
          "name": "",
          "type": "bool"
        }
      ],
      "stateMutability": "nonpayable",
      "type": "function"
    },
    {
      "inputs": [
        {
          "internalType": "address",
          "name": "delegatee",
          "type": "address"
        }
      ],
      "name": "delegate",
      "outputs": [],
      "stateMutability": "nonpayable",
      "type": "function"
    },
    {
      "inputs": [
        {
          "internalType": "address",
          "name": "delegatee",
          "type": "address"
        },
        {
          "internalType": "uint256",
          "name": "nonce",
          "type": "uint256"
        },
        {
          "internalType": "uint256",
          "name": "expiry",
          "type": "uint256"
        },
        {
          "internalType": "uint8",
          "name": "v",
          "type": "uint8"
        },
        {
          "internalType": "bytes32",
          "name": "r",
          "type": "bytes32"
        },
        {
          "internalType": "bytes32",
          "name": "s",
          "type": "bytes32"
        }
      ],
      "name": "delegateBySig",
      "outputs": [],
      "stateMutability": "nonpayable",
      "type": "function"
    },
    {
      "inputs": [
        {
          "internalType": "address",
          "name": "account",
          "type": "address"
        }
      ],
      "name": "delegates",
      "outputs": [
        {
          "internalType": "address",
          "name": "",
          "type": "address"
        }
      ],
      "stateMutability": "view",
      "type": "function"
    },
    {
      "inputs": [
        {
          "internalType": "address",
          "name": "account",
          "type": "address"
        },
        {
          "internalType": "uint256",
          "name": "amount",
          "type": "uint256"
        }
      ],
      "name": "depositFor",
      "outputs": [
        {
          "internalType": "bool",
          "name": "",
          "type": "bool"
        }
      ],
      "stateMutability": "nonpayable",
      "type": "function"
    },
    {
      "inputs": [
        {
          "internalType": "uint256",
          "name": "blockNumber",
          "type": "uint256"
        }
      ],
      "name": "getPastTotalSupply",
      "outputs": [
        {
          "internalType": "uint256",
          "name": "",
          "type": "uint256"
        }
      ],
      "stateMutability": "view",
      "type": "function"
    },
    {
      "inputs": [
        {
          "internalType": "address",
          "name": "account",
          "type": "address"
        },
        {
          "internalType": "uint256",
          "name": "blockNumber",
          "type": "uint256"
        }
      ],
      "name": "getPastVotes",
      "outputs": [
        {
          "internalType": "uint256",
          "name": "",
          "type": "uint256"
        }
      ],
      "stateMutability": "view",
      "type": "function"
    },
    {
      "inputs": [
        {
          "internalType": "address",
          "name": "account",
          "type": "address"
        }
      ],
      "name": "getVotes",
      "outputs": [
        {
          "internalType": "uint256",
          "name": "",
          "type": "uint256"
        }
      ],
      "stateMutability": "view",
      "type": "function"
    },
    {
      "inputs": [
        {
          "internalType": "address",
          "name": "spender",
          "type": "address"
        },
        {
          "internalType": "uint256",
          "name": "addedValue",
          "type": "uint256"
        }
      ],
      "name": "increaseAllowance",
      "outputs": [
        {
          "internalType": "bool",
          "name": "",
          "type": "bool"
        }
      ],
      "stateMutability": "nonpayable",
      "type": "function"
    },
    {
      "inputs": [],
      "name": "name",
      "outputs": [
        {
          "internalType": "string",
          "name": "",
          "type": "string"
        }
      ],
      "stateMutability": "view",
      "type": "function"
    },
    {
      "inputs": [
        {
          "internalType": "address",
          "name": "owner",
          "type": "address"
        }
      ],
      "name": "nonces",
      "outputs": [
        {
          "internalType": "uint256",
          "name": "",
          "type": "uint256"
        }
      ],
      "stateMutability": "view",
      "type": "function"
    },
    {
      "inputs": [
        {
          "internalType": "address",
          "name": "account",
          "type": "address"
        }
      ],
      "name": "numCheckpoints",
      "outputs": [
        {
          "internalType": "uint32",
          "name": "",
          "type": "uint32"
        }
      ],
      "stateMutability": "view",
      "type": "function"
    },
    {
      "inputs": [
        {
          "internalType": "address",
          "name": "owner",
          "type": "address"
        },
        {
          "internalType": "address",
          "name": "spender",
          "type": "address"
        },
        {
          "internalType": "uint256",
          "name": "value",
          "type": "uint256"
        },
        {
          "internalType": "uint256",
          "name": "deadline",
          "type": "uint256"
        },
        {
          "internalType": "uint8",
          "name": "v",
          "type": "uint8"
        },
        {
          "internalType": "bytes32",
          "name": "r",
          "type": "bytes32"
        },
        {
          "internalType": "bytes32",
          "name": "s",
          "type": "bytes32"
        }
      ],
      "name": "permit",
      "outputs": [],
      "stateMutability": "nonpayable",
      "type": "function"
    },
    {
      "inputs": [],
      "name": "symbol",
      "outputs": [
        {
          "internalType": "string",
          "name": "",
          "type": "string"
        }
      ],
      "stateMutability": "view",
      "type": "function"
    },
    {
      "inputs": [],
      "name": "totalSupply",
      "outputs": [
        {
          "internalType": "uint256",
          "name": "",
          "type": "uint256"
        }
      ],
      "stateMutability": "view",
      "type": "function"
    },
    {
      "inputs": [
        {
          "internalType": "address",
          "name": "to",
          "type": "address"
        },
        {
          "internalType": "uint256",
          "name": "amount",
          "type": "uint256"
        }
      ],
      "name": "transfer",
      "outputs": [
        {
          "internalType": "bool",
          "name": "",
          "type": "bool"
        }
      ],
      "stateMutability": "nonpayable",
      "type": "function"
    },
    {
      "inputs": [
        {
          "internalType": "address",
          "name": "from",
          "type": "address"
        },
        {
          "internalType": "address",
          "name": "to",
          "type": "address"
        },
        {
          "internalType": "uint256",
          "name": "amount",
          "type": "uint256"
        }
      ],
      "name": "transferFrom",
      "outputs": [
        {
          "internalType": "bool",
          "name": "",
          "type": "bool"
        }
      ],
      "stateMutability": "nonpayable",
      "type": "function"
    },
    {
      "inputs": [],
      "name": "underlying",
      "outputs": [
        {
          "internalType": "contract IERC20",
          "name": "",
          "type": "address"
        }
      ],
      "stateMutability": "view",
      "type": "function"
    },
    {
      "inputs": [
        {
          "internalType": "address",
          "name": "account",
          "type": "address"
        },
        {
          "internalType": "uint256",
          "name": "amount",
          "type": "uint256"
        }
      ],
      "name": "withdrawTo",
      "outputs": [
        {
          "internalType": "bool",
          "name": "",
          "type": "bool"
        }
      ],
      "stateMutability": "nonpayable",
      "type": "function"
    }
  ],
  "bytecode": "0x6101606040523480156200001257600080fd5b5060405162004bd138038062004bd1833981810160405281019062000038919062000314565b8083806040518060400160405280600181526020017f3100000000000000000000000000000000000000000000000000000000000000815250868681600390805190602001906200008b929190620001db565b508060049080519060200190620000a4929190620001db565b50505060008280519060200120905060008280519060200120905060007f8b73c3c69bb8fe3d512ecc4cf759cc79239f7b179b0ffacaa9a75d522b39400f90508260e081815250508161010081815250504660a08181525050620001108184846200019f60201b60201c565b608081815250503073ffffffffffffffffffffffffffffffffffffffff1660c08173ffffffffffffffffffffffffffffffffffffffff1660601b815250508061012081815250505050505050508073ffffffffffffffffffffffffffffffffffffffff166101408173ffffffffffffffffffffffffffffffffffffffff1660601b815250505050505062000612565b60008383834630604051602001620001bc959493929190620003cf565b6040516020818303038152906040528051906020012090509392505050565b828054620001e9906200051d565b90600052602060002090601f0160209004810192826200020d576000855562000259565b82601f106200022857805160ff191683800117855562000259565b8280016001018555821562000259579182015b82811115620002585782518255916020019190600101906200023b565b5b5090506200026891906200026c565b5090565b5b80821115620002875760008160009055506001016200026d565b5090565b6000620002a26200029c8462000455565b6200042c565b905082815260208101848484011115620002bb57600080fd5b620002c8848285620004e7565b509392505050565b600081519050620002e181620005f8565b92915050565b600082601f830112620002f957600080fd5b81516200030b8482602086016200028b565b91505092915050565b6000806000606084860312156200032a57600080fd5b600084015167ffffffffffffffff8111156200034557600080fd5b6200035386828701620002e7565b935050602084015167ffffffffffffffff8111156200037157600080fd5b6200037f86828701620002e7565b92505060406200039286828701620002d0565b9150509250925092565b620003a7816200048b565b82525050565b620003b8816200049f565b82525050565b620003c981620004dd565b82525050565b600060a082019050620003e66000830188620003ad565b620003f56020830187620003ad565b620004046040830186620003ad565b620004136060830185620003be565b6200042260808301846200039c565b9695505050505050565b6000620004386200044b565b905062000446828262000553565b919050565b6000604051905090565b600067ffffffffffffffff821115620004735762000472620005b8565b5b6200047e82620005e7565b9050602081019050919050565b60006200049882620004bd565b9050919050565b6000819050919050565b6000620004b6826200048b565b9050919050565b600073ffffffffffffffffffffffffffffffffffffffff82169050919050565b6000819050919050565b60005b8381101562000507578082015181840152602081019050620004ea565b8381111562000517576000848401525b50505050565b600060028204905060018216806200053657607f821691505b602082108114156200054d576200054c62000589565b5b50919050565b6200055e82620005e7565b810181811067ffffffffffffffff8211171562000580576200057f620005b8565b5b80604052505050565b7f4e487b7100000000000000000000000000000000000000000000000000000000600052602260045260246000fd5b7f4e487b7100000000000000000000000000000000000000000000000000000000600052604160045260246000fd5b6000601f19601f8301169050919050565b6200060381620004a9565b81146200060f57600080fd5b50565b60805160a05160c05160601c60e05161010051610120516101405160601c6145496200068860003960008181610657015281816106bd0152818161086701526116400152600061179e015260006117e0015260006117bf015260006116f40152600061174a0152600061177301526145496000f3fe608060405234801561001057600080fd5b50600436106101735760003560e01c80636f307dc3116100de5780639ab24eb011610097578063c3cda52011610071578063c3cda520146104e8578063d505accf14610504578063dd62ed3e14610520578063f1127ed81461055057610173565b80639ab24eb014610458578063a457c2d714610488578063a9059cbb146104b857610173565b80636f307dc31461035c5780636fcfff451461037a57806370a08231146103aa5780637ecebe00146103da5780638e539e8c1461040a57806395d89b411461043a57610173565b8063313ce56711610130578063313ce567146102745780633644e5151461029257806339509351146102b05780633a46b1a8146102e0578063587cde1e146103105780635c19a95c1461034057610173565b806306fdde0314610178578063095ea7b31461019657806318160ddd146101c6578063205c2878146101e457806323b872dd146102145780632f4f21e214610244575b600080fd5b610180610580565b60405161018d919061378e565b60405180910390f35b6101b060048036038101906101ab9190612ef5565b610612565b6040516101bd91906135ff565b60405180910390f35b6101ce610635565b6040516101db9190613aeb565b60405180910390f35b6101fe60048036038101906101f99190612ef5565b61063f565b60405161020b91906135ff565b60405180910390f35b61022e60048036038101906102299190612e08565b610687565b60405161023b91906135ff565b60405180910390f35b61025e60048036038101906102599190612ef5565b6106b6565b60405161026b91906135ff565b60405180910390f35b61027c6106ff565b6040516102899190613b4a565b60405180910390f35b61029a61070e565b6040516102a7919061361a565b60405180910390f35b6102ca60048036038101906102c59190612ef5565b61071d565b6040516102d791906135ff565b60405180910390f35b6102fa60048036038101906102f59190612ef5565b610754565b6040516103079190613aeb565b60405180910390f35b61032a60048036038101906103259190612da3565b6107e8565b6040516103379190613584565b60405180910390f35b61035a60048036038101906103559190612da3565b610851565b005b610364610865565b6040516103719190613773565b60405180910390f35b610394600480360381019061038f9190612da3565b610889565b6040516103a19190613b2f565b60405180910390f35b6103c460048036038101906103bf9190612da3565b6108dd565b6040516103d19190613aeb565b60405180910390f35b6103f460048036038101906103ef9190612da3565b610925565b6040516104019190613aeb565b60405180910390f35b610424600480360381019061041f919061301f565b610975565b6040516104319190613aeb565b60405180910390f35b6104426109cb565b60405161044f919061378e565b60405180910390f35b610472600480360381019061046d9190612da3565b610a5d565b60405161047f9190613aeb565b60405180910390f35b6104a2600480360381019061049d9190612ef5565b610b94565b6040516104af91906135ff565b60405180910390f35b6104d260048036038101906104cd9190612ef5565b610c0b565b6040516104df91906135ff565b60405180910390f35b61050260048036038101906104fd9190612f31565b610c2e565b005b61051e60048036038101906105199190612e57565b610d32565b005b61053a60048036038101906105359190612dcc565b610e74565b6040516105479190613aeb565b60405180910390f35b61056a60048036038101906105659190612fba565b610efb565b6040516105779190613ad0565b60405180910390f35b60606003805461058f90613d4b565b80601f01602080910402602001604051908101604052809291908181526020018280546105bb90613d4b565b80156106085780601f106105dd57610100808354040283529160200191610608565b820191906000526020600020905b8154815290600101906020018083116105eb57829003601f168201915b5050505050905090565b60008061061d611031565b905061062a818585611039565b600191505092915050565b6000600254905090565b600061065261064c611031565b83611204565b61067d7f00000000000000000000000000000000000000000000000000000000000000008484611212565b6001905092915050565b600080610692611031565b905061069f858285611298565b6106aa858585611324565b60019150509392505050565b60006106eb7f00000000000000000000000000000000000000000000000000000000000000006106e4611031565b30856115a5565b6106f5838361162e565b6001905092915050565b600061070961163c565b905090565b60006107186116f0565b905090565b600080610728611031565b905061074981858561073a8589610e74565b6107449190613ba2565b611039565b600191505092915050565b6000438210610798576040517f08c379a000000000000000000000000000000000000000000000000000000000815260040161078f906137f0565b60405180910390fd5b6107e0600860008573ffffffffffffffffffffffffffffffffffffffff1673ffffffffffffffffffffffffffffffffffffffff1681526020019081526020016000208361180a565b905092915050565b6000600760008373ffffffffffffffffffffffffffffffffffffffff1673ffffffffffffffffffffffffffffffffffffffff16815260200190815260200160002060009054906101000a900473ffffffffffffffffffffffffffffffffffffffff169050919050565b61086261085c611031565b82611962565b50565b7f000000000000000000000000000000000000000000000000000000000000000081565b60006108d6600860008473ffffffffffffffffffffffffffffffffffffffff1673ffffffffffffffffffffffffffffffffffffffff16815260200190815260200160002080549050611a7c565b9050919050565b60008060008373ffffffffffffffffffffffffffffffffffffffff1673ffffffffffffffffffffffffffffffffffffffff168152602001908152602001600020549050919050565b600061096e600560008473ffffffffffffffffffffffffffffffffffffffff1673ffffffffffffffffffffffffffffffffffffffff168152602001908152602001600020611acf565b9050919050565b60004382106109b9576040517f08c379a00000000000000000000000000000000000000000000000000000000081526004016109b0906137f0565b60405180910390fd5b6109c460098361180a565b9050919050565b6060600480546109da90613d4b565b80601f0160208091040260200160405190810160405280929190818152602001828054610a0690613d4b565b8015610a535780601f10610a2857610100808354040283529160200191610a53565b820191906000526020600020905b815481529060010190602001808311610a3657829003601f168201915b5050505050905090565b600080600860008473ffffffffffffffffffffffffffffffffffffffff1673ffffffffffffffffffffffffffffffffffffffff16815260200190815260200160002080549050905060008114610b6b57600860008473ffffffffffffffffffffffffffffffffffffffff1673ffffffffffffffffffffffffffffffffffffffff168152602001908152602001600020600182610af99190613c29565b81548110610b30577f4e487b7100000000000000000000000000000000000000000000000000000000600052603260045260246000fd5b9060005260206000200160000160049054906101000a90047bffffffffffffffffffffffffffffffffffffffffffffffffffffffff16610b6e565b60005b7bffffffffffffffffffffffffffffffffffffffffffffffffffffffff16915050919050565b600080610b9f611031565b90506000610bad8286610e74565b905083811015610bf2576040517f08c379a0000000000000000000000000000000000000000000000000000000008152600401610be990613a90565b60405180910390fd5b610bff8286868403611039565b60019250505092915050565b600080610c16611031565b9050610c23818585611324565b600191505092915050565b83421115610c71576040517f08c379a0000000000000000000000000000000000000000000000000000000008152600401610c6890613810565b60405180910390fd5b6000610cd3610ccb7fe48329057bfd03d55e49b547132e39cffd9c1820ad7b9d4c5307691425d15adf898989604051602001610cb09493929190613696565b60405160208183030381529060405280519060200120611add565b858585611af7565b9050610cde81611b22565b8614610d1f576040517f08c379a0000000000000000000000000000000000000000000000000000000008152600401610d1690613870565b60405180910390fd5b610d298188611962565b50505050505050565b83421115610d75576040517f08c379a0000000000000000000000000000000000000000000000000000000008152600401610d6c906138d0565b60405180910390fd5b60007f6e71edae12b1b97f4d1f60370fef10105fa2faae0126114a169c64845d6126c9888888610da48c611b22565b89604051602001610dba96959493929190613635565b6040516020818303038152906040528051906020012090506000610ddd82611add565b90506000610ded82878787611af7565b90508973ffffffffffffffffffffffffffffffffffffffff168173ffffffffffffffffffffffffffffffffffffffff1614610e5d576040517f08c379a0000000000000000000000000000000000000000000000000000000008152600401610e5490613970565b60405180910390fd5b610e688a8a8a611039565b50505050505050505050565b6000600160008473ffffffffffffffffffffffffffffffffffffffff1673ffffffffffffffffffffffffffffffffffffffff16815260200190815260200160002060008373ffffffffffffffffffffffffffffffffffffffff1673ffffffffffffffffffffffffffffffffffffffff16815260200190815260200160002054905092915050565b610f03612cd2565b600860008473ffffffffffffffffffffffffffffffffffffffff1673ffffffffffffffffffffffffffffffffffffffff1681526020019081526020016000208263ffffffff1681548110610f80577f4e487b7100000000000000000000000000000000000000000000000000000000600052603260045260246000fd5b906000526020600020016040518060400160405290816000820160009054906101000a900463ffffffff1663ffffffff1663ffffffff1681526020016000820160049054906101000a90047bffffffffffffffffffffffffffffffffffffffffffffffffffffffff167bffffffffffffffffffffffffffffffffffffffffffffffffffffffff167bffffffffffffffffffffffffffffffffffffffffffffffffffffffff1681525050905092915050565b600033905090565b600073ffffffffffffffffffffffffffffffffffffffff168373ffffffffffffffffffffffffffffffffffffffff1614156110a9576040517f08c379a00000000000000000000000000000000000000000000000000000000081526004016110a090613a30565b60405180910390fd5b600073ffffffffffffffffffffffffffffffffffffffff168273ffffffffffffffffffffffffffffffffffffffff161415611119576040517f08c379a000000000000000000000000000000000000000000000000000000000815260040161111090613890565b60405180910390fd5b80600160008573ffffffffffffffffffffffffffffffffffffffff1673ffffffffffffffffffffffffffffffffffffffff16815260200190815260200160002060008473ffffffffffffffffffffffffffffffffffffffff1673ffffffffffffffffffffffffffffffffffffffff168152602001908152602001600020819055508173ffffffffffffffffffffffffffffffffffffffff168373ffffffffffffffffffffffffffffffffffffffff167f8c5be1e5ebec7d5bd14f71427d1e84f3dd0314c0f7b2291e5b200ac8c7c3b925836040516111f79190613aeb565b60405180910390a3505050565b61120e8282611b80565b5050565b6112938363a9059cbb60e01b84846040516024016112319291906135d6565b604051602081830303815290604052907bffffffffffffffffffffffffffffffffffffffffffffffffffffffff19166020820180517bffffffffffffffffffffffffffffffffffffffffffffffffffffffff8381831617835250505050611b9e565b505050565b60006112a48484610e74565b90507fffffffffffffffffffffffffffffffffffffffffffffffffffffffffffffffff811461131e5781811015611310576040517f08c379a0000000000000000000000000000000000000000000000000000000008152600401611307906138b0565b60405180910390fd5b61131d8484848403611039565b5b50505050565b600073ffffffffffffffffffffffffffffffffffffffff168373ffffffffffffffffffffffffffffffffffffffff161415611394576040517f08c379a000000000000000000000000000000000000000000000000000000000815260040161138b906139f0565b60405180910390fd5b600073ffffffffffffffffffffffffffffffffffffffff168273ffffffffffffffffffffffffffffffffffffffff161415611404576040517f08c379a00000000000000000000000000000000000000000000000000000000081526004016113fb906137d0565b60405180910390fd5b61140f838383611c65565b60008060008573ffffffffffffffffffffffffffffffffffffffff1673ffffffffffffffffffffffffffffffffffffffff16815260200190815260200160002054905081811015611495576040517f08c379a000000000000000000000000000000000000000000000000000000000815260040161148c906138f0565b60405180910390fd5b8181036000808673ffffffffffffffffffffffffffffffffffffffff1673ffffffffffffffffffffffffffffffffffffffff16815260200190815260200160002081905550816000808573ffffffffffffffffffffffffffffffffffffffff1673ffffffffffffffffffffffffffffffffffffffff16815260200190815260200160002060008282546115289190613ba2565b925050819055508273ffffffffffffffffffffffffffffffffffffffff168473ffffffffffffffffffffffffffffffffffffffff167fddf252ad1be2c89b69c2b068fc378daa952ba7f163c4a11628f55a4df523b3ef8460405161158c9190613aeb565b60405180910390a361159f848484611c6a565b50505050565b611628846323b872dd60e01b8585856040516024016115c69392919061359f565b604051602081830303815290604052907bffffffffffffffffffffffffffffffffffffffffffffffffffffffff19166020820180517bffffffffffffffffffffffffffffffffffffffffffffffffffffffff8381831617835250505050611b9e565b50505050565b6116388282611c7a565b5050565b60007f000000000000000000000000000000000000000000000000000000000000000073ffffffffffffffffffffffffffffffffffffffff1663313ce5676040518163ffffffff1660e01b815260040160206040518083038186803b1580156116a457600080fd5b505afa9250505080156116d557506040513d601f19601f820116820180604052508101906116d29190613048565b60015b6116e8576116e1611d07565b90506116ed565b809150505b90565b60007f000000000000000000000000000000000000000000000000000000000000000073ffffffffffffffffffffffffffffffffffffffff163073ffffffffffffffffffffffffffffffffffffffff1614801561176c57507f000000000000000000000000000000000000000000000000000000000000000046145b15611799577f00000000000000000000000000000000000000000000000000000000000000009050611807565b6118047f00000000000000000000000000000000000000000000000000000000000000007f00000000000000000000000000000000000000000000000000000000000000007f0000000000000000000000000000000000000000000000000000000000000000611d10565b90505b90565b6000808380549050905060005b818110156118af57600061182b8284611d4a565b905084868281548110611867577f4e487b7100000000000000000000000000000000000000000000000000000000600052603260045260246000fd5b9060005260206000200160000160009054906101000a900463ffffffff1663ffffffff161115611899578092506118a9565b6001816118a69190613ba2565b91505b50611817565b6000821461193757846001836118c59190613c29565b815481106118fc577f4e487b7100000000000000000000000000000000000000000000000000000000600052603260045260246000fd5b9060005260206000200160000160049054906101000a90047bffffffffffffffffffffffffffffffffffffffffffffffffffffffff1661193a565b60005b7bffffffffffffffffffffffffffffffffffffffffffffffffffffffff169250505092915050565b600061196d836107e8565b9050600061197a846108dd565b905082600760008673ffffffffffffffffffffffffffffffffffffffff1673ffffffffffffffffffffffffffffffffffffffff16815260200190815260200160002060006101000a81548173ffffffffffffffffffffffffffffffffffffffff021916908373ffffffffffffffffffffffffffffffffffffffff1602179055508273ffffffffffffffffffffffffffffffffffffffff168273ffffffffffffffffffffffffffffffffffffffff168573ffffffffffffffffffffffffffffffffffffffff167f3134e8a2e6d97e929a7e54011ea5485d7d196dd5f0ba4d4ef95803e8e3fc257f60405160405180910390a4611a76828483611d70565b50505050565b600063ffffffff8016821115611ac7576040517f08c379a0000000000000000000000000000000000000000000000000000000008152600401611abe90613a10565b60405180910390fd5b819050919050565b600081600001549050919050565b6000611af0611aea6116f0565b83611f69565b9050919050565b6000806000611b0887878787611f9c565b91509150611b15816120a9565b8192505050949350505050565b600080600560008473ffffffffffffffffffffffffffffffffffffffff1673ffffffffffffffffffffffffffffffffffffffff1681526020019081526020016000209050611b6f81611acf565b9150611b7a816123fa565b50919050565b611b8a8282612410565b611b9860096125e7836125fd565b50505050565b6000611c00826040518060400160405280602081526020017f5361666545524332303a206c6f772d6c6576656c2063616c6c206661696c65648152508573ffffffffffffffffffffffffffffffffffffffff166128e79092919063ffffffff16565b9050600081511115611c605780806020019051810190611c209190612ff6565b611c5f576040517f08c379a0000000000000000000000000000000000000000000000000000000008152600401611c5690613a70565b60405180910390fd5b5b505050565b505050565b611c758383836128ff565b505050565b611c84828261292a565b611c8c612a8a565b7bffffffffffffffffffffffffffffffffffffffffffffffffffffffff16611cb2610635565b1115611cf3576040517f08c379a0000000000000000000000000000000000000000000000000000000008152600401611cea90613990565b60405180910390fd5b611d016009612aae836125fd565b50505050565b60006012905090565b60008383834630604051602001611d2b9594939291906136db565b6040516020818303038152906040528051906020012090509392505050565b60006002828418611d5b9190613bf8565b828416611d689190613ba2565b905092915050565b8173ffffffffffffffffffffffffffffffffffffffff168373ffffffffffffffffffffffffffffffffffffffff1614158015611dac5750600081115b15611f6457600073ffffffffffffffffffffffffffffffffffffffff168373ffffffffffffffffffffffffffffffffffffffff1614611e8a57600080611e33600860008773ffffffffffffffffffffffffffffffffffffffff1673ffffffffffffffffffffffffffffffffffffffff1681526020019081526020016000206125e7856125fd565b915091508473ffffffffffffffffffffffffffffffffffffffff167fdec2bacdd2f05b59de34da9b523dff8be42e5e38e818c82fdb0bae774387a7248383604051611e7f929190613b06565b60405180910390a250505b600073ffffffffffffffffffffffffffffffffffffffff168273ffffffffffffffffffffffffffffffffffffffff1614611f6357600080611f0c600860008673ffffffffffffffffffffffffffffffffffffffff1673ffffffffffffffffffffffffffffffffffffffff168152602001908152602001600020612aae856125fd565b915091508373ffffffffffffffffffffffffffffffffffffffff167fdec2bacdd2f05b59de34da9b523dff8be42e5e38e818c82fdb0bae774387a7248383604051611f58929190613b06565b60405180910390a250505b5b505050565b60008282604051602001611f7e92919061354d565b60405160208183030381529060405280519060200120905092915050565b6000807f7fffffffffffffffffffffffffffffff5d576e7357a4501ddfe92f46681b20a08360001c1115611fd75760006003915091506120a0565b601b8560ff1614158015611fef5750601c8560ff1614155b156120015760006004915091506120a0565b600060018787878760405160008152602001604052604051612026949392919061372e565b6020604051602081039080840390855afa158015612048573d6000803e3d6000fd5b505050602060405103519050600073ffffffffffffffffffffffffffffffffffffffff168173ffffffffffffffffffffffffffffffffffffffff161415612097576000600192509250506120a0565b80600092509250505b94509492505050565b600060048111156120e3577f4e487b7100000000000000000000000000000000000000000000000000000000600052602160045260246000fd5b81600481111561211c577f4e487b7100000000000000000000000000000000000000000000000000000000600052602160045260246000fd5b1415612127576123f7565b60016004811115612161577f4e487b7100000000000000000000000000000000000000000000000000000000600052602160045260246000fd5b81600481111561219a577f4e487b7100000000000000000000000000000000000000000000000000000000600052602160045260246000fd5b14156121db576040517f08c379a00000000000000000000000000000000000000000000000000000000081526004016121d2906137b0565b60405180910390fd5b60026004811115612215577f4e487b7100000000000000000000000000000000000000000000000000000000600052602160045260246000fd5b81600481111561224e577f4e487b7100000000000000000000000000000000000000000000000000000000600052602160045260246000fd5b141561228f576040517f08c379a000000000000000000000000000000000000000000000000000000000815260040161228690613850565b60405180910390fd5b600360048111156122c9577f4e487b7100000000000000000000000000000000000000000000000000000000600052602160045260246000fd5b816004811115612302577f4e487b7100000000000000000000000000000000000000000000000000000000600052602160045260246000fd5b1415612343576040517f08c379a000000000000000000000000000000000000000000000000000000000815260040161233a90613910565b60405180910390fd5b60048081111561237c577f4e487b7100000000000000000000000000000000000000000000000000000000600052602160045260246000fd5b8160048111156123b5577f4e487b7100000000000000000000000000000000000000000000000000000000600052602160045260246000fd5b14156123f6576040517f08c379a00000000000000000000000000000000000000000000000000000000081526004016123ed90613950565b60405180910390fd5b5b50565b6001816000016000828254019250508190555050565b600073ffffffffffffffffffffffffffffffffffffffff168273ffffffffffffffffffffffffffffffffffffffff161415612480576040517f08c379a0000000000000000000000000000000000000000000000000000000008152600401612477906139d0565b60405180910390fd5b61248c82600083611c65565b60008060008473ffffffffffffffffffffffffffffffffffffffff1673ffffffffffffffffffffffffffffffffffffffff16815260200190815260200160002054905081811015612512576040517f08c379a000000000000000000000000000000000000000000000000000000000815260040161250990613830565b60405180910390fd5b8181036000808573ffffffffffffffffffffffffffffffffffffffff1673ffffffffffffffffffffffffffffffffffffffff1681526020019081526020016000208190555081600260008282546125699190613c29565b92505081905550600073ffffffffffffffffffffffffffffffffffffffff168373ffffffffffffffffffffffffffffffffffffffff167fddf252ad1be2c89b69c2b068fc378daa952ba7f163c4a11628f55a4df523b3ef846040516125ce9190613aeb565b60405180910390a36125e283600084611c6a565b505050565b600081836125f59190613c29565b905092915050565b60008060008580549050905060008114612691578560018261261f9190613c29565b81548110612656577f4e487b7100000000000000000000000000000000000000000000000000000000600052603260045260246000fd5b9060005260206000200160000160049054906101000a90047bffffffffffffffffffffffffffffffffffffffffffffffffffffffff16612694565b60005b7bffffffffffffffffffffffffffffffffffffffffffffffffffffffff1692506126c283858763ffffffff16565b915060008111801561273b575043866001836126de9190613c29565b81548110612715577f4e487b7100000000000000000000000000000000000000000000000000000000600052603260045260246000fd5b9060005260206000200160000160009054906101000a900463ffffffff1663ffffffff16145b156127ee5761274982612ac4565b866001836127579190613c29565b8154811061278e577f4e487b7100000000000000000000000000000000000000000000000000000000600052603260045260246000fd5b9060005260206000200160000160046101000a8154817bffffffffffffffffffffffffffffffffffffffffffffffffffffffff02191690837bffffffffffffffffffffffffffffffffffffffffffffffffffffffff1602179055506128de565b85604051806040016040528061280343611a7c565b63ffffffff16815260200161281785612ac4565b7bffffffffffffffffffffffffffffffffffffffffffffffffffffffff168152509080600181540180825580915050600190039060005260206000200160009091909190915060008201518160000160006101000a81548163ffffffff021916908363ffffffff16021790555060208201518160000160046101000a8154817bffffffffffffffffffffffffffffffffffffffffffffffffffffffff02191690837bffffffffffffffffffffffffffffffffffffffffffffffffffffffff16021790555050505b50935093915050565b60606128f68484600085612b2f565b90509392505050565b61290a838383612c43565b612925612916846107e8565b61291f846107e8565b83611d70565b505050565b600073ffffffffffffffffffffffffffffffffffffffff168273ffffffffffffffffffffffffffffffffffffffff16141561299a576040517f08c379a000000000000000000000000000000000000000000000000000000000815260040161299190613ab0565b60405180910390fd5b6129a660008383611c65565b80600260008282546129b89190613ba2565b92505081905550806000808473ffffffffffffffffffffffffffffffffffffffff1673ffffffffffffffffffffffffffffffffffffffff1681526020019081526020016000206000828254612a0d9190613ba2565b925050819055508173ffffffffffffffffffffffffffffffffffffffff16600073ffffffffffffffffffffffffffffffffffffffff167fddf252ad1be2c89b69c2b068fc378daa952ba7f163c4a11628f55a4df523b3ef83604051612a729190613aeb565b60405180910390a3612a8660008383611c6a565b5050565b60007bffffffffffffffffffffffffffffffffffffffffffffffffffffffff905090565b60008183612abc9190613ba2565b905092915050565b60007bffffffffffffffffffffffffffffffffffffffffffffffffffffffff8016821115612b27576040517f08c379a0000000000000000000000000000000000000000000000000000000008152600401612b1e906139b0565b60405180910390fd5b819050919050565b606082471015612b74576040517f08c379a0000000000000000000000000000000000000000000000000000000008152600401612b6b90613930565b60405180910390fd5b612b7d85612c48565b612bbc576040517f08c379a0000000000000000000000000000000000000000000000000000000008152600401612bb390613a50565b60405180910390fd5b6000808673ffffffffffffffffffffffffffffffffffffffff168587604051612be59190613536565b60006040518083038185875af1925050503d8060008114612c22576040519150601f19603f3d011682016040523d82523d6000602084013e612c27565b606091505b5091509150612c37828286612c6b565b92505050949350505050565b505050565b6000808273ffffffffffffffffffffffffffffffffffffffff163b119050919050565b60608315612c7b57829050612ccb565b600083511115612c8e5782518084602001fd5b816040517f08c379a0000000000000000000000000000000000000000000000000000000008152600401612cc2919061378e565b60405180910390fd5b9392505050565b6040518060400160405280600063ffffffff16815260200160007bffffffffffffffffffffffffffffffffffffffffffffffffffffffff1681525090565b600081359050612d1f81614489565b92915050565b600081519050612d34816144a0565b92915050565b600081359050612d49816144b7565b92915050565b600081359050612d5e816144ce565b92915050565b600081359050612d73816144e5565b92915050565b600081359050612d88816144fc565b92915050565b600081519050612d9d816144fc565b92915050565b600060208284031215612db557600080fd5b6000612dc384828501612d10565b91505092915050565b60008060408385031215612ddf57600080fd5b6000612ded85828601612d10565b9250506020612dfe85828601612d10565b9150509250929050565b600080600060608486031215612e1d57600080fd5b6000612e2b86828701612d10565b9350506020612e3c86828701612d10565b9250506040612e4d86828701612d4f565b9150509250925092565b600080600080600080600060e0888a031215612e7257600080fd5b6000612e808a828b01612d10565b9750506020612e918a828b01612d10565b9650506040612ea28a828b01612d4f565b9550506060612eb38a828b01612d4f565b9450506080612ec48a828b01612d79565b93505060a0612ed58a828b01612d3a565b92505060c0612ee68a828b01612d3a565b91505092959891949750929550565b60008060408385031215612f0857600080fd5b6000612f1685828601612d10565b9250506020612f2785828601612d4f565b9150509250929050565b60008060008060008060c08789031215612f4a57600080fd5b6000612f5889828a01612d10565b9650506020612f6989828a01612d4f565b9550506040612f7a89828a01612d4f565b9450506060612f8b89828a01612d79565b9350506080612f9c89828a01612d3a565b92505060a0612fad89828a01612d3a565b9150509295509295509295565b60008060408385031215612fcd57600080fd5b6000612fdb85828601612d10565b9250506020612fec85828601612d64565b9150509250929050565b60006020828403121561300857600080fd5b600061301684828501612d25565b91505092915050565b60006020828403121561303157600080fd5b600061303f84828501612d4f565b91505092915050565b60006020828403121561305a57600080fd5b600061306884828501612d8e565b91505092915050565b61307a81613c5d565b82525050565b61308981613c6f565b82525050565b61309881613c7b565b82525050565b6130af6130aa82613c7b565b613d7d565b82525050565b60006130c082613b65565b6130ca8185613b7b565b93506130da818560208601613d18565b80840191505092915050565b6130ef81613cf4565b82525050565b600061310082613b70565b61310a8185613b86565b935061311a818560208601613d18565b61312381613e14565b840191505092915050565b600061313b601883613b86565b915061314682613e25565b602082019050919050565b600061315e602383613b86565b915061316982613e4e565b604082019050919050565b6000613181601f83613b86565b915061318c82613e9d565b602082019050919050565b60006131a4601d83613b86565b91506131af82613ec6565b602082019050919050565b60006131c7602283613b86565b91506131d282613eef565b604082019050919050565b60006131ea601f83613b86565b91506131f582613f3e565b602082019050919050565b600061320d601983613b86565b915061321882613f67565b602082019050919050565b6000613230602283613b86565b915061323b82613f90565b604082019050919050565b6000613253600283613b97565b915061325e82613fdf565b600282019050919050565b6000613276601d83613b86565b915061328182614008565b602082019050919050565b6000613299601d83613b86565b91506132a482614031565b602082019050919050565b60006132bc602683613b86565b91506132c78261405a565b604082019050919050565b60006132df602283613b86565b91506132ea826140a9565b604082019050919050565b6000613302602683613b86565b915061330d826140f8565b604082019050919050565b6000613325602283613b86565b915061333082614147565b604082019050919050565b6000613348601e83613b86565b915061335382614196565b602082019050919050565b600061336b603083613b86565b9150613376826141bf565b604082019050919050565b600061338e602783613b86565b91506133998261420e565b604082019050919050565b60006133b1602183613b86565b91506133bc8261425d565b604082019050919050565b60006133d4602583613b86565b91506133df826142ac565b604082019050919050565b60006133f7602683613b86565b9150613402826142fb565b604082019050919050565b600061341a602483613b86565b91506134258261434a565b604082019050919050565b600061343d601d83613b86565b915061344882614399565b602082019050919050565b6000613460602a83613b86565b915061346b826143c2565b604082019050919050565b6000613483602583613b86565b915061348e82614411565b604082019050919050565b60006134a6601f83613b86565b91506134b182614460565b602082019050919050565b6040820160008201516134d26000850182613509565b5060208201516134e560208501826134eb565b50505050565b6134f481613ca5565b82525050565b61350381613ccd565b82525050565b61351281613cd7565b82525050565b61352181613cd7565b82525050565b61353081613ce7565b82525050565b600061354282846130b5565b915081905092915050565b600061355882613246565b9150613564828561309e565b602082019150613574828461309e565b6020820191508190509392505050565b60006020820190506135996000830184613071565b92915050565b60006060820190506135b46000830186613071565b6135c16020830185613071565b6135ce60408301846134fa565b949350505050565b60006040820190506135eb6000830185613071565b6135f860208301846134fa565b9392505050565b60006020820190506136146000830184613080565b92915050565b600060208201905061362f600083018461308f565b92915050565b600060c08201905061364a600083018961308f565b6136576020830188613071565b6136646040830187613071565b61367160608301866134fa565b61367e60808301856134fa565b61368b60a08301846134fa565b979650505050505050565b60006080820190506136ab600083018761308f565b6136b86020830186613071565b6136c560408301856134fa565b6136d260608301846134fa565b95945050505050565b600060a0820190506136f0600083018861308f565b6136fd602083018761308f565b61370a604083018661308f565b61371760608301856134fa565b6137246080830184613071565b9695505050505050565b6000608082019050613743600083018761308f565b6137506020830186613527565b61375d604083018561308f565b61376a606083018461308f565b95945050505050565b600060208201905061378860008301846130e6565b92915050565b600060208201905081810360008301526137a881846130f5565b905092915050565b600060208201905081810360008301526137c98161312e565b9050919050565b600060208201905081810360008301526137e981613151565b9050919050565b6000602082019050818103600083015261380981613174565b9050919050565b6000602082019050818103600083015261382981613197565b9050919050565b60006020820190508181036000830152613849816131ba565b9050919050565b60006020820190508181036000830152613869816131dd565b9050919050565b6000602082019050818103600083015261388981613200565b9050919050565b600060208201905081810360008301526138a981613223565b9050919050565b600060208201905081810360008301526138c981613269565b9050919050565b600060208201905081810360008301526138e98161328c565b9050919050565b60006020820190508181036000830152613909816132af565b9050919050565b60006020820190508181036000830152613929816132d2565b9050919050565b60006020820190508181036000830152613949816132f5565b9050919050565b6000602082019050818103600083015261396981613318565b9050919050565b600060208201905081810360008301526139898161333b565b9050919050565b600060208201905081810360008301526139a98161335e565b9050919050565b600060208201905081810360008301526139c981613381565b9050919050565b600060208201905081810360008301526139e9816133a4565b9050919050565b60006020820190508181036000830152613a09816133c7565b9050919050565b60006020820190508181036000830152613a29816133ea565b9050919050565b60006020820190508181036000830152613a498161340d565b9050919050565b60006020820190508181036000830152613a6981613430565b9050919050565b60006020820190508181036000830152613a8981613453565b9050919050565b60006020820190508181036000830152613aa981613476565b9050919050565b60006020820190508181036000830152613ac981613499565b9050919050565b6000604082019050613ae560008301846134bc565b92915050565b6000602082019050613b0060008301846134fa565b92915050565b6000604082019050613b1b60008301856134fa565b613b2860208301846134fa565b9392505050565b6000602082019050613b446000830184613518565b92915050565b6000602082019050613b5f6000830184613527565b92915050565b600081519050919050565b600081519050919050565b600081905092915050565b600082825260208201905092915050565b600081905092915050565b6000613bad82613ccd565b9150613bb883613ccd565b9250827fffffffffffffffffffffffffffffffffffffffffffffffffffffffffffffffff03821115613bed57613bec613d87565b5b828201905092915050565b6000613c0382613ccd565b9150613c0e83613ccd565b925082613c1e57613c1d613db6565b5b828204905092915050565b6000613c3482613ccd565b9150613c3f83613ccd565b925082821015613c5257613c51613d87565b5b828203905092915050565b6000613c6882613c85565b9050919050565b60008115159050919050565b6000819050919050565b600073ffffffffffffffffffffffffffffffffffffffff82169050919050565b60007bffffffffffffffffffffffffffffffffffffffffffffffffffffffff82169050919050565b6000819050919050565b600063ffffffff82169050919050565b600060ff82169050919050565b6000613cff82613d06565b9050919050565b6000613d1182613c85565b9050919050565b60005b83811015613d36578082015181840152602081019050613d1b565b83811115613d45576000848401525b50505050565b60006002820490506001821680613d6357607f821691505b60208210811415613d7757613d76613de5565b5b50919050565b6000819050919050565b7f4e487b7100000000000000000000000000000000000000000000000000000000600052601160045260246000fd5b7f4e487b7100000000000000000000000000000000000000000000000000000000600052601260045260246000fd5b7f4e487b7100000000000000000000000000000000000000000000000000000000600052602260045260246000fd5b6000601f19601f8301169050919050565b7f45434453413a20696e76616c6964207369676e61747572650000000000000000600082015250565b7f45524332303a207472616e7366657220746f20746865207a65726f206164647260008201527f6573730000000000000000000000000000000000000000000000000000000000602082015250565b7f4552433230566f7465733a20626c6f636b206e6f7420796574206d696e656400600082015250565b7f4552433230566f7465733a207369676e61747572652065787069726564000000600082015250565b7f45524332303a206275726e20616d6f756e7420657863656564732062616c616e60008201527f6365000000000000000000000000000000000000000000000000000000000000602082015250565b7f45434453413a20696e76616c6964207369676e6174757265206c656e67746800600082015250565b7f4552433230566f7465733a20696e76616c6964206e6f6e636500000000000000600082015250565b7f45524332303a20617070726f766520746f20746865207a65726f20616464726560008201527f7373000000000000000000000000000000000000000000000000000000000000602082015250565b7f1901000000000000000000000000000000000000000000000000000000000000600082015250565b7f45524332303a20696e73756666696369656e7420616c6c6f77616e6365000000600082015250565b7f45524332305065726d69743a206578706972656420646561646c696e65000000600082015250565b7f45524332303a207472616e7366657220616d6f756e742065786365656473206260008201527f616c616e63650000000000000000000000000000000000000000000000000000602082015250565b7f45434453413a20696e76616c6964207369676e6174757265202773272076616c60008201527f7565000000000000000000000000000000000000000000000000000000000000602082015250565b7f416464726573733a20696e73756666696369656e742062616c616e636520666f60008201527f722063616c6c0000000000000000000000000000000000000000000000000000602082015250565b7f45434453413a20696e76616c6964207369676e6174757265202776272076616c60008201527f7565000000000000000000000000000000000000000000000000000000000000602082015250565b7f45524332305065726d69743a20696e76616c6964207369676e61747572650000600082015250565b7f4552433230566f7465733a20746f74616c20737570706c79207269736b73206f60008201527f766572666c6f77696e6720766f74657300000000000000000000000000000000602082015250565b7f53616665436173743a2076616c756520646f65736e27742066697420696e203260008201527f3234206269747300000000000000000000000000000000000000000000000000602082015250565b7f45524332303a206275726e2066726f6d20746865207a65726f2061646472657360008201527f7300000000000000000000000000000000000000000000000000000000000000602082015250565b7f45524332303a207472616e736665722066726f6d20746865207a65726f20616460008201527f6472657373000000000000000000000000000000000000000000000000000000602082015250565b7f53616665436173743a2076616c756520646f65736e27742066697420696e203360008201527f3220626974730000000000000000000000000000000000000000000000000000602082015250565b7f45524332303a20617070726f76652066726f6d20746865207a65726f2061646460008201527f7265737300000000000000000000000000000000000000000000000000000000602082015250565b7f416464726573733a2063616c6c20746f206e6f6e2d636f6e7472616374000000600082015250565b7f5361666545524332303a204552433230206f7065726174696f6e20646964206e60008201527f6f74207375636365656400000000000000000000000000000000000000000000602082015250565b7f45524332303a2064656372656173656420616c6c6f77616e63652062656c6f7760008201527f207a65726f000000000000000000000000000000000000000000000000000000602082015250565b7f45524332303a206d696e7420746f20746865207a65726f206164647265737300600082015250565b61449281613c5d565b811461449d57600080fd5b50565b6144a981613c6f565b81146144b457600080fd5b50565b6144c081613c7b565b81146144cb57600080fd5b50565b6144d781613ccd565b81146144e257600080fd5b50565b6144ee81613cd7565b81146144f957600080fd5b50565b61450581613ce7565b811461451057600080fd5b5056fea2646970667358221220fee6d531da701d5d56e5f6bb11b2c97a8aefc0af3be43a8a429ad6fac424b0cc64736f6c63430008040033",
  "linkReferences": {},
  "deployedLinkReferences": {}
}