{
  "_format": "hh-sol-artifact-1",
  "contractName": "Rewarder",
  "sourceName": "contracts/dev3/rewarder/Rewarder.sol",
  "abi": [
    {
      "inputs": [
        {
          "internalType": "address",
          "name": "owner",
          "type": "address"
        }
      ],
      "stateMutability": "nonpayable",
      "type": "constructor"
    },
    {
      "anonymous": false,
      "inputs": [
        {
          "indexed": false,
          "internalType": "bytes32",
          "name": "secretHash",
          "type": "bytes32"
        }
      ],
      "name": "AddReward",
      "type": "event"
    },
    {
      "anonymous": false,
      "inputs": [
        {
          "indexed": false,
          "internalType": "address",
          "name": "wallet",
          "type": "address"
        },
        {
          "indexed": false,
          "internalType": "bytes32",
          "name": "secretHash",
          "type": "bytes32"
        }
      ],
      "name": "ClaimReward",
      "type": "event"
    },
    {
      "anonymous": false,
      "inputs": [
        {
          "indexed": false,
          "internalType": "uint256",
          "name": "amount",
          "type": "uint256"
        }
      ],
      "name": "Drain",
      "type": "event"
    },
    {
      "anonymous": false,
      "inputs": [
        {
          "indexed": false,
          "internalType": "address",
          "name": "token",
          "type": "address"
        },
        {
          "indexed": false,
          "internalType": "uint256",
          "name": "amount",
          "type": "uint256"
        }
      ],
      "name": "DrainToken",
      "type": "event"
    },
    {
      "anonymous": false,
      "inputs": [
        {
          "indexed": true,
          "internalType": "address",
          "name": "previousOwner",
          "type": "address"
        },
        {
          "indexed": true,
          "internalType": "address",
          "name": "newOwner",
          "type": "address"
        }
      ],
      "name": "OwnershipTransferred",
      "type": "event"
    },
    {
      "inputs": [
        {
          "components": [
            {
              "internalType": "bytes32",
              "name": "secretHash",
              "type": "bytes32"
            },
            {
              "internalType": "address",
              "name": "token",
              "type": "address"
            },
            {
              "internalType": "uint256",
              "name": "amount",
              "type": "uint256"
            },
            {
              "internalType": "uint256",
              "name": "nativeAmount",
              "type": "uint256"
            },
            {
              "internalType": "uint256",
              "name": "expiresAt",
              "type": "uint256"
            }
          ],
          "internalType": "struct Rewarder.Reward[]",
          "name": "_rewards",
          "type": "tuple[]"
        }
      ],
      "name": "addRewards",
      "outputs": [],
      "stateMutability": "nonpayable",
      "type": "function"
    },
    {
      "inputs": [
        {
          "internalType": "string",
          "name": "key",
          "type": "string"
        }
      ],
      "name": "claimReward",
      "outputs": [],
      "stateMutability": "nonpayable",
      "type": "function"
    },
    {
      "inputs": [],
      "name": "drain",
      "outputs": [],
      "stateMutability": "nonpayable",
      "type": "function"
    },
    {
      "inputs": [
        {
          "internalType": "address",
          "name": "tokenAddress",
          "type": "address"
        }
      ],
      "name": "drain",
      "outputs": [],
      "stateMutability": "nonpayable",
      "type": "function"
    },
    {
      "inputs": [],
      "name": "owner",
      "outputs": [
        {
          "internalType": "address",
          "name": "",
          "type": "address"
        }
      ],
      "stateMutability": "view",
      "type": "function"
    },
    {
      "inputs": [],
      "name": "renounceOwnership",
      "outputs": [],
      "stateMutability": "nonpayable",
      "type": "function"
    },
    {
      "inputs": [
        {
          "internalType": "address",
          "name": "newOwner",
          "type": "address"
        }
      ],
      "name": "transferOwnership",
      "outputs": [],
      "stateMutability": "nonpayable",
      "type": "function"
    }
  ],
  "bytecode": "0x60806040523480156200001157600080fd5b506040516200171438038062001714833981810160405281019062000037919062000152565b620000576200004b6200006f60201b60201c565b6200007760201b60201c565b62000068816200007760201b60201c565b50620001cc565b600033905090565b60008060009054906101000a900473ffffffffffffffffffffffffffffffffffffffff169050816000806101000a81548173ffffffffffffffffffffffffffffffffffffffff021916908373ffffffffffffffffffffffffffffffffffffffff1602179055508173ffffffffffffffffffffffffffffffffffffffff168173ffffffffffffffffffffffffffffffffffffffff167f8be0079c531659141344cd1fd0a4f28419497f9722a3daafe3b4186f6b6457e060405160405180910390a35050565b6000815190506200014c81620001b2565b92915050565b6000602082840312156200016557600080fd5b600062000175848285016200013b565b91505092915050565b60006200018b8262000192565b9050919050565b600073ffffffffffffffffffffffffffffffffffffffff82169050919050565b620001bd816200017e565b8114620001c957600080fd5b50565b61153880620001dc6000396000f3fe6080604052600436106100745760003560e01c80639890220b1161004e5780639890220b146100eb578063bb8c979714610102578063ece531321461012b578063f2fde38b146101545761007b565b8063715018a6146100805780638b5373f9146100975780638da5cb5b146100c05761007b565b3661007b57005b600080fd5b34801561008c57600080fd5b5061009561017d565b005b3480156100a357600080fd5b506100be60048036038101906100b99190610e46565b610205565b005b3480156100cc57600080fd5b506100d5610429565b6040516100e29190611143565b60405180910390f35b3480156100f757600080fd5b50610100610452565b005b34801561010e57600080fd5b5061012960048036038101906101249190610eb0565b61055e565b005b34801561013757600080fd5b50610152600480360381019061014d9190610e1d565b610886565b005b34801561016057600080fd5b5061017b60048036038101906101769190610e1d565b610a6a565b005b610185610b62565b73ffffffffffffffffffffffffffffffffffffffff166101a3610429565b73ffffffffffffffffffffffffffffffffffffffff16146101f9576040517f08c379a00000000000000000000000000000000000000000000000000000000081526004016101f09061122b565b60405180910390fd5b6102036000610b6a565b565b61020d610b62565b73ffffffffffffffffffffffffffffffffffffffff1661022b610429565b73ffffffffffffffffffffffffffffffffffffffff1614610281576040517f08c379a00000000000000000000000000000000000000000000000000000000081526004016102789061122b565b60405180910390fd5b60005b8151811015610425578181815181106102c6577f4e487b7100000000000000000000000000000000000000000000000000000000600052603260045260246000fd5b60200260200101516001600084848151811061030b577f4e487b7100000000000000000000000000000000000000000000000000000000600052603260045260246000fd5b60200260200101516000015181526020019081526020016000206000820151816000015560208201518160010160006101000a81548173ffffffffffffffffffffffffffffffffffffffff021916908373ffffffffffffffffffffffffffffffffffffffff1602179055506040820151816002015560608201518160030155608082015181600401559050507f629ea08d76ff1e0d87ea95720bd111dd169a3a956e1cd7646a4ed07289ae482c8282815181106103f1577f4e487b7100000000000000000000000000000000000000000000000000000000600052603260045260246000fd5b60200260200101516000015160405161040a91906111b0565b60405180910390a1808061041d906113ce565b915050610284565b5050565b60008060009054906101000a900473ffffffffffffffffffffffffffffffffffffffff16905090565b61045a610b62565b73ffffffffffffffffffffffffffffffffffffffff16610478610429565b73ffffffffffffffffffffffffffffffffffffffff16146104ce576040517f08c379a00000000000000000000000000000000000000000000000000000000081526004016104c59061122b565b60405180910390fd5b6000479050600081111561055b573373ffffffffffffffffffffffffffffffffffffffff166108fc829081150290604051600060405180830381858888f19350505050158015610522573d6000803e3d6000fd5b507f7f36875e1aa63a260a86253b4178fbeb52d1d36819b47a29d15ec2a259e49efa81604051610552919061126b565b60405180910390a15b50565b6000308260405160200161057392919061111b565b60405160208183030381529060405290506000818051906020012090506000600160008381526020019081526020016000206040518060a0016040529081600082015481526020016001820160009054906101000a900473ffffffffffffffffffffffffffffffffffffffff1673ffffffffffffffffffffffffffffffffffffffff1673ffffffffffffffffffffffffffffffffffffffff1681526020016002820154815260200160038201548152602001600482015481525050905081816000015114610676576040517f08c379a000000000000000000000000000000000000000000000000000000000815260040161066d9061124b565b60405180910390fd5b6002600083815260200190815260200160002060009054906101000a900460ff16156106d7576040517f08c379a00000000000000000000000000000000000000000000000000000000081526004016106ce9061120b565b60405180910390fd5b806080015142111561071e576040517f08c379a0000000000000000000000000000000000000000000000000000000008152600401610715906111eb565b60405180910390fd5b60016002600084815260200190815260200160002060006101000a81548160ff0219169083151502179055506000816040015111156107ee57806020015173ffffffffffffffffffffffffffffffffffffffff1663a9059cbb3383604001516040518363ffffffff1660e01b815260040161079a929190611187565b602060405180830381600087803b1580156107b457600080fd5b505af11580156107c8573d6000803e3d6000fd5b505050506040513d601f19601f820116820180604052508101906107ec9190610e87565b505b600081606001511115610847573373ffffffffffffffffffffffffffffffffffffffff166108fc82606001519081150290604051600060405180830381858888f19350505050158015610845573d6000803e3d6000fd5b505b7f4da6997135913dddcbfb2193077c01652806ff6fc265328a2ce57d006e78cbd8338360405161087892919061115e565b60405180910390a150505050565b61088e610b62565b73ffffffffffffffffffffffffffffffffffffffff166108ac610429565b73ffffffffffffffffffffffffffffffffffffffff1614610902576040517f08c379a00000000000000000000000000000000000000000000000000000000081526004016108f99061122b565b60405180910390fd5b600081905060008173ffffffffffffffffffffffffffffffffffffffff166370a08231306040518263ffffffff1660e01b81526004016109429190611143565b60206040518083038186803b15801561095a57600080fd5b505afa15801561096e573d6000803e3d6000fd5b505050506040513d601f19601f820116820180604052508101906109929190610ef1565b90506000811115610a65578173ffffffffffffffffffffffffffffffffffffffff1663a9059cbb33836040518363ffffffff1660e01b81526004016109d8929190611187565b602060405180830381600087803b1580156109f257600080fd5b505af1158015610a06573d6000803e3d6000fd5b505050506040513d601f19601f82011682018060405250810190610a2a9190610e87565b507fac6572a44b29fc3e82672a2d68efd9bd694204ee2274bc37ee5c4cebcf3fa1ef8382604051610a5c929190611187565b60405180910390a15b505050565b610a72610b62565b73ffffffffffffffffffffffffffffffffffffffff16610a90610429565b73ffffffffffffffffffffffffffffffffffffffff1614610ae6576040517f08c379a0000000000000000000000000000000000000000000000000000000008152600401610add9061122b565b60405180910390fd5b600073ffffffffffffffffffffffffffffffffffffffff168173ffffffffffffffffffffffffffffffffffffffff161415610b56576040517f08c379a0000000000000000000000000000000000000000000000000000000008152600401610b4d906111cb565b60405180910390fd5b610b5f81610b6a565b50565b600033905090565b60008060009054906101000a900473ffffffffffffffffffffffffffffffffffffffff169050816000806101000a81548173ffffffffffffffffffffffffffffffffffffffff021916908373ffffffffffffffffffffffffffffffffffffffff1602179055508173ffffffffffffffffffffffffffffffffffffffff168173ffffffffffffffffffffffffffffffffffffffff167f8be0079c531659141344cd1fd0a4f28419497f9722a3daafe3b4186f6b6457e060405160405180910390a35050565b6000610c41610c3c846112b7565b611286565b905080838252602082019050828560a0860282011115610c6057600080fd5b60005b85811015610c905781610c768882610d6b565b845260208401935060a08301925050600181019050610c63565b5050509392505050565b6000610cad610ca8846112e3565b611286565b905082815260208101848484011115610cc557600080fd5b610cd084828561138c565b509392505050565b600081359050610ce7816114a6565b92915050565b600082601f830112610cfe57600080fd5b8135610d0e848260208601610c2e565b91505092915050565b600081519050610d26816114bd565b92915050565b600081359050610d3b816114d4565b92915050565b600082601f830112610d5257600080fd5b8135610d62848260208601610c9a565b91505092915050565b600060a08284031215610d7d57600080fd5b610d8760a0611286565b90506000610d9784828501610d2c565b6000830152506020610dab84828501610cd8565b6020830152506040610dbf84828501610df3565b6040830152506060610dd384828501610df3565b6060830152506080610de784828501610df3565b60808301525092915050565b600081359050610e02816114eb565b92915050565b600081519050610e17816114eb565b92915050565b600060208284031215610e2f57600080fd5b6000610e3d84828501610cd8565b91505092915050565b600060208284031215610e5857600080fd5b600082013567ffffffffffffffff811115610e7257600080fd5b610e7e84828501610ced565b91505092915050565b600060208284031215610e9957600080fd5b6000610ea784828501610d17565b91505092915050565b600060208284031215610ec257600080fd5b600082013567ffffffffffffffff811115610edc57600080fd5b610ee884828501610d41565b91505092915050565b600060208284031215610f0357600080fd5b6000610f1184828501610e08565b91505092915050565b610f238161133a565b82525050565b610f3a610f358261133a565b611417565b82525050565b610f4981611358565b82525050565b6000610f5a82611313565b610f64818561132f565b9350610f7481856020860161139b565b80840191505092915050565b6000610f8d60268361131e565b91507f4f776e61626c653a206e6577206f776e657220697320746865207a65726f206160008301527f64647265737300000000000000000000000000000000000000000000000000006020830152604082019050919050565b6000610ff3600f8361131e565b91507f52657761726420657870697265642100000000000000000000000000000000006000830152602082019050919050565b600061103360258361131e565b91507f52657761726420776974682074686973206b657920616c726561647920636c6160008301527f696d6564210000000000000000000000000000000000000000000000000000006020830152604082019050919050565b600061109960208361131e565b91507f4f776e61626c653a2063616c6c6572206973206e6f7420746865206f776e65726000830152602082019050919050565b60006110d960138361131e565b91507f4b657920646f6573206e6f7420657869737421000000000000000000000000006000830152602082019050919050565b61111581611382565b82525050565b60006111278285610f29565b6014820191506111378284610f4f565b91508190509392505050565b60006020820190506111586000830184610f1a565b92915050565b60006040820190506111736000830185610f1a565b6111806020830184610f40565b9392505050565b600060408201905061119c6000830185610f1a565b6111a9602083018461110c565b9392505050565b60006020820190506111c56000830184610f40565b92915050565b600060208201905081810360008301526111e481610f80565b9050919050565b6000602082019050818103600083015261120481610fe6565b9050919050565b6000602082019050818103600083015261122481611026565b9050919050565b600060208201905081810360008301526112448161108c565b9050919050565b60006020820190508181036000830152611264816110cc565b9050919050565b6000602082019050611280600083018461110c565b92915050565b6000604051905081810181811067ffffffffffffffff821117156112ad576112ac61146a565b5b8060405250919050565b600067ffffffffffffffff8211156112d2576112d161146a565b5b602082029050602081019050919050565b600067ffffffffffffffff8211156112fe576112fd61146a565b5b601f19601f8301169050602081019050919050565b600081519050919050565b600082825260208201905092915050565b600081905092915050565b600061134582611362565b9050919050565b60008115159050919050565b6000819050919050565b600073ffffffffffffffffffffffffffffffffffffffff82169050919050565b6000819050919050565b82818337600083830152505050565b60005b838110156113b957808201518184015260208101905061139e565b838111156113c8576000848401525b50505050565b60006113d982611382565b91507fffffffffffffffffffffffffffffffffffffffffffffffffffffffffffffffff82141561140c5761140b61143b565b5b600182019050919050565b600061142282611429565b9050919050565b600061143482611499565b9050919050565b7f4e487b7100000000000000000000000000000000000000000000000000000000600052601160045260246000fd5b7f4e487b7100000000000000000000000000000000000000000000000000000000600052604160045260246000fd5b60008160601b9050919050565b6114af8161133a565b81146114ba57600080fd5b50565b6114c68161134c565b81146114d157600080fd5b50565b6114dd81611358565b81146114e857600080fd5b50565b6114f481611382565b81146114ff57600080fd5b5056fea264697066735822122057b9b95ac856a6b312c629c16c0afa7b4a72d2f2c90532ec1f285d00285f0bb464736f6c63430008000033",
  "linkReferences": {},
  "deployedLinkReferences": {}
}