{
    "_format": "hh-sol-artifact-1",
    "contractName": "RMRKMultiResourceImpl",
    "sourceName": "contracts/RMRKMultiResource.sol",
    "abi": [
        {
            "inputs": [
                {
                    "internalType": "string",
                    "name": "name",
                    "type": "string"
                },
                {
                    "internalType": "string",
                    "name": "symbol",
                    "type": "string"
                },
                {
                    "internalType": "uint256",
                    "name": "maxSupply_",
                    "type": "uint256"
                },
                {
                    "internalType": "uint256",
                    "name": "pricePerMint_",
                    "type": "uint256"
                }
            ],
            "stateMutability": "nonpayable",
            "type": "constructor"
        },
        {
            "inputs": [],
            "name": "ERC721AddressZeroIsNotaValidOwner",
            "type": "error"
        },
        {
            "inputs": [],
            "name": "ERC721ApprovalToCurrentOwner",
            "type": "error"
        },
        {
            "inputs": [],
            "name": "ERC721ApproveCallerIsNotOwnerNorApprovedForAll",
            "type": "error"
        },
        {
            "inputs": [],
            "name": "ERC721ApproveToCaller",
            "type": "error"
        },
        {
            "inputs": [],
            "name": "ERC721InvalidTokenId",
            "type": "error"
        },
        {
            "inputs": [],
            "name": "ERC721MintToTheZeroAddress",
            "type": "error"
        },
        {
            "inputs": [],
            "name": "ERC721NotApprovedOrOwner",
            "type": "error"
        },
        {
            "inputs": [],
            "name": "ERC721TokenAlreadyMinted",
            "type": "error"
        },
        {
            "inputs": [],
            "name": "ERC721TransferFromIncorrectOwner",
            "type": "error"
        },
        {
            "inputs": [],
            "name": "ERC721TransferToNonReceiverImplementer",
            "type": "error"
        },
        {
            "inputs": [],
            "name": "ERC721TransferToTheZeroAddress",
            "type": "error"
        },
        {
            "inputs": [],
            "name": "RMRKApprovalForResourcesToCurrentOwner",
            "type": "error"
        },
        {
            "inputs": [],
            "name": "RMRKApproveForResourcesCallerIsNotOwnerNorApprovedForAll",
            "type": "error"
        },
        {
            "inputs": [],
            "name": "RMRKApproveForResourcesToCaller",
            "type": "error"
        },
        {
            "inputs": [],
            "name": "RMRKBadPriorityListLength",
            "type": "error"
        },
        {
            "inputs": [],
            "name": "RMRKIndexOutOfRange",
            "type": "error"
        },
        {
            "inputs": [],
            "name": "RMRKLocked",
            "type": "error"
        },
        {
            "inputs": [],
            "name": "RMRKMaxPendingResourcesReached",
            "type": "error"
        },
        {
            "inputs": [],
            "name": "RMRKMintOverMax",
            "type": "error"
        },
        {
            "inputs": [],
            "name": "RMRKMintUnderpriced",
            "type": "error"
        },
        {
            "inputs": [],
            "name": "RMRKMintZero",
            "type": "error"
        },
        {
            "inputs": [],
            "name": "RMRKNoResourceMatchingId",
            "type": "error"
        },
        {
            "inputs": [],
            "name": "RMRKNotApprovedForResourcesOrOwner",
            "type": "error"
        },
        {
            "inputs": [],
            "name": "RMRKResourceAlreadyExists",
            "type": "error"
        },
        {
            "inputs": [],
            "name": "RMRKWriteToZero",
            "type": "error"
        },
        {
            "anonymous": false,
            "inputs": [
                {
                    "indexed": true,
                    "internalType": "address",
                    "name": "owner",
                    "type": "address"
                },
                {
                    "indexed": true,
                    "internalType": "address",
                    "name": "approved",
                    "type": "address"
                },
                {
                    "indexed": true,
                    "internalType": "uint256",
                    "name": "tokenId",
                    "type": "uint256"
                }
            ],
            "name": "Approval",
            "type": "event"
        },
        {
            "anonymous": false,
            "inputs": [
                {
                    "indexed": true,
                    "internalType": "address",
                    "name": "owner",
                    "type": "address"
                },
                {
                    "indexed": true,
                    "internalType": "address",
                    "name": "operator",
                    "type": "address"
                },
                {
                    "indexed": false,
                    "internalType": "bool",
                    "name": "approved",
                    "type": "bool"
                }
            ],
            "name": "ApprovalForAll",
            "type": "event"
        },
        {
            "anonymous": false,
            "inputs": [
                {
                    "indexed": true,
                    "internalType": "address",
                    "name": "owner",
                    "type": "address"
                },
                {
                    "indexed": true,
                    "internalType": "address",
                    "name": "operator",
                    "type": "address"
                },
                {
                    "indexed": false,
                    "internalType": "bool",
                    "name": "approved",
                    "type": "bool"
                }
            ],
            "name": "ApprovalForAllForResources",
            "type": "event"
        },
        {
            "anonymous": false,
            "inputs": [
                {
                    "indexed": true,
                    "internalType": "address",
                    "name": "owner",
                    "type": "address"
                },
                {
                    "indexed": true,
                    "internalType": "address",
                    "name": "approved",
                    "type": "address"
                },
                {
                    "indexed": true,
                    "internalType": "uint256",
                    "name": "tokenId",
                    "type": "uint256"
                }
            ],
            "name": "ApprovalForResources",
            "type": "event"
        },
        {
            "anonymous": false,
            "inputs": [
                {
                    "indexed": true,
                    "internalType": "address",
                    "name": "previousOwner",
                    "type": "address"
                },
                {
                    "indexed": true,
                    "internalType": "address",
                    "name": "newOwner",
                    "type": "address"
                }
            ],
            "name": "OwnershipTransferred",
            "type": "event"
        },
        {
            "anonymous": false,
            "inputs": [
                {
                    "indexed": true,
                    "internalType": "uint256",
                    "name": "tokenId",
                    "type": "uint256"
                },
                {
                    "indexed": true,
                    "internalType": "uint64",
                    "name": "resourceId",
                    "type": "uint64"
                }
            ],
            "name": "ResourceAccepted",
            "type": "event"
        },
        {
            "anonymous": false,
            "inputs": [
                {
                    "indexed": true,
                    "internalType": "uint256",
                    "name": "tokenId",
                    "type": "uint256"
                },
                {
                    "indexed": true,
                    "internalType": "uint64",
                    "name": "resourceId",
                    "type": "uint64"
                }
            ],
            "name": "ResourceAddedToToken",
            "type": "event"
        },
        {
            "anonymous": false,
            "inputs": [
                {
                    "indexed": true,
                    "internalType": "uint256",
                    "name": "tokenId",
                    "type": "uint256"
                },
                {
                    "indexed": true,
                    "internalType": "uint64",
                    "name": "resourceId",
                    "type": "uint64"
                },
                {
                    "indexed": true,
                    "internalType": "uint64",
                    "name": "overwritesId",
                    "type": "uint64"
                }
            ],
            "name": "ResourceOverwriteProposed",
            "type": "event"
        },
        {
            "anonymous": false,
            "inputs": [
                {
                    "indexed": true,
                    "internalType": "uint256",
                    "name": "tokenId",
                    "type": "uint256"
                },
                {
                    "indexed": true,
                    "internalType": "uint64",
                    "name": "oldResourceId",
                    "type": "uint64"
                },
                {
                    "indexed": true,
                    "internalType": "uint64",
                    "name": "newResourceId",
                    "type": "uint64"
                }
            ],
            "name": "ResourceOverwritten",
            "type": "event"
        },
        {
            "anonymous": false,
            "inputs": [
                {
                    "indexed": true,
                    "internalType": "uint256",
                    "name": "tokenId",
                    "type": "uint256"
                }
            ],
            "name": "ResourcePrioritySet",
            "type": "event"
        },
        {
            "anonymous": false,
            "inputs": [
                {
                    "indexed": true,
                    "internalType": "uint256",
                    "name": "tokenId",
                    "type": "uint256"
                },
                {
                    "indexed": true,
                    "internalType": "uint64",
                    "name": "resourceId",
                    "type": "uint64"
                }
            ],
            "name": "ResourceRejected",
            "type": "event"
        },
        {
            "anonymous": false,
            "inputs": [
                {
                    "indexed": true,
                    "internalType": "uint64",
                    "name": "resourceId",
                    "type": "uint64"
                }
            ],
            "name": "ResourceSet",
            "type": "event"
        },
        {
            "anonymous": false,
            "inputs": [
                {
                    "indexed": true,
                    "internalType": "address",
                    "name": "from",
                    "type": "address"
                },
                {
                    "indexed": true,
                    "internalType": "address",
                    "name": "to",
                    "type": "address"
                },
                {
                    "indexed": true,
                    "internalType": "uint256",
                    "name": "tokenId",
                    "type": "uint256"
                }
            ],
            "name": "Transfer",
            "type": "event"
        },
        {
            "inputs": [
                {
                    "internalType": "uint256",
                    "name": "tokenId",
                    "type": "uint256"
                },
                {
                    "internalType": "uint256",
                    "name": "index",
                    "type": "uint256"
                }
            ],
            "name": "acceptResource",
            "outputs": [],
            "stateMutability": "nonpayable",
            "type": "function"
        },
        {
            "inputs": [
                {
                    "internalType": "string",
                    "name": "metadataURI",
                    "type": "string"
                }
            ],
            "name": "addResourceEntry",
            "outputs": [],
            "stateMutability": "nonpayable",
            "type": "function"
        },
        {
            "inputs": [
                {
                    "internalType": "uint256",
                    "name": "tokenId",
                    "type": "uint256"
                },
                {
                    "internalType": "uint64",
                    "name": "resourceId",
                    "type": "uint64"
                },
                {
                    "internalType": "uint64",
                    "name": "overwrites",
                    "type": "uint64"
                }
            ],
            "name": "addResourceToToken",
            "outputs": [],
            "stateMutability": "nonpayable",
            "type": "function"
        },
        {
            "inputs": [
                {
                    "internalType": "address",
                    "name": "to",
                    "type": "address"
                },
                {
                    "internalType": "uint256",
                    "name": "tokenId",
                    "type": "uint256"
                }
            ],
            "name": "approve",
            "outputs": [],
            "stateMutability": "nonpayable",
            "type": "function"
        },
        {
            "inputs": [
                {
                    "internalType": "address",
                    "name": "to",
                    "type": "address"
                },
                {
                    "internalType": "uint256",
                    "name": "tokenId",
                    "type": "uint256"
                }
            ],
            "name": "approveForResources",
            "outputs": [],
            "stateMutability": "nonpayable",
            "type": "function"
        },
        {
            "inputs": [
                {
                    "internalType": "address",
                    "name": "owner",
                    "type": "address"
                }
            ],
            "name": "balanceOf",
            "outputs": [
                {
                    "internalType": "uint256",
                    "name": "",
                    "type": "uint256"
                }
            ],
            "stateMutability": "view",
            "type": "function"
        },
        {
            "inputs": [
                {
                    "internalType": "uint256",
                    "name": "tokenId",
                    "type": "uint256"
                }
            ],
            "name": "getActiveResourcePriorities",
            "outputs": [
                {
                    "internalType": "uint16[]",
                    "name": "",
                    "type": "uint16[]"
                }
            ],
            "stateMutability": "view",
            "type": "function"
        },
        {
            "inputs": [
                {
                    "internalType": "uint256",
                    "name": "tokenId",
                    "type": "uint256"
                }
            ],
            "name": "getActiveResources",
            "outputs": [
                {
                    "internalType": "uint64[]",
                    "name": "",
                    "type": "uint64[]"
                }
            ],
            "stateMutability": "view",
            "type": "function"
        },
        {
            "inputs": [],
            "name": "getAllResources",
            "outputs": [
                {
                    "internalType": "uint64[]",
                    "name": "",
                    "type": "uint64[]"
                }
            ],
            "stateMutability": "view",
            "type": "function"
        },
        {
            "inputs": [
                {
                    "internalType": "uint256",
                    "name": "tokenId",
                    "type": "uint256"
                }
            ],
            "name": "getApproved",
            "outputs": [
                {
                    "internalType": "address",
                    "name": "",
                    "type": "address"
                }
            ],
            "stateMutability": "view",
            "type": "function"
        },
        {
            "inputs": [
                {
                    "internalType": "uint256",
                    "name": "tokenId",
                    "type": "uint256"
                }
            ],
            "name": "getApprovedForResources",
            "outputs": [
                {
                    "internalType": "address",
                    "name": "",
                    "type": "address"
                }
            ],
            "stateMutability": "view",
            "type": "function"
        },
        {
            "inputs": [],
            "name": "getFallbackURI",
            "outputs": [
                {
                    "internalType": "string",
                    "name": "",
                    "type": "string"
                }
            ],
            "stateMutability": "view",
            "type": "function"
        },
        {
            "inputs": [
                {
                    "internalType": "uint256",
                    "name": "tokenId",
                    "type": "uint256"
                }
            ],
            "name": "getFullPendingResources",
            "outputs": [
                {
                    "components": [
                        {
                            "internalType": "uint64",
                            "name": "id",
                            "type": "uint64"
                        },
                        {
                            "internalType": "string",
                            "name": "metadataURI",
                            "type": "string"
                        }
                    ],
                    "internalType": "struct IRMRKMultiResource.Resource[]",
                    "name": "",
                    "type": "tuple[]"
                }
            ],
            "stateMutability": "view",
            "type": "function"
        },
        {
            "inputs": [
                {
                    "internalType": "uint256",
                    "name": "tokenId",
                    "type": "uint256"
                }
            ],
            "name": "getFullResources",
            "outputs": [
                {
                    "components": [
                        {
                            "internalType": "uint64",
                            "name": "id",
                            "type": "uint64"
                        },
                        {
                            "internalType": "string",
                            "name": "metadataURI",
                            "type": "string"
                        }
                    ],
                    "internalType": "struct IRMRKMultiResource.Resource[]",
                    "name": "",
                    "type": "tuple[]"
                }
            ],
            "stateMutability": "view",
            "type": "function"
        },
        {
            "inputs": [],
            "name": "getLock",
            "outputs": [
                {
                    "internalType": "bool",
                    "name": "",
                    "type": "bool"
                }
            ],
            "stateMutability": "view",
            "type": "function"
        },
        {
            "inputs": [
                {
                    "internalType": "uint256",
                    "name": "tokenId",
                    "type": "uint256"
                },
                {
                    "internalType": "uint256",
                    "name": "index",
                    "type": "uint256"
                }
            ],
            "name": "getPendingResObjectByIndex",
            "outputs": [
                {
                    "components": [
                        {
                            "internalType": "uint64",
                            "name": "id",
                            "type": "uint64"
                        },
                        {
                            "internalType": "string",
                            "name": "metadataURI",
                            "type": "string"
                        }
                    ],
                    "internalType": "struct IRMRKMultiResource.Resource",
                    "name": "",
                    "type": "tuple"
                }
            ],
            "stateMutability": "view",
            "type": "function"
        },
        {
            "inputs": [
                {
                    "internalType": "uint256",
                    "name": "tokenId",
                    "type": "uint256"
                }
            ],
            "name": "getPendingResources",
            "outputs": [
                {
                    "internalType": "uint64[]",
                    "name": "",
                    "type": "uint64[]"
                }
            ],
            "stateMutability": "view",
            "type": "function"
        },
        {
            "inputs": [
                {
                    "internalType": "uint256",
                    "name": "tokenId",
                    "type": "uint256"
                },
                {
                    "internalType": "uint256",
                    "name": "index",
                    "type": "uint256"
                }
            ],
            "name": "getResObjectByIndex",
            "outputs": [
                {
                    "components": [
                        {
                            "internalType": "uint64",
                            "name": "id",
                            "type": "uint64"
                        },
                        {
                            "internalType": "string",
                            "name": "metadataURI",
                            "type": "string"
                        }
                    ],
                    "internalType": "struct IRMRKMultiResource.Resource",
                    "name": "",
                    "type": "tuple"
                }
            ],
            "stateMutability": "view",
            "type": "function"
        },
        {
            "inputs": [
                {
                    "internalType": "uint64",
                    "name": "resourceId",
                    "type": "uint64"
                }
            ],
            "name": "getResource",
            "outputs": [
                {
                    "components": [
                        {
                            "internalType": "uint64",
                            "name": "id",
                            "type": "uint64"
                        },
                        {
                            "internalType": "string",
                            "name": "metadataURI",
                            "type": "string"
                        }
                    ],
                    "internalType": "struct IRMRKMultiResource.Resource",
                    "name": "",
                    "type": "tuple"
                }
            ],
            "stateMutability": "view",
            "type": "function"
        },
        {
            "inputs": [
                {
                    "internalType": "uint256",
                    "name": "tokenId",
                    "type": "uint256"
                },
                {
                    "internalType": "uint64",
                    "name": "resourceId",
                    "type": "uint64"
                }
            ],
            "name": "getResourceOverwrites",
            "outputs": [
                {
                    "internalType": "uint64",
                    "name": "",
                    "type": "uint64"
                }
            ],
            "stateMutability": "view",
            "type": "function"
        },
        {
            "inputs": [
                {
                    "internalType": "address",
                    "name": "owner",
                    "type": "address"
                },
                {
                    "internalType": "address",
                    "name": "operator",
                    "type": "address"
                }
            ],
            "name": "isApprovedForAll",
            "outputs": [
                {
                    "internalType": "bool",
                    "name": "",
                    "type": "bool"
                }
            ],
            "stateMutability": "view",
            "type": "function"
        },
        {
            "inputs": [
                {
                    "internalType": "address",
                    "name": "owner",
                    "type": "address"
                },
                {
                    "internalType": "address",
                    "name": "operator",
                    "type": "address"
                }
            ],
            "name": "isApprovedForAllForResources",
            "outputs": [
                {
                    "internalType": "bool",
                    "name": "",
                    "type": "bool"
                }
            ],
            "stateMutability": "view",
            "type": "function"
        },
        {
            "inputs": [
                {
                    "internalType": "uint64",
                    "name": "resourceId",
                    "type": "uint64"
                }
            ],
            "name": "isTokenEnumeratedResource",
            "outputs": [
                {
                    "internalType": "bool",
                    "name": "",
                    "type": "bool"
                }
            ],
            "stateMutability": "view",
            "type": "function"
        },
        {
            "inputs": [],
            "name": "maxSupply",
            "outputs": [
                {
                    "internalType": "uint256",
                    "name": "",
                    "type": "uint256"
                }
            ],
            "stateMutability": "view",
            "type": "function"
        },
        {
            "inputs": [
                {
                    "internalType": "address",
                    "name": "to",
                    "type": "address"
                },
                {
                    "internalType": "uint256",
                    "name": "numToMint",
                    "type": "uint256"
                }
            ],
            "name": "mint",
            "outputs": [],
            "stateMutability": "payable",
            "type": "function"
        },
        {
            "inputs": [],
            "name": "name",
            "outputs": [
                {
                    "internalType": "string",
                    "name": "",
                    "type": "string"
                }
            ],
            "stateMutability": "view",
            "type": "function"
        },
        {
            "inputs": [],
            "name": "owner",
            "outputs": [
                {
                    "internalType": "address",
                    "name": "",
                    "type": "address"
                }
            ],
            "stateMutability": "view",
            "type": "function"
        },
        {
            "inputs": [
                {
                    "internalType": "uint256",
                    "name": "tokenId",
                    "type": "uint256"
                }
            ],
            "name": "ownerOf",
            "outputs": [
                {
                    "internalType": "address",
                    "name": "",
                    "type": "address"
                }
            ],
            "stateMutability": "view",
            "type": "function"
        },
        {
            "inputs": [],
            "name": "pricePerMint",
            "outputs": [
                {
                    "internalType": "uint256",
                    "name": "",
                    "type": "uint256"
                }
            ],
            "stateMutability": "view",
            "type": "function"
        },
        {
            "inputs": [
                {
                    "internalType": "uint256",
                    "name": "tokenId",
                    "type": "uint256"
                }
            ],
            "name": "rejectAllResources",
            "outputs": [],
            "stateMutability": "nonpayable",
            "type": "function"
        },
        {
            "inputs": [
                {
                    "internalType": "uint256",
                    "name": "tokenId",
                    "type": "uint256"
                },
                {
                    "internalType": "uint256",
                    "name": "index",
                    "type": "uint256"
                }
            ],
            "name": "rejectResource",
            "outputs": [],
            "stateMutability": "nonpayable",
            "type": "function"
        },
        {
            "inputs": [],
            "name": "renounceOwnership",
            "outputs": [],
            "stateMutability": "nonpayable",
            "type": "function"
        },
        {
            "inputs": [
                {
                    "internalType": "address",
                    "name": "from",
                    "type": "address"
                },
                {
                    "internalType": "address",
                    "name": "to",
                    "type": "address"
                },
                {
                    "internalType": "uint256",
                    "name": "tokenId",
                    "type": "uint256"
                }
            ],
            "name": "safeTransferFrom",
            "outputs": [],
            "stateMutability": "nonpayable",
            "type": "function"
        },
        {
            "inputs": [
                {
                    "internalType": "address",
                    "name": "from",
                    "type": "address"
                },
                {
                    "internalType": "address",
                    "name": "to",
                    "type": "address"
                },
                {
                    "internalType": "uint256",
                    "name": "tokenId",
                    "type": "uint256"
                },
                {
                    "internalType": "bytes",
                    "name": "data",
                    "type": "bytes"
                }
            ],
            "name": "safeTransferFrom",
            "outputs": [],
            "stateMutability": "nonpayable",
            "type": "function"
        },
        {
            "inputs": [
                {
                    "internalType": "address",
                    "name": "operator",
                    "type": "address"
                },
                {
                    "internalType": "bool",
                    "name": "approved",
                    "type": "bool"
                }
            ],
            "name": "setApprovalForAll",
            "outputs": [],
            "stateMutability": "nonpayable",
            "type": "function"
        },
        {
            "inputs": [
                {
                    "internalType": "address",
                    "name": "operator",
                    "type": "address"
                },
                {
                    "internalType": "bool",
                    "name": "approved",
                    "type": "bool"
                }
            ],
            "name": "setApprovalForAllForResources",
            "outputs": [],
            "stateMutability": "nonpayable",
            "type": "function"
        },
        {
            "inputs": [
                {
                    "internalType": "string",
                    "name": "fallbackURI",
                    "type": "string"
                }
            ],
            "name": "setFallbackURI",
            "outputs": [],
            "stateMutability": "nonpayable",
            "type": "function"
        },
        {
            "inputs": [],
            "name": "setLock",
            "outputs": [],
            "stateMutability": "nonpayable",
            "type": "function"
        },
        {
            "inputs": [
                {
                    "internalType": "uint256",
                    "name": "tokenId",
                    "type": "uint256"
                },
                {
                    "internalType": "uint16[]",
                    "name": "priorities",
                    "type": "uint16[]"
                }
            ],
            "name": "setPriority",
            "outputs": [],
            "stateMutability": "nonpayable",
            "type": "function"
        },
        {
            "inputs": [
                {
                    "internalType": "uint64",
                    "name": "resourceId",
                    "type": "uint64"
                },
                {
                    "internalType": "bool",
                    "name": "state",
                    "type": "bool"
                }
            ],
            "name": "setTokenEnumeratedResource",
            "outputs": [],
            "stateMutability": "nonpayable",
            "type": "function"
        },
        {
            "inputs": [
                {
                    "internalType": "bytes4",
                    "name": "interfaceId",
                    "type": "bytes4"
                }
            ],
            "name": "supportsInterface",
            "outputs": [
                {
                    "internalType": "bool",
                    "name": "",
                    "type": "bool"
                }
            ],
            "stateMutability": "view",
            "type": "function"
        },
        {
            "inputs": [],
            "name": "symbol",
            "outputs": [
                {
                    "internalType": "string",
                    "name": "",
                    "type": "string"
                }
            ],
            "stateMutability": "view",
            "type": "function"
        },
        {
            "inputs": [
                {
                    "internalType": "uint256",
                    "name": "tokenId",
                    "type": "uint256"
                }
            ],
            "name": "tokenURI",
            "outputs": [
                {
                    "internalType": "string",
                    "name": "",
                    "type": "string"
                }
            ],
            "stateMutability": "view",
            "type": "function"
        },
        {
            "inputs": [
                {
                    "internalType": "uint256",
                    "name": "tokenId",
                    "type": "uint256"
                },
                {
                    "internalType": "uint256",
                    "name": "index",
                    "type": "uint256"
                }
            ],
            "name": "tokenURIAtIndex",
            "outputs": [
                {
                    "internalType": "string",
                    "name": "",
                    "type": "string"
                }
            ],
            "stateMutability": "view",
            "type": "function"
        },
        {
            "inputs": [],
            "name": "totalResources",
            "outputs": [
                {
                    "internalType": "uint256",
                    "name": "",
                    "type": "uint256"
                }
            ],
            "stateMutability": "view",
            "type": "function"
        },
        {
            "inputs": [],
            "name": "totalSupply",
            "outputs": [
                {
                    "internalType": "uint256",
                    "name": "",
                    "type": "uint256"
                }
            ],
            "stateMutability": "view",
            "type": "function"
        },
        {
            "inputs": [
                {
                    "internalType": "address",
                    "name": "from",
                    "type": "address"
                },
                {
                    "internalType": "address",
                    "name": "to",
                    "type": "address"
                },
                {
                    "internalType": "uint256",
                    "name": "tokenId",
                    "type": "uint256"
                }
            ],
            "name": "transferFrom",
            "outputs": [],
            "stateMutability": "nonpayable",
            "type": "function"
        },
        {
            "inputs": [
                {
                    "internalType": "address",
                    "name": "newOwner",
                    "type": "address"
                }
            ],
            "name": "transferOwnership",
            "outputs": [],
            "stateMutability": "nonpayable",
            "type": "function"
        }
    ],
    "bytecode": "0x60c06040523480156200001157600080fd5b50604051620035f6380380620035f683398101604081905262000034916200018b565b83838383620000433362000076565b60809190915260a05260026200005a838262000294565b50600362000069828262000294565b5050505050505062000360565b600080546001600160a01b038381166001600160a01b0319831681178455604051919092169283917f8be0079c531659141344cd1fd0a4f28419497f9722a3daafe3b4186f6b6457e09190a35050565b634e487b7160e01b600052604160045260246000fd5b600082601f830112620000ee57600080fd5b81516001600160401b03808211156200010b576200010b620000c6565b604051601f8301601f19908116603f01168101908282118183101715620001365762000136620000c6565b816040528381526020925086838588010111156200015357600080fd5b600091505b8382101562000177578582018301518183018401529082019062000158565b600093810190920192909252949350505050565b60008060008060808587031215620001a257600080fd5b84516001600160401b0380821115620001ba57600080fd5b620001c888838901620000dc565b95506020870151915080821115620001df57600080fd5b50620001ee87828801620000dc565b604087015160609097015195989097509350505050565b600181811c908216806200021a57607f821691505b6020821081036200023b57634e487b7160e01b600052602260045260246000fd5b50919050565b601f8211156200028f57600081815260208120601f850160051c810160208610156200026a5750805b601f850160051c820191505b818110156200028b5782815560010162000276565b5050505b505050565b81516001600160401b03811115620002b057620002b0620000c6565b620002c881620002c1845462000205565b8462000241565b602080601f831160018114620003005760008415620002e75750858301515b600019600386901b1c1916600185901b1785556200028b565b600085815260208120601f198616915b82811015620003315788860151825594840194600190910190840162000310565b5085821015620003505787850151600019600388901b60f8161c191681555b5050505050600190811b01905550565b60805160a05161325b6200039b600039600081816107520152610e050152600081816107a501528181610d270152610db2015261325b6000f3fe6080604052600436106102935760003560e01c8063891141d61161015a578063c5610a29116100c1578063e88975701161007a578063e889757014610829578063e985e9c514610849578063ed5fd0f514610892578063f2fde38b146108db578063f64669c3146108fb578063fe679c621461091b57600080fd5b8063c5610a2914610743578063c87b56dd14610776578063d5abeb0114610796578063daf30477146107c9578063dd6433d4146107e9578063e2e286af1461080957600080fd5b8063a221abf311610113578063a221abf314610681578063a22cb465146106ae578063a8cf5564146106ce578063b88d4fde146106ee578063baace33e1461070e578063c48a42431461072357600080fd5b8063891141d6146105cc5780638da5cb5b146105ec57806392401eb61461060a57806393026a601461061f57806395d89b411461063f578063a0eaec431461065457600080fd5b806331c57d13116101fe578063715018a6116101b7578063715018a614610523578063739817dd1461053857806378816134146105585780637aba6f37146105785780637b2e40fa1461058d5780637e5852d9146105ad57600080fd5b806331c57d131461046257806340c10f191461049b57806342842e0e146104ae5780636352211e146104ce57806366f5a747146104ee57806370a082311461050357600080fd5b80630ca01bf8116102505780630ca01bf8146103965780630cc83235146103b6578063135627cd146103d657806318160ddd1461040357806318249af71461042257806323b872dd1461044257600080fd5b806301ffc9a7146102985780630485c741146102cd57806306fdde03146102fa578063081812fc1461031c578063095ea7b314610354578063096835be14610376575b600080fd5b3480156102a457600080fd5b506102b86102b33660046129ae565b610977565b60405190151581526020015b60405180910390f35b3480156102d957600080fd5b506102ed6102e83660046129cb565b6109e4565b6040516102c49190612a5c565b34801561030657600080fd5b5061030f610a82565b6040516102c49190612abe565b34801561032857600080fd5b5061033c6103373660046129cb565b610b14565b6040516001600160a01b0390911681526020016102c4565b34801561036057600080fd5b5061037461036f366004612aed565b610b3b565b005b34801561038257600080fd5b50610374610391366004612b5d565b610bc7565b3480156103a257600080fd5b506103746103b1366004612c79565b610bdb565b3480156103c257600080fd5b506102ed6103d13660046129cb565b610bfb565b3480156103e257600080fd5b506103f66103f13660046129cb565b610c68565b6040516102c49190612cc1565b34801561040f57600080fd5b506001545b6040519081526020016102c4565b34801561042e57600080fd5b5061037461043d366004612c79565b610cf2565b34801561044e57600080fd5b5061037461045d366004612d09565b610d0a565b34801561046e57600080fd5b506102b861047d366004612d5c565b6001600160401b031660009081526012602052604090205460ff1690565b6103746104a9366004612aed565b610d25565b3480156104ba57600080fd5b506103746104c9366004612d09565b610ead565b3480156104da57600080fd5b5061033c6104e93660046129cb565b610ec8565b3480156104fa57600080fd5b50601154610414565b34801561050f57600080fd5b5061041461051e366004612d77565b610efe565b34801561052f57600080fd5b50610374610f43565b34801561054457600080fd5b50610374610553366004612d92565b610f57565b34801561056457600080fd5b50610374610573366004612aed565b610f6b565b34801561058457600080fd5b50610374610ff2565b34801561059957600080fd5b506103746105a83660046129cb565b61100f565b3480156105b957600080fd5b50600054600160a01b900460ff166102b8565b3480156105d857600080fd5b5061033c6105e73660046129cb565b611022565b3480156105f857600080fd5b506000546001600160a01b031661033c565b34801561061657600080fd5b5061030f611049565b34801561062b57600080fd5b5061037461063a366004612dc4565b611058565b34801561064b57600080fd5b5061030f61108b565b34801561066057600080fd5b5061067461066f3660046129cb565b61109a565b6040516102c49190612df7565b34801561068d57600080fd5b506106a161069c366004612d92565b61112c565b6040516102c49190612e38565b3480156106ba57600080fd5b506103746106c9366004612e4b565b611178565b3480156106da57600080fd5b506106a16106e9366004612d92565b611183565b3480156106fa57600080fd5b50610374610709366004612e67565b6111a3565b34801561071a57600080fd5b506106746111c0565b34801561072f57600080fd5b5061037461073e366004612ee2565b611249565b34801561074f57600080fd5b507f0000000000000000000000000000000000000000000000000000000000000000610414565b34801561078257600080fd5b5061030f6107913660046129cb565b61128e565b3480156107a257600080fd5b507f0000000000000000000000000000000000000000000000000000000000000000610414565b3480156107d557600080fd5b5061030f6107e4366004612d92565b61129b565b3480156107f557600080fd5b50610374610804366004612d92565b6112a7565b34801561081557600080fd5b506106a1610824366004612d5c565b6112bb565b34801561083557600080fd5b50610374610844366004612e4b565b6113b5565b34801561085557600080fd5b506102b8610864366004612f1e565b6001600160a01b03918216600090815260076020908152604080832093909416825291909152205460ff1690565b34801561089e57600080fd5b506102b86108ad366004612f1e565b6001600160a01b03918216600090815260106020908152604080832093909416825291909152205460ff1690565b3480156108e757600080fd5b506103746108f6366004612d77565b61144d565b34801561090757600080fd5b506106746109163660046129cb565b6114c8565b34801561092757600080fd5b5061095f610936366004612f48565b60009182526009602090815260408084206001600160401b039384168552909152909120541690565b6040516001600160401b0390911681526020016102c4565b60006001600160e01b031982166301ffc9a760e01b14806109a857506001600160e01b031982166380ac58cd60e01b145b806109c357506001600160e01b03198216635b5e139f60e01b145b806109de57506001600160e01b03198216632ed6cc6560e21b145b92915050565b6000818152600d60209081526040808320805482518185028101850190935280835260609493830182828015610a6b57602002820191906000526020600020906000905b82829054906101000a90046001600160401b03166001600160401b031681526020019060080190602082600701049283019260010382029150808411610a285790505b50505050509050610a7b81611531565b9392505050565b606060028054610a9190612f6b565b80601f0160208091040260200160405190810160405280929190818152602001828054610abd90612f6b565b8015610b0a5780601f10610adf57610100808354040283529160200191610b0a565b820191906000526020600020905b815481529060010190602001808311610aed57829003601f168201915b5050505050905090565b6000610b1f826115f3565b506000908152600660205260409020546001600160a01b031690565b6000610b4682610ec8565b9050806001600160a01b0316836001600160a01b031603610b7a57604051630591db6d60e01b815260040160405180910390fd5b336001600160a01b03821614801590610b9a5750610b988133610864565b155b15610bb857604051634c12315960e11b815260040160405180910390fd5b610bc28383611628565b505050565b81610bd181611696565b610bc283836116bd565b610be361173d565b6011805460010190819055610bf89082611797565b50565b6000818152600a60209081526040808320805482518185028101850190935280835260609493830182828015610a6b57600091825260209182902080546001600160401b03168452908202830192909160089101808411610a2857905050505050509050610a7b81611531565b6000818152600b6020908152604091829020805483518184028101840190945280845260609392830182828015610ce657602002820191906000526020600020906000905b82829054906101000a900461ffff1661ffff1681526020019060020190602082600101049283019260010382029150808411610cad5790505b50505050509050919050565b610cfa61173d565b6013610d068282612feb565b5050565b80610d14816118ae565b610d1f8484846118d5565b50505050565b7f000000000000000000000000000000000000000000000000000000000000000060015410610d6757604051635e91cdfb60e11b815260040160405180910390fd5b600054600160a01b900460ff1615610d925760405163ed1fa96f60e01b815260040160405180910390fd5b80610db05760405163376bec4d60e01b815260040160405180910390fd5b7f000000000000000000000000000000000000000000000000000000000000000060015482610ddf91906130c0565b1115610dfe57604051635e91cdfb60e11b815260040160405180910390fd5b6000610e2a7f0000000000000000000000000000000000000000000000000000000000000000836130d3565b9050348114610e4c5760405163f2ffecad60e01b815260040160405180910390fd5b60006001546001610e5d91906130c0565b90508260016000828254610e7191906130c0565b909155505060018054600091610e8791906130c0565b9050815b81811015610ea557610e9d8682611a19565b600101610e8b565b505050505050565b610bc2838383604051806020016040528060008152506111a3565b6000818152600460205260408120546001600160a01b0316806109de5760405163089ba7e160e41b815260040160405180910390fd5b60006001600160a01b038216610f2757604051633bb9143360e11b815260040160405180910390fd5b506001600160a01b031660009081526005602052604090205490565b610f4b61173d565b610f556000611a33565b565b81610f6181611696565b610bc28383611a83565b6000610f7682610ec8565b9050806001600160a01b0316836001600160a01b031603610faa57604051639efa161160e01b815260040160405180910390fd5b336001600160a01b03821614801590610fca5750610fc881336108ad565b155b15610fe857604051635d84267760e11b815260040160405180910390fd5b610bc28383611c7b565b610ffa61173d565b6000805460ff60a01b1916600160a01b179055565b8061101981611696565b610d0682611ce9565b600061102d826115f3565b506000908152600f60205260409020546001600160a01b031690565b606060138054610a9190612f6b565b61106061173d565b6001600160401b03919091166000908152601260205260409020805460ff1916911515919091179055565b606060038054610a9190612f6b565b6000818152600a6020908152604091829020805483518184028101840190945280845260609392830182828015610ce657602002820191906000526020600020906000905b82829054906101000a90046001600160401b03166001600160401b0316815260200190600801906020826007010492830192600103820291508084116110df575094979650505050505050565b604080518082019091526000815260606020820152600061114c846114c8565b838151811061115d5761115d6130f2565b60200260200101519050611170816112bb565b949350505050565b610d06338383611dbe565b604080518082019091526000815260606020820152600061114c8461109a565b816111ad816118ae565b6111b985858585611e55565b5050505050565b6060600e805480602002602001604051908101604052809291908181526020018280548015610b0a57602002820191906000526020600020906000905b82829054906101000a90046001600160401b03166001600160401b0316815260200190600801906020826007010492830192600103820291508084116111fd5790505050505050905090565b61125161173d565b600061125c84610ec8565b6001600160a01b0316036112835760405163089ba7e160e41b815260040160405180910390fd5b610bc2838383611e89565b60606109de826000612057565b6060610a7b8383612057565b816112b181611696565b610bc283836121e6565b6040805180820190915260008152606060208201526001600160401b038216600090815260086020526040812080546112f390612f6b565b80601f016020809104026020016040519081016040528092919081815260200182805461131f90612f6b565b801561136c5780601f106113415761010080835404028352916020019161136c565b820191906000526020600020905b81548152906001019060200180831161134f57829003601f168201915b505050505090508051600003611395576040516348e2e83760e01b815260040160405180910390fd5b604080518082019091526001600160401b03909316835260208301525090565b336001600160a01b03831681036113df5760405163353c229360e11b815260040160405180910390fd5b6001600160a01b03818116600081815260106020908152604080832094881680845294825291829020805460ff191687151590811790915591519182527f9c03d4f9a8db6d81765cbe2097e83f44253564fbf3c1adfb09a8067464ad3f4b91015b60405180910390a3505050565b61145561173d565b6001600160a01b0381166114bf5760405162461bcd60e51b815260206004820152602660248201527f4f776e61626c653a206e6577206f776e657220697320746865207a65726f206160448201526564647265737360d01b60648201526084015b60405180910390fd5b610bf881611a33565b6000818152600d6020908152604091829020805483518184028101840190945280845260609392830182828015610ce657600091825260209182902080546001600160401b031684529082028301929091600891018084116110df575094979650505050505050565b80516060906000816001600160401b0381111561155057611550612b17565b60405190808252806020026020018201604052801561159657816020015b60408051808201909152600081526060602082015281526020019060019003908161156e5790505b50905060005b828110156115eb576115c68582815181106115b9576115b96130f2565b60200260200101516112bb565b8282815181106115d8576115d86130f2565b602090810291909101015260010161159c565b509392505050565b6000818152600460205260409020546001600160a01b0316610bf85760405163089ba7e160e41b815260040160405180910390fd5b600081815260066020526040902080546001600160a01b0319166001600160a01b038416908117909155819061165d82610ec8565b6001600160a01b03167f8c5be1e5ebec7d5bd14f71427d1e84f3dd0314c0f7b2291e5b200ac8c7c3b92560405160405180910390a45050565b6116a033826122f1565b610bf85760405163eabb6dd760e01b815260040160405180910390fd5b80516000838152600a602052604090205481146116ed57604051633581be1d60e11b815260040160405180910390fd5b6000838152600b60209081526040909120835161170c928501906128b9565b5060405183907f50a12ecfcaf26b91454fd23edbcf04185b68d6e8c7edc4e35d14392889cdf79590600090a2505050565b6000546001600160a01b03163314610f555760405162461bcd60e51b815260206004820181905260248201527f4f776e61626c653a2063616c6c6572206973206e6f7420746865206f776e657260448201526064016114b6565b6001600160401b0382166117be5760405163280d806360e01b815260040160405180910390fd5b6001600160401b038216600090815260086020526040812080546117e190612f6b565b9050111561180257604051633348dd1d60e01b815260040160405180910390fd5b6001600160401b03821660009081526008602052604090206118248282612feb565b50600e80546001810182556000918252600481047fbb7b4a454dc3493923482f07822329ed19e8244eff582cc204f8554c3620c3fd0180546001600160401b0380871660086003909516949094026101000a84810291021990911617905560405190917f8a5ccfca4023cda4a0a59a1bb73783f6b3ba77465537d0c8f2bef5eb2511552a91a25050565b6118b8338261236f565b610bf8576040516302728a9d60e41b815260040160405180910390fd5b826001600160a01b03166118e882610ec8565b6001600160a01b03161461190f5760405163e146af6f60e01b815260040160405180910390fd5b6001600160a01b038216611936576040516338f646ff60e21b815260040160405180910390fd5b600081815260066020908152604080832080546001600160a01b0319908116909155600f8352818420805490911690556001600160a01b03861683526005909152812080546001929061198a908490613108565b90915550506001600160a01b03821660009081526005602052604081208054600192906119b89084906130c0565b909155505060008181526004602052604080822080546001600160a01b0319166001600160a01b0386811691821790925591518493918716917fddf252ad1be2c89b69c2b068fc378daa952ba7f163c4a11628f55a4df523b3ef91a4505050565b610d068282604051806020016040528060008152506123db565b600080546001600160a01b038381166001600160a01b0319831681178455604051919092169283917f8be0079c531659141344cd1fd0a4f28419497f9722a3daafe3b4186f6b6457e09190a35050565b6000828152600d60205260409020548110611ab157604051630757d52160e01b815260040160405180910390fd5b6000828152600d60205260408120805483908110611ad157611ad16130f2565b60009182526020808320600483040154868452600d909152604090922060039091166008026101000a9091046001600160401b03169150611b12908361240f565b60008381526009602090815260408083206001600160401b038086168552925290912054168015611bc8576000848152600a60205260409020611b5590826124f5565b816001600160401b0316816001600160401b0316857fcf24819d4d174cc8c6cda1f2f6bdbdcb891ef4a46c61e0bab8dc06c070de5c9e60405160405180910390a460008481526009602090815260408083206001600160401b03861684529091529020805467ffffffffffffffff191690555b6000848152600a6020908152604080832080546001808201835591855283852060048204018054600390921660080261010090810a6001600160401b0381810219909416938a1690810293909317909155898652600b855283862080549384018155865293852060108304018054600f90931660020290940a61ffff021990911690925551909186917f51e9958189f528b912f96508d6a4b68583858166eda14d580dfbd24e9a79dfdb9190a350505050565b6000818152600f6020526040902080546001600160a01b0319166001600160a01b0384169081179091558190611cb082610ec8565b6001600160a01b03167fa98c62723e75b26c5e5710fb12b5bf7712e6926f6dc932de622e715553f5149160405160405180910390a45050565b6000818152600d6020526040812054905b81811015611d75576000838152600d60205260408120805483908110611d2257611d226130f2565b6000918252602080832060048304015487845260098252604080852060039094166008026101000a9091046001600160401b031684529190529020805467ffffffffffffffff1916905550600101611cfa565b506000828152600d60205260408120611d8d91612962565b60405160009083907f8d0cdca57de6b2fb4babd8b68c83db0b0981610d338eb68eea1f4b1e1d78dc1c908390a35050565b816001600160a01b0316836001600160a01b031603611df057604051630b7b99b960e21b815260040160405180910390fd5b6001600160a01b03838116600081815260076020908152604080832094871680845294825291829020805460ff191686151590811790915591519182527f17307eab39ab6107e8899845ad3d59bd9653f200f220920489ca2b5937696c319101611440565b611e608484846118d5565b611e6c848484846125d3565b610d1f5760405163bcb5663760e01b815260040160405180910390fd5b6000838152600c602090815260408083206001600160401b038616845290915290205460ff1615611ecd57604051633348dd1d60e01b815260040160405180910390fd5b6001600160401b03821660009081526008602052604090208054611ef090612f6b565b9050600003611f12576040516348e2e83760e01b815260040160405180910390fd5b6000838152600d6020526040902054608011611f415760405163dfaea09b60e01b815260040160405180910390fd5b6000838152600c602090815260408083206001600160401b038681168086529184528285208054600160ff199091168117909155888652600d8552928520805493840181558552929093206004820401805460039092166008026101000a80840219909216919093021790915581161561201c5760008381526009602090815260408083206001600160401b0386811680865291909352818420805467ffffffffffffffff1916938616938417905590519192909186917fe76caab2912f68cd628bc085e006c86b8a478d13be698638b0c533030d120b4e91a45b6040516001600160401b0383169084907ffc4d0a03f3026d7ce3427493c9289ea9768a6edd425e854cea7600d244ecc2c390600090a3505050565b6060612062836115f3565b6000838152600a6020526040902054821015612154576000838152600a60205260408120805484908110612098576120986130f2565b60009182526020822060048204015460039091166008026101000a90046001600160401b031691506120c9826112bb565b905060006120e260408051602081019091526000815290565b6020808401516001600160401b0386166000908152601290925260409091205460ff1661211e5760405180602001604052806000815250612127565b612127886126d5565b6040516020016121399392919061311b565b60408051601f1981840301815291905293506109de92505050565b6013805461216190612f6b565b80601f016020809104026020016040519081016040528092919081815260200182805461218d90612f6b565b80156121da5780601f106121af576101008083540402835291602001916121da565b820191906000526020600020905b8154815290600101906020018083116121bd57829003601f168201915b505050505090506109de565b6000828152600d6020526040902054811061221457604051630757d52160e01b815260040160405180910390fd5b6000828152600d60205260408120805483908110612234576122346130f2565b60009182526020808320600483040154868452600d909152604090922060039091166008026101000a9091046001600160401b03169150612275908361240f565b6000838152600c602090815260408083206001600160401b038516808552908352818420805460ff1916905586845260098352818420818552909252808320805467ffffffffffffffff1916905551909185917f8d0cdca57de6b2fb4babd8b68c83db0b0981610d338eb68eea1f4b1e1d78dc1c9190a3505050565b6000806122fd83610ec8565b9050806001600160a01b0316846001600160a01b0316148061234457506001600160a01b0380821660009081526010602090815260408083209388168352929052205460ff165b806111705750836001600160a01b031661235d84611022565b6001600160a01b031614949350505050565b60008061237b83610ec8565b9050806001600160a01b0316846001600160a01b031614806123c257506001600160a01b0380821660009081526007602090815260408083209388168352929052205460ff165b806111705750836001600160a01b031661235d84610b14565b6123e583836127d5565b6123f260008484846125d3565b610bc25760405163bcb5663760e01b815260040160405180910390fd5b8154811061241c57600080fd5b8154829061242c90600190613108565b8154811061243c5761243c6130f2565b90600052602060002090600491828204019190066008029054906101000a90046001600160401b0316828281548110612477576124776130f2565b90600052602060002090600491828204019190066008026101000a8154816001600160401b0302191690836001600160401b03160217905550818054806124c0576124c061315e565b60008281526020902060046000199092019182040180546001600160401b03600860038516026101000a021916905590555050565b60008280548060200260200160405190810160405280929190818152602001828054801561257457602002820191906000526020600020906000905b82829054906101000a90046001600160401b03166001600160401b0316815260200190600801906020826007010492830192600103820291508084116125315790505b505083519394506000925050505b818110156111b957836001600160401b03168382815181106125a6576125a66130f2565b60200260200101516001600160401b0316036125cb576125c6858261240f565b6111b9565b600101612582565b60006001600160a01b0384163b156126ca57604051630a85bd0160e11b81526001600160a01b0385169063150b7a0290612617903390899088908890600401613174565b6020604051808303816000875af1925050508015612652575060408051601f3d908101601f1916820190925261264f918101906131b1565b60015b6126b0573d808015612680576040519150601f19603f3d011682016040523d82523d6000602084013e612685565b606091505b5080516000036126a85760405163bcb5663760e01b815260040160405180910390fd5b805181602001fd5b6001600160e01b031916630a85bd0160e11b149050611170565b506001949350505050565b6060816000036126fc5750506040805180820190915260018152600360fc1b602082015290565b8160005b81156127265780612710816131ce565b915061271f9050600a836131fd565b9150612700565b6000816001600160401b0381111561274057612740612b17565b6040519080825280601f01601f19166020018201604052801561276a576020820181803683370190505b5090505b84156111705761277f600183613108565b915061278c600a86613211565b6127979060306130c0565b60f81b8183815181106127ac576127ac6130f2565b60200101906001600160f81b031916908160001a9053506127ce600a866131fd565b945061276e565b6001600160a01b0382166127fc576040516325bd6bd360e01b815260040160405180910390fd5b6000818152600460205260409020546001600160a01b0316156128325760405163c5a8d37160e01b815260040160405180910390fd5b6001600160a01b038216600090815260056020526040812080546001929061285b9084906130c0565b909155505060008181526004602052604080822080546001600160a01b0319166001600160a01b03861690811790915590518392907fddf252ad1be2c89b69c2b068fc378daa952ba7f163c4a11628f55a4df523b3ef908290a45050565b82805482825590600052602060002090600f016010900481019282156129525791602002820160005b8382111561292257835183826101000a81548161ffff021916908361ffff16021790555092602001926002016020816001010492830192600103026128e2565b80156129505782816101000a81549061ffff0219169055600201602081600101049283019260010302612922565b505b5061295e929150612983565b5090565b508054600082556003016004900490600052602060002090810190610bf891905b5b8082111561295e5760008155600101612984565b6001600160e01b031981168114610bf857600080fd5b6000602082840312156129c057600080fd5b8135610a7b81612998565b6000602082840312156129dd57600080fd5b5035919050565b60005b838110156129ff5781810151838201526020016129e7565b50506000910152565b60008151808452612a208160208601602086016129e4565b601f01601f19169290920160200192915050565b6001600160401b03815116825260006020820151604060208501526111706040850182612a08565b6000602080830181845280855180835260408601915060408160051b870101925083870160005b82811015612ab157603f19888603018452612a9f858351612a34565b94509285019290850190600101612a83565b5092979650505050505050565b602081526000610a7b6020830184612a08565b80356001600160a01b0381168114612ae857600080fd5b919050565b60008060408385031215612b0057600080fd5b612b0983612ad1565b946020939093013593505050565b634e487b7160e01b600052604160045260246000fd5b604051601f8201601f191681016001600160401b0381118282101715612b5557612b55612b17565b604052919050565b60008060408385031215612b7057600080fd5b823591506020808401356001600160401b0380821115612b8f57600080fd5b818601915086601f830112612ba357600080fd5b813581811115612bb557612bb5612b17565b8060051b9150612bc6848301612b2d565b8181529183018401918481019089841115612be057600080fd5b938501935b83851015612c12578435925061ffff83168314612c025760008081fd5b8282529385019390850190612be5565b8096505050505050509250929050565b60006001600160401b03831115612c3b57612c3b612b17565b612c4e601f8401601f1916602001612b2d565b9050828152838383011115612c6257600080fd5b828260208301376000602084830101529392505050565b600060208284031215612c8b57600080fd5b81356001600160401b03811115612ca157600080fd5b8201601f81018413612cb257600080fd5b61117084823560208401612c22565b6020808252825182820181905260009190848201906040850190845b81811015612cfd57835161ffff1683529284019291840191600101612cdd565b50909695505050505050565b600080600060608486031215612d1e57600080fd5b612d2784612ad1565b9250612d3560208501612ad1565b9150604084013590509250925092565b80356001600160401b0381168114612ae857600080fd5b600060208284031215612d6e57600080fd5b610a7b82612d45565b600060208284031215612d8957600080fd5b610a7b82612ad1565b60008060408385031215612da557600080fd5b50508035926020909101359150565b80358015158114612ae857600080fd5b60008060408385031215612dd757600080fd5b612de083612d45565b9150612dee60208401612db4565b90509250929050565b6020808252825182820181905260009190848201906040850190845b81811015612cfd5783516001600160401b031683529284019291840191600101612e13565b602081526000610a7b6020830184612a34565b60008060408385031215612e5e57600080fd5b612de083612ad1565b60008060008060808587031215612e7d57600080fd5b612e8685612ad1565b9350612e9460208601612ad1565b92506040850135915060608501356001600160401b03811115612eb657600080fd5b8501601f81018713612ec757600080fd5b612ed687823560208401612c22565b91505092959194509250565b600080600060608486031215612ef757600080fd5b83359250612f0760208501612d45565b9150612f1560408501612d45565b90509250925092565b60008060408385031215612f3157600080fd5b612f3a83612ad1565b9150612dee60208401612ad1565b60008060408385031215612f5b57600080fd5b82359150612dee60208401612d45565b600181811c90821680612f7f57607f821691505b602082108103612f9f57634e487b7160e01b600052602260045260246000fd5b50919050565b601f821115610bc257600081815260208120601f850160051c81016020861015612fcc5750805b601f850160051c820191505b81811015610ea557828155600101612fd8565b81516001600160401b0381111561300457613004612b17565b613018816130128454612f6b565b84612fa5565b602080601f83116001811461304d57600084156130355750858301515b600019600386901b1c1916600185901b178555610ea5565b600085815260208120601f198616915b8281101561307c5788860151825594840194600190910190840161305d565b508582101561309a5787850151600019600388901b60f8161c191681555b5050505050600190811b01905550565b634e487b7160e01b600052601160045260246000fd5b808201808211156109de576109de6130aa565b60008160001904831182151516156130ed576130ed6130aa565b500290565b634e487b7160e01b600052603260045260246000fd5b818103818111156109de576109de6130aa565b6000845161312d8184602089016129e4565b8451908301906131418183602089016129e4565b84519101906131548183602088016129e4565b0195945050505050565b634e487b7160e01b600052603160045260246000fd5b6001600160a01b03858116825284166020820152604081018390526080606082018190526000906131a790830184612a08565b9695505050505050565b6000602082840312156131c357600080fd5b8151610a7b81612998565b6000600182016131e0576131e06130aa565b5060010190565b634e487b7160e01b600052601260045260246000fd5b60008261320c5761320c6131e7565b500490565b600082613220576132206131e7565b50069056fea2646970667358221220a443dd6149d3d088232bab5161564a17f2e9b7cf34a400a2a7d35cb5f905022d64736f6c63430008100033",
    "linkReferences": {},
    "deployedLinkReferences": {}
}