{
  "_format": "hh-sol-artifact-1",
  "contractName": "NftRewarder",
  "sourceName": "contracts/dev3/nft-rewarder/NftRewarder.sol",
  "abi": [
    {
      "inputs": [
        {
          "internalType": "address",
          "name": "owner",
          "type": "address"
        }
      ],
      "stateMutability": "nonpayable",
      "type": "constructor"
    },
    {
      "anonymous": false,
      "inputs": [
        {
          "indexed": false,
          "internalType": "bytes32",
          "name": "secretHash",
          "type": "bytes32"
        }
      ],
      "name": "AddReward",
      "type": "event"
    },
    {
      "anonymous": false,
      "inputs": [
        {
          "indexed": false,
          "internalType": "address",
          "name": "wallet",
          "type": "address"
        },
        {
          "indexed": false,
          "internalType": "bytes32",
          "name": "secretHash",
          "type": "bytes32"
        }
      ],
      "name": "ClaimReward",
      "type": "event"
    },
    {
      "anonymous": false,
      "inputs": [
        {
          "indexed": true,
          "internalType": "address",
          "name": "previousOwner",
          "type": "address"
        },
        {
          "indexed": true,
          "internalType": "address",
          "name": "newOwner",
          "type": "address"
        }
      ],
      "name": "OwnershipTransferred",
      "type": "event"
    },
    {
      "inputs": [
        {
          "components": [
            {
              "internalType": "bytes32",
              "name": "secretHash",
              "type": "bytes32"
            },
            {
              "internalType": "address",
              "name": "token",
              "type": "address"
            },
            {
              "internalType": "uint256",
              "name": "tokenId",
              "type": "uint256"
            },
            {
              "internalType": "uint256",
              "name": "expiresAt",
              "type": "uint256"
            }
          ],
          "internalType": "struct NftRewarder.Reward[]",
          "name": "_rewards",
          "type": "tuple[]"
        }
      ],
      "name": "addRewards",
      "outputs": [],
      "stateMutability": "nonpayable",
      "type": "function"
    },
    {
      "inputs": [
        {
          "internalType": "string",
          "name": "key",
          "type": "string"
        }
      ],
      "name": "calculateHash",
      "outputs": [
        {
          "internalType": "bytes32",
          "name": "",
          "type": "bytes32"
        }
      ],
      "stateMutability": "view",
      "type": "function"
    },
    {
      "inputs": [
        {
          "internalType": "string",
          "name": "key",
          "type": "string"
        }
      ],
      "name": "calculateHashString",
      "outputs": [
        {
          "internalType": "string",
          "name": "",
          "type": "string"
        }
      ],
      "stateMutability": "view",
      "type": "function"
    },
    {
      "inputs": [
        {
          "internalType": "string[]",
          "name": "keys",
          "type": "string[]"
        }
      ],
      "name": "calculateHashStrings",
      "outputs": [
        {
          "internalType": "string[]",
          "name": "",
          "type": "string[]"
        }
      ],
      "stateMutability": "view",
      "type": "function"
    },
    {
      "inputs": [
        {
          "internalType": "string[]",
          "name": "keys",
          "type": "string[]"
        }
      ],
      "name": "calculateHashes",
      "outputs": [
        {
          "internalType": "bytes32[]",
          "name": "",
          "type": "bytes32[]"
        }
      ],
      "stateMutability": "view",
      "type": "function"
    },
    {
      "inputs": [
        {
          "internalType": "string",
          "name": "key",
          "type": "string"
        }
      ],
      "name": "claimReward",
      "outputs": [],
      "stateMutability": "nonpayable",
      "type": "function"
    },
    {
      "inputs": [
        {
          "internalType": "address",
          "name": "operator",
          "type": "address"
        },
        {
          "internalType": "address",
          "name": "from",
          "type": "address"
        },
        {
          "internalType": "uint256",
          "name": "tokenId",
          "type": "uint256"
        },
        {
          "internalType": "bytes",
          "name": "data",
          "type": "bytes"
        }
      ],
      "name": "onERC721Received",
      "outputs": [
        {
          "internalType": "bytes4",
          "name": "",
          "type": "bytes4"
        }
      ],
      "stateMutability": "nonpayable",
      "type": "function"
    },
    {
      "inputs": [],
      "name": "owner",
      "outputs": [
        {
          "internalType": "address",
          "name": "",
          "type": "address"
        }
      ],
      "stateMutability": "view",
      "type": "function"
    },
    {
      "inputs": [],
      "name": "renounceOwnership",
      "outputs": [],
      "stateMutability": "nonpayable",
      "type": "function"
    },
    {
      "inputs": [
        {
          "internalType": "address",
          "name": "newOwner",
          "type": "address"
        }
      ],
      "name": "transferOwnership",
      "outputs": [],
      "stateMutability": "nonpayable",
      "type": "function"
    }
  ],
  "bytecode": "0x60806040523480156200001157600080fd5b5060405162001c6938038062001c69833981810160405281019062000037919062000152565b620000576200004b6200006f60201b60201c565b6200007760201b60201c565b62000068816200007760201b60201c565b50620001cc565b600033905090565b60008060009054906101000a900473ffffffffffffffffffffffffffffffffffffffff169050816000806101000a81548173ffffffffffffffffffffffffffffffffffffffff021916908373ffffffffffffffffffffffffffffffffffffffff1602179055508173ffffffffffffffffffffffffffffffffffffffff168173ffffffffffffffffffffffffffffffffffffffff167f8be0079c531659141344cd1fd0a4f28419497f9722a3daafe3b4186f6b6457e060405160405180910390a35050565b6000815190506200014c81620001b2565b92915050565b6000602082840312156200016557600080fd5b600062000175848285016200013b565b91505092915050565b60006200018b8262000192565b9050919050565b600073ffffffffffffffffffffffffffffffffffffffff82169050919050565b620001bd816200017e565b8114620001c957600080fd5b50565b611a8d80620001dc6000396000f3fe608060405234801561001057600080fd5b506004361061009e5760003560e01c80639cd79968116100665780639cd7996814610147578063a8cbcecd14610177578063bb8c9797146101a7578063de55cd4e146101c3578063f2fde38b146101f35761009e565b8063150b7a02146100a3578063236f3f82146100d3578063715018a6146101035780637cb41b7d1461010d5780638da5cb5b14610129575b600080fd5b6100bd60048036038101906100b89190610fa7565b61020f565b6040516100ca91906114d1565b60405180910390f35b6100ed60048036038101906100e89190611027565b610224565b6040516100fa9190611472565b60405180910390f35b61010b610351565b005b61012760048036038101906101229190611068565b6103d9565b005b6101316105f3565b60405161013e91906113f7565b60405180910390f35b610161600480360381019061015c91906110a9565b61061c565b60405161016e91906114ec565b60405180910390f35b610191600480360381019061018c91906110a9565b61064d565b60405161019e91906114b6565b60405180910390f35b6101c160048036038101906101bc91906110a9565b61067f565b005b6101dd60048036038101906101d89190611027565b610981565b6040516101ea9190611494565b60405180910390f35b61020d60048036038101906102089190610f55565b610ad1565b005b600063150b7a0260e01b905095945050505050565b60606000825167ffffffffffffffff811115610269577f4e487b7100000000000000000000000000000000000000000000000000000000600052604160045260246000fd5b6040519080825280602002602001820160405280156102975781602001602082028036833780820191505090505b50905060005b8351811015610347576102ef8482815181106102e2577f4e487b7100000000000000000000000000000000000000000000000000000000600052603260045260246000fd5b602002602001015161064d565b828281518110610328577f4e487b7100000000000000000000000000000000000000000000000000000000600052603260045260246000fd5b602002602001018181525050808061033f90611806565b91505061029d565b5080915050919050565b610359610bc9565b73ffffffffffffffffffffffffffffffffffffffff166103776105f3565b73ffffffffffffffffffffffffffffffffffffffff16146103cd576040517f08c379a00000000000000000000000000000000000000000000000000000000081526004016103c49061156e565b60405180910390fd5b6103d76000610bd1565b565b6103e1610bc9565b73ffffffffffffffffffffffffffffffffffffffff166103ff6105f3565b73ffffffffffffffffffffffffffffffffffffffff1614610455576040517f08c379a000000000000000000000000000000000000000000000000000000000815260040161044c9061156e565b60405180910390fd5b60005b81518110156105ef5781818151811061049a577f4e487b7100000000000000000000000000000000000000000000000000000000600052603260045260246000fd5b6020026020010151600160008484815181106104df577f4e487b7100000000000000000000000000000000000000000000000000000000600052603260045260246000fd5b60200260200101516000015181526020019081526020016000206000820151816000015560208201518160010160006101000a81548173ffffffffffffffffffffffffffffffffffffffff021916908373ffffffffffffffffffffffffffffffffffffffff16021790555060408201518160020155606082015181600301559050507f629ea08d76ff1e0d87ea95720bd111dd169a3a956e1cd7646a4ed07289ae482c8282815181106105bb577f4e487b7100000000000000000000000000000000000000000000000000000000600052603260045260246000fd5b6020026020010151600001516040516105d491906114b6565b60405180910390a180806105e790611806565b915050610458565b5050565b60008060009054906101000a900473ffffffffffffffffffffffffffffffffffffffff16905090565b60606106278261064d565b60405160200161063791906113dc565b6040516020818303038152906040529050919050565b600030826040516020016106629291906113b4565b604051602081830303815290604052805190602001209050919050565b600061068a8261064d565b9050600060016000838152602001908152602001600020604051806080016040529081600082015481526020016001820160009054906101000a900473ffffffffffffffffffffffffffffffffffffffff1673ffffffffffffffffffffffffffffffffffffffff1673ffffffffffffffffffffffffffffffffffffffff16815260200160028201548152602001600382015481525050905081816000015114610768576040517f08c379a000000000000000000000000000000000000000000000000000000000815260040161075f9061158e565b60405180910390fd5b6002600083815260200190815260200160002060009054906101000a900460ff16156107c9576040517f08c379a00000000000000000000000000000000000000000000000000000000081526004016107c09061154e565b60405180910390fd5b8060600151421115610810576040517f08c379a00000000000000000000000000000000000000000000000000000000081526004016108079061152e565b60405180910390fd5b60016002600084815260200190815260200160002060006101000a81548160ff021916908315150217905550806020015173ffffffffffffffffffffffffffffffffffffffff166342842e0e826020015173ffffffffffffffffffffffffffffffffffffffff16636352211e84604001516040518263ffffffff1660e01b815260040161089d91906115ae565b60206040518083038186803b1580156108b557600080fd5b505afa1580156108c9573d6000803e3d6000fd5b505050506040513d601f19601f820116820180604052508101906108ed9190610f7e565b3384604001516040518463ffffffff1660e01b815260040161091193929190611412565b600060405180830381600087803b15801561092b57600080fd5b505af115801561093f573d6000803e3d6000fd5b505050507f4da6997135913dddcbfb2193077c01652806ff6fc265328a2ce57d006e78cbd83383604051610974929190611449565b60405180910390a1505050565b60606000825167ffffffffffffffff8111156109c6577f4e487b7100000000000000000000000000000000000000000000000000000000600052604160045260246000fd5b6040519080825280602002602001820160405280156109f957816020015b60608152602001906001900390816109e45790505b50905060005b8351811015610ac757610a51848281518110610a44577f4e487b7100000000000000000000000000000000000000000000000000000000600052603260045260246000fd5b602002602001015161064d565b604051602001610a6191906113dc565b604051602081830303815290604052828281518110610aa9577f4e487b7100000000000000000000000000000000000000000000000000000000600052603260045260246000fd5b60200260200101819052508080610abf90611806565b9150506109ff565b5080915050919050565b610ad9610bc9565b73ffffffffffffffffffffffffffffffffffffffff16610af76105f3565b73ffffffffffffffffffffffffffffffffffffffff1614610b4d576040517f08c379a0000000000000000000000000000000000000000000000000000000008152600401610b449061156e565b60405180910390fd5b600073ffffffffffffffffffffffffffffffffffffffff168173ffffffffffffffffffffffffffffffffffffffff161415610bbd576040517f08c379a0000000000000000000000000000000000000000000000000000000008152600401610bb49061150e565b60405180910390fd5b610bc681610bd1565b50565b600033905090565b60008060009054906101000a900473ffffffffffffffffffffffffffffffffffffffff169050816000806101000a81548173ffffffffffffffffffffffffffffffffffffffff021916908373ffffffffffffffffffffffffffffffffffffffff1602179055508173ffffffffffffffffffffffffffffffffffffffff168173ffffffffffffffffffffffffffffffffffffffff167f8be0079c531659141344cd1fd0a4f28419497f9722a3daafe3b4186f6b6457e060405160405180910390a35050565b6000610ca8610ca3846115ee565b6115c9565b90508083825260208201905082856020860282011115610cc757600080fd5b60005b85811015610d1157813567ffffffffffffffff811115610ce957600080fd5b808601610cf68982610ea2565b85526020850194506020840193505050600181019050610cca565b5050509392505050565b6000610d2e610d298461161a565b6115c9565b90508083825260208201905082856080860282011115610d4d57600080fd5b60005b85811015610d7d5781610d638882610ecc565b845260208401935060808301925050600181019050610d50565b5050509392505050565b6000610d9a610d9584611646565b6115c9565b905082815260208101848484011115610db257600080fd5b610dbd848285611793565b509392505050565b600081359050610dd481611a12565b92915050565b600081519050610de981611a12565b92915050565b600082601f830112610e0057600080fd5b8135610e10848260208601610c95565b91505092915050565b600082601f830112610e2a57600080fd5b8135610e3a848260208601610d1b565b91505092915050565b600081359050610e5281611a29565b92915050565b60008083601f840112610e6a57600080fd5b8235905067ffffffffffffffff811115610e8357600080fd5b602083019150836001820283011115610e9b57600080fd5b9250929050565b600082601f830112610eb357600080fd5b8135610ec3848260208601610d87565b91505092915050565b600060808284031215610ede57600080fd5b610ee860806115c9565b90506000610ef884828501610e43565b6000830152506020610f0c84828501610dc5565b6020830152506040610f2084828501610f40565b6040830152506060610f3484828501610f40565b60608301525092915050565b600081359050610f4f81611a40565b92915050565b600060208284031215610f6757600080fd5b6000610f7584828501610dc5565b91505092915050565b600060208284031215610f9057600080fd5b6000610f9e84828501610dda565b91505092915050565b600080600080600060808688031215610fbf57600080fd5b6000610fcd88828901610dc5565b9550506020610fde88828901610dc5565b9450506040610fef88828901610f40565b935050606086013567ffffffffffffffff81111561100c57600080fd5b61101888828901610e58565b92509250509295509295909350565b60006020828403121561103957600080fd5b600082013567ffffffffffffffff81111561105357600080fd5b61105f84828501610def565b91505092915050565b60006020828403121561107a57600080fd5b600082013567ffffffffffffffff81111561109457600080fd5b6110a084828501610e19565b91505092915050565b6000602082840312156110bb57600080fd5b600082013567ffffffffffffffff8111156110d557600080fd5b6110e184828501610ea2565b91505092915050565b60006110f6838361120f565b60208301905092915050565b600061110e8383611253565b905092915050565b61111f81611721565b82525050565b61113661113182611721565b61184f565b82525050565b600061114782611697565b61115181856116d2565b935061115c83611677565b8060005b8381101561118d57815161117488826110ea565b975061117f836116b8565b925050600181019050611160565b5085935050505092915050565b60006111a5826116a2565b6111af81856116e3565b9350836020820285016111c185611687565b8060005b858110156111fd57848403895281516111de8582611102565b94506111e9836116c5565b925060208a019950506001810190506111c5565b50829750879550505050505092915050565b61121881611733565b82525050565b61122781611733565b82525050565b61123e61123982611733565b611861565b82525050565b61124d8161173d565b82525050565b600061125e826116ad565b61126881856116f4565b93506112788185602086016117a2565b611281816118db565b840191505092915050565b6000611297826116ad565b6112a18185611705565b93506112b18185602086016117a2565b6112ba816118db565b840191505092915050565b60006112d0826116ad565b6112da8185611716565b93506112ea8185602086016117a2565b80840191505092915050565b6000611303602683611705565b915061130e826118f9565b604082019050919050565b6000611326600f83611705565b915061133182611948565b602082019050919050565b6000611349602583611705565b915061135482611971565b604082019050919050565b600061136c602083611705565b9150611377826119c0565b602082019050919050565b600061138f601383611705565b915061139a826119e9565b602082019050919050565b6113ae81611789565b82525050565b60006113c08285611125565b6014820191506113d082846112c5565b91508190509392505050565b60006113e8828461122d565b60208201915081905092915050565b600060208201905061140c6000830184611116565b92915050565b60006060820190506114276000830186611116565b6114346020830185611116565b61144160408301846113a5565b949350505050565b600060408201905061145e6000830185611116565b61146b602083018461121e565b9392505050565b6000602082019050818103600083015261148c818461113c565b905092915050565b600060208201905081810360008301526114ae818461119a565b905092915050565b60006020820190506114cb600083018461121e565b92915050565b60006020820190506114e66000830184611244565b92915050565b60006020820190508181036000830152611506818461128c565b905092915050565b60006020820190508181036000830152611527816112f6565b9050919050565b6000602082019050818103600083015261154781611319565b9050919050565b600060208201905081810360008301526115678161133c565b9050919050565b600060208201905081810360008301526115878161135f565b9050919050565b600060208201905081810360008301526115a781611382565b9050919050565b60006020820190506115c360008301846113a5565b92915050565b60006115d36115e4565b90506115df82826117d5565b919050565b6000604051905090565b600067ffffffffffffffff821115611609576116086118ac565b5b602082029050602081019050919050565b600067ffffffffffffffff821115611635576116346118ac565b5b602082029050602081019050919050565b600067ffffffffffffffff821115611661576116606118ac565b5b61166a826118db565b9050602081019050919050565b6000819050602082019050919050565b6000819050602082019050919050565b600081519050919050565b600081519050919050565b600081519050919050565b6000602082019050919050565b6000602082019050919050565b600082825260208201905092915050565b600082825260208201905092915050565b600082825260208201905092915050565b600082825260208201905092915050565b600081905092915050565b600061172c82611769565b9050919050565b6000819050919050565b60007fffffffff0000000000000000000000000000000000000000000000000000000082169050919050565b600073ffffffffffffffffffffffffffffffffffffffff82169050919050565b6000819050919050565b82818337600083830152505050565b60005b838110156117c05780820151818401526020810190506117a5565b838111156117cf576000848401525b50505050565b6117de826118db565b810181811067ffffffffffffffff821117156117fd576117fc6118ac565b5b80604052505050565b600061181182611789565b91507fffffffffffffffffffffffffffffffffffffffffffffffffffffffffffffffff8214156118445761184361187d565b5b600182019050919050565b600061185a8261186b565b9050919050565b6000819050919050565b6000611876826118ec565b9050919050565b7f4e487b7100000000000000000000000000000000000000000000000000000000600052601160045260246000fd5b7f4e487b7100000000000000000000000000000000000000000000000000000000600052604160045260246000fd5b6000601f19601f8301169050919050565b60008160601b9050919050565b7f4f776e61626c653a206e6577206f776e657220697320746865207a65726f206160008201527f6464726573730000000000000000000000000000000000000000000000000000602082015250565b7f5265776172642065787069726564210000000000000000000000000000000000600082015250565b7f52657761726420776974682074686973206b657920616c726561647920636c6160008201527f696d656421000000000000000000000000000000000000000000000000000000602082015250565b7f4f776e61626c653a2063616c6c6572206973206e6f7420746865206f776e6572600082015250565b7f4b657920646f6573206e6f742065786973742100000000000000000000000000600082015250565b611a1b81611721565b8114611a2657600080fd5b50565b611a3281611733565b8114611a3d57600080fd5b50565b611a4981611789565b8114611a5457600080fd5b5056fea2646970667358221220a84ee328046aab4cc82b5e3ec0711e2216853f7c736904d9fae902d6013e8ded64736f6c63430008040033",
  "linkReferences": {},
  "deployedLinkReferences": {}
}