{
  "_format": "hh-sol-artifact-1",
  "contractName": "NftRewarder",
  "sourceName": "contracts/dev3/nft-rewarder/NftRewarder.sol",
  "abi": [
    {
      "inputs": [
        {
          "internalType": "address",
          "name": "owner",
          "type": "address"
        }
      ],
      "stateMutability": "nonpayable",
      "type": "constructor"
    },
    {
      "anonymous": false,
      "inputs": [
        {
          "indexed": false,
          "internalType": "bytes32",
          "name": "secretHash",
          "type": "bytes32"
        }
      ],
      "name": "AddReward",
      "type": "event"
    },
    {
      "anonymous": false,
      "inputs": [
        {
          "indexed": false,
          "internalType": "address",
          "name": "wallet",
          "type": "address"
        },
        {
          "indexed": false,
          "internalType": "bytes32",
          "name": "secretHash",
          "type": "bytes32"
        }
      ],
      "name": "ClaimReward",
      "type": "event"
    },
    {
      "anonymous": false,
      "inputs": [
        {
          "indexed": true,
          "internalType": "address",
          "name": "previousOwner",
          "type": "address"
        },
        {
          "indexed": true,
          "internalType": "address",
          "name": "newOwner",
          "type": "address"
        }
      ],
      "name": "OwnershipTransferred",
      "type": "event"
    },
    {
      "inputs": [
        {
          "components": [
            {
              "internalType": "bytes32",
              "name": "secretHash",
              "type": "bytes32"
            },
            {
              "internalType": "address",
              "name": "token",
              "type": "address"
            },
            {
              "internalType": "uint256",
              "name": "tokenId",
              "type": "uint256"
            },
            {
              "internalType": "uint256",
              "name": "expiresAt",
              "type": "uint256"
            }
          ],
          "internalType": "struct NftRewarder.Reward[]",
          "name": "_rewards",
          "type": "tuple[]"
        }
      ],
      "name": "addRewards",
      "outputs": [],
      "stateMutability": "nonpayable",
      "type": "function"
    },
    {
      "inputs": [
        {
          "internalType": "string",
          "name": "key",
          "type": "string"
        }
      ],
      "name": "calculateHash",
      "outputs": [
        {
          "internalType": "bytes32",
          "name": "",
          "type": "bytes32"
        }
      ],
      "stateMutability": "view",
      "type": "function"
    },
    {
      "inputs": [
        {
          "internalType": "string[]",
          "name": "keys",
          "type": "string[]"
        }
      ],
      "name": "calculateHashes",
      "outputs": [
        {
          "internalType": "bytes32[]",
          "name": "",
          "type": "bytes32[]"
        }
      ],
      "stateMutability": "view",
      "type": "function"
    },
    {
      "inputs": [
        {
          "internalType": "string",
          "name": "key",
          "type": "string"
        }
      ],
      "name": "claimReward",
      "outputs": [],
      "stateMutability": "nonpayable",
      "type": "function"
    },
    {
      "inputs": [
        {
          "internalType": "address",
          "name": "operator",
          "type": "address"
        },
        {
          "internalType": "address",
          "name": "from",
          "type": "address"
        },
        {
          "internalType": "uint256",
          "name": "tokenId",
          "type": "uint256"
        },
        {
          "internalType": "bytes",
          "name": "data",
          "type": "bytes"
        }
      ],
      "name": "onERC721Received",
      "outputs": [
        {
          "internalType": "bytes4",
          "name": "",
          "type": "bytes4"
        }
      ],
      "stateMutability": "nonpayable",
      "type": "function"
    },
    {
      "inputs": [],
      "name": "owner",
      "outputs": [
        {
          "internalType": "address",
          "name": "",
          "type": "address"
        }
      ],
      "stateMutability": "view",
      "type": "function"
    },
    {
      "inputs": [],
      "name": "renounceOwnership",
      "outputs": [],
      "stateMutability": "nonpayable",
      "type": "function"
    },
    {
      "inputs": [
        {
          "internalType": "address",
          "name": "newOwner",
          "type": "address"
        }
      ],
      "name": "transferOwnership",
      "outputs": [],
      "stateMutability": "nonpayable",
      "type": "function"
    }
  ],
  "bytecode": "0x60806040523480156200001157600080fd5b50604051620018ad380380620018ad833981810160405281019062000037919062000152565b620000576200004b6200006f60201b60201c565b6200007760201b60201c565b62000068816200007760201b60201c565b50620001cc565b600033905090565b60008060009054906101000a900473ffffffffffffffffffffffffffffffffffffffff169050816000806101000a81548173ffffffffffffffffffffffffffffffffffffffff021916908373ffffffffffffffffffffffffffffffffffffffff1602179055508173ffffffffffffffffffffffffffffffffffffffff168173ffffffffffffffffffffffffffffffffffffffff167f8be0079c531659141344cd1fd0a4f28419497f9722a3daafe3b4186f6b6457e060405160405180910390a35050565b6000815190506200014c81620001b2565b92915050565b6000602082840312156200016557600080fd5b600062000175848285016200013b565b91505092915050565b60006200018b8262000192565b9050919050565b600073ffffffffffffffffffffffffffffffffffffffff82169050919050565b620001bd816200017e565b8114620001c957600080fd5b50565b6116d180620001dc6000396000f3fe608060405234801561001057600080fd5b50600436106100885760003560e01c80638da5cb5b1161005b5780638da5cb5b14610113578063a8cbcecd14610131578063bb8c979714610161578063f2fde38b1461017d57610088565b8063150b7a021461008d578063236f3f82146100bd578063715018a6146100ed5780637cb41b7d146100f7575b600080fd5b6100a760048036038101906100a29190610db0565b610199565b6040516100b4919061118b565b60405180910390f35b6100d760048036038101906100d29190610e30565b6101ae565b6040516100e4919061114e565b60405180910390f35b6100f56102db565b005b610111600480360381019061010c9190610e71565b610363565b005b61011b61057d565b60405161012891906110d3565b60405180910390f35b61014b60048036038101906101469190610eb2565b6105a6565b6040516101589190611170565b60405180910390f35b61017b60048036038101906101769190610eb2565b6105d8565b005b61019760048036038101906101929190610d5e565b6108da565b005b600063150b7a0260e01b905095945050505050565b60606000825167ffffffffffffffff8111156101f3577f4e487b7100000000000000000000000000000000000000000000000000000000600052604160045260246000fd5b6040519080825280602002602001820160405280156102215781602001602082028036833780820191505090505b50905060005b83518110156102d15761027984828151811061026c577f4e487b7100000000000000000000000000000000000000000000000000000000600052603260045260246000fd5b60200260200101516105a6565b8282815181106102b2577f4e487b7100000000000000000000000000000000000000000000000000000000600052603260045260246000fd5b60200260200101818152505080806102c990611454565b915050610227565b5080915050919050565b6102e36109d2565b73ffffffffffffffffffffffffffffffffffffffff1661030161057d565b73ffffffffffffffffffffffffffffffffffffffff1614610357576040517f08c379a000000000000000000000000000000000000000000000000000000000815260040161034e90611206565b60405180910390fd5b61036160006109da565b565b61036b6109d2565b73ffffffffffffffffffffffffffffffffffffffff1661038961057d565b73ffffffffffffffffffffffffffffffffffffffff16146103df576040517f08c379a00000000000000000000000000000000000000000000000000000000081526004016103d690611206565b60405180910390fd5b60005b815181101561057957818181518110610424577f4e487b7100000000000000000000000000000000000000000000000000000000600052603260045260246000fd5b602002602001015160016000848481518110610469577f4e487b7100000000000000000000000000000000000000000000000000000000600052603260045260246000fd5b60200260200101516000015181526020019081526020016000206000820151816000015560208201518160010160006101000a81548173ffffffffffffffffffffffffffffffffffffffff021916908373ffffffffffffffffffffffffffffffffffffffff16021790555060408201518160020155606082015181600301559050507f629ea08d76ff1e0d87ea95720bd111dd169a3a956e1cd7646a4ed07289ae482c828281518110610545577f4e487b7100000000000000000000000000000000000000000000000000000000600052603260045260246000fd5b60200260200101516000015160405161055e9190611170565b60405180910390a1808061057190611454565b9150506103e2565b5050565b60008060009054906101000a900473ffffffffffffffffffffffffffffffffffffffff16905090565b600030826040516020016105bb9291906110ab565b604051602081830303815290604052805190602001209050919050565b60006105e3826105a6565b9050600060016000838152602001908152602001600020604051806080016040529081600082015481526020016001820160009054906101000a900473ffffffffffffffffffffffffffffffffffffffff1673ffffffffffffffffffffffffffffffffffffffff1673ffffffffffffffffffffffffffffffffffffffff168152602001600282015481526020016003820154815250509050818160000151146106c1576040517f08c379a00000000000000000000000000000000000000000000000000000000081526004016106b890611226565b60405180910390fd5b6002600083815260200190815260200160002060009054906101000a900460ff1615610722576040517f08c379a0000000000000000000000000000000000000000000000000000000008152600401610719906111e6565b60405180910390fd5b8060600151421115610769576040517f08c379a0000000000000000000000000000000000000000000000000000000008152600401610760906111c6565b60405180910390fd5b60016002600084815260200190815260200160002060006101000a81548160ff021916908315150217905550806020015173ffffffffffffffffffffffffffffffffffffffff166342842e0e826020015173ffffffffffffffffffffffffffffffffffffffff16636352211e84604001516040518263ffffffff1660e01b81526004016107f69190611246565b60206040518083038186803b15801561080e57600080fd5b505afa158015610822573d6000803e3d6000fd5b505050506040513d601f19601f820116820180604052508101906108469190610d87565b3384604001516040518463ffffffff1660e01b815260040161086a939291906110ee565b600060405180830381600087803b15801561088457600080fd5b505af1158015610898573d6000803e3d6000fd5b505050507f4da6997135913dddcbfb2193077c01652806ff6fc265328a2ce57d006e78cbd833836040516108cd929190611125565b60405180910390a1505050565b6108e26109d2565b73ffffffffffffffffffffffffffffffffffffffff1661090061057d565b73ffffffffffffffffffffffffffffffffffffffff1614610956576040517f08c379a000000000000000000000000000000000000000000000000000000000815260040161094d90611206565b60405180910390fd5b600073ffffffffffffffffffffffffffffffffffffffff168173ffffffffffffffffffffffffffffffffffffffff1614156109c6576040517f08c379a00000000000000000000000000000000000000000000000000000000081526004016109bd906111a6565b60405180910390fd5b6109cf816109da565b50565b600033905090565b60008060009054906101000a900473ffffffffffffffffffffffffffffffffffffffff169050816000806101000a81548173ffffffffffffffffffffffffffffffffffffffff021916908373ffffffffffffffffffffffffffffffffffffffff1602179055508173ffffffffffffffffffffffffffffffffffffffff168173ffffffffffffffffffffffffffffffffffffffff167f8be0079c531659141344cd1fd0a4f28419497f9722a3daafe3b4186f6b6457e060405160405180910390a35050565b6000610ab1610aac84611286565b611261565b90508083825260208201905082856020860282011115610ad057600080fd5b60005b85811015610b1a57813567ffffffffffffffff811115610af257600080fd5b808601610aff8982610cab565b85526020850194506020840193505050600181019050610ad3565b5050509392505050565b6000610b37610b32846112b2565b611261565b90508083825260208201905082856080860282011115610b5657600080fd5b60005b85811015610b865781610b6c8882610cd5565b845260208401935060808301925050600181019050610b59565b5050509392505050565b6000610ba3610b9e846112de565b611261565b905082815260208101848484011115610bbb57600080fd5b610bc68482856113e1565b509392505050565b600081359050610bdd81611656565b92915050565b600081519050610bf281611656565b92915050565b600082601f830112610c0957600080fd5b8135610c19848260208601610a9e565b91505092915050565b600082601f830112610c3357600080fd5b8135610c43848260208601610b24565b91505092915050565b600081359050610c5b8161166d565b92915050565b60008083601f840112610c7357600080fd5b8235905067ffffffffffffffff811115610c8c57600080fd5b602083019150836001820283011115610ca457600080fd5b9250929050565b600082601f830112610cbc57600080fd5b8135610ccc848260208601610b90565b91505092915050565b600060808284031215610ce757600080fd5b610cf16080611261565b90506000610d0184828501610c4c565b6000830152506020610d1584828501610bce565b6020830152506040610d2984828501610d49565b6040830152506060610d3d84828501610d49565b60608301525092915050565b600081359050610d5881611684565b92915050565b600060208284031215610d7057600080fd5b6000610d7e84828501610bce565b91505092915050565b600060208284031215610d9957600080fd5b6000610da784828501610be3565b91505092915050565b600080600080600060808688031215610dc857600080fd5b6000610dd688828901610bce565b9550506020610de788828901610bce565b9450506040610df888828901610d49565b935050606086013567ffffffffffffffff811115610e1557600080fd5b610e2188828901610c61565b92509250509295509295909350565b600060208284031215610e4257600080fd5b600082013567ffffffffffffffff811115610e5c57600080fd5b610e6884828501610bf8565b91505092915050565b600060208284031215610e8357600080fd5b600082013567ffffffffffffffff811115610e9d57600080fd5b610ea984828501610c22565b91505092915050565b600060208284031215610ec457600080fd5b600082013567ffffffffffffffff811115610ede57600080fd5b610eea84828501610cab565b91505092915050565b6000610eff8383610f8f565b60208301905092915050565b610f148161136f565b82525050565b610f2b610f268261136f565b61149d565b82525050565b6000610f3c8261131f565b610f468185611342565b9350610f518361130f565b8060005b83811015610f82578151610f698882610ef3565b9750610f7483611335565b925050600181019050610f55565b5085935050505092915050565b610f9881611381565b82525050565b610fa781611381565b82525050565b610fb68161138b565b82525050565b6000610fc78261132a565b610fd18185611364565b9350610fe18185602086016113f0565b80840191505092915050565b6000610ffa602683611353565b91506110058261153d565b604082019050919050565b600061101d600f83611353565b91506110288261158c565b602082019050919050565b6000611040602583611353565b915061104b826115b5565b604082019050919050565b6000611063602083611353565b915061106e82611604565b602082019050919050565b6000611086601383611353565b91506110918261162d565b602082019050919050565b6110a5816113d7565b82525050565b60006110b78285610f1a565b6014820191506110c78284610fbc565b91508190509392505050565b60006020820190506110e86000830184610f0b565b92915050565b60006060820190506111036000830186610f0b565b6111106020830185610f0b565b61111d604083018461109c565b949350505050565b600060408201905061113a6000830185610f0b565b6111476020830184610f9e565b9392505050565b600060208201905081810360008301526111688184610f31565b905092915050565b60006020820190506111856000830184610f9e565b92915050565b60006020820190506111a06000830184610fad565b92915050565b600060208201905081810360008301526111bf81610fed565b9050919050565b600060208201905081810360008301526111df81611010565b9050919050565b600060208201905081810360008301526111ff81611033565b9050919050565b6000602082019050818103600083015261121f81611056565b9050919050565b6000602082019050818103600083015261123f81611079565b9050919050565b600060208201905061125b600083018461109c565b92915050565b600061126b61127c565b90506112778282611423565b919050565b6000604051905090565b600067ffffffffffffffff8211156112a1576112a06114f0565b5b602082029050602081019050919050565b600067ffffffffffffffff8211156112cd576112cc6114f0565b5b602082029050602081019050919050565b600067ffffffffffffffff8211156112f9576112f86114f0565b5b6113028261151f565b9050602081019050919050565b6000819050602082019050919050565b600081519050919050565b600081519050919050565b6000602082019050919050565b600082825260208201905092915050565b600082825260208201905092915050565b600081905092915050565b600061137a826113b7565b9050919050565b6000819050919050565b60007fffffffff0000000000000000000000000000000000000000000000000000000082169050919050565b600073ffffffffffffffffffffffffffffffffffffffff82169050919050565b6000819050919050565b82818337600083830152505050565b60005b8381101561140e5780820151818401526020810190506113f3565b8381111561141d576000848401525b50505050565b61142c8261151f565b810181811067ffffffffffffffff8211171561144b5761144a6114f0565b5b80604052505050565b600061145f826113d7565b91507fffffffffffffffffffffffffffffffffffffffffffffffffffffffffffffffff821415611492576114916114c1565b5b600182019050919050565b60006114a8826114af565b9050919050565b60006114ba82611530565b9050919050565b7f4e487b7100000000000000000000000000000000000000000000000000000000600052601160045260246000fd5b7f4e487b7100000000000000000000000000000000000000000000000000000000600052604160045260246000fd5b6000601f19601f8301169050919050565b60008160601b9050919050565b7f4f776e61626c653a206e6577206f776e657220697320746865207a65726f206160008201527f6464726573730000000000000000000000000000000000000000000000000000602082015250565b7f5265776172642065787069726564210000000000000000000000000000000000600082015250565b7f52657761726420776974682074686973206b657920616c726561647920636c6160008201527f696d656421000000000000000000000000000000000000000000000000000000602082015250565b7f4f776e61626c653a2063616c6c6572206973206e6f7420746865206f776e6572600082015250565b7f4b657920646f6573206e6f742065786973742100000000000000000000000000600082015250565b61165f8161136f565b811461166a57600080fd5b50565b61167681611381565b811461168157600080fd5b50565b61168d816113d7565b811461169857600080fd5b5056fea2646970667358221220deb2280cea944d0494c6e5b89559e9c950c20eb1965c161ea068b6d6ba5aed6e64736f6c63430008040033",
  "linkReferences": {},
  "deployedLinkReferences": {}
}