{
  "_format": "hh-sol-artifact-1",
  "contractName": "NftRewarder",
  "sourceName": "contracts/dev3/nft-rewarder/NftRewarder.sol",
  "abi": [
    {
      "inputs": [
        {
          "internalType": "address",
          "name": "owner",
          "type": "address"
        }
      ],
      "stateMutability": "nonpayable",
      "type": "constructor"
    },
    {
      "anonymous": false,
      "inputs": [
        {
          "indexed": false,
          "internalType": "bytes32",
          "name": "secretHash",
          "type": "bytes32"
        }
      ],
      "name": "AddReward",
      "type": "event"
    },
    {
      "anonymous": false,
      "inputs": [
        {
          "indexed": false,
          "internalType": "address",
          "name": "wallet",
          "type": "address"
        },
        {
          "indexed": false,
          "internalType": "bytes32",
          "name": "secretHash",
          "type": "bytes32"
        }
      ],
      "name": "ClaimReward",
      "type": "event"
    },
    {
      "anonymous": false,
      "inputs": [
        {
          "indexed": true,
          "internalType": "address",
          "name": "previousOwner",
          "type": "address"
        },
        {
          "indexed": true,
          "internalType": "address",
          "name": "newOwner",
          "type": "address"
        }
      ],
      "name": "OwnershipTransferred",
      "type": "event"
    },
    {
      "inputs": [
        {
          "components": [
            {
              "internalType": "bytes32",
              "name": "secretHash",
              "type": "bytes32"
            },
            {
              "internalType": "address",
              "name": "token",
              "type": "address"
            },
            {
              "internalType": "uint256",
              "name": "tokenId",
              "type": "uint256"
            },
            {
              "internalType": "uint256",
              "name": "expiresAt",
              "type": "uint256"
            }
          ],
          "internalType": "struct NftRewarder.Reward[]",
          "name": "_rewards",
          "type": "tuple[]"
        }
      ],
      "name": "addRewards",
      "outputs": [],
      "stateMutability": "nonpayable",
      "type": "function"
    },
    {
      "inputs": [
        {
          "internalType": "string",
          "name": "key",
          "type": "string"
        }
      ],
      "name": "calculateHash",
      "outputs": [
        {
          "internalType": "bytes32",
          "name": "",
          "type": "bytes32"
        }
      ],
      "stateMutability": "view",
      "type": "function"
    },
    {
      "inputs": [
        {
          "internalType": "string[]",
          "name": "keys",
          "type": "string[]"
        }
      ],
      "name": "calculateHashes",
      "outputs": [
        {
          "internalType": "bytes32[]",
          "name": "",
          "type": "bytes32[]"
        }
      ],
      "stateMutability": "view",
      "type": "function"
    },
    {
      "inputs": [
        {
          "internalType": "string",
          "name": "key",
          "type": "string"
        }
      ],
      "name": "claimReward",
      "outputs": [],
      "stateMutability": "nonpayable",
      "type": "function"
    },
    {
      "inputs": [],
      "name": "owner",
      "outputs": [
        {
          "internalType": "address",
          "name": "",
          "type": "address"
        }
      ],
      "stateMutability": "view",
      "type": "function"
    },
    {
      "inputs": [],
      "name": "renounceOwnership",
      "outputs": [],
      "stateMutability": "nonpayable",
      "type": "function"
    },
    {
      "inputs": [
        {
          "internalType": "address",
          "name": "newOwner",
          "type": "address"
        }
      ],
      "name": "transferOwnership",
      "outputs": [],
      "stateMutability": "nonpayable",
      "type": "function"
    }
  ],
  "bytecode": "0x60806040523480156200001157600080fd5b506040516200173d3803806200173d833981810160405281019062000037919062000152565b620000576200004b6200006f60201b60201c565b6200007760201b60201c565b62000068816200007760201b60201c565b50620001cc565b600033905090565b60008060009054906101000a900473ffffffffffffffffffffffffffffffffffffffff169050816000806101000a81548173ffffffffffffffffffffffffffffffffffffffff021916908373ffffffffffffffffffffffffffffffffffffffff1602179055508173ffffffffffffffffffffffffffffffffffffffff168173ffffffffffffffffffffffffffffffffffffffff167f8be0079c531659141344cd1fd0a4f28419497f9722a3daafe3b4186f6b6457e060405160405180910390a35050565b6000815190506200014c81620001b2565b92915050565b6000602082840312156200016557600080fd5b600062000175848285016200013b565b91505092915050565b60006200018b8262000192565b9050919050565b600073ffffffffffffffffffffffffffffffffffffffff82169050919050565b620001bd816200017e565b8114620001c957600080fd5b50565b61156180620001dc6000396000f3fe608060405234801561001057600080fd5b506004361061007d5760003560e01c80638da5cb5b1161005b5780638da5cb5b146100d8578063a8cbcecd146100f6578063bb8c979714610126578063f2fde38b146101425761007d565b8063236f3f8214610082578063715018a6146100b25780637cb41b7d146100bc575b600080fd5b61009c60048036038101906100979190610d16565b61015e565b6040516100a99190611025565b60405180910390f35b6100ba61028b565b005b6100d660048036038101906100d19190610d57565b610313565b005b6100e061052d565b6040516100ed9190610faa565b60405180910390f35b610110600480360381019061010b9190610d98565b610556565b60405161011d9190611047565b60405180910390f35b610140600480360381019061013b9190610d98565b610588565b005b61015c60048036038101906101579190610cc4565b61088a565b005b60606000825167ffffffffffffffff8111156101a3577f4e487b7100000000000000000000000000000000000000000000000000000000600052604160045260246000fd5b6040519080825280602002602001820160405280156101d15781602001602082028036833780820191505090505b50905060005b83518110156102815761022984828151811061021c577f4e487b7100000000000000000000000000000000000000000000000000000000600052603260045260246000fd5b6020026020010151610556565b828281518110610262577f4e487b7100000000000000000000000000000000000000000000000000000000600052603260045260246000fd5b6020026020010181815250508080610279906112e4565b9150506101d7565b5080915050919050565b610293610982565b73ffffffffffffffffffffffffffffffffffffffff166102b161052d565b73ffffffffffffffffffffffffffffffffffffffff1614610307576040517f08c379a00000000000000000000000000000000000000000000000000000000081526004016102fe906110c2565b60405180910390fd5b610311600061098a565b565b61031b610982565b73ffffffffffffffffffffffffffffffffffffffff1661033961052d565b73ffffffffffffffffffffffffffffffffffffffff161461038f576040517f08c379a0000000000000000000000000000000000000000000000000000000008152600401610386906110c2565b60405180910390fd5b60005b8151811015610529578181815181106103d4577f4e487b7100000000000000000000000000000000000000000000000000000000600052603260045260246000fd5b602002602001015160016000848481518110610419577f4e487b7100000000000000000000000000000000000000000000000000000000600052603260045260246000fd5b60200260200101516000015181526020019081526020016000206000820151816000015560208201518160010160006101000a81548173ffffffffffffffffffffffffffffffffffffffff021916908373ffffffffffffffffffffffffffffffffffffffff16021790555060408201518160020155606082015181600301559050507f629ea08d76ff1e0d87ea95720bd111dd169a3a956e1cd7646a4ed07289ae482c8282815181106104f5577f4e487b7100000000000000000000000000000000000000000000000000000000600052603260045260246000fd5b60200260200101516000015160405161050e9190611047565b60405180910390a18080610521906112e4565b915050610392565b5050565b60008060009054906101000a900473ffffffffffffffffffffffffffffffffffffffff16905090565b6000308260405160200161056b929190610f82565b604051602081830303815290604052805190602001209050919050565b600061059382610556565b9050600060016000838152602001908152602001600020604051806080016040529081600082015481526020016001820160009054906101000a900473ffffffffffffffffffffffffffffffffffffffff1673ffffffffffffffffffffffffffffffffffffffff1673ffffffffffffffffffffffffffffffffffffffff16815260200160028201548152602001600382015481525050905081816000015114610671576040517f08c379a0000000000000000000000000000000000000000000000000000000008152600401610668906110e2565b60405180910390fd5b6002600083815260200190815260200160002060009054906101000a900460ff16156106d2576040517f08c379a00000000000000000000000000000000000000000000000000000000081526004016106c9906110a2565b60405180910390fd5b8060600151421115610719576040517f08c379a000000000000000000000000000000000000000000000000000000000815260040161071090611082565b60405180910390fd5b60016002600084815260200190815260200160002060006101000a81548160ff021916908315150217905550806020015173ffffffffffffffffffffffffffffffffffffffff166342842e0e826020015173ffffffffffffffffffffffffffffffffffffffff16636352211e84604001516040518263ffffffff1660e01b81526004016107a69190611102565b60206040518083038186803b1580156107be57600080fd5b505afa1580156107d2573d6000803e3d6000fd5b505050506040513d601f19601f820116820180604052508101906107f69190610ced565b3384604001516040518463ffffffff1660e01b815260040161081a93929190610fc5565b600060405180830381600087803b15801561083457600080fd5b505af1158015610848573d6000803e3d6000fd5b505050507f4da6997135913dddcbfb2193077c01652806ff6fc265328a2ce57d006e78cbd8338360405161087d929190610ffc565b60405180910390a1505050565b610892610982565b73ffffffffffffffffffffffffffffffffffffffff166108b061052d565b73ffffffffffffffffffffffffffffffffffffffff1614610906576040517f08c379a00000000000000000000000000000000000000000000000000000000081526004016108fd906110c2565b60405180910390fd5b600073ffffffffffffffffffffffffffffffffffffffff168173ffffffffffffffffffffffffffffffffffffffff161415610976576040517f08c379a000000000000000000000000000000000000000000000000000000000815260040161096d90611062565b60405180910390fd5b61097f8161098a565b50565b600033905090565b60008060009054906101000a900473ffffffffffffffffffffffffffffffffffffffff169050816000806101000a81548173ffffffffffffffffffffffffffffffffffffffff021916908373ffffffffffffffffffffffffffffffffffffffff1602179055508173ffffffffffffffffffffffffffffffffffffffff168173ffffffffffffffffffffffffffffffffffffffff167f8be0079c531659141344cd1fd0a4f28419497f9722a3daafe3b4186f6b6457e060405160405180910390a35050565b6000610a61610a5c84611142565b61111d565b90508083825260208201905082856020860282011115610a8057600080fd5b60005b85811015610aca57813567ffffffffffffffff811115610aa257600080fd5b808601610aaf8982610c11565b85526020850194506020840193505050600181019050610a83565b5050509392505050565b6000610ae7610ae28461116e565b61111d565b90508083825260208201905082856080860282011115610b0657600080fd5b60005b85811015610b365781610b1c8882610c3b565b845260208401935060808301925050600181019050610b09565b5050509392505050565b6000610b53610b4e8461119a565b61111d565b905082815260208101848484011115610b6b57600080fd5b610b76848285611271565b509392505050565b600081359050610b8d816114e6565b92915050565b600081519050610ba2816114e6565b92915050565b600082601f830112610bb957600080fd5b8135610bc9848260208601610a4e565b91505092915050565b600082601f830112610be357600080fd5b8135610bf3848260208601610ad4565b91505092915050565b600081359050610c0b816114fd565b92915050565b600082601f830112610c2257600080fd5b8135610c32848260208601610b40565b91505092915050565b600060808284031215610c4d57600080fd5b610c57608061111d565b90506000610c6784828501610bfc565b6000830152506020610c7b84828501610b7e565b6020830152506040610c8f84828501610caf565b6040830152506060610ca384828501610caf565b60608301525092915050565b600081359050610cbe81611514565b92915050565b600060208284031215610cd657600080fd5b6000610ce484828501610b7e565b91505092915050565b600060208284031215610cff57600080fd5b6000610d0d84828501610b93565b91505092915050565b600060208284031215610d2857600080fd5b600082013567ffffffffffffffff811115610d4257600080fd5b610d4e84828501610ba8565b91505092915050565b600060208284031215610d6957600080fd5b600082013567ffffffffffffffff811115610d8357600080fd5b610d8f84828501610bd2565b91505092915050565b600060208284031215610daa57600080fd5b600082013567ffffffffffffffff811115610dc457600080fd5b610dd084828501610c11565b91505092915050565b6000610de58383610e75565b60208301905092915050565b610dfa8161122b565b82525050565b610e11610e0c8261122b565b61132d565b82525050565b6000610e22826111db565b610e2c81856111fe565b9350610e37836111cb565b8060005b83811015610e68578151610e4f8882610dd9565b9750610e5a836111f1565b925050600181019050610e3b565b5085935050505092915050565b610e7e8161123d565b82525050565b610e8d8161123d565b82525050565b6000610e9e826111e6565b610ea88185611220565b9350610eb8818560208601611280565b80840191505092915050565b6000610ed160268361120f565b9150610edc826113cd565b604082019050919050565b6000610ef4600f8361120f565b9150610eff8261141c565b602082019050919050565b6000610f1760258361120f565b9150610f2282611445565b604082019050919050565b6000610f3a60208361120f565b9150610f4582611494565b602082019050919050565b6000610f5d60138361120f565b9150610f68826114bd565b602082019050919050565b610f7c81611267565b82525050565b6000610f8e8285610e00565b601482019150610f9e8284610e93565b91508190509392505050565b6000602082019050610fbf6000830184610df1565b92915050565b6000606082019050610fda6000830186610df1565b610fe76020830185610df1565b610ff46040830184610f73565b949350505050565b60006040820190506110116000830185610df1565b61101e6020830184610e84565b9392505050565b6000602082019050818103600083015261103f8184610e17565b905092915050565b600060208201905061105c6000830184610e84565b92915050565b6000602082019050818103600083015261107b81610ec4565b9050919050565b6000602082019050818103600083015261109b81610ee7565b9050919050565b600060208201905081810360008301526110bb81610f0a565b9050919050565b600060208201905081810360008301526110db81610f2d565b9050919050565b600060208201905081810360008301526110fb81610f50565b9050919050565b60006020820190506111176000830184610f73565b92915050565b6000611127611138565b905061113382826112b3565b919050565b6000604051905090565b600067ffffffffffffffff82111561115d5761115c611380565b5b602082029050602081019050919050565b600067ffffffffffffffff82111561118957611188611380565b5b602082029050602081019050919050565b600067ffffffffffffffff8211156111b5576111b4611380565b5b6111be826113af565b9050602081019050919050565b6000819050602082019050919050565b600081519050919050565b600081519050919050565b6000602082019050919050565b600082825260208201905092915050565b600082825260208201905092915050565b600081905092915050565b600061123682611247565b9050919050565b6000819050919050565b600073ffffffffffffffffffffffffffffffffffffffff82169050919050565b6000819050919050565b82818337600083830152505050565b60005b8381101561129e578082015181840152602081019050611283565b838111156112ad576000848401525b50505050565b6112bc826113af565b810181811067ffffffffffffffff821117156112db576112da611380565b5b80604052505050565b60006112ef82611267565b91507fffffffffffffffffffffffffffffffffffffffffffffffffffffffffffffffff82141561132257611321611351565b5b600182019050919050565b60006113388261133f565b9050919050565b600061134a826113c0565b9050919050565b7f4e487b7100000000000000000000000000000000000000000000000000000000600052601160045260246000fd5b7f4e487b7100000000000000000000000000000000000000000000000000000000600052604160045260246000fd5b6000601f19601f8301169050919050565b60008160601b9050919050565b7f4f776e61626c653a206e6577206f776e657220697320746865207a65726f206160008201527f6464726573730000000000000000000000000000000000000000000000000000602082015250565b7f5265776172642065787069726564210000000000000000000000000000000000600082015250565b7f52657761726420776974682074686973206b657920616c726561647920636c6160008201527f696d656421000000000000000000000000000000000000000000000000000000602082015250565b7f4f776e61626c653a2063616c6c6572206973206e6f7420746865206f776e6572600082015250565b7f4b657920646f6573206e6f742065786973742100000000000000000000000000600082015250565b6114ef8161122b565b81146114fa57600080fd5b50565b6115068161123d565b811461151157600080fd5b50565b61151d81611267565b811461152857600080fd5b5056fea2646970667358221220161cff71ca09a933f8013d0de2fb97ce97517958abe309d706ec119c637330bf64736f6c63430008040033",
  "linkReferences": {},
  "deployedLinkReferences": {}
}