{
  "_format": "hh-sol-artifact-1",
  "contractName": "NftRewarder",
  "sourceName": "contracts/dev3/nft-rewarder/NftRewarder.sol",
  "abi": [
    {
      "inputs": [
        {
          "internalType": "address",
          "name": "owner",
          "type": "address"
        }
      ],
      "stateMutability": "nonpayable",
      "type": "constructor"
    },
    {
      "anonymous": false,
      "inputs": [
        {
          "indexed": false,
          "internalType": "bytes32",
          "name": "secretHash",
          "type": "bytes32"
        }
      ],
      "name": "AddReward",
      "type": "event"
    },
    {
      "anonymous": false,
      "inputs": [
        {
          "indexed": false,
          "internalType": "address",
          "name": "wallet",
          "type": "address"
        },
        {
          "indexed": false,
          "internalType": "bytes32",
          "name": "secretHash",
          "type": "bytes32"
        }
      ],
      "name": "ClaimReward",
      "type": "event"
    },
    {
      "anonymous": false,
      "inputs": [
        {
          "indexed": true,
          "internalType": "address",
          "name": "previousOwner",
          "type": "address"
        },
        {
          "indexed": true,
          "internalType": "address",
          "name": "newOwner",
          "type": "address"
        }
      ],
      "name": "OwnershipTransferred",
      "type": "event"
    },
    {
      "inputs": [
        {
          "components": [
            {
              "internalType": "bytes32",
              "name": "secretHash",
              "type": "bytes32"
            },
            {
              "internalType": "address",
              "name": "token",
              "type": "address"
            },
            {
              "internalType": "uint256",
              "name": "tokenId",
              "type": "uint256"
            },
            {
              "internalType": "uint256",
              "name": "expiresAt",
              "type": "uint256"
            }
          ],
          "internalType": "struct NftRewarder.Reward[]",
          "name": "_rewards",
          "type": "tuple[]"
        }
      ],
      "name": "addRewards",
      "outputs": [],
      "stateMutability": "nonpayable",
      "type": "function"
    },
    {
      "inputs": [
        {
          "internalType": "string",
          "name": "key",
          "type": "string"
        }
      ],
      "name": "claimReward",
      "outputs": [],
      "stateMutability": "nonpayable",
      "type": "function"
    },
    {
      "inputs": [],
      "name": "owner",
      "outputs": [
        {
          "internalType": "address",
          "name": "",
          "type": "address"
        }
      ],
      "stateMutability": "view",
      "type": "function"
    },
    {
      "inputs": [],
      "name": "renounceOwnership",
      "outputs": [],
      "stateMutability": "nonpayable",
      "type": "function"
    },
    {
      "inputs": [
        {
          "internalType": "address",
          "name": "newOwner",
          "type": "address"
        }
      ],
      "name": "transferOwnership",
      "outputs": [],
      "stateMutability": "nonpayable",
      "type": "function"
    }
  ],
  "bytecode": "0x60806040523480156200001157600080fd5b506040516200130e3803806200130e833981810160405281019062000037919062000152565b620000576200004b6200006f60201b60201c565b6200007760201b60201c565b62000068816200007760201b60201c565b50620001cc565b600033905090565b60008060009054906101000a900473ffffffffffffffffffffffffffffffffffffffff169050816000806101000a81548173ffffffffffffffffffffffffffffffffffffffff021916908373ffffffffffffffffffffffffffffffffffffffff1602179055508173ffffffffffffffffffffffffffffffffffffffff168173ffffffffffffffffffffffffffffffffffffffff167f8be0079c531659141344cd1fd0a4f28419497f9722a3daafe3b4186f6b6457e060405160405180910390a35050565b6000815190506200014c81620001b2565b92915050565b6000602082840312156200016557600080fd5b600062000175848285016200013b565b91505092915050565b60006200018b8262000192565b9050919050565b600073ffffffffffffffffffffffffffffffffffffffff82169050919050565b620001bd816200017e565b8114620001c957600080fd5b50565b61113280620001dc6000396000f3fe608060405234801561001057600080fd5b50600436106100575760003560e01c8063715018a61461005c5780637cb41b7d146100665780638da5cb5b14610082578063bb8c9797146100a0578063f2fde38b146100bc575b600080fd5b6100646100d8565b005b610080600480360381019061007b9190610aa7565b610160565b005b61008a61037a565b6040516100979190610d52565b60405180910390f35b6100ba60048036038101906100b59190610ae8565b6103a3565b005b6100d660048036038101906100d19190610a55565b6106cb565b005b6100e06107c3565b73ffffffffffffffffffffffffffffffffffffffff166100fe61037a565b73ffffffffffffffffffffffffffffffffffffffff1614610154576040517f08c379a000000000000000000000000000000000000000000000000000000000815260040161014b90610e48565b60405180910390fd5b61015e60006107cb565b565b6101686107c3565b73ffffffffffffffffffffffffffffffffffffffff1661018661037a565b73ffffffffffffffffffffffffffffffffffffffff16146101dc576040517f08c379a00000000000000000000000000000000000000000000000000000000081526004016101d390610e48565b60405180910390fd5b60005b815181101561037657818181518110610221577f4e487b7100000000000000000000000000000000000000000000000000000000600052603260045260246000fd5b602002602001015160016000848481518110610266577f4e487b7100000000000000000000000000000000000000000000000000000000600052603260045260246000fd5b60200260200101516000015181526020019081526020016000206000820151816000015560208201518160010160006101000a81548173ffffffffffffffffffffffffffffffffffffffff021916908373ffffffffffffffffffffffffffffffffffffffff16021790555060408201518160020155606082015181600301559050507f629ea08d76ff1e0d87ea95720bd111dd169a3a956e1cd7646a4ed07289ae482c828281518110610342577f4e487b7100000000000000000000000000000000000000000000000000000000600052603260045260246000fd5b60200260200101516000015160405161035b9190610dcd565b60405180910390a1808061036e90610fdf565b9150506101df565b5050565b60008060009054906101000a900473ffffffffffffffffffffffffffffffffffffffff16905090565b600030826040516020016103b8929190610d2a565b6040516020818303038152906040529050600081805190602001209050600060016000838152602001908152602001600020604051806080016040529081600082015481526020016001820160009054906101000a900473ffffffffffffffffffffffffffffffffffffffff1673ffffffffffffffffffffffffffffffffffffffff1673ffffffffffffffffffffffffffffffffffffffff168152602001600282015481526020016003820154815250509050818160000151146104b1576040517f08c379a00000000000000000000000000000000000000000000000000000000081526004016104a890610e68565b60405180910390fd5b6002600083815260200190815260200160002060009054906101000a900460ff1615610512576040517f08c379a000000000000000000000000000000000000000000000000000000000815260040161050990610e28565b60405180910390fd5b8060600151421115610559576040517f08c379a000000000000000000000000000000000000000000000000000000000815260040161055090610e08565b60405180910390fd5b60016002600084815260200190815260200160002060006101000a81548160ff021916908315150217905550806020015173ffffffffffffffffffffffffffffffffffffffff166342842e0e826020015173ffffffffffffffffffffffffffffffffffffffff16636352211e84604001516040518263ffffffff1660e01b81526004016105e69190610e88565b60206040518083038186803b1580156105fe57600080fd5b505afa158015610612573d6000803e3d6000fd5b505050506040513d601f19601f820116820180604052508101906106369190610a7e565b3384604001516040518463ffffffff1660e01b815260040161065a93929190610d6d565b600060405180830381600087803b15801561067457600080fd5b505af1158015610688573d6000803e3d6000fd5b505050507f4da6997135913dddcbfb2193077c01652806ff6fc265328a2ce57d006e78cbd833836040516106bd929190610da4565b60405180910390a150505050565b6106d36107c3565b73ffffffffffffffffffffffffffffffffffffffff166106f161037a565b73ffffffffffffffffffffffffffffffffffffffff1614610747576040517f08c379a000000000000000000000000000000000000000000000000000000000815260040161073e90610e48565b60405180910390fd5b600073ffffffffffffffffffffffffffffffffffffffff168173ffffffffffffffffffffffffffffffffffffffff1614156107b7576040517f08c379a00000000000000000000000000000000000000000000000000000000081526004016107ae90610de8565b60405180910390fd5b6107c0816107cb565b50565b600033905090565b60008060009054906101000a900473ffffffffffffffffffffffffffffffffffffffff169050816000806101000a81548173ffffffffffffffffffffffffffffffffffffffff021916908373ffffffffffffffffffffffffffffffffffffffff1602179055508173ffffffffffffffffffffffffffffffffffffffff168173ffffffffffffffffffffffffffffffffffffffff167f8be0079c531659141344cd1fd0a4f28419497f9722a3daafe3b4186f6b6457e060405160405180910390a35050565b60006108a261089d84610ed4565b610ea3565b905080838252602082019050828560808602820111156108c157600080fd5b60005b858110156108f157816108d788826109cc565b8452602084019350608083019250506001810190506108c4565b5050509392505050565b600061090e61090984610f00565b610ea3565b90508281526020810184848401111561092657600080fd5b610931848285610f9d565b509392505050565b600081359050610948816110b7565b92915050565b60008151905061095d816110b7565b92915050565b600082601f83011261097457600080fd5b813561098484826020860161088f565b91505092915050565b60008135905061099c816110ce565b92915050565b600082601f8301126109b357600080fd5b81356109c38482602086016108fb565b91505092915050565b6000608082840312156109de57600080fd5b6109e86080610ea3565b905060006109f88482850161098d565b6000830152506020610a0c84828501610939565b6020830152506040610a2084828501610a40565b6040830152506060610a3484828501610a40565b60608301525092915050565b600081359050610a4f816110e5565b92915050565b600060208284031215610a6757600080fd5b6000610a7584828501610939565b91505092915050565b600060208284031215610a9057600080fd5b6000610a9e8482850161094e565b91505092915050565b600060208284031215610ab957600080fd5b600082013567ffffffffffffffff811115610ad357600080fd5b610adf84828501610963565b91505092915050565b600060208284031215610afa57600080fd5b600082013567ffffffffffffffff811115610b1457600080fd5b610b20848285016109a2565b91505092915050565b610b3281610f57565b82525050565b610b49610b4482610f57565b611028565b82525050565b610b5881610f69565b82525050565b6000610b6982610f30565b610b738185610f4c565b9350610b83818560208601610fac565b80840191505092915050565b6000610b9c602683610f3b565b91507f4f776e61626c653a206e6577206f776e657220697320746865207a65726f206160008301527f64647265737300000000000000000000000000000000000000000000000000006020830152604082019050919050565b6000610c02600f83610f3b565b91507f52657761726420657870697265642100000000000000000000000000000000006000830152602082019050919050565b6000610c42602583610f3b565b91507f52657761726420776974682074686973206b657920616c726561647920636c6160008301527f696d6564210000000000000000000000000000000000000000000000000000006020830152604082019050919050565b6000610ca8602083610f3b565b91507f4f776e61626c653a2063616c6c6572206973206e6f7420746865206f776e65726000830152602082019050919050565b6000610ce8601383610f3b565b91507f4b657920646f6573206e6f7420657869737421000000000000000000000000006000830152602082019050919050565b610d2481610f93565b82525050565b6000610d368285610b38565b601482019150610d468284610b5e565b91508190509392505050565b6000602082019050610d676000830184610b29565b92915050565b6000606082019050610d826000830186610b29565b610d8f6020830185610b29565b610d9c6040830184610d1b565b949350505050565b6000604082019050610db96000830185610b29565b610dc66020830184610b4f565b9392505050565b6000602082019050610de26000830184610b4f565b92915050565b60006020820190508181036000830152610e0181610b8f565b9050919050565b60006020820190508181036000830152610e2181610bf5565b9050919050565b60006020820190508181036000830152610e4181610c35565b9050919050565b60006020820190508181036000830152610e6181610c9b565b9050919050565b60006020820190508181036000830152610e8181610cdb565b9050919050565b6000602082019050610e9d6000830184610d1b565b92915050565b6000604051905081810181811067ffffffffffffffff82111715610eca57610ec961107b565b5b8060405250919050565b600067ffffffffffffffff821115610eef57610eee61107b565b5b602082029050602081019050919050565b600067ffffffffffffffff821115610f1b57610f1a61107b565b5b601f19601f8301169050602081019050919050565b600081519050919050565b600082825260208201905092915050565b600081905092915050565b6000610f6282610f73565b9050919050565b6000819050919050565b600073ffffffffffffffffffffffffffffffffffffffff82169050919050565b6000819050919050565b82818337600083830152505050565b60005b83811015610fca578082015181840152602081019050610faf565b83811115610fd9576000848401525b50505050565b6000610fea82610f93565b91507fffffffffffffffffffffffffffffffffffffffffffffffffffffffffffffffff82141561101d5761101c61104c565b5b600182019050919050565b60006110338261103a565b9050919050565b6000611045826110aa565b9050919050565b7f4e487b7100000000000000000000000000000000000000000000000000000000600052601160045260246000fd5b7f4e487b7100000000000000000000000000000000000000000000000000000000600052604160045260246000fd5b60008160601b9050919050565b6110c081610f57565b81146110cb57600080fd5b50565b6110d781610f69565b81146110e257600080fd5b50565b6110ee81610f93565b81146110f957600080fd5b5056fea2646970667358221220091f0505a7fd94a7e45d653c9b1e97adf13000703800d9c554f01bc56feb012e64736f6c63430008000033",
  "linkReferences": {},
  "deployedLinkReferences": {}
}