{
  "_format": "hh-sol-artifact-1",
  "contractName": "Disperse",
  "sourceName": "contracts/dev3/disperse/Disperse.sol",
  "abi": [
    {
      "inputs": [
        {
          "internalType": "address[]",
          "name": "recipients",
          "type": "address[]"
        },
        {
          "internalType": "uint256[]",
          "name": "values",
          "type": "uint256[]"
        }
      ],
      "name": "disperseEther",
      "outputs": [],
      "stateMutability": "payable",
      "type": "function"
    },
    {
      "inputs": [
        {
          "internalType": "contract IERC20",
          "name": "token",
          "type": "address"
        },
        {
          "internalType": "address[]",
          "name": "recipients",
          "type": "address[]"
        },
        {
          "internalType": "uint256[]",
          "name": "values",
          "type": "uint256[]"
        }
      ],
      "name": "disperseToken",
      "outputs": [],
      "stateMutability": "nonpayable",
      "type": "function"
    },
    {
      "inputs": [
        {
          "internalType": "contract IERC20",
          "name": "token",
          "type": "address"
        },
        {
          "internalType": "address[]",
          "name": "recipients",
          "type": "address[]"
        },
        {
          "internalType": "uint256[]",
          "name": "values",
          "type": "uint256[]"
        }
      ],
      "name": "disperseTokenSimple",
      "outputs": [],
      "stateMutability": "nonpayable",
      "type": "function"
    }
  ],
  "bytecode": "0x608060405234801561001057600080fd5b506109de806100206000396000f3fe6080604052600436106100345760003560e01c806351ba162c14610039578063c73a2d6014610062578063e63d38ed1461008b575b600080fd5b34801561004557600080fd5b50610060600480360381019061005b9190610734565b6100a7565b005b34801561006e57600080fd5b5061008960048036038101906100849190610734565b6101f4565b005b6100a560048036038101906100a09190610696565b610448565b005b60005b848490508110156101ec578573ffffffffffffffffffffffffffffffffffffffff166323b872dd3387878581811061010b577f4e487b7100000000000000000000000000000000000000000000000000000000600052603260045260246000fd5b9050602002016020810190610120919061066d565b868686818110610159577f4e487b7100000000000000000000000000000000000000000000000000000000600052603260045260246000fd5b905060200201356040518463ffffffff1660e01b815260040161017e939291906107db565b602060405180830381600087803b15801561019857600080fd5b505af11580156101ac573d6000803e3d6000fd5b505050506040513d601f19601f820116820180604052508101906101d0919061070b565b6101d957600080fd5b80806101e4906108eb565b9150506100aa565b505050505050565b6000805b858590508110156102635783838281811061023c577f4e487b7100000000000000000000000000000000000000000000000000000000600052603260045260246000fd5b905060200201358261024e919061083b565b9150808061025b906108eb565b9150506101f8565b508573ffffffffffffffffffffffffffffffffffffffff166323b872dd3330846040518463ffffffff1660e01b81526004016102a1939291906107db565b602060405180830381600087803b1580156102bb57600080fd5b505af11580156102cf573d6000803e3d6000fd5b505050506040513d601f19601f820116820180604052508101906102f3919061070b565b6102fc57600080fd5b60005b8585905081101561043f578673ffffffffffffffffffffffffffffffffffffffff1663a9059cbb87878481811061035f577f4e487b7100000000000000000000000000000000000000000000000000000000600052603260045260246000fd5b9050602002016020810190610374919061066d565b8686858181106103ad577f4e487b7100000000000000000000000000000000000000000000000000000000600052603260045260246000fd5b905060200201356040518363ffffffff1660e01b81526004016103d1929190610812565b602060405180830381600087803b1580156103eb57600080fd5b505af11580156103ff573d6000803e3d6000fd5b505050506040513d601f19601f82011682018060405250810190610423919061070b565b61042c57600080fd5b8080610437906108eb565b9150506102ff565b50505050505050565b60005b8484905081101561053c5784848281811061048f577f4e487b7100000000000000000000000000000000000000000000000000000000600052603260045260246000fd5b90506020020160208101906104a4919061066d565b73ffffffffffffffffffffffffffffffffffffffff166108fc8484848181106104f6577f4e487b7100000000000000000000000000000000000000000000000000000000600052603260045260246000fd5b905060200201359081150290604051600060405180830381858888f19350505050158015610528573d6000803e3d6000fd5b508080610534906108eb565b91505061044b565b5060004790506000811115610593573373ffffffffffffffffffffffffffffffffffffffff166108fc829081150290604051600060405180830381858888f19350505050158015610591573d6000803e3d6000fd5b505b5050505050565b6000813590506105a981610963565b92915050565b60008083601f8401126105c157600080fd5b8235905067ffffffffffffffff8111156105da57600080fd5b6020830191508360208202830111156105f257600080fd5b9250929050565b60008083601f84011261060b57600080fd5b8235905067ffffffffffffffff81111561062457600080fd5b60208301915083602082028301111561063c57600080fd5b9250929050565b6000815190506106528161097a565b92915050565b60008135905061066781610991565b92915050565b60006020828403121561067f57600080fd5b600061068d8482850161059a565b91505092915050565b600080600080604085870312156106ac57600080fd5b600085013567ffffffffffffffff8111156106c657600080fd5b6106d2878288016105af565b9450945050602085013567ffffffffffffffff8111156106f157600080fd5b6106fd878288016105f9565b925092505092959194509250565b60006020828403121561071d57600080fd5b600061072b84828501610643565b91505092915050565b60008060008060006060868803121561074c57600080fd5b600061075a88828901610658565b955050602086013567ffffffffffffffff81111561077757600080fd5b610783888289016105af565b9450945050604086013567ffffffffffffffff8111156107a257600080fd5b6107ae888289016105f9565b92509250509295509295909350565b6107c681610891565b82525050565b6107d5816108e1565b82525050565b60006060820190506107f060008301866107bd565b6107fd60208301856107bd565b61080a60408301846107cc565b949350505050565b600060408201905061082760008301856107bd565b61083460208301846107cc565b9392505050565b6000610846826108e1565b9150610851836108e1565b9250827fffffffffffffffffffffffffffffffffffffffffffffffffffffffffffffffff0382111561088657610885610934565b5b828201905092915050565b600061089c826108c1565b9050919050565b60008115159050919050565b60006108ba82610891565b9050919050565b600073ffffffffffffffffffffffffffffffffffffffff82169050919050565b6000819050919050565b60006108f6826108e1565b91507fffffffffffffffffffffffffffffffffffffffffffffffffffffffffffffffff82141561092957610928610934565b5b600182019050919050565b7f4e487b7100000000000000000000000000000000000000000000000000000000600052601160045260246000fd5b61096c81610891565b811461097757600080fd5b50565b610983816108a3565b811461098e57600080fd5b50565b61099a816108af565b81146109a557600080fd5b5056fea2646970667358221220cf0e667d7b41608ddd57a43e0fa200a81a6838f9aa00ad4e49488599e446575d64736f6c63430008000033",
  "linkReferences": {},
  "deployedLinkReferences": {}
}