{
  "_format": "hh-sol-artifact-1",
  "contractName": "TimeLockManager",
  "sourceName": "contracts/dev3/timelock/TimeLockManager.sol",
  "abi": [
    {
      "anonymous": false,
      "inputs": [
        {
          "indexed": true,
          "internalType": "address",
          "name": "sender",
          "type": "address"
        },
        {
          "indexed": true,
          "internalType": "address",
          "name": "token",
          "type": "address"
        },
        {
          "indexed": false,
          "internalType": "uint256",
          "name": "amount",
          "type": "uint256"
        },
        {
          "indexed": false,
          "internalType": "uint256",
          "name": "duration",
          "type": "uint256"
        }
      ],
      "name": "Lock",
      "type": "event"
    },
    {
      "anonymous": false,
      "inputs": [
        {
          "indexed": true,
          "internalType": "address",
          "name": "receiver",
          "type": "address"
        },
        {
          "indexed": true,
          "internalType": "address",
          "name": "token",
          "type": "address"
        },
        {
          "indexed": false,
          "internalType": "uint256",
          "name": "id",
          "type": "uint256"
        },
        {
          "indexed": false,
          "internalType": "uint256",
          "name": "amount",
          "type": "uint256"
        }
      ],
      "name": "Unlock",
      "type": "event"
    },
    {
      "inputs": [],
      "name": "flavor",
      "outputs": [
        {
          "internalType": "string",
          "name": "",
          "type": "string"
        }
      ],
      "stateMutability": "pure",
      "type": "function"
    },
    {
      "inputs": [
        {
          "internalType": "address",
          "name": "tokenAddress",
          "type": "address"
        },
        {
          "internalType": "uint256",
          "name": "amount",
          "type": "uint256"
        },
        {
          "internalType": "uint256",
          "name": "duration",
          "type": "uint256"
        },
        {
          "internalType": "string",
          "name": "info",
          "type": "string"
        },
        {
          "internalType": "address",
          "name": "unlockPrivilegeWallet",
          "type": "address"
        }
      ],
      "name": "lock",
      "outputs": [],
      "stateMutability": "nonpayable",
      "type": "function"
    },
    {
      "inputs": [
        {
          "internalType": "address",
          "name": "",
          "type": "address"
        },
        {
          "internalType": "uint256",
          "name": "",
          "type": "uint256"
        }
      ],
      "name": "locks",
      "outputs": [
        {
          "internalType": "address",
          "name": "token",
          "type": "address"
        },
        {
          "internalType": "uint256",
          "name": "amount",
          "type": "uint256"
        },
        {
          "internalType": "uint256",
          "name": "createdAt",
          "type": "uint256"
        },
        {
          "internalType": "uint256",
          "name": "duration",
          "type": "uint256"
        },
        {
          "internalType": "string",
          "name": "info",
          "type": "string"
        },
        {
          "internalType": "bool",
          "name": "released",
          "type": "bool"
        },
        {
          "internalType": "address",
          "name": "unlockPrivilegeWallet",
          "type": "address"
        }
      ],
      "stateMutability": "view",
      "type": "function"
    },
    {
      "inputs": [
        {
          "internalType": "address",
          "name": "wallet",
          "type": "address"
        }
      ],
      "name": "tokenLocksList",
      "outputs": [
        {
          "components": [
            {
              "internalType": "address",
              "name": "token",
              "type": "address"
            },
            {
              "internalType": "uint256",
              "name": "amount",
              "type": "uint256"
            },
            {
              "internalType": "uint256",
              "name": "createdAt",
              "type": "uint256"
            },
            {
              "internalType": "uint256",
              "name": "duration",
              "type": "uint256"
            },
            {
              "internalType": "string",
              "name": "info",
              "type": "string"
            },
            {
              "internalType": "bool",
              "name": "released",
              "type": "bool"
            },
            {
              "internalType": "address",
              "name": "unlockPrivilegeWallet",
              "type": "address"
            }
          ],
          "internalType": "struct ITimeLockManager.TokenLock[]",
          "name": "",
          "type": "tuple[]"
        }
      ],
      "stateMutability": "view",
      "type": "function"
    },
    {
      "inputs": [
        {
          "internalType": "address",
          "name": "spender",
          "type": "address"
        },
        {
          "internalType": "uint256",
          "name": "index",
          "type": "uint256"
        }
      ],
      "name": "unlock",
      "outputs": [],
      "stateMutability": "nonpayable",
      "type": "function"
    },
    {
      "inputs": [],
      "name": "version",
      "outputs": [
        {
          "internalType": "string",
          "name": "",
          "type": "string"
        }
      ],
      "stateMutability": "pure",
      "type": "function"
    }
  ],
  "bytecode": "0x608060405234801561001057600080fd5b50611e37806100206000396000f3fe608060405234801561001057600080fd5b50600436106100625760003560e01c806354fd4d50146100675780637eee288d14610085578063b425f802146100a1578063bc633cd4146100d7578063e4a20d38146100f3578063f59e4f6514610123575b600080fd5b61006f610141565b60405161007c91906119a4565b60405180910390f35b61009f600480360381019061009a9190611188565b61017e565b005b6100bb60048036038101906100b69190611188565b61048c565b6040516100ce979695949392919061190c565b60405180910390f35b6100f160048036038101906100ec91906111c4565b6105c0565b005b61010d6004803603810190610108919061115f565b610a33565b60405161011a9190611982565b60405180910390f35b61012b610c47565b60405161013891906119a4565b60405180910390f35b60606040518060400160405280600681526020017f312e302e33330000000000000000000000000000000000000000000000000000815250905090565b6000808373ffffffffffffffffffffffffffffffffffffffff1673ffffffffffffffffffffffffffffffffffffffff168152602001908152602001600020805490508110610201576040517f08c379a00000000000000000000000000000000000000000000000000000000081526004016101f8906119e6565b60405180910390fd5b60008060008473ffffffffffffffffffffffffffffffffffffffff1673ffffffffffffffffffffffffffffffffffffffff1681526020019081526020016000208281548110610279577f4e487b7100000000000000000000000000000000000000000000000000000000600052603260045260246000fd5b906000526020600020906006020190508060050160009054906101000a900460ff16156102db576040517f08c379a00000000000000000000000000000000000000000000000000000000081526004016102d290611ae6565b60405180910390fd5b8060050160019054906101000a900473ffffffffffffffffffffffffffffffffffffffff1673ffffffffffffffffffffffffffffffffffffffff163373ffffffffffffffffffffffffffffffffffffffff161461038857806003015481600201546103469190611c0c565b4211610387576040517f08c379a000000000000000000000000000000000000000000000000000000000815260040161037e90611aa6565b60405180910390fd5b5b60018160050160006101000a81548160ff0219169083151502179055506103f88382600101548360000160009054906101000a900473ffffffffffffffffffffffffffffffffffffffff1673ffffffffffffffffffffffffffffffffffffffff16610c849092919063ffffffff16565b8060000160009054906101000a900473ffffffffffffffffffffffffffffffffffffffff1673ffffffffffffffffffffffffffffffffffffffff168373ffffffffffffffffffffffffffffffffffffffff167fc1640cf787ea538af4a68163da63c6da8b4577194278080f5b040a75df00389984846001015460405161047f929190611b06565b60405180910390a3505050565b600060205281600052604060002081815481106104a857600080fd5b9060005260206000209060060201600091509150508060000160009054906101000a900473ffffffffffffffffffffffffffffffffffffffff169080600101549080600201549080600301549080600401805461050490611cec565b80601f016020809104026020016040519081016040528092919081815260200182805461053090611cec565b801561057d5780601f106105525761010080835404028352916020019161057d565b820191906000526020600020905b81548152906001019060200180831161056057829003601f168201915b5050505050908060050160009054906101000a900460ff16908060050160019054906101000a900473ffffffffffffffffffffffffffffffffffffffff16905087565b60008411610603576040517f08c379a00000000000000000000000000000000000000000000000000000000081526004016105fa90611a66565b60405180910390fd5b60008311610646576040517f08c379a000000000000000000000000000000000000000000000000000000000815260040161063d906119c6565b60405180910390fd5b6000859050848173ffffffffffffffffffffffffffffffffffffffff1663dd62ed3e33306040518363ffffffff1660e01b8152600401610687929190611883565b60206040518083038186803b15801561069f57600080fd5b505afa1580156106b3573d6000803e3d6000fd5b505050506040513d601f19601f820116820180604052508101906106d7919061127c565b1015610718576040517f08c379a000000000000000000000000000000000000000000000000000000000815260040161070f90611a06565b60405180910390fd5b848173ffffffffffffffffffffffffffffffffffffffff166370a08231336040518263ffffffff1660e01b81526004016107529190611868565b60206040518083038186803b15801561076a57600080fd5b505afa15801561077e573d6000803e3d6000fd5b505050506040513d601f19601f820116820180604052508101906107a2919061127c565b10156107e3576040517f08c379a00000000000000000000000000000000000000000000000000000000081526004016107da90611a46565b60405180910390fd5b6000803373ffffffffffffffffffffffffffffffffffffffff1673ffffffffffffffffffffffffffffffffffffffff1681526020019081526020016000206040518060e001604052808873ffffffffffffffffffffffffffffffffffffffff1681526020018781526020014281526020018681526020018581526020016000151581526020018473ffffffffffffffffffffffffffffffffffffffff16815250908060018154018082558091505060019003906000526020600020906006020160009091909190915060008201518160000160006101000a81548173ffffffffffffffffffffffffffffffffffffffff021916908373ffffffffffffffffffffffffffffffffffffffff160217905550602082015181600101556040820151816002015560608201518160030155608082015181600401908051906020019061092d929190611000565b5060a08201518160050160006101000a81548160ff02191690831515021790555060c08201518160050160016101000a81548173ffffffffffffffffffffffffffffffffffffffff021916908373ffffffffffffffffffffffffffffffffffffffff16021790555050506109c43330878473ffffffffffffffffffffffffffffffffffffffff16610d0a909392919063ffffffff16565b8573ffffffffffffffffffffffffffffffffffffffff163373ffffffffffffffffffffffffffffffffffffffff167f62cded90d0b4d15cd7d67fee0ae8bac1d9c61c340a9465c7d341632f495829fc8787604051610a23929190611b06565b60405180910390a3505050505050565b60606000808373ffffffffffffffffffffffffffffffffffffffff1673ffffffffffffffffffffffffffffffffffffffff168152602001908152602001600020805480602002602001604051908101604052809291908181526020016000905b82821015610c3c57838290600052602060002090600602016040518060e00160405290816000820160009054906101000a900473ffffffffffffffffffffffffffffffffffffffff1673ffffffffffffffffffffffffffffffffffffffff1673ffffffffffffffffffffffffffffffffffffffff168152602001600182015481526020016002820154815260200160038201548152602001600482018054610b3a90611cec565b80601f0160208091040260200160405190810160405280929190818152602001828054610b6690611cec565b8015610bb35780601f10610b8857610100808354040283529160200191610bb3565b820191906000526020600020905b815481529060010190602001808311610b9657829003601f168201915b505050505081526020016005820160009054906101000a900460ff161515151581526020016005820160019054906101000a900473ffffffffffffffffffffffffffffffffffffffff1673ffffffffffffffffffffffffffffffffffffffff1673ffffffffffffffffffffffffffffffffffffffff168152505081526020019060010190610a93565b505050509050919050565b60606040518060400160405280601181526020017f54696d654c6f636b4d616e616765725631000000000000000000000000000000815250905090565b610d058363a9059cbb60e01b8484604051602401610ca39291906118e3565b604051602081830303815290604052907bffffffffffffffffffffffffffffffffffffffffffffffffffffffff19166020820180517bffffffffffffffffffffffffffffffffffffffffffffffffffffffff8381831617835250505050610d93565b505050565b610d8d846323b872dd60e01b858585604051602401610d2b939291906118ac565b604051602081830303815290604052907bffffffffffffffffffffffffffffffffffffffffffffffffffffffff19166020820180517bffffffffffffffffffffffffffffffffffffffffffffffffffffffff8381831617835250505050610d93565b50505050565b6000610df5826040518060400160405280602081526020017f5361666545524332303a206c6f772d6c6576656c2063616c6c206661696c65648152508573ffffffffffffffffffffffffffffffffffffffff16610e5a9092919063ffffffff16565b9050600081511115610e555780806020019051810190610e159190611253565b610e54576040517f08c379a0000000000000000000000000000000000000000000000000000000008152600401610e4b90611ac6565b60405180910390fd5b5b505050565b6060610e698484600085610e72565b90509392505050565b606082471015610eb7576040517f08c379a0000000000000000000000000000000000000000000000000000000008152600401610eae90611a26565b60405180910390fd5b610ec085610f86565b610eff576040517f08c379a0000000000000000000000000000000000000000000000000000000008152600401610ef690611a86565b60405180910390fd5b6000808673ffffffffffffffffffffffffffffffffffffffff168587604051610f289190611851565b60006040518083038185875af1925050503d8060008114610f65576040519150601f19603f3d011682016040523d82523d6000602084013e610f6a565b606091505b5091509150610f7a828286610f99565b92505050949350505050565b600080823b905060008111915050919050565b60608315610fa957829050610ff9565b600083511115610fbc5782518084602001fd5b816040517f08c379a0000000000000000000000000000000000000000000000000000000008152600401610ff091906119a4565b60405180910390fd5b9392505050565b82805461100c90611cec565b90600052602060002090601f01602090048101928261102e5760008555611075565b82601f1061104757805160ff1916838001178555611075565b82800160010185558215611075579182015b82811115611074578251825591602001919060010190611059565b5b5090506110829190611086565b5090565b5b8082111561109f576000816000905550600101611087565b5090565b60006110b66110b184611b60565b611b2f565b9050828152602081018484840111156110ce57600080fd5b6110d9848285611caa565b509392505050565b6000813590506110f081611dbc565b92915050565b60008151905061110581611dd3565b92915050565b600082601f83011261111c57600080fd5b813561112c8482602086016110a3565b91505092915050565b60008135905061114481611dea565b92915050565b60008151905061115981611dea565b92915050565b60006020828403121561117157600080fd5b600061117f848285016110e1565b91505092915050565b6000806040838503121561119b57600080fd5b60006111a9858286016110e1565b92505060206111ba85828601611135565b9150509250929050565b600080600080600060a086880312156111dc57600080fd5b60006111ea888289016110e1565b95505060206111fb88828901611135565b945050604061120c88828901611135565b935050606086013567ffffffffffffffff81111561122957600080fd5b6112358882890161110b565b9250506080611246888289016110e1565b9150509295509295909350565b60006020828403121561126557600080fd5b6000611273848285016110f6565b91505092915050565b60006020828403121561128e57600080fd5b600061129c8482850161114a565b91505092915050565b60006112b18383611797565b905092915050565b6112c281611c62565b82525050565b6112d181611c62565b82525050565b60006112e282611ba0565b6112ec8185611bce565b9350836020820285016112fe85611b90565b8060005b8581101561133a578484038952815161131b85826112a5565b945061132683611bc1565b925060208a01995050600181019050611302565b50829750879550505050505092915050565b61135581611c74565b82525050565b61136481611c74565b82525050565b600061137582611bab565b61137f8185611bdf565b935061138f818560208601611cb9565b80840191505092915050565b60006113a682611bb6565b6113b08185611bea565b93506113c0818560208601611cb9565b6113c981611dab565b840191505092915050565b60006113df82611bb6565b6113e98185611bfb565b93506113f9818560208601611cb9565b61140281611dab565b840191505092915050565b600061141a601e83611bfb565b91507f54696d654c6f636b4d616e616765723a206475726174696f6e206973203000006000830152602082019050919050565b600061145a602583611bfb565b91507f54696d654c6f636b4d616e616765723a3a20696e646578206f7574206f66206260008301527f6f756e64730000000000000000000000000000000000000000000000000000006020830152604082019050919050565b60006114c0602383611bfb565b91507f54696d654c6f636b4d616e616765723a3a206d697373696e6720616c6c6f776160008301527f6e636500000000000000000000000000000000000000000000000000000000006020830152604082019050919050565b6000611526602683611bfb565b91507f416464726573733a20696e73756666696369656e742062616c616e636520666f60008301527f722063616c6c00000000000000000000000000000000000000000000000000006020830152604082019050919050565b600061158c602483611bfb565b91507f54696d654c6f636b4d616e616765723a3a2062616c616e6365206e6f7420656e60008301527f6f756768000000000000000000000000000000000000000000000000000000006020830152604082019050919050565b60006115f2601c83611bfb565b91507f54696d654c6f636b4d616e616765723a20616d6f756e742069732030000000006000830152602082019050919050565b6000611632601d83611bfb565b91507f416464726573733a2063616c6c20746f206e6f6e2d636f6e74726163740000006000830152602082019050919050565b6000611672602683611bfb565b91507f54696d654c6f636b4d616e616765723a3a20646561646c696e65206e6f74207260008301527f65616368656400000000000000000000000000000000000000000000000000006020830152604082019050919050565b60006116d8602a83611bfb565b91507f5361666545524332303a204552433230206f7065726174696f6e20646964206e60008301527f6f742073756363656564000000000000000000000000000000000000000000006020830152604082019050919050565b600061173e602983611bfb565b91507f54696d654c6f636b4d616e616765723a3a20746f6b656e7320616c726561647960008301527f2072656c656173656400000000000000000000000000000000000000000000006020830152604082019050919050565b600060e0830160008301516117af60008601826112b9565b5060208301516117c26020860182611833565b5060408301516117d56040860182611833565b5060608301516117e86060860182611833565b5060808301518482036080860152611800828261139b565b91505060a083015161181560a086018261134c565b5060c083015161182860c08601826112b9565b508091505092915050565b61183c81611ca0565b82525050565b61184b81611ca0565b82525050565b600061185d828461136a565b915081905092915050565b600060208201905061187d60008301846112c8565b92915050565b600060408201905061189860008301856112c8565b6118a560208301846112c8565b9392505050565b60006060820190506118c160008301866112c8565b6118ce60208301856112c8565b6118db6040830184611842565b949350505050565b60006040820190506118f860008301856112c8565b6119056020830184611842565b9392505050565b600060e082019050611921600083018a6112c8565b61192e6020830189611842565b61193b6040830188611842565b6119486060830187611842565b818103608083015261195a81866113d4565b905061196960a083018561135b565b61197660c08301846112c8565b98975050505050505050565b6000602082019050818103600083015261199c81846112d7565b905092915050565b600060208201905081810360008301526119be81846113d4565b905092915050565b600060208201905081810360008301526119df8161140d565b9050919050565b600060208201905081810360008301526119ff8161144d565b9050919050565b60006020820190508181036000830152611a1f816114b3565b9050919050565b60006020820190508181036000830152611a3f81611519565b9050919050565b60006020820190508181036000830152611a5f8161157f565b9050919050565b60006020820190508181036000830152611a7f816115e5565b9050919050565b60006020820190508181036000830152611a9f81611625565b9050919050565b60006020820190508181036000830152611abf81611665565b9050919050565b60006020820190508181036000830152611adf816116cb565b9050919050565b60006020820190508181036000830152611aff81611731565b9050919050565b6000604082019050611b1b6000830185611842565b611b286020830184611842565b9392505050565b6000604051905081810181811067ffffffffffffffff82111715611b5657611b55611d7c565b5b8060405250919050565b600067ffffffffffffffff821115611b7b57611b7a611d7c565b5b601f19601f8301169050602081019050919050565b6000819050602082019050919050565b600081519050919050565b600081519050919050565b600081519050919050565b6000602082019050919050565b600082825260208201905092915050565b600081905092915050565b600082825260208201905092915050565b600082825260208201905092915050565b6000611c1782611ca0565b9150611c2283611ca0565b9250827fffffffffffffffffffffffffffffffffffffffffffffffffffffffffffffffff03821115611c5757611c56611d1e565b5b828201905092915050565b6000611c6d82611c80565b9050919050565b60008115159050919050565b600073ffffffffffffffffffffffffffffffffffffffff82169050919050565b6000819050919050565b82818337600083830152505050565b60005b83811015611cd7578082015181840152602081019050611cbc565b83811115611ce6576000848401525b50505050565b60006002820490506001821680611d0457607f821691505b60208210811415611d1857611d17611d4d565b5b50919050565b7f4e487b7100000000000000000000000000000000000000000000000000000000600052601160045260246000fd5b7f4e487b7100000000000000000000000000000000000000000000000000000000600052602260045260246000fd5b7f4e487b7100000000000000000000000000000000000000000000000000000000600052604160045260246000fd5b6000601f19601f8301169050919050565b611dc581611c62565b8114611dd057600080fd5b50565b611ddc81611c74565b8114611de757600080fd5b50565b611df381611ca0565b8114611dfe57600080fd5b5056fea26469706673582212202038819084255d4d46ff6cc890261a336b530795b342837d21e78e65892248f464736f6c63430008000033",
  "linkReferences": {},
  "deployedLinkReferences": {}
}