{
  "_format": "hh-sol-artifact-1",
  "contractName": "GovernorCountingSimpleImpl",
  "sourceName": "contracts/openzeppelin/governor-counting-simple/GovernorCountingSimpleImpl.sol",
  "abi": [
    {
      "inputs": [
        {
          "internalType": "string",
          "name": "name_",
          "type": "string"
        },
        {
          "internalType": "contract IVotes",
          "name": "votingToken_",
          "type": "address"
        },
        {
          "internalType": "uint256",
          "name": "votingDelay_",
          "type": "uint256"
        },
        {
          "internalType": "uint256",
          "name": "votingPeriod_",
          "type": "uint256"
        },
        {
          "internalType": "uint256",
          "name": "quorumPercentage_",
          "type": "uint256"
        }
      ],
      "stateMutability": "nonpayable",
      "type": "constructor"
    },
    {
      "inputs": [],
      "name": "Empty",
      "type": "error"
    },
    {
      "anonymous": false,
      "inputs": [
        {
          "indexed": false,
          "internalType": "uint256",
          "name": "proposalId",
          "type": "uint256"
        }
      ],
      "name": "ProposalCanceled",
      "type": "event"
    },
    {
      "anonymous": false,
      "inputs": [
        {
          "indexed": false,
          "internalType": "uint256",
          "name": "proposalId",
          "type": "uint256"
        },
        {
          "indexed": false,
          "internalType": "address",
          "name": "proposer",
          "type": "address"
        },
        {
          "indexed": false,
          "internalType": "address[]",
          "name": "targets",
          "type": "address[]"
        },
        {
          "indexed": false,
          "internalType": "uint256[]",
          "name": "values",
          "type": "uint256[]"
        },
        {
          "indexed": false,
          "internalType": "string[]",
          "name": "signatures",
          "type": "string[]"
        },
        {
          "indexed": false,
          "internalType": "bytes[]",
          "name": "calldatas",
          "type": "bytes[]"
        },
        {
          "indexed": false,
          "internalType": "uint256",
          "name": "startBlock",
          "type": "uint256"
        },
        {
          "indexed": false,
          "internalType": "uint256",
          "name": "endBlock",
          "type": "uint256"
        },
        {
          "indexed": false,
          "internalType": "string",
          "name": "description",
          "type": "string"
        }
      ],
      "name": "ProposalCreated",
      "type": "event"
    },
    {
      "anonymous": false,
      "inputs": [
        {
          "indexed": false,
          "internalType": "uint256",
          "name": "proposalId",
          "type": "uint256"
        }
      ],
      "name": "ProposalExecuted",
      "type": "event"
    },
    {
      "anonymous": false,
      "inputs": [
        {
          "indexed": false,
          "internalType": "uint256",
          "name": "oldQuorumNumerator",
          "type": "uint256"
        },
        {
          "indexed": false,
          "internalType": "uint256",
          "name": "newQuorumNumerator",
          "type": "uint256"
        }
      ],
      "name": "QuorumNumeratorUpdated",
      "type": "event"
    },
    {
      "anonymous": false,
      "inputs": [
        {
          "indexed": true,
          "internalType": "address",
          "name": "voter",
          "type": "address"
        },
        {
          "indexed": false,
          "internalType": "uint256",
          "name": "proposalId",
          "type": "uint256"
        },
        {
          "indexed": false,
          "internalType": "uint8",
          "name": "support",
          "type": "uint8"
        },
        {
          "indexed": false,
          "internalType": "uint256",
          "name": "weight",
          "type": "uint256"
        },
        {
          "indexed": false,
          "internalType": "string",
          "name": "reason",
          "type": "string"
        }
      ],
      "name": "VoteCast",
      "type": "event"
    },
    {
      "anonymous": false,
      "inputs": [
        {
          "indexed": true,
          "internalType": "address",
          "name": "voter",
          "type": "address"
        },
        {
          "indexed": false,
          "internalType": "uint256",
          "name": "proposalId",
          "type": "uint256"
        },
        {
          "indexed": false,
          "internalType": "uint8",
          "name": "support",
          "type": "uint8"
        },
        {
          "indexed": false,
          "internalType": "uint256",
          "name": "weight",
          "type": "uint256"
        },
        {
          "indexed": false,
          "internalType": "string",
          "name": "reason",
          "type": "string"
        },
        {
          "indexed": false,
          "internalType": "bytes",
          "name": "params",
          "type": "bytes"
        }
      ],
      "name": "VoteCastWithParams",
      "type": "event"
    },
    {
      "inputs": [],
      "name": "BALLOT_TYPEHASH",
      "outputs": [
        {
          "internalType": "bytes32",
          "name": "",
          "type": "bytes32"
        }
      ],
      "stateMutability": "view",
      "type": "function"
    },
    {
      "inputs": [],
      "name": "COUNTING_MODE",
      "outputs": [
        {
          "internalType": "string",
          "name": "",
          "type": "string"
        }
      ],
      "stateMutability": "pure",
      "type": "function"
    },
    {
      "inputs": [],
      "name": "EXTENDED_BALLOT_TYPEHASH",
      "outputs": [
        {
          "internalType": "bytes32",
          "name": "",
          "type": "bytes32"
        }
      ],
      "stateMutability": "view",
      "type": "function"
    },
    {
      "inputs": [
        {
          "internalType": "uint256",
          "name": "proposalId",
          "type": "uint256"
        },
        {
          "internalType": "uint8",
          "name": "support",
          "type": "uint8"
        }
      ],
      "name": "castVote",
      "outputs": [
        {
          "internalType": "uint256",
          "name": "",
          "type": "uint256"
        }
      ],
      "stateMutability": "nonpayable",
      "type": "function"
    },
    {
      "inputs": [
        {
          "internalType": "uint256",
          "name": "proposalId",
          "type": "uint256"
        },
        {
          "internalType": "uint8",
          "name": "support",
          "type": "uint8"
        },
        {
          "internalType": "uint8",
          "name": "v",
          "type": "uint8"
        },
        {
          "internalType": "bytes32",
          "name": "r",
          "type": "bytes32"
        },
        {
          "internalType": "bytes32",
          "name": "s",
          "type": "bytes32"
        }
      ],
      "name": "castVoteBySig",
      "outputs": [
        {
          "internalType": "uint256",
          "name": "",
          "type": "uint256"
        }
      ],
      "stateMutability": "nonpayable",
      "type": "function"
    },
    {
      "inputs": [
        {
          "internalType": "uint256",
          "name": "proposalId",
          "type": "uint256"
        },
        {
          "internalType": "uint8",
          "name": "support",
          "type": "uint8"
        },
        {
          "internalType": "string",
          "name": "reason",
          "type": "string"
        }
      ],
      "name": "castVoteWithReason",
      "outputs": [
        {
          "internalType": "uint256",
          "name": "",
          "type": "uint256"
        }
      ],
      "stateMutability": "nonpayable",
      "type": "function"
    },
    {
      "inputs": [
        {
          "internalType": "uint256",
          "name": "proposalId",
          "type": "uint256"
        },
        {
          "internalType": "uint8",
          "name": "support",
          "type": "uint8"
        },
        {
          "internalType": "string",
          "name": "reason",
          "type": "string"
        },
        {
          "internalType": "bytes",
          "name": "params",
          "type": "bytes"
        }
      ],
      "name": "castVoteWithReasonAndParams",
      "outputs": [
        {
          "internalType": "uint256",
          "name": "",
          "type": "uint256"
        }
      ],
      "stateMutability": "nonpayable",
      "type": "function"
    },
    {
      "inputs": [
        {
          "internalType": "uint256",
          "name": "proposalId",
          "type": "uint256"
        },
        {
          "internalType": "uint8",
          "name": "support",
          "type": "uint8"
        },
        {
          "internalType": "string",
          "name": "reason",
          "type": "string"
        },
        {
          "internalType": "bytes",
          "name": "params",
          "type": "bytes"
        },
        {
          "internalType": "uint8",
          "name": "v",
          "type": "uint8"
        },
        {
          "internalType": "bytes32",
          "name": "r",
          "type": "bytes32"
        },
        {
          "internalType": "bytes32",
          "name": "s",
          "type": "bytes32"
        }
      ],
      "name": "castVoteWithReasonAndParamsBySig",
      "outputs": [
        {
          "internalType": "uint256",
          "name": "",
          "type": "uint256"
        }
      ],
      "stateMutability": "nonpayable",
      "type": "function"
    },
    {
      "inputs": [
        {
          "internalType": "address[]",
          "name": "targets",
          "type": "address[]"
        },
        {
          "internalType": "uint256[]",
          "name": "values",
          "type": "uint256[]"
        },
        {
          "internalType": "bytes[]",
          "name": "calldatas",
          "type": "bytes[]"
        },
        {
          "internalType": "bytes32",
          "name": "descriptionHash",
          "type": "bytes32"
        }
      ],
      "name": "execute",
      "outputs": [
        {
          "internalType": "uint256",
          "name": "",
          "type": "uint256"
        }
      ],
      "stateMutability": "payable",
      "type": "function"
    },
    {
      "inputs": [
        {
          "internalType": "address",
          "name": "account",
          "type": "address"
        },
        {
          "internalType": "uint256",
          "name": "blockNumber",
          "type": "uint256"
        }
      ],
      "name": "getVotes",
      "outputs": [
        {
          "internalType": "uint256",
          "name": "",
          "type": "uint256"
        }
      ],
      "stateMutability": "view",
      "type": "function"
    },
    {
      "inputs": [
        {
          "internalType": "address",
          "name": "account",
          "type": "address"
        },
        {
          "internalType": "uint256",
          "name": "blockNumber",
          "type": "uint256"
        },
        {
          "internalType": "bytes",
          "name": "params",
          "type": "bytes"
        }
      ],
      "name": "getVotesWithParams",
      "outputs": [
        {
          "internalType": "uint256",
          "name": "",
          "type": "uint256"
        }
      ],
      "stateMutability": "view",
      "type": "function"
    },
    {
      "inputs": [
        {
          "internalType": "uint256",
          "name": "proposalId",
          "type": "uint256"
        },
        {
          "internalType": "address",
          "name": "account",
          "type": "address"
        }
      ],
      "name": "hasVoted",
      "outputs": [
        {
          "internalType": "bool",
          "name": "",
          "type": "bool"
        }
      ],
      "stateMutability": "view",
      "type": "function"
    },
    {
      "inputs": [
        {
          "internalType": "address[]",
          "name": "targets",
          "type": "address[]"
        },
        {
          "internalType": "uint256[]",
          "name": "values",
          "type": "uint256[]"
        },
        {
          "internalType": "bytes[]",
          "name": "calldatas",
          "type": "bytes[]"
        },
        {
          "internalType": "bytes32",
          "name": "descriptionHash",
          "type": "bytes32"
        }
      ],
      "name": "hashProposal",
      "outputs": [
        {
          "internalType": "uint256",
          "name": "",
          "type": "uint256"
        }
      ],
      "stateMutability": "pure",
      "type": "function"
    },
    {
      "inputs": [],
      "name": "name",
      "outputs": [
        {
          "internalType": "string",
          "name": "",
          "type": "string"
        }
      ],
      "stateMutability": "view",
      "type": "function"
    },
    {
      "inputs": [
        {
          "internalType": "address",
          "name": "",
          "type": "address"
        },
        {
          "internalType": "address",
          "name": "",
          "type": "address"
        },
        {
          "internalType": "uint256[]",
          "name": "",
          "type": "uint256[]"
        },
        {
          "internalType": "uint256[]",
          "name": "",
          "type": "uint256[]"
        },
        {
          "internalType": "bytes",
          "name": "",
          "type": "bytes"
        }
      ],
      "name": "onERC1155BatchReceived",
      "outputs": [
        {
          "internalType": "bytes4",
          "name": "",
          "type": "bytes4"
        }
      ],
      "stateMutability": "nonpayable",
      "type": "function"
    },
    {
      "inputs": [
        {
          "internalType": "address",
          "name": "",
          "type": "address"
        },
        {
          "internalType": "address",
          "name": "",
          "type": "address"
        },
        {
          "internalType": "uint256",
          "name": "",
          "type": "uint256"
        },
        {
          "internalType": "uint256",
          "name": "",
          "type": "uint256"
        },
        {
          "internalType": "bytes",
          "name": "",
          "type": "bytes"
        }
      ],
      "name": "onERC1155Received",
      "outputs": [
        {
          "internalType": "bytes4",
          "name": "",
          "type": "bytes4"
        }
      ],
      "stateMutability": "nonpayable",
      "type": "function"
    },
    {
      "inputs": [
        {
          "internalType": "address",
          "name": "",
          "type": "address"
        },
        {
          "internalType": "address",
          "name": "",
          "type": "address"
        },
        {
          "internalType": "uint256",
          "name": "",
          "type": "uint256"
        },
        {
          "internalType": "bytes",
          "name": "",
          "type": "bytes"
        }
      ],
      "name": "onERC721Received",
      "outputs": [
        {
          "internalType": "bytes4",
          "name": "",
          "type": "bytes4"
        }
      ],
      "stateMutability": "nonpayable",
      "type": "function"
    },
    {
      "inputs": [
        {
          "internalType": "uint256",
          "name": "proposalId",
          "type": "uint256"
        }
      ],
      "name": "proposalDeadline",
      "outputs": [
        {
          "internalType": "uint256",
          "name": "",
          "type": "uint256"
        }
      ],
      "stateMutability": "view",
      "type": "function"
    },
    {
      "inputs": [
        {
          "internalType": "uint256",
          "name": "proposalId",
          "type": "uint256"
        }
      ],
      "name": "proposalSnapshot",
      "outputs": [
        {
          "internalType": "uint256",
          "name": "",
          "type": "uint256"
        }
      ],
      "stateMutability": "view",
      "type": "function"
    },
    {
      "inputs": [],
      "name": "proposalThreshold",
      "outputs": [
        {
          "internalType": "uint256",
          "name": "",
          "type": "uint256"
        }
      ],
      "stateMutability": "view",
      "type": "function"
    },
    {
      "inputs": [
        {
          "internalType": "uint256",
          "name": "proposalId",
          "type": "uint256"
        }
      ],
      "name": "proposalVotes",
      "outputs": [
        {
          "internalType": "uint256",
          "name": "againstVotes",
          "type": "uint256"
        },
        {
          "internalType": "uint256",
          "name": "forVotes",
          "type": "uint256"
        },
        {
          "internalType": "uint256",
          "name": "abstainVotes",
          "type": "uint256"
        }
      ],
      "stateMutability": "view",
      "type": "function"
    },
    {
      "inputs": [
        {
          "internalType": "address[]",
          "name": "targets",
          "type": "address[]"
        },
        {
          "internalType": "uint256[]",
          "name": "values",
          "type": "uint256[]"
        },
        {
          "internalType": "bytes[]",
          "name": "calldatas",
          "type": "bytes[]"
        },
        {
          "internalType": "string",
          "name": "description",
          "type": "string"
        }
      ],
      "name": "propose",
      "outputs": [
        {
          "internalType": "uint256",
          "name": "",
          "type": "uint256"
        }
      ],
      "stateMutability": "nonpayable",
      "type": "function"
    },
    {
      "inputs": [
        {
          "internalType": "uint256",
          "name": "blockNumber",
          "type": "uint256"
        }
      ],
      "name": "quorum",
      "outputs": [
        {
          "internalType": "uint256",
          "name": "",
          "type": "uint256"
        }
      ],
      "stateMutability": "view",
      "type": "function"
    },
    {
      "inputs": [],
      "name": "quorumDenominator",
      "outputs": [
        {
          "internalType": "uint256",
          "name": "",
          "type": "uint256"
        }
      ],
      "stateMutability": "view",
      "type": "function"
    },
    {
      "inputs": [],
      "name": "quorumNumerator",
      "outputs": [
        {
          "internalType": "uint256",
          "name": "",
          "type": "uint256"
        }
      ],
      "stateMutability": "view",
      "type": "function"
    },
    {
      "inputs": [
        {
          "internalType": "address",
          "name": "target",
          "type": "address"
        },
        {
          "internalType": "uint256",
          "name": "value",
          "type": "uint256"
        },
        {
          "internalType": "bytes",
          "name": "data",
          "type": "bytes"
        }
      ],
      "name": "relay",
      "outputs": [],
      "stateMutability": "nonpayable",
      "type": "function"
    },
    {
      "inputs": [
        {
          "internalType": "uint256",
          "name": "proposalId",
          "type": "uint256"
        }
      ],
      "name": "state",
      "outputs": [
        {
          "internalType": "enum IGovernor.ProposalState",
          "name": "",
          "type": "uint8"
        }
      ],
      "stateMutability": "view",
      "type": "function"
    },
    {
      "inputs": [
        {
          "internalType": "bytes4",
          "name": "interfaceId",
          "type": "bytes4"
        }
      ],
      "name": "supportsInterface",
      "outputs": [
        {
          "internalType": "bool",
          "name": "",
          "type": "bool"
        }
      ],
      "stateMutability": "view",
      "type": "function"
    },
    {
      "inputs": [],
      "name": "token",
      "outputs": [
        {
          "internalType": "contract IVotes",
          "name": "",
          "type": "address"
        }
      ],
      "stateMutability": "view",
      "type": "function"
    },
    {
      "inputs": [
        {
          "internalType": "uint256",
          "name": "newQuorumNumerator",
          "type": "uint256"
        }
      ],
      "name": "updateQuorumNumerator",
      "outputs": [],
      "stateMutability": "nonpayable",
      "type": "function"
    },
    {
      "inputs": [],
      "name": "version",
      "outputs": [
        {
          "internalType": "string",
          "name": "",
          "type": "string"
        }
      ],
      "stateMutability": "view",
      "type": "function"
    },
    {
      "inputs": [],
      "name": "votingDelay",
      "outputs": [
        {
          "internalType": "uint256",
          "name": "",
          "type": "uint256"
        }
      ],
      "stateMutability": "view",
      "type": "function"
    },
    {
      "inputs": [],
      "name": "votingPeriod",
      "outputs": [
        {
          "internalType": "uint256",
          "name": "",
          "type": "uint256"
        }
      ],
      "stateMutability": "view",
      "type": "function"
    },
    {
      "stateMutability": "payable",
      "type": "receive"
    }
  ],
  "bytecode": "0x6101606040523480156200001257600080fd5b5060405162005c8f38038062005c8f8339818101604052810190620000389190620003f3565b808486806200004c6200017f60201b60201c565b60008280519060200120905060008280519060200120905060007f8b73c3c69bb8fe3d512ecc4cf759cc79239f7b179b0ffacaa9a75d522b39400f90508260e081815250508161010081815250504660a08181525050620000b5818484620001bc60201b60201c565b608081815250503073ffffffffffffffffffffffffffffffffffffffff1660c08173ffffffffffffffffffffffffffffffffffffffff1660601b815250508061012081815250505050505050806000908051906020019062000119929190620002a3565b50508073ffffffffffffffffffffffffffffffffffffffff166101408173ffffffffffffffffffffffffffffffffffffffff1660601b81525050506200016581620001f860201b60201c565b50826006819055508160078190555050505050506200081a565b60606040518060400160405280600181526020017f3100000000000000000000000000000000000000000000000000000000000000815250905090565b60008383834630604051602001620001d9959493929190620004e8565b6040516020818303038152906040528051906020012090509392505050565b620002086200029a60201b60201c565b8111156200024d576040517f08c379a0000000000000000000000000000000000000000000000000000000008152600401620002449062000545565b60405180910390fd5b60006005549050816005819055507f0553476bf02ef2726e8ce5ced78d63e26e602e4a2257b1f559418e24b463399781836040516200028e92919062000567565b60405180910390a15050565b60006064905090565b828054620002b19062000696565b90600052602060002090601f016020900481019282620002d5576000855562000321565b82601f10620002f057805160ff191683800117855562000321565b8280016001018555821562000321579182015b828111156200032057825182559160200191906001019062000303565b5b50905062000330919062000334565b5090565b5b808211156200034f57600081600090555060010162000335565b5090565b60006200036a6200036484620005bd565b62000594565b9050828152602081018484840111156200038357600080fd5b6200039084828562000660565b509392505050565b600081519050620003a981620007e6565b92915050565b600082601f830112620003c157600080fd5b8151620003d384826020860162000353565b91505092915050565b600081519050620003ed8162000800565b92915050565b600080600080600060a086880312156200040c57600080fd5b600086015167ffffffffffffffff8111156200042757600080fd5b6200043588828901620003af565b9550506020620004488882890162000398565b94505060406200045b88828901620003dc565b93505060606200046e88828901620003dc565b92505060806200048188828901620003dc565b9150509295509295909350565b620004998162000604565b82525050565b620004aa8162000618565b82525050565b6000620004bf604383620005f3565b9150620004cc8262000771565b606082019050919050565b620004e28162000656565b82525050565b600060a082019050620004ff60008301886200049f565b6200050e60208301876200049f565b6200051d60408301866200049f565b6200052c6060830185620004d7565b6200053b60808301846200048e565b9695505050505050565b600060208201905081810360008301526200056081620004b0565b9050919050565b60006040820190506200057e6000830185620004d7565b6200058d6020830184620004d7565b9392505050565b6000620005a0620005b3565b9050620005ae8282620006cc565b919050565b6000604051905090565b600067ffffffffffffffff821115620005db57620005da62000731565b5b620005e68262000760565b9050602081019050919050565b600082825260208201905092915050565b6000620006118262000636565b9050919050565b6000819050919050565b60006200062f8262000604565b9050919050565b600073ffffffffffffffffffffffffffffffffffffffff82169050919050565b6000819050919050565b60005b838110156200068057808201518184015260208101905062000663565b8381111562000690576000848401525b50505050565b60006002820490506001821680620006af57607f821691505b60208210811415620006c657620006c562000702565b5b50919050565b620006d78262000760565b810181811067ffffffffffffffff82111715620006f957620006f862000731565b5b80604052505050565b7f4e487b7100000000000000000000000000000000000000000000000000000000600052602260045260246000fd5b7f4e487b7100000000000000000000000000000000000000000000000000000000600052604160045260246000fd5b6000601f19601f8301169050919050565b7f476f7665726e6f72566f74657351756f72756d4672616374696f6e3a2071756f60008201527f72756d4e756d657261746f72206f7665722071756f72756d44656e6f6d696e6160208201527f746f720000000000000000000000000000000000000000000000000000000000604082015250565b620007f18162000622565b8114620007fd57600080fd5b50565b6200080b8162000656565b81146200081757600080fd5b50565b60805160a05160c05160601c60e05161010051610120516101405160601c6154066200088960003960008181611928015281816119ec015261229c01526000612442015260006124840152600061246301526000612398015260006123ee0152600061241701526154066000f3fe6080604052600436106101f25760003560e01c80635f398a141161010d578063c01f9e37116100a0578063deaaa7cc1161006f578063deaaa7cc14610814578063eb9019d41461083f578063f23a6e611461087c578063f8ce560a146108b9578063fc0c546a146108f657610238565b8063c01f9e3714610746578063c28bc2fa14610783578063c59057e4146107ac578063dd4e2ba5146107e957610238565b80639a802a6d116100dc5780639a802a6d14610676578063a7713a70146106b3578063b58131b0146106de578063bc197c811461070957610238565b80635f398a14146105945780637b3c71d3146105d15780637d5e81e21461060e57806397c3d3341461064b57610238565b80632fe3e26111610185578063438596321161015457806343859632146104b0578063544ffc9c146104ed57806354fd4d501461052c578063567813881461055757610238565b80632fe3e261146103e05780633932abb11461040b5780633bccf4fd146104365780633e4f49e61461047357610238565b806306fdde03116101c157806306fdde031461030b578063150b7a02146103365780632656227d146103735780632d63f693146103a357610238565b806301ffc9a71461023d57806302a251a31461027a57806303420181146102a557806306f3f9e6146102e257610238565b36610238573073ffffffffffffffffffffffffffffffffffffffff16610216610921565b73ffffffffffffffffffffffffffffffffffffffff161461023657600080fd5b005b600080fd5b34801561024957600080fd5b50610264600480360381019061025f91906136c6565b610929565b604051610271919061417d565b60405180910390f35b34801561028657600080fd5b5061028f610a8e565b60405161029c9190614588565b60405180910390f35b3480156102b157600080fd5b506102cc60048036038101906102c791906138bd565b610a98565b6040516102d99190614588565b60405180910390f35b3480156102ee57600080fd5b50610309600480360381019061030491906136ef565b610b7d565b005b34801561031757600080fd5b50610320610c79565b60405161032d9190614326565b60405180910390f35b34801561034257600080fd5b5061035d6004803603810190610358919061333f565b610d0b565b60405161036a91906142d5565b60405180910390f35b61038d60048036038101906103889190613558565b610d1f565b60405161039a9190614588565b60405180910390f35b3480156103af57600080fd5b506103ca60048036038101906103c591906136ef565b610f04565b6040516103d79190614588565b60405180910390f35b3480156103ec57600080fd5b506103f5610f72565b6040516104029190614198565b60405180910390f35b34801561041757600080fd5b50610420610f96565b60405161042d9190614588565b60405180910390f35b34801561044257600080fd5b5061045d6004803603810190610458919061398f565b610fa0565b60405161046a9190614588565b60405180910390f35b34801561047f57600080fd5b5061049a600480360381019061049591906136ef565b61102a565b6040516104a7919061430b565b60405180910390f35b3480156104bc57600080fd5b506104d760048036038101906104d29190613741565b61113f565b6040516104e4919061417d565b60405180910390f35b3480156104f957600080fd5b50610514600480360381019061050f91906136ef565b6111aa565b6040516105239392919061467c565b60405180910390f35b34801561053857600080fd5b506105416111e2565b60405161054e9190614326565b60405180910390f35b34801561056357600080fd5b5061057e6004803603810190610579919061377d565b61121f565b60405161058b9190614588565b60405180910390f35b3480156105a057600080fd5b506105bb60048036038101906105b69190613825565b611250565b6040516105c89190614588565b60405180910390f35b3480156105dd57600080fd5b506105f860048036038101906105f391906137b9565b6112ba565b6040516106059190614588565b60405180910390f35b34801561061a57600080fd5b5061063560048036038101906106309190613603565b611322565b6040516106429190614588565b60405180910390f35b34801561065757600080fd5b5061066061164f565b60405161066d9190614588565b60405180910390f35b34801561068257600080fd5b5061069d600480360381019061069891906134f1565b611658565b6040516106aa9190614588565b60405180910390f35b3480156106bf57600080fd5b506106c861166e565b6040516106d59190614588565b60405180910390f35b3480156106ea57600080fd5b506106f3611678565b6040516107009190614588565b60405180910390f35b34801561071557600080fd5b50610730600480360381019061072b9190613280565b61167d565b60405161073d91906142d5565b60405180910390f35b34801561075257600080fd5b5061076d600480360381019061076891906136ef565b611692565b60405161077a9190614588565b60405180910390f35b34801561078f57600080fd5b506107aa60048036038101906107a59190613485565b611700565b005b3480156107b857600080fd5b506107d360048036038101906107ce9190613558565b611846565b6040516107e09190614588565b60405180910390f35b3480156107f557600080fd5b506107fe611882565b60405161080b9190614326565b60405180910390f35b34801561082057600080fd5b506108296118bf565b6040516108369190614198565b60405180910390f35b34801561084b57600080fd5b5061086660048036038101906108619190613449565b6118e3565b6040516108739190614588565b60405180910390f35b34801561088857600080fd5b506108a3600480360381019061089e91906133ba565b6118ff565b6040516108b091906142d5565b60405180910390f35b3480156108c557600080fd5b506108e060048036038101906108db91906136ef565b611914565b6040516108ed9190614588565b60405180910390f35b34801561090257600080fd5b5061090b6119ea565b60405161091891906142f0565b60405180910390f35b600030905090565b6000639a802a6d60e01b630342018160e01b635f398a1460e01b7f79dd796f000000000000000000000000000000000000000000000000000000001818187bffffffffffffffffffffffffffffffffffffffffffffffffffffffff1916827bffffffffffffffffffffffffffffffffffffffffffffffffffffffff19161480610a0f57507f79dd796f000000000000000000000000000000000000000000000000000000007bffffffffffffffffffffffffffffffffffffffffffffffffffffffff1916827bffffffffffffffffffffffffffffffffffffffffffffffffffffffff1916145b80610a7757507f4e2312e0000000000000000000000000000000000000000000000000000000007bffffffffffffffffffffffffffffffffffffffffffffffffffffffff1916827bffffffffffffffffffffffffffffffffffffffffffffffffffffffff1916145b80610a875750610a8682611a0e565b5b9050919050565b6000600754905090565b600080610b1b610b137fb3b3f3b703cd84ce352197dcff232b1b5d3cfb2025ce47cf04742d0651f1af888c8c8c8c604051610ad4929190614093565b60405180910390208b80519060200120604051602001610af895949392919061423d565b60405160208183030381529060405280519060200120611a78565b868686611a92565b9050610b6e8a828b8b8b8080601f016020809104026020016040519081016040528093929190818152602001838380828437600081840152601f19601f820116905080830192505050505050508a611abd565b91505098975050505050505050565b610b85610921565b73ffffffffffffffffffffffffffffffffffffffff16610ba3611cc6565b73ffffffffffffffffffffffffffffffffffffffff1614610bf9576040517f08c379a0000000000000000000000000000000000000000000000000000000008152600401610bf090614368565b60405180910390fd5b3073ffffffffffffffffffffffffffffffffffffffff16610c18610921565b73ffffffffffffffffffffffffffffffffffffffff1614610c6d576000610c3d611cce565b604051610c4b929190614093565b604051809103902090505b80610c616002611cdb565b14610c6b57610c56565b505b610c7681611db7565b50565b606060008054610c8890614c4e565b80601f0160208091040260200160405190810160405280929190818152602001828054610cb490614c4e565b8015610d015780601f10610cd657610100808354040283529160200191610d01565b820191906000526020600020905b815481529060010190602001808311610ce457829003601f168201915b5050505050905090565b600063150b7a0260e01b9050949350505050565b600080610d2e86868686611846565b90506000610d3b8261102a565b905060046007811115610d77577f4e487b7100000000000000000000000000000000000000000000000000000000600052602160045260246000fd5b816007811115610db0577f4e487b7100000000000000000000000000000000000000000000000000000000600052602160045260246000fd5b1480610e2c575060056007811115610df1577f4e487b7100000000000000000000000000000000000000000000000000000000600052602160045260246000fd5b816007811115610e2a577f4e487b7100000000000000000000000000000000000000000000000000000000600052602160045260246000fd5b145b610e6b576040517f08c379a0000000000000000000000000000000000000000000000000000000008152600401610e62906144c8565b60405180910390fd5b600180600084815260200190815260200160002060020160006101000a81548160ff0219169083151502179055507f712ae1383f79ac853f8d882153778e0260ef8f03b504e2866e0593e04d2b291f82604051610ec89190614588565b60405180910390a1610edd8288888888611e4c565b610eea8288888888611f7c565b610ef782888888886120fd565b8192505050949350505050565b6000610f61600160008481526020019081526020016000206000016040518060200160405290816000820160009054906101000a900467ffffffffffffffff1667ffffffffffffffff1667ffffffffffffffff1681525050612158565b67ffffffffffffffff169050919050565b7fb3b3f3b703cd84ce352197dcff232b1b5d3cfb2025ce47cf04742d0651f1af8881565b6000600654905090565b600080611001610ff97f150214d74d59b7d1e90c73fc22ef3d991dd0a76b046543d4d80ab92d2a50328f8989604051602001610fde93929190614206565b60405160208183030381529060405280519060200120611a78565b868686611a92565b905061101e87828860405180602001604052806000815250612166565b91505095945050505050565b6000806001600084815260200190815260200160002090508060020160009054906101000a900460ff161561106357600791505061113a565b8060020160019054906101000a900460ff161561108457600291505061113a565b600061108f84610f04565b905060008114156110d5576040517f08c379a00000000000000000000000000000000000000000000000000000000081526004016110cc906144e8565b60405180910390fd5b4381106110e75760009250505061113a565b60006110f285611692565b9050438110611107576001935050505061113a565b61111085612186565b80156111215750611120856121cd565b5b15611132576004935050505061113a565b600393505050505b919050565b60006004600084815260200190815260200160002060030160008373ffffffffffffffffffffffffffffffffffffffff1673ffffffffffffffffffffffffffffffffffffffff16815260200190815260200160002060009054906101000a900460ff16905092915050565b600080600080600460008681526020019081526020016000209050806000015481600101548260020154935093509350509193909250565b60606040518060400160405280600181526020017f3100000000000000000000000000000000000000000000000000000000000000815250905090565b60008061122a611cc6565b905061124784828560405180602001604052806000815250612166565b91505092915050565b60008061125b611cc6565b90506112ae87828888888080601f016020809104026020016040519081016040528093929190818152602001838380828437600081840152601f19601f8201169050808301925050505050505087611abd565b91505095945050505050565b6000806112c5611cc6565b905061131786828787878080601f016020809104026020016040519081016040528093929190818152602001838380828437600081840152601f19601f82011690508083019250505050505050612166565b915050949350505050565b600061132c611678565b611349611337611cc6565b6001436113449190614ade565b6118e3565b101561138a576040517f08c379a000000000000000000000000000000000000000000000000000000000815260040161138190614568565b60405180910390fd5b600061139f8686868680519060200120611846565b905084518651146113e5576040517f08c379a00000000000000000000000000000000000000000000000000000000081526004016113dc906143c8565b60405180910390fd5b8351865114611429576040517f08c379a0000000000000000000000000000000000000000000000000000000008152600401611420906143c8565b60405180910390fd5b600086511161146d576040517f08c379a000000000000000000000000000000000000000000000000000000000815260040161146490614468565b60405180910390fd5b60006001600083815260200190815260200160002090506114cd816000016040518060200160405290816000820160009054906101000a900467ffffffffffffffff1667ffffffffffffffff1667ffffffffffffffff16815250506121f8565b61150c576040517f08c379a000000000000000000000000000000000000000000000000000000000815260040161150390614528565b60405180910390fd5b600061151e611519610f96565b612212565b61152743612212565b6115319190614a15565b90506000611545611540610a8e565b612212565b826115509190614a15565b9050611568828460000161226990919063ffffffff16565b61157e818460010161226990919063ffffffff16565b7f7d84a6263ae0d98d3329bd7b46bb4e8d6f98cd35a7adb45c274c8b7fd5ebd5e0846115a8611cc6565b8b8b8d5167ffffffffffffffff8111156115eb577f4e487b7100000000000000000000000000000000000000000000000000000000600052604160045260246000fd5b60405190808252806020026020018201604052801561161e57816020015b60608152602001906001900390816116095790505b508c88888e604051611638999897969594939291906145a3565b60405180910390a183945050505050949350505050565b60006064905090565b6000611665848484612298565b90509392505050565b6000600554905090565b600090565b600063bc197c8160e01b905095945050505050565b60006116ef600160008481526020019081526020016000206001016040518060200160405290816000820160009054906101000a900467ffffffffffffffff1667ffffffffffffffff1667ffffffffffffffff1681525050612158565b67ffffffffffffffff169050919050565b611708610921565b73ffffffffffffffffffffffffffffffffffffffff16611726611cc6565b73ffffffffffffffffffffffffffffffffffffffff161461177c576040517f08c379a000000000000000000000000000000000000000000000000000000000815260040161177390614368565b60405180910390fd5b3073ffffffffffffffffffffffffffffffffffffffff1661179b610921565b73ffffffffffffffffffffffffffffffffffffffff16146117f05760006117c0611cce565b6040516117ce929190614093565b604051809103902090505b806117e46002611cdb565b146117ee576117d9565b505b61183f8483838080601f016020809104026020016040519081016040528093929190818152602001838380828437600081840152601f19601f820116905080830192505050505050508561234e565b5050505050565b60008484848460405160200161185f9493929190614123565b6040516020818303038152906040528051906020012060001c9050949350505050565b60606040518060400160405280602081526020017f737570706f72743d627261766f2671756f72756d3d666f722c6162737461696e815250905090565b7f150214d74d59b7d1e90c73fc22ef3d991dd0a76b046543d4d80ab92d2a50328f81565b60006118f783836118f261237d565b612298565b905092915050565b600063f23a6e6160e01b905095945050505050565b600061191e61164f565b61192661166e565b7f000000000000000000000000000000000000000000000000000000000000000073ffffffffffffffffffffffffffffffffffffffff16638e539e8c856040518263ffffffff1660e01b815260040161197f9190614588565b60206040518083038186803b15801561199757600080fd5b505afa1580156119ab573d6000803e3d6000fd5b505050506040513d601f19601f820116820180604052508101906119cf9190613718565b6119d99190614a84565b6119e39190614a53565b9050919050565b7f000000000000000000000000000000000000000000000000000000000000000081565b60007f01ffc9a7000000000000000000000000000000000000000000000000000000007bffffffffffffffffffffffffffffffffffffffffffffffffffffffff1916827bffffffffffffffffffffffffffffffffffffffffffffffffffffffff1916149050919050565b6000611a8b611a85612394565b836124ae565b9050919050565b6000806000611aa3878787876124e1565b91509150611ab0816125ee565b8192505050949350505050565b60008060016000888152602001908152602001600020905060016007811115611b0f577f4e487b7100000000000000000000000000000000000000000000000000000000600052602160045260246000fd5b611b188861102a565b6007811115611b50577f4e487b7100000000000000000000000000000000000000000000000000000000600052602160045260246000fd5b14611b90576040517f08c379a0000000000000000000000000000000000000000000000000000000008152600401611b8790614448565b60405180910390fd5b6000611bef87611bdf846000016040518060200160405290816000820160009054906101000a900467ffffffffffffffff1667ffffffffffffffff1667ffffffffffffffff1681525050612158565b67ffffffffffffffff1686612298565b9050611bfe888888848861293f565b600084511415611c61578673ffffffffffffffffffffffffffffffffffffffff167fb8e138887d0aa13bab447e82de9d5c1777041ecd21ca36ba824ff1e6c07ddda489888489604051611c5494939291906146b3565b60405180910390a2611cb8565b8673ffffffffffffffffffffffffffffffffffffffff167fe2babfbac5889a709b63bb7f598b324e08bc5a4fb9ec647fb3cbc9ec07eb87128988848989604051611caf9594939291906146ff565b60405180910390a25b809250505095945050505050565b600033905090565b3660008036915091509091565b6000611ce682612bb8565b15611d1d576040517f3db2a12a00000000000000000000000000000000000000000000000000000000815260040160405180910390fd5b60008260000160009054906101000a9004600f0b905082600101600082600f0b600f0b815260200190815260200160002054915082600101600082600f0b600f0b815260200190815260200160002060009055600181018360000160006101000a8154816fffffffffffffffffffffffffffffffff0219169083600f0b6fffffffffffffffffffffffffffffffff16021790555050919050565b611dbf61164f565b811115611e01576040517f08c379a0000000000000000000000000000000000000000000000000000000008152600401611df890614388565b60405180910390fd5b60006005549050816005819055507f0553476bf02ef2726e8ce5ced78d63e26e602e4a2257b1f559418e24b46339978183604051611e40929190614653565b60405180910390a15050565b3073ffffffffffffffffffffffffffffffffffffffff16611e6b610921565b73ffffffffffffffffffffffffffffffffffffffff1614611f755760005b8451811015611f73573073ffffffffffffffffffffffffffffffffffffffff16858281518110611ee2577f4e487b7100000000000000000000000000000000000000000000000000000000600052603260045260246000fd5b602002602001015173ffffffffffffffffffffffffffffffffffffffff161415611f6257611f61838281518110611f42577f4e487b7100000000000000000000000000000000000000000000000000000000600052603260045260246000fd5b6020026020010151805190602001206002612bed90919063ffffffff16565b5b80611f6c90614cb1565b9050611e89565b505b5050505050565b600060405180606001604052806027815260200161538160279139905060005b85518110156120f457600080878381518110611fe1577f4e487b7100000000000000000000000000000000000000000000000000000000600052603260045260246000fd5b602002602001015173ffffffffffffffffffffffffffffffffffffffff16878481518110612038577f4e487b7100000000000000000000000000000000000000000000000000000000600052603260045260246000fd5b6020026020010151878581518110612079577f4e487b7100000000000000000000000000000000000000000000000000000000600052603260045260246000fd5b602002602001015160405161208e91906140ac565b60006040518083038185875af1925050503d80600081146120cb576040519150601f19603f3d011682016040523d82523d6000602084013e6120d0565b606091505b50915091506120e0828286612c69565b505050806120ed90614cb1565b9050611f9c565b50505050505050565b3073ffffffffffffffffffffffffffffffffffffffff1661211c610921565b73ffffffffffffffffffffffffffffffffffffffff1614612151576121416002612bb8565b6121505761214f6002612cd0565b5b5b5050505050565b600081600001519050919050565b600061217c8585858561217761237d565b611abd565b9050949350505050565b600080600460008481526020019081526020016000209050806002015481600101546121b291906149bf565b6121c36121be85610f04565b611914565b1115915050919050565b6000806004600084815260200190815260200160002090508060000154816001015411915050919050565b600080826000015167ffffffffffffffff16149050919050565b600067ffffffffffffffff8016821115612261576040517f08c379a0000000000000000000000000000000000000000000000000000000008152600401612258906144a8565b60405180910390fd5b819050919050565b808260000160006101000a81548167ffffffffffffffff021916908367ffffffffffffffff1602179055505050565b60007f000000000000000000000000000000000000000000000000000000000000000073ffffffffffffffffffffffffffffffffffffffff16633a46b1a885856040518363ffffffff1660e01b81526004016122f59291906140fa565b60206040518083038186803b15801561230d57600080fd5b505afa158015612321573d6000803e3d6000fd5b505050506040513d601f19601f820116820180604052508101906123459190613718565b90509392505050565b60606123748484846040518060600160405280602981526020016153a860299139612d51565b90509392505050565b606060405180602001604052806000815250905090565b60007f000000000000000000000000000000000000000000000000000000000000000073ffffffffffffffffffffffffffffffffffffffff163073ffffffffffffffffffffffffffffffffffffffff1614801561241057507f000000000000000000000000000000000000000000000000000000000000000046145b1561243d577f000000000000000000000000000000000000000000000000000000000000000090506124ab565b6124a87f00000000000000000000000000000000000000000000000000000000000000007f00000000000000000000000000000000000000000000000000000000000000007f0000000000000000000000000000000000000000000000000000000000000000612e65565b90505b90565b600082826040516020016124c39291906140c3565b60405160208183030381529060405280519060200120905092915050565b6000807f7fffffffffffffffffffffffffffffff5d576e7357a4501ddfe92f46681b20a08360001c111561251c5760006003915091506125e5565b601b8560ff16141580156125345750601c8560ff1614155b156125465760006004915091506125e5565b60006001878787876040516000815260200160405260405161256b9493929190614290565b6020604051602081039080840390855afa15801561258d573d6000803e3d6000fd5b505050602060405103519050600073ffffffffffffffffffffffffffffffffffffffff168173ffffffffffffffffffffffffffffffffffffffff1614156125dc576000600192509250506125e5565b80600092509250505b94509492505050565b60006004811115612628577f4e487b7100000000000000000000000000000000000000000000000000000000600052602160045260246000fd5b816004811115612661577f4e487b7100000000000000000000000000000000000000000000000000000000600052602160045260246000fd5b141561266c5761293c565b600160048111156126a6577f4e487b7100000000000000000000000000000000000000000000000000000000600052602160045260246000fd5b8160048111156126df577f4e487b7100000000000000000000000000000000000000000000000000000000600052602160045260246000fd5b1415612720576040517f08c379a000000000000000000000000000000000000000000000000000000000815260040161271790614348565b60405180910390fd5b6002600481111561275a577f4e487b7100000000000000000000000000000000000000000000000000000000600052602160045260246000fd5b816004811115612793577f4e487b7100000000000000000000000000000000000000000000000000000000600052602160045260246000fd5b14156127d4576040517f08c379a00000000000000000000000000000000000000000000000000000000081526004016127cb906143a8565b60405180910390fd5b6003600481111561280e577f4e487b7100000000000000000000000000000000000000000000000000000000600052602160045260246000fd5b816004811115612847577f4e487b7100000000000000000000000000000000000000000000000000000000600052602160045260246000fd5b1415612888576040517f08c379a000000000000000000000000000000000000000000000000000000000815260040161287f906143e8565b60405180910390fd5b6004808111156128c1577f4e487b7100000000000000000000000000000000000000000000000000000000600052602160045260246000fd5b8160048111156128fa577f4e487b7100000000000000000000000000000000000000000000000000000000600052602160045260246000fd5b141561293b576040517f08c379a000000000000000000000000000000000000000000000000000000000815260040161293290614488565b60405180910390fd5b5b50565b60006004600087815260200190815260200160002090508060030160008673ffffffffffffffffffffffffffffffffffffffff1673ffffffffffffffffffffffffffffffffffffffff16815260200190815260200160002060009054906101000a900460ff16156129e5576040517f08c379a00000000000000000000000000000000000000000000000000000000081526004016129dc90614408565b60405180910390fd5b60018160030160008773ffffffffffffffffffffffffffffffffffffffff1673ffffffffffffffffffffffffffffffffffffffff16815260200190815260200160002060006101000a81548160ff02191690831515021790555060006002811115612a79577f4e487b7100000000000000000000000000000000000000000000000000000000600052602160045260246000fd5b60ff168460ff161415612aa65782816000016000828254612a9a91906149bf565b92505081905550612bb0565b60016002811115612ae0577f4e487b7100000000000000000000000000000000000000000000000000000000600052602160045260246000fd5b60ff168460ff161415612b0d5782816001016000828254612b0191906149bf565b92505081905550612baf565b600280811115612b46577f4e487b7100000000000000000000000000000000000000000000000000000000600052602160045260246000fd5b60ff168460ff161415612b735782816002016000828254612b6791906149bf565b92505081905550612bae565b6040517f08c379a0000000000000000000000000000000000000000000000000000000008152600401612ba590614508565b60405180910390fd5b5b5b505050505050565b60008160000160009054906101000a9004600f0b600f0b8260000160109054906101000a9004600f0b600f0b13159050919050565b60008260000160109054906101000a9004600f0b90508183600101600083600f0b600f0b815260200190815260200160002081905550600181018360000160106101000a8154816fffffffffffffffffffffffffffffffff0219169083600f0b6fffffffffffffffffffffffffffffffff160217905550505050565b60608315612c7957829050612cc9565b600083511115612c8c5782518084602001fd5b816040517f08c379a0000000000000000000000000000000000000000000000000000000008152600401612cc09190614326565b60405180910390fd5b9392505050565b60008160000160006101000a8154816fffffffffffffffffffffffffffffffff0219169083600f0b6fffffffffffffffffffffffffffffffff16021790555060008160000160106101000a8154816fffffffffffffffffffffffffffffffff0219169083600f0b6fffffffffffffffffffffffffffffffff16021790555050565b606082471015612d96576040517f08c379a0000000000000000000000000000000000000000000000000000000008152600401612d8d90614428565b60405180910390fd5b612d9f85612e9f565b612dde576040517f08c379a0000000000000000000000000000000000000000000000000000000008152600401612dd590614548565b60405180910390fd5b6000808673ffffffffffffffffffffffffffffffffffffffff168587604051612e0791906140ac565b60006040518083038185875af1925050503d8060008114612e44576040519150601f19603f3d011682016040523d82523d6000602084013e612e49565b606091505b5091509150612e59828286612c69565b92505050949350505050565b60008383834630604051602001612e809594939291906141b3565b6040516020818303038152906040528051906020012090509392505050565b6000808273ffffffffffffffffffffffffffffffffffffffff163b119050919050565b6000612ed5612ed084614785565b614760565b90508083825260208201905082856020860282011115612ef457600080fd5b60005b85811015612f245781612f0a888261309c565b845260208401935060208301925050600181019050612ef7565b5050509392505050565b6000612f41612f3c846147b1565b614760565b90508083825260208201905082856020860282011115612f6057600080fd5b60005b85811015612faa57813567ffffffffffffffff811115612f8257600080fd5b808601612f8f89826131a3565b85526020850194506020840193505050600181019050612f63565b5050509392505050565b6000612fc7612fc2846147dd565b614760565b90508083825260208201905082856020860282011115612fe657600080fd5b60005b858110156130165781612ffc8882613241565b845260208401935060208301925050600181019050612fe9565b5050509392505050565b600061303361302e84614809565b614760565b90508281526020810184848401111561304b57600080fd5b613056848285614c0c565b509392505050565b600061307161306c8461483a565b614760565b90508281526020810184848401111561308957600080fd5b613094848285614c0c565b509392505050565b6000813590506130ab8161530d565b92915050565b600082601f8301126130c257600080fd5b81356130d2848260208601612ec2565b91505092915050565b600082601f8301126130ec57600080fd5b81356130fc848260208601612f2e565b91505092915050565b600082601f83011261311657600080fd5b8135613126848260208601612fb4565b91505092915050565b60008135905061313e81615324565b92915050565b6000813590506131538161533b565b92915050565b60008083601f84011261316b57600080fd5b8235905067ffffffffffffffff81111561318457600080fd5b60208301915083600182028301111561319c57600080fd5b9250929050565b600082601f8301126131b457600080fd5b81356131c4848260208601613020565b91505092915050565b60008083601f8401126131df57600080fd5b8235905067ffffffffffffffff8111156131f857600080fd5b60208301915083600182028301111561321057600080fd5b9250929050565b600082601f83011261322857600080fd5b813561323884826020860161305e565b91505092915050565b60008135905061325081615352565b92915050565b60008151905061326581615352565b92915050565b60008135905061327a81615369565b92915050565b600080600080600060a0868803121561329857600080fd5b60006132a68882890161309c565b95505060206132b78882890161309c565b945050604086013567ffffffffffffffff8111156132d457600080fd5b6132e088828901613105565b935050606086013567ffffffffffffffff8111156132fd57600080fd5b61330988828901613105565b925050608086013567ffffffffffffffff81111561332657600080fd5b613332888289016131a3565b9150509295509295909350565b6000806000806080858703121561335557600080fd5b60006133638782880161309c565b94505060206133748782880161309c565b935050604061338587828801613241565b925050606085013567ffffffffffffffff8111156133a257600080fd5b6133ae878288016131a3565b91505092959194509250565b600080600080600060a086880312156133d257600080fd5b60006133e08882890161309c565b95505060206133f18882890161309c565b945050604061340288828901613241565b935050606061341388828901613241565b925050608086013567ffffffffffffffff81111561343057600080fd5b61343c888289016131a3565b9150509295509295909350565b6000806040838503121561345c57600080fd5b600061346a8582860161309c565b925050602061347b85828601613241565b9150509250929050565b6000806000806060858703121561349b57600080fd5b60006134a98782880161309c565b94505060206134ba87828801613241565b935050604085013567ffffffffffffffff8111156134d757600080fd5b6134e387828801613159565b925092505092959194509250565b60008060006060848603121561350657600080fd5b60006135148682870161309c565b935050602061352586828701613241565b925050604084013567ffffffffffffffff81111561354257600080fd5b61354e868287016131a3565b9150509250925092565b6000806000806080858703121561356e57600080fd5b600085013567ffffffffffffffff81111561358857600080fd5b613594878288016130b1565b945050602085013567ffffffffffffffff8111156135b157600080fd5b6135bd87828801613105565b935050604085013567ffffffffffffffff8111156135da57600080fd5b6135e6878288016130db565b92505060606135f78782880161312f565b91505092959194509250565b6000806000806080858703121561361957600080fd5b600085013567ffffffffffffffff81111561363357600080fd5b61363f878288016130b1565b945050602085013567ffffffffffffffff81111561365c57600080fd5b61366887828801613105565b935050604085013567ffffffffffffffff81111561368557600080fd5b613691878288016130db565b925050606085013567ffffffffffffffff8111156136ae57600080fd5b6136ba87828801613217565b91505092959194509250565b6000602082840312156136d857600080fd5b60006136e684828501613144565b91505092915050565b60006020828403121561370157600080fd5b600061370f84828501613241565b91505092915050565b60006020828403121561372a57600080fd5b600061373884828501613256565b91505092915050565b6000806040838503121561375457600080fd5b600061376285828601613241565b92505060206137738582860161309c565b9150509250929050565b6000806040838503121561379057600080fd5b600061379e85828601613241565b92505060206137af8582860161326b565b9150509250929050565b600080600080606085870312156137cf57600080fd5b60006137dd87828801613241565b94505060206137ee8782880161326b565b935050604085013567ffffffffffffffff81111561380b57600080fd5b613817878288016131cd565b925092505092959194509250565b60008060008060006080868803121561383d57600080fd5b600061384b88828901613241565b955050602061385c8882890161326b565b945050604086013567ffffffffffffffff81111561387957600080fd5b613885888289016131cd565b9350935050606086013567ffffffffffffffff8111156138a457600080fd5b6138b0888289016131a3565b9150509295509295909350565b60008060008060008060008060e0898b0312156138d957600080fd5b60006138e78b828c01613241565b98505060206138f88b828c0161326b565b975050604089013567ffffffffffffffff81111561391557600080fd5b6139218b828c016131cd565b9650965050606089013567ffffffffffffffff81111561394057600080fd5b61394c8b828c016131a3565b945050608061395d8b828c0161326b565b93505060a061396e8b828c0161312f565b92505060c061397f8b828c0161312f565b9150509295985092959890939650565b600080600080600060a086880312156139a757600080fd5b60006139b588828901613241565b95505060206139c68882890161326b565b94505060406139d78882890161326b565b93505060606139e88882890161312f565b92505060806139f98882890161312f565b9150509295509295909350565b6000613a128383613a5e565b60208301905092915050565b6000613a2a8383613c8b565b905092915050565b6000613a3e8383613d4c565b905092915050565b6000613a528383614057565b60208301905092915050565b613a6781614b12565b82525050565b613a7681614b12565b82525050565b6000613a87826148ab565b613a918185614921565b9350613a9c8361486b565b8060005b83811015613acd578151613ab48882613a06565b9750613abf836148ed565b925050600181019050613aa0565b5085935050505092915050565b6000613ae5826148b6565b613aef8185614932565b935083602082028501613b018561487b565b8060005b85811015613b3d5784840389528151613b1e8582613a1e565b9450613b29836148fa565b925060208a01995050600181019050613b05565b50829750879550505050505092915050565b6000613b5a826148c1565b613b648185614943565b935083602082028501613b768561488b565b8060005b85811015613bb25784840389528151613b938582613a32565b9450613b9e83614907565b925060208a01995050600181019050613b7a565b50829750879550505050505092915050565b6000613bcf826148cc565b613bd98185614954565b9350613be48361489b565b8060005b83811015613c15578151613bfc8882613a46565b9750613c0783614914565b925050600181019050613be8565b5085935050505092915050565b613c2b81614b24565b82525050565b613c3a81614b30565b82525050565b613c51613c4c82614b30565b614cfa565b82525050565b613c6081614b3a565b82525050565b6000613c728385614987565b9350613c7f838584614c0c565b82840190509392505050565b6000613c96826148d7565b613ca08185614965565b9350613cb0818560208601614c1b565b613cb981614def565b840191505092915050565b6000613ccf826148d7565b613cd98185614976565b9350613ce9818560208601614c1b565b613cf281614def565b840191505092915050565b6000613d08826148d7565b613d128185614987565b9350613d22818560208601614c1b565b80840191505092915050565b613d3781614bc4565b82525050565b613d4681614be8565b82525050565b6000613d57826148e2565b613d618185614992565b9350613d71818560208601614c1b565b613d7a81614def565b840191505092915050565b6000613d90826148e2565b613d9a81856149a3565b9350613daa818560208601614c1b565b613db381614def565b840191505092915050565b6000613dcb6018836149a3565b9150613dd682614e00565b602082019050919050565b6000613dee6018836149a3565b9150613df982614e29565b602082019050919050565b6000613e116043836149a3565b9150613e1c82614e52565b606082019050919050565b6000613e34601f836149a3565b9150613e3f82614ec7565b602082019050919050565b6000613e576002836149b4565b9150613e6282614ef0565b600282019050919050565b6000613e7a6021836149a3565b9150613e8582614f19565b604082019050919050565b6000613e9d6022836149a3565b9150613ea882614f68565b604082019050919050565b6000613ec06027836149a3565b9150613ecb82614fb7565b604082019050919050565b6000613ee36026836149a3565b9150613eee82615006565b604082019050919050565b6000613f066023836149a3565b9150613f1182615055565b604082019050919050565b6000613f296018836149a3565b9150613f34826150a4565b602082019050919050565b6000613f4c6022836149a3565b9150613f57826150cd565b604082019050919050565b6000613f6f6026836149a3565b9150613f7a8261511c565b604082019050919050565b6000613f926021836149a3565b9150613f9d8261516b565b604082019050919050565b6000613fb5601d836149a3565b9150613fc0826151ba565b602082019050919050565b6000613fd86035836149a3565b9150613fe3826151e3565b604082019050919050565b6000613ffb6021836149a3565b915061400682615232565b604082019050919050565b600061401e601d836149a3565b915061402982615281565b602082019050919050565b60006140416031836149a3565b915061404c826152aa565b604082019050919050565b61406081614b99565b82525050565b61406f81614b99565b82525050565b61407e81614bfa565b82525050565b61408d81614bb7565b82525050565b60006140a0828486613c66565b91508190509392505050565b60006140b88284613cfd565b915081905092915050565b60006140ce82613e4a565b91506140da8285613c40565b6020820191506140ea8284613c40565b6020820191508190509392505050565b600060408201905061410f6000830185613a6d565b61411c6020830184614066565b9392505050565b6000608082019050818103600083015261413d8187613a7c565b905081810360208301526141518186613bc4565b905081810360408301526141658185613ada565b90506141746060830184613c31565b95945050505050565b60006020820190506141926000830184613c22565b92915050565b60006020820190506141ad6000830184613c31565b92915050565b600060a0820190506141c86000830188613c31565b6141d56020830187613c31565b6141e26040830186613c31565b6141ef6060830185614066565b6141fc6080830184613a6d565b9695505050505050565b600060608201905061421b6000830186613c31565b6142286020830185614066565b6142356040830184614084565b949350505050565b600060a0820190506142526000830188613c31565b61425f6020830187614066565b61426c6040830186614084565b6142796060830185613c31565b6142866080830184613c31565b9695505050505050565b60006080820190506142a56000830187613c31565b6142b26020830186614084565b6142bf6040830185613c31565b6142cc6060830184613c31565b95945050505050565b60006020820190506142ea6000830184613c57565b92915050565b60006020820190506143056000830184613d2e565b92915050565b60006020820190506143206000830184613d3d565b92915050565b600060208201905081810360008301526143408184613d85565b905092915050565b6000602082019050818103600083015261436181613dbe565b9050919050565b6000602082019050818103600083015261438181613de1565b9050919050565b600060208201905081810360008301526143a181613e04565b9050919050565b600060208201905081810360008301526143c181613e27565b9050919050565b600060208201905081810360008301526143e181613e6d565b9050919050565b6000602082019050818103600083015261440181613e90565b9050919050565b6000602082019050818103600083015261442181613eb3565b9050919050565b6000602082019050818103600083015261444181613ed6565b9050919050565b6000602082019050818103600083015261446181613ef9565b9050919050565b6000602082019050818103600083015261448181613f1c565b9050919050565b600060208201905081810360008301526144a181613f3f565b9050919050565b600060208201905081810360008301526144c181613f62565b9050919050565b600060208201905081810360008301526144e181613f85565b9050919050565b6000602082019050818103600083015261450181613fa8565b9050919050565b6000602082019050818103600083015261452181613fcb565b9050919050565b6000602082019050818103600083015261454181613fee565b9050919050565b6000602082019050818103600083015261456181614011565b9050919050565b6000602082019050818103600083015261458181614034565b9050919050565b600060208201905061459d6000830184614066565b92915050565b6000610120820190506145b9600083018c614066565b6145c6602083018b613a6d565b81810360408301526145d8818a613a7c565b905081810360608301526145ec8189613bc4565b905081810360808301526146008188613b4f565b905081810360a08301526146148187613ada565b905061462360c0830186614075565b61463060e0830185614075565b8181036101008301526146438184613d85565b90509a9950505050505050505050565b60006040820190506146686000830185614066565b6146756020830184614066565b9392505050565b60006060820190506146916000830186614066565b61469e6020830185614066565b6146ab6040830184614066565b949350505050565b60006080820190506146c86000830187614066565b6146d56020830186614084565b6146e26040830185614066565b81810360608301526146f48184613d85565b905095945050505050565b600060a0820190506147146000830188614066565b6147216020830187614084565b61472e6040830186614066565b81810360608301526147408185613d85565b905081810360808301526147548184613cc4565b90509695505050505050565b600061476a61477b565b90506147768282614c80565b919050565b6000604051905090565b600067ffffffffffffffff8211156147a05761479f614dc0565b5b602082029050602081019050919050565b600067ffffffffffffffff8211156147cc576147cb614dc0565b5b602082029050602081019050919050565b600067ffffffffffffffff8211156147f8576147f7614dc0565b5b602082029050602081019050919050565b600067ffffffffffffffff82111561482457614823614dc0565b5b61482d82614def565b9050602081019050919050565b600067ffffffffffffffff82111561485557614854614dc0565b5b61485e82614def565b9050602081019050919050565b6000819050602082019050919050565b6000819050602082019050919050565b6000819050602082019050919050565b6000819050602082019050919050565b600081519050919050565b600081519050919050565b600081519050919050565b600081519050919050565b600081519050919050565b600081519050919050565b6000602082019050919050565b6000602082019050919050565b6000602082019050919050565b6000602082019050919050565b600082825260208201905092915050565b600082825260208201905092915050565b600082825260208201905092915050565b600082825260208201905092915050565b600082825260208201905092915050565b600082825260208201905092915050565b600081905092915050565b600082825260208201905092915050565b600082825260208201905092915050565b600081905092915050565b60006149ca82614b99565b91506149d583614b99565b9250827fffffffffffffffffffffffffffffffffffffffffffffffffffffffffffffffff03821115614a0a57614a09614d04565b5b828201905092915050565b6000614a2082614ba3565b9150614a2b83614ba3565b92508267ffffffffffffffff03821115614a4857614a47614d04565b5b828201905092915050565b6000614a5e82614b99565b9150614a6983614b99565b925082614a7957614a78614d33565b5b828204905092915050565b6000614a8f82614b99565b9150614a9a83614b99565b9250817fffffffffffffffffffffffffffffffffffffffffffffffffffffffffffffffff0483118215151615614ad357614ad2614d04565b5b828202905092915050565b6000614ae982614b99565b9150614af483614b99565b925082821015614b0757614b06614d04565b5b828203905092915050565b6000614b1d82614b79565b9050919050565b60008115159050919050565b6000819050919050565b60007fffffffff0000000000000000000000000000000000000000000000000000000082169050919050565b6000819050614b74826152f9565b919050565b600073ffffffffffffffffffffffffffffffffffffffff82169050919050565b6000819050919050565b600067ffffffffffffffff82169050919050565b600060ff82169050919050565b6000614bcf82614bd6565b9050919050565b6000614be182614b79565b9050919050565b6000614bf382614b66565b9050919050565b6000614c0582614ba3565b9050919050565b82818337600083830152505050565b60005b83811015614c39578082015181840152602081019050614c1e565b83811115614c48576000848401525b50505050565b60006002820490506001821680614c6657607f821691505b60208210811415614c7a57614c79614d91565b5b50919050565b614c8982614def565b810181811067ffffffffffffffff82111715614ca857614ca7614dc0565b5b80604052505050565b6000614cbc82614b99565b91507fffffffffffffffffffffffffffffffffffffffffffffffffffffffffffffffff821415614cef57614cee614d04565b5b600182019050919050565b6000819050919050565b7f4e487b7100000000000000000000000000000000000000000000000000000000600052601160045260246000fd5b7f4e487b7100000000000000000000000000000000000000000000000000000000600052601260045260246000fd5b7f4e487b7100000000000000000000000000000000000000000000000000000000600052602160045260246000fd5b7f4e487b7100000000000000000000000000000000000000000000000000000000600052602260045260246000fd5b7f4e487b7100000000000000000000000000000000000000000000000000000000600052604160045260246000fd5b6000601f19601f8301169050919050565b7f45434453413a20696e76616c6964207369676e61747572650000000000000000600082015250565b7f476f7665726e6f723a206f6e6c79476f7665726e616e63650000000000000000600082015250565b7f476f7665726e6f72566f74657351756f72756d4672616374696f6e3a2071756f60008201527f72756d4e756d657261746f72206f7665722071756f72756d44656e6f6d696e6160208201527f746f720000000000000000000000000000000000000000000000000000000000604082015250565b7f45434453413a20696e76616c6964207369676e6174757265206c656e67746800600082015250565b7f1901000000000000000000000000000000000000000000000000000000000000600082015250565b7f476f7665726e6f723a20696e76616c69642070726f706f73616c206c656e677460008201527f6800000000000000000000000000000000000000000000000000000000000000602082015250565b7f45434453413a20696e76616c6964207369676e6174757265202773272076616c60008201527f7565000000000000000000000000000000000000000000000000000000000000602082015250565b7f476f7665726e6f72566f74696e6753696d706c653a20766f746520616c72656160008201527f6479206361737400000000000000000000000000000000000000000000000000602082015250565b7f416464726573733a20696e73756666696369656e742062616c616e636520666f60008201527f722063616c6c0000000000000000000000000000000000000000000000000000602082015250565b7f476f7665726e6f723a20766f7465206e6f742063757272656e746c792061637460008201527f6976650000000000000000000000000000000000000000000000000000000000602082015250565b7f476f7665726e6f723a20656d7074792070726f706f73616c0000000000000000600082015250565b7f45434453413a20696e76616c6964207369676e6174757265202776272076616c60008201527f7565000000000000000000000000000000000000000000000000000000000000602082015250565b7f53616665436173743a2076616c756520646f65736e27742066697420696e203660008201527f3420626974730000000000000000000000000000000000000000000000000000602082015250565b7f476f7665726e6f723a2070726f706f73616c206e6f742073756363657373667560008201527f6c00000000000000000000000000000000000000000000000000000000000000602082015250565b7f476f7665726e6f723a20756e6b6e6f776e2070726f706f73616c206964000000600082015250565b7f476f7665726e6f72566f74696e6753696d706c653a20696e76616c696420766160008201527f6c756520666f7220656e756d20566f7465547970650000000000000000000000602082015250565b7f476f7665726e6f723a2070726f706f73616c20616c726561647920657869737460008201527f7300000000000000000000000000000000000000000000000000000000000000602082015250565b7f416464726573733a2063616c6c20746f206e6f6e2d636f6e7472616374000000600082015250565b7f476f7665726e6f723a2070726f706f73657220766f7465732062656c6f77207060008201527f726f706f73616c207468726573686f6c64000000000000000000000000000000602082015250565b6008811061530a57615309614d62565b5b50565b61531681614b12565b811461532157600080fd5b50565b61532d81614b30565b811461533857600080fd5b50565b61534481614b3a565b811461534f57600080fd5b50565b61535b81614b99565b811461536657600080fd5b50565b61537281614bb7565b811461537d57600080fd5b5056fe476f7665726e6f723a2063616c6c20726576657274656420776974686f7574206d657373616765416464726573733a206c6f772d6c6576656c2063616c6c20776974682076616c7565206661696c6564a264697066735822122095f8fcaeaa62620e50c2b9aceec8cb36d29296a7be7db8c740fa4c60d90468bc64736f6c63430008040033",
  "linkReferences": {},
  "deployedLinkReferences": {}
}