{
  "_format": "hh-sol-artifact-1",
  "contractName": "GovernorCountingSimpleImpl",
  "sourceName": "contracts/openzeppelin/governor-counting-simple/GovernorCountingSimpleImpl.sol",
  "abi": [
    {
      "inputs": [
        {
          "internalType": "string",
          "name": "name_",
          "type": "string"
        },
        {
          "internalType": "contract IVotes",
          "name": "votingToken_",
          "type": "address"
        },
        {
          "internalType": "uint256",
          "name": "votingDelay_",
          "type": "uint256"
        },
        {
          "internalType": "uint256",
          "name": "votingPeriod_",
          "type": "uint256"
        },
        {
          "internalType": "uint256",
          "name": "proposalThreshold_",
          "type": "uint256"
        },
        {
          "internalType": "uint256",
          "name": "quorumPercentage_",
          "type": "uint256"
        }
      ],
      "stateMutability": "nonpayable",
      "type": "constructor"
    },
    {
      "inputs": [],
      "name": "Empty",
      "type": "error"
    },
    {
      "anonymous": false,
      "inputs": [
        {
          "indexed": false,
          "internalType": "uint256",
          "name": "proposalId",
          "type": "uint256"
        }
      ],
      "name": "ProposalCanceled",
      "type": "event"
    },
    {
      "anonymous": false,
      "inputs": [
        {
          "indexed": false,
          "internalType": "uint256",
          "name": "proposalId",
          "type": "uint256"
        },
        {
          "indexed": false,
          "internalType": "address",
          "name": "proposer",
          "type": "address"
        },
        {
          "indexed": false,
          "internalType": "address[]",
          "name": "targets",
          "type": "address[]"
        },
        {
          "indexed": false,
          "internalType": "uint256[]",
          "name": "values",
          "type": "uint256[]"
        },
        {
          "indexed": false,
          "internalType": "string[]",
          "name": "signatures",
          "type": "string[]"
        },
        {
          "indexed": false,
          "internalType": "bytes[]",
          "name": "calldatas",
          "type": "bytes[]"
        },
        {
          "indexed": false,
          "internalType": "uint256",
          "name": "startBlock",
          "type": "uint256"
        },
        {
          "indexed": false,
          "internalType": "uint256",
          "name": "endBlock",
          "type": "uint256"
        },
        {
          "indexed": false,
          "internalType": "string",
          "name": "description",
          "type": "string"
        }
      ],
      "name": "ProposalCreated",
      "type": "event"
    },
    {
      "anonymous": false,
      "inputs": [
        {
          "indexed": false,
          "internalType": "uint256",
          "name": "proposalId",
          "type": "uint256"
        }
      ],
      "name": "ProposalExecuted",
      "type": "event"
    },
    {
      "anonymous": false,
      "inputs": [
        {
          "indexed": false,
          "internalType": "uint256",
          "name": "oldQuorumNumerator",
          "type": "uint256"
        },
        {
          "indexed": false,
          "internalType": "uint256",
          "name": "newQuorumNumerator",
          "type": "uint256"
        }
      ],
      "name": "QuorumNumeratorUpdated",
      "type": "event"
    },
    {
      "anonymous": false,
      "inputs": [
        {
          "indexed": true,
          "internalType": "address",
          "name": "voter",
          "type": "address"
        },
        {
          "indexed": false,
          "internalType": "uint256",
          "name": "proposalId",
          "type": "uint256"
        },
        {
          "indexed": false,
          "internalType": "uint8",
          "name": "support",
          "type": "uint8"
        },
        {
          "indexed": false,
          "internalType": "uint256",
          "name": "weight",
          "type": "uint256"
        },
        {
          "indexed": false,
          "internalType": "string",
          "name": "reason",
          "type": "string"
        }
      ],
      "name": "VoteCast",
      "type": "event"
    },
    {
      "anonymous": false,
      "inputs": [
        {
          "indexed": true,
          "internalType": "address",
          "name": "voter",
          "type": "address"
        },
        {
          "indexed": false,
          "internalType": "uint256",
          "name": "proposalId",
          "type": "uint256"
        },
        {
          "indexed": false,
          "internalType": "uint8",
          "name": "support",
          "type": "uint8"
        },
        {
          "indexed": false,
          "internalType": "uint256",
          "name": "weight",
          "type": "uint256"
        },
        {
          "indexed": false,
          "internalType": "string",
          "name": "reason",
          "type": "string"
        },
        {
          "indexed": false,
          "internalType": "bytes",
          "name": "params",
          "type": "bytes"
        }
      ],
      "name": "VoteCastWithParams",
      "type": "event"
    },
    {
      "inputs": [],
      "name": "BALLOT_TYPEHASH",
      "outputs": [
        {
          "internalType": "bytes32",
          "name": "",
          "type": "bytes32"
        }
      ],
      "stateMutability": "view",
      "type": "function"
    },
    {
      "inputs": [],
      "name": "COUNTING_MODE",
      "outputs": [
        {
          "internalType": "string",
          "name": "",
          "type": "string"
        }
      ],
      "stateMutability": "pure",
      "type": "function"
    },
    {
      "inputs": [],
      "name": "EXTENDED_BALLOT_TYPEHASH",
      "outputs": [
        {
          "internalType": "bytes32",
          "name": "",
          "type": "bytes32"
        }
      ],
      "stateMutability": "view",
      "type": "function"
    },
    {
      "inputs": [
        {
          "internalType": "uint256",
          "name": "proposalId",
          "type": "uint256"
        },
        {
          "internalType": "uint8",
          "name": "support",
          "type": "uint8"
        }
      ],
      "name": "castVote",
      "outputs": [
        {
          "internalType": "uint256",
          "name": "",
          "type": "uint256"
        }
      ],
      "stateMutability": "nonpayable",
      "type": "function"
    },
    {
      "inputs": [
        {
          "internalType": "uint256",
          "name": "proposalId",
          "type": "uint256"
        },
        {
          "internalType": "uint8",
          "name": "support",
          "type": "uint8"
        },
        {
          "internalType": "uint8",
          "name": "v",
          "type": "uint8"
        },
        {
          "internalType": "bytes32",
          "name": "r",
          "type": "bytes32"
        },
        {
          "internalType": "bytes32",
          "name": "s",
          "type": "bytes32"
        }
      ],
      "name": "castVoteBySig",
      "outputs": [
        {
          "internalType": "uint256",
          "name": "",
          "type": "uint256"
        }
      ],
      "stateMutability": "nonpayable",
      "type": "function"
    },
    {
      "inputs": [
        {
          "internalType": "uint256",
          "name": "proposalId",
          "type": "uint256"
        },
        {
          "internalType": "uint8",
          "name": "support",
          "type": "uint8"
        },
        {
          "internalType": "string",
          "name": "reason",
          "type": "string"
        }
      ],
      "name": "castVoteWithReason",
      "outputs": [
        {
          "internalType": "uint256",
          "name": "",
          "type": "uint256"
        }
      ],
      "stateMutability": "nonpayable",
      "type": "function"
    },
    {
      "inputs": [
        {
          "internalType": "uint256",
          "name": "proposalId",
          "type": "uint256"
        },
        {
          "internalType": "uint8",
          "name": "support",
          "type": "uint8"
        },
        {
          "internalType": "string",
          "name": "reason",
          "type": "string"
        },
        {
          "internalType": "bytes",
          "name": "params",
          "type": "bytes"
        }
      ],
      "name": "castVoteWithReasonAndParams",
      "outputs": [
        {
          "internalType": "uint256",
          "name": "",
          "type": "uint256"
        }
      ],
      "stateMutability": "nonpayable",
      "type": "function"
    },
    {
      "inputs": [
        {
          "internalType": "uint256",
          "name": "proposalId",
          "type": "uint256"
        },
        {
          "internalType": "uint8",
          "name": "support",
          "type": "uint8"
        },
        {
          "internalType": "string",
          "name": "reason",
          "type": "string"
        },
        {
          "internalType": "bytes",
          "name": "params",
          "type": "bytes"
        },
        {
          "internalType": "uint8",
          "name": "v",
          "type": "uint8"
        },
        {
          "internalType": "bytes32",
          "name": "r",
          "type": "bytes32"
        },
        {
          "internalType": "bytes32",
          "name": "s",
          "type": "bytes32"
        }
      ],
      "name": "castVoteWithReasonAndParamsBySig",
      "outputs": [
        {
          "internalType": "uint256",
          "name": "",
          "type": "uint256"
        }
      ],
      "stateMutability": "nonpayable",
      "type": "function"
    },
    {
      "inputs": [
        {
          "internalType": "address[]",
          "name": "targets",
          "type": "address[]"
        },
        {
          "internalType": "uint256[]",
          "name": "values",
          "type": "uint256[]"
        },
        {
          "internalType": "bytes[]",
          "name": "calldatas",
          "type": "bytes[]"
        },
        {
          "internalType": "bytes32",
          "name": "descriptionHash",
          "type": "bytes32"
        }
      ],
      "name": "execute",
      "outputs": [
        {
          "internalType": "uint256",
          "name": "",
          "type": "uint256"
        }
      ],
      "stateMutability": "payable",
      "type": "function"
    },
    {
      "inputs": [
        {
          "internalType": "address",
          "name": "account",
          "type": "address"
        },
        {
          "internalType": "uint256",
          "name": "blockNumber",
          "type": "uint256"
        }
      ],
      "name": "getVotes",
      "outputs": [
        {
          "internalType": "uint256",
          "name": "",
          "type": "uint256"
        }
      ],
      "stateMutability": "view",
      "type": "function"
    },
    {
      "inputs": [
        {
          "internalType": "address",
          "name": "account",
          "type": "address"
        },
        {
          "internalType": "uint256",
          "name": "blockNumber",
          "type": "uint256"
        },
        {
          "internalType": "bytes",
          "name": "params",
          "type": "bytes"
        }
      ],
      "name": "getVotesWithParams",
      "outputs": [
        {
          "internalType": "uint256",
          "name": "",
          "type": "uint256"
        }
      ],
      "stateMutability": "view",
      "type": "function"
    },
    {
      "inputs": [
        {
          "internalType": "uint256",
          "name": "proposalId",
          "type": "uint256"
        },
        {
          "internalType": "address",
          "name": "account",
          "type": "address"
        }
      ],
      "name": "hasVoted",
      "outputs": [
        {
          "internalType": "bool",
          "name": "",
          "type": "bool"
        }
      ],
      "stateMutability": "view",
      "type": "function"
    },
    {
      "inputs": [
        {
          "internalType": "address[]",
          "name": "targets",
          "type": "address[]"
        },
        {
          "internalType": "uint256[]",
          "name": "values",
          "type": "uint256[]"
        },
        {
          "internalType": "bytes[]",
          "name": "calldatas",
          "type": "bytes[]"
        },
        {
          "internalType": "bytes32",
          "name": "descriptionHash",
          "type": "bytes32"
        }
      ],
      "name": "hashProposal",
      "outputs": [
        {
          "internalType": "uint256",
          "name": "",
          "type": "uint256"
        }
      ],
      "stateMutability": "pure",
      "type": "function"
    },
    {
      "inputs": [],
      "name": "name",
      "outputs": [
        {
          "internalType": "string",
          "name": "",
          "type": "string"
        }
      ],
      "stateMutability": "view",
      "type": "function"
    },
    {
      "inputs": [
        {
          "internalType": "address",
          "name": "",
          "type": "address"
        },
        {
          "internalType": "address",
          "name": "",
          "type": "address"
        },
        {
          "internalType": "uint256[]",
          "name": "",
          "type": "uint256[]"
        },
        {
          "internalType": "uint256[]",
          "name": "",
          "type": "uint256[]"
        },
        {
          "internalType": "bytes",
          "name": "",
          "type": "bytes"
        }
      ],
      "name": "onERC1155BatchReceived",
      "outputs": [
        {
          "internalType": "bytes4",
          "name": "",
          "type": "bytes4"
        }
      ],
      "stateMutability": "nonpayable",
      "type": "function"
    },
    {
      "inputs": [
        {
          "internalType": "address",
          "name": "",
          "type": "address"
        },
        {
          "internalType": "address",
          "name": "",
          "type": "address"
        },
        {
          "internalType": "uint256",
          "name": "",
          "type": "uint256"
        },
        {
          "internalType": "uint256",
          "name": "",
          "type": "uint256"
        },
        {
          "internalType": "bytes",
          "name": "",
          "type": "bytes"
        }
      ],
      "name": "onERC1155Received",
      "outputs": [
        {
          "internalType": "bytes4",
          "name": "",
          "type": "bytes4"
        }
      ],
      "stateMutability": "nonpayable",
      "type": "function"
    },
    {
      "inputs": [
        {
          "internalType": "address",
          "name": "",
          "type": "address"
        },
        {
          "internalType": "address",
          "name": "",
          "type": "address"
        },
        {
          "internalType": "uint256",
          "name": "",
          "type": "uint256"
        },
        {
          "internalType": "bytes",
          "name": "",
          "type": "bytes"
        }
      ],
      "name": "onERC721Received",
      "outputs": [
        {
          "internalType": "bytes4",
          "name": "",
          "type": "bytes4"
        }
      ],
      "stateMutability": "nonpayable",
      "type": "function"
    },
    {
      "inputs": [
        {
          "internalType": "uint256",
          "name": "proposalId",
          "type": "uint256"
        }
      ],
      "name": "proposalDeadline",
      "outputs": [
        {
          "internalType": "uint256",
          "name": "",
          "type": "uint256"
        }
      ],
      "stateMutability": "view",
      "type": "function"
    },
    {
      "inputs": [
        {
          "internalType": "uint256",
          "name": "proposalId",
          "type": "uint256"
        }
      ],
      "name": "proposalSnapshot",
      "outputs": [
        {
          "internalType": "uint256",
          "name": "",
          "type": "uint256"
        }
      ],
      "stateMutability": "view",
      "type": "function"
    },
    {
      "inputs": [],
      "name": "proposalThreshold",
      "outputs": [
        {
          "internalType": "uint256",
          "name": "",
          "type": "uint256"
        }
      ],
      "stateMutability": "view",
      "type": "function"
    },
    {
      "inputs": [
        {
          "internalType": "uint256",
          "name": "proposalId",
          "type": "uint256"
        }
      ],
      "name": "proposalVotes",
      "outputs": [
        {
          "internalType": "uint256",
          "name": "againstVotes",
          "type": "uint256"
        },
        {
          "internalType": "uint256",
          "name": "forVotes",
          "type": "uint256"
        },
        {
          "internalType": "uint256",
          "name": "abstainVotes",
          "type": "uint256"
        }
      ],
      "stateMutability": "view",
      "type": "function"
    },
    {
      "inputs": [
        {
          "internalType": "address[]",
          "name": "targets",
          "type": "address[]"
        },
        {
          "internalType": "uint256[]",
          "name": "values",
          "type": "uint256[]"
        },
        {
          "internalType": "bytes[]",
          "name": "calldatas",
          "type": "bytes[]"
        },
        {
          "internalType": "string",
          "name": "description",
          "type": "string"
        }
      ],
      "name": "propose",
      "outputs": [
        {
          "internalType": "uint256",
          "name": "",
          "type": "uint256"
        }
      ],
      "stateMutability": "nonpayable",
      "type": "function"
    },
    {
      "inputs": [
        {
          "internalType": "uint256",
          "name": "blockNumber",
          "type": "uint256"
        }
      ],
      "name": "quorum",
      "outputs": [
        {
          "internalType": "uint256",
          "name": "",
          "type": "uint256"
        }
      ],
      "stateMutability": "view",
      "type": "function"
    },
    {
      "inputs": [],
      "name": "quorumDenominator",
      "outputs": [
        {
          "internalType": "uint256",
          "name": "",
          "type": "uint256"
        }
      ],
      "stateMutability": "view",
      "type": "function"
    },
    {
      "inputs": [],
      "name": "quorumNumerator",
      "outputs": [
        {
          "internalType": "uint256",
          "name": "",
          "type": "uint256"
        }
      ],
      "stateMutability": "view",
      "type": "function"
    },
    {
      "inputs": [
        {
          "internalType": "address",
          "name": "target",
          "type": "address"
        },
        {
          "internalType": "uint256",
          "name": "value",
          "type": "uint256"
        },
        {
          "internalType": "bytes",
          "name": "data",
          "type": "bytes"
        }
      ],
      "name": "relay",
      "outputs": [],
      "stateMutability": "nonpayable",
      "type": "function"
    },
    {
      "inputs": [
        {
          "internalType": "uint256",
          "name": "proposalId",
          "type": "uint256"
        }
      ],
      "name": "state",
      "outputs": [
        {
          "internalType": "enum IGovernor.ProposalState",
          "name": "",
          "type": "uint8"
        }
      ],
      "stateMutability": "view",
      "type": "function"
    },
    {
      "inputs": [
        {
          "internalType": "bytes4",
          "name": "interfaceId",
          "type": "bytes4"
        }
      ],
      "name": "supportsInterface",
      "outputs": [
        {
          "internalType": "bool",
          "name": "",
          "type": "bool"
        }
      ],
      "stateMutability": "view",
      "type": "function"
    },
    {
      "inputs": [],
      "name": "token",
      "outputs": [
        {
          "internalType": "contract IVotes",
          "name": "",
          "type": "address"
        }
      ],
      "stateMutability": "view",
      "type": "function"
    },
    {
      "inputs": [
        {
          "internalType": "uint256",
          "name": "newQuorumNumerator",
          "type": "uint256"
        }
      ],
      "name": "updateQuorumNumerator",
      "outputs": [],
      "stateMutability": "nonpayable",
      "type": "function"
    },
    {
      "inputs": [],
      "name": "version",
      "outputs": [
        {
          "internalType": "string",
          "name": "",
          "type": "string"
        }
      ],
      "stateMutability": "view",
      "type": "function"
    },
    {
      "inputs": [],
      "name": "votingDelay",
      "outputs": [
        {
          "internalType": "uint256",
          "name": "",
          "type": "uint256"
        }
      ],
      "stateMutability": "view",
      "type": "function"
    },
    {
      "inputs": [],
      "name": "votingPeriod",
      "outputs": [
        {
          "internalType": "uint256",
          "name": "",
          "type": "uint256"
        }
      ],
      "stateMutability": "view",
      "type": "function"
    }
  ],
  "bytecode": "0x6101606040523480156200001257600080fd5b5060405162005cb038038062005cb08339818101604052810190620000389190620003fb565b808587806200004c6200018760201b60201c565b60008280519060200120905060008280519060200120905060007f8b73c3c69bb8fe3d512ecc4cf759cc79239f7b179b0ffacaa9a75d522b39400f90508260e081815250508161010081815250504660a08181525050620000b5818484620001c460201b60201c565b608081815250503073ffffffffffffffffffffffffffffffffffffffff1660c08173ffffffffffffffffffffffffffffffffffffffff1660601b815250508061012081815250505050505050806000908051906020019062000119929190620002ab565b50508073ffffffffffffffffffffffffffffffffffffffff166101408173ffffffffffffffffffffffffffffffffffffffff1660601b815250505062000165816200020060201b60201c565b5083600681905550826007819055508160088190555050505050505062000836565b60606040518060400160405280600181526020017f3100000000000000000000000000000000000000000000000000000000000000815250905090565b60008383834630604051602001620001e195949392919062000504565b6040516020818303038152906040528051906020012090509392505050565b62000210620002a260201b60201c565b81111562000255576040517f08c379a00000000000000000000000000000000000000000000000000000000081526004016200024c9062000561565b60405180910390fd5b60006005549050816005819055507f0553476bf02ef2726e8ce5ced78d63e26e602e4a2257b1f559418e24b463399781836040516200029692919062000583565b60405180910390a15050565b60006064905090565b828054620002b990620006b2565b90600052602060002090601f016020900481019282620002dd576000855562000329565b82601f10620002f857805160ff191683800117855562000329565b8280016001018555821562000329579182015b82811115620003285782518255916020019190600101906200030b565b5b5090506200033891906200033c565b5090565b5b80821115620003575760008160009055506001016200033d565b5090565b6000620003726200036c84620005d9565b620005b0565b9050828152602081018484840111156200038b57600080fd5b620003988482856200067c565b509392505050565b600081519050620003b18162000802565b92915050565b600082601f830112620003c957600080fd5b8151620003db8482602086016200035b565b91505092915050565b600081519050620003f5816200081c565b92915050565b60008060008060008060c087890312156200041557600080fd5b600087015167ffffffffffffffff8111156200043057600080fd5b6200043e89828a01620003b7565b96505060206200045189828a01620003a0565b95505060406200046489828a01620003e4565b94505060606200047789828a01620003e4565b93505060806200048a89828a01620003e4565b92505060a06200049d89828a01620003e4565b9150509295509295509295565b620004b58162000620565b82525050565b620004c68162000634565b82525050565b6000620004db6043836200060f565b9150620004e8826200078d565b606082019050919050565b620004fe8162000672565b82525050565b600060a0820190506200051b6000830188620004bb565b6200052a6020830187620004bb565b620005396040830186620004bb565b620005486060830185620004f3565b620005576080830184620004aa565b9695505050505050565b600060208201905081810360008301526200057c81620004cc565b9050919050565b60006040820190506200059a6000830185620004f3565b620005a96020830184620004f3565b9392505050565b6000620005bc620005cf565b9050620005ca8282620006e8565b919050565b6000604051905090565b600067ffffffffffffffff821115620005f757620005f66200074d565b5b62000602826200077c565b9050602081019050919050565b600082825260208201905092915050565b60006200062d8262000652565b9050919050565b6000819050919050565b60006200064b8262000620565b9050919050565b600073ffffffffffffffffffffffffffffffffffffffff82169050919050565b6000819050919050565b60005b838110156200069c5780820151818401526020810190506200067f565b83811115620006ac576000848401525b50505050565b60006002820490506001821680620006cb57607f821691505b60208210811415620006e257620006e16200071e565b5b50919050565b620006f3826200077c565b810181811067ffffffffffffffff821117156200071557620007146200074d565b5b80604052505050565b7f4e487b7100000000000000000000000000000000000000000000000000000000600052602260045260246000fd5b7f4e487b7100000000000000000000000000000000000000000000000000000000600052604160045260246000fd5b6000601f19601f8301169050919050565b7f476f7665726e6f72566f74657351756f72756d4672616374696f6e3a2071756f60008201527f72756d4e756d657261746f72206f7665722071756f72756d44656e6f6d696e6160208201527f746f720000000000000000000000000000000000000000000000000000000000604082015250565b6200080d816200063e565b81146200081957600080fd5b50565b620008278162000672565b81146200083357600080fd5b50565b60805160a05160c05160601c60e05161010051610120516101405160601c61540b620008a56000396000818161192d015281816119f101526122a10152600061244701526000612489015260006124680152600061239d015260006123f30152600061241c015261540b6000f3fe6080604052600436106101f25760003560e01c80635f398a141161010d578063c01f9e37116100a0578063deaaa7cc1161006f578063deaaa7cc14610814578063eb9019d41461083f578063f23a6e611461087c578063f8ce560a146108b9578063fc0c546a146108f657610238565b8063c01f9e3714610746578063c28bc2fa14610783578063c59057e4146107ac578063dd4e2ba5146107e957610238565b80639a802a6d116100dc5780639a802a6d14610676578063a7713a70146106b3578063b58131b0146106de578063bc197c811461070957610238565b80635f398a14146105945780637b3c71d3146105d15780637d5e81e21461060e57806397c3d3341461064b57610238565b80632fe3e26111610185578063438596321161015457806343859632146104b0578063544ffc9c146104ed57806354fd4d501461052c578063567813881461055757610238565b80632fe3e261146103e05780633932abb11461040b5780633bccf4fd146104365780633e4f49e61461047357610238565b806306fdde03116101c157806306fdde031461030b578063150b7a02146103365780632656227d146103735780632d63f693146103a357610238565b806301ffc9a71461023d57806302a251a31461027a57806303420181146102a557806306f3f9e6146102e257610238565b36610238573073ffffffffffffffffffffffffffffffffffffffff16610216610921565b73ffffffffffffffffffffffffffffffffffffffff161461023657600080fd5b005b600080fd5b34801561024957600080fd5b50610264600480360381019061025f91906136cb565b610929565b6040516102719190614182565b60405180910390f35b34801561028657600080fd5b5061028f610a8e565b60405161029c919061458d565b60405180910390f35b3480156102b157600080fd5b506102cc60048036038101906102c791906138c2565b610a98565b6040516102d9919061458d565b60405180910390f35b3480156102ee57600080fd5b50610309600480360381019061030491906136f4565b610b7d565b005b34801561031757600080fd5b50610320610c79565b60405161032d919061432b565b60405180910390f35b34801561034257600080fd5b5061035d60048036038101906103589190613344565b610d0b565b60405161036a91906142da565b60405180910390f35b61038d6004803603810190610388919061355d565b610d1f565b60405161039a919061458d565b60405180910390f35b3480156103af57600080fd5b506103ca60048036038101906103c591906136f4565b610f04565b6040516103d7919061458d565b60405180910390f35b3480156103ec57600080fd5b506103f5610f72565b604051610402919061419d565b60405180910390f35b34801561041757600080fd5b50610420610f96565b60405161042d919061458d565b60405180910390f35b34801561044257600080fd5b5061045d60048036038101906104589190613994565b610fa0565b60405161046a919061458d565b60405180910390f35b34801561047f57600080fd5b5061049a600480360381019061049591906136f4565b61102a565b6040516104a79190614310565b60405180910390f35b3480156104bc57600080fd5b506104d760048036038101906104d29190613746565b61113f565b6040516104e49190614182565b60405180910390f35b3480156104f957600080fd5b50610514600480360381019061050f91906136f4565b6111aa565b60405161052393929190614681565b60405180910390f35b34801561053857600080fd5b506105416111e2565b60405161054e919061432b565b60405180910390f35b34801561056357600080fd5b5061057e60048036038101906105799190613782565b61121f565b60405161058b919061458d565b60405180910390f35b3480156105a057600080fd5b506105bb60048036038101906105b6919061382a565b611250565b6040516105c8919061458d565b60405180910390f35b3480156105dd57600080fd5b506105f860048036038101906105f391906137be565b6112ba565b604051610605919061458d565b60405180910390f35b34801561061a57600080fd5b5061063560048036038101906106309190613608565b611322565b604051610642919061458d565b60405180910390f35b34801561065757600080fd5b5061066061164f565b60405161066d919061458d565b60405180910390f35b34801561068257600080fd5b5061069d600480360381019061069891906134f6565b611658565b6040516106aa919061458d565b60405180910390f35b3480156106bf57600080fd5b506106c861166e565b6040516106d5919061458d565b60405180910390f35b3480156106ea57600080fd5b506106f3611678565b604051610700919061458d565b60405180910390f35b34801561071557600080fd5b50610730600480360381019061072b9190613285565b611682565b60405161073d91906142da565b60405180910390f35b34801561075257600080fd5b5061076d600480360381019061076891906136f4565b611697565b60405161077a919061458d565b60405180910390f35b34801561078f57600080fd5b506107aa60048036038101906107a5919061348a565b611705565b005b3480156107b857600080fd5b506107d360048036038101906107ce919061355d565b61184b565b6040516107e0919061458d565b60405180910390f35b3480156107f557600080fd5b506107fe611887565b60405161080b919061432b565b60405180910390f35b34801561082057600080fd5b506108296118c4565b604051610836919061419d565b60405180910390f35b34801561084b57600080fd5b506108666004803603810190610861919061344e565b6118e8565b604051610873919061458d565b60405180910390f35b34801561088857600080fd5b506108a3600480360381019061089e91906133bf565b611904565b6040516108b091906142da565b60405180910390f35b3480156108c557600080fd5b506108e060048036038101906108db91906136f4565b611919565b6040516108ed919061458d565b60405180910390f35b34801561090257600080fd5b5061090b6119ef565b60405161091891906142f5565b60405180910390f35b600030905090565b6000639a802a6d60e01b630342018160e01b635f398a1460e01b7f79dd796f000000000000000000000000000000000000000000000000000000001818187bffffffffffffffffffffffffffffffffffffffffffffffffffffffff1916827bffffffffffffffffffffffffffffffffffffffffffffffffffffffff19161480610a0f57507f79dd796f000000000000000000000000000000000000000000000000000000007bffffffffffffffffffffffffffffffffffffffffffffffffffffffff1916827bffffffffffffffffffffffffffffffffffffffffffffffffffffffff1916145b80610a7757507f4e2312e0000000000000000000000000000000000000000000000000000000007bffffffffffffffffffffffffffffffffffffffffffffffffffffffff1916827bffffffffffffffffffffffffffffffffffffffffffffffffffffffff1916145b80610a875750610a8682611a13565b5b9050919050565b6000600754905090565b600080610b1b610b137fb3b3f3b703cd84ce352197dcff232b1b5d3cfb2025ce47cf04742d0651f1af888c8c8c8c604051610ad4929190614098565b60405180910390208b80519060200120604051602001610af8959493929190614242565b60405160208183030381529060405280519060200120611a7d565b868686611a97565b9050610b6e8a828b8b8b8080601f016020809104026020016040519081016040528093929190818152602001838380828437600081840152601f19601f820116905080830192505050505050508a611ac2565b91505098975050505050505050565b610b85610921565b73ffffffffffffffffffffffffffffffffffffffff16610ba3611ccb565b73ffffffffffffffffffffffffffffffffffffffff1614610bf9576040517f08c379a0000000000000000000000000000000000000000000000000000000008152600401610bf09061436d565b60405180910390fd5b3073ffffffffffffffffffffffffffffffffffffffff16610c18610921565b73ffffffffffffffffffffffffffffffffffffffff1614610c6d576000610c3d611cd3565b604051610c4b929190614098565b604051809103902090505b80610c616002611ce0565b14610c6b57610c56565b505b610c7681611dbc565b50565b606060008054610c8890614c53565b80601f0160208091040260200160405190810160405280929190818152602001828054610cb490614c53565b8015610d015780601f10610cd657610100808354040283529160200191610d01565b820191906000526020600020905b815481529060010190602001808311610ce457829003601f168201915b5050505050905090565b600063150b7a0260e01b9050949350505050565b600080610d2e8686868661184b565b90506000610d3b8261102a565b905060046007811115610d77577f4e487b7100000000000000000000000000000000000000000000000000000000600052602160045260246000fd5b816007811115610db0577f4e487b7100000000000000000000000000000000000000000000000000000000600052602160045260246000fd5b1480610e2c575060056007811115610df1577f4e487b7100000000000000000000000000000000000000000000000000000000600052602160045260246000fd5b816007811115610e2a577f4e487b7100000000000000000000000000000000000000000000000000000000600052602160045260246000fd5b145b610e6b576040517f08c379a0000000000000000000000000000000000000000000000000000000008152600401610e62906144cd565b60405180910390fd5b600180600084815260200190815260200160002060020160006101000a81548160ff0219169083151502179055507f712ae1383f79ac853f8d882153778e0260ef8f03b504e2866e0593e04d2b291f82604051610ec8919061458d565b60405180910390a1610edd8288888888611e51565b610eea8288888888611f81565b610ef78288888888612102565b8192505050949350505050565b6000610f61600160008481526020019081526020016000206000016040518060200160405290816000820160009054906101000a900467ffffffffffffffff1667ffffffffffffffff1667ffffffffffffffff168152505061215d565b67ffffffffffffffff169050919050565b7fb3b3f3b703cd84ce352197dcff232b1b5d3cfb2025ce47cf04742d0651f1af8881565b6000600654905090565b600080611001610ff97f150214d74d59b7d1e90c73fc22ef3d991dd0a76b046543d4d80ab92d2a50328f8989604051602001610fde9392919061420b565b60405160208183030381529060405280519060200120611a7d565b868686611a97565b905061101e8782886040518060200160405280600081525061216b565b91505095945050505050565b6000806001600084815260200190815260200160002090508060020160009054906101000a900460ff161561106357600791505061113a565b8060020160019054906101000a900460ff161561108457600291505061113a565b600061108f84610f04565b905060008114156110d5576040517f08c379a00000000000000000000000000000000000000000000000000000000081526004016110cc906144ed565b60405180910390fd5b4381106110e75760009250505061113a565b60006110f285611697565b9050438110611107576001935050505061113a565b6111108561218b565b80156111215750611120856121d2565b5b15611132576004935050505061113a565b600393505050505b919050565b60006004600084815260200190815260200160002060030160008373ffffffffffffffffffffffffffffffffffffffff1673ffffffffffffffffffffffffffffffffffffffff16815260200190815260200160002060009054906101000a900460ff16905092915050565b600080600080600460008681526020019081526020016000209050806000015481600101548260020154935093509350509193909250565b60606040518060400160405280600181526020017f3100000000000000000000000000000000000000000000000000000000000000815250905090565b60008061122a611ccb565b90506112478482856040518060200160405280600081525061216b565b91505092915050565b60008061125b611ccb565b90506112ae87828888888080601f016020809104026020016040519081016040528093929190818152602001838380828437600081840152601f19601f8201169050808301925050505050505087611ac2565b91505095945050505050565b6000806112c5611ccb565b905061131786828787878080601f016020809104026020016040519081016040528093929190818152602001838380828437600081840152601f19601f8201169050808301925050505050505061216b565b915050949350505050565b600061132c611678565b611349611337611ccb565b6001436113449190614ae3565b6118e8565b101561138a576040517f08c379a00000000000000000000000000000000000000000000000000000000081526004016113819061456d565b60405180910390fd5b600061139f868686868051906020012061184b565b905084518651146113e5576040517f08c379a00000000000000000000000000000000000000000000000000000000081526004016113dc906143cd565b60405180910390fd5b8351865114611429576040517f08c379a0000000000000000000000000000000000000000000000000000000008152600401611420906143cd565b60405180910390fd5b600086511161146d576040517f08c379a00000000000000000000000000000000000000000000000000000000081526004016114649061446d565b60405180910390fd5b60006001600083815260200190815260200160002090506114cd816000016040518060200160405290816000820160009054906101000a900467ffffffffffffffff1667ffffffffffffffff1667ffffffffffffffff16815250506121fd565b61150c576040517f08c379a00000000000000000000000000000000000000000000000000000000081526004016115039061452d565b60405180910390fd5b600061151e611519610f96565b612217565b61152743612217565b6115319190614a1a565b90506000611545611540610a8e565b612217565b826115509190614a1a565b9050611568828460000161226e90919063ffffffff16565b61157e818460010161226e90919063ffffffff16565b7f7d84a6263ae0d98d3329bd7b46bb4e8d6f98cd35a7adb45c274c8b7fd5ebd5e0846115a8611ccb565b8b8b8d5167ffffffffffffffff8111156115eb577f4e487b7100000000000000000000000000000000000000000000000000000000600052604160045260246000fd5b60405190808252806020026020018201604052801561161e57816020015b60608152602001906001900390816116095790505b508c88888e604051611638999897969594939291906145a8565b60405180910390a183945050505050949350505050565b60006064905090565b600061166584848461229d565b90509392505050565b6000600554905090565b6000600854905090565b600063bc197c8160e01b905095945050505050565b60006116f4600160008481526020019081526020016000206001016040518060200160405290816000820160009054906101000a900467ffffffffffffffff1667ffffffffffffffff1667ffffffffffffffff168152505061215d565b67ffffffffffffffff169050919050565b61170d610921565b73ffffffffffffffffffffffffffffffffffffffff1661172b611ccb565b73ffffffffffffffffffffffffffffffffffffffff1614611781576040517f08c379a00000000000000000000000000000000000000000000000000000000081526004016117789061436d565b60405180910390fd5b3073ffffffffffffffffffffffffffffffffffffffff166117a0610921565b73ffffffffffffffffffffffffffffffffffffffff16146117f55760006117c5611cd3565b6040516117d3929190614098565b604051809103902090505b806117e96002611ce0565b146117f3576117de565b505b6118448483838080601f016020809104026020016040519081016040528093929190818152602001838380828437600081840152601f19601f8201169050808301925050505050505085612353565b5050505050565b6000848484846040516020016118649493929190614128565b6040516020818303038152906040528051906020012060001c9050949350505050565b60606040518060400160405280602081526020017f737570706f72743d627261766f2671756f72756d3d666f722c6162737461696e815250905090565b7f150214d74d59b7d1e90c73fc22ef3d991dd0a76b046543d4d80ab92d2a50328f81565b60006118fc83836118f7612382565b61229d565b905092915050565b600063f23a6e6160e01b905095945050505050565b600061192361164f565b61192b61166e565b7f000000000000000000000000000000000000000000000000000000000000000073ffffffffffffffffffffffffffffffffffffffff16638e539e8c856040518263ffffffff1660e01b8152600401611984919061458d565b60206040518083038186803b15801561199c57600080fd5b505afa1580156119b0573d6000803e3d6000fd5b505050506040513d601f19601f820116820180604052508101906119d4919061371d565b6119de9190614a89565b6119e89190614a58565b9050919050565b7f000000000000000000000000000000000000000000000000000000000000000081565b60007f01ffc9a7000000000000000000000000000000000000000000000000000000007bffffffffffffffffffffffffffffffffffffffffffffffffffffffff1916827bffffffffffffffffffffffffffffffffffffffffffffffffffffffff1916149050919050565b6000611a90611a8a612399565b836124b3565b9050919050565b6000806000611aa8878787876124e6565b91509150611ab5816125f3565b8192505050949350505050565b60008060016000888152602001908152602001600020905060016007811115611b14577f4e487b7100000000000000000000000000000000000000000000000000000000600052602160045260246000fd5b611b1d8861102a565b6007811115611b55577f4e487b7100000000000000000000000000000000000000000000000000000000600052602160045260246000fd5b14611b95576040517f08c379a0000000000000000000000000000000000000000000000000000000008152600401611b8c9061444d565b60405180910390fd5b6000611bf487611be4846000016040518060200160405290816000820160009054906101000a900467ffffffffffffffff1667ffffffffffffffff1667ffffffffffffffff168152505061215d565b67ffffffffffffffff168661229d565b9050611c038888888488612944565b600084511415611c66578673ffffffffffffffffffffffffffffffffffffffff167fb8e138887d0aa13bab447e82de9d5c1777041ecd21ca36ba824ff1e6c07ddda489888489604051611c5994939291906146b8565b60405180910390a2611cbd565b8673ffffffffffffffffffffffffffffffffffffffff167fe2babfbac5889a709b63bb7f598b324e08bc5a4fb9ec647fb3cbc9ec07eb87128988848989604051611cb4959493929190614704565b60405180910390a25b809250505095945050505050565b600033905090565b3660008036915091509091565b6000611ceb82612bbd565b15611d22576040517f3db2a12a00000000000000000000000000000000000000000000000000000000815260040160405180910390fd5b60008260000160009054906101000a9004600f0b905082600101600082600f0b600f0b815260200190815260200160002054915082600101600082600f0b600f0b815260200190815260200160002060009055600181018360000160006101000a8154816fffffffffffffffffffffffffffffffff0219169083600f0b6fffffffffffffffffffffffffffffffff16021790555050919050565b611dc461164f565b811115611e06576040517f08c379a0000000000000000000000000000000000000000000000000000000008152600401611dfd9061438d565b60405180910390fd5b60006005549050816005819055507f0553476bf02ef2726e8ce5ced78d63e26e602e4a2257b1f559418e24b46339978183604051611e45929190614658565b60405180910390a15050565b3073ffffffffffffffffffffffffffffffffffffffff16611e70610921565b73ffffffffffffffffffffffffffffffffffffffff1614611f7a5760005b8451811015611f78573073ffffffffffffffffffffffffffffffffffffffff16858281518110611ee7577f4e487b7100000000000000000000000000000000000000000000000000000000600052603260045260246000fd5b602002602001015173ffffffffffffffffffffffffffffffffffffffff161415611f6757611f66838281518110611f47577f4e487b7100000000000000000000000000000000000000000000000000000000600052603260045260246000fd5b6020026020010151805190602001206002612bf290919063ffffffff16565b5b80611f7190614cb6565b9050611e8e565b505b5050505050565b600060405180606001604052806027815260200161538660279139905060005b85518110156120f957600080878381518110611fe6577f4e487b7100000000000000000000000000000000000000000000000000000000600052603260045260246000fd5b602002602001015173ffffffffffffffffffffffffffffffffffffffff1687848151811061203d577f4e487b7100000000000000000000000000000000000000000000000000000000600052603260045260246000fd5b602002602001015187858151811061207e577f4e487b7100000000000000000000000000000000000000000000000000000000600052603260045260246000fd5b602002602001015160405161209391906140b1565b60006040518083038185875af1925050503d80600081146120d0576040519150601f19603f3d011682016040523d82523d6000602084013e6120d5565b606091505b50915091506120e5828286612c6e565b505050806120f290614cb6565b9050611fa1565b50505050505050565b3073ffffffffffffffffffffffffffffffffffffffff16612121610921565b73ffffffffffffffffffffffffffffffffffffffff1614612156576121466002612bbd565b612155576121546002612cd5565b5b5b5050505050565b600081600001519050919050565b60006121818585858561217c612382565b611ac2565b9050949350505050565b600080600460008481526020019081526020016000209050806002015481600101546121b791906149c4565b6121c86121c385610f04565b611919565b1115915050919050565b6000806004600084815260200190815260200160002090508060000154816001015411915050919050565b600080826000015167ffffffffffffffff16149050919050565b600067ffffffffffffffff8016821115612266576040517f08c379a000000000000000000000000000000000000000000000000000000000815260040161225d906144ad565b60405180910390fd5b819050919050565b808260000160006101000a81548167ffffffffffffffff021916908367ffffffffffffffff1602179055505050565b60007f000000000000000000000000000000000000000000000000000000000000000073ffffffffffffffffffffffffffffffffffffffff16633a46b1a885856040518363ffffffff1660e01b81526004016122fa9291906140ff565b60206040518083038186803b15801561231257600080fd5b505afa158015612326573d6000803e3d6000fd5b505050506040513d601f19601f8201168201806040525081019061234a919061371d565b90509392505050565b60606123798484846040518060600160405280602981526020016153ad60299139612d56565b90509392505050565b606060405180602001604052806000815250905090565b60007f000000000000000000000000000000000000000000000000000000000000000073ffffffffffffffffffffffffffffffffffffffff163073ffffffffffffffffffffffffffffffffffffffff1614801561241557507f000000000000000000000000000000000000000000000000000000000000000046145b15612442577f000000000000000000000000000000000000000000000000000000000000000090506124b0565b6124ad7f00000000000000000000000000000000000000000000000000000000000000007f00000000000000000000000000000000000000000000000000000000000000007f0000000000000000000000000000000000000000000000000000000000000000612e6a565b90505b90565b600082826040516020016124c89291906140c8565b60405160208183030381529060405280519060200120905092915050565b6000807f7fffffffffffffffffffffffffffffff5d576e7357a4501ddfe92f46681b20a08360001c11156125215760006003915091506125ea565b601b8560ff16141580156125395750601c8560ff1614155b1561254b5760006004915091506125ea565b6000600187878787604051600081526020016040526040516125709493929190614295565b6020604051602081039080840390855afa158015612592573d6000803e3d6000fd5b505050602060405103519050600073ffffffffffffffffffffffffffffffffffffffff168173ffffffffffffffffffffffffffffffffffffffff1614156125e1576000600192509250506125ea565b80600092509250505b94509492505050565b6000600481111561262d577f4e487b7100000000000000000000000000000000000000000000000000000000600052602160045260246000fd5b816004811115612666577f4e487b7100000000000000000000000000000000000000000000000000000000600052602160045260246000fd5b141561267157612941565b600160048111156126ab577f4e487b7100000000000000000000000000000000000000000000000000000000600052602160045260246000fd5b8160048111156126e4577f4e487b7100000000000000000000000000000000000000000000000000000000600052602160045260246000fd5b1415612725576040517f08c379a000000000000000000000000000000000000000000000000000000000815260040161271c9061434d565b60405180910390fd5b6002600481111561275f577f4e487b7100000000000000000000000000000000000000000000000000000000600052602160045260246000fd5b816004811115612798577f4e487b7100000000000000000000000000000000000000000000000000000000600052602160045260246000fd5b14156127d9576040517f08c379a00000000000000000000000000000000000000000000000000000000081526004016127d0906143ad565b60405180910390fd5b60036004811115612813577f4e487b7100000000000000000000000000000000000000000000000000000000600052602160045260246000fd5b81600481111561284c577f4e487b7100000000000000000000000000000000000000000000000000000000600052602160045260246000fd5b141561288d576040517f08c379a0000000000000000000000000000000000000000000000000000000008152600401612884906143ed565b60405180910390fd5b6004808111156128c6577f4e487b7100000000000000000000000000000000000000000000000000000000600052602160045260246000fd5b8160048111156128ff577f4e487b7100000000000000000000000000000000000000000000000000000000600052602160045260246000fd5b1415612940576040517f08c379a00000000000000000000000000000000000000000000000000000000081526004016129379061448d565b60405180910390fd5b5b50565b60006004600087815260200190815260200160002090508060030160008673ffffffffffffffffffffffffffffffffffffffff1673ffffffffffffffffffffffffffffffffffffffff16815260200190815260200160002060009054906101000a900460ff16156129ea576040517f08c379a00000000000000000000000000000000000000000000000000000000081526004016129e19061440d565b60405180910390fd5b60018160030160008773ffffffffffffffffffffffffffffffffffffffff1673ffffffffffffffffffffffffffffffffffffffff16815260200190815260200160002060006101000a81548160ff02191690831515021790555060006002811115612a7e577f4e487b7100000000000000000000000000000000000000000000000000000000600052602160045260246000fd5b60ff168460ff161415612aab5782816000016000828254612a9f91906149c4565b92505081905550612bb5565b60016002811115612ae5577f4e487b7100000000000000000000000000000000000000000000000000000000600052602160045260246000fd5b60ff168460ff161415612b125782816001016000828254612b0691906149c4565b92505081905550612bb4565b600280811115612b4b577f4e487b7100000000000000000000000000000000000000000000000000000000600052602160045260246000fd5b60ff168460ff161415612b785782816002016000828254612b6c91906149c4565b92505081905550612bb3565b6040517f08c379a0000000000000000000000000000000000000000000000000000000008152600401612baa9061450d565b60405180910390fd5b5b5b505050505050565b60008160000160009054906101000a9004600f0b600f0b8260000160109054906101000a9004600f0b600f0b13159050919050565b60008260000160109054906101000a9004600f0b90508183600101600083600f0b600f0b815260200190815260200160002081905550600181018360000160106101000a8154816fffffffffffffffffffffffffffffffff0219169083600f0b6fffffffffffffffffffffffffffffffff160217905550505050565b60608315612c7e57829050612cce565b600083511115612c915782518084602001fd5b816040517f08c379a0000000000000000000000000000000000000000000000000000000008152600401612cc5919061432b565b60405180910390fd5b9392505050565b60008160000160006101000a8154816fffffffffffffffffffffffffffffffff0219169083600f0b6fffffffffffffffffffffffffffffffff16021790555060008160000160106101000a8154816fffffffffffffffffffffffffffffffff0219169083600f0b6fffffffffffffffffffffffffffffffff16021790555050565b606082471015612d9b576040517f08c379a0000000000000000000000000000000000000000000000000000000008152600401612d929061442d565b60405180910390fd5b612da485612ea4565b612de3576040517f08c379a0000000000000000000000000000000000000000000000000000000008152600401612dda9061454d565b60405180910390fd5b6000808673ffffffffffffffffffffffffffffffffffffffff168587604051612e0c91906140b1565b60006040518083038185875af1925050503d8060008114612e49576040519150601f19603f3d011682016040523d82523d6000602084013e612e4e565b606091505b5091509150612e5e828286612c6e565b92505050949350505050565b60008383834630604051602001612e859594939291906141b8565b6040516020818303038152906040528051906020012090509392505050565b6000808273ffffffffffffffffffffffffffffffffffffffff163b119050919050565b6000612eda612ed58461478a565b614765565b90508083825260208201905082856020860282011115612ef957600080fd5b60005b85811015612f295781612f0f88826130a1565b845260208401935060208301925050600181019050612efc565b5050509392505050565b6000612f46612f41846147b6565b614765565b90508083825260208201905082856020860282011115612f6557600080fd5b60005b85811015612faf57813567ffffffffffffffff811115612f8757600080fd5b808601612f9489826131a8565b85526020850194506020840193505050600181019050612f68565b5050509392505050565b6000612fcc612fc7846147e2565b614765565b90508083825260208201905082856020860282011115612feb57600080fd5b60005b8581101561301b57816130018882613246565b845260208401935060208301925050600181019050612fee565b5050509392505050565b60006130386130338461480e565b614765565b90508281526020810184848401111561305057600080fd5b61305b848285614c11565b509392505050565b60006130766130718461483f565b614765565b90508281526020810184848401111561308e57600080fd5b613099848285614c11565b509392505050565b6000813590506130b081615312565b92915050565b600082601f8301126130c757600080fd5b81356130d7848260208601612ec7565b91505092915050565b600082601f8301126130f157600080fd5b8135613101848260208601612f33565b91505092915050565b600082601f83011261311b57600080fd5b813561312b848260208601612fb9565b91505092915050565b60008135905061314381615329565b92915050565b60008135905061315881615340565b92915050565b60008083601f84011261317057600080fd5b8235905067ffffffffffffffff81111561318957600080fd5b6020830191508360018202830111156131a157600080fd5b9250929050565b600082601f8301126131b957600080fd5b81356131c9848260208601613025565b91505092915050565b60008083601f8401126131e457600080fd5b8235905067ffffffffffffffff8111156131fd57600080fd5b60208301915083600182028301111561321557600080fd5b9250929050565b600082601f83011261322d57600080fd5b813561323d848260208601613063565b91505092915050565b60008135905061325581615357565b92915050565b60008151905061326a81615357565b92915050565b60008135905061327f8161536e565b92915050565b600080600080600060a0868803121561329d57600080fd5b60006132ab888289016130a1565b95505060206132bc888289016130a1565b945050604086013567ffffffffffffffff8111156132d957600080fd5b6132e58882890161310a565b935050606086013567ffffffffffffffff81111561330257600080fd5b61330e8882890161310a565b925050608086013567ffffffffffffffff81111561332b57600080fd5b613337888289016131a8565b9150509295509295909350565b6000806000806080858703121561335a57600080fd5b6000613368878288016130a1565b9450506020613379878288016130a1565b935050604061338a87828801613246565b925050606085013567ffffffffffffffff8111156133a757600080fd5b6133b3878288016131a8565b91505092959194509250565b600080600080600060a086880312156133d757600080fd5b60006133e5888289016130a1565b95505060206133f6888289016130a1565b945050604061340788828901613246565b935050606061341888828901613246565b925050608086013567ffffffffffffffff81111561343557600080fd5b613441888289016131a8565b9150509295509295909350565b6000806040838503121561346157600080fd5b600061346f858286016130a1565b925050602061348085828601613246565b9150509250929050565b600080600080606085870312156134a057600080fd5b60006134ae878288016130a1565b94505060206134bf87828801613246565b935050604085013567ffffffffffffffff8111156134dc57600080fd5b6134e88782880161315e565b925092505092959194509250565b60008060006060848603121561350b57600080fd5b6000613519868287016130a1565b935050602061352a86828701613246565b925050604084013567ffffffffffffffff81111561354757600080fd5b613553868287016131a8565b9150509250925092565b6000806000806080858703121561357357600080fd5b600085013567ffffffffffffffff81111561358d57600080fd5b613599878288016130b6565b945050602085013567ffffffffffffffff8111156135b657600080fd5b6135c28782880161310a565b935050604085013567ffffffffffffffff8111156135df57600080fd5b6135eb878288016130e0565b92505060606135fc87828801613134565b91505092959194509250565b6000806000806080858703121561361e57600080fd5b600085013567ffffffffffffffff81111561363857600080fd5b613644878288016130b6565b945050602085013567ffffffffffffffff81111561366157600080fd5b61366d8782880161310a565b935050604085013567ffffffffffffffff81111561368a57600080fd5b613696878288016130e0565b925050606085013567ffffffffffffffff8111156136b357600080fd5b6136bf8782880161321c565b91505092959194509250565b6000602082840312156136dd57600080fd5b60006136eb84828501613149565b91505092915050565b60006020828403121561370657600080fd5b600061371484828501613246565b91505092915050565b60006020828403121561372f57600080fd5b600061373d8482850161325b565b91505092915050565b6000806040838503121561375957600080fd5b600061376785828601613246565b9250506020613778858286016130a1565b9150509250929050565b6000806040838503121561379557600080fd5b60006137a385828601613246565b92505060206137b485828601613270565b9150509250929050565b600080600080606085870312156137d457600080fd5b60006137e287828801613246565b94505060206137f387828801613270565b935050604085013567ffffffffffffffff81111561381057600080fd5b61381c878288016131d2565b925092505092959194509250565b60008060008060006080868803121561384257600080fd5b600061385088828901613246565b955050602061386188828901613270565b945050604086013567ffffffffffffffff81111561387e57600080fd5b61388a888289016131d2565b9350935050606086013567ffffffffffffffff8111156138a957600080fd5b6138b5888289016131a8565b9150509295509295909350565b60008060008060008060008060e0898b0312156138de57600080fd5b60006138ec8b828c01613246565b98505060206138fd8b828c01613270565b975050604089013567ffffffffffffffff81111561391a57600080fd5b6139268b828c016131d2565b9650965050606089013567ffffffffffffffff81111561394557600080fd5b6139518b828c016131a8565b94505060806139628b828c01613270565b93505060a06139738b828c01613134565b92505060c06139848b828c01613134565b9150509295985092959890939650565b600080600080600060a086880312156139ac57600080fd5b60006139ba88828901613246565b95505060206139cb88828901613270565b94505060406139dc88828901613270565b93505060606139ed88828901613134565b92505060806139fe88828901613134565b9150509295509295909350565b6000613a178383613a63565b60208301905092915050565b6000613a2f8383613c90565b905092915050565b6000613a438383613d51565b905092915050565b6000613a57838361405c565b60208301905092915050565b613a6c81614b17565b82525050565b613a7b81614b17565b82525050565b6000613a8c826148b0565b613a968185614926565b9350613aa183614870565b8060005b83811015613ad2578151613ab98882613a0b565b9750613ac4836148f2565b925050600181019050613aa5565b5085935050505092915050565b6000613aea826148bb565b613af48185614937565b935083602082028501613b0685614880565b8060005b85811015613b425784840389528151613b238582613a23565b9450613b2e836148ff565b925060208a01995050600181019050613b0a565b50829750879550505050505092915050565b6000613b5f826148c6565b613b698185614948565b935083602082028501613b7b85614890565b8060005b85811015613bb75784840389528151613b988582613a37565b9450613ba38361490c565b925060208a01995050600181019050613b7f565b50829750879550505050505092915050565b6000613bd4826148d1565b613bde8185614959565b9350613be9836148a0565b8060005b83811015613c1a578151613c018882613a4b565b9750613c0c83614919565b925050600181019050613bed565b5085935050505092915050565b613c3081614b29565b82525050565b613c3f81614b35565b82525050565b613c56613c5182614b35565b614cff565b82525050565b613c6581614b3f565b82525050565b6000613c77838561498c565b9350613c84838584614c11565b82840190509392505050565b6000613c9b826148dc565b613ca5818561496a565b9350613cb5818560208601614c20565b613cbe81614df4565b840191505092915050565b6000613cd4826148dc565b613cde818561497b565b9350613cee818560208601614c20565b613cf781614df4565b840191505092915050565b6000613d0d826148dc565b613d17818561498c565b9350613d27818560208601614c20565b80840191505092915050565b613d3c81614bc9565b82525050565b613d4b81614bed565b82525050565b6000613d5c826148e7565b613d668185614997565b9350613d76818560208601614c20565b613d7f81614df4565b840191505092915050565b6000613d95826148e7565b613d9f81856149a8565b9350613daf818560208601614c20565b613db881614df4565b840191505092915050565b6000613dd06018836149a8565b9150613ddb82614e05565b602082019050919050565b6000613df36018836149a8565b9150613dfe82614e2e565b602082019050919050565b6000613e166043836149a8565b9150613e2182614e57565b606082019050919050565b6000613e39601f836149a8565b9150613e4482614ecc565b602082019050919050565b6000613e5c6002836149b9565b9150613e6782614ef5565b600282019050919050565b6000613e7f6021836149a8565b9150613e8a82614f1e565b604082019050919050565b6000613ea26022836149a8565b9150613ead82614f6d565b604082019050919050565b6000613ec56027836149a8565b9150613ed082614fbc565b604082019050919050565b6000613ee86026836149a8565b9150613ef38261500b565b604082019050919050565b6000613f0b6023836149a8565b9150613f168261505a565b604082019050919050565b6000613f2e6018836149a8565b9150613f39826150a9565b602082019050919050565b6000613f516022836149a8565b9150613f5c826150d2565b604082019050919050565b6000613f746026836149a8565b9150613f7f82615121565b604082019050919050565b6000613f976021836149a8565b9150613fa282615170565b604082019050919050565b6000613fba601d836149a8565b9150613fc5826151bf565b602082019050919050565b6000613fdd6035836149a8565b9150613fe8826151e8565b604082019050919050565b60006140006021836149a8565b915061400b82615237565b604082019050919050565b6000614023601d836149a8565b915061402e82615286565b602082019050919050565b60006140466031836149a8565b9150614051826152af565b604082019050919050565b61406581614b9e565b82525050565b61407481614b9e565b82525050565b61408381614bff565b82525050565b61409281614bbc565b82525050565b60006140a5828486613c6b565b91508190509392505050565b60006140bd8284613d02565b915081905092915050565b60006140d382613e4f565b91506140df8285613c45565b6020820191506140ef8284613c45565b6020820191508190509392505050565b60006040820190506141146000830185613a72565b614121602083018461406b565b9392505050565b600060808201905081810360008301526141428187613a81565b905081810360208301526141568186613bc9565b9050818103604083015261416a8185613adf565b90506141796060830184613c36565b95945050505050565b60006020820190506141976000830184613c27565b92915050565b60006020820190506141b26000830184613c36565b92915050565b600060a0820190506141cd6000830188613c36565b6141da6020830187613c36565b6141e76040830186613c36565b6141f4606083018561406b565b6142016080830184613a72565b9695505050505050565b60006060820190506142206000830186613c36565b61422d602083018561406b565b61423a6040830184614089565b949350505050565b600060a0820190506142576000830188613c36565b614264602083018761406b565b6142716040830186614089565b61427e6060830185613c36565b61428b6080830184613c36565b9695505050505050565b60006080820190506142aa6000830187613c36565b6142b76020830186614089565b6142c46040830185613c36565b6142d16060830184613c36565b95945050505050565b60006020820190506142ef6000830184613c5c565b92915050565b600060208201905061430a6000830184613d33565b92915050565b60006020820190506143256000830184613d42565b92915050565b600060208201905081810360008301526143458184613d8a565b905092915050565b6000602082019050818103600083015261436681613dc3565b9050919050565b6000602082019050818103600083015261438681613de6565b9050919050565b600060208201905081810360008301526143a681613e09565b9050919050565b600060208201905081810360008301526143c681613e2c565b9050919050565b600060208201905081810360008301526143e681613e72565b9050919050565b6000602082019050818103600083015261440681613e95565b9050919050565b6000602082019050818103600083015261442681613eb8565b9050919050565b6000602082019050818103600083015261444681613edb565b9050919050565b6000602082019050818103600083015261446681613efe565b9050919050565b6000602082019050818103600083015261448681613f21565b9050919050565b600060208201905081810360008301526144a681613f44565b9050919050565b600060208201905081810360008301526144c681613f67565b9050919050565b600060208201905081810360008301526144e681613f8a565b9050919050565b6000602082019050818103600083015261450681613fad565b9050919050565b6000602082019050818103600083015261452681613fd0565b9050919050565b6000602082019050818103600083015261454681613ff3565b9050919050565b6000602082019050818103600083015261456681614016565b9050919050565b6000602082019050818103600083015261458681614039565b9050919050565b60006020820190506145a2600083018461406b565b92915050565b6000610120820190506145be600083018c61406b565b6145cb602083018b613a72565b81810360408301526145dd818a613a81565b905081810360608301526145f18189613bc9565b905081810360808301526146058188613b54565b905081810360a08301526146198187613adf565b905061462860c083018661407a565b61463560e083018561407a565b8181036101008301526146488184613d8a565b90509a9950505050505050505050565b600060408201905061466d600083018561406b565b61467a602083018461406b565b9392505050565b6000606082019050614696600083018661406b565b6146a3602083018561406b565b6146b0604083018461406b565b949350505050565b60006080820190506146cd600083018761406b565b6146da6020830186614089565b6146e7604083018561406b565b81810360608301526146f98184613d8a565b905095945050505050565b600060a082019050614719600083018861406b565b6147266020830187614089565b614733604083018661406b565b81810360608301526147458185613d8a565b905081810360808301526147598184613cc9565b90509695505050505050565b600061476f614780565b905061477b8282614c85565b919050565b6000604051905090565b600067ffffffffffffffff8211156147a5576147a4614dc5565b5b602082029050602081019050919050565b600067ffffffffffffffff8211156147d1576147d0614dc5565b5b602082029050602081019050919050565b600067ffffffffffffffff8211156147fd576147fc614dc5565b5b602082029050602081019050919050565b600067ffffffffffffffff82111561482957614828614dc5565b5b61483282614df4565b9050602081019050919050565b600067ffffffffffffffff82111561485a57614859614dc5565b5b61486382614df4565b9050602081019050919050565b6000819050602082019050919050565b6000819050602082019050919050565b6000819050602082019050919050565b6000819050602082019050919050565b600081519050919050565b600081519050919050565b600081519050919050565b600081519050919050565b600081519050919050565b600081519050919050565b6000602082019050919050565b6000602082019050919050565b6000602082019050919050565b6000602082019050919050565b600082825260208201905092915050565b600082825260208201905092915050565b600082825260208201905092915050565b600082825260208201905092915050565b600082825260208201905092915050565b600082825260208201905092915050565b600081905092915050565b600082825260208201905092915050565b600082825260208201905092915050565b600081905092915050565b60006149cf82614b9e565b91506149da83614b9e565b9250827fffffffffffffffffffffffffffffffffffffffffffffffffffffffffffffffff03821115614a0f57614a0e614d09565b5b828201905092915050565b6000614a2582614ba8565b9150614a3083614ba8565b92508267ffffffffffffffff03821115614a4d57614a4c614d09565b5b828201905092915050565b6000614a6382614b9e565b9150614a6e83614b9e565b925082614a7e57614a7d614d38565b5b828204905092915050565b6000614a9482614b9e565b9150614a9f83614b9e565b9250817fffffffffffffffffffffffffffffffffffffffffffffffffffffffffffffffff0483118215151615614ad857614ad7614d09565b5b828202905092915050565b6000614aee82614b9e565b9150614af983614b9e565b925082821015614b0c57614b0b614d09565b5b828203905092915050565b6000614b2282614b7e565b9050919050565b60008115159050919050565b6000819050919050565b60007fffffffff0000000000000000000000000000000000000000000000000000000082169050919050565b6000819050614b79826152fe565b919050565b600073ffffffffffffffffffffffffffffffffffffffff82169050919050565b6000819050919050565b600067ffffffffffffffff82169050919050565b600060ff82169050919050565b6000614bd482614bdb565b9050919050565b6000614be682614b7e565b9050919050565b6000614bf882614b6b565b9050919050565b6000614c0a82614ba8565b9050919050565b82818337600083830152505050565b60005b83811015614c3e578082015181840152602081019050614c23565b83811115614c4d576000848401525b50505050565b60006002820490506001821680614c6b57607f821691505b60208210811415614c7f57614c7e614d96565b5b50919050565b614c8e82614df4565b810181811067ffffffffffffffff82111715614cad57614cac614dc5565b5b80604052505050565b6000614cc182614b9e565b91507fffffffffffffffffffffffffffffffffffffffffffffffffffffffffffffffff821415614cf457614cf3614d09565b5b600182019050919050565b6000819050919050565b7f4e487b7100000000000000000000000000000000000000000000000000000000600052601160045260246000fd5b7f4e487b7100000000000000000000000000000000000000000000000000000000600052601260045260246000fd5b7f4e487b7100000000000000000000000000000000000000000000000000000000600052602160045260246000fd5b7f4e487b7100000000000000000000000000000000000000000000000000000000600052602260045260246000fd5b7f4e487b7100000000000000000000000000000000000000000000000000000000600052604160045260246000fd5b6000601f19601f8301169050919050565b7f45434453413a20696e76616c6964207369676e61747572650000000000000000600082015250565b7f476f7665726e6f723a206f6e6c79476f7665726e616e63650000000000000000600082015250565b7f476f7665726e6f72566f74657351756f72756d4672616374696f6e3a2071756f60008201527f72756d4e756d657261746f72206f7665722071756f72756d44656e6f6d696e6160208201527f746f720000000000000000000000000000000000000000000000000000000000604082015250565b7f45434453413a20696e76616c6964207369676e6174757265206c656e67746800600082015250565b7f1901000000000000000000000000000000000000000000000000000000000000600082015250565b7f476f7665726e6f723a20696e76616c69642070726f706f73616c206c656e677460008201527f6800000000000000000000000000000000000000000000000000000000000000602082015250565b7f45434453413a20696e76616c6964207369676e6174757265202773272076616c60008201527f7565000000000000000000000000000000000000000000000000000000000000602082015250565b7f476f7665726e6f72566f74696e6753696d706c653a20766f746520616c72656160008201527f6479206361737400000000000000000000000000000000000000000000000000602082015250565b7f416464726573733a20696e73756666696369656e742062616c616e636520666f60008201527f722063616c6c0000000000000000000000000000000000000000000000000000602082015250565b7f476f7665726e6f723a20766f7465206e6f742063757272656e746c792061637460008201527f6976650000000000000000000000000000000000000000000000000000000000602082015250565b7f476f7665726e6f723a20656d7074792070726f706f73616c0000000000000000600082015250565b7f45434453413a20696e76616c6964207369676e6174757265202776272076616c60008201527f7565000000000000000000000000000000000000000000000000000000000000602082015250565b7f53616665436173743a2076616c756520646f65736e27742066697420696e203660008201527f3420626974730000000000000000000000000000000000000000000000000000602082015250565b7f476f7665726e6f723a2070726f706f73616c206e6f742073756363657373667560008201527f6c00000000000000000000000000000000000000000000000000000000000000602082015250565b7f476f7665726e6f723a20756e6b6e6f776e2070726f706f73616c206964000000600082015250565b7f476f7665726e6f72566f74696e6753696d706c653a20696e76616c696420766160008201527f6c756520666f7220656e756d20566f7465547970650000000000000000000000602082015250565b7f476f7665726e6f723a2070726f706f73616c20616c726561647920657869737460008201527f7300000000000000000000000000000000000000000000000000000000000000602082015250565b7f416464726573733a2063616c6c20746f206e6f6e2d636f6e7472616374000000600082015250565b7f476f7665726e6f723a2070726f706f73657220766f7465732062656c6f77207060008201527f726f706f73616c207468726573686f6c64000000000000000000000000000000602082015250565b6008811061530f5761530e614d67565b5b50565b61531b81614b17565b811461532657600080fd5b50565b61533281614b35565b811461533d57600080fd5b50565b61534981614b3f565b811461535457600080fd5b50565b61536081614b9e565b811461536b57600080fd5b50565b61537781614bbc565b811461538257600080fd5b5056fe476f7665726e6f723a2063616c6c20726576657274656420776974686f7574206d657373616765416464726573733a206c6f772d6c6576656c2063616c6c20776974682076616c7565206661696c6564a264697066735822122006a6ff9851f81cc38b412411545affaf4a05ee76bef696e8d9b192832b3bdcf064736f6c63430008040033",
  "linkReferences": {},
  "deployedLinkReferences": {}
}