{
  "_format": "hh-sol-artifact-1",
  "contractName": "VestingWallet",
  "sourceName": "contracts/openzeppelin/vestingwallet/VestingWallet.sol",
  "abi": [
    {
      "inputs": [
        {
          "internalType": "address",
          "name": "beneficiaryAddress",
          "type": "address"
        },
        {
          "internalType": "uint64",
          "name": "startTimestamp",
          "type": "uint64"
        },
        {
          "internalType": "uint64",
          "name": "durationSeconds",
          "type": "uint64"
        }
      ],
      "stateMutability": "nonpayable",
      "type": "constructor"
    },
    {
      "anonymous": false,
      "inputs": [
        {
          "indexed": true,
          "internalType": "address",
          "name": "token",
          "type": "address"
        },
        {
          "indexed": false,
          "internalType": "uint256",
          "name": "amount",
          "type": "uint256"
        }
      ],
      "name": "ERC20Released",
      "type": "event"
    },
    {
      "anonymous": false,
      "inputs": [
        {
          "indexed": false,
          "internalType": "uint256",
          "name": "amount",
          "type": "uint256"
        }
      ],
      "name": "EtherReleased",
      "type": "event"
    },
    {
      "inputs": [],
      "name": "beneficiary",
      "outputs": [
        {
          "internalType": "address",
          "name": "",
          "type": "address"
        }
      ],
      "stateMutability": "view",
      "type": "function"
    },
    {
      "inputs": [],
      "name": "duration",
      "outputs": [
        {
          "internalType": "uint256",
          "name": "",
          "type": "uint256"
        }
      ],
      "stateMutability": "view",
      "type": "function"
    },
    {
      "inputs": [
        {
          "internalType": "address",
          "name": "token",
          "type": "address"
        }
      ],
      "name": "release",
      "outputs": [],
      "stateMutability": "nonpayable",
      "type": "function"
    },
    {
      "inputs": [],
      "name": "release",
      "outputs": [],
      "stateMutability": "nonpayable",
      "type": "function"
    },
    {
      "inputs": [],
      "name": "released",
      "outputs": [
        {
          "internalType": "uint256",
          "name": "",
          "type": "uint256"
        }
      ],
      "stateMutability": "view",
      "type": "function"
    },
    {
      "inputs": [
        {
          "internalType": "address",
          "name": "token",
          "type": "address"
        }
      ],
      "name": "released",
      "outputs": [
        {
          "internalType": "uint256",
          "name": "",
          "type": "uint256"
        }
      ],
      "stateMutability": "view",
      "type": "function"
    },
    {
      "inputs": [],
      "name": "start",
      "outputs": [
        {
          "internalType": "uint256",
          "name": "",
          "type": "uint256"
        }
      ],
      "stateMutability": "view",
      "type": "function"
    },
    {
      "inputs": [
        {
          "internalType": "uint64",
          "name": "timestamp",
          "type": "uint64"
        }
      ],
      "name": "vestedAmount",
      "outputs": [
        {
          "internalType": "uint256",
          "name": "",
          "type": "uint256"
        }
      ],
      "stateMutability": "view",
      "type": "function"
    },
    {
      "inputs": [
        {
          "internalType": "address",
          "name": "token",
          "type": "address"
        },
        {
          "internalType": "uint64",
          "name": "timestamp",
          "type": "uint64"
        }
      ],
      "name": "vestedAmount",
      "outputs": [
        {
          "internalType": "uint256",
          "name": "",
          "type": "uint256"
        }
      ],
      "stateMutability": "view",
      "type": "function"
    },
    {
      "stateMutability": "payable",
      "type": "receive"
    }
  ],
  "bytecode": "0x60e06040523480156200001157600080fd5b506040516200149d3803806200149d833981810160405281019062000037919062000156565b600073ffffffffffffffffffffffffffffffffffffffff168373ffffffffffffffffffffffffffffffffffffffff161415620000aa576040517f08c379a0000000000000000000000000000000000000000000000000000000008152600401620000a19062000214565b60405180910390fd5b8273ffffffffffffffffffffffffffffffffffffffff1660808173ffffffffffffffffffffffffffffffffffffffff1660601b815250508167ffffffffffffffff1660a08167ffffffffffffffff1660c01b815250508067ffffffffffffffff1660c08167ffffffffffffffff1660c01b81525050505050620002c3565b60008151905062000139816200028f565b92915050565b6000815190506200015081620002a9565b92915050565b6000806000606084860312156200016c57600080fd5b60006200017c8682870162000128565b93505060206200018f868287016200013f565b9250506040620001a2868287016200013f565b9150509250925092565b6000620001bb602a8362000236565b91507f56657374696e6757616c6c65743a2062656e6566696369617279206973207a6560008301527f726f2061646472657373000000000000000000000000000000000000000000006020830152604082019050919050565b600060208201905081810360008301526200022f81620001ac565b9050919050565b600082825260208201905092915050565b600062000254826200025b565b9050919050565b600073ffffffffffffffffffffffffffffffffffffffff82169050919050565b600067ffffffffffffffff82169050919050565b6200029a8162000247565b8114620002a657600080fd5b50565b620002b4816200027b565b8114620002c057600080fd5b50565b60805160601c60a05160c01c60c05160c01c6111a1620002fc60003960006102620152600061051a0152600061036f01526111a16000f3fe60806040526004361061008a5760003560e01c8063810ec23b11610059578063810ec23b1461015257806386d1a69f1461018f57806396132521146101a65780639852595c146101d1578063be9a65551461020e57610091565b80630a17b06b146100965780630fb5a6b4146100d357806319165587146100fe57806338af3eed1461012757610091565b3661009157005b600080fd5b3480156100a257600080fd5b506100bd60048036038101906100b89190610b00565b610239565b6040516100ca9190610eaf565b60405180910390f35b3480156100df57600080fd5b506100e861025e565b6040516100f59190610eaf565b60405180910390f35b34801561010a57600080fd5b5061012560048036038101906101209190610a49565b610290565b005b34801561013357600080fd5b5061013c61036b565b6040516101499190610da9565b60405180910390f35b34801561015e57600080fd5b5061017960048036038101906101749190610a72565b610393565b6040516101869190610eaf565b60405180910390f35b34801561019b57600080fd5b506101a4610442565b005b3480156101b257600080fd5b506101bb6104c4565b6040516101c89190610eaf565b60405180910390f35b3480156101dd57600080fd5b506101f860048036038101906101f39190610a49565b6104cd565b6040516102059190610eaf565b60405180910390f35b34801561021a57600080fd5b50610223610516565b6040516102309190610eaf565b60405180910390f35b60006102576102466104c4565b476102519190610efc565b83610548565b9050919050565b60007f000000000000000000000000000000000000000000000000000000000000000067ffffffffffffffff16905090565b600061029b826104cd565b6102a58342610393565b6102af9190610fdd565b905080600160008473ffffffffffffffffffffffffffffffffffffffff1673ffffffffffffffffffffffffffffffffffffffff16815260200190815260200160002060008282546103009190610efc565b925050819055508173ffffffffffffffffffffffffffffffffffffffff167fc0e523490dd523c33b1878c9eb14ff46991e3f5b2cd33710918618f2a39cba1b8260405161034d9190610eaf565b60405180910390a26103678261036161036b565b836105e2565b5050565b60007f0000000000000000000000000000000000000000000000000000000000000000905090565b600061043a6103a1846104cd565b8473ffffffffffffffffffffffffffffffffffffffff166370a08231306040518263ffffffff1660e01b81526004016103da9190610da9565b60206040518083038186803b1580156103f257600080fd5b505afa158015610406573d6000803e3d6000fd5b505050506040513d601f19601f8201168201806040525081019061042a9190610ad7565b6104349190610efc565b83610548565b905092915050565b600061044c6104c4565b61045542610239565b61045f9190610fdd565b9050806000808282546104729190610efc565b925050819055507fda9d4e5f101b8b9b1c5b76d0c5a9f7923571acfc02376aa076b75a8c080c956b816040516104a89190610eaf565b60405180910390a16104c16104bb61036b565b82610668565b50565b60008054905090565b6000600160008373ffffffffffffffffffffffffffffffffffffffff1673ffffffffffffffffffffffffffffffffffffffff168152602001908152602001600020549050919050565b60007f000000000000000000000000000000000000000000000000000000000000000067ffffffffffffffff16905090565b6000610552610516565b8267ffffffffffffffff16101561056c57600090506105dc565b61057461025e565b61057c610516565b6105869190610efc565b8267ffffffffffffffff16111561059f578290506105dc565b6105a761025e565b6105af610516565b8367ffffffffffffffff166105c49190610fdd565b846105cf9190610f83565b6105d99190610f52565b90505b92915050565b6106638363a9059cbb60e01b8484604051602401610601929190610dc4565b604051602081830303815290604052907bffffffffffffffffffffffffffffffffffffffffffffffffffffffff19166020820180517bffffffffffffffffffffffffffffffffffffffffffffffffffffffff838183161783525050505061075c565b505050565b804710156106ab576040517f08c379a00000000000000000000000000000000000000000000000000000000081526004016106a290610e2f565b60405180910390fd5b60008273ffffffffffffffffffffffffffffffffffffffff16826040516106d190610d94565b60006040518083038185875af1925050503d806000811461070e576040519150601f19603f3d011682016040523d82523d6000602084013e610713565b606091505b5050905080610757576040517f08c379a000000000000000000000000000000000000000000000000000000000815260040161074e90610e0f565b60405180910390fd5b505050565b60006107be826040518060400160405280602081526020017f5361666545524332303a206c6f772d6c6576656c2063616c6c206661696c65648152508573ffffffffffffffffffffffffffffffffffffffff166108239092919063ffffffff16565b905060008151111561081e57808060200190518101906107de9190610aae565b61081d576040517f08c379a000000000000000000000000000000000000000000000000000000000815260040161081490610e8f565b60405180910390fd5b5b505050565b6060610832848460008561083b565b90509392505050565b606082471015610880576040517f08c379a000000000000000000000000000000000000000000000000000000000815260040161087790610e4f565b60405180910390fd5b6108898561094f565b6108c8576040517f08c379a00000000000000000000000000000000000000000000000000000000081526004016108bf90610e6f565b60405180910390fd5b6000808673ffffffffffffffffffffffffffffffffffffffff1685876040516108f19190610d7d565b60006040518083038185875af1925050503d806000811461092e576040519150601f19603f3d011682016040523d82523d6000602084013e610933565b606091505b509150915061094382828661098e565b92505050949350505050565b6000808273ffffffffffffffffffffffffffffffffffffffff16803b806020016040519081016040528181526000908060200190933c51119050919050565b6060831561099e578290506109ee565b6000835111156109b15782518084602001fd5b816040517f08c379a00000000000000000000000000000000000000000000000000000000081526004016109e59190610ded565b60405180910390fd5b9392505050565b600081359050610a048161110f565b92915050565b600081519050610a1981611126565b92915050565b600081519050610a2e8161113d565b92915050565b600081359050610a4381611154565b92915050565b600060208284031215610a5b57600080fd5b6000610a69848285016109f5565b91505092915050565b60008060408385031215610a8557600080fd5b6000610a93858286016109f5565b9250506020610aa485828601610a34565b9150509250929050565b600060208284031215610ac057600080fd5b6000610ace84828501610a0a565b91505092915050565b600060208284031215610ae957600080fd5b6000610af784828501610a1f565b91505092915050565b600060208284031215610b1257600080fd5b6000610b2084828501610a34565b91505092915050565b610b3281611011565b82525050565b6000610b4382610eca565b610b4d8185610ee0565b9350610b5d81856020860161106d565b80840191505092915050565b6000610b7482610ed5565b610b7e8185610eeb565b9350610b8e81856020860161106d565b610b97816110fe565b840191505092915050565b6000610baf603a83610eeb565b91507f416464726573733a20756e61626c6520746f2073656e642076616c75652c207260008301527f6563697069656e74206d617920686176652072657665727465640000000000006020830152604082019050919050565b6000610c15601d83610eeb565b91507f416464726573733a20696e73756666696369656e742062616c616e63650000006000830152602082019050919050565b6000610c55602683610eeb565b91507f416464726573733a20696e73756666696369656e742062616c616e636520666f60008301527f722063616c6c00000000000000000000000000000000000000000000000000006020830152604082019050919050565b6000610cbb600083610ee0565b9150600082019050919050565b6000610cd5601d83610eeb565b91507f416464726573733a2063616c6c20746f206e6f6e2d636f6e74726163740000006000830152602082019050919050565b6000610d15602a83610eeb565b91507f5361666545524332303a204552433230206f7065726174696f6e20646964206e60008301527f6f742073756363656564000000000000000000000000000000000000000000006020830152604082019050919050565b610d778161104f565b82525050565b6000610d898284610b38565b915081905092915050565b6000610d9f82610cae565b9150819050919050565b6000602082019050610dbe6000830184610b29565b92915050565b6000604082019050610dd96000830185610b29565b610de66020830184610d6e565b9392505050565b60006020820190508181036000830152610e078184610b69565b905092915050565b60006020820190508181036000830152610e2881610ba2565b9050919050565b60006020820190508181036000830152610e4881610c08565b9050919050565b60006020820190508181036000830152610e6881610c48565b9050919050565b60006020820190508181036000830152610e8881610cc8565b9050919050565b60006020820190508181036000830152610ea881610d08565b9050919050565b6000602082019050610ec46000830184610d6e565b92915050565b600081519050919050565b600081519050919050565b600081905092915050565b600082825260208201905092915050565b6000610f078261104f565b9150610f128361104f565b9250827fffffffffffffffffffffffffffffffffffffffffffffffffffffffffffffffff03821115610f4757610f466110a0565b5b828201905092915050565b6000610f5d8261104f565b9150610f688361104f565b925082610f7857610f776110cf565b5b828204905092915050565b6000610f8e8261104f565b9150610f998361104f565b9250817fffffffffffffffffffffffffffffffffffffffffffffffffffffffffffffffff0483118215151615610fd257610fd16110a0565b5b828202905092915050565b6000610fe88261104f565b9150610ff38361104f565b925082821015611006576110056110a0565b5b828203905092915050565b600061101c8261102f565b9050919050565b60008115159050919050565b600073ffffffffffffffffffffffffffffffffffffffff82169050919050565b6000819050919050565b600067ffffffffffffffff82169050919050565b60005b8381101561108b578082015181840152602081019050611070565b8381111561109a576000848401525b50505050565b7f4e487b7100000000000000000000000000000000000000000000000000000000600052601160045260246000fd5b7f4e487b7100000000000000000000000000000000000000000000000000000000600052601260045260246000fd5b6000601f19601f8301169050919050565b61111881611011565b811461112357600080fd5b50565b61112f81611023565b811461113a57600080fd5b50565b6111468161104f565b811461115157600080fd5b50565b61115d81611059565b811461116857600080fd5b5056fea26469706673582212201ec45f499fa213db918c5185551cae81de8fdfbff6cb3cbdf6ee9324cded5b9864736f6c63430008000033",
  "linkReferences": {},
  "deployedLinkReferences": {}
}