{
  "_format": "hh-sol-artifact-1",
  "contractName": "ERC20PresetFixedSupply",
  "sourceName": "contracts/openzeppelin/erc20presetfixedsupply/ERC20PresetFixedSupply.sol",
  "abi": [
    {
      "inputs": [
        {
          "internalType": "string",
          "name": "name",
          "type": "string"
        },
        {
          "internalType": "string",
          "name": "symbol",
          "type": "string"
        },
        {
          "internalType": "uint256",
          "name": "initialSupply",
          "type": "uint256"
        },
        {
          "internalType": "address",
          "name": "owner",
          "type": "address"
        }
      ],
      "stateMutability": "nonpayable",
      "type": "constructor"
    },
    {
      "anonymous": false,
      "inputs": [
        {
          "indexed": true,
          "internalType": "address",
          "name": "owner",
          "type": "address"
        },
        {
          "indexed": true,
          "internalType": "address",
          "name": "spender",
          "type": "address"
        },
        {
          "indexed": false,
          "internalType": "uint256",
          "name": "value",
          "type": "uint256"
        }
      ],
      "name": "Approval",
      "type": "event"
    },
    {
      "anonymous": false,
      "inputs": [
        {
          "indexed": true,
          "internalType": "address",
          "name": "from",
          "type": "address"
        },
        {
          "indexed": true,
          "internalType": "address",
          "name": "to",
          "type": "address"
        },
        {
          "indexed": false,
          "internalType": "uint256",
          "name": "value",
          "type": "uint256"
        }
      ],
      "name": "Transfer",
      "type": "event"
    },
    {
      "inputs": [
        {
          "internalType": "address",
          "name": "owner",
          "type": "address"
        },
        {
          "internalType": "address",
          "name": "spender",
          "type": "address"
        }
      ],
      "name": "allowance",
      "outputs": [
        {
          "internalType": "uint256",
          "name": "",
          "type": "uint256"
        }
      ],
      "stateMutability": "view",
      "type": "function"
    },
    {
      "inputs": [
        {
          "internalType": "address",
          "name": "spender",
          "type": "address"
        },
        {
          "internalType": "uint256",
          "name": "amount",
          "type": "uint256"
        }
      ],
      "name": "approve",
      "outputs": [
        {
          "internalType": "bool",
          "name": "",
          "type": "bool"
        }
      ],
      "stateMutability": "nonpayable",
      "type": "function"
    },
    {
      "inputs": [
        {
          "internalType": "address",
          "name": "account",
          "type": "address"
        }
      ],
      "name": "balanceOf",
      "outputs": [
        {
          "internalType": "uint256",
          "name": "",
          "type": "uint256"
        }
      ],
      "stateMutability": "view",
      "type": "function"
    },
    {
      "inputs": [
        {
          "internalType": "uint256",
          "name": "amount",
          "type": "uint256"
        }
      ],
      "name": "burn",
      "outputs": [],
      "stateMutability": "nonpayable",
      "type": "function"
    },
    {
      "inputs": [
        {
          "internalType": "address",
          "name": "account",
          "type": "address"
        },
        {
          "internalType": "uint256",
          "name": "amount",
          "type": "uint256"
        }
      ],
      "name": "burnFrom",
      "outputs": [],
      "stateMutability": "nonpayable",
      "type": "function"
    },
    {
      "inputs": [],
      "name": "decimals",
      "outputs": [
        {
          "internalType": "uint8",
          "name": "",
          "type": "uint8"
        }
      ],
      "stateMutability": "view",
      "type": "function"
    },
    {
      "inputs": [
        {
          "internalType": "address",
          "name": "spender",
          "type": "address"
        },
        {
          "internalType": "uint256",
          "name": "subtractedValue",
          "type": "uint256"
        }
      ],
      "name": "decreaseAllowance",
      "outputs": [
        {
          "internalType": "bool",
          "name": "",
          "type": "bool"
        }
      ],
      "stateMutability": "nonpayable",
      "type": "function"
    },
    {
      "inputs": [
        {
          "internalType": "address",
          "name": "spender",
          "type": "address"
        },
        {
          "internalType": "uint256",
          "name": "addedValue",
          "type": "uint256"
        }
      ],
      "name": "increaseAllowance",
      "outputs": [
        {
          "internalType": "bool",
          "name": "",
          "type": "bool"
        }
      ],
      "stateMutability": "nonpayable",
      "type": "function"
    },
    {
      "inputs": [],
      "name": "name",
      "outputs": [
        {
          "internalType": "string",
          "name": "",
          "type": "string"
        }
      ],
      "stateMutability": "view",
      "type": "function"
    },
    {
      "inputs": [],
      "name": "symbol",
      "outputs": [
        {
          "internalType": "string",
          "name": "",
          "type": "string"
        }
      ],
      "stateMutability": "view",
      "type": "function"
    },
    {
      "inputs": [],
      "name": "totalSupply",
      "outputs": [
        {
          "internalType": "uint256",
          "name": "",
          "type": "uint256"
        }
      ],
      "stateMutability": "view",
      "type": "function"
    },
    {
      "inputs": [
        {
          "internalType": "address",
          "name": "to",
          "type": "address"
        },
        {
          "internalType": "uint256",
          "name": "amount",
          "type": "uint256"
        }
      ],
      "name": "transfer",
      "outputs": [
        {
          "internalType": "bool",
          "name": "",
          "type": "bool"
        }
      ],
      "stateMutability": "nonpayable",
      "type": "function"
    },
    {
      "inputs": [
        {
          "internalType": "address",
          "name": "from",
          "type": "address"
        },
        {
          "internalType": "address",
          "name": "to",
          "type": "address"
        },
        {
          "internalType": "uint256",
          "name": "amount",
          "type": "uint256"
        }
      ],
      "name": "transferFrom",
      "outputs": [
        {
          "internalType": "bool",
          "name": "",
          "type": "bool"
        }
      ],
      "stateMutability": "nonpayable",
      "type": "function"
    }
  ],
  "bytecode": "0x60806040523480156200001157600080fd5b5060405162001cad38038062001cad83398181016040528101906200003791906200035c565b83838160039080519060200190620000519291906200020c565b5080600490805190602001906200006a9291906200020c565b5050506200007f81836200008960201b60201c565b50505050620006cc565b600073ffffffffffffffffffffffffffffffffffffffff168273ffffffffffffffffffffffffffffffffffffffff161415620000fc576040517f08c379a0000000000000000000000000000000000000000000000000000000008152600401620000f3906200044d565b60405180910390fd5b62000110600083836200020260201b60201c565b806002600082825462000124919062000504565b92505081905550806000808473ffffffffffffffffffffffffffffffffffffffff1673ffffffffffffffffffffffffffffffffffffffff16815260200190815260200160002060008282546200017b919062000504565b925050819055508173ffffffffffffffffffffffffffffffffffffffff16600073ffffffffffffffffffffffffffffffffffffffff167fddf252ad1be2c89b69c2b068fc378daa952ba7f163c4a11628f55a4df523b3ef83604051620001e291906200046f565b60405180910390a3620001fe600083836200020760201b60201c565b5050565b505050565b505050565b8280546200021a90620005d5565b90600052602060002090601f0160209004810192826200023e57600085556200028a565b82601f106200025957805160ff19168380011785556200028a565b828001600101855582156200028a579182015b82811115620002895782518255916020019190600101906200026c565b5b5090506200029991906200029d565b5090565b5b80821115620002b85760008160009055506001016200029e565b5090565b6000620002d3620002cd84620004c0565b6200048c565b905082815260208101848484011115620002ec57600080fd5b620002f98482856200059f565b509392505050565b600081519050620003128162000698565b92915050565b600082601f8301126200032a57600080fd5b81516200033c848260208601620002bc565b91505092915050565b6000815190506200035681620006b2565b92915050565b600080600080608085870312156200037357600080fd5b600085015167ffffffffffffffff8111156200038e57600080fd5b6200039c8782880162000318565b945050602085015167ffffffffffffffff811115620003ba57600080fd5b620003c88782880162000318565b9350506040620003db8782880162000345565b9250506060620003ee8782880162000301565b91505092959194509250565b600062000409601f83620004f3565b91507f45524332303a206d696e7420746f20746865207a65726f2061646472657373006000830152602082019050919050565b620004478162000595565b82525050565b600060208201905081810360008301526200046881620003fa565b9050919050565b60006020820190506200048660008301846200043c565b92915050565b6000604051905081810181811067ffffffffffffffff82111715620004b657620004b562000669565b5b8060405250919050565b600067ffffffffffffffff821115620004de57620004dd62000669565b5b601f19601f8301169050602081019050919050565b600082825260208201905092915050565b6000620005118262000595565b91506200051e8362000595565b9250827fffffffffffffffffffffffffffffffffffffffffffffffffffffffffffffffff038211156200055657620005556200060b565b5b828201905092915050565b60006200056e8262000575565b9050919050565b600073ffffffffffffffffffffffffffffffffffffffff82169050919050565b6000819050919050565b60005b83811015620005bf578082015181840152602081019050620005a2565b83811115620005cf576000848401525b50505050565b60006002820490506001821680620005ee57607f821691505b602082108114156200060557620006046200063a565b5b50919050565b7f4e487b7100000000000000000000000000000000000000000000000000000000600052601160045260246000fd5b7f4e487b7100000000000000000000000000000000000000000000000000000000600052602260045260246000fd5b7f4e487b7100000000000000000000000000000000000000000000000000000000600052604160045260246000fd5b620006a38162000561565b8114620006af57600080fd5b50565b620006bd8162000595565b8114620006c957600080fd5b50565b6115d180620006dc6000396000f3fe608060405234801561001057600080fd5b50600436106100cf5760003560e01c806342966c681161008c57806395d89b411161006657806395d89b4114610226578063a457c2d714610244578063a9059cbb14610274578063dd62ed3e146102a4576100cf565b806342966c68146101be57806370a08231146101da57806379cc67901461020a576100cf565b806306fdde03146100d4578063095ea7b3146100f257806318160ddd1461012257806323b872dd14610140578063313ce56714610170578063395093511461018e575b600080fd5b6100dc6102d4565b6040516100e99190611226565b60405180910390f35b61010c60048036038101906101079190610dd0565b610366565b604051610119919061120b565b60405180910390f35b61012a610389565b6040516101379190611368565b60405180910390f35b61015a60048036038101906101559190610d81565b610393565b604051610167919061120b565b60405180910390f35b6101786103c2565b6040516101859190611383565b60405180910390f35b6101a860048036038101906101a39190610dd0565b6103cb565b6040516101b5919061120b565b60405180910390f35b6101d860048036038101906101d39190610e0c565b610402565b005b6101f460048036038101906101ef9190610d1c565b610416565b6040516102019190611368565b60405180910390f35b610224600480360381019061021f9190610dd0565b61045e565b005b61022e61047e565b60405161023b9190611226565b60405180910390f35b61025e60048036038101906102599190610dd0565b610510565b60405161026b919061120b565b60405180910390f35b61028e60048036038101906102899190610dd0565b610587565b60405161029b919061120b565b60405180910390f35b6102be60048036038101906102b99190610d45565b6105aa565b6040516102cb9190611368565b60405180910390f35b6060600380546102e3906114cc565b80601f016020809104026020016040519081016040528092919081815260200182805461030f906114cc565b801561035c5780601f106103315761010080835404028352916020019161035c565b820191906000526020600020905b81548152906001019060200180831161033f57829003601f168201915b5050505050905090565b600080610371610631565b905061037e818585610639565b600191505092915050565b6000600254905090565b60008061039e610631565b90506103ab858285610804565b6103b6858585610890565b60019150509392505050565b60006012905090565b6000806103d6610631565b90506103f78185856103e885896105aa565b6103f291906113ba565b610639565b600191505092915050565b61041361040d610631565b82610b11565b50565b60008060008373ffffffffffffffffffffffffffffffffffffffff1673ffffffffffffffffffffffffffffffffffffffff168152602001908152602001600020549050919050565b6104708261046a610631565b83610804565b61047a8282610b11565b5050565b60606004805461048d906114cc565b80601f01602080910402602001604051908101604052809291908181526020018280546104b9906114cc565b80156105065780601f106104db57610100808354040283529160200191610506565b820191906000526020600020905b8154815290600101906020018083116104e957829003601f168201915b5050505050905090565b60008061051b610631565b9050600061052982866105aa565b90508381101561056e576040517f08c379a000000000000000000000000000000000000000000000000000000000815260040161056590611348565b60405180910390fd5b61057b8286868403610639565b60019250505092915050565b600080610592610631565b905061059f818585610890565b600191505092915050565b6000600160008473ffffffffffffffffffffffffffffffffffffffff1673ffffffffffffffffffffffffffffffffffffffff16815260200190815260200160002060008373ffffffffffffffffffffffffffffffffffffffff1673ffffffffffffffffffffffffffffffffffffffff16815260200190815260200160002054905092915050565b600033905090565b600073ffffffffffffffffffffffffffffffffffffffff168373ffffffffffffffffffffffffffffffffffffffff1614156106a9576040517f08c379a00000000000000000000000000000000000000000000000000000000081526004016106a090611328565b60405180910390fd5b600073ffffffffffffffffffffffffffffffffffffffff168273ffffffffffffffffffffffffffffffffffffffff161415610719576040517f08c379a000000000000000000000000000000000000000000000000000000000815260040161071090611288565b60405180910390fd5b80600160008573ffffffffffffffffffffffffffffffffffffffff1673ffffffffffffffffffffffffffffffffffffffff16815260200190815260200160002060008473ffffffffffffffffffffffffffffffffffffffff1673ffffffffffffffffffffffffffffffffffffffff168152602001908152602001600020819055508173ffffffffffffffffffffffffffffffffffffffff168373ffffffffffffffffffffffffffffffffffffffff167f8c5be1e5ebec7d5bd14f71427d1e84f3dd0314c0f7b2291e5b200ac8c7c3b925836040516107f79190611368565b60405180910390a3505050565b600061081084846105aa565b90507fffffffffffffffffffffffffffffffffffffffffffffffffffffffffffffffff811461088a578181101561087c576040517f08c379a0000000000000000000000000000000000000000000000000000000008152600401610873906112a8565b60405180910390fd5b6108898484848403610639565b5b50505050565b600073ffffffffffffffffffffffffffffffffffffffff168373ffffffffffffffffffffffffffffffffffffffff161415610900576040517f08c379a00000000000000000000000000000000000000000000000000000000081526004016108f790611308565b60405180910390fd5b600073ffffffffffffffffffffffffffffffffffffffff168273ffffffffffffffffffffffffffffffffffffffff161415610970576040517f08c379a000000000000000000000000000000000000000000000000000000000815260040161096790611248565b60405180910390fd5b61097b838383610ce8565b60008060008573ffffffffffffffffffffffffffffffffffffffff1673ffffffffffffffffffffffffffffffffffffffff16815260200190815260200160002054905081811015610a01576040517f08c379a00000000000000000000000000000000000000000000000000000000081526004016109f8906112c8565b60405180910390fd5b8181036000808673ffffffffffffffffffffffffffffffffffffffff1673ffffffffffffffffffffffffffffffffffffffff16815260200190815260200160002081905550816000808573ffffffffffffffffffffffffffffffffffffffff1673ffffffffffffffffffffffffffffffffffffffff1681526020019081526020016000206000828254610a9491906113ba565b925050819055508273ffffffffffffffffffffffffffffffffffffffff168473ffffffffffffffffffffffffffffffffffffffff167fddf252ad1be2c89b69c2b068fc378daa952ba7f163c4a11628f55a4df523b3ef84604051610af89190611368565b60405180910390a3610b0b848484610ced565b50505050565b600073ffffffffffffffffffffffffffffffffffffffff168273ffffffffffffffffffffffffffffffffffffffff161415610b81576040517f08c379a0000000000000000000000000000000000000000000000000000000008152600401610b78906112e8565b60405180910390fd5b610b8d82600083610ce8565b60008060008473ffffffffffffffffffffffffffffffffffffffff1673ffffffffffffffffffffffffffffffffffffffff16815260200190815260200160002054905081811015610c13576040517f08c379a0000000000000000000000000000000000000000000000000000000008152600401610c0a90611268565b60405180910390fd5b8181036000808573ffffffffffffffffffffffffffffffffffffffff1673ffffffffffffffffffffffffffffffffffffffff168152602001908152602001600020819055508160026000828254610c6a9190611410565b92505081905550600073ffffffffffffffffffffffffffffffffffffffff168373ffffffffffffffffffffffffffffffffffffffff167fddf252ad1be2c89b69c2b068fc378daa952ba7f163c4a11628f55a4df523b3ef84604051610ccf9190611368565b60405180910390a3610ce383600084610ced565b505050565b505050565b505050565b600081359050610d018161156d565b92915050565b600081359050610d1681611584565b92915050565b600060208284031215610d2e57600080fd5b6000610d3c84828501610cf2565b91505092915050565b60008060408385031215610d5857600080fd5b6000610d6685828601610cf2565b9250506020610d7785828601610cf2565b9150509250929050565b600080600060608486031215610d9657600080fd5b6000610da486828701610cf2565b9350506020610db586828701610cf2565b9250506040610dc686828701610d07565b9150509250925092565b60008060408385031215610de357600080fd5b6000610df185828601610cf2565b9250506020610e0285828601610d07565b9150509250929050565b600060208284031215610e1e57600080fd5b6000610e2c84828501610d07565b91505092915050565b610e3e81611456565b82525050565b6000610e4f8261139e565b610e5981856113a9565b9350610e69818560208601611499565b610e728161155c565b840191505092915050565b6000610e8a6023836113a9565b91507f45524332303a207472616e7366657220746f20746865207a65726f206164647260008301527f65737300000000000000000000000000000000000000000000000000000000006020830152604082019050919050565b6000610ef06022836113a9565b91507f45524332303a206275726e20616d6f756e7420657863656564732062616c616e60008301527f63650000000000000000000000000000000000000000000000000000000000006020830152604082019050919050565b6000610f566022836113a9565b91507f45524332303a20617070726f766520746f20746865207a65726f20616464726560008301527f73730000000000000000000000000000000000000000000000000000000000006020830152604082019050919050565b6000610fbc601d836113a9565b91507f45524332303a20696e73756666696369656e7420616c6c6f77616e63650000006000830152602082019050919050565b6000610ffc6026836113a9565b91507f45524332303a207472616e7366657220616d6f756e742065786365656473206260008301527f616c616e636500000000000000000000000000000000000000000000000000006020830152604082019050919050565b60006110626021836113a9565b91507f45524332303a206275726e2066726f6d20746865207a65726f2061646472657360008301527f73000000000000000000000000000000000000000000000000000000000000006020830152604082019050919050565b60006110c86025836113a9565b91507f45524332303a207472616e736665722066726f6d20746865207a65726f20616460008301527f64726573730000000000000000000000000000000000000000000000000000006020830152604082019050919050565b600061112e6024836113a9565b91507f45524332303a20617070726f76652066726f6d20746865207a65726f2061646460008301527f72657373000000000000000000000000000000000000000000000000000000006020830152604082019050919050565b60006111946025836113a9565b91507f45524332303a2064656372656173656420616c6c6f77616e63652062656c6f7760008301527f207a65726f0000000000000000000000000000000000000000000000000000006020830152604082019050919050565b6111f681611482565b82525050565b6112058161148c565b82525050565b60006020820190506112206000830184610e35565b92915050565b600060208201905081810360008301526112408184610e44565b905092915050565b6000602082019050818103600083015261126181610e7d565b9050919050565b6000602082019050818103600083015261128181610ee3565b9050919050565b600060208201905081810360008301526112a181610f49565b9050919050565b600060208201905081810360008301526112c181610faf565b9050919050565b600060208201905081810360008301526112e181610fef565b9050919050565b6000602082019050818103600083015261130181611055565b9050919050565b60006020820190508181036000830152611321816110bb565b9050919050565b6000602082019050818103600083015261134181611121565b9050919050565b6000602082019050818103600083015261136181611187565b9050919050565b600060208201905061137d60008301846111ed565b92915050565b600060208201905061139860008301846111fc565b92915050565b600081519050919050565b600082825260208201905092915050565b60006113c582611482565b91506113d083611482565b9250827fffffffffffffffffffffffffffffffffffffffffffffffffffffffffffffffff03821115611405576114046114fe565b5b828201905092915050565b600061141b82611482565b915061142683611482565b925082821015611439576114386114fe565b5b828203905092915050565b600061144f82611462565b9050919050565b60008115159050919050565b600073ffffffffffffffffffffffffffffffffffffffff82169050919050565b6000819050919050565b600060ff82169050919050565b60005b838110156114b757808201518184015260208101905061149c565b838111156114c6576000848401525b50505050565b600060028204905060018216806114e457607f821691505b602082108114156114f8576114f761152d565b5b50919050565b7f4e487b7100000000000000000000000000000000000000000000000000000000600052601160045260246000fd5b7f4e487b7100000000000000000000000000000000000000000000000000000000600052602260045260246000fd5b6000601f19601f8301169050919050565b61157681611444565b811461158157600080fd5b50565b61158d81611482565b811461159857600080fd5b5056fea26469706673582212200df5baed1aa0594483a952514a1c8e76b1f40a100b2be8c83c47e11d283f266664736f6c63430008000033",
  "linkReferences": {},
  "deployedLinkReferences": {}
}